{"abi":[{"inputs":[],"stateMutability":"nonpayable","type":"constructor","name":"constructor"},{"inputs":[{"internalType":"address","name":"_artWorkAddress","type":"address"},{"internalType":"uint256","name":"_collectionId","type":"uint256"}],"name":"addArtWork","outputs":[],"stateMutability":"nonpayable","type":"function"},{"inputs":[{"internalType":"string","name":"_collectionName","type":"string"}],"name":"addCollection","outputs":[],"stateMutability":"nonpayable","type":"function"},{"inputs":[{"internalType":"uint256","name":"id","type":"uint256"}],"name":"cancelBuyOrder","outputs":[],"stateMutability":"nonpayable","type":"function"},{"inputs":[{"internalType":"uint256","name":"id","type":"uint256"}],"name":"cancelSellOrder","outputs":[],"stateMutability":"nonpayable","type":"function"},{"inputs":[{"internalType":"string","name":"a","type":"string"},{"internalType":"string","name":"b","type":"string"}],"name":"compareStrings","outputs":[{"internalType":"bool","name":"","type":"bool"}],"stateMutability":"pure","type":"function"},{"inputs":[],"name":"getAllArtWorks","outputs":[{"internalType":"address[]","name":"","type":"address[]"},{"internalType":"bool[]","name":"","type":"bool[]"}],"stateMutability":"view","type":"function"},{"inputs":[{"internalType":"uint256","name":"_Id","type":"uint256"}],"name":"getAllArtWorksByCollectionId","outputs":[{"internalType":"address[]","name":"","type":"address[]"},{"internalType":"bool[]","name":"","type":"bool[]"}],"stateMutability":"view","type":"function"},{"inputs":[{"internalType":"address","name":"_artworkAddress","type":"address"}],"name":"getAllBuyOrders","outputs":[{"internalType":"uint256[]","name":"","type":"uint256[]"},{"internalType":"uint256[]","name":"","type":"uint256[]"},{"internalType":"uint256[]","name":"","type":"uint256[]"},{"internalType":"uint256[]","name":"","type":"uint256[]"}],"stateMutability":"view","type":"function"},{"inputs":[{"internalType":"address","name":"_artworkAddress","type":"address"}],"name":"getAllSellOrders","outputs":[{"internalType":"uint256[]","name":"","type":"uint256[]"},{"internalType":"uint256[]","name":"","type":"uint256[]"},{"internalType":"uint256[]","name":"","type":"uint256[]"},{"internalType":"uint256[]","name":"","type":"uint256[]"}],"stateMutability":"view","type":"function"},{"inputs":[],"name":"getArtWorks","outputs":[{"internalType":"address[]","name":"","type":"address[]"}],"stateMutability":"view","type":"function"},{"inputs":[{"internalType":"uint256","name":"_Id","type":"uint256"}],"name":"getArtWorksByCollectionId","outputs":[{"internalType":"address[]","name":"","type":"address[]"}],"stateMutability":"view","type":"function"},{"inputs":[{"internalType":"address","name":"_artworkAddress","type":"address"},{"internalType":"address","name":"_address","type":"address"}],"name":"getBuyOrdersByAddress","outputs":[{"internalType":"address[]","name":"","type":"address[]"},{"internalType":"uint256[]","name":"","type":"uint256[]"},{"internalType":"uint256[]","name":"","type":"uint256[]"},{"internalType":"uint256[]","name":"","type":"uint256[]"},{"internalType":"enum SolidStateGallery.OrderState[]","name":"","type":"uint8[]"},{"internalType":"uint256[]","name":"","type":"uint256[]"}],"stateMutability":"view","type":"function"},{"inputs":[{"internalType":"string","name":"_collectionName","type":"string"}],"name":"getCollectionIdByName","outputs":[{"internalType":"uint256","name":"","type":"uint256"}],"stateMutability":"view","type":"function"},{"inputs":[],"name":"getCollections","outputs":[{"internalType":"string[]","name":"","type":"string[]"}],"stateMutability":"view","type":"function"},{"inputs":[{"internalType":"address","name":"_artworkAddress","type":"address"}],"name":"getHeldETH","outputs":[{"internalType":"uint256","name":"","type":"uint256"}],"stateMutability":"view","type":"function"},{"inputs":[{"internalType":"address","name":"_artworkAddress","type":"address"}],"name":"getHeldShares","outputs":[{"internalType":"uint256","name":"","type":"uint256"}],"stateMutability":"view","type":"function"},{"inputs":[],"name":"getOwners","outputs":[{"internalType":"address[]","name":"","type":"address[]"}],"stateMutability":"view","type":"function"},{"inputs":[{"internalType":"address","name":"_artworkAddress","type":"address"},{"internalType":"address","name":"_address","type":"address"}],"name":"getSellOrdersByAddress","outputs":[{"internalType":"address[]","name":"","type":"address[]"},{"internalType":"uint256[]","name":"","type":"uint256[]"},{"internalType":"uint256[]","name":"","type":"uint256[]"},{"internalType":"uint256[]","name":"","type":"uint256[]"},{"internalType":"enum SolidStateGallery.OrderState[]","name":"","type":"uint8[]"},{"internalType":"uint256[]","name":"","type":"uint256[]"}],"stateMutability":"view","type":"function"},{"inputs":[{"internalType":"address","name":"_artworkAddress","type":"address"}],"name":"getTransactions","outputs":[{"internalType":"uint256[]","name":"","type":"uint256[]"},{"internalType":"uint256[]","name":"","type":"uint256[]"},{"internalType":"uint256[]","name":"","type":"uint256[]"},{"internalType":"address[]","name":"","type":"address[]"},{"internalType":"address[]","name":"","type":"address[]"}],"stateMutability":"view","type":"function"},{"inputs":[{"internalType":"address","name":"_newOwnerAddress","type":"address"}],"name":"newOwner","outputs":[],"stateMutability":"nonpayable","type":"function"},{"inputs":[{"internalType":"address","name":"_artworkAddress","type":"address"},{"internalType":"uint256","name":"shareValue","type":"uint256"},{"internalType":"uint256","name":"ethValue","type":"uint256"}],"name":"placeBuyOrder","outputs":[{"internalType":"uint256","name":"","type":"uint256"}],"stateMutability":"payable","type":"function"},{"inputs":[{"internalType":"address","name":"_artworkAddress","type":"address"},{"internalType":"uint256","name":"shareValue","type":"uint256"},{"internalType":"uint256","name":"ethValue","type":"uint256"}],"name":"placeSellOrder","outputs":[{"internalType":"uint256","name":"","type":"uint256"}],"stateMutability":"nonpayable","type":"function"},{"inputs":[{"internalType":"address","name":"_artWorkContractAddress","type":"address"},{"internalType":"bool","name":"_visibility","type":"bool"}],"name":"setArtWorkVisibility","outputs":[],"stateMutability":"nonpayable","type":"function"}],"bytecode":"608060405260006001556000600455600060055534801561001f57600080fd5b50600c805460018101825560009182527fdf6966c971051c3d54ec59162606531493a51404a002842f56009d7e5cf4a8c70180546001600160a01b03191633179055600a819055600d819055600b55613c568061007d6000396000f3fe6080604052600436106101405760003560e01c806389a5c415116100b6578063b92c1e8f1161006f578063b92c1e8f146103a0578063be5d147f146103c0578063bed34bba146103e0578063c3dcad9714610410578063e7c06a1c14610430578063f437b29b1461045057600080fd5b806389a5c415146102db5780639296e00d1461030b5780639e0b43cc1461032b578063a0e67e2b1461034b578063ab3600b514610360578063b8aeb2fd1461038057600080fd5b8063382d041211610108578063382d041214610214578063431e8d631461023657806346e63586146102565780634fb93e7c14610278578063592e03551461029b57806385952454146102bb57600080fd5b80630f8cda20146101455780631a46e42a1461017f578063210bd526146101a157806334fa4449146101d3578063360a67c9146101f3575b600080fd5b34801561015157600080fd5b5061016561016036600461350a565b610470565b6040516101769594939291906135a0565b60405180910390f35b34801561018b57600080fd5b5061019f61019a36600461360d565b61086c565b005b3480156101ad57600080fd5b506101c16101bc366004613626565b6109f9565b6040516101769695949392919061366f565b3480156101df57600080fd5b5061019f6101ee366004613733565b610eab565b61020661020136600461375d565b610fc9565b604051908152602001610176565b34801561022057600080fd5b50610229611150565b6040516101769190613790565b34801561024257600080fd5b50610206610251366004613845565b6112aa565b34801561026257600080fd5b5061026b6113da565b60405161017691906138a9565b34801561028457600080fd5b5061028d611508565b604051610176929190613923565b3480156102a757600080fd5b5061019f6102b6366004613845565b611652565b3480156102c757600080fd5b5061019f6102d636600461350a565b6117d1565b3480156102e757600080fd5b506102fb6102f636600461350a565b61186d565b604051610176949392919061397c565b34801561031757600080fd5b506102fb61032636600461350a565b611b99565b34801561033757600080fd5b5061028d61034636600461360d565b611eac565b34801561035757600080fd5b50610229612061565b34801561036c57600080fd5b5061022961037b36600461360d565b6120c3565b34801561038c57600080fd5b5061019f61039b3660046139e5565b61224a565b3480156103ac57600080fd5b506102066103bb36600461350a565b6122aa565b3480156103cc57600080fd5b5061019f6103db36600461360d565b612317565b3480156103ec57600080fd5b506104006103fb366004613a1c565b612453565b6040519015158152602001610176565b34801561041c57600080fd5b506101c161042b366004613626565b6124ac565b34801561043c57600080fd5b5061020661044b36600461350a565b612946565b34801561045c57600080fd5b5061020661046b36600461375d565b6129b3565b60608060608060606000805b6001548160ff1610156104cf5760ff81166000908152602081905260409020546001600160a01b03898116911614156104bd57816104b981613a95565b9250505b806104c781613ab0565b91505061047c565b506000816001600160401b038111156104ea576104ea6137a3565b604051908082528060200260200182016040528015610513578160200160208202803683370190505b5090506000826001600160401b03811115610530576105306137a3565b604051908082528060200260200182016040528015610559578160200160208202803683370190505b5090506000836001600160401b03811115610576576105766137a3565b60405190808252806020026020018201604052801561059f578160200160208202803683370190505b5090506000846001600160401b038111156105bc576105bc6137a3565b6040519080825280602002602001820160405280156105e5578160200160208202803683370190505b5090506000856001600160401b03811115610602576106026137a3565b60405190808252806020026020018201604052801561062b578160200160208202803683370190505b5090506000866001600160401b03811115610648576106486137a3565b604051908082528060200260200182016040528015610671578160200160208202803683370190505b5090506000965060005b6001548160ff1610156108575760ff81166000908152602081905260409020546001600160a01b038f8116911614156108455760ff811660009081526020819052604090205487516001600160a01b039091169088908a9081106106e1576106e1613ad0565b6001600160a01b0390921660209283029190910182015260ff82166000908152908190526040902060010154865187908a90811061072157610721613ad0565b6020026020010181815250506000808260ff1681526020019081526020016000206002015485898151811061075857610758613ad0565b6020026020010181815250506000808260ff1681526020019081526020016000206007015484898151811061078f5761078f613ad0565b6020026020010181815250506000808260ff16815260200190815260200160002060050160009054906101000a90046001600160a01b03168389815181106107d9576107d9613ad0565b6001600160a01b0392831660209182029290920181019190915260ff83166000908152908190526040902060060154835191169083908a90811061081f5761081f613ad0565b6001600160a01b03909216602092830291909101909101528761084181613a95565b9850505b8061084f81613ab0565b91505061067b565b50939c929b5090995097509095509350505050565b6000818152600360205260409020600101546001600160a01b031633146108da5760405162461bcd60e51b815260206004820152601d60248201527f6d73672e73656e646572206973206e6f74206f72646572206f776e657200000060448201526064015b60405180910390fd5b60008181526003602052604081206005015460ff16600281111561090057610900613659565b146109415760405162461bcd60e51b815260206004820152601160248201527037b93232b91034b9903737ba1037b832b760791b60448201526064016108d1565b6000818152600360205260409081902060058101805460ff1916600217905580546001820154600492830154935163a9059cbb60e01b81526001600160a01b03918216938101939093526024830193909352919091169063a9059cbb906044016020604051808303816000875af11580156109c0573d6000803e3d6000fd5b505050506040513d601f19601f820116820180604052508101906109e49190613ae6565b50600090815260036020526040812060040155565b6060806060806060806000805b6005548160ff161015610a825760ff81166000908152600360205260409020546001600160a01b038b811691161415610a705760ff81166000908152600360205260409020600101546001600160a01b038a811691161415610a705781610a6c81613ab0565b9250505b80610a7a81613ab0565b915050610a06565b5060008160ff166001600160401b03811115610aa057610aa06137a3565b604051908082528060200260200182016040528015610ac9578160200160208202803683370190505b50905060008260ff166001600160401b03811115610ae957610ae96137a3565b604051908082528060200260200182016040528015610b12578160200160208202803683370190505b50905060008360ff166001600160401b03811115610b3257610b326137a3565b604051908082528060200260200182016040528015610b5b578160200160208202803683370190505b50905060008460ff166001600160401b03811115610b7b57610b7b6137a3565b604051908082528060200260200182016040528015610ba4578160200160208202803683370190505b50905060008560ff166001600160401b03811115610bc457610bc46137a3565b604051908082528060200260200182016040528015610bed578160200160208202803683370190505b50905060008660ff166001600160401b03811115610c0d57610c0d6137a3565b604051908082528060200260200182016040528015610c36578160200160208202803683370190505b5090506000965060005b6005548160ff161015610e93578e6001600160a01b0316600360008360ff16815260200190815260200160002060010160009054906101000a90046001600160a01b03166001600160a01b03161415610e81578f6001600160a01b0316600360008360ff16815260200190815260200160002060000160009054906101000a90046001600160a01b03166001600160a01b03161415610e815760ff80821660009081526003602052604090206001015488516001600160a01b03909116918991908b16908110610d1257610d12613ad0565b60200260200101906001600160a01b031690816001600160a01b031681525050600360008260ff16815260200190815260200160002060020154868960ff1681518110610d6157610d61613ad0565b602002602001018181525050600360008260ff16815260200190815260200160002060030154858960ff1681518110610d9c57610d9c613ad0565b602002602001018181525050600360008260ff16815260200190815260200160002060040154848960ff1681518110610dd757610dd7613ad0565b602002602001018181525050600360008260ff16815260200190815260200160002060050160009054906101000a900460ff16828960ff1681518110610e1f57610e1f613ad0565b60200260200101906002811115610e3857610e38613659565b90816002811115610e4b57610e4b613659565b815250508060ff16838960ff1681518110610e6857610e68613ad0565b602090810291909101015287610e7d81613ab0565b9850505b80610e8b81613ab0565b915050610c40565b50949e939d50919b5099509197509095509350505050565b600c600d5481548110610ec057610ec0613ad0565b6000918252602090912001546001600160a01b03163314610ee057600080fd5b60005b600a54811015610f62576000818152600660205260409020546001600160a01b0384811691161415610f505760405162461bcd60e51b8152602060048201526016602482015275105c9d081ddbdc9ac8185b1c9958591e48185919195960521b60448201526064016108d1565b80610f5a81613a95565b915050610ee3565b50600a8054600090815260066020908152604080832080546001600160a01b0319166001600160a01b0388169081179091558454845260088352818420869055835260099091528120805460ff1916905581549190610fc083613a95565b91905055505050565b6000808311610fea5760405162461bcd60e51b81526004016108d190613b03565b6000821161100a5760405162461bcd60e51b81526004016108d190613b03565b816110158434613b3a565b146110575760405162461bcd60e51b815260206004820152601260248201527131b0b7103737ba1036b0b5b29037b93232b960711b60448201526064016108d1565b6040805160c0810182526001600160a01b038681168252336020808401918252838501888152606085018881523460808701908152600060a0880181815260048054835260029687905299909120885181549089166001600160a01b031991821617825596516001808301805492909a1691909816179097559251868501559051600386015551958401959095559351600583018054949593949193909260ff199092169190849081111561110e5761110e613659565b0217905550905050611121600454612b5d565b6001600460008282546111349190613b5c565b909155505060045461114890600190613b74565b949350505050565b60606000805b600a548110156111b2576000818152600660209081526040808320546001600160a01b03168352600990915290205460ff161515600114156111a0578161119c81613a95565b9250505b806111aa81613a95565b915050611156565b506000816001600160401b038111156111cd576111cd6137a3565b6040519080825280602002602001820160405280156111f6578160200160208202803683370190505b5090506000915060005b600a548110156112a3576000818152600660209081526040808320546001600160a01b03168352600990915290205460ff161515600114156112915760008181526006602052604090205482516001600160a01b039091169083908590811061126b5761126b613ad0565b6001600160a01b03909216602092830291909101909101528261128d81613a95565b9350505b8061129b81613a95565b915050611200565b5092915050565b600080805b600b5481101561137e576000818152600760205260409020805461135b91906112d790613b8b565b80601f016020809104026020016040519081016040528092919081815260200182805461130390613b8b565b80156113505780601f1061132557610100808354040283529160200191611350565b820191906000526020600020905b81548152906001019060200180831161133357829003601f168201915b505050505085612453565b15156001141561136c579392505050565b8061137681613a95565b9150506112af565b506001811515146113d15760405162461bcd60e51b815260206004820152601a60248201527f4e6f20436f6c6c656374696f6e2042792054686174204e616d6500000000000060448201526064016108d1565b50600092915050565b60606000600b546001600160401b038111156113f8576113f86137a3565b60405190808252806020026020018201604052801561142b57816020015b60608152602001906001900390816114165790505b50905060005b600b54811015611502576000818152600760205260409020805461145490613b8b565b80601f016020809104026020016040519081016040528092919081815260200182805461148090613b8b565b80156114cd5780601f106114a2576101008083540402835291602001916114cd565b820191906000526020600020905b8154815290600101906020018083116114b057829003601f168201915b50505050508282815181106114e4576114e4613ad0565b602002602001018190525080806114fa90613a95565b915050611431565b50919050565b6060806000600a546001600160401b03811115611527576115276137a3565b604051908082528060200260200182016040528015611550578160200160208202803683370190505b5090506000600a546001600160401b0381111561156f5761156f6137a3565b604051908082528060200260200182016040528015611598578160200160208202803683370190505b50905060005b600a548110156116485760008181526006602052604090205483516001600160a01b03909116908490839081106115d7576115d7613ad0565b6001600160a01b03928316602091820292909201810191909152600083815260068252604080822054909316815260099091522054825160ff9091169083908390811061162657611626613ad0565b911515602092830291909101909101528061164081613a95565b91505061159e565b5090939092509050565b600c600d548154811061166757611667613ad0565b6000918252602090912001546001600160a01b0316331461168757600080fd5b60005b600b54811015611795576000818152600760205260409020805461173691906116b290613b8b565b80601f01602080910402602001604051908101604052809291908181526020018280546116de90613b8b565b801561172b5780601f106117005761010080835404028352916020019161172b565b820191906000526020600020905b81548152906001019060200180831161170e57829003601f168201915b505050505083612453565b156117835760405162461bcd60e51b815260206004820152601b60248201527f436f6c6c656374696f6e20697320616c7265616479206164646564000000000060448201526064016108d1565b8061178d81613a95565b91505061168a565b50600b54600090815260076020908152604090912082516117b892840190613455565b50600b80549060006117c983613a95565b919050555050565b600c600d54815481106117e6576117e6613ad0565b6000918252602090912001546001600160a01b0316331461180657600080fd5b600d805490600061181683613a95565b9091555050600c80546001810182556000919091527fdf6966c971051c3d54ec59162606531493a51404a002842f56009d7e5cf4a8c70180546001600160a01b0319166001600160a01b0392909216919091179055565b6060806060806000805b6004548160ff1610156118ff57600060ff808316600090815260026020819052604090912060050154909116908111156118b3576118b3613659565b14156118ed5760ff81166000908152600260205260409020546001600160a01b03888116911614156118ed576118ea600183613bc0565b91505b806118f781613ab0565b915050611877565b5060008160ff166001600160401b0381111561191d5761191d6137a3565b604051908082528060200260200182016040528015611946578160200160208202803683370190505b50905060008260ff166001600160401b03811115611966576119666137a3565b60405190808252806020026020018201604052801561198f578160200160208202803683370190505b50905060008360ff166001600160401b038111156119af576119af6137a3565b6040519080825280602002602001820160405280156119d8578160200160208202803683370190505b50905060008460ff166001600160401b038111156119f8576119f86137a3565b604051908082528060200260200182016040528015611a21578160200160208202803683370190505b5090506000945060005b6004548160ff161015611b8857600060ff80831660009081526002602081905260409091206005015490911690811115611a6757611a67613659565b1415611b765760ff81166000908152600260205260409020546001600160a01b038c811691161415611b7657600260008260ff16815260200190815260200160002060020154858760ff1681518110611ac257611ac2613ad0565b602002602001018181525050600260008260ff16815260200190815260200160002060030154848760ff1681518110611afd57611afd613ad0565b602002602001018181525050600260008260ff16815260200190815260200160002060040154838760ff1681518110611b3857611b38613ad0565b6020026020010181815250508060ff16828760ff1681518110611b5d57611b5d613ad0565b602090810291909101015285611b7281613ab0565b9650505b80611b8081613ab0565b915050611a2b565b509299919850965090945092505050565b6060806060806000805b6005548160ff161015611c275760ff81166000908152600360205260409020546001600160a01b0388811691161415611c1557600060ff808316600090815260036020526040902060050154166002811115611c0157611c01613659565b1415611c155781611c1181613ab0565b9250505b80611c1f81613ab0565b915050611ba3565b5060008160ff166001600160401b03811115611c4557611c456137a3565b604051908082528060200260200182016040528015611c6e578160200160208202803683370190505b50905060008260ff166001600160401b03811115611c8e57611c8e6137a3565b604051908082528060200260200182016040528015611cb7578160200160208202803683370190505b50905060008360ff166001600160401b03811115611cd757611cd76137a3565b604051908082528060200260200182016040528015611d00578160200160208202803683370190505b50905060008460ff166001600160401b03811115611d2057611d206137a3565b604051908082528060200260200182016040528015611d49578160200160208202803683370190505b5090506000945060005b6005548160ff161015611b885760ff81166000908152600360205260409020546001600160a01b038c811691161415611e9a57600060ff808316600090815260036020526040902060050154166002811115611db157611db1613659565b1415611e9a57600360008260ff16815260200190815260200160002060020154858760ff1681518110611de657611de6613ad0565b602002602001018181525050600360008260ff16815260200190815260200160002060030154848760ff1681518110611e2157611e21613ad0565b602002602001018181525050600360008260ff16815260200190815260200160002060040154838760ff1681518110611e5c57611e5c613ad0565b6020026020010181815250508060ff16828760ff1681518110611e8157611e81613ad0565b602090810291909101015285611e9681613ab0565b9650505b80611ea481613ab0565b915050611d53565b6060806000805b600a54811015611ef357600081815260086020526040902054851415611ee15781611edd81613a95565b9250505b80611eeb81613a95565b915050611eb3565b506000816001600160401b03811115611f0e57611f0e6137a3565b604051908082528060200260200182016040528015611f37578160200160208202803683370190505b5090506000826001600160401b03811115611f5457611f546137a3565b604051908082528060200260200182016040528015611f7d578160200160208202803683370190505b5090506000925060005b600a54811015612055576000818152600860205260409020548714156120435760008181526006602052604090205483516001600160a01b0390911690849086908110611fd657611fd6613ad0565b6001600160a01b03928316602091820292909201810191909152600083815260068252604080822054909316815260099091522054825160ff9091169083908690811061202557612025613ad0565b911515602092830291909101909101528361203f81613a95565b9450505b8061204d81613a95565b915050611f87565b50909590945092505050565b6060600c8054806020026020016040519081016040528092919081815260200182805480156120b957602002820191906000526020600020905b81546001600160a01b0316815260019091019060200180831161209b575b5050505050905090565b60606000805b600a5481101561213b576000818152600660209081526040808320546001600160a01b03168352600990915290205460ff1615156001141561212957600081815260086020526040902054841415612129578161212581613a95565b9250505b8061213381613a95565b9150506120c9565b506000816001600160401b03811115612156576121566137a3565b60405190808252806020026020018201604052801561217f578160200160208202803683370190505b5090506000915060005b600a54811015612242576000818152600660209081526040808320546001600160a01b03168352600990915290205460ff16151560011415612230576000818152600860205260409020548514156122305760008181526006602052604090205482516001600160a01b039091169083908590811061220a5761220a613ad0565b6001600160a01b03909216602092830291909101909101528261222c81613a95565b9350505b8061223a81613a95565b915050612189565b509392505050565b600c600d548154811061225f5761225f613ad0565b6000918252602090912001546001600160a01b0316331461227f57600080fd5b6001600160a01b03919091166000908152600960205260409020805460ff1916911515919091179055565b600080805b6005548160ff1610156112a35760ff81166000908152600360205260409020546001600160a01b03858116911614156123055760ff81166000908152600360205260409020600401546123029083613b5c565b91505b8061230f81613ab0565b9150506122af565b6000818152600260205260409020600101546001600160a01b031633146123805760405162461bcd60e51b815260206004820152601d60248201527f6d73672e73656e646572206973206e6f74206f72646572206f776e657200000060448201526064016108d1565b600081815260026020819052604082206005015460ff16908111156123a7576123a7613659565b146123e85760405162461bcd60e51b815260206004820152601160248201527037b93232b91034b9903737ba1037b832b760791b60448201526064016108d1565b6000818152600260205260408082206004015490513392839280156108fc02929091818181858888f19350505050158015612427573d6000803e3d6000fd5b50506000908152600260208190526040822060048101929092556005909101805460ff19169091179055565b6000816040516020016124669190613be5565b604051602081830303815290604052805190602001208360405160200161248d9190613be5565b6040516020818303038152906040528051906020012014905092915050565b6060806060806060806000805b6004548160ff1610156125355760ff81166000908152600260205260409020600101546001600160a01b038a8116911614156125235760ff81166000908152600260205260409020546001600160a01b038b811691161415612523578161251f81613ab0565b9250505b8061252d81613ab0565b9150506124b9565b5060008160ff166001600160401b03811115612553576125536137a3565b60405190808252806020026020018201604052801561257c578160200160208202803683370190505b50905060008260ff166001600160401b0381111561259c5761259c6137a3565b6040519080825280602002602001820160405280156125c5578160200160208202803683370190505b50905060008360ff166001600160401b038111156125e5576125e56137a3565b60405190808252806020026020018201604052801561260e578160200160208202803683370190505b50905060008460ff166001600160401b0381111561262e5761262e6137a3565b604051908082528060200260200182016040528015612657578160200160208202803683370190505b50905060008560ff166001600160401b03811115612677576126776137a3565b6040519080825280602002602001820160405280156126a0578160200160208202803683370190505b50905060008660ff166001600160401b038111156126c0576126c06137a3565b6040519080825280602002602001820160405280156126e9578160200160208202803683370190505b5090506000965060005b6004548160ff161015610e93578e6001600160a01b0316600260008360ff16815260200190815260200160002060010160009054906101000a90046001600160a01b03166001600160a01b03161415612934578f6001600160a01b0316600260008360ff16815260200190815260200160002060000160009054906101000a90046001600160a01b03166001600160a01b031614156129345760ff80821660009081526002602052604090206001015488516001600160a01b03909116918991908b169081106127c5576127c5613ad0565b60200260200101906001600160a01b031690816001600160a01b031681525050600260008260ff16815260200190815260200160002060020154868960ff168151811061281457612814613ad0565b602002602001018181525050600260008260ff16815260200190815260200160002060030154858960ff168151811061284f5761284f613ad0565b602002602001018181525050600260008260ff16815260200190815260200160002060040154848960ff168151811061288a5761288a613ad0565b6020026020010181815250508060ff16838960ff16815181106128af576128af613ad0565b602002602001018181525050600260008260ff16815260200190815260200160002060050160009054906101000a900460ff16828960ff16815181106128f7576128f7613ad0565b6020026020010190600281111561291057612910613659565b9081600281111561292357612923613659565b9052508761293081613ab0565b9850505b8061293e81613ab0565b9150506126f3565b600080805b6004548160ff1610156112a35760ff81166000908152600260205260409020546001600160a01b03858116911614156129a15760ff811660009081526002602052604090206004015461299e9083613b5c565b91505b806129ab81613ab0565b91505061294b565b60008083116129d45760405162461bcd60e51b81526004016108d190613b03565b600082116129f45760405162461bcd60e51b81526004016108d190613b03565b6040516323b872dd60e01b8152336004820152306024820152604481018490526001600160a01b038516906323b872dd906064016020604051808303816000875af1158015612a47573d6000803e3d6000fd5b505050506040513d601f19601f82011682018060405250810190612a6b9190613ae6565b506040805160c0810182526001600160a01b03868116825233602080840191825283850188815260608501888152608086018a8152600060a0880181815260058054835260039687905299909120885181549089166001600160a01b031991821617825596516001808301805492909a16919098161790975592516002808801919091559151938601939093559151600485015551948301805494959394909260ff19909116918490811115612b2357612b23613659565b0217905550905050612b36600554612f79565b600160056000828254612b499190613b5c565b909155505060055461114890600190613b74565b60005b6005548160ff161015612f7557600060ff808316600090815260036020526040902060050154166002811115612b9857612b98613659565b1415612f6357600082815260026020819052604082206005015460ff1690811115612bc557612bc5613659565b1415612f635760008281526002602090815260408083205460ff851684526003909252909120546001600160a01b0390811691161415612f6357600082815260026020908152604080832060039081015460ff86168552928190529220909101541415612f635760ff811660008181526003602081815260408084206001810154888652600280855292862090920154958552929091526004909101546001600160a01b039091169211612d1e5760008481526002602081815260408084209092015460ff871684526003909152912060040154612ca39190613b74565b60ff8416600081815260036020818152604080842060049081019687558a8552600280845291852091820180549183018690558590556005909101805460ff191660011790559390925290529054909150612d195760ff83166000908152600360205260409020600501805460ff191660011790555b612e0f565b60ff831660009081526003602081905260409091206004810154910154612d459190613c01565b600085815260026020526040902060040154612d619190613b74565b600085815260026020818152604080842060048082019690965560ff891685526003835290842090940154928890528190529190910154612da29190613b74565b60008581526002602081815260408084208084019590955560ff8816845260038252832060048082018054908690556005909201805460ff1916600117905593899052919052910154909150612e0f576000848152600260205260409020600501805460ff191660011790555b6000848152600260205260409020600301546001600160a01b038316906108fc90612e3b908490613c01565b6040518115909202916000818181858888f19350505050158015612e63573d6000803e3d6000fd5b50600084815260026020526040908190208054600190910154915163a9059cbb60e01b81526001600160a01b0392831660048201526024810184905291169063a9059cbb906044016020604051808303816000875af1158015612eca573d6000803e3d6000fd5b505050506040513d601f19601f82011682018060405250810190612eee9190613ae6565b5060008481526002602052604090208054600390910154612f60916001600160a01b031690612f1e908490613c01565b600087815260026020908152604080832060019081015460ff8b168086526003909452919093209092015486928a92916001600160a01b03918216911661339e565b50505b80612f6d81613ab0565b915050612b60565b5050565b60005b6004548160ff161015612f755760008281526003602052604081206005015460ff166002811115612faf57612faf613659565b141561338c57600060ff80831660009081526002602081905260409091206005015490911690811115612fe457612fe4613659565b141561338c5760ff81166000908152600260209081526040808320548584526003909252909120546001600160a01b039081169116141561338c5760ff8116600090815260026020908152604080832060039081015486855292819052922090910154141561338c576000828152600360208181526040808420600181015460ff87168652600280855292862090920154878652939092526004909101546001600160a01b0390911692911161313a5760ff831660009081526002602081815260408084209092015487845260039091529120600401546130c59190613b74565b6000858152600360208181526040808420600490810195865560ff89168552600280845291852091820180549183018690558590556005909101805460ff1916600117905592889052529054909150613135576000848152600360205260409020600501805460ff191660011790555b61322e565b6000848152600360208190526040909120600481015491015461315d9190613c01565b60ff841660009081526002602052604090206004015461317d9190613b74565b60ff841660008181526002602081815260408084206004808201979097558a85526003835290842090950154939092529081905291909101549091506131c4908290613b74565b60ff841660008181526002602081815260408084208084019690965589845260038252832060048082018590556005909101805460ff19166001179055939092529052015461322e5760ff83166000908152600260205260409020600501805460ff191660011790555b60ff83166000908152600260205260409020600301546001600160a01b038316906108fc9061325e908490613c01565b6040518115909202916000818181858888f19350505050158015613286573d6000803e3d6000fd5b5060ff8316600090815260026020526040908190208054600190910154915163a9059cbb60e01b81526001600160a01b0392831660048201526024810184905291169063a9059cbb906044016020604051808303816000875af11580156132f1573d6000803e3d6000fd5b505050506040513d601f19601f820116820180604052508101906133159190613ae6565b5060ff831660009081526002602052604090208054600390910154613389916001600160a01b031690613349908490613c01565b60ff861660008181526002602090815260408083206001908101548c855260039093529220909101548692918a916001600160a01b03918216911661339e565b50505b8061339681613ab0565b915050612f7c565b6001805460009081526020819052604080822080546001600160a01b03808d166001600160a01b0319928316179092558454845282842085018b9055845484528284206002018a905584548452828420426007909101558454845282842060030189905584548452828420600401889055845484528284206005018054888416908316179055845484529183206006018054918616919092161790558154919061344783613a95565b919050555050505050505050565b82805461346190613b8b565b90600052602060002090601f01602090048101928261348357600085556134c9565b82601f1061349c57805160ff19168380011785556134c9565b828001600101855582156134c9579182015b828111156134c95782518255916020019190600101906134ae565b506134d59291506134d9565b5090565b5b808211156134d557600081556001016134da565b80356001600160a01b038116811461350557600080fd5b919050565b60006020828403121561351c57600080fd5b613525826134ee565b9392505050565b600081518084526020808501945080840160005b8381101561355c57815187529582019590820190600101613540565b509495945050505050565b600081518084526020808501945080840160005b8381101561355c5781516001600160a01b03168752958201959082019060010161357b565b60a0815260006135b360a083018861352c565b82810360208401526135c5818861352c565b905082810360408401526135d9818761352c565b905082810360608401526135ed8186613567565b905082810360808401526136018185613567565b98975050505050505050565b60006020828403121561361f57600080fd5b5035919050565b6000806040838503121561363957600080fd5b613642836134ee565b9150613650602084016134ee565b90509250929050565b634e487b7160e01b600052602160045260246000fd5b60c08152600061368260c0830189613567565b602083820381850152613695828a61352c565b915083820360408501526136a9828961352c565b915083820360608501526136bd828861352c565b848103608086015286518082528288019350908201906000805b8281101561370f578551600381106136fd57634e487b7160e01b83526021600452602483fd5b845294840194928401926001016136d7565b50505084810360a0860152613724818761352c565b9b9a5050505050505050505050565b6000806040838503121561374657600080fd5b61374f836134ee565b946020939093013593505050565b60008060006060848603121561377257600080fd5b61377b846134ee565b95602085013595506040909401359392505050565b6020815260006135256020830184613567565b634e487b7160e01b600052604160045260246000fd5b600082601f8301126137ca57600080fd5b81356001600160401b03808211156137e4576137e46137a3565b604051601f8301601f19908116603f0116810190828211818310171561380c5761380c6137a3565b8160405283815286602085880101111561382557600080fd5b836020870160208301376000602085830101528094505050505092915050565b60006020828403121561385757600080fd5b81356001600160401b0381111561386d57600080fd5b611148848285016137b9565b60005b8381101561389457818101518382015260200161387c565b838111156138a3576000848401525b50505050565b6000602080830181845280855180835260408601915060408160051b870101925083870160005b8281101561391657878503603f19018452815180518087526138f7818989018a8501613879565b601f01601f1916959095018601945092850192908501906001016138d0565b5092979650505050505050565b6040815260006139366040830185613567565b82810360208481019190915284518083528582019282019060005b8181101561396f578451151583529383019391830191600101613951565b5090979650505050505050565b60808152600061398f608083018761352c565b82810360208401526139a1818761352c565b905082810360408401526139b5818661352c565b905082810360608401526139c9818561352c565b979650505050505050565b80151581146139e257600080fd5b50565b600080604083850312156139f857600080fd5b613a01836134ee565b91506020830135613a11816139d4565b809150509250929050565b60008060408385031215613a2f57600080fd5b82356001600160401b0380821115613a4657600080fd5b613a52868387016137b9565b93506020850135915080821115613a6857600080fd5b50613a75858286016137b9565b9150509250929050565b634e487b7160e01b600052601160045260246000fd5b6000600019821415613aa957613aa9613a7f565b5060010190565b600060ff821660ff811415613ac757613ac7613a7f565b60010192915050565b634e487b7160e01b600052603260045260246000fd5b600060208284031215613af857600080fd5b8151613525816139d4565b60208082526018908201527f73686172652076616c75652063616e206e6f7420626520300000000000000000604082015260600190565b600082613b5757634e487b7160e01b600052601260045260246000fd5b500490565b60008219821115613b6f57613b6f613a7f565b500190565b600082821015613b8657613b86613a7f565b500390565b600181811c90821680613b9f57607f821691505b6020821081141561150257634e487b7160e01b600052602260045260246000fd5b600060ff821660ff84168060ff03821115613bdd57613bdd613a7f565b019392505050565b60008251613bf7818460208701613879565b9190910192915050565b6000816000190483118215151615613c1b57613c1b613a7f565b50029056fea2646970667358221220a2ccba133954c029d745f6c38533affae4ebb45e12cb3dc730c64b56d5d0757264736f6c634300080b0033","bytecodeSha1":"b7af55c065797aca94defc9a803707d328224837","compiler":{"evm_version":"istanbul","optimizer":{"enabled":true,"runs":200},"version":"0.8.11+commit.d7f03943"},"contractName":"SolidStateGallery","language":"Solidity","natspec":{"kind":"dev","methods":{"getAllBuyOrders(address)":{"notice":"TRADE THE SHARES/TOKENS FOR ETH"}},"version":1},"opcodes":"PUSH1 0x80 PUSH1 0x40 MSTORE PUSH1 0x4 CALLDATASIZE LT PUSH2 0x140 JUMPI PUSH1 0x0 CALLDATALOAD PUSH1 0xE0 SHR DUP1 PUSH4 0x89A5C415 GT PUSH2 0xB6 JUMPI DUP1 PUSH4 0xB92C1E8F GT PUSH2 0x6F JUMPI DUP1 PUSH4 0xB92C1E8F EQ PUSH2 0x3A0 JUMPI DUP1 PUSH4 0xBE5D147F EQ PUSH2 0x3C0 JUMPI DUP1 PUSH4 0xBED34BBA EQ PUSH2 0x3E0 JUMPI DUP1 PUSH4 0xC3DCAD97 EQ PUSH2 0x410 JUMPI DUP1 PUSH4 0xE7C06A1C EQ PUSH2 0x430 JUMPI DUP1 PUSH4 0xF437B29B EQ PUSH2 0x450 JUMPI PUSH1 0x0 DUP1 REVERT JUMPDEST DUP1 PUSH4 0x89A5C415 EQ PUSH2 0x2DB JUMPI DUP1 PUSH4 0x9296E00D EQ PUSH2 0x30B JUMPI DUP1 PUSH4 0x9E0B43CC EQ PUSH2 0x32B JUMPI DUP1 PUSH4 0xA0E67E2B EQ PUSH2 0x34B JUMPI DUP1 PUSH4 0xAB3600B5 EQ PUSH2 0x360 JUMPI DUP1 PUSH4 0xB8AEB2FD EQ PUSH2 0x380 JUMPI PUSH1 0x0 DUP1 REVERT JUMPDEST DUP1 PUSH4 0x382D0412 GT PUSH2 0x108 JUMPI DUP1 PUSH4 0x382D0412 EQ PUSH2 0x214 JUMPI DUP1 PUSH4 0x431E8D63 EQ PUSH2 0x236 JUMPI DUP1 PUSH4 0x46E63586 EQ PUSH2 0x256 JUMPI DUP1 PUSH4 0x4FB93E7C EQ PUSH2 0x278 JUMPI DUP1 PUSH4 0x592E0355 EQ PUSH2 0x29B JUMPI DUP1 PUSH4 0x85952454 EQ PUSH2 0x2BB JUMPI PUSH1 0x0 DUP1 REVERT JUMPDEST DUP1 PUSH4 0xF8CDA20 EQ PUSH2 0x145 JUMPI DUP1 PUSH4 0x1A46E42A EQ PUSH2 0x17F JUMPI DUP1 PUSH4 0x210BD526 EQ PUSH2 0x1A1 JUMPI DUP1 PUSH4 0x34FA4449 EQ PUSH2 0x1D3 JUMPI DUP1 PUSH4 0x360A67C9 EQ PUSH2 0x1F3 JUMPI JUMPDEST PUSH1 0x0 DUP1 REVERT JUMPDEST CALLVALUE DUP1 ISZERO PUSH2 0x151 JUMPI PUSH1 0x0 DUP1 REVERT JUMPDEST POP PUSH2 0x165 PUSH2 0x160 CALLDATASIZE PUSH1 0x4 PUSH2 0x350A JUMP JUMPDEST PUSH2 0x470 JUMP JUMPDEST PUSH1 0x40 MLOAD PUSH2 0x176 SWAP6 SWAP5 SWAP4 SWAP3 SWAP2 SWAP1 PUSH2 0x35A0 JUMP JUMPDEST PUSH1 0x40 MLOAD DUP1 SWAP2 SUB SWAP1 RETURN JUMPDEST CALLVALUE DUP1 ISZERO PUSH2 0x18B JUMPI PUSH1 0x0 DUP1 REVERT JUMPDEST POP PUSH2 0x19F PUSH2 0x19A CALLDATASIZE PUSH1 0x4 PUSH2 0x360D JUMP JUMPDEST PUSH2 0x86C JUMP JUMPDEST STOP JUMPDEST CALLVALUE DUP1 ISZERO PUSH2 0x1AD JUMPI PUSH1 0x0 DUP1 REVERT JUMPDEST POP PUSH2 0x1C1 PUSH2 0x1BC CALLDATASIZE PUSH1 0x4 PUSH2 0x3626 JUMP JUMPDEST PUSH2 0x9F9 JUMP JUMPDEST PUSH1 0x40 MLOAD PUSH2 0x176 SWAP7 SWAP6 SWAP5 SWAP4 SWAP3 SWAP2 SWAP1 PUSH2 0x366F JUMP JUMPDEST CALLVALUE DUP1 ISZERO PUSH2 0x1DF JUMPI PUSH1 0x0 DUP1 REVERT JUMPDEST POP PUSH2 0x19F PUSH2 0x1EE CALLDATASIZE PUSH1 0x4 PUSH2 0x3733 JUMP JUMPDEST PUSH2 0xEAB JUMP JUMPDEST PUSH2 0x206 PUSH2 0x201 CALLDATASIZE PUSH1 0x4 PUSH2 0x375D JUMP JUMPDEST PUSH2 0xFC9 JUMP JUMPDEST PUSH1 0x40 MLOAD SWAP1 DUP2 MSTORE PUSH1 0x20 ADD PUSH2 0x176 JUMP JUMPDEST CALLVALUE DUP1 ISZERO PUSH2 0x220 JUMPI PUSH1 0x0 DUP1 REVERT JUMPDEST POP PUSH2 0x229 PUSH2 0x1150 JUMP JUMPDEST PUSH1 0x40 MLOAD PUSH2 0x176 SWAP2 SWAP1 PUSH2 0x3790 JUMP JUMPDEST CALLVALUE DUP1 ISZERO PUSH2 0x242 JUMPI PUSH1 0x0 DUP1 REVERT JUMPDEST POP PUSH2 0x206 PUSH2 0x251 CALLDATASIZE PUSH1 0x4 PUSH2 0x3845 JUMP JUMPDEST PUSH2 0x12AA JUMP JUMPDEST CALLVALUE DUP1 ISZERO PUSH2 0x262 JUMPI PUSH1 0x0 DUP1 REVERT JUMPDEST POP PUSH2 0x26B PUSH2 0x13DA JUMP JUMPDEST PUSH1 0x40 MLOAD PUSH2 0x176 SWAP2 SWAP1 PUSH2 0x38A9 JUMP JUMPDEST CALLVALUE DUP1 ISZERO PUSH2 0x284 JUMPI PUSH1 0x0 DUP1 REVERT JUMPDEST POP PUSH2 0x28D PUSH2 0x1508 JUMP JUMPDEST PUSH1 0x40 MLOAD PUSH2 0x176 SWAP3 SWAP2 SWAP1 PUSH2 0x3923 JUMP JUMPDEST CALLVALUE DUP1 ISZERO PUSH2 0x2A7 JUMPI PUSH1 0x0 DUP1 REVERT JUMPDEST POP PUSH2 0x19F PUSH2 0x2B6 CALLDATASIZE PUSH1 0x4 PUSH2 0x3845 JUMP JUMPDEST PUSH2 0x1652 JUMP JUMPDEST CALLVALUE DUP1 ISZERO PUSH2 0x2C7 JUMPI PUSH1 0x0 DUP1 REVERT JUMPDEST POP PUSH2 0x19F PUSH2 0x2D6 CALLDATASIZE PUSH1 0x4 PUSH2 0x350A JUMP JUMPDEST PUSH2 0x17D1 JUMP JUMPDEST CALLVALUE DUP1 ISZERO PUSH2 0x2E7 JUMPI PUSH1 0x0 DUP1 REVERT JUMPDEST POP PUSH2 0x2FB PUSH2 0x2F6 CALLDATASIZE PUSH1 0x4 PUSH2 0x350A JUMP JUMPDEST PUSH2 0x186D JUMP JUMPDEST PUSH1 0x40 MLOAD PUSH2 0x176 SWAP5 SWAP4 SWAP3 SWAP2 SWAP1 PUSH2 0x397C JUMP JUMPDEST CALLVALUE DUP1 ISZERO PUSH2 0x317 JUMPI PUSH1 0x0 DUP1 REVERT JUMPDEST POP PUSH2 0x2FB PUSH2 0x326 CALLDATASIZE PUSH1 0x4 PUSH2 0x350A JUMP JUMPDEST PUSH2 0x1B99 JUMP JUMPDEST CALLVALUE DUP1 ISZERO PUSH2 0x337 JUMPI PUSH1 0x0 DUP1 REVERT JUMPDEST POP PUSH2 0x28D PUSH2 0x346 CALLDATASIZE PUSH1 0x4 PUSH2 0x360D JUMP JUMPDEST PUSH2 0x1EAC JUMP JUMPDEST CALLVALUE DUP1 ISZERO PUSH2 0x357 JUMPI PUSH1 0x0 DUP1 REVERT JUMPDEST POP PUSH2 0x229 PUSH2 0x2061 JUMP JUMPDEST CALLVALUE DUP1 ISZERO PUSH2 0x36C JUMPI PUSH1 0x0 DUP1 REVERT JUMPDEST POP PUSH2 0x229 PUSH2 0x37B CALLDATASIZE PUSH1 0x4 PUSH2 0x360D JUMP JUMPDEST PUSH2 0x20C3 JUMP JUMPDEST CALLVALUE DUP1 ISZERO PUSH2 0x38C JUMPI PUSH1 0x0 DUP1 REVERT JUMPDEST POP PUSH2 0x19F PUSH2 0x39B CALLDATASIZE PUSH1 0x4 PUSH2 0x39E5 JUMP JUMPDEST PUSH2 0x224A JUMP JUMPDEST CALLVALUE DUP1 ISZERO PUSH2 0x3AC JUMPI PUSH1 0x0 DUP1 REVERT JUMPDEST POP PUSH2 0x206 PUSH2 0x3BB CALLDATASIZE PUSH1 0x4 PUSH2 0x350A JUMP JUMPDEST PUSH2 0x22AA JUMP JUMPDEST CALLVALUE DUP1 ISZERO PUSH2 0x3CC JUMPI PUSH1 0x0 DUP1 REVERT JUMPDEST POP PUSH2 0x19F PUSH2 0x3DB CALLDATASIZE PUSH1 0x4 PUSH2 0x360D JUMP JUMPDEST PUSH2 0x2317 JUMP JUMPDEST CALLVALUE DUP1 ISZERO PUSH2 0x3EC JUMPI PUSH1 0x0 DUP1 REVERT JUMPDEST POP PUSH2 0x400 PUSH2 0x3FB CALLDATASIZE PUSH1 0x4 PUSH2 0x3A1C JUMP JUMPDEST PUSH2 0x2453 JUMP JUMPDEST PUSH1 0x40 MLOAD SWAP1 ISZERO ISZERO DUP2 MSTORE PUSH1 0x20 ADD PUSH2 0x176 JUMP JUMPDEST CALLVALUE DUP1 ISZERO PUSH2 0x41C JUMPI PUSH1 0x0 DUP1 REVERT JUMPDEST POP PUSH2 0x1C1 PUSH2 0x42B CALLDATASIZE PUSH1 0x4 PUSH2 0x3626 JUMP JUMPDEST PUSH2 0x24AC JUMP JUMPDEST CALLVALUE DUP1 ISZERO PUSH2 0x43C JUMPI PUSH1 0x0 DUP1 REVERT JUMPDEST POP PUSH2 0x206 PUSH2 0x44B CALLDATASIZE PUSH1 0x4 PUSH2 0x350A JUMP JUMPDEST PUSH2 0x2946 JUMP JUMPDEST CALLVALUE DUP1 ISZERO PUSH2 0x45C JUMPI PUSH1 0x0 DUP1 REVERT JUMPDEST POP PUSH2 0x206 PUSH2 0x46B CALLDATASIZE PUSH1 0x4 PUSH2 0x375D JUMP JUMPDEST PUSH2 0x29B3 JUMP JUMPDEST PUSH1 0x60 DUP1 PUSH1 0x60 DUP1 PUSH1 0x60 PUSH1 0x0 DUP1 JUMPDEST PUSH1 0x1 SLOAD DUP2 PUSH1 0xFF AND LT ISZERO PUSH2 0x4CF JUMPI PUSH1 0xFF DUP2 AND PUSH1 0x0 SWAP1 DUP2 MSTORE PUSH1 0x20 DUP2 SWAP1 MSTORE PUSH1 0x40 SWAP1 KECCAK256 SLOAD PUSH1 0x1 PUSH1 0x1 PUSH1 0xA0 SHL SUB DUP10 DUP2 AND SWAP2 AND EQ ISZERO PUSH2 0x4BD JUMPI DUP2 PUSH2 0x4B9 DUP2 PUSH2 0x3A95 JUMP JUMPDEST SWAP3 POP POP JUMPDEST DUP1 PUSH2 0x4C7 DUP2 PUSH2 0x3AB0 JUMP JUMPDEST SWAP2 POP POP PUSH2 0x47C JUMP JUMPDEST POP PUSH1 0x0 DUP2 PUSH1 0x1 PUSH1 0x1 PUSH1 0x40 SHL SUB DUP2 GT ISZERO PUSH2 0x4EA JUMPI PUSH2 0x4EA PUSH2 0x37A3 JUMP JUMPDEST PUSH1 0x40 MLOAD SWAP1 DUP1 DUP3 MSTORE DUP1 PUSH1 0x20 MUL PUSH1 0x20 ADD DUP3 ADD PUSH1 0x40 MSTORE DUP1 ISZERO PUSH2 0x513 JUMPI DUP2 PUSH1 0x20 ADD PUSH1 0x20 DUP3 MUL DUP1 CALLDATASIZE DUP4 CALLDATACOPY ADD SWAP1 POP JUMPDEST POP SWAP1 POP PUSH1 0x0 DUP3 PUSH1 0x1 PUSH1 0x1 PUSH1 0x40 SHL SUB DUP2 GT ISZERO PUSH2 0x530 JUMPI PUSH2 0x530 PUSH2 0x37A3 JUMP JUMPDEST PUSH1 0x40 MLOAD SWAP1 DUP1 DUP3 MSTORE DUP1 PUSH1 0x20 MUL PUSH1 0x20 ADD DUP3 ADD PUSH1 0x40 MSTORE DUP1 ISZERO PUSH2 0x559 JUMPI DUP2 PUSH1 0x20 ADD PUSH1 0x20 DUP3 MUL DUP1 CALLDATASIZE DUP4 CALLDATACOPY ADD SWAP1 POP JUMPDEST POP SWAP1 POP PUSH1 0x0 DUP4 PUSH1 0x1 PUSH1 0x1 PUSH1 0x40 SHL SUB DUP2 GT ISZERO PUSH2 0x576 JUMPI PUSH2 0x576 PUSH2 0x37A3 JUMP JUMPDEST PUSH1 0x40 MLOAD SWAP1 DUP1 DUP3 MSTORE DUP1 PUSH1 0x20 MUL PUSH1 0x20 ADD DUP3 ADD PUSH1 0x40 MSTORE DUP1 ISZERO PUSH2 0x59F JUMPI DUP2 PUSH1 0x20 ADD PUSH1 0x20 DUP3 MUL DUP1 CALLDATASIZE DUP4 CALLDATACOPY ADD SWAP1 POP JUMPDEST POP SWAP1 POP PUSH1 0x0 DUP5 PUSH1 0x1 PUSH1 0x1 PUSH1 0x40 SHL SUB DUP2 GT ISZERO PUSH2 0x5BC JUMPI PUSH2 0x5BC PUSH2 0x37A3 JUMP JUMPDEST PUSH1 0x40 MLOAD SWAP1 DUP1 DUP3 MSTORE DUP1 PUSH1 0x20 MUL PUSH1 0x20 ADD DUP3 ADD PUSH1 0x40 MSTORE DUP1 ISZERO PUSH2 0x5E5 JUMPI DUP2 PUSH1 0x20 ADD PUSH1 0x20 DUP3 MUL DUP1 CALLDATASIZE DUP4 CALLDATACOPY ADD SWAP1 POP JUMPDEST POP SWAP1 POP PUSH1 0x0 DUP6 PUSH1 0x1 PUSH1 0x1 PUSH1 0x40 SHL SUB DUP2 GT ISZERO PUSH2 0x602 JUMPI PUSH2 0x602 PUSH2 0x37A3 JUMP JUMPDEST PUSH1 0x40 MLOAD SWAP1 DUP1 DUP3 MSTORE DUP1 PUSH1 0x20 MUL PUSH1 0x20 ADD DUP3 ADD PUSH1 0x40 MSTORE DUP1 ISZERO PUSH2 0x62B JUMPI DUP2 PUSH1 0x20 ADD PUSH1 0x20 DUP3 MUL DUP1 CALLDATASIZE DUP4 CALLDATACOPY ADD SWAP1 POP JUMPDEST POP SWAP1 POP PUSH1 0x0 DUP7 PUSH1 0x1 PUSH1 0x1 PUSH1 0x40 SHL SUB DUP2 GT ISZERO PUSH2 0x648 JUMPI PUSH2 0x648 PUSH2 0x37A3 JUMP JUMPDEST PUSH1 0x40 MLOAD SWAP1 DUP1 DUP3 MSTORE DUP1 PUSH1 0x20 MUL PUSH1 0x20 ADD DUP3 ADD PUSH1 0x40 MSTORE DUP1 ISZERO PUSH2 0x671 JUMPI DUP2 PUSH1 0x20 ADD PUSH1 0x20 DUP3 MUL DUP1 CALLDATASIZE DUP4 CALLDATACOPY ADD SWAP1 POP JUMPDEST POP SWAP1 POP PUSH1 0x0 SWAP7 POP PUSH1 0x0 JUMPDEST PUSH1 0x1 SLOAD DUP2 PUSH1 0xFF AND LT ISZERO PUSH2 0x857 JUMPI PUSH1 0xFF DUP2 AND PUSH1 0x0 SWAP1 DUP2 MSTORE PUSH1 0x20 DUP2 SWAP1 MSTORE PUSH1 0x40 SWAP1 KECCAK256 SLOAD PUSH1 0x1 PUSH1 0x1 PUSH1 0xA0 SHL SUB DUP16 DUP2 AND SWAP2 AND EQ ISZERO PUSH2 0x845 JUMPI PUSH1 0xFF DUP2 AND PUSH1 0x0 SWAP1 DUP2 MSTORE PUSH1 0x20 DUP2 SWAP1 MSTORE PUSH1 0x40 SWAP1 KECCAK256 SLOAD DUP8 MLOAD PUSH1 0x1 PUSH1 0x1 PUSH1 0xA0 SHL SUB SWAP1 SWAP2 AND SWAP1 DUP9 SWAP1 DUP11 SWAP1 DUP2 LT PUSH2 0x6E1 JUMPI PUSH2 0x6E1 PUSH2 0x3AD0 JUMP JUMPDEST PUSH1 0x1 PUSH1 0x1 PUSH1 0xA0 SHL SUB SWAP1 SWAP3 AND PUSH1 0x20 SWAP3 DUP4 MUL SWAP2 SWAP1 SWAP2 ADD DUP3 ADD MSTORE PUSH1 0xFF DUP3 AND PUSH1 0x0 SWAP1 DUP2 MSTORE SWAP1 DUP2 SWAP1 MSTORE PUSH1 0x40 SWAP1 KECCAK256 PUSH1 0x1 ADD SLOAD DUP7 MLOAD DUP8 SWAP1 DUP11 SWAP1 DUP2 LT PUSH2 0x721 JUMPI PUSH2 0x721 PUSH2 0x3AD0 JUMP JUMPDEST PUSH1 0x20 MUL PUSH1 0x20 ADD ADD DUP2 DUP2 MSTORE POP POP PUSH1 0x0 DUP1 DUP3 PUSH1 0xFF AND DUP2 MSTORE PUSH1 0x20 ADD SWAP1 DUP2 MSTORE PUSH1 0x20 ADD PUSH1 0x0 KECCAK256 PUSH1 0x2 ADD SLOAD DUP6 DUP10 DUP2 MLOAD DUP2 LT PUSH2 0x758 JUMPI PUSH2 0x758 PUSH2 0x3AD0 JUMP JUMPDEST PUSH1 0x20 MUL PUSH1 0x20 ADD ADD DUP2 DUP2 MSTORE POP POP PUSH1 0x0 DUP1 DUP3 PUSH1 0xFF AND DUP2 MSTORE PUSH1 0x20 ADD SWAP1 DUP2 MSTORE PUSH1 0x20 ADD PUSH1 0x0 KECCAK256 PUSH1 0x7 ADD SLOAD DUP5 DUP10 DUP2 MLOAD DUP2 LT PUSH2 0x78F JUMPI PUSH2 0x78F PUSH2 0x3AD0 JUMP JUMPDEST PUSH1 0x20 MUL PUSH1 0x20 ADD ADD DUP2 DUP2 MSTORE POP POP PUSH1 0x0 DUP1 DUP3 PUSH1 0xFF AND DUP2 MSTORE PUSH1 0x20 ADD SWAP1 DUP2 MSTORE PUSH1 0x20 ADD PUSH1 0x0 KECCAK256 PUSH1 0x5 ADD PUSH1 0x0 SWAP1 SLOAD SWAP1 PUSH2 0x100 EXP SWAP1 DIV PUSH1 0x1 PUSH1 0x1 PUSH1 0xA0 SHL SUB AND DUP4 DUP10 DUP2 MLOAD DUP2 LT PUSH2 0x7D9 JUMPI PUSH2 0x7D9 PUSH2 0x3AD0 JUMP JUMPDEST PUSH1 0x1 PUSH1 0x1 PUSH1 0xA0 SHL SUB SWAP3 DUP4 AND PUSH1 0x20 SWAP2 DUP3 MUL SWAP3 SWAP1 SWAP3 ADD DUP2 ADD SWAP2 SWAP1 SWAP2 MSTORE PUSH1 0xFF DUP4 AND PUSH1 0x0 SWAP1 DUP2 MSTORE SWAP1 DUP2 SWAP1 MSTORE PUSH1 0x40 SWAP1 KECCAK256 PUSH1 0x6 ADD SLOAD DUP4 MLOAD SWAP2 AND SWAP1 DUP4 SWAP1 DUP11 SWAP1 DUP2 LT PUSH2 0x81F JUMPI PUSH2 0x81F PUSH2 0x3AD0 JUMP JUMPDEST PUSH1 0x1 PUSH1 0x1 PUSH1 0xA0 SHL SUB SWAP1 SWAP3 AND PUSH1 0x20 SWAP3 DUP4 MUL SWAP2 SWAP1 SWAP2 ADD SWAP1 SWAP2 ADD MSTORE DUP8 PUSH2 0x841 DUP2 PUSH2 0x3A95 JUMP JUMPDEST SWAP9 POP POP JUMPDEST DUP1 PUSH2 0x84F DUP2 PUSH2 0x3AB0 JUMP JUMPDEST SWAP2 POP POP PUSH2 0x67B JUMP JUMPDEST POP SWAP4 SWAP13 SWAP3 SWAP12 POP SWAP1 SWAP10 POP SWAP8 POP SWAP1 SWAP6 POP SWAP4 POP POP POP POP JUMP JUMPDEST PUSH1 0x0 DUP2 DUP2 MSTORE PUSH1 0x3 PUSH1 0x20 MSTORE PUSH1 0x40 SWAP1 KECCAK256 PUSH1 0x1 ADD SLOAD PUSH1 0x1 PUSH1 0x1 PUSH1 0xA0 SHL SUB AND CALLER EQ PUSH2 0x8DA JUMPI PUSH1 0x40 MLOAD PUSH3 0x461BCD PUSH1 0xE5 SHL DUP2 MSTORE PUSH1 0x20 PUSH1 0x4 DUP3 ADD MSTORE PUSH1 0x1D PUSH1 0x24 DUP3 ADD MSTORE PUSH32 0x6D73672E73656E646572206973206E6F74206F72646572206F776E6572000000 PUSH1 0x44 DUP3 ADD MSTORE PUSH1 0x64 ADD JUMPDEST PUSH1 0x40 MLOAD DUP1 SWAP2 SUB SWAP1 REVERT JUMPDEST PUSH1 0x0 DUP2 DUP2 MSTORE PUSH1 0x3 PUSH1 0x20 MSTORE PUSH1 0x40 DUP2 KECCAK256 PUSH1 0x5 ADD SLOAD PUSH1 0xFF AND PUSH1 0x2 DUP2 GT ISZERO PUSH2 0x900 JUMPI PUSH2 0x900 PUSH2 0x3659 JUMP JUMPDEST EQ PUSH2 0x941 JUMPI PUSH1 0x40 MLOAD PUSH3 0x461BCD PUSH1 0xE5 SHL DUP2 MSTORE PUSH1 0x20 PUSH1 0x4 DUP3 ADD MSTORE PUSH1 0x11 PUSH1 0x24 DUP3 ADD MSTORE PUSH17 0x37B93232B91034B9903737BA1037B832B7 PUSH1 0x79 SHL PUSH1 0x44 DUP3 ADD MSTORE PUSH1 0x64 ADD PUSH2 0x8D1 JUMP JUMPDEST PUSH1 0x0 DUP2 DUP2 MSTORE PUSH1 0x3 PUSH1 0x20 MSTORE PUSH1 0x40 SWAP1 DUP2 SWAP1 KECCAK256 PUSH1 0x5 DUP2 ADD DUP1 SLOAD PUSH1 0xFF NOT AND PUSH1 0x2 OR SWAP1 SSTORE DUP1 SLOAD PUSH1 0x1 DUP3 ADD SLOAD PUSH1 0x4 SWAP3 DUP4 ADD SLOAD SWAP4 MLOAD PUSH4 0xA9059CBB PUSH1 0xE0 SHL DUP2 MSTORE PUSH1 0x1 PUSH1 0x1 PUSH1 0xA0 SHL SUB SWAP2 DUP3 AND SWAP4 DUP2 ADD SWAP4 SWAP1 SWAP4 MSTORE PUSH1 0x24 DUP4 ADD SWAP4 SWAP1 SWAP4 MSTORE SWAP2 SWAP1 SWAP2 AND SWAP1 PUSH4 0xA9059CBB SWAP1 PUSH1 0x44 ADD PUSH1 0x20 PUSH1 0x40 MLOAD DUP1 DUP4 SUB DUP2 PUSH1 0x0 DUP8 GAS CALL ISZERO DUP1 ISZERO PUSH2 0x9C0 JUMPI RETURNDATASIZE PUSH1 0x0 DUP1 RETURNDATACOPY RETURNDATASIZE PUSH1 0x0 REVERT JUMPDEST POP POP POP POP PUSH1 0x40 MLOAD RETURNDATASIZE PUSH1 0x1F NOT PUSH1 0x1F DUP3 ADD AND DUP3 ADD DUP1 PUSH1 0x40 MSTORE POP DUP2 ADD SWAP1 PUSH2 0x9E4 SWAP2 SWAP1 PUSH2 0x3AE6 JUMP JUMPDEST POP PUSH1 0x0 SWAP1 DUP2 MSTORE PUSH1 0x3 PUSH1 0x20 MSTORE PUSH1 0x40 DUP2 KECCAK256 PUSH1 0x4 ADD SSTORE JUMP JUMPDEST PUSH1 0x60 DUP1 PUSH1 0x60 DUP1 PUSH1 0x60 DUP1 PUSH1 0x0 DUP1 JUMPDEST PUSH1 0x5 SLOAD DUP2 PUSH1 0xFF AND LT ISZERO PUSH2 0xA82 JUMPI PUSH1 0xFF DUP2 AND PUSH1 0x0 SWAP1 DUP2 MSTORE PUSH1 0x3 PUSH1 0x20 MSTORE PUSH1 0x40 SWAP1 KECCAK256 SLOAD PUSH1 0x1 PUSH1 0x1 PUSH1 0xA0 SHL SUB DUP12 DUP2 AND SWAP2 AND EQ ISZERO PUSH2 0xA70 JUMPI PUSH1 0xFF DUP2 AND PUSH1 0x0 SWAP1 DUP2 MSTORE PUSH1 0x3 PUSH1 0x20 MSTORE PUSH1 0x40 SWAP1 KECCAK256 PUSH1 0x1 ADD SLOAD PUSH1 0x1 PUSH1 0x1 PUSH1 0xA0 SHL SUB DUP11 DUP2 AND SWAP2 AND EQ ISZERO PUSH2 0xA70 JUMPI DUP2 PUSH2 0xA6C DUP2 PUSH2 0x3AB0 JUMP JUMPDEST SWAP3 POP POP JUMPDEST DUP1 PUSH2 0xA7A DUP2 PUSH2 0x3AB0 JUMP JUMPDEST SWAP2 POP POP PUSH2 0xA06 JUMP JUMPDEST POP PUSH1 0x0 DUP2 PUSH1 0xFF AND PUSH1 0x1 PUSH1 0x1 PUSH1 0x40 SHL SUB DUP2 GT ISZERO PUSH2 0xAA0 JUMPI PUSH2 0xAA0 PUSH2 0x37A3 JUMP JUMPDEST PUSH1 0x40 MLOAD SWAP1 DUP1 DUP3 MSTORE DUP1 PUSH1 0x20 MUL PUSH1 0x20 ADD DUP3 ADD PUSH1 0x40 MSTORE DUP1 ISZERO PUSH2 0xAC9 JUMPI DUP2 PUSH1 0x20 ADD PUSH1 0x20 DUP3 MUL DUP1 CALLDATASIZE DUP4 CALLDATACOPY ADD SWAP1 POP JUMPDEST POP SWAP1 POP PUSH1 0x0 DUP3 PUSH1 0xFF AND PUSH1 0x1 PUSH1 0x1 PUSH1 0x40 SHL SUB DUP2 GT ISZERO PUSH2 0xAE9 JUMPI PUSH2 0xAE9 PUSH2 0x37A3 JUMP JUMPDEST PUSH1 0x40 MLOAD SWAP1 DUP1 DUP3 MSTORE DUP1 PUSH1 0x20 MUL PUSH1 0x20 ADD DUP3 ADD PUSH1 0x40 MSTORE DUP1 ISZERO PUSH2 0xB12 JUMPI DUP2 PUSH1 0x20 ADD PUSH1 0x20 DUP3 MUL DUP1 CALLDATASIZE DUP4 CALLDATACOPY ADD SWAP1 POP JUMPDEST POP SWAP1 POP PUSH1 0x0 DUP4 PUSH1 0xFF AND PUSH1 0x1 PUSH1 0x1 PUSH1 0x40 SHL SUB DUP2 GT ISZERO PUSH2 0xB32 JUMPI PUSH2 0xB32 PUSH2 0x37A3 JUMP JUMPDEST PUSH1 0x40 MLOAD SWAP1 DUP1 DUP3 MSTORE DUP1 PUSH1 0x20 MUL PUSH1 0x20 ADD DUP3 ADD PUSH1 0x40 MSTORE DUP1 ISZERO PUSH2 0xB5B JUMPI DUP2 PUSH1 0x20 ADD PUSH1 0x20 DUP3 MUL DUP1 CALLDATASIZE DUP4 CALLDATACOPY ADD SWAP1 POP JUMPDEST POP SWAP1 POP PUSH1 0x0 DUP5 PUSH1 0xFF AND PUSH1 0x1 PUSH1 0x1 PUSH1 0x40 SHL SUB DUP2 GT ISZERO PUSH2 0xB7B JUMPI PUSH2 0xB7B PUSH2 0x37A3 JUMP JUMPDEST PUSH1 0x40 MLOAD SWAP1 DUP1 DUP3 MSTORE DUP1 PUSH1 0x20 MUL PUSH1 0x20 ADD DUP3 ADD PUSH1 0x40 MSTORE DUP1 ISZERO PUSH2 0xBA4 JUMPI DUP2 PUSH1 0x20 ADD PUSH1 0x20 DUP3 MUL DUP1 CALLDATASIZE DUP4 CALLDATACOPY ADD SWAP1 POP JUMPDEST POP SWAP1 POP PUSH1 0x0 DUP6 PUSH1 0xFF AND PUSH1 0x1 PUSH1 0x1 PUSH1 0x40 SHL SUB DUP2 GT ISZERO PUSH2 0xBC4 JUMPI PUSH2 0xBC4 PUSH2 0x37A3 JUMP JUMPDEST PUSH1 0x40 MLOAD SWAP1 DUP1 DUP3 MSTORE DUP1 PUSH1 0x20 MUL PUSH1 0x20 ADD DUP3 ADD PUSH1 0x40 MSTORE DUP1 ISZERO PUSH2 0xBED JUMPI DUP2 PUSH1 0x20 ADD PUSH1 0x20 DUP3 MUL DUP1 CALLDATASIZE DUP4 CALLDATACOPY ADD SWAP1 POP JUMPDEST POP SWAP1 POP PUSH1 0x0 DUP7 PUSH1 0xFF AND PUSH1 0x1 PUSH1 0x1 PUSH1 0x40 SHL SUB DUP2 GT ISZERO PUSH2 0xC0D JUMPI PUSH2 0xC0D PUSH2 0x37A3 JUMP JUMPDEST PUSH1 0x40 MLOAD SWAP1 DUP1 DUP3 MSTORE DUP1 PUSH1 0x20 MUL PUSH1 0x20 ADD DUP3 ADD PUSH1 0x40 MSTORE DUP1 ISZERO PUSH2 0xC36 JUMPI DUP2 PUSH1 0x20 ADD PUSH1 0x20 DUP3 MUL DUP1 CALLDATASIZE DUP4 CALLDATACOPY ADD SWAP1 POP JUMPDEST POP SWAP1 POP PUSH1 0x0 SWAP7 POP PUSH1 0x0 JUMPDEST PUSH1 0x5 SLOAD DUP2 PUSH1 0xFF AND LT ISZERO PUSH2 0xE93 JUMPI DUP15 PUSH1 0x1 PUSH1 0x1 PUSH1 0xA0 SHL SUB AND PUSH1 0x3 PUSH1 0x0 DUP4 PUSH1 0xFF AND DUP2 MSTORE PUSH1 0x20 ADD SWAP1 DUP2 MSTORE PUSH1 0x20 ADD PUSH1 0x0 KECCAK256 PUSH1 0x1 ADD PUSH1 0x0 SWAP1 SLOAD SWAP1 PUSH2 0x100 EXP SWAP1 DIV PUSH1 0x1 PUSH1 0x1 PUSH1 0xA0 SHL SUB AND PUSH1 0x1 PUSH1 0x1 PUSH1 0xA0 SHL SUB AND EQ ISZERO PUSH2 0xE81 JUMPI DUP16 PUSH1 0x1 PUSH1 0x1 PUSH1 0xA0 SHL SUB AND PUSH1 0x3 PUSH1 0x0 DUP4 PUSH1 0xFF AND DUP2 MSTORE PUSH1 0x20 ADD SWAP1 DUP2 MSTORE PUSH1 0x20 ADD PUSH1 0x0 KECCAK256 PUSH1 0x0 ADD PUSH1 0x0 SWAP1 SLOAD SWAP1 PUSH2 0x100 EXP SWAP1 DIV PUSH1 0x1 PUSH1 0x1 PUSH1 0xA0 SHL SUB AND PUSH1 0x1 PUSH1 0x1 PUSH1 0xA0 SHL SUB AND EQ ISZERO PUSH2 0xE81 JUMPI PUSH1 0xFF DUP1 DUP3 AND PUSH1 0x0 SWAP1 DUP2 MSTORE PUSH1 0x3 PUSH1 0x20 MSTORE PUSH1 0x40 SWAP1 KECCAK256 PUSH1 0x1 ADD SLOAD DUP9 MLOAD PUSH1 0x1 PUSH1 0x1 PUSH1 0xA0 SHL SUB SWAP1 SWAP2 AND SWAP2 DUP10 SWAP2 SWAP1 DUP12 AND SWAP1 DUP2 LT PUSH2 0xD12 JUMPI PUSH2 0xD12 PUSH2 0x3AD0 JUMP JUMPDEST PUSH1 0x20 MUL PUSH1 0x20 ADD ADD SWAP1 PUSH1 0x1 PUSH1 0x1 PUSH1 0xA0 SHL SUB AND SWAP1 DUP2 PUSH1 0x1 PUSH1 0x1 PUSH1 0xA0 SHL SUB AND DUP2 MSTORE POP POP PUSH1 0x3 PUSH1 0x0 DUP3 PUSH1 0xFF AND DUP2 MSTORE PUSH1 0x20 ADD SWAP1 DUP2 MSTORE PUSH1 0x20 ADD PUSH1 0x0 KECCAK256 PUSH1 0x2 ADD SLOAD DUP7 DUP10 PUSH1 0xFF AND DUP2 MLOAD DUP2 LT PUSH2 0xD61 JUMPI PUSH2 0xD61 PUSH2 0x3AD0 JUMP JUMPDEST PUSH1 0x20 MUL PUSH1 0x20 ADD ADD DUP2 DUP2 MSTORE POP POP PUSH1 0x3 PUSH1 0x0 DUP3 PUSH1 0xFF AND DUP2 MSTORE PUSH1 0x20 ADD SWAP1 DUP2 MSTORE PUSH1 0x20 ADD PUSH1 0x0 KECCAK256 PUSH1 0x3 ADD SLOAD DUP6 DUP10 PUSH1 0xFF AND DUP2 MLOAD DUP2 LT PUSH2 0xD9C JUMPI PUSH2 0xD9C PUSH2 0x3AD0 JUMP JUMPDEST PUSH1 0x20 MUL PUSH1 0x20 ADD ADD DUP2 DUP2 MSTORE POP POP PUSH1 0x3 PUSH1 0x0 DUP3 PUSH1 0xFF AND DUP2 MSTORE PUSH1 0x20 ADD SWAP1 DUP2 MSTORE PUSH1 0x20 ADD PUSH1 0x0 KECCAK256 PUSH1 0x4 ADD SLOAD DUP5 DUP10 PUSH1 0xFF AND DUP2 MLOAD DUP2 LT PUSH2 0xDD7 JUMPI PUSH2 0xDD7 PUSH2 0x3AD0 JUMP JUMPDEST PUSH1 0x20 MUL PUSH1 0x20 ADD ADD DUP2 DUP2 MSTORE POP POP PUSH1 0x3 PUSH1 0x0 DUP3 PUSH1 0xFF AND DUP2 MSTORE PUSH1 0x20 ADD SWAP1 DUP2 MSTORE PUSH1 0x20 ADD PUSH1 0x0 KECCAK256 PUSH1 0x5 ADD PUSH1 0x0 SWAP1 SLOAD SWAP1 PUSH2 0x100 EXP SWAP1 DIV PUSH1 0xFF AND DUP3 DUP10 PUSH1 0xFF AND DUP2 MLOAD DUP2 LT PUSH2 0xE1F JUMPI PUSH2 0xE1F PUSH2 0x3AD0 JUMP JUMPDEST PUSH1 0x20 MUL PUSH1 0x20 ADD ADD SWAP1 PUSH1 0x2 DUP2 GT ISZERO PUSH2 0xE38 JUMPI PUSH2 0xE38 PUSH2 0x3659 JUMP JUMPDEST SWAP1 DUP2 PUSH1 0x2 DUP2 GT ISZERO PUSH2 0xE4B JUMPI PUSH2 0xE4B PUSH2 0x3659 JUMP JUMPDEST DUP2 MSTORE POP POP DUP1 PUSH1 0xFF AND DUP4 DUP10 PUSH1 0xFF AND DUP2 MLOAD DUP2 LT PUSH2 0xE68 JUMPI PUSH2 0xE68 PUSH2 0x3AD0 JUMP JUMPDEST PUSH1 0x20 SWAP1 DUP2 MUL SWAP2 SWAP1 SWAP2 ADD ADD MSTORE DUP8 PUSH2 0xE7D DUP2 PUSH2 0x3AB0 JUMP JUMPDEST SWAP9 POP POP JUMPDEST DUP1 PUSH2 0xE8B DUP2 PUSH2 0x3AB0 JUMP JUMPDEST SWAP2 POP POP PUSH2 0xC40 JUMP JUMPDEST POP SWAP5 SWAP15 SWAP4 SWAP14 POP SWAP2 SWAP12 POP SWAP10 POP SWAP2 SWAP8 POP SWAP1 SWAP6 POP SWAP4 POP POP POP POP JUMP JUMPDEST PUSH1 0xC PUSH1 0xD SLOAD DUP2 SLOAD DUP2 LT PUSH2 0xEC0 JUMPI PUSH2 0xEC0 PUSH2 0x3AD0 JUMP JUMPDEST PUSH1 0x0 SWAP2 DUP3 MSTORE PUSH1 0x20 SWAP1 SWAP2 KECCAK256 ADD SLOAD PUSH1 0x1 PUSH1 0x1 PUSH1 0xA0 SHL SUB AND CALLER EQ PUSH2 0xEE0 JUMPI PUSH1 0x0 DUP1 REVERT JUMPDEST PUSH1 0x0 JUMPDEST PUSH1 0xA SLOAD DUP2 LT ISZERO PUSH2 0xF62 JUMPI PUSH1 0x0 DUP2 DUP2 MSTORE PUSH1 0x6 PUSH1 0x20 MSTORE PUSH1 0x40 SWAP1 KECCAK256 SLOAD PUSH1 0x1 PUSH1 0x1 PUSH1 0xA0 SHL SUB DUP5 DUP2 AND SWAP2 AND EQ ISZERO PUSH2 0xF50 JUMPI PUSH1 0x40 MLOAD PUSH3 0x461BCD PUSH1 0xE5 SHL DUP2 MSTORE PUSH1 0x20 PUSH1 0x4 DUP3 ADD MSTORE PUSH1 0x16 PUSH1 0x24 DUP3 ADD MSTORE PUSH22 0x105C9D081DDBDC9AC8185B1C9958591E481859191959 PUSH1 0x52 SHL PUSH1 0x44 DUP3 ADD MSTORE PUSH1 0x64 ADD PUSH2 0x8D1 JUMP JUMPDEST DUP1 PUSH2 0xF5A DUP2 PUSH2 0x3A95 JUMP JUMPDEST SWAP2 POP POP PUSH2 0xEE3 JUMP JUMPDEST POP PUSH1 0xA DUP1 SLOAD PUSH1 0x0 SWAP1 DUP2 MSTORE PUSH1 0x6 PUSH1 0x20 SWAP1 DUP2 MSTORE PUSH1 0x40 DUP1 DUP4 KECCAK256 DUP1 SLOAD PUSH1 0x1 PUSH1 0x1 PUSH1 0xA0 SHL SUB NOT AND PUSH1 0x1 PUSH1 0x1 PUSH1 0xA0 SHL SUB DUP9 AND SWAP1 DUP2 OR SWAP1 SWAP2 SSTORE DUP5 SLOAD DUP5 MSTORE PUSH1 0x8 DUP4 MSTORE DUP2 DUP5 KECCAK256 DUP7 SWAP1 SSTORE DUP4 MSTORE PUSH1 0x9 SWAP1 SWAP2 MSTORE DUP2 KECCAK256 DUP1 SLOAD PUSH1 0xFF NOT AND SWAP1 SSTORE DUP2 SLOAD SWAP2 SWAP1 PUSH2 0xFC0 DUP4 PUSH2 0x3A95 JUMP JUMPDEST SWAP2 SWAP1 POP SSTORE POP POP POP JUMP JUMPDEST PUSH1 0x0 DUP1 DUP4 GT PUSH2 0xFEA JUMPI PUSH1 0x40 MLOAD PUSH3 0x461BCD PUSH1 0xE5 SHL DUP2 MSTORE PUSH1 0x4 ADD PUSH2 0x8D1 SWAP1 PUSH2 0x3B03 JUMP JUMPDEST PUSH1 0x0 DUP3 GT PUSH2 0x100A JUMPI PUSH1 0x40 MLOAD PUSH3 0x461BCD PUSH1 0xE5 SHL DUP2 MSTORE PUSH1 0x4 ADD PUSH2 0x8D1 SWAP1 PUSH2 0x3B03 JUMP JUMPDEST DUP2 PUSH2 0x1015 DUP5 CALLVALUE PUSH2 0x3B3A JUMP JUMPDEST EQ PUSH2 0x1057 JUMPI PUSH1 0x40 MLOAD PUSH3 0x461BCD PUSH1 0xE5 SHL DUP2 MSTORE PUSH1 0x20 PUSH1 0x4 DUP3 ADD MSTORE PUSH1 0x12 PUSH1 0x24 DUP3 ADD MSTORE PUSH18 0x31B0B7103737BA1036B0B5B29037B93232B9 PUSH1 0x71 SHL PUSH1 0x44 DUP3 ADD MSTORE PUSH1 0x64 ADD PUSH2 0x8D1 JUMP JUMPDEST PUSH1 0x40 DUP1 MLOAD PUSH1 0xC0 DUP2 ADD DUP3 MSTORE PUSH1 0x1 PUSH1 0x1 PUSH1 0xA0 SHL SUB DUP7 DUP2 AND DUP3 MSTORE CALLER PUSH1 0x20 DUP1 DUP5 ADD SWAP2 DUP3 MSTORE DUP4 DUP6 ADD DUP9 DUP2 MSTORE PUSH1 0x60 DUP6 ADD DUP9 DUP2 MSTORE CALLVALUE PUSH1 0x80 DUP8 ADD SWAP1 DUP2 MSTORE PUSH1 0x0 PUSH1 0xA0 DUP9 ADD DUP2 DUP2 MSTORE PUSH1 0x4 DUP1 SLOAD DUP4 MSTORE PUSH1 0x2 SWAP7 DUP8 SWAP1 MSTORE SWAP10 SWAP1 SWAP2 KECCAK256 DUP9 MLOAD DUP2 SLOAD SWAP1 DUP10 AND PUSH1 0x1 PUSH1 0x1 PUSH1 0xA0 SHL SUB NOT SWAP2 DUP3 AND OR DUP3 SSTORE SWAP7 MLOAD PUSH1 0x1 DUP1 DUP4 ADD DUP1 SLOAD SWAP3 SWAP1 SWAP11 AND SWAP2 SWAP1 SWAP9 AND OR SWAP1 SWAP8 SSTORE SWAP3 MLOAD DUP7 DUP6 ADD SSTORE SWAP1 MLOAD PUSH1 0x3 DUP7 ADD SSTORE MLOAD SWAP6 DUP5 ADD SWAP6 SWAP1 SWAP6 SSTORE SWAP4 MLOAD PUSH1 0x5 DUP4 ADD DUP1 SLOAD SWAP5 SWAP6 SWAP4 SWAP5 SWAP2 SWAP4 SWAP1 SWAP3 PUSH1 0xFF NOT SWAP1 SWAP3 AND SWAP2 SWAP1 DUP5 SWAP1 DUP2 GT ISZERO PUSH2 0x110E JUMPI PUSH2 0x110E PUSH2 0x3659 JUMP JUMPDEST MUL OR SWAP1 SSTORE POP SWAP1 POP POP PUSH2 0x1121 PUSH1 0x4 SLOAD PUSH2 0x2B5D JUMP JUMPDEST PUSH1 0x1 PUSH1 0x4 PUSH1 0x0 DUP3 DUP3 SLOAD PUSH2 0x1134 SWAP2 SWAP1 PUSH2 0x3B5C JUMP JUMPDEST SWAP1 SWAP2 SSTORE POP POP PUSH1 0x4 SLOAD PUSH2 0x1148 SWAP1 PUSH1 0x1 SWAP1 PUSH2 0x3B74 JUMP JUMPDEST SWAP5 SWAP4 POP POP POP POP JUMP JUMPDEST PUSH1 0x60 PUSH1 0x0 DUP1 JUMPDEST PUSH1 0xA SLOAD DUP2 LT ISZERO PUSH2 0x11B2 JUMPI PUSH1 0x0 DUP2 DUP2 MSTORE PUSH1 0x6 PUSH1 0x20 SWAP1 DUP2 MSTORE PUSH1 0x40 DUP1 DUP4 KECCAK256 SLOAD PUSH1 0x1 PUSH1 0x1 PUSH1 0xA0 SHL SUB AND DUP4 MSTORE PUSH1 0x9 SWAP1 SWAP2 MSTORE SWAP1 KECCAK256 SLOAD PUSH1 0xFF AND ISZERO ISZERO PUSH1 0x1 EQ ISZERO PUSH2 0x11A0 JUMPI DUP2 PUSH2 0x119C DUP2 PUSH2 0x3A95 JUMP JUMPDEST SWAP3 POP POP JUMPDEST DUP1 PUSH2 0x11AA DUP2 PUSH2 0x3A95 JUMP JUMPDEST SWAP2 POP POP PUSH2 0x1156 JUMP JUMPDEST POP PUSH1 0x0 DUP2 PUSH1 0x1 PUSH1 0x1 PUSH1 0x40 SHL SUB DUP2 GT ISZERO PUSH2 0x11CD JUMPI PUSH2 0x11CD PUSH2 0x37A3 JUMP JUMPDEST PUSH1 0x40 MLOAD SWAP1 DUP1 DUP3 MSTORE DUP1 PUSH1 0x20 MUL PUSH1 0x20 ADD DUP3 ADD PUSH1 0x40 MSTORE DUP1 ISZERO PUSH2 0x11F6 JUMPI DUP2 PUSH1 0x20 ADD PUSH1 0x20 DUP3 MUL DUP1 CALLDATASIZE DUP4 CALLDATACOPY ADD SWAP1 POP JUMPDEST POP SWAP1 POP PUSH1 0x0 SWAP2 POP PUSH1 0x0 JUMPDEST PUSH1 0xA SLOAD DUP2 LT ISZERO PUSH2 0x12A3 JUMPI PUSH1 0x0 DUP2 DUP2 MSTORE PUSH1 0x6 PUSH1 0x20 SWAP1 DUP2 MSTORE PUSH1 0x40 DUP1 DUP4 KECCAK256 SLOAD PUSH1 0x1 PUSH1 0x1 PUSH1 0xA0 SHL SUB AND DUP4 MSTORE PUSH1 0x9 SWAP1 SWAP2 MSTORE SWAP1 KECCAK256 SLOAD PUSH1 0xFF AND ISZERO ISZERO PUSH1 0x1 EQ ISZERO PUSH2 0x1291 JUMPI PUSH1 0x0 DUP2 DUP2 MSTORE PUSH1 0x6 PUSH1 0x20 MSTORE PUSH1 0x40 SWAP1 KECCAK256 SLOAD DUP3 MLOAD PUSH1 0x1 PUSH1 0x1 PUSH1 0xA0 SHL SUB SWAP1 SWAP2 AND SWAP1 DUP4 SWAP1 DUP6 SWAP1 DUP2 LT PUSH2 0x126B JUMPI PUSH2 0x126B PUSH2 0x3AD0 JUMP JUMPDEST PUSH1 0x1 PUSH1 0x1 PUSH1 0xA0 SHL SUB SWAP1 SWAP3 AND PUSH1 0x20 SWAP3 DUP4 MUL SWAP2 SWAP1 SWAP2 ADD SWAP1 SWAP2 ADD MSTORE DUP3 PUSH2 0x128D DUP2 PUSH2 0x3A95 JUMP JUMPDEST SWAP4 POP POP JUMPDEST DUP1 PUSH2 0x129B DUP2 PUSH2 0x3A95 JUMP JUMPDEST SWAP2 POP POP PUSH2 0x1200 JUMP JUMPDEST POP SWAP3 SWAP2 POP POP JUMP JUMPDEST PUSH1 0x0 DUP1 DUP1 JUMPDEST PUSH1 0xB SLOAD DUP2 LT ISZERO PUSH2 0x137E JUMPI PUSH1 0x0 DUP2 DUP2 MSTORE PUSH1 0x7 PUSH1 0x20 MSTORE PUSH1 0x40 SWAP1 KECCAK256 DUP1 SLOAD PUSH2 0x135B SWAP2 SWAP1 PUSH2 0x12D7 SWAP1 PUSH2 0x3B8B JUMP JUMPDEST DUP1 PUSH1 0x1F ADD PUSH1 0x20 DUP1 SWAP2 DIV MUL PUSH1 0x20 ADD PUSH1 0x40 MLOAD SWAP1 DUP2 ADD PUSH1 0x40 MSTORE DUP1 SWAP3 SWAP2 SWAP1 DUP2 DUP2 MSTORE PUSH1 0x20 ADD DUP3 DUP1 SLOAD PUSH2 0x1303 SWAP1 PUSH2 0x3B8B JUMP JUMPDEST DUP1 ISZERO PUSH2 0x1350 JUMPI DUP1 PUSH1 0x1F LT PUSH2 0x1325 JUMPI PUSH2 0x100 DUP1 DUP4 SLOAD DIV MUL DUP4 MSTORE SWAP2 PUSH1 0x20 ADD SWAP2 PUSH2 0x1350 JUMP JUMPDEST DUP3 ADD SWAP2 SWAP1 PUSH1 0x0 MSTORE PUSH1 0x20 PUSH1 0x0 KECCAK256 SWAP1 JUMPDEST DUP2 SLOAD DUP2 MSTORE SWAP1 PUSH1 0x1 ADD SWAP1 PUSH1 0x20 ADD DUP1 DUP4 GT PUSH2 0x1333 JUMPI DUP3 SWAP1 SUB PUSH1 0x1F AND DUP3 ADD SWAP2 JUMPDEST POP POP POP POP POP DUP6 PUSH2 0x2453 JUMP JUMPDEST ISZERO ISZERO PUSH1 0x1 EQ ISZERO PUSH2 0x136C JUMPI SWAP4 SWAP3 POP POP POP JUMP JUMPDEST DUP1 PUSH2 0x1376 DUP2 PUSH2 0x3A95 JUMP JUMPDEST SWAP2 POP POP PUSH2 0x12AF JUMP JUMPDEST POP PUSH1 0x1 DUP2 ISZERO ISZERO EQ PUSH2 0x13D1 JUMPI PUSH1 0x40 MLOAD PUSH3 0x461BCD PUSH1 0xE5 SHL DUP2 MSTORE PUSH1 0x20 PUSH1 0x4 DUP3 ADD MSTORE PUSH1 0x1A PUSH1 0x24 DUP3 ADD MSTORE PUSH32 0x4E6F20436F6C6C656374696F6E2042792054686174204E616D65000000000000 PUSH1 0x44 DUP3 ADD MSTORE PUSH1 0x64 ADD PUSH2 0x8D1 JUMP JUMPDEST POP PUSH1 0x0 SWAP3 SWAP2 POP POP JUMP JUMPDEST PUSH1 0x60 PUSH1 0x0 PUSH1 0xB SLOAD PUSH1 0x1 PUSH1 0x1 PUSH1 0x40 SHL SUB DUP2 GT ISZERO PUSH2 0x13F8 JUMPI PUSH2 0x13F8 PUSH2 0x37A3 JUMP JUMPDEST PUSH1 0x40 MLOAD SWAP1 DUP1 DUP3 MSTORE DUP1 PUSH1 0x20 MUL PUSH1 0x20 ADD DUP3 ADD PUSH1 0x40 MSTORE DUP1 ISZERO PUSH2 0x142B JUMPI DUP2 PUSH1 0x20 ADD JUMPDEST PUSH1 0x60 DUP2 MSTORE PUSH1 0x20 ADD SWAP1 PUSH1 0x1 SWAP1 SUB SWAP1 DUP2 PUSH2 0x1416 JUMPI SWAP1 POP JUMPDEST POP SWAP1 POP PUSH1 0x0 JUMPDEST PUSH1 0xB SLOAD DUP2 LT ISZERO PUSH2 0x1502 JUMPI PUSH1 0x0 DUP2 DUP2 MSTORE PUSH1 0x7 PUSH1 0x20 MSTORE PUSH1 0x40 SWAP1 KECCAK256 DUP1 SLOAD PUSH2 0x1454 SWAP1 PUSH2 0x3B8B JUMP JUMPDEST DUP1 PUSH1 0x1F ADD PUSH1 0x20 DUP1 SWAP2 DIV MUL PUSH1 0x20 ADD PUSH1 0x40 MLOAD SWAP1 DUP2 ADD PUSH1 0x40 MSTORE DUP1 SWAP3 SWAP2 SWAP1 DUP2 DUP2 MSTORE PUSH1 0x20 ADD DUP3 DUP1 SLOAD PUSH2 0x1480 SWAP1 PUSH2 0x3B8B JUMP JUMPDEST DUP1 ISZERO PUSH2 0x14CD JUMPI DUP1 PUSH1 0x1F LT PUSH2 0x14A2 JUMPI PUSH2 0x100 DUP1 DUP4 SLOAD DIV MUL DUP4 MSTORE SWAP2 PUSH1 0x20 ADD SWAP2 PUSH2 0x14CD JUMP JUMPDEST DUP3 ADD SWAP2 SWAP1 PUSH1 0x0 MSTORE PUSH1 0x20 PUSH1 0x0 KECCAK256 SWAP1 JUMPDEST DUP2 SLOAD DUP2 MSTORE SWAP1 PUSH1 0x1 ADD SWAP1 PUSH1 0x20 ADD DUP1 DUP4 GT PUSH2 0x14B0 JUMPI DUP3 SWAP1 SUB PUSH1 0x1F AND DUP3 ADD SWAP2 JUMPDEST POP POP POP POP POP DUP3 DUP3 DUP2 MLOAD DUP2 LT PUSH2 0x14E4 JUMPI PUSH2 0x14E4 PUSH2 0x3AD0 JUMP JUMPDEST PUSH1 0x20 MUL PUSH1 0x20 ADD ADD DUP2 SWAP1 MSTORE POP DUP1 DUP1 PUSH2 0x14FA SWAP1 PUSH2 0x3A95 JUMP JUMPDEST SWAP2 POP POP PUSH2 0x1431 JUMP JUMPDEST POP SWAP2 SWAP1 POP JUMP JUMPDEST PUSH1 0x60 DUP1 PUSH1 0x0 PUSH1 0xA SLOAD PUSH1 0x1 PUSH1 0x1 PUSH1 0x40 SHL SUB DUP2 GT ISZERO PUSH2 0x1527 JUMPI PUSH2 0x1527 PUSH2 0x37A3 JUMP JUMPDEST PUSH1 0x40 MLOAD SWAP1 DUP1 DUP3 MSTORE DUP1 PUSH1 0x20 MUL PUSH1 0x20 ADD DUP3 ADD PUSH1 0x40 MSTORE DUP1 ISZERO PUSH2 0x1550 JUMPI DUP2 PUSH1 0x20 ADD PUSH1 0x20 DUP3 MUL DUP1 CALLDATASIZE DUP4 CALLDATACOPY ADD SWAP1 POP JUMPDEST POP SWAP1 POP PUSH1 0x0 PUSH1 0xA SLOAD PUSH1 0x1 PUSH1 0x1 PUSH1 0x40 SHL SUB DUP2 GT ISZERO PUSH2 0x156F JUMPI PUSH2 0x156F PUSH2 0x37A3 JUMP JUMPDEST PUSH1 0x40 MLOAD SWAP1 DUP1 DUP3 MSTORE DUP1 PUSH1 0x20 MUL PUSH1 0x20 ADD DUP3 ADD PUSH1 0x40 MSTORE DUP1 ISZERO PUSH2 0x1598 JUMPI DUP2 PUSH1 0x20 ADD PUSH1 0x20 DUP3 MUL DUP1 CALLDATASIZE DUP4 CALLDATACOPY ADD SWAP1 POP JUMPDEST POP SWAP1 POP PUSH1 0x0 JUMPDEST PUSH1 0xA SLOAD DUP2 LT ISZERO PUSH2 0x1648 JUMPI PUSH1 0x0 DUP2 DUP2 MSTORE PUSH1 0x6 PUSH1 0x20 MSTORE PUSH1 0x40 SWAP1 KECCAK256 SLOAD DUP4 MLOAD PUSH1 0x1 PUSH1 0x1 PUSH1 0xA0 SHL SUB SWAP1 SWAP2 AND SWAP1 DUP5 SWAP1 DUP4 SWAP1 DUP2 LT PUSH2 0x15D7 JUMPI PUSH2 0x15D7 PUSH2 0x3AD0 JUMP JUMPDEST PUSH1 0x1 PUSH1 0x1 PUSH1 0xA0 SHL SUB SWAP3 DUP4 AND PUSH1 0x20 SWAP2 DUP3 MUL SWAP3 SWAP1 SWAP3 ADD DUP2 ADD SWAP2 SWAP1 SWAP2 MSTORE PUSH1 0x0 DUP4 DUP2 MSTORE PUSH1 0x6 DUP3 MSTORE PUSH1 0x40 DUP1 DUP3 KECCAK256 SLOAD SWAP1 SWAP4 AND DUP2 MSTORE PUSH1 0x9 SWAP1 SWAP2 MSTORE KECCAK256 SLOAD DUP3 MLOAD PUSH1 0xFF SWAP1 SWAP2 AND SWAP1 DUP4 SWAP1 DUP4 SWAP1 DUP2 LT PUSH2 0x1626 JUMPI PUSH2 0x1626 PUSH2 0x3AD0 JUMP JUMPDEST SWAP2 ISZERO ISZERO PUSH1 0x20 SWAP3 DUP4 MUL SWAP2 SWAP1 SWAP2 ADD SWAP1 SWAP2 ADD MSTORE DUP1 PUSH2 0x1640 DUP2 PUSH2 0x3A95 JUMP JUMPDEST SWAP2 POP POP PUSH2 0x159E JUMP JUMPDEST POP SWAP1 SWAP4 SWAP1 SWAP3 POP SWAP1 POP JUMP JUMPDEST PUSH1 0xC PUSH1 0xD SLOAD DUP2 SLOAD DUP2 LT PUSH2 0x1667 JUMPI PUSH2 0x1667 PUSH2 0x3AD0 JUMP JUMPDEST PUSH1 0x0 SWAP2 DUP3 MSTORE PUSH1 0x20 SWAP1 SWAP2 KECCAK256 ADD SLOAD PUSH1 0x1 PUSH1 0x1 PUSH1 0xA0 SHL SUB AND CALLER EQ PUSH2 0x1687 JUMPI PUSH1 0x0 DUP1 REVERT JUMPDEST PUSH1 0x0 JUMPDEST PUSH1 0xB SLOAD DUP2 LT ISZERO PUSH2 0x1795 JUMPI PUSH1 0x0 DUP2 DUP2 MSTORE PUSH1 0x7 PUSH1 0x20 MSTORE PUSH1 0x40 SWAP1 KECCAK256 DUP1 SLOAD PUSH2 0x1736 SWAP2 SWAP1 PUSH2 0x16B2 SWAP1 PUSH2 0x3B8B JUMP JUMPDEST DUP1 PUSH1 0x1F ADD PUSH1 0x20 DUP1 SWAP2 DIV MUL PUSH1 0x20 ADD PUSH1 0x40 MLOAD SWAP1 DUP2 ADD PUSH1 0x40 MSTORE DUP1 SWAP3 SWAP2 SWAP1 DUP2 DUP2 MSTORE PUSH1 0x20 ADD DUP3 DUP1 SLOAD PUSH2 0x16DE SWAP1 PUSH2 0x3B8B JUMP JUMPDEST DUP1 ISZERO PUSH2 0x172B JUMPI DUP1 PUSH1 0x1F LT PUSH2 0x1700 JUMPI PUSH2 0x100 DUP1 DUP4 SLOAD DIV MUL DUP4 MSTORE SWAP2 PUSH1 0x20 ADD SWAP2 PUSH2 0x172B JUMP JUMPDEST DUP3 ADD SWAP2 SWAP1 PUSH1 0x0 MSTORE PUSH1 0x20 PUSH1 0x0 KECCAK256 SWAP1 JUMPDEST DUP2 SLOAD DUP2 MSTORE SWAP1 PUSH1 0x1 ADD SWAP1 PUSH1 0x20 ADD DUP1 DUP4 GT PUSH2 0x170E JUMPI DUP3 SWAP1 SUB PUSH1 0x1F AND DUP3 ADD SWAP2 JUMPDEST POP POP POP POP POP DUP4 PUSH2 0x2453 JUMP JUMPDEST ISZERO PUSH2 0x1783 JUMPI PUSH1 0x40 MLOAD PUSH3 0x461BCD PUSH1 0xE5 SHL DUP2 MSTORE PUSH1 0x20 PUSH1 0x4 DUP3 ADD MSTORE PUSH1 0x1B PUSH1 0x24 DUP3 ADD MSTORE PUSH32 0x436F6C6C656374696F6E20697320616C72656164792061646465640000000000 PUSH1 0x44 DUP3 ADD MSTORE PUSH1 0x64 ADD PUSH2 0x8D1 JUMP JUMPDEST DUP1 PUSH2 0x178D DUP2 PUSH2 0x3A95 JUMP JUMPDEST SWAP2 POP POP PUSH2 0x168A JUMP JUMPDEST POP PUSH1 0xB SLOAD PUSH1 0x0 SWAP1 DUP2 MSTORE PUSH1 0x7 PUSH1 0x20 SWAP1 DUP2 MSTORE PUSH1 0x40 SWAP1 SWAP2 KECCAK256 DUP3 MLOAD PUSH2 0x17B8 SWAP3 DUP5 ADD SWAP1 PUSH2 0x3455 JUMP JUMPDEST POP PUSH1 0xB DUP1 SLOAD SWAP1 PUSH1 0x0 PUSH2 0x17C9 DUP4 PUSH2 0x3A95 JUMP JUMPDEST SWAP2 SWAP1 POP SSTORE POP POP JUMP JUMPDEST PUSH1 0xC PUSH1 0xD SLOAD DUP2 SLOAD DUP2 LT PUSH2 0x17E6 JUMPI PUSH2 0x17E6 PUSH2 0x3AD0 JUMP JUMPDEST PUSH1 0x0 SWAP2 DUP3 MSTORE PUSH1 0x20 SWAP1 SWAP2 KECCAK256 ADD SLOAD PUSH1 0x1 PUSH1 0x1 PUSH1 0xA0 SHL SUB AND CALLER EQ PUSH2 0x1806 JUMPI PUSH1 0x0 DUP1 REVERT JUMPDEST PUSH1 0xD DUP1 SLOAD SWAP1 PUSH1 0x0 PUSH2 0x1816 DUP4 PUSH2 0x3A95 JUMP JUMPDEST SWAP1 SWAP2 SSTORE POP POP PUSH1 0xC DUP1 SLOAD PUSH1 0x1 DUP2 ADD DUP3 SSTORE PUSH1 0x0 SWAP2 SWAP1 SWAP2 MSTORE PUSH32 0xDF6966C971051C3D54EC59162606531493A51404A002842F56009D7E5CF4A8C7 ADD DUP1 SLOAD PUSH1 0x1 PUSH1 0x1 PUSH1 0xA0 SHL SUB NOT AND PUSH1 0x1 PUSH1 0x1 PUSH1 0xA0 SHL SUB SWAP3 SWAP1 SWAP3 AND SWAP2 SWAP1 SWAP2 OR SWAP1 SSTORE JUMP JUMPDEST PUSH1 0x60 DUP1 PUSH1 0x60 DUP1 PUSH1 0x0 DUP1 JUMPDEST PUSH1 0x4 SLOAD DUP2 PUSH1 0xFF AND LT ISZERO PUSH2 0x18FF JUMPI PUSH1 0x0 PUSH1 0xFF DUP1 DUP4 AND PUSH1 0x0 SWAP1 DUP2 MSTORE PUSH1 0x2 PUSH1 0x20 DUP2 SWAP1 MSTORE PUSH1 0x40 SWAP1 SWAP2 KECCAK256 PUSH1 0x5 ADD SLOAD SWAP1 SWAP2 AND SWAP1 DUP2 GT ISZERO PUSH2 0x18B3 JUMPI PUSH2 0x18B3 PUSH2 0x3659 JUMP JUMPDEST EQ ISZERO PUSH2 0x18ED JUMPI PUSH1 0xFF DUP2 AND PUSH1 0x0 SWAP1 DUP2 MSTORE PUSH1 0x2 PUSH1 0x20 MSTORE PUSH1 0x40 SWAP1 KECCAK256 SLOAD PUSH1 0x1 PUSH1 0x1 PUSH1 0xA0 SHL SUB DUP9 DUP2 AND SWAP2 AND EQ ISZERO PUSH2 0x18ED JUMPI PUSH2 0x18EA PUSH1 0x1 DUP4 PUSH2 0x3BC0 JUMP JUMPDEST SWAP2 POP JUMPDEST DUP1 PUSH2 0x18F7 DUP2 PUSH2 0x3AB0 JUMP JUMPDEST SWAP2 POP POP PUSH2 0x1877 JUMP JUMPDEST POP PUSH1 0x0 DUP2 PUSH1 0xFF AND PUSH1 0x1 PUSH1 0x1 PUSH1 0x40 SHL SUB DUP2 GT ISZERO PUSH2 0x191D JUMPI PUSH2 0x191D PUSH2 0x37A3 JUMP JUMPDEST PUSH1 0x40 MLOAD SWAP1 DUP1 DUP3 MSTORE DUP1 PUSH1 0x20 MUL PUSH1 0x20 ADD DUP3 ADD PUSH1 0x40 MSTORE DUP1 ISZERO PUSH2 0x1946 JUMPI DUP2 PUSH1 0x20 ADD PUSH1 0x20 DUP3 MUL DUP1 CALLDATASIZE DUP4 CALLDATACOPY ADD SWAP1 POP JUMPDEST POP SWAP1 POP PUSH1 0x0 DUP3 PUSH1 0xFF AND PUSH1 0x1 PUSH1 0x1 PUSH1 0x40 SHL SUB DUP2 GT ISZERO PUSH2 0x1966 JUMPI PUSH2 0x1966 PUSH2 0x37A3 JUMP JUMPDEST PUSH1 0x40 MLOAD SWAP1 DUP1 DUP3 MSTORE DUP1 PUSH1 0x20 MUL PUSH1 0x20 ADD DUP3 ADD PUSH1 0x40 MSTORE DUP1 ISZERO PUSH2 0x198F JUMPI DUP2 PUSH1 0x20 ADD PUSH1 0x20 DUP3 MUL DUP1 CALLDATASIZE DUP4 CALLDATACOPY ADD SWAP1 POP JUMPDEST POP SWAP1 POP PUSH1 0x0 DUP4 PUSH1 0xFF AND PUSH1 0x1 PUSH1 0x1 PUSH1 0x40 SHL SUB DUP2 GT ISZERO PUSH2 0x19AF JUMPI PUSH2 0x19AF PUSH2 0x37A3 JUMP JUMPDEST PUSH1 0x40 MLOAD SWAP1 DUP1 DUP3 MSTORE DUP1 PUSH1 0x20 MUL PUSH1 0x20 ADD DUP3 ADD PUSH1 0x40 MSTORE DUP1 ISZERO PUSH2 0x19D8 JUMPI DUP2 PUSH1 0x20 ADD PUSH1 0x20 DUP3 MUL DUP1 CALLDATASIZE DUP4 CALLDATACOPY ADD SWAP1 POP JUMPDEST POP SWAP1 POP PUSH1 0x0 DUP5 PUSH1 0xFF AND PUSH1 0x1 PUSH1 0x1 PUSH1 0x40 SHL SUB DUP2 GT ISZERO PUSH2 0x19F8 JUMPI PUSH2 0x19F8 PUSH2 0x37A3 JUMP JUMPDEST PUSH1 0x40 MLOAD SWAP1 DUP1 DUP3 MSTORE DUP1 PUSH1 0x20 MUL PUSH1 0x20 ADD DUP3 ADD PUSH1 0x40 MSTORE DUP1 ISZERO PUSH2 0x1A21 JUMPI DUP2 PUSH1 0x20 ADD PUSH1 0x20 DUP3 MUL DUP1 CALLDATASIZE DUP4 CALLDATACOPY ADD SWAP1 POP JUMPDEST POP SWAP1 POP PUSH1 0x0 SWAP5 POP PUSH1 0x0 JUMPDEST PUSH1 0x4 SLOAD DUP2 PUSH1 0xFF AND LT ISZERO PUSH2 0x1B88 JUMPI PUSH1 0x0 PUSH1 0xFF DUP1 DUP4 AND PUSH1 0x0 SWAP1 DUP2 MSTORE PUSH1 0x2 PUSH1 0x20 DUP2 SWAP1 MSTORE PUSH1 0x40 SWAP1 SWAP2 KECCAK256 PUSH1 0x5 ADD SLOAD SWAP1 SWAP2 AND SWAP1 DUP2 GT ISZERO PUSH2 0x1A67 JUMPI PUSH2 0x1A67 PUSH2 0x3659 JUMP JUMPDEST EQ ISZERO PUSH2 0x1B76 JUMPI PUSH1 0xFF DUP2 AND PUSH1 0x0 SWAP1 DUP2 MSTORE PUSH1 0x2 PUSH1 0x20 MSTORE PUSH1 0x40 SWAP1 KECCAK256 SLOAD PUSH1 0x1 PUSH1 0x1 PUSH1 0xA0 SHL SUB DUP13 DUP2 AND SWAP2 AND EQ ISZERO PUSH2 0x1B76 JUMPI PUSH1 0x2 PUSH1 0x0 DUP3 PUSH1 0xFF AND DUP2 MSTORE PUSH1 0x20 ADD SWAP1 DUP2 MSTORE PUSH1 0x20 ADD PUSH1 0x0 KECCAK256 PUSH1 0x2 ADD SLOAD DUP6 DUP8 PUSH1 0xFF AND DUP2 MLOAD DUP2 LT PUSH2 0x1AC2 JUMPI PUSH2 0x1AC2 PUSH2 0x3AD0 JUMP JUMPDEST PUSH1 0x20 MUL PUSH1 0x20 ADD ADD DUP2 DUP2 MSTORE POP POP PUSH1 0x2 PUSH1 0x0 DUP3 PUSH1 0xFF AND DUP2 MSTORE PUSH1 0x20 ADD SWAP1 DUP2 MSTORE PUSH1 0x20 ADD PUSH1 0x0 KECCAK256 PUSH1 0x3 ADD SLOAD DUP5 DUP8 PUSH1 0xFF AND DUP2 MLOAD DUP2 LT PUSH2 0x1AFD JUMPI PUSH2 0x1AFD PUSH2 0x3AD0 JUMP JUMPDEST PUSH1 0x20 MUL PUSH1 0x20 ADD ADD DUP2 DUP2 MSTORE POP POP PUSH1 0x2 PUSH1 0x0 DUP3 PUSH1 0xFF AND DUP2 MSTORE PUSH1 0x20 ADD SWAP1 DUP2 MSTORE PUSH1 0x20 ADD PUSH1 0x0 KECCAK256 PUSH1 0x4 ADD SLOAD DUP4 DUP8 PUSH1 0xFF AND DUP2 MLOAD DUP2 LT PUSH2 0x1B38 JUMPI PUSH2 0x1B38 PUSH2 0x3AD0 JUMP JUMPDEST PUSH1 0x20 MUL PUSH1 0x20 ADD ADD DUP2 DUP2 MSTORE POP POP DUP1 PUSH1 0xFF AND DUP3 DUP8 PUSH1 0xFF AND DUP2 MLOAD DUP2 LT PUSH2 0x1B5D JUMPI PUSH2 0x1B5D PUSH2 0x3AD0 JUMP JUMPDEST PUSH1 0x20 SWAP1 DUP2 MUL SWAP2 SWAP1 SWAP2 ADD ADD MSTORE DUP6 PUSH2 0x1B72 DUP2 PUSH2 0x3AB0 JUMP JUMPDEST SWAP7 POP POP JUMPDEST DUP1 PUSH2 0x1B80 DUP2 PUSH2 0x3AB0 JUMP JUMPDEST SWAP2 POP POP PUSH2 0x1A2B JUMP JUMPDEST POP SWAP3 SWAP10 SWAP2 SWAP9 POP SWAP7 POP SWAP1 SWAP5 POP SWAP3 POP POP POP JUMP JUMPDEST PUSH1 0x60 DUP1 PUSH1 0x60 DUP1 PUSH1 0x0 DUP1 JUMPDEST PUSH1 0x5 SLOAD DUP2 PUSH1 0xFF AND LT ISZERO PUSH2 0x1C27 JUMPI PUSH1 0xFF DUP2 AND PUSH1 0x0 SWAP1 DUP2 MSTORE PUSH1 0x3 PUSH1 0x20 MSTORE PUSH1 0x40 SWAP1 KECCAK256 SLOAD PUSH1 0x1 PUSH1 0x1 PUSH1 0xA0 SHL SUB DUP9 DUP2 AND SWAP2 AND EQ ISZERO PUSH2 0x1C15 JUMPI PUSH1 0x0 PUSH1 0xFF DUP1 DUP4 AND PUSH1 0x0 SWAP1 DUP2 MSTORE PUSH1 0x3 PUSH1 0x20 MSTORE PUSH1 0x40 SWAP1 KECCAK256 PUSH1 0x5 ADD SLOAD AND PUSH1 0x2 DUP2 GT ISZERO PUSH2 0x1C01 JUMPI PUSH2 0x1C01 PUSH2 0x3659 JUMP JUMPDEST EQ ISZERO PUSH2 0x1C15 JUMPI DUP2 PUSH2 0x1C11 DUP2 PUSH2 0x3AB0 JUMP JUMPDEST SWAP3 POP POP JUMPDEST DUP1 PUSH2 0x1C1F DUP2 PUSH2 0x3AB0 JUMP JUMPDEST SWAP2 POP POP PUSH2 0x1BA3 JUMP JUMPDEST POP PUSH1 0x0 DUP2 PUSH1 0xFF AND PUSH1 0x1 PUSH1 0x1 PUSH1 0x40 SHL SUB DUP2 GT ISZERO PUSH2 0x1C45 JUMPI PUSH2 0x1C45 PUSH2 0x37A3 JUMP JUMPDEST PUSH1 0x40 MLOAD SWAP1 DUP1 DUP3 MSTORE DUP1 PUSH1 0x20 MUL PUSH1 0x20 ADD DUP3 ADD PUSH1 0x40 MSTORE DUP1 ISZERO PUSH2 0x1C6E JUMPI DUP2 PUSH1 0x20 ADD PUSH1 0x20 DUP3 MUL DUP1 CALLDATASIZE DUP4 CALLDATACOPY ADD SWAP1 POP JUMPDEST POP SWAP1 POP PUSH1 0x0 DUP3 PUSH1 0xFF AND PUSH1 0x1 PUSH1 0x1 PUSH1 0x40 SHL SUB DUP2 GT ISZERO PUSH2 0x1C8E JUMPI PUSH2 0x1C8E PUSH2 0x37A3 JUMP JUMPDEST PUSH1 0x40 MLOAD SWAP1 DUP1 DUP3 MSTORE DUP1 PUSH1 0x20 MUL PUSH1 0x20 ADD DUP3 ADD PUSH1 0x40 MSTORE DUP1 ISZERO PUSH2 0x1CB7 JUMPI DUP2 PUSH1 0x20 ADD PUSH1 0x20 DUP3 MUL DUP1 CALLDATASIZE DUP4 CALLDATACOPY ADD SWAP1 POP JUMPDEST POP SWAP1 POP PUSH1 0x0 DUP4 PUSH1 0xFF AND PUSH1 0x1 PUSH1 0x1 PUSH1 0x40 SHL SUB DUP2 GT ISZERO PUSH2 0x1CD7 JUMPI PUSH2 0x1CD7 PUSH2 0x37A3 JUMP JUMPDEST PUSH1 0x40 MLOAD SWAP1 DUP1 DUP3 MSTORE DUP1 PUSH1 0x20 MUL PUSH1 0x20 ADD DUP3 ADD PUSH1 0x40 MSTORE DUP1 ISZERO PUSH2 0x1D00 JUMPI DUP2 PUSH1 0x20 ADD PUSH1 0x20 DUP3 MUL DUP1 CALLDATASIZE DUP4 CALLDATACOPY ADD SWAP1 POP JUMPDEST POP SWAP1 POP PUSH1 0x0 DUP5 PUSH1 0xFF AND PUSH1 0x1 PUSH1 0x1 PUSH1 0x40 SHL SUB DUP2 GT ISZERO PUSH2 0x1D20 JUMPI PUSH2 0x1D20 PUSH2 0x37A3 JUMP JUMPDEST PUSH1 0x40 MLOAD SWAP1 DUP1 DUP3 MSTORE DUP1 PUSH1 0x20 MUL PUSH1 0x20 ADD DUP3 ADD PUSH1 0x40 MSTORE DUP1 ISZERO PUSH2 0x1D49 JUMPI DUP2 PUSH1 0x20 ADD PUSH1 0x20 DUP3 MUL DUP1 CALLDATASIZE DUP4 CALLDATACOPY ADD SWAP1 POP JUMPDEST POP SWAP1 POP PUSH1 0x0 SWAP5 POP PUSH1 0x0 JUMPDEST PUSH1 0x5 SLOAD DUP2 PUSH1 0xFF AND LT ISZERO PUSH2 0x1B88 JUMPI PUSH1 0xFF DUP2 AND PUSH1 0x0 SWAP1 DUP2 MSTORE PUSH1 0x3 PUSH1 0x20 MSTORE PUSH1 0x40 SWAP1 KECCAK256 SLOAD PUSH1 0x1 PUSH1 0x1 PUSH1 0xA0 SHL SUB DUP13 DUP2 AND SWAP2 AND EQ ISZERO PUSH2 0x1E9A JUMPI PUSH1 0x0 PUSH1 0xFF DUP1 DUP4 AND PUSH1 0x0 SWAP1 DUP2 MSTORE PUSH1 0x3 PUSH1 0x20 MSTORE PUSH1 0x40 SWAP1 KECCAK256 PUSH1 0x5 ADD SLOAD AND PUSH1 0x2 DUP2 GT ISZERO PUSH2 0x1DB1 JUMPI PUSH2 0x1DB1 PUSH2 0x3659 JUMP JUMPDEST EQ ISZERO PUSH2 0x1E9A JUMPI PUSH1 0x3 PUSH1 0x0 DUP3 PUSH1 0xFF AND DUP2 MSTORE PUSH1 0x20 ADD SWAP1 DUP2 MSTORE PUSH1 0x20 ADD PUSH1 0x0 KECCAK256 PUSH1 0x2 ADD SLOAD DUP6 DUP8 PUSH1 0xFF AND DUP2 MLOAD DUP2 LT PUSH2 0x1DE6 JUMPI PUSH2 0x1DE6 PUSH2 0x3AD0 JUMP JUMPDEST PUSH1 0x20 MUL PUSH1 0x20 ADD ADD DUP2 DUP2 MSTORE POP POP PUSH1 0x3 PUSH1 0x0 DUP3 PUSH1 0xFF AND DUP2 MSTORE PUSH1 0x20 ADD SWAP1 DUP2 MSTORE PUSH1 0x20 ADD PUSH1 0x0 KECCAK256 PUSH1 0x3 ADD SLOAD DUP5 DUP8 PUSH1 0xFF AND DUP2 MLOAD DUP2 LT PUSH2 0x1E21 JUMPI PUSH2 0x1E21 PUSH2 0x3AD0 JUMP JUMPDEST PUSH1 0x20 MUL PUSH1 0x20 ADD ADD DUP2 DUP2 MSTORE POP POP PUSH1 0x3 PUSH1 0x0 DUP3 PUSH1 0xFF AND DUP2 MSTORE PUSH1 0x20 ADD SWAP1 DUP2 MSTORE PUSH1 0x20 ADD PUSH1 0x0 KECCAK256 PUSH1 0x4 ADD SLOAD DUP4 DUP8 PUSH1 0xFF AND DUP2 MLOAD DUP2 LT PUSH2 0x1E5C JUMPI PUSH2 0x1E5C PUSH2 0x3AD0 JUMP JUMPDEST PUSH1 0x20 MUL PUSH1 0x20 ADD ADD DUP2 DUP2 MSTORE POP POP DUP1 PUSH1 0xFF AND DUP3 DUP8 PUSH1 0xFF AND DUP2 MLOAD DUP2 LT PUSH2 0x1E81 JUMPI PUSH2 0x1E81 PUSH2 0x3AD0 JUMP JUMPDEST PUSH1 0x20 SWAP1 DUP2 MUL SWAP2 SWAP1 SWAP2 ADD ADD MSTORE DUP6 PUSH2 0x1E96 DUP2 PUSH2 0x3AB0 JUMP JUMPDEST SWAP7 POP POP JUMPDEST DUP1 PUSH2 0x1EA4 DUP2 PUSH2 0x3AB0 JUMP JUMPDEST SWAP2 POP POP PUSH2 0x1D53 JUMP JUMPDEST PUSH1 0x60 DUP1 PUSH1 0x0 DUP1 JUMPDEST PUSH1 0xA SLOAD DUP2 LT ISZERO PUSH2 0x1EF3 JUMPI PUSH1 0x0 DUP2 DUP2 MSTORE PUSH1 0x8 PUSH1 0x20 MSTORE PUSH1 0x40 SWAP1 KECCAK256 SLOAD DUP6 EQ ISZERO PUSH2 0x1EE1 JUMPI DUP2 PUSH2 0x1EDD DUP2 PUSH2 0x3A95 JUMP JUMPDEST SWAP3 POP POP JUMPDEST DUP1 PUSH2 0x1EEB DUP2 PUSH2 0x3A95 JUMP JUMPDEST SWAP2 POP POP PUSH2 0x1EB3 JUMP JUMPDEST POP PUSH1 0x0 DUP2 PUSH1 0x1 PUSH1 0x1 PUSH1 0x40 SHL SUB DUP2 GT ISZERO PUSH2 0x1F0E JUMPI PUSH2 0x1F0E PUSH2 0x37A3 JUMP JUMPDEST PUSH1 0x40 MLOAD SWAP1 DUP1 DUP3 MSTORE DUP1 PUSH1 0x20 MUL PUSH1 0x20 ADD DUP3 ADD PUSH1 0x40 MSTORE DUP1 ISZERO PUSH2 0x1F37 JUMPI DUP2 PUSH1 0x20 ADD PUSH1 0x20 DUP3 MUL DUP1 CALLDATASIZE DUP4 CALLDATACOPY ADD SWAP1 POP JUMPDEST POP SWAP1 POP PUSH1 0x0 DUP3 PUSH1 0x1 PUSH1 0x1 PUSH1 0x40 SHL SUB DUP2 GT ISZERO PUSH2 0x1F54 JUMPI PUSH2 0x1F54 PUSH2 0x37A3 JUMP JUMPDEST PUSH1 0x40 MLOAD SWAP1 DUP1 DUP3 MSTORE DUP1 PUSH1 0x20 MUL PUSH1 0x20 ADD DUP3 ADD PUSH1 0x40 MSTORE DUP1 ISZERO PUSH2 0x1F7D JUMPI DUP2 PUSH1 0x20 ADD PUSH1 0x20 DUP3 MUL DUP1 CALLDATASIZE DUP4 CALLDATACOPY ADD SWAP1 POP JUMPDEST POP SWAP1 POP PUSH1 0x0 SWAP3 POP PUSH1 0x0 JUMPDEST PUSH1 0xA SLOAD DUP2 LT ISZERO PUSH2 0x2055 JUMPI PUSH1 0x0 DUP2 DUP2 MSTORE PUSH1 0x8 PUSH1 0x20 MSTORE PUSH1 0x40 SWAP1 KECCAK256 SLOAD DUP8 EQ ISZERO PUSH2 0x2043 JUMPI PUSH1 0x0 DUP2 DUP2 MSTORE PUSH1 0x6 PUSH1 0x20 MSTORE PUSH1 0x40 SWAP1 KECCAK256 SLOAD DUP4 MLOAD PUSH1 0x1 PUSH1 0x1 PUSH1 0xA0 SHL SUB SWAP1 SWAP2 AND SWAP1 DUP5 SWAP1 DUP7 SWAP1 DUP2 LT PUSH2 0x1FD6 JUMPI PUSH2 0x1FD6 PUSH2 0x3AD0 JUMP JUMPDEST PUSH1 0x1 PUSH1 0x1 PUSH1 0xA0 SHL SUB SWAP3 DUP4 AND PUSH1 0x20 SWAP2 DUP3 MUL SWAP3 SWAP1 SWAP3 ADD DUP2 ADD SWAP2 SWAP1 SWAP2 MSTORE PUSH1 0x0 DUP4 DUP2 MSTORE PUSH1 0x6 DUP3 MSTORE PUSH1 0x40 DUP1 DUP3 KECCAK256 SLOAD SWAP1 SWAP4 AND DUP2 MSTORE PUSH1 0x9 SWAP1 SWAP2 MSTORE KECCAK256 SLOAD DUP3 MLOAD PUSH1 0xFF SWAP1 SWAP2 AND SWAP1 DUP4 SWAP1 DUP7 SWAP1 DUP2 LT PUSH2 0x2025 JUMPI PUSH2 0x2025 PUSH2 0x3AD0 JUMP JUMPDEST SWAP2 ISZERO ISZERO PUSH1 0x20 SWAP3 DUP4 MUL SWAP2 SWAP1 SWAP2 ADD SWAP1 SWAP2 ADD MSTORE DUP4 PUSH2 0x203F DUP2 PUSH2 0x3A95 JUMP JUMPDEST SWAP5 POP POP JUMPDEST DUP1 PUSH2 0x204D DUP2 PUSH2 0x3A95 JUMP JUMPDEST SWAP2 POP POP PUSH2 0x1F87 JUMP JUMPDEST POP SWAP1 SWAP6 SWAP1 SWAP5 POP SWAP3 POP POP POP JUMP JUMPDEST PUSH1 0x60 PUSH1 0xC DUP1 SLOAD DUP1 PUSH1 0x20 MUL PUSH1 0x20 ADD PUSH1 0x40 MLOAD SWAP1 DUP2 ADD PUSH1 0x40 MSTORE DUP1 SWAP3 SWAP2 SWAP1 DUP2 DUP2 MSTORE PUSH1 0x20 ADD DUP3 DUP1 SLOAD DUP1 ISZERO PUSH2 0x20B9 JUMPI PUSH1 0x20 MUL DUP3 ADD SWAP2 SWAP1 PUSH1 0x0 MSTORE PUSH1 0x20 PUSH1 0x0 KECCAK256 SWAP1 JUMPDEST DUP2 SLOAD PUSH1 0x1 PUSH1 0x1 PUSH1 0xA0 SHL SUB AND DUP2 MSTORE PUSH1 0x1 SWAP1 SWAP2 ADD SWAP1 PUSH1 0x20 ADD DUP1 DUP4 GT PUSH2 0x209B JUMPI JUMPDEST POP POP POP POP POP SWAP1 POP SWAP1 JUMP JUMPDEST PUSH1 0x60 PUSH1 0x0 DUP1 JUMPDEST PUSH1 0xA SLOAD DUP2 LT ISZERO PUSH2 0x213B JUMPI PUSH1 0x0 DUP2 DUP2 MSTORE PUSH1 0x6 PUSH1 0x20 SWAP1 DUP2 MSTORE PUSH1 0x40 DUP1 DUP4 KECCAK256 SLOAD PUSH1 0x1 PUSH1 0x1 PUSH1 0xA0 SHL SUB AND DUP4 MSTORE PUSH1 0x9 SWAP1 SWAP2 MSTORE SWAP1 KECCAK256 SLOAD PUSH1 0xFF AND ISZERO ISZERO PUSH1 0x1 EQ ISZERO PUSH2 0x2129 JUMPI PUSH1 0x0 DUP2 DUP2 MSTORE PUSH1 0x8 PUSH1 0x20 MSTORE PUSH1 0x40 SWAP1 KECCAK256 SLOAD DUP5 EQ ISZERO PUSH2 0x2129 JUMPI DUP2 PUSH2 0x2125 DUP2 PUSH2 0x3A95 JUMP JUMPDEST SWAP3 POP POP JUMPDEST DUP1 PUSH2 0x2133 DUP2 PUSH2 0x3A95 JUMP JUMPDEST SWAP2 POP POP PUSH2 0x20C9 JUMP JUMPDEST POP PUSH1 0x0 DUP2 PUSH1 0x1 PUSH1 0x1 PUSH1 0x40 SHL SUB DUP2 GT ISZERO PUSH2 0x2156 JUMPI PUSH2 0x2156 PUSH2 0x37A3 JUMP JUMPDEST PUSH1 0x40 MLOAD SWAP1 DUP1 DUP3 MSTORE DUP1 PUSH1 0x20 MUL PUSH1 0x20 ADD DUP3 ADD PUSH1 0x40 MSTORE DUP1 ISZERO PUSH2 0x217F JUMPI DUP2 PUSH1 0x20 ADD PUSH1 0x20 DUP3 MUL DUP1 CALLDATASIZE DUP4 CALLDATACOPY ADD SWAP1 POP JUMPDEST POP SWAP1 POP PUSH1 0x0 SWAP2 POP PUSH1 0x0 JUMPDEST PUSH1 0xA SLOAD DUP2 LT ISZERO PUSH2 0x2242 JUMPI PUSH1 0x0 DUP2 DUP2 MSTORE PUSH1 0x6 PUSH1 0x20 SWAP1 DUP2 MSTORE PUSH1 0x40 DUP1 DUP4 KECCAK256 SLOAD PUSH1 0x1 PUSH1 0x1 PUSH1 0xA0 SHL SUB AND DUP4 MSTORE PUSH1 0x9 SWAP1 SWAP2 MSTORE SWAP1 KECCAK256 SLOAD PUSH1 0xFF AND ISZERO ISZERO PUSH1 0x1 EQ ISZERO PUSH2 0x2230 JUMPI PUSH1 0x0 DUP2 DUP2 MSTORE PUSH1 0x8 PUSH1 0x20 MSTORE PUSH1 0x40 SWAP1 KECCAK256 SLOAD DUP6 EQ ISZERO PUSH2 0x2230 JUMPI PUSH1 0x0 DUP2 DUP2 MSTORE PUSH1 0x6 PUSH1 0x20 MSTORE PUSH1 0x40 SWAP1 KECCAK256 SLOAD DUP3 MLOAD PUSH1 0x1 PUSH1 0x1 PUSH1 0xA0 SHL SUB SWAP1 SWAP2 AND SWAP1 DUP4 SWAP1 DUP6 SWAP1 DUP2 LT PUSH2 0x220A JUMPI PUSH2 0x220A PUSH2 0x3AD0 JUMP JUMPDEST PUSH1 0x1 PUSH1 0x1 PUSH1 0xA0 SHL SUB SWAP1 SWAP3 AND PUSH1 0x20 SWAP3 DUP4 MUL SWAP2 SWAP1 SWAP2 ADD SWAP1 SWAP2 ADD MSTORE DUP3 PUSH2 0x222C DUP2 PUSH2 0x3A95 JUMP JUMPDEST SWAP4 POP POP JUMPDEST DUP1 PUSH2 0x223A DUP2 PUSH2 0x3A95 JUMP JUMPDEST SWAP2 POP POP PUSH2 0x2189 JUMP JUMPDEST POP SWAP4 SWAP3 POP POP POP JUMP JUMPDEST PUSH1 0xC PUSH1 0xD SLOAD DUP2 SLOAD DUP2 LT PUSH2 0x225F JUMPI PUSH2 0x225F PUSH2 0x3AD0 JUMP JUMPDEST PUSH1 0x0 SWAP2 DUP3 MSTORE PUSH1 0x20 SWAP1 SWAP2 KECCAK256 ADD SLOAD PUSH1 0x1 PUSH1 0x1 PUSH1 0xA0 SHL SUB AND CALLER EQ PUSH2 0x227F JUMPI PUSH1 0x0 DUP1 REVERT JUMPDEST PUSH1 0x1 PUSH1 0x1 PUSH1 0xA0 SHL SUB SWAP2 SWAP1 SWAP2 AND PUSH1 0x0 SWAP1 DUP2 MSTORE PUSH1 0x9 PUSH1 0x20 MSTORE PUSH1 0x40 SWAP1 KECCAK256 DUP1 SLOAD PUSH1 0xFF NOT AND SWAP2 ISZERO ISZERO SWAP2 SWAP1 SWAP2 OR SWAP1 SSTORE JUMP JUMPDEST PUSH1 0x0 DUP1 DUP1 JUMPDEST PUSH1 0x5 SLOAD DUP2 PUSH1 0xFF AND LT ISZERO PUSH2 0x12A3 JUMPI PUSH1 0xFF DUP2 AND PUSH1 0x0 SWAP1 DUP2 MSTORE PUSH1 0x3 PUSH1 0x20 MSTORE PUSH1 0x40 SWAP1 KECCAK256 SLOAD PUSH1 0x1 PUSH1 0x1 PUSH1 0xA0 SHL SUB DUP6 DUP2 AND SWAP2 AND EQ ISZERO PUSH2 0x2305 JUMPI PUSH1 0xFF DUP2 AND PUSH1 0x0 SWAP1 DUP2 MSTORE PUSH1 0x3 PUSH1 0x20 MSTORE PUSH1 0x40 SWAP1 KECCAK256 PUSH1 0x4 ADD SLOAD PUSH2 0x2302 SWAP1 DUP4 PUSH2 0x3B5C JUMP JUMPDEST SWAP2 POP JUMPDEST DUP1 PUSH2 0x230F DUP2 PUSH2 0x3AB0 JUMP JUMPDEST SWAP2 POP POP PUSH2 0x22AF JUMP JUMPDEST PUSH1 0x0 DUP2 DUP2 MSTORE PUSH1 0x2 PUSH1 0x20 MSTORE PUSH1 0x40 SWAP1 KECCAK256 PUSH1 0x1 ADD SLOAD PUSH1 0x1 PUSH1 0x1 PUSH1 0xA0 SHL SUB AND CALLER EQ PUSH2 0x2380 JUMPI PUSH1 0x40 MLOAD PUSH3 0x461BCD PUSH1 0xE5 SHL DUP2 MSTORE PUSH1 0x20 PUSH1 0x4 DUP3 ADD MSTORE PUSH1 0x1D PUSH1 0x24 DUP3 ADD MSTORE PUSH32 0x6D73672E73656E646572206973206E6F74206F72646572206F776E6572000000 PUSH1 0x44 DUP3 ADD MSTORE PUSH1 0x64 ADD PUSH2 0x8D1 JUMP JUMPDEST PUSH1 0x0 DUP2 DUP2 MSTORE PUSH1 0x2 PUSH1 0x20 DUP2 SWAP1 MSTORE PUSH1 0x40 DUP3 KECCAK256 PUSH1 0x5 ADD SLOAD PUSH1 0xFF AND SWAP1 DUP2 GT ISZERO PUSH2 0x23A7 JUMPI PUSH2 0x23A7 PUSH2 0x3659 JUMP JUMPDEST EQ PUSH2 0x23E8 JUMPI PUSH1 0x40 MLOAD PUSH3 0x461BCD PUSH1 0xE5 SHL DUP2 MSTORE PUSH1 0x20 PUSH1 0x4 DUP3 ADD MSTORE PUSH1 0x11 PUSH1 0x24 DUP3 ADD MSTORE PUSH17 0x37B93232B91034B9903737BA1037B832B7 PUSH1 0x79 SHL PUSH1 0x44 DUP3 ADD MSTORE PUSH1 0x64 ADD PUSH2 0x8D1 JUMP JUMPDEST PUSH1 0x0 DUP2 DUP2 MSTORE PUSH1 0x2 PUSH1 0x20 MSTORE PUSH1 0x40 DUP1 DUP3 KECCAK256 PUSH1 0x4 ADD SLOAD SWAP1 MLOAD CALLER SWAP3 DUP4 SWAP3 DUP1 ISZERO PUSH2 0x8FC MUL SWAP3 SWAP1 SWAP2 DUP2 DUP2 DUP2 DUP6 DUP9 DUP9 CALL SWAP4 POP POP POP POP ISZERO DUP1 ISZERO PUSH2 0x2427 JUMPI RETURNDATASIZE PUSH1 0x0 DUP1 RETURNDATACOPY RETURNDATASIZE PUSH1 0x0 REVERT JUMPDEST POP POP PUSH1 0x0 SWAP1 DUP2 MSTORE PUSH1 0x2 PUSH1 0x20 DUP2 SWAP1 MSTORE PUSH1 0x40 DUP3 KECCAK256 PUSH1 0x4 DUP2 ADD SWAP3 SWAP1 SWAP3 SSTORE PUSH1 0x5 SWAP1 SWAP2 ADD DUP1 SLOAD PUSH1 0xFF NOT AND SWAP1 SWAP2 OR SWAP1 SSTORE JUMP JUMPDEST PUSH1 0x0 DUP2 PUSH1 0x40 MLOAD PUSH1 0x20 ADD PUSH2 0x2466 SWAP2 SWAP1 PUSH2 0x3BE5 JUMP JUMPDEST PUSH1 0x40 MLOAD PUSH1 0x20 DUP2 DUP4 SUB SUB DUP2 MSTORE SWAP1 PUSH1 0x40 MSTORE DUP1 MLOAD SWAP1 PUSH1 0x20 ADD KECCAK256 DUP4 PUSH1 0x40 MLOAD PUSH1 0x20 ADD PUSH2 0x248D SWAP2 SWAP1 PUSH2 0x3BE5 JUMP JUMPDEST PUSH1 0x40 MLOAD PUSH1 0x20 DUP2 DUP4 SUB SUB DUP2 MSTORE SWAP1 PUSH1 0x40 MSTORE DUP1 MLOAD SWAP1 PUSH1 0x20 ADD KECCAK256 EQ SWAP1 POP SWAP3 SWAP2 POP POP JUMP JUMPDEST PUSH1 0x60 DUP1 PUSH1 0x60 DUP1 PUSH1 0x60 DUP1 PUSH1 0x0 DUP1 JUMPDEST PUSH1 0x4 SLOAD DUP2 PUSH1 0xFF AND LT ISZERO PUSH2 0x2535 JUMPI PUSH1 0xFF DUP2 AND PUSH1 0x0 SWAP1 DUP2 MSTORE PUSH1 0x2 PUSH1 0x20 MSTORE PUSH1 0x40 SWAP1 KECCAK256 PUSH1 0x1 ADD SLOAD PUSH1 0x1 PUSH1 0x1 PUSH1 0xA0 SHL SUB DUP11 DUP2 AND SWAP2 AND EQ ISZERO PUSH2 0x2523 JUMPI PUSH1 0xFF DUP2 AND PUSH1 0x0 SWAP1 DUP2 MSTORE PUSH1 0x2 PUSH1 0x20 MSTORE PUSH1 0x40 SWAP1 KECCAK256 SLOAD PUSH1 0x1 PUSH1 0x1 PUSH1 0xA0 SHL SUB DUP12 DUP2 AND SWAP2 AND EQ ISZERO PUSH2 0x2523 JUMPI DUP2 PUSH2 0x251F DUP2 PUSH2 0x3AB0 JUMP JUMPDEST SWAP3 POP POP JUMPDEST DUP1 PUSH2 0x252D DUP2 PUSH2 0x3AB0 JUMP JUMPDEST SWAP2 POP POP PUSH2 0x24B9 JUMP JUMPDEST POP PUSH1 0x0 DUP2 PUSH1 0xFF AND PUSH1 0x1 PUSH1 0x1 PUSH1 0x40 SHL SUB DUP2 GT ISZERO PUSH2 0x2553 JUMPI PUSH2 0x2553 PUSH2 0x37A3 JUMP JUMPDEST PUSH1 0x40 MLOAD SWAP1 DUP1 DUP3 MSTORE DUP1 PUSH1 0x20 MUL PUSH1 0x20 ADD DUP3 ADD PUSH1 0x40 MSTORE DUP1 ISZERO PUSH2 0x257C JUMPI DUP2 PUSH1 0x20 ADD PUSH1 0x20 DUP3 MUL DUP1 CALLDATASIZE DUP4 CALLDATACOPY ADD SWAP1 POP JUMPDEST POP SWAP1 POP PUSH1 0x0 DUP3 PUSH1 0xFF AND PUSH1 0x1 PUSH1 0x1 PUSH1 0x40 SHL SUB DUP2 GT ISZERO PUSH2 0x259C JUMPI PUSH2 0x259C PUSH2 0x37A3 JUMP JUMPDEST PUSH1 0x40 MLOAD SWAP1 DUP1 DUP3 MSTORE DUP1 PUSH1 0x20 MUL PUSH1 0x20 ADD DUP3 ADD PUSH1 0x40 MSTORE DUP1 ISZERO PUSH2 0x25C5 JUMPI DUP2 PUSH1 0x20 ADD PUSH1 0x20 DUP3 MUL DUP1 CALLDATASIZE DUP4 CALLDATACOPY ADD SWAP1 POP JUMPDEST POP SWAP1 POP PUSH1 0x0 DUP4 PUSH1 0xFF AND PUSH1 0x1 PUSH1 0x1 PUSH1 0x40 SHL SUB DUP2 GT ISZERO PUSH2 0x25E5 JUMPI PUSH2 0x25E5 PUSH2 0x37A3 JUMP JUMPDEST PUSH1 0x40 MLOAD SWAP1 DUP1 DUP3 MSTORE DUP1 PUSH1 0x20 MUL PUSH1 0x20 ADD DUP3 ADD PUSH1 0x40 MSTORE DUP1 ISZERO PUSH2 0x260E JUMPI DUP2 PUSH1 0x20 ADD PUSH1 0x20 DUP3 MUL DUP1 CALLDATASIZE DUP4 CALLDATACOPY ADD SWAP1 POP JUMPDEST POP SWAP1 POP PUSH1 0x0 DUP5 PUSH1 0xFF AND PUSH1 0x1 PUSH1 0x1 PUSH1 0x40 SHL SUB DUP2 GT ISZERO PUSH2 0x262E JUMPI PUSH2 0x262E PUSH2 0x37A3 JUMP JUMPDEST PUSH1 0x40 MLOAD SWAP1 DUP1 DUP3 MSTORE DUP1 PUSH1 0x20 MUL PUSH1 0x20 ADD DUP3 ADD PUSH1 0x40 MSTORE DUP1 ISZERO PUSH2 0x2657 JUMPI DUP2 PUSH1 0x20 ADD PUSH1 0x20 DUP3 MUL DUP1 CALLDATASIZE DUP4 CALLDATACOPY ADD SWAP1 POP JUMPDEST POP SWAP1 POP PUSH1 0x0 DUP6 PUSH1 0xFF AND PUSH1 0x1 PUSH1 0x1 PUSH1 0x40 SHL SUB DUP2 GT ISZERO PUSH2 0x2677 JUMPI PUSH2 0x2677 PUSH2 0x37A3 JUMP JUMPDEST PUSH1 0x40 MLOAD SWAP1 DUP1 DUP3 MSTORE DUP1 PUSH1 0x20 MUL PUSH1 0x20 ADD DUP3 ADD PUSH1 0x40 MSTORE DUP1 ISZERO PUSH2 0x26A0 JUMPI DUP2 PUSH1 0x20 ADD PUSH1 0x20 DUP3 MUL DUP1 CALLDATASIZE DUP4 CALLDATACOPY ADD SWAP1 POP JUMPDEST POP SWAP1 POP PUSH1 0x0 DUP7 PUSH1 0xFF AND PUSH1 0x1 PUSH1 0x1 PUSH1 0x40 SHL SUB DUP2 GT ISZERO PUSH2 0x26C0 JUMPI PUSH2 0x26C0 PUSH2 0x37A3 JUMP JUMPDEST PUSH1 0x40 MLOAD SWAP1 DUP1 DUP3 MSTORE DUP1 PUSH1 0x20 MUL PUSH1 0x20 ADD DUP3 ADD PUSH1 0x40 MSTORE DUP1 ISZERO PUSH2 0x26E9 JUMPI DUP2 PUSH1 0x20 ADD PUSH1 0x20 DUP3 MUL DUP1 CALLDATASIZE DUP4 CALLDATACOPY ADD SWAP1 POP JUMPDEST POP SWAP1 POP PUSH1 0x0 SWAP7 POP PUSH1 0x0 JUMPDEST PUSH1 0x4 SLOAD DUP2 PUSH1 0xFF AND LT ISZERO PUSH2 0xE93 JUMPI DUP15 PUSH1 0x1 PUSH1 0x1 PUSH1 0xA0 SHL SUB AND PUSH1 0x2 PUSH1 0x0 DUP4 PUSH1 0xFF AND DUP2 MSTORE PUSH1 0x20 ADD SWAP1 DUP2 MSTORE PUSH1 0x20 ADD PUSH1 0x0 KECCAK256 PUSH1 0x1 ADD PUSH1 0x0 SWAP1 SLOAD SWAP1 PUSH2 0x100 EXP SWAP1 DIV PUSH1 0x1 PUSH1 0x1 PUSH1 0xA0 SHL SUB AND PUSH1 0x1 PUSH1 0x1 PUSH1 0xA0 SHL SUB AND EQ ISZERO PUSH2 0x2934 JUMPI DUP16 PUSH1 0x1 PUSH1 0x1 PUSH1 0xA0 SHL SUB AND PUSH1 0x2 PUSH1 0x0 DUP4 PUSH1 0xFF AND DUP2 MSTORE PUSH1 0x20 ADD SWAP1 DUP2 MSTORE PUSH1 0x20 ADD PUSH1 0x0 KECCAK256 PUSH1 0x0 ADD PUSH1 0x0 SWAP1 SLOAD SWAP1 PUSH2 0x100 EXP SWAP1 DIV PUSH1 0x1 PUSH1 0x1 PUSH1 0xA0 SHL SUB AND PUSH1 0x1 PUSH1 0x1 PUSH1 0xA0 SHL SUB AND EQ ISZERO PUSH2 0x2934 JUMPI PUSH1 0xFF DUP1 DUP3 AND PUSH1 0x0 SWAP1 DUP2 MSTORE PUSH1 0x2 PUSH1 0x20 MSTORE PUSH1 0x40 SWAP1 KECCAK256 PUSH1 0x1 ADD SLOAD DUP9 MLOAD PUSH1 0x1 PUSH1 0x1 PUSH1 0xA0 SHL SUB SWAP1 SWAP2 AND SWAP2 DUP10 SWAP2 SWAP1 DUP12 AND SWAP1 DUP2 LT PUSH2 0x27C5 JUMPI PUSH2 0x27C5 PUSH2 0x3AD0 JUMP JUMPDEST PUSH1 0x20 MUL PUSH1 0x20 ADD ADD SWAP1 PUSH1 0x1 PUSH1 0x1 PUSH1 0xA0 SHL SUB AND SWAP1 DUP2 PUSH1 0x1 PUSH1 0x1 PUSH1 0xA0 SHL SUB AND DUP2 MSTORE POP POP PUSH1 0x2 PUSH1 0x0 DUP3 PUSH1 0xFF AND DUP2 MSTORE PUSH1 0x20 ADD SWAP1 DUP2 MSTORE PUSH1 0x20 ADD PUSH1 0x0 KECCAK256 PUSH1 0x2 ADD SLOAD DUP7 DUP10 PUSH1 0xFF AND DUP2 MLOAD DUP2 LT PUSH2 0x2814 JUMPI PUSH2 0x2814 PUSH2 0x3AD0 JUMP JUMPDEST PUSH1 0x20 MUL PUSH1 0x20 ADD ADD DUP2 DUP2 MSTORE POP POP PUSH1 0x2 PUSH1 0x0 DUP3 PUSH1 0xFF AND DUP2 MSTORE PUSH1 0x20 ADD SWAP1 DUP2 MSTORE PUSH1 0x20 ADD PUSH1 0x0 KECCAK256 PUSH1 0x3 ADD SLOAD DUP6 DUP10 PUSH1 0xFF AND DUP2 MLOAD DUP2 LT PUSH2 0x284F JUMPI PUSH2 0x284F PUSH2 0x3AD0 JUMP JUMPDEST PUSH1 0x20 MUL PUSH1 0x20 ADD ADD DUP2 DUP2 MSTORE POP POP PUSH1 0x2 PUSH1 0x0 DUP3 PUSH1 0xFF AND DUP2 MSTORE PUSH1 0x20 ADD SWAP1 DUP2 MSTORE PUSH1 0x20 ADD PUSH1 0x0 KECCAK256 PUSH1 0x4 ADD SLOAD DUP5 DUP10 PUSH1 0xFF AND DUP2 MLOAD DUP2 LT PUSH2 0x288A JUMPI PUSH2 0x288A PUSH2 0x3AD0 JUMP JUMPDEST PUSH1 0x20 MUL PUSH1 0x20 ADD ADD DUP2 DUP2 MSTORE POP POP DUP1 PUSH1 0xFF AND DUP4 DUP10 PUSH1 0xFF AND DUP2 MLOAD DUP2 LT PUSH2 0x28AF JUMPI PUSH2 0x28AF PUSH2 0x3AD0 JUMP JUMPDEST PUSH1 0x20 MUL PUSH1 0x20 ADD ADD DUP2 DUP2 MSTORE POP POP PUSH1 0x2 PUSH1 0x0 DUP3 PUSH1 0xFF AND DUP2 MSTORE PUSH1 0x20 ADD SWAP1 DUP2 MSTORE PUSH1 0x20 ADD PUSH1 0x0 KECCAK256 PUSH1 0x5 ADD PUSH1 0x0 SWAP1 SLOAD SWAP1 PUSH2 0x100 EXP SWAP1 DIV PUSH1 0xFF AND DUP3 DUP10 PUSH1 0xFF AND DUP2 MLOAD DUP2 LT PUSH2 0x28F7 JUMPI PUSH2 0x28F7 PUSH2 0x3AD0 JUMP JUMPDEST PUSH1 0x20 MUL PUSH1 0x20 ADD ADD SWAP1 PUSH1 0x2 DUP2 GT ISZERO PUSH2 0x2910 JUMPI PUSH2 0x2910 PUSH2 0x3659 JUMP JUMPDEST SWAP1 DUP2 PUSH1 0x2 DUP2 GT ISZERO PUSH2 0x2923 JUMPI PUSH2 0x2923 PUSH2 0x3659 JUMP JUMPDEST SWAP1 MSTORE POP DUP8 PUSH2 0x2930 DUP2 PUSH2 0x3AB0 JUMP JUMPDEST SWAP9 POP POP JUMPDEST DUP1 PUSH2 0x293E DUP2 PUSH2 0x3AB0 JUMP JUMPDEST SWAP2 POP POP PUSH2 0x26F3 JUMP JUMPDEST PUSH1 0x0 DUP1 DUP1 JUMPDEST PUSH1 0x4 SLOAD DUP2 PUSH1 0xFF AND LT ISZERO PUSH2 0x12A3 JUMPI PUSH1 0xFF DUP2 AND PUSH1 0x0 SWAP1 DUP2 MSTORE PUSH1 0x2 PUSH1 0x20 MSTORE PUSH1 0x40 SWAP1 KECCAK256 SLOAD PUSH1 0x1 PUSH1 0x1 PUSH1 0xA0 SHL SUB DUP6 DUP2 AND SWAP2 AND EQ ISZERO PUSH2 0x29A1 JUMPI PUSH1 0xFF DUP2 AND PUSH1 0x0 SWAP1 DUP2 MSTORE PUSH1 0x2 PUSH1 0x20 MSTORE PUSH1 0x40 SWAP1 KECCAK256 PUSH1 0x4 ADD SLOAD PUSH2 0x299E SWAP1 DUP4 PUSH2 0x3B5C JUMP JUMPDEST SWAP2 POP JUMPDEST DUP1 PUSH2 0x29AB DUP2 PUSH2 0x3AB0 JUMP JUMPDEST SWAP2 POP POP PUSH2 0x294B JUMP JUMPDEST PUSH1 0x0 DUP1 DUP4 GT PUSH2 0x29D4 JUMPI PUSH1 0x40 MLOAD PUSH3 0x461BCD PUSH1 0xE5 SHL DUP2 MSTORE PUSH1 0x4 ADD PUSH2 0x8D1 SWAP1 PUSH2 0x3B03 JUMP JUMPDEST PUSH1 0x0 DUP3 GT PUSH2 0x29F4 JUMPI PUSH1 0x40 MLOAD PUSH3 0x461BCD PUSH1 0xE5 SHL DUP2 MSTORE PUSH1 0x4 ADD PUSH2 0x8D1 SWAP1 PUSH2 0x3B03 JUMP JUMPDEST PUSH1 0x40 MLOAD PUSH4 0x23B872DD PUSH1 0xE0 SHL DUP2 MSTORE CALLER PUSH1 0x4 DUP3 ADD MSTORE ADDRESS PUSH1 0x24 DUP3 ADD MSTORE PUSH1 0x44 DUP2 ADD DUP5 SWAP1 MSTORE PUSH1 0x1 PUSH1 0x1 PUSH1 0xA0 SHL SUB DUP6 AND SWAP1 PUSH4 0x23B872DD SWAP1 PUSH1 0x64 ADD PUSH1 0x20 PUSH1 0x40 MLOAD DUP1 DUP4 SUB DUP2 PUSH1 0x0 DUP8 GAS CALL ISZERO DUP1 ISZERO PUSH2 0x2A47 JUMPI RETURNDATASIZE PUSH1 0x0 DUP1 RETURNDATACOPY RETURNDATASIZE PUSH1 0x0 REVERT JUMPDEST POP POP POP POP PUSH1 0x40 MLOAD RETURNDATASIZE PUSH1 0x1F NOT PUSH1 0x1F DUP3 ADD AND DUP3 ADD DUP1 PUSH1 0x40 MSTORE POP DUP2 ADD SWAP1 PUSH2 0x2A6B SWAP2 SWAP1 PUSH2 0x3AE6 JUMP JUMPDEST POP PUSH1 0x40 DUP1 MLOAD PUSH1 0xC0 DUP2 ADD DUP3 MSTORE PUSH1 0x1 PUSH1 0x1 PUSH1 0xA0 SHL SUB DUP7 DUP2 AND DUP3 MSTORE CALLER PUSH1 0x20 DUP1 DUP5 ADD SWAP2 DUP3 MSTORE DUP4 DUP6 ADD DUP9 DUP2 MSTORE PUSH1 0x60 DUP6 ADD DUP9 DUP2 MSTORE PUSH1 0x80 DUP7 ADD DUP11 DUP2 MSTORE PUSH1 0x0 PUSH1 0xA0 DUP9 ADD DUP2 DUP2 MSTORE PUSH1 0x5 DUP1 SLOAD DUP4 MSTORE PUSH1 0x3 SWAP7 DUP8 SWAP1 MSTORE SWAP10 SWAP1 SWAP2 KECCAK256 DUP9 MLOAD DUP2 SLOAD SWAP1 DUP10 AND PUSH1 0x1 PUSH1 0x1 PUSH1 0xA0 SHL SUB NOT SWAP2 DUP3 AND OR DUP3 SSTORE SWAP7 MLOAD PUSH1 0x1 DUP1 DUP4 ADD DUP1 SLOAD SWAP3 SWAP1 SWAP11 AND SWAP2 SWAP1 SWAP9 AND OR SWAP1 SWAP8 SSTORE SWAP3 MLOAD PUSH1 0x2 DUP1 DUP9 ADD SWAP2 SWAP1 SWAP2 SSTORE SWAP2 MLOAD SWAP4 DUP7 ADD SWAP4 SWAP1 SWAP4 SSTORE SWAP2 MLOAD PUSH1 0x4 DUP6 ADD SSTORE MLOAD SWAP5 DUP4 ADD DUP1 SLOAD SWAP5 SWAP6 SWAP4 SWAP5 SWAP1 SWAP3 PUSH1 0xFF NOT SWAP1 SWAP2 AND SWAP2 DUP5 SWAP1 DUP2 GT ISZERO PUSH2 0x2B23 JUMPI PUSH2 0x2B23 PUSH2 0x3659 JUMP JUMPDEST MUL OR SWAP1 SSTORE POP SWAP1 POP POP PUSH2 0x2B36 PUSH1 0x5 SLOAD PUSH2 0x2F79 JUMP JUMPDEST PUSH1 0x1 PUSH1 0x5 PUSH1 0x0 DUP3 DUP3 SLOAD PUSH2 0x2B49 SWAP2 SWAP1 PUSH2 0x3B5C JUMP JUMPDEST SWAP1 SWAP2 SSTORE POP POP PUSH1 0x5 SLOAD PUSH2 0x1148 SWAP1 PUSH1 0x1 SWAP1 PUSH2 0x3B74 JUMP JUMPDEST PUSH1 0x0 JUMPDEST PUSH1 0x5 SLOAD DUP2 PUSH1 0xFF AND LT ISZERO PUSH2 0x2F75 JUMPI PUSH1 0x0 PUSH1 0xFF DUP1 DUP4 AND PUSH1 0x0 SWAP1 DUP2 MSTORE PUSH1 0x3 PUSH1 0x20 MSTORE PUSH1 0x40 SWAP1 KECCAK256 PUSH1 0x5 ADD SLOAD AND PUSH1 0x2 DUP2 GT ISZERO PUSH2 0x2B98 JUMPI PUSH2 0x2B98 PUSH2 0x3659 JUMP JUMPDEST EQ ISZERO PUSH2 0x2F63 JUMPI PUSH1 0x0 DUP3 DUP2 MSTORE PUSH1 0x2 PUSH1 0x20 DUP2 SWAP1 MSTORE PUSH1 0x40 DUP3 KECCAK256 PUSH1 0x5 ADD SLOAD PUSH1 0xFF AND SWAP1 DUP2 GT ISZERO PUSH2 0x2BC5 JUMPI PUSH2 0x2BC5 PUSH2 0x3659 JUMP JUMPDEST EQ ISZERO PUSH2 0x2F63 JUMPI PUSH1 0x0 DUP3 DUP2 MSTORE PUSH1 0x2 PUSH1 0x20 SWAP1 DUP2 MSTORE PUSH1 0x40 DUP1 DUP4 KECCAK256 SLOAD PUSH1 0xFF DUP6 AND DUP5 MSTORE PUSH1 0x3 SWAP1 SWAP3 MSTORE SWAP1 SWAP2 KECCAK256 SLOAD PUSH1 0x1 PUSH1 0x1 PUSH1 0xA0 SHL SUB SWAP1 DUP2 AND SWAP2 AND EQ ISZERO PUSH2 0x2F63 JUMPI PUSH1 0x0 DUP3 DUP2 MSTORE PUSH1 0x2 PUSH1 0x20 SWAP1 DUP2 MSTORE PUSH1 0x40 DUP1 DUP4 KECCAK256 PUSH1 0x3 SWAP1 DUP2 ADD SLOAD PUSH1 0xFF DUP7 AND DUP6 MSTORE SWAP3 DUP2 SWAP1 MSTORE SWAP3 KECCAK256 SWAP1 SWAP2 ADD SLOAD EQ ISZERO PUSH2 0x2F63 JUMPI PUSH1 0xFF DUP2 AND PUSH1 0x0 DUP2 DUP2 MSTORE PUSH1 0x3 PUSH1 0x20 DUP2 DUP2 MSTORE PUSH1 0x40 DUP1 DUP5 KECCAK256 PUSH1 0x1 DUP2 ADD SLOAD DUP9 DUP7 MSTORE PUSH1 0x2 DUP1 DUP6 MSTORE SWAP3 DUP7 KECCAK256 SWAP1 SWAP3 ADD SLOAD SWAP6 DUP6 MSTORE SWAP3 SWAP1 SWAP2 MSTORE PUSH1 0x4 SWAP1 SWAP2 ADD SLOAD PUSH1 0x1 PUSH1 0x1 PUSH1 0xA0 SHL SUB SWAP1 SWAP2 AND SWAP3 GT PUSH2 0x2D1E JUMPI PUSH1 0x0 DUP5 DUP2 MSTORE PUSH1 0x2 PUSH1 0x20 DUP2 DUP2 MSTORE PUSH1 0x40 DUP1 DUP5 KECCAK256 SWAP1 SWAP3 ADD SLOAD PUSH1 0xFF DUP8 AND DUP5 MSTORE PUSH1 0x3 SWAP1 SWAP2 MSTORE SWAP2 KECCAK256 PUSH1 0x4 ADD SLOAD PUSH2 0x2CA3 SWAP2 SWAP1 PUSH2 0x3B74 JUMP JUMPDEST PUSH1 0xFF DUP5 AND PUSH1 0x0 DUP2 DUP2 MSTORE PUSH1 0x3 PUSH1 0x20 DUP2 DUP2 MSTORE PUSH1 0x40 DUP1 DUP5 KECCAK256 PUSH1 0x4 SWAP1 DUP2 ADD SWAP7 DUP8 SSTORE DUP11 DUP6 MSTORE PUSH1 0x2 DUP1 DUP5 MSTORE SWAP2 DUP6 KECCAK256 SWAP2 DUP3 ADD DUP1 SLOAD SWAP2 DUP4 ADD DUP7 SWAP1 SSTORE DUP6 SWAP1 SSTORE PUSH1 0x5 SWAP1 SWAP2 ADD DUP1 SLOAD PUSH1 0xFF NOT AND PUSH1 0x1 OR SWAP1 SSTORE SWAP4 SWAP1 SWAP3 MSTORE SWAP1 MSTORE SWAP1 SLOAD SWAP1 SWAP2 POP PUSH2 0x2D19 JUMPI PUSH1 0xFF DUP4 AND PUSH1 0x0 SWAP1 DUP2 MSTORE PUSH1 0x3 PUSH1 0x20 MSTORE PUSH1 0x40 SWAP1 KECCAK256 PUSH1 0x5 ADD DUP1 SLOAD PUSH1 0xFF NOT AND PUSH1 0x1 OR SWAP1 SSTORE JUMPDEST PUSH2 0x2E0F JUMP JUMPDEST PUSH1 0xFF DUP4 AND PUSH1 0x0 SWAP1 DUP2 MSTORE PUSH1 0x3 PUSH1 0x20 DUP2 SWAP1 MSTORE PUSH1 0x40 SWAP1 SWAP2 KECCAK256 PUSH1 0x4 DUP2 ADD SLOAD SWAP2 ADD SLOAD PUSH2 0x2D45 SWAP2 SWAP1 PUSH2 0x3C01 JUMP JUMPDEST PUSH1 0x0 DUP6 DUP2 MSTORE PUSH1 0x2 PUSH1 0x20 MSTORE PUSH1 0x40 SWAP1 KECCAK256 PUSH1 0x4 ADD SLOAD PUSH2 0x2D61 SWAP2 SWAP1 PUSH2 0x3B74 JUMP JUMPDEST PUSH1 0x0 DUP6 DUP2 MSTORE PUSH1 0x2 PUSH1 0x20 DUP2 DUP2 MSTORE PUSH1 0x40 DUP1 DUP5 KECCAK256 PUSH1 0x4 DUP1 DUP3 ADD SWAP7 SWAP1 SWAP7 SSTORE PUSH1 0xFF DUP10 AND DUP6 MSTORE PUSH1 0x3 DUP4 MSTORE SWAP1 DUP5 KECCAK256 SWAP1 SWAP5 ADD SLOAD SWAP3 DUP9 SWAP1 MSTORE DUP2 SWAP1 MSTORE SWAP2 SWAP1 SWAP2 ADD SLOAD PUSH2 0x2DA2 SWAP2 SWAP1 PUSH2 0x3B74 JUMP JUMPDEST PUSH1 0x0 DUP6 DUP2 MSTORE PUSH1 0x2 PUSH1 0x20 DUP2 DUP2 MSTORE PUSH1 0x40 DUP1 DUP5 KECCAK256 DUP1 DUP5 ADD SWAP6 SWAP1 SWAP6 SSTORE PUSH1 0xFF DUP9 AND DUP5 MSTORE PUSH1 0x3 DUP3 MSTORE DUP4 KECCAK256 PUSH1 0x4 DUP1 DUP3 ADD DUP1 SLOAD SWAP1 DUP7 SWAP1 SSTORE PUSH1 0x5 SWAP1 SWAP3 ADD DUP1 SLOAD PUSH1 0xFF NOT AND PUSH1 0x1 OR SWAP1 SSTORE SWAP4 DUP10 SWAP1 MSTORE SWAP2 SWAP1 MSTORE SWAP2 ADD SLOAD SWAP1 SWAP2 POP PUSH2 0x2E0F JUMPI PUSH1 0x0 DUP5 DUP2 MSTORE PUSH1 0x2 PUSH1 0x20 MSTORE PUSH1 0x40 SWAP1 KECCAK256 PUSH1 0x5 ADD DUP1 SLOAD PUSH1 0xFF NOT AND PUSH1 0x1 OR SWAP1 SSTORE JUMPDEST PUSH1 0x0 DUP5 DUP2 MSTORE PUSH1 0x2 PUSH1 0x20 MSTORE PUSH1 0x40 SWAP1 KECCAK256 PUSH1 0x3 ADD SLOAD PUSH1 0x1 PUSH1 0x1 PUSH1 0xA0 SHL SUB DUP4 AND SWAP1 PUSH2 0x8FC SWAP1 PUSH2 0x2E3B SWAP1 DUP5 SWAP1 PUSH2 0x3C01 JUMP JUMPDEST PUSH1 0x40 MLOAD DUP2 ISZERO SWAP1 SWAP3 MUL SWAP2 PUSH1 0x0 DUP2 DUP2 DUP2 DUP6 DUP9 DUP9 CALL SWAP4 POP POP POP POP ISZERO DUP1 ISZERO PUSH2 0x2E63 JUMPI RETURNDATASIZE PUSH1 0x0 DUP1 RETURNDATACOPY RETURNDATASIZE PUSH1 0x0 REVERT JUMPDEST POP PUSH1 0x0 DUP5 DUP2 MSTORE PUSH1 0x2 PUSH1 0x20 MSTORE PUSH1 0x40 SWAP1 DUP2 SWAP1 KECCAK256 DUP1 SLOAD PUSH1 0x1 SWAP1 SWAP2 ADD SLOAD SWAP2 MLOAD PUSH4 0xA9059CBB PUSH1 0xE0 SHL DUP2 MSTORE PUSH1 0x1 PUSH1 0x1 PUSH1 0xA0 SHL SUB SWAP3 DUP4 AND PUSH1 0x4 DUP3 ADD MSTORE PUSH1 0x24 DUP2 ADD DUP5 SWAP1 MSTORE SWAP2 AND SWAP1 PUSH4 0xA9059CBB SWAP1 PUSH1 0x44 ADD PUSH1 0x20 PUSH1 0x40 MLOAD DUP1 DUP4 SUB DUP2 PUSH1 0x0 DUP8 GAS CALL ISZERO DUP1 ISZERO PUSH2 0x2ECA JUMPI RETURNDATASIZE PUSH1 0x0 DUP1 RETURNDATACOPY RETURNDATASIZE PUSH1 0x0 REVERT JUMPDEST POP POP POP POP PUSH1 0x40 MLOAD RETURNDATASIZE PUSH1 0x1F NOT PUSH1 0x1F DUP3 ADD AND DUP3 ADD DUP1 PUSH1 0x40 MSTORE POP DUP2 ADD SWAP1 PUSH2 0x2EEE SWAP2 SWAP1 PUSH2 0x3AE6 JUMP JUMPDEST POP PUSH1 0x0 DUP5 DUP2 MSTORE PUSH1 0x2 PUSH1 0x20 MSTORE PUSH1 0x40 SWAP1 KECCAK256 DUP1 SLOAD PUSH1 0x3 SWAP1 SWAP2 ADD SLOAD PUSH2 0x2F60 SWAP2 PUSH1 0x1 PUSH1 0x1 PUSH1 0xA0 SHL SUB AND SWAP1 PUSH2 0x2F1E SWAP1 DUP5 SWAP1 PUSH2 0x3C01 JUMP JUMPDEST PUSH1 0x0 DUP8 DUP2 MSTORE PUSH1 0x2 PUSH1 0x20 SWAP1 DUP2 MSTORE PUSH1 0x40 DUP1 DUP4 KECCAK256 PUSH1 0x1 SWAP1 DUP2 ADD SLOAD PUSH1 0xFF DUP12 AND DUP1 DUP7 MSTORE PUSH1 0x3 SWAP1 SWAP5 MSTORE SWAP2 SWAP1 SWAP4 KECCAK256 SWAP1 SWAP3 ADD SLOAD DUP7 SWAP3 DUP11 SWAP3 SWAP2 PUSH1 0x1 PUSH1 0x1 PUSH1 0xA0 SHL SUB SWAP2 DUP3 AND SWAP2 AND PUSH2 0x339E JUMP JUMPDEST POP POP JUMPDEST DUP1 PUSH2 0x2F6D DUP2 PUSH2 0x3AB0 JUMP JUMPDEST SWAP2 POP POP PUSH2 0x2B60 JUMP JUMPDEST POP POP JUMP JUMPDEST PUSH1 0x0 JUMPDEST PUSH1 0x4 SLOAD DUP2 PUSH1 0xFF AND LT ISZERO PUSH2 0x2F75 JUMPI PUSH1 0x0 DUP3 DUP2 MSTORE PUSH1 0x3 PUSH1 0x20 MSTORE PUSH1 0x40 DUP2 KECCAK256 PUSH1 0x5 ADD SLOAD PUSH1 0xFF AND PUSH1 0x2 DUP2 GT ISZERO PUSH2 0x2FAF JUMPI PUSH2 0x2FAF PUSH2 0x3659 JUMP JUMPDEST EQ ISZERO PUSH2 0x338C JUMPI PUSH1 0x0 PUSH1 0xFF DUP1 DUP4 AND PUSH1 0x0 SWAP1 DUP2 MSTORE PUSH1 0x2 PUSH1 0x20 DUP2 SWAP1 MSTORE PUSH1 0x40 SWAP1 SWAP2 KECCAK256 PUSH1 0x5 ADD SLOAD SWAP1 SWAP2 AND SWAP1 DUP2 GT ISZERO PUSH2 0x2FE4 JUMPI PUSH2 0x2FE4 PUSH2 0x3659 JUMP JUMPDEST EQ ISZERO PUSH2 0x338C JUMPI PUSH1 0xFF DUP2 AND PUSH1 0x0 SWAP1 DUP2 MSTORE PUSH1 0x2 PUSH1 0x20 SWAP1 DUP2 MSTORE PUSH1 0x40 DUP1 DUP4 KECCAK256 SLOAD DUP6 DUP5 MSTORE PUSH1 0x3 SWAP1 SWAP3 MSTORE SWAP1 SWAP2 KECCAK256 SLOAD PUSH1 0x1 PUSH1 0x1 PUSH1 0xA0 SHL SUB SWAP1 DUP2 AND SWAP2 AND EQ ISZERO PUSH2 0x338C JUMPI PUSH1 0xFF DUP2 AND PUSH1 0x0 SWAP1 DUP2 MSTORE PUSH1 0x2 PUSH1 0x20 SWAP1 DUP2 MSTORE PUSH1 0x40 DUP1 DUP4 KECCAK256 PUSH1 0x3 SWAP1 DUP2 ADD SLOAD DUP7 DUP6 MSTORE SWAP3 DUP2 SWAP1 MSTORE SWAP3 KECCAK256 SWAP1 SWAP2 ADD SLOAD EQ ISZERO PUSH2 0x338C JUMPI PUSH1 0x0 DUP3 DUP2 MSTORE PUSH1 0x3 PUSH1 0x20 DUP2 DUP2 MSTORE PUSH1 0x40 DUP1 DUP5 KECCAK256 PUSH1 0x1 DUP2 ADD SLOAD PUSH1 0xFF DUP8 AND DUP7 MSTORE PUSH1 0x2 DUP1 DUP6 MSTORE SWAP3 DUP7 KECCAK256 SWAP1 SWAP3 ADD SLOAD DUP8 DUP7 MSTORE SWAP4 SWAP1 SWAP3 MSTORE PUSH1 0x4 SWAP1 SWAP2 ADD SLOAD PUSH1 0x1 PUSH1 0x1 PUSH1 0xA0 SHL SUB SWAP1 SWAP2 AND SWAP3 SWAP2 GT PUSH2 0x313A JUMPI PUSH1 0xFF DUP4 AND PUSH1 0x0 SWAP1 DUP2 MSTORE PUSH1 0x2 PUSH1 0x20 DUP2 DUP2 MSTORE PUSH1 0x40 DUP1 DUP5 KECCAK256 SWAP1 SWAP3 ADD SLOAD DUP8 DUP5 MSTORE PUSH1 0x3 SWAP1 SWAP2 MSTORE SWAP2 KECCAK256 PUSH1 0x4 ADD SLOAD PUSH2 0x30C5 SWAP2 SWAP1 PUSH2 0x3B74 JUMP JUMPDEST PUSH1 0x0 DUP6 DUP2 MSTORE PUSH1 0x3 PUSH1 0x20 DUP2 DUP2 MSTORE PUSH1 0x40 DUP1 DUP5 KECCAK256 PUSH1 0x4 SWAP1 DUP2 ADD SWAP6 DUP7 SSTORE PUSH1 0xFF DUP10 AND DUP6 MSTORE PUSH1 0x2 DUP1 DUP5 MSTORE SWAP2 DUP6 KECCAK256 SWAP2 DUP3 ADD DUP1 SLOAD SWAP2 DUP4 ADD DUP7 SWAP1 SSTORE DUP6 SWAP1 SSTORE PUSH1 0x5 SWAP1 SWAP2 ADD DUP1 SLOAD PUSH1 0xFF NOT AND PUSH1 0x1 OR SWAP1 SSTORE SWAP3 DUP9 SWAP1 MSTORE MSTORE SWAP1 SLOAD SWAP1 SWAP2 POP PUSH2 0x3135 JUMPI PUSH1 0x0 DUP5 DUP2 MSTORE PUSH1 0x3 PUSH1 0x20 MSTORE PUSH1 0x40 SWAP1 KECCAK256 PUSH1 0x5 ADD DUP1 SLOAD PUSH1 0xFF NOT AND PUSH1 0x1 OR SWAP1 SSTORE JUMPDEST PUSH2 0x322E JUMP JUMPDEST PUSH1 0x0 DUP5 DUP2 MSTORE PUSH1 0x3 PUSH1 0x20 DUP2 SWAP1 MSTORE PUSH1 0x40 SWAP1 SWAP2 KECCAK256 PUSH1 0x4 DUP2 ADD SLOAD SWAP2 ADD SLOAD PUSH2 0x315D SWAP2 SWAP1 PUSH2 0x3C01 JUMP JUMPDEST PUSH1 0xFF DUP5 AND PUSH1 0x0 SWAP1 DUP2 MSTORE PUSH1 0x2 PUSH1 0x20 MSTORE PUSH1 0x40 SWAP1 KECCAK256 PUSH1 0x4 ADD SLOAD PUSH2 0x317D SWAP2 SWAP1 PUSH2 0x3B74 JUMP JUMPDEST PUSH1 0xFF DUP5 AND PUSH1 0x0 DUP2 DUP2 MSTORE PUSH1 0x2 PUSH1 0x20 DUP2 DUP2 MSTORE PUSH1 0x40 DUP1 DUP5 KECCAK256 PUSH1 0x4 DUP1 DUP3 ADD SWAP8 SWAP1 SWAP8 SSTORE DUP11 DUP6 MSTORE PUSH1 0x3 DUP4 MSTORE SWAP1 DUP5 KECCAK256 SWAP1 SWAP6 ADD SLOAD SWAP4 SWAP1 SWAP3 MSTORE SWAP1 DUP2 SWAP1 MSTORE SWAP2 SWAP1 SWAP2 ADD SLOAD SWAP1 SWAP2 POP PUSH2 0x31C4 SWAP1 DUP3 SWAP1 PUSH2 0x3B74 JUMP JUMPDEST PUSH1 0xFF DUP5 AND PUSH1 0x0 DUP2 DUP2 MSTORE PUSH1 0x2 PUSH1 0x20 DUP2 DUP2 MSTORE PUSH1 0x40 DUP1 DUP5 KECCAK256 DUP1 DUP5 ADD SWAP7 SWAP1 SWAP7 SSTORE DUP10 DUP5 MSTORE PUSH1 0x3 DUP3 MSTORE DUP4 KECCAK256 PUSH1 0x4 DUP1 DUP3 ADD DUP6 SWAP1 SSTORE PUSH1 0x5 SWAP1 SWAP2 ADD DUP1 SLOAD PUSH1 0xFF NOT AND PUSH1 0x1 OR SWAP1 SSTORE SWAP4 SWAP1 SWAP3 MSTORE SWAP1 MSTORE ADD SLOAD PUSH2 0x322E JUMPI PUSH1 0xFF DUP4 AND PUSH1 0x0 SWAP1 DUP2 MSTORE PUSH1 0x2 PUSH1 0x20 MSTORE PUSH1 0x40 SWAP1 KECCAK256 PUSH1 0x5 ADD DUP1 SLOAD PUSH1 0xFF NOT AND PUSH1 0x1 OR SWAP1 SSTORE JUMPDEST PUSH1 0xFF DUP4 AND PUSH1 0x0 SWAP1 DUP2 MSTORE PUSH1 0x2 PUSH1 0x20 MSTORE PUSH1 0x40 SWAP1 KECCAK256 PUSH1 0x3 ADD SLOAD PUSH1 0x1 PUSH1 0x1 PUSH1 0xA0 SHL SUB DUP4 AND SWAP1 PUSH2 0x8FC SWAP1 PUSH2 0x325E SWAP1 DUP5 SWAP1 PUSH2 0x3C01 JUMP JUMPDEST PUSH1 0x40 MLOAD DUP2 ISZERO SWAP1 SWAP3 MUL SWAP2 PUSH1 0x0 DUP2 DUP2 DUP2 DUP6 DUP9 DUP9 CALL SWAP4 POP POP POP POP ISZERO DUP1 ISZERO PUSH2 0x3286 JUMPI RETURNDATASIZE PUSH1 0x0 DUP1 RETURNDATACOPY RETURNDATASIZE PUSH1 0x0 REVERT JUMPDEST POP PUSH1 0xFF DUP4 AND PUSH1 0x0 SWAP1 DUP2 MSTORE PUSH1 0x2 PUSH1 0x20 MSTORE PUSH1 0x40 SWAP1 DUP2 SWAP1 KECCAK256 DUP1 SLOAD PUSH1 0x1 SWAP1 SWAP2 ADD SLOAD SWAP2 MLOAD PUSH4 0xA9059CBB PUSH1 0xE0 SHL DUP2 MSTORE PUSH1 0x1 PUSH1 0x1 PUSH1 0xA0 SHL SUB SWAP3 DUP4 AND PUSH1 0x4 DUP3 ADD MSTORE PUSH1 0x24 DUP2 ADD DUP5 SWAP1 MSTORE SWAP2 AND SWAP1 PUSH4 0xA9059CBB SWAP1 PUSH1 0x44 ADD PUSH1 0x20 PUSH1 0x40 MLOAD DUP1 DUP4 SUB DUP2 PUSH1 0x0 DUP8 GAS CALL ISZERO DUP1 ISZERO PUSH2 0x32F1 JUMPI RETURNDATASIZE PUSH1 0x0 DUP1 RETURNDATACOPY RETURNDATASIZE PUSH1 0x0 REVERT JUMPDEST POP POP POP POP PUSH1 0x40 MLOAD RETURNDATASIZE PUSH1 0x1F NOT PUSH1 0x1F DUP3 ADD AND DUP3 ADD DUP1 PUSH1 0x40 MSTORE POP DUP2 ADD SWAP1 PUSH2 0x3315 SWAP2 SWAP1 PUSH2 0x3AE6 JUMP JUMPDEST POP PUSH1 0xFF DUP4 AND PUSH1 0x0 SWAP1 DUP2 MSTORE PUSH1 0x2 PUSH1 0x20 MSTORE PUSH1 0x40 SWAP1 KECCAK256 DUP1 SLOAD PUSH1 0x3 SWAP1 SWAP2 ADD SLOAD PUSH2 0x3389 SWAP2 PUSH1 0x1 PUSH1 0x1 PUSH1 0xA0 SHL SUB AND SWAP1 PUSH2 0x3349 SWAP1 DUP5 SWAP1 PUSH2 0x3C01 JUMP JUMPDEST PUSH1 0xFF DUP7 AND PUSH1 0x0 DUP2 DUP2 MSTORE PUSH1 0x2 PUSH1 0x20 SWAP1 DUP2 MSTORE PUSH1 0x40 DUP1 DUP4 KECCAK256 PUSH1 0x1 SWAP1 DUP2 ADD SLOAD DUP13 DUP6 MSTORE PUSH1 0x3 SWAP1 SWAP4 MSTORE SWAP3 KECCAK256 SWAP1 SWAP2 ADD SLOAD DUP7 SWAP3 SWAP2 DUP11 SWAP2 PUSH1 0x1 PUSH1 0x1 PUSH1 0xA0 SHL SUB SWAP2 DUP3 AND SWAP2 AND PUSH2 0x339E JUMP JUMPDEST POP POP JUMPDEST DUP1 PUSH2 0x3396 DUP2 PUSH2 0x3AB0 JUMP JUMPDEST SWAP2 POP POP PUSH2 0x2F7C JUMP JUMPDEST PUSH1 0x1 DUP1 SLOAD PUSH1 0x0 SWAP1 DUP2 MSTORE PUSH1 0x20 DUP2 SWAP1 MSTORE PUSH1 0x40 DUP1 DUP3 KECCAK256 DUP1 SLOAD PUSH1 0x1 PUSH1 0x1 PUSH1 0xA0 SHL SUB DUP1 DUP14 AND PUSH1 0x1 PUSH1 0x1 PUSH1 0xA0 SHL SUB NOT SWAP3 DUP4 AND OR SWAP1 SWAP3 SSTORE DUP5 SLOAD DUP5 MSTORE DUP3 DUP5 KECCAK256 DUP6 ADD DUP12 SWAP1 SSTORE DUP5 SLOAD DUP5 MSTORE DUP3 DUP5 KECCAK256 PUSH1 0x2 ADD DUP11 SWAP1 SSTORE DUP5 SLOAD DUP5 MSTORE DUP3 DUP5 KECCAK256 TIMESTAMP PUSH1 0x7 SWAP1 SWAP2 ADD SSTORE DUP5 SLOAD DUP5 MSTORE DUP3 DUP5 KECCAK256 PUSH1 0x3 ADD DUP10 SWAP1 SSTORE DUP5 SLOAD DUP5 MSTORE DUP3 DUP5 KECCAK256 PUSH1 0x4 ADD DUP9 SWAP1 SSTORE DUP5 SLOAD DUP5 MSTORE DUP3 DUP5 KECCAK256 PUSH1 0x5 ADD DUP1 SLOAD DUP9 DUP5 AND SWAP1 DUP4 AND OR SWAP1 SSTORE DUP5 SLOAD DUP5 MSTORE SWAP2 DUP4 KECCAK256 PUSH1 0x6 ADD DUP1 SLOAD SWAP2 DUP7 AND SWAP2 SWAP1 SWAP3 AND OR SWAP1 SSTORE DUP2 SLOAD SWAP2 SWAP1 PUSH2 0x3447 DUP4 PUSH2 0x3A95 JUMP JUMPDEST SWAP2 SWAP1 POP SSTORE POP POP POP POP POP POP POP POP JUMP JUMPDEST DUP3 DUP1 SLOAD PUSH2 0x3461 SWAP1 PUSH2 0x3B8B JUMP JUMPDEST SWAP1 PUSH1 0x0 MSTORE PUSH1 0x20 PUSH1 0x0 KECCAK256 SWAP1 PUSH1 0x1F ADD PUSH1 0x20 SWAP1 DIV DUP2 ADD SWAP3 DUP3 PUSH2 0x3483 JUMPI PUSH1 0x0 DUP6 SSTORE PUSH2 0x34C9 JUMP JUMPDEST DUP3 PUSH1 0x1F LT PUSH2 0x349C JUMPI DUP1 MLOAD PUSH1 0xFF NOT AND DUP4 DUP1 ADD OR DUP6 SSTORE PUSH2 0x34C9 JUMP JUMPDEST DUP3 DUP1 ADD PUSH1 0x1 ADD DUP6 SSTORE DUP3 ISZERO PUSH2 0x34C9 JUMPI SWAP2 DUP3 ADD JUMPDEST DUP3 DUP2 GT ISZERO PUSH2 0x34C9 JUMPI DUP3 MLOAD DUP3 SSTORE SWAP2 PUSH1 0x20 ADD SWAP2 SWAP1 PUSH1 0x1 ADD SWAP1 PUSH2 0x34AE JUMP JUMPDEST POP PUSH2 0x34D5 SWAP3 SWAP2 POP PUSH2 0x34D9 JUMP JUMPDEST POP SWAP1 JUMP JUMPDEST JUMPDEST DUP1 DUP3 GT ISZERO PUSH2 0x34D5 JUMPI PUSH1 0x0 DUP2 SSTORE PUSH1 0x1 ADD PUSH2 0x34DA JUMP JUMPDEST DUP1 CALLDATALOAD PUSH1 0x1 PUSH1 0x1 PUSH1 0xA0 SHL SUB DUP2 AND DUP2 EQ PUSH2 0x3505 JUMPI PUSH1 0x0 DUP1 REVERT JUMPDEST SWAP2 SWAP1 POP JUMP JUMPDEST PUSH1 0x0 PUSH1 0x20 DUP3 DUP5 SUB SLT ISZERO PUSH2 0x351C JUMPI PUSH1 0x0 DUP1 REVERT JUMPDEST PUSH2 0x3525 DUP3 PUSH2 0x34EE JUMP JUMPDEST SWAP4 SWAP3 POP POP POP JUMP JUMPDEST PUSH1 0x0 DUP2 MLOAD DUP1 DUP5 MSTORE PUSH1 0x20 DUP1 DUP6 ADD SWAP5 POP DUP1 DUP5 ADD PUSH1 0x0 JUMPDEST DUP4 DUP2 LT ISZERO PUSH2 0x355C JUMPI DUP2 MLOAD DUP8 MSTORE SWAP6 DUP3 ADD SWAP6 SWAP1 DUP3 ADD SWAP1 PUSH1 0x1 ADD PUSH2 0x3540 JUMP JUMPDEST POP SWAP5 SWAP6 SWAP5 POP POP POP POP POP JUMP JUMPDEST PUSH1 0x0 DUP2 MLOAD DUP1 DUP5 MSTORE PUSH1 0x20 DUP1 DUP6 ADD SWAP5 POP DUP1 DUP5 ADD PUSH1 0x0 JUMPDEST DUP4 DUP2 LT ISZERO PUSH2 0x355C JUMPI DUP2 MLOAD PUSH1 0x1 PUSH1 0x1 PUSH1 0xA0 SHL SUB AND DUP8 MSTORE SWAP6 DUP3 ADD SWAP6 SWAP1 DUP3 ADD SWAP1 PUSH1 0x1 ADD PUSH2 0x357B JUMP JUMPDEST PUSH1 0xA0 DUP2 MSTORE PUSH1 0x0 PUSH2 0x35B3 PUSH1 0xA0 DUP4 ADD DUP9 PUSH2 0x352C JUMP JUMPDEST DUP3 DUP2 SUB PUSH1 0x20 DUP5 ADD MSTORE PUSH2 0x35C5 DUP2 DUP9 PUSH2 0x352C JUMP JUMPDEST SWAP1 POP DUP3 DUP2 SUB PUSH1 0x40 DUP5 ADD MSTORE PUSH2 0x35D9 DUP2 DUP8 PUSH2 0x352C JUMP JUMPDEST SWAP1 POP DUP3 DUP2 SUB PUSH1 0x60 DUP5 ADD MSTORE PUSH2 0x35ED DUP2 DUP7 PUSH2 0x3567 JUMP JUMPDEST SWAP1 POP DUP3 DUP2 SUB PUSH1 0x80 DUP5 ADD MSTORE PUSH2 0x3601 DUP2 DUP6 PUSH2 0x3567 JUMP JUMPDEST SWAP9 SWAP8 POP POP POP POP POP POP POP POP JUMP JUMPDEST PUSH1 0x0 PUSH1 0x20 DUP3 DUP5 SUB SLT ISZERO PUSH2 0x361F JUMPI PUSH1 0x0 DUP1 REVERT JUMPDEST POP CALLDATALOAD SWAP2 SWAP1 POP JUMP JUMPDEST PUSH1 0x0 DUP1 PUSH1 0x40 DUP4 DUP6 SUB SLT ISZERO PUSH2 0x3639 JUMPI PUSH1 0x0 DUP1 REVERT JUMPDEST PUSH2 0x3642 DUP4 PUSH2 0x34EE JUMP JUMPDEST SWAP2 POP PUSH2 0x3650 PUSH1 0x20 DUP5 ADD PUSH2 0x34EE JUMP JUMPDEST SWAP1 POP SWAP3 POP SWAP3 SWAP1 POP JUMP JUMPDEST PUSH4 0x4E487B71 PUSH1 0xE0 SHL PUSH1 0x0 MSTORE PUSH1 0x21 PUSH1 0x4 MSTORE PUSH1 0x24 PUSH1 0x0 REVERT JUMPDEST PUSH1 0xC0 DUP2 MSTORE PUSH1 0x0 PUSH2 0x3682 PUSH1 0xC0 DUP4 ADD DUP10 PUSH2 0x3567 JUMP JUMPDEST PUSH1 0x20 DUP4 DUP3 SUB DUP2 DUP6 ADD MSTORE PUSH2 0x3695 DUP3 DUP11 PUSH2 0x352C JUMP JUMPDEST SWAP2 POP DUP4 DUP3 SUB PUSH1 0x40 DUP6 ADD MSTORE PUSH2 0x36A9 DUP3 DUP10 PUSH2 0x352C JUMP JUMPDEST SWAP2 POP DUP4 DUP3 SUB PUSH1 0x60 DUP6 ADD MSTORE PUSH2 0x36BD DUP3 DUP9 PUSH2 0x352C JUMP JUMPDEST DUP5 DUP2 SUB PUSH1 0x80 DUP7 ADD MSTORE DUP7 MLOAD DUP1 DUP3 MSTORE DUP3 DUP9 ADD SWAP4 POP SWAP1 DUP3 ADD SWAP1 PUSH1 0x0 DUP1 JUMPDEST DUP3 DUP2 LT ISZERO PUSH2 0x370F JUMPI DUP6 MLOAD PUSH1 0x3 DUP2 LT PUSH2 0x36FD JUMPI PUSH4 0x4E487B71 PUSH1 0xE0 SHL DUP4 MSTORE PUSH1 0x21 PUSH1 0x4 MSTORE PUSH1 0x24 DUP4 REVERT JUMPDEST DUP5 MSTORE SWAP5 DUP5 ADD SWAP5 SWAP3 DUP5 ADD SWAP3 PUSH1 0x1 ADD PUSH2 0x36D7 JUMP JUMPDEST POP POP POP DUP5 DUP2 SUB PUSH1 0xA0 DUP7 ADD MSTORE PUSH2 0x3724 DUP2 DUP8 PUSH2 0x352C JUMP JUMPDEST SWAP12 SWAP11 POP POP POP POP POP POP POP POP POP POP POP JUMP JUMPDEST PUSH1 0x0 DUP1 PUSH1 0x40 DUP4 DUP6 SUB SLT ISZERO PUSH2 0x3746 JUMPI PUSH1 0x0 DUP1 REVERT JUMPDEST PUSH2 0x374F DUP4 PUSH2 0x34EE JUMP JUMPDEST SWAP5 PUSH1 0x20 SWAP4 SWAP1 SWAP4 ADD CALLDATALOAD SWAP4 POP POP POP JUMP JUMPDEST PUSH1 0x0 DUP1 PUSH1 0x0 PUSH1 0x60 DUP5 DUP7 SUB SLT ISZERO PUSH2 0x3772 JUMPI PUSH1 0x0 DUP1 REVERT JUMPDEST PUSH2 0x377B DUP5 PUSH2 0x34EE JUMP JUMPDEST SWAP6 PUSH1 0x20 DUP6 ADD CALLDATALOAD SWAP6 POP PUSH1 0x40 SWAP1 SWAP5 ADD CALLDATALOAD SWAP4 SWAP3 POP POP POP JUMP JUMPDEST PUSH1 0x20 DUP2 MSTORE PUSH1 0x0 PUSH2 0x3525 PUSH1 0x20 DUP4 ADD DUP5 PUSH2 0x3567 JUMP JUMPDEST PUSH4 0x4E487B71 PUSH1 0xE0 SHL PUSH1 0x0 MSTORE PUSH1 0x41 PUSH1 0x4 MSTORE PUSH1 0x24 PUSH1 0x0 REVERT JUMPDEST PUSH1 0x0 DUP3 PUSH1 0x1F DUP4 ADD SLT PUSH2 0x37CA JUMPI PUSH1 0x0 DUP1 REVERT JUMPDEST DUP2 CALLDATALOAD PUSH1 0x1 PUSH1 0x1 PUSH1 0x40 SHL SUB DUP1 DUP3 GT ISZERO PUSH2 0x37E4 JUMPI PUSH2 0x37E4 PUSH2 0x37A3 JUMP JUMPDEST PUSH1 0x40 MLOAD PUSH1 0x1F DUP4 ADD PUSH1 0x1F NOT SWAP1 DUP2 AND PUSH1 0x3F ADD AND DUP2 ADD SWAP1 DUP3 DUP3 GT DUP2 DUP4 LT OR ISZERO PUSH2 0x380C JUMPI PUSH2 0x380C PUSH2 0x37A3 JUMP JUMPDEST DUP2 PUSH1 0x40 MSTORE DUP4 DUP2 MSTORE DUP7 PUSH1 0x20 DUP6 DUP9 ADD ADD GT ISZERO PUSH2 0x3825 JUMPI PUSH1 0x0 DUP1 REVERT JUMPDEST DUP4 PUSH1 0x20 DUP8 ADD PUSH1 0x20 DUP4 ADD CALLDATACOPY PUSH1 0x0 PUSH1 0x20 DUP6 DUP4 ADD ADD MSTORE DUP1 SWAP5 POP POP POP POP POP SWAP3 SWAP2 POP POP JUMP JUMPDEST PUSH1 0x0 PUSH1 0x20 DUP3 DUP5 SUB SLT ISZERO PUSH2 0x3857 JUMPI PUSH1 0x0 DUP1 REVERT JUMPDEST DUP2 CALLDATALOAD PUSH1 0x1 PUSH1 0x1 PUSH1 0x40 SHL SUB DUP2 GT ISZERO PUSH2 0x386D JUMPI PUSH1 0x0 DUP1 REVERT JUMPDEST PUSH2 0x1148 DUP5 DUP3 DUP6 ADD PUSH2 0x37B9 JUMP JUMPDEST PUSH1 0x0 JUMPDEST DUP4 DUP2 LT ISZERO PUSH2 0x3894 JUMPI DUP2 DUP2 ADD MLOAD DUP4 DUP3 ADD MSTORE PUSH1 0x20 ADD PUSH2 0x387C JUMP JUMPDEST DUP4 DUP2 GT ISZERO PUSH2 0x38A3 JUMPI PUSH1 0x0 DUP5 DUP5 ADD MSTORE JUMPDEST POP POP POP POP JUMP JUMPDEST PUSH1 0x0 PUSH1 0x20 DUP1 DUP4 ADD DUP2 DUP5 MSTORE DUP1 DUP6 MLOAD DUP1 DUP4 MSTORE PUSH1 0x40 DUP7 ADD SWAP2 POP PUSH1 0x40 DUP2 PUSH1 0x5 SHL DUP8 ADD ADD SWAP3 POP DUP4 DUP8 ADD PUSH1 0x0 JUMPDEST DUP3 DUP2 LT ISZERO PUSH2 0x3916 JUMPI DUP8 DUP6 SUB PUSH1 0x3F NOT ADD DUP5 MSTORE DUP2 MLOAD DUP1 MLOAD DUP1 DUP8 MSTORE PUSH2 0x38F7 DUP2 DUP10 DUP10 ADD DUP11 DUP6 ADD PUSH2 0x3879 JUMP JUMPDEST PUSH1 0x1F ADD PUSH1 0x1F NOT AND SWAP6 SWAP1 SWAP6 ADD DUP7 ADD SWAP5 POP SWAP3 DUP6 ADD SWAP3 SWAP1 DUP6 ADD SWAP1 PUSH1 0x1 ADD PUSH2 0x38D0 JUMP JUMPDEST POP SWAP3 SWAP8 SWAP7 POP POP POP POP POP POP POP JUMP JUMPDEST PUSH1 0x40 DUP2 MSTORE PUSH1 0x0 PUSH2 0x3936 PUSH1 0x40 DUP4 ADD DUP6 PUSH2 0x3567 JUMP JUMPDEST DUP3 DUP2 SUB PUSH1 0x20 DUP5 DUP2 ADD SWAP2 SWAP1 SWAP2 MSTORE DUP5 MLOAD DUP1 DUP4 MSTORE DUP6 DUP3 ADD SWAP3 DUP3 ADD SWAP1 PUSH1 0x0 JUMPDEST DUP2 DUP2 LT ISZERO PUSH2 0x396F JUMPI DUP5 MLOAD ISZERO ISZERO DUP4 MSTORE SWAP4 DUP4 ADD SWAP4 SWAP2 DUP4 ADD SWAP2 PUSH1 0x1 ADD PUSH2 0x3951 JUMP JUMPDEST POP SWAP1 SWAP8 SWAP7 POP POP POP POP POP POP POP JUMP JUMPDEST PUSH1 0x80 DUP2 MSTORE PUSH1 0x0 PUSH2 0x398F PUSH1 0x80 DUP4 ADD DUP8 PUSH2 0x352C JUMP JUMPDEST DUP3 DUP2 SUB PUSH1 0x20 DUP5 ADD MSTORE PUSH2 0x39A1 DUP2 DUP8 PUSH2 0x352C JUMP JUMPDEST SWAP1 POP DUP3 DUP2 SUB PUSH1 0x40 DUP5 ADD MSTORE PUSH2 0x39B5 DUP2 DUP7 PUSH2 0x352C JUMP JUMPDEST SWAP1 POP DUP3 DUP2 SUB PUSH1 0x60 DUP5 ADD MSTORE PUSH2 0x39C9 DUP2 DUP6 PUSH2 0x352C JUMP JUMPDEST SWAP8 SWAP7 POP POP POP POP POP POP POP JUMP JUMPDEST DUP1 ISZERO ISZERO DUP2 EQ PUSH2 0x39E2 JUMPI PUSH1 0x0 DUP1 REVERT JUMPDEST POP JUMP JUMPDEST PUSH1 0x0 DUP1 PUSH1 0x40 DUP4 DUP6 SUB SLT ISZERO PUSH2 0x39F8 JUMPI PUSH1 0x0 DUP1 REVERT JUMPDEST PUSH2 0x3A01 DUP4 PUSH2 0x34EE JUMP JUMPDEST SWAP2 POP PUSH1 0x20 DUP4 ADD CALLDATALOAD PUSH2 0x3A11 DUP2 PUSH2 0x39D4 JUMP JUMPDEST DUP1 SWAP2 POP POP SWAP3 POP SWAP3 SWAP1 POP JUMP JUMPDEST PUSH1 0x0 DUP1 PUSH1 0x40 DUP4 DUP6 SUB SLT ISZERO PUSH2 0x3A2F JUMPI PUSH1 0x0 DUP1 REVERT JUMPDEST DUP3 CALLDATALOAD PUSH1 0x1 PUSH1 0x1 PUSH1 0x40 SHL SUB DUP1 DUP3 GT ISZERO PUSH2 0x3A46 JUMPI PUSH1 0x0 DUP1 REVERT JUMPDEST PUSH2 0x3A52 DUP7 DUP4 DUP8 ADD PUSH2 0x37B9 JUMP JUMPDEST SWAP4 POP PUSH1 0x20 DUP6 ADD CALLDATALOAD SWAP2 POP DUP1 DUP3 GT ISZERO PUSH2 0x3A68 JUMPI PUSH1 0x0 DUP1 REVERT JUMPDEST POP PUSH2 0x3A75 DUP6 DUP3 DUP7 ADD PUSH2 0x37B9 JUMP JUMPDEST SWAP2 POP POP SWAP3 POP SWAP3 SWAP1 POP JUMP JUMPDEST PUSH4 0x4E487B71 PUSH1 0xE0 SHL PUSH1 0x0 MSTORE PUSH1 0x11 PUSH1 0x4 MSTORE PUSH1 0x24 PUSH1 0x0 REVERT JUMPDEST PUSH1 0x0 PUSH1 0x0 NOT DUP3 EQ ISZERO PUSH2 0x3AA9 JUMPI PUSH2 0x3AA9 PUSH2 0x3A7F JUMP JUMPDEST POP PUSH1 0x1 ADD SWAP1 JUMP JUMPDEST PUSH1 0x0 PUSH1 0xFF DUP3 AND PUSH1 0xFF DUP2 EQ ISZERO PUSH2 0x3AC7 JUMPI PUSH2 0x3AC7 PUSH2 0x3A7F JUMP JUMPDEST PUSH1 0x1 ADD SWAP3 SWAP2 POP POP JUMP JUMPDEST PUSH4 0x4E487B71 PUSH1 0xE0 SHL PUSH1 0x0 MSTORE PUSH1 0x32 PUSH1 0x4 MSTORE PUSH1 0x24 PUSH1 0x0 REVERT JUMPDEST PUSH1 0x0 PUSH1 0x20 DUP3 DUP5 SUB SLT ISZERO PUSH2 0x3AF8 JUMPI PUSH1 0x0 DUP1 REVERT JUMPDEST DUP2 MLOAD PUSH2 0x3525 DUP2 PUSH2 0x39D4 JUMP JUMPDEST PUSH1 0x20 DUP1 DUP3 MSTORE PUSH1 0x18 SWAP1 DUP3 ADD MSTORE PUSH32 0x73686172652076616C75652063616E206E6F7420626520300000000000000000 PUSH1 0x40 DUP3 ADD MSTORE PUSH1 0x60 ADD SWAP1 JUMP JUMPDEST PUSH1 0x0 DUP3 PUSH2 0x3B57 JUMPI PUSH4 0x4E487B71 PUSH1 0xE0 SHL PUSH1 0x0 MSTORE PUSH1 0x12 PUSH1 0x4 MSTORE PUSH1 0x24 PUSH1 0x0 REVERT JUMPDEST POP DIV SWAP1 JUMP JUMPDEST PUSH1 0x0 DUP3 NOT DUP3 GT ISZERO PUSH2 0x3B6F JUMPI PUSH2 0x3B6F PUSH2 0x3A7F JUMP JUMPDEST POP ADD SWAP1 JUMP JUMPDEST PUSH1 0x0 DUP3 DUP3 LT ISZERO PUSH2 0x3B86 JUMPI PUSH2 0x3B86 PUSH2 0x3A7F JUMP JUMPDEST POP SUB SWAP1 JUMP JUMPDEST PUSH1 0x1 DUP2 DUP2 SHR SWAP1 DUP3 AND DUP1 PUSH2 0x3B9F JUMPI PUSH1 0x7F DUP3 AND SWAP2 POP JUMPDEST PUSH1 0x20 DUP3 LT DUP2 EQ ISZERO PUSH2 0x1502 JUMPI PUSH4 0x4E487B71 PUSH1 0xE0 SHL PUSH1 0x0 MSTORE PUSH1 0x22 PUSH1 0x4 MSTORE PUSH1 0x24 PUSH1 0x0 REVERT JUMPDEST PUSH1 0x0 PUSH1 0xFF DUP3 AND PUSH1 0xFF DUP5 AND DUP1 PUSH1 0xFF SUB DUP3 GT ISZERO PUSH2 0x3BDD JUMPI PUSH2 0x3BDD PUSH2 0x3A7F JUMP JUMPDEST ADD SWAP4 SWAP3 POP POP POP JUMP JUMPDEST PUSH1 0x0 DUP3 MLOAD PUSH2 0x3BF7 DUP2 DUP5 PUSH1 0x20 DUP8 ADD PUSH2 0x3879 JUMP JUMPDEST SWAP2 SWAP1 SWAP2 ADD SWAP3 SWAP2 POP POP JUMP JUMPDEST PUSH1 0x0 DUP2 PUSH1 0x0 NOT DIV DUP4 GT DUP3 ISZERO ISZERO AND ISZERO PUSH2 0x3C1B JUMPI PUSH2 0x3C1B PUSH2 0x3A7F JUMP JUMPDEST POP MUL SWAP1 JUMP INVALID LOG2 PUSH5 0x6970667358 0x22 SLT KECCAK256 LOG2 0xCC 0xBA SGT CODECOPY SLOAD 0xC0 0x29 0xD7 GASLIMIT 0xF6 0xC3 DUP6 CALLER 0xAF STATICCALL 0xE4 0xEB 0xB4 0x5E SLT 0xCB RETURNDATASIZE 0xC7 ADDRESS 0xC6 0x4B JUMP 0xD5 0xD0 PUSH22 0x7264736F6C634300080B003300000000000000000000 ","sha1":"75e18e3249bf866f5cba24935896fffcf84e935b","source":"// SPDX-License-Identifier: MIT\n// Gallery of solid state contracts\n\npragma solidity ^0.8.0;\npragma abicoder v2;\n\nimport \"@openzeppelin/contracts/token/ERC20/IERC20.sol\";\n\ncontract SolidStateGallery {\n    struct buyOrder {\n        address artworkAddress;\n        address orderOwner;\n        uint256 shareValue;\n        uint256 ethValue;\n        uint256 balance;\n        OrderState state;\n    }\n    struct sellOrder {\n        address artworkAddress;\n        address orderOwner;\n        uint256 shareValue;\n        uint256 ethValue;\n        uint256 balance;\n        OrderState state;\n    }\n\n    enum OrderState {\n        OPEN,\n        CLOSED,\n        CANCELLED\n    }\n    struct transaction {\n        address artwork;\n        uint256 eth;\n        uint256 share;\n        uint256 buyId;\n        uint256 sellId;\n        address buyer;\n        address seller;\n        uint256 timestamp;\n    }\n\n    mapping(uint256 => transaction) private transactions;\n    uint256 transactionCount = 0;\n\n    mapping(uint256 => buyOrder) private buyOrders;\n    mapping(uint256 => sellOrder) private sellOrders;\n    uint256 buyOrderCount = 0;\n    uint256 sellOrderCount = 0;\n\n    mapping(uint256 => address) private artWorkContracts;\n    mapping(uint256 => string) private artWorkCollections;\n    mapping(uint256 => uint256) private artWorkCollection;\n    mapping(address => bool) private artWorkVisibility;\n    uint256 private artWorkCount;\n    uint256 private collectionCount;\n    address[] private owners;\n    uint256 ownerCount;\n\n    struct allArtworks {\n        address contractAddress;\n        bool visibilty;\n    }\n\n    modifier onlyOwner() {\n        require(msg.sender == owners[ownerCount]);\n        _;\n    }\n\n    constructor() {\n        owners.push(msg.sender);\n        artWorkCount = 0;\n        ownerCount = 0;\n        collectionCount = 0;\n    }\n\n    function addArtWork(address _artWorkAddress, uint256 _collectionId)\n        public\n        onlyOwner\n    {\n        for (\n            uint256 artWorkIndex = 0;\n            artWorkIndex < artWorkCount;\n            artWorkIndex++\n        ) {\n            require(\n                artWorkContracts[artWorkIndex] != _artWorkAddress,\n                \"Art work already added\"\n            );\n        }\n        artWorkContracts[artWorkCount] = _artWorkAddress;\n        artWorkCollection[artWorkCount] = _collectionId;\n        artWorkVisibility[_artWorkAddress] = false;\n        artWorkCount++;\n    }\n\n    function addCollection(string memory _collectionName) public onlyOwner {\n        for (\n            uint256 collectionIndex = 0;\n            collectionIndex < collectionCount;\n            collectionIndex++\n        ) {\n            require(\n                compareStrings(\n                    artWorkCollections[collectionIndex],\n                    _collectionName\n                ) == false,\n                \"Collection is already added\"\n            );\n        }\n        artWorkCollections[collectionCount] = _collectionName;\n\n        collectionCount++;\n    }\n\n    function getCollectionIdByName(string memory _collectionName)\n        public\n        view\n        returns (uint256)\n    {\n        bool isName = false;\n        for (\n            uint256 collectionIndex = 0;\n            collectionIndex < collectionCount;\n            collectionIndex++\n        ) {\n            if (\n                compareStrings(\n                    artWorkCollections[collectionIndex],\n                    _collectionName\n                ) == true\n            ) {\n                return collectionIndex;\n            }\n        }\n        require(isName == true, \"No Collection By That Name\");\n        return 0;\n    }\n\n    function compareStrings(string memory a, string memory b)\n        public\n        pure\n        returns (bool)\n    {\n        return (keccak256(abi.encodePacked((a))) ==\n            keccak256(abi.encodePacked((b))));\n    }\n\n    function getCollections() public view returns (string[] memory) {\n        string[] memory collections = new string[](collectionCount);\n        for (\n            uint256 collectionIndex = 0;\n            collectionIndex < collectionCount;\n            collectionIndex++\n        ) {\n            collections[collectionIndex] = artWorkCollections[collectionIndex];\n        }\n        return collections;\n    }\n\n    function getAllArtWorksByCollectionId(uint256 _Id)\n        public\n        view\n        returns (address[] memory, bool[] memory)\n    {\n        uint256 count = 0;\n        for (\n            uint256 artWorkIndex = 0;\n            artWorkIndex < artWorkCount;\n            artWorkIndex++\n        ) {\n            if (artWorkCollection[artWorkIndex] == _Id) {\n                count++;\n            }\n        }\n        address[] memory contracts = new address[](count);\n        bool[] memory visibility = new bool[](count);\n        count = 0;\n        for (\n            uint256 artWorkIndex = 0;\n            artWorkIndex < artWorkCount;\n            artWorkIndex++\n        ) {\n            if (artWorkCollection[artWorkIndex] == _Id) {\n                contracts[count] = artWorkContracts[artWorkIndex];\n                visibility[count] = artWorkVisibility[\n                    artWorkContracts[artWorkIndex]\n                ];\n                count++;\n            }\n        }\n        return (contracts, visibility);\n    }\n\n    function getArtWorksByCollectionId(uint256 _Id)\n        public\n        view\n        returns (address[] memory)\n    {\n        uint256 count = 0;\n        for (\n            uint256 artWorkIndex = 0;\n            artWorkIndex < artWorkCount;\n            artWorkIndex++\n        ) {\n            if (artWorkVisibility[artWorkContracts[artWorkIndex]] == true) {\n                if (artWorkCollection[artWorkIndex] == _Id) {\n                    count++;\n                }\n            }\n        }\n        address[] memory contracts = new address[](count);\n        count = 0;\n        for (\n            uint256 artWorkIndex = 0;\n            artWorkIndex < artWorkCount;\n            artWorkIndex++\n        ) {\n            if (artWorkVisibility[artWorkContracts[artWorkIndex]] == true) {\n                if (artWorkCollection[artWorkIndex] == _Id) {\n                    contracts[count] = artWorkContracts[artWorkIndex];\n                    count++;\n                }\n            }\n        }\n        return contracts;\n    }\n\n    function getAllArtWorks()\n        public\n        view\n        returns (address[] memory, bool[] memory)\n    {\n        address[] memory contracts = new address[](artWorkCount);\n        bool[] memory visibility = new bool[](artWorkCount);\n        for (\n            uint256 artWorkIndex = 0;\n            artWorkIndex < artWorkCount;\n            artWorkIndex++\n        ) {\n            contracts[artWorkIndex] = artWorkContracts[artWorkIndex];\n            visibility[artWorkIndex] = artWorkVisibility[\n                artWorkContracts[artWorkIndex]\n            ];\n        }\n        return (contracts, visibility);\n    }\n\n    function getArtWorks() public view returns (address[] memory) {\n        uint256 count = 0;\n        for (\n            uint256 artWorkIndex = 0;\n            artWorkIndex < artWorkCount;\n            artWorkIndex++\n        ) {\n            if (artWorkVisibility[artWorkContracts[artWorkIndex]] == true) {\n                count++;\n            }\n        }\n        address[] memory contracts = new address[](count);\n        count = 0;\n        for (\n            uint256 artWorkIndex = 0;\n            artWorkIndex < artWorkCount;\n            artWorkIndex++\n        ) {\n            if (artWorkVisibility[artWorkContracts[artWorkIndex]] == true) {\n                contracts[count] = artWorkContracts[artWorkIndex];\n                count++;\n            }\n        }\n        return contracts;\n    }\n\n    function setArtWorkVisibility(\n        address _artWorkContractAddress,\n        bool _visibility\n    ) public onlyOwner {\n        artWorkVisibility[_artWorkContractAddress] = _visibility;\n    }\n\n    function getOwners() public view returns (address[] memory) {\n        return owners;\n    }\n\n    function newOwner(address _newOwnerAddress) public onlyOwner {\n        ownerCount++;\n        owners.push(_newOwnerAddress);\n    }\n\n    /// TRADE THE SHARES/TOKENS FOR ETH\n\n    function getAllBuyOrders(address _artworkAddress)\n        public\n        view\n        returns (\n            uint256[] memory,\n            uint256[] memory,\n            uint256[] memory,\n            uint256[] memory\n        )\n    {\n        uint8 c = 0;\n        for (uint8 j = 0; j < buyOrderCount; j++) {\n            if (buyOrders[j].state == OrderState.OPEN) {\n                if (buyOrders[j].artworkAddress == _artworkAddress) {\n                    c += 1;\n                }\n            }\n        }\n\n        uint256[] memory _shareValues = new uint256[](c);\n        uint256[] memory _ethValues = new uint256[](c);\n        uint256[] memory _balances = new uint256[](c);\n        uint256[] memory _ids = new uint256[](c);\n        c = 0;\n        for (uint8 j = 0; j < buyOrderCount; j++) {\n            if (buyOrders[j].state == OrderState.OPEN) {\n                if (buyOrders[j].artworkAddress == _artworkAddress) {\n                    _shareValues[c] = buyOrders[j].shareValue;\n                    _ethValues[c] = buyOrders[j].ethValue;\n                    _balances[c] = buyOrders[j].balance;\n                    _ids[c] = j;\n                    c++;\n                }\n            }\n        }\n        return (_shareValues, _ethValues, _balances, _ids);\n    }\n\n    function getBuyOrdersByAddress(address _artworkAddress, address _address)\n        public\n        view\n        returns (\n            address[] memory,\n            uint256[] memory,\n            uint256[] memory,\n            uint256[] memory,\n            OrderState[] memory,\n            uint256[] memory\n        )\n    {\n        uint8 c = 0;\n        for (uint8 j = 0; j < buyOrderCount; j++) {\n            if (buyOrders[j].orderOwner == _address) {\n                if (buyOrders[j].artworkAddress == _artworkAddress) {\n                    c++;\n                }\n            }\n        }\n        address[] memory _orderOwners = new address[](c);\n        uint256[] memory _shareValues = new uint256[](c);\n        uint256[] memory _ethValues = new uint256[](c);\n        uint256[] memory _balances = new uint256[](c);\n        uint256[] memory _ids = new uint256[](c);\n        OrderState[] memory _states = new OrderState[](c);\n        c = 0;\n        for (uint8 j = 0; j < buyOrderCount; j++) {\n            if (buyOrders[j].orderOwner == _address) {\n                if (buyOrders[j].artworkAddress == _artworkAddress) {\n                    _orderOwners[c] = buyOrders[j].orderOwner;\n                    _shareValues[c] = buyOrders[j].shareValue;\n                    _ethValues[c] = buyOrders[j].ethValue;\n                    _balances[c] = buyOrders[j].balance;\n\n                    _ids[c] = j;\n                    _states[c] = buyOrders[j].state;\n                    c++;\n                }\n            }\n        }\n        return (\n            _orderOwners,\n            _shareValues,\n            _ethValues,\n            _balances,\n            _states,\n            _ids\n        );\n    }\n\n    function getAllSellOrders(address _artworkAddress)\n        public\n        view\n        returns (\n            uint256[] memory,\n            uint256[] memory,\n            uint256[] memory,\n            uint256[] memory\n        )\n    {\n        uint8 c = 0;\n        for (uint8 j = 0; j < sellOrderCount; j++) {\n            if (sellOrders[j].artworkAddress == _artworkAddress) {\n                if (sellOrders[j].state == OrderState.OPEN) {\n                    c++;\n                }\n            }\n        }\n        uint256[] memory _shareValues = new uint256[](c);\n        uint256[] memory _ethValues = new uint256[](c);\n        uint256[] memory _balances = new uint256[](c);\n        uint256[] memory _ids = new uint256[](c);\n        c = 0;\n        for (uint8 j = 0; j < sellOrderCount; j++) {\n            if (sellOrders[j].artworkAddress == _artworkAddress) {\n                if (sellOrders[j].state == OrderState.OPEN) {\n                    _shareValues[c] = sellOrders[j].shareValue;\n                    _ethValues[c] = sellOrders[j].ethValue;\n                    _balances[c] = sellOrders[j].balance;\n                    _ids[c] = j;\n                    c++;\n                }\n            }\n        }\n        return (_shareValues, _ethValues, _balances, _ids);\n    }\n\n    function getSellOrdersByAddress(address _artworkAddress, address _address)\n        public\n        view\n        returns (\n            address[] memory,\n            uint256[] memory,\n            uint256[] memory,\n            uint256[] memory,\n            OrderState[] memory,\n            uint256[] memory\n        )\n    {\n        uint8 c = 0;\n        for (uint8 j = 0; j < sellOrderCount; j++) {\n            if (sellOrders[j].artworkAddress == _artworkAddress) {\n                if (sellOrders[j].orderOwner == _address) {\n                    c++;\n                }\n            }\n        }\n        address[] memory _orderOwners = new address[](c);\n        uint256[] memory _shareValues = new uint256[](c);\n        uint256[] memory _ethValues = new uint256[](c);\n        uint256[] memory _balances = new uint256[](c);\n        uint256[] memory _ids = new uint256[](c);\n        OrderState[] memory _states = new OrderState[](c);\n        c = 0;\n        for (uint8 j = 0; j < sellOrderCount; j++) {\n            if (sellOrders[j].orderOwner == _address) {\n                if (sellOrders[j].artworkAddress == _artworkAddress) {\n                    _orderOwners[c] = sellOrders[j].orderOwner;\n                    _shareValues[c] = sellOrders[j].shareValue;\n                    _ethValues[c] = sellOrders[j].ethValue;\n                    _balances[c] = sellOrders[j].balance;\n                    _states[c] = sellOrders[j].state;\n                    _ids[c] = j;\n                    c++;\n                }\n            }\n        }\n        return (\n            _orderOwners,\n            _shareValues,\n            _ethValues,\n            _balances,\n            _states,\n            _ids\n        );\n    }\n\n    function placeBuyOrder(\n        address _artworkAddress,\n        uint256 shareValue,\n        uint256 ethValue\n    ) public payable returns (uint256) {\n        require(shareValue > 0, \"share value can not be 0\");\n        require(ethValue > 0, \"share value can not be 0\");\n\n        require((msg.value / shareValue) == ethValue, \"can not make order\");\n        buyOrders[buyOrderCount] = buyOrder(\n            _artworkAddress,\n            msg.sender,\n            shareValue,\n            ethValue,\n            msg.value,\n            OrderState.OPEN\n        );\n\n        fillBuyOrder(buyOrderCount);\n        buyOrderCount += 1;\n        return buyOrderCount - 1;\n    }\n\n    function placeSellOrder(\n        address _artworkAddress,\n        uint256 shareValue,\n        uint256 ethValue\n    ) public returns (uint256) {\n        require(shareValue > 0, \"share value can not be 0\");\n        require(ethValue > 0, \"share value can not be 0\");\n        //IERC20(_artworkAddress).allowance(msg.sender, address(this));\n        IERC20(_artworkAddress).transferFrom(\n            msg.sender,\n            address(this),\n            shareValue\n        );\n        sellOrders[sellOrderCount] = sellOrder(\n            _artworkAddress,\n            msg.sender,\n            shareValue,\n            ethValue,\n            shareValue,\n            OrderState.OPEN\n        );\n\n        fillSellOrder(sellOrderCount);\n        sellOrderCount += 1;\n        return sellOrderCount - 1; // IERC20(_artworkAddress).balanceOf(msg.sender); //\n    }\n\n    function cancelBuyOrder(uint256 id) public {\n        require(\n            buyOrders[id].orderOwner == msg.sender,\n            \"msg.sender is not order owner\"\n        );\n        require(buyOrders[id].state == OrderState.OPEN, \"order is not open\");\n\n        address payable payee = payable(msg.sender);\n        payee.transfer(buyOrders[id].balance);\n        buyOrders[id].balance = 0;\n        buyOrders[id].state = OrderState.CANCELLED;\n    }\n\n    function cancelSellOrder(uint256 id) public {\n        require(\n            sellOrders[id].orderOwner == msg.sender,\n            \"msg.sender is not order owner\"\n        );\n        require(sellOrders[id].state == OrderState.OPEN, \"order is not open\");\n\n        sellOrders[id].state = OrderState.CANCELLED;\n        IERC20(sellOrders[id].artworkAddress).transfer(\n            sellOrders[id].orderOwner,\n            sellOrders[id].balance\n        );\n        sellOrders[id].balance = 0;\n    }\n\n    function getHeldShares(address _artworkAddress)\n        public\n        view\n        returns (uint256)\n    {\n        uint256 heldShares = 0;\n        for (uint8 j = 0; j < sellOrderCount; j++) {\n            if (sellOrders[j].artworkAddress == _artworkAddress) {\n                heldShares += sellOrders[j].balance;\n            }\n        }\n        return heldShares;\n    }\n\n    function getHeldETH(address _artworkAddress) public view returns (uint256) {\n        uint256 heldETH = 0;\n        for (uint8 j = 0; j < buyOrderCount; j++) {\n            if (buyOrders[j].artworkAddress == _artworkAddress) {\n                heldETH += buyOrders[j].balance;\n            }\n        }\n        return heldETH;\n    }\n\n    function fillBuyOrder(uint256 bc) private {\n        for (uint8 j = 0; j < sellOrderCount; j++) {\n            if (sellOrders[j].state == OrderState.OPEN) {\n                if (buyOrders[bc].state == OrderState.OPEN) {\n                    if (\n                        sellOrders[j].artworkAddress ==\n                        buyOrders[bc].artworkAddress\n                    ) {\n                        if (sellOrders[j].ethValue == buyOrders[bc].ethValue) {\n                            address payable seller = payable(\n                                sellOrders[j].orderOwner\n                            );\n                            uint256 transferAmount = 0;\n                            if (\n                                sellOrders[j].balance >=\n                                buyOrders[bc].shareValue\n                            ) {\n                                sellOrders[j].balance =\n                                    sellOrders[j].balance -\n                                    buyOrders[bc].shareValue;\n\n                                transferAmount = buyOrders[bc].shareValue;\n\n                                buyOrders[bc].balance = 0;\n                                buyOrders[bc].shareValue = 0;\n\n                                buyOrders[bc].state = OrderState.CLOSED;\n\n                                if (sellOrders[j].balance == 0) {\n                                    sellOrders[j].state = OrderState.CLOSED;\n                                }\n                            } else {\n                                buyOrders[bc].balance =\n                                    buyOrders[bc].balance -\n                                    (sellOrders[j].ethValue *\n                                        sellOrders[j].balance);\n\n                                buyOrders[bc].shareValue =\n                                    buyOrders[bc].shareValue -\n                                    sellOrders[j].balance;\n\n                                transferAmount = sellOrders[j].balance;\n\n                                sellOrders[j].balance = 0;\n                                sellOrders[j].state = OrderState.CLOSED;\n                                if (buyOrders[bc].balance == 0) {\n                                    buyOrders[bc].state = OrderState.CLOSED;\n                                }\n                            }\n                            seller.transfer(\n                                buyOrders[bc].ethValue * transferAmount\n                            );\n\n                            IERC20(buyOrders[bc].artworkAddress).transfer(\n                                buyOrders[bc].orderOwner,\n                                transferAmount\n                            );\n                            orderTransaction(\n                                buyOrders[bc].artworkAddress,\n                                buyOrders[bc].ethValue * transferAmount,\n                                transferAmount,\n                                bc,\n                                j,\n                                buyOrders[bc].orderOwner,\n                                sellOrders[j].orderOwner\n                            );\n                        }\n                    }\n                }\n            }\n        }\n    }\n\n    function fillSellOrder(uint256 sc) private {\n        for (uint8 j = 0; j < buyOrderCount; j++) {\n            if (sellOrders[sc].state == OrderState.OPEN) {\n                if (buyOrders[j].state == OrderState.OPEN) {\n                    if (\n                        sellOrders[sc].artworkAddress ==\n                        buyOrders[j].artworkAddress\n                    ) {\n                        if (sellOrders[sc].ethValue == buyOrders[j].ethValue) {\n                            address payable seller = payable(\n                                sellOrders[sc].orderOwner\n                            );\n                            uint256 transferAmount = 0;\n                            if (\n                                sellOrders[sc].balance >=\n                                buyOrders[j].shareValue\n                            ) {\n                                sellOrders[sc].balance =\n                                    sellOrders[sc].balance -\n                                    buyOrders[j].shareValue;\n\n                                transferAmount = buyOrders[j].shareValue;\n\n                                buyOrders[j].balance = 0;\n                                buyOrders[j].shareValue = 0;\n\n                                buyOrders[j].state = OrderState.CLOSED;\n\n                                if (sellOrders[sc].balance == 0) {\n                                    sellOrders[sc].state = OrderState.CLOSED;\n                                }\n                            } else {\n                                buyOrders[j].balance =\n                                    buyOrders[j].balance -\n                                    (sellOrders[sc].ethValue *\n                                        sellOrders[sc].balance);\n\n                                transferAmount = sellOrders[sc].balance;\n                                buyOrders[j].shareValue =\n                                    buyOrders[j].shareValue -\n                                    sellOrders[sc].balance;\n\n                                sellOrders[sc].balance = 0;\n                                sellOrders[sc].state = OrderState.CLOSED;\n                                if (buyOrders[j].balance == 0) {\n                                    buyOrders[j].state = OrderState.CLOSED;\n                                }\n                            }\n\n                            seller.transfer(\n                                buyOrders[j].ethValue * transferAmount\n                            );\n                            IERC20(buyOrders[j].artworkAddress).transfer(\n                                buyOrders[j].orderOwner,\n                                transferAmount\n                            );\n                            orderTransaction(\n                                buyOrders[j].artworkAddress,\n                                buyOrders[j].ethValue * transferAmount,\n                                transferAmount,\n                                j,\n                                sc,\n                                buyOrders[j].orderOwner,\n                                sellOrders[sc].orderOwner\n                            );\n                        }\n                    }\n                }\n            }\n        }\n    }\n\n    function orderTransaction(\n        address artwork,\n        uint256 eth,\n        uint256 share,\n        uint256 buyId,\n        uint256 sellId,\n        address buyer,\n        address seller\n    ) internal {\n        transactions[transactionCount].artwork = artwork;\n        transactions[transactionCount].eth = eth;\n        transactions[transactionCount].share = share;\n        transactions[transactionCount].timestamp = block.timestamp;\n        transactions[transactionCount].buyId = buyId;\n        transactions[transactionCount].sellId = sellId;\n        transactions[transactionCount].buyer = buyer;\n        transactions[transactionCount].seller = seller;\n        transactionCount++;\n    }\n\n    function getTransactions(address _artworkAddress)\n        public\n        view\n        returns (\n            uint256[] memory,\n            uint256[] memory,\n            uint256[] memory,\n            address[] memory,\n            address[] memory\n        )\n    {\n        uint256 c = 0;\n        for (uint8 j = 0; j < transactionCount; j++) {\n            if (transactions[j].artwork == _artworkAddress) {\n                c++;\n            }\n        }\n        address[] memory artwork = new address[](c);\n        uint256[] memory eth = new uint256[](c);\n        uint256[] memory share = new uint256[](c);\n        uint256[] memory timestamp = new uint256[](c);\n        address[] memory buyer = new address[](c);\n        address[] memory seller = new address[](c);\n        c = 0;\n        for (uint8 j = 0; j < transactionCount; j++) {\n            if (transactions[j].artwork == _artworkAddress) {\n                artwork[c] = transactions[j].artwork;\n                eth[c] = transactions[j].eth;\n                share[c] = transactions[j].share;\n                timestamp[c] = transactions[j].timestamp;\n                buyer[c] = transactions[j].buyer;\n                seller[c] = transactions[j].seller;\n                c++;\n            }\n        }\n        return (eth, share, timestamp, buyer, seller);\n    }\n}\n","sourcePath":"contracts/SolidStateGallery.sol","type":"contract","deployment":{"address":"0x00032554991909e1E1f55F853033B8922Fb679c4","chainid":"42","blockHeight":31130058}}