{"bytecode":"60806040526000600255600060035534801561001a57600080fd5b50600a805460018101825560009182527fc65a7bb8d6351c1cf70c95a316cc6a92839c986682d98bc35f958f4883f9d2a80180546001600160a01b031916331790556008819055600b819055600955613887806100786000396000f3fe60806040526004361061014b5760003560e01c806389a5c415116100b6578063b92c1e8f1161006f578063b92c1e8f1461044e578063be5d147f1461046e578063bed34bba1461048e578063c3dcad97146104be578063e7c06a1c146104de578063f437b29b146104fe57600080fd5b806389a5c415146103895780639296e00d146103b95780639e0b43cc146103d9578063a0e67e2b146103f9578063ab3600b51461040e578063b8aeb2fd1461042e57600080fd5b8063431e8d6311610108578063431e8d631461028257806346e63586146102a25780634a8393f3146102c45780634fb93e7c14610326578063592e035514610349578063859524541461036957600080fd5b80631a46e42a14610150578063210bd5261461017257806334fa4449146101ad57806335cea288146101cd578063360a67c91461023f578063382d041214610260575b600080fd5b34801561015c57600080fd5b5061017061016b366004613147565b61051e565b005b34801561017e57600080fd5b5061019261018d36600461317c565b6106ab565b6040516101a49695949392919061325b565b60405180910390f35b3480156101b957600080fd5b506101706101c8366004613308565b610b5f565b3480156101d957600080fd5b5061022d6101e8366004613147565b6000602081905290815260409020805460018201546002830154600384015460048501546005909501546001600160a01b039485169593909416939192909160ff1686565b6040516101a496959493929190613332565b61025261024d366004613377565b610c7d565b6040519081526020016101a4565b34801561026c57600080fd5b50610275610dfe565b6040516101a491906133aa565b34801561028e57600080fd5b5061025261029d366004613466565b610f58565b3480156102ae57600080fd5b506102b7611088565b6040516101a491906134ca565b3480156102d057600080fd5b5061022d6102df366004613147565b60016020819052600091825260409091208054918101546002820154600383015460048401546005909401546001600160a01b039586169590931693919290919060ff1686565b34801561033257600080fd5b5061033b6111b6565b6040516101a4929190613544565b34801561035557600080fd5b50610170610364366004613466565b611300565b34801561037557600080fd5b5061017061038436600461359d565b61147f565b34801561039557600080fd5b506103a96103a436600461359d565b61151b565b6040516101a494939291906135b8565b3480156103c557600080fd5b506103a96103d436600461359d565b61183c565b3480156103e557600080fd5b5061033b6103f4366004613147565b611b4f565b34801561040557600080fd5b50610275611d04565b34801561041a57600080fd5b50610275610429366004613147565b611d66565b34801561043a57600080fd5b50610170610449366004613616565b611eed565b34801561045a57600080fd5b5061025261046936600461359d565b611f4d565b34801561047a57600080fd5b50610170610489366004613147565b611fba565b34801561049a57600080fd5b506104ae6104a936600461364d565b6120f1565b60405190151581526020016101a4565b3480156104ca57600080fd5b506101926104d936600461317c565b61214a565b3480156104ea57600080fd5b506102526104f936600461359d565b6125de565b34801561050a57600080fd5b50610252610519366004613377565b61264b565b600081815260016020819052604090912001546001600160a01b0316331461058d5760405162461bcd60e51b815260206004820152601d60248201527f6d73672e73656e646572206973206e6f74206f72646572206f776e657200000060448201526064015b60405180910390fd5b60008181526001602052604081206005015460ff1660028111156105b3576105b3613223565b146105f45760405162461bcd60e51b815260206004820152601160248201527037b93232b91034b9903737ba1037b832b760791b6044820152606401610584565b60008181526001602081905260409182902060058101805460ff19166002179055805491810154600491820154935163a9059cbb60e01b81526001600160a01b0391821692810192909252602482019390935291169063a9059cbb906044016020604051808303816000875af1158015610672573d6000803e3d6000fd5b505050506040513d601f19601f8201168201806040525081019061069691906136b0565b50600090815260016020526040812060040155565b6060806060806060806000805b6003548160ff1610156107355760ff81166000908152600160205260409020546001600160a01b038b8116911614156107235760ff8116600090815260016020819052604090912001546001600160a01b038a811691161415610723578161071f816136e3565b9250505b8061072d816136e3565b9150506106b8565b5060008160ff166001600160401b03811115610753576107536133c4565b60405190808252806020026020018201604052801561077c578160200160208202803683370190505b50905060008260ff166001600160401b0381111561079c5761079c6133c4565b6040519080825280602002602001820160405280156107c5578160200160208202803683370190505b50905060008360ff166001600160401b038111156107e5576107e56133c4565b60405190808252806020026020018201604052801561080e578160200160208202803683370190505b50905060008460ff166001600160401b0381111561082e5761082e6133c4565b604051908082528060200260200182016040528015610857578160200160208202803683370190505b50905060008560ff166001600160401b03811115610877576108776133c4565b6040519080825280602002602001820160405280156108a0578160200160208202803683370190505b50905060008660ff166001600160401b038111156108c0576108c06133c4565b6040519080825280602002602001820160405280156108e9578160200160208202803683370190505b5090506000965060005b6003548160ff161015610b47578e6001600160a01b0316600160008360ff16815260200190815260200160002060010160009054906101000a90046001600160a01b03166001600160a01b03161415610b35578f6001600160a01b0316600160008360ff16815260200190815260200160002060000160009054906101000a90046001600160a01b03166001600160a01b03161415610b355760ff8082166000908152600160208190526040909120015488516001600160a01b03909116918991908b169081106109c6576109c6613703565b60200260200101906001600160a01b031690816001600160a01b031681525050600160008260ff16815260200190815260200160002060020154868960ff1681518110610a1557610a15613703565b602002602001018181525050600160008260ff16815260200190815260200160002060030154858960ff1681518110610a5057610a50613703565b602002602001018181525050600160008260ff16815260200190815260200160002060040154848960ff1681518110610a8b57610a8b613703565b602002602001018181525050600160008260ff16815260200190815260200160002060050160009054906101000a900460ff16828960ff1681518110610ad357610ad3613703565b60200260200101906002811115610aec57610aec613223565b90816002811115610aff57610aff613223565b815250508060ff16838960ff1681518110610b1c57610b1c613703565b602090810291909101015287610b31816136e3565b9850505b80610b3f816136e3565b9150506108f3565b50949e939d50919b5099509197509095509350505050565b600a600b5481548110610b7457610b74613703565b6000918252602090912001546001600160a01b03163314610b9457600080fd5b60005b600854811015610c16576000818152600460205260409020546001600160a01b0384811691161415610c045760405162461bcd60e51b8152602060048201526016602482015275105c9d081ddbdc9ac8185b1c9958591e48185919195960521b6044820152606401610584565b80610c0e81613719565b915050610b97565b5060088054600090815260046020908152604080832080546001600160a01b0319166001600160a01b0388169081179091558454845260068352818420869055835260079091528120805460ff1916905581549190610c7483613719565b91905055505050565b6000808311610c9e5760405162461bcd60e51b815260040161058490613734565b60008211610cbe5760405162461bcd60e51b815260040161058490613734565b81610cc9843461376b565b14610d0b5760405162461bcd60e51b815260206004820152601260248201527131b0b7103737ba1036b0b5b29037b93232b960711b6044820152606401610584565b6040805160c0810182526001600160a01b038681168252336020808401918252838501888152606085018881523460808701908152600060a0880181815260028054835295829052989020875181549088166001600160a01b03199182161782559551600180830180549290991691909716179096559151858401555160038501555160048401559351600583018054949593949193909260ff1990921691908490811115610dbc57610dbc613223565b0217905550905050610dcf6002546127f7565b600160026000828254610de2919061378d565b9091555050600254610df6906001906137a5565b949350505050565b60606000805b600854811015610e60576000818152600460209081526040808320546001600160a01b03168352600790915290205460ff16151560011415610e4e5781610e4a81613719565b9250505b80610e5881613719565b915050610e04565b506000816001600160401b03811115610e7b57610e7b6133c4565b604051908082528060200260200182016040528015610ea4578160200160208202803683370190505b5090506000915060005b600854811015610f51576000818152600460209081526040808320546001600160a01b03168352600790915290205460ff16151560011415610f3f5760008181526004602052604090205482516001600160a01b0390911690839085908110610f1957610f19613703565b6001600160a01b039092166020928302919091019091015282610f3b81613719565b9350505b80610f4981613719565b915050610eae565b5092915050565b600080805b60095481101561102c57600081815260056020526040902080546110099190610f85906137bc565b80601f0160208091040260200160405190810160405280929190818152602001828054610fb1906137bc565b8015610ffe5780601f10610fd357610100808354040283529160200191610ffe565b820191906000526020600020905b815481529060010190602001808311610fe157829003601f168201915b5050505050856120f1565b15156001141561101a579392505050565b8061102481613719565b915050610f5d565b5060018115151461107f5760405162461bcd60e51b815260206004820152601a60248201527f4e6f20436f6c6c656374696f6e2042792054686174204e616d650000000000006044820152606401610584565b50600092915050565b606060006009546001600160401b038111156110a6576110a66133c4565b6040519080825280602002602001820160405280156110d957816020015b60608152602001906001900390816110c45790505b50905060005b6009548110156111b05760008181526005602052604090208054611102906137bc565b80601f016020809104026020016040519081016040528092919081815260200182805461112e906137bc565b801561117b5780601f106111505761010080835404028352916020019161117b565b820191906000526020600020905b81548152906001019060200180831161115e57829003601f168201915b505050505082828151811061119257611192613703565b602002602001018190525080806111a890613719565b9150506110df565b50919050565b60608060006008546001600160401b038111156111d5576111d56133c4565b6040519080825280602002602001820160405280156111fe578160200160208202803683370190505b50905060006008546001600160401b0381111561121d5761121d6133c4565b604051908082528060200260200182016040528015611246578160200160208202803683370190505b50905060005b6008548110156112f65760008181526004602052604090205483516001600160a01b039091169084908390811061128557611285613703565b6001600160a01b03928316602091820292909201810191909152600083815260048252604080822054909316815260079091522054825160ff909116908390839081106112d4576112d4613703565b91151560209283029190910190910152806112ee81613719565b91505061124c565b5090939092509050565b600a600b548154811061131557611315613703565b6000918252602090912001546001600160a01b0316331461133557600080fd5b60005b60095481101561144357600081815260056020526040902080546113e49190611360906137bc565b80601f016020809104026020016040519081016040528092919081815260200182805461138c906137bc565b80156113d95780601f106113ae576101008083540402835291602001916113d9565b820191906000526020600020905b8154815290600101906020018083116113bc57829003601f168201915b5050505050836120f1565b156114315760405162461bcd60e51b815260206004820152601b60248201527f436f6c6c656374696f6e20697320616c726561647920616464656400000000006044820152606401610584565b8061143b81613719565b915050611338565b5060095460009081526005602090815260409091208251611466928401906130ae565b506009805490600061147783613719565b919050555050565b600a600b548154811061149457611494613703565b6000918252602090912001546001600160a01b031633146114b457600080fd5b600b80549060006114c483613719565b9091555050600a80546001810182556000919091527fc65a7bb8d6351c1cf70c95a316cc6a92839c986682d98bc35f958f4883f9d2a80180546001600160a01b0319166001600160a01b0392909216919091179055565b6060806060806000805b6002548160ff1610156115a957600060ff80831660009081526020819052604090206005015416600281111561155d5761155d613223565b14156115975760ff81166000908152602081905260409020546001600160a01b0388811691161415611597576115946001836137f1565b91505b806115a1816136e3565b915050611525565b5060008160ff166001600160401b038111156115c7576115c76133c4565b6040519080825280602002602001820160405280156115f0578160200160208202803683370190505b50905060008260ff166001600160401b03811115611610576116106133c4565b604051908082528060200260200182016040528015611639578160200160208202803683370190505b50905060008360ff166001600160401b03811115611659576116596133c4565b604051908082528060200260200182016040528015611682578160200160208202803683370190505b50905060008460ff166001600160401b038111156116a2576116a26133c4565b6040519080825280602002602001820160405280156116cb578160200160208202803683370190505b5090506000945060005b6002548160ff16101561182b57600060ff80831660009081526020819052604090206005015416600281111561170d5761170d613223565b14156118195760ff81166000908152602081905260409020546001600160a01b038c811691161415611819576000808260ff16815260200190815260200160002060020154858760ff168151811061176757611767613703565b6020026020010181815250506000808260ff16815260200190815260200160002060030154848760ff16815181106117a1576117a1613703565b6020026020010181815250506000808260ff16815260200190815260200160002060040154838760ff16815181106117db576117db613703565b6020026020010181815250508060ff16828760ff168151811061180057611800613703565b602090810291909101015285611815816136e3565b9650505b80611823816136e3565b9150506116d5565b509299919850965090945092505050565b6060806060806000805b6003548160ff1610156118ca5760ff81166000908152600160205260409020546001600160a01b03888116911614156118b857600060ff8083166000908152600160205260409020600501541660028111156118a4576118a4613223565b14156118b857816118b4816136e3565b9250505b806118c2816136e3565b915050611846565b5060008160ff166001600160401b038111156118e8576118e86133c4565b604051908082528060200260200182016040528015611911578160200160208202803683370190505b50905060008260ff166001600160401b03811115611931576119316133c4565b60405190808252806020026020018201604052801561195a578160200160208202803683370190505b50905060008360ff166001600160401b0381111561197a5761197a6133c4565b6040519080825280602002602001820160405280156119a3578160200160208202803683370190505b50905060008460ff166001600160401b038111156119c3576119c36133c4565b6040519080825280602002602001820160405280156119ec578160200160208202803683370190505b5090506000945060005b6003548160ff16101561182b5760ff81166000908152600160205260409020546001600160a01b038c811691161415611b3d57600060ff808316600090815260016020526040902060050154166002811115611a5457611a54613223565b1415611b3d57600160008260ff16815260200190815260200160002060020154858760ff1681518110611a8957611a89613703565b602002602001018181525050600160008260ff16815260200190815260200160002060030154848760ff1681518110611ac457611ac4613703565b602002602001018181525050600160008260ff16815260200190815260200160002060040154838760ff1681518110611aff57611aff613703565b6020026020010181815250508060ff16828760ff1681518110611b2457611b24613703565b602090810291909101015285611b39816136e3565b9650505b80611b47816136e3565b9150506119f6565b6060806000805b600854811015611b9657600081815260066020526040902054851415611b845781611b8081613719565b9250505b80611b8e81613719565b915050611b56565b506000816001600160401b03811115611bb157611bb16133c4565b604051908082528060200260200182016040528015611bda578160200160208202803683370190505b5090506000826001600160401b03811115611bf757611bf76133c4565b604051908082528060200260200182016040528015611c20578160200160208202803683370190505b5090506000925060005b600854811015611cf857600081815260066020526040902054871415611ce65760008181526004602052604090205483516001600160a01b0390911690849086908110611c7957611c79613703565b6001600160a01b03928316602091820292909201810191909152600083815260048252604080822054909316815260079091522054825160ff90911690839086908110611cc857611cc8613703565b9115156020928302919091019091015283611ce281613719565b9450505b80611cf081613719565b915050611c2a565b50909590945092505050565b6060600a805480602002602001604051908101604052809291908181526020018280548015611d5c57602002820191906000526020600020905b81546001600160a01b03168152600190910190602001808311611d3e575b5050505050905090565b60606000805b600854811015611dde576000818152600460209081526040808320546001600160a01b03168352600790915290205460ff16151560011415611dcc57600081815260066020526040902054841415611dcc5781611dc881613719565b9250505b80611dd681613719565b915050611d6c565b506000816001600160401b03811115611df957611df96133c4565b604051908082528060200260200182016040528015611e22578160200160208202803683370190505b5090506000915060005b600854811015611ee5576000818152600460209081526040808320546001600160a01b03168352600790915290205460ff16151560011415611ed357600081815260066020526040902054851415611ed35760008181526004602052604090205482516001600160a01b0390911690839085908110611ead57611ead613703565b6001600160a01b039092166020928302919091019091015282611ecf81613719565b9350505b80611edd81613719565b915050611e2c565b509392505050565b600a600b5481548110611f0257611f02613703565b6000918252602090912001546001600160a01b03163314611f2257600080fd5b6001600160a01b03919091166000908152600760205260409020805460ff1916911515919091179055565b600080805b6003548160ff161015610f515760ff81166000908152600160205260409020546001600160a01b0385811691161415611fa85760ff8116600090815260016020526040902060040154611fa5908361378d565b91505b80611fb2816136e3565b915050611f52565b6000818152602081905260409020600101546001600160a01b031633146120235760405162461bcd60e51b815260206004820152601d60248201527f6d73672e73656e646572206973206e6f74206f72646572206f776e65720000006044820152606401610584565b60008181526020819052604081206005015460ff16600281111561204957612049613223565b1461208a5760405162461bcd60e51b815260206004820152601160248201527037b93232b91034b9903737ba1037b832b760791b6044820152606401610584565b6000818152602081905260408082206004015490513392839280156108fc02929091818181858888f193505050501580156120c9573d6000803e3d6000fd5b505060009081526020819052604081206004810191909155600501805460ff19166002179055565b6000816040516020016121049190613816565b604051602081830303815290604052805190602001208360405160200161212b9190613816565b6040516020818303038152906040528051906020012014905092915050565b6060806060806060806000805b6002548160ff1610156121d35760ff81166000908152602081905260409020600101546001600160a01b038a8116911614156121c15760ff81166000908152602081905260409020546001600160a01b038b8116911614156121c157816121bd816136e3565b9250505b806121cb816136e3565b915050612157565b5060008160ff166001600160401b038111156121f1576121f16133c4565b60405190808252806020026020018201604052801561221a578160200160208202803683370190505b50905060008260ff166001600160401b0381111561223a5761223a6133c4565b604051908082528060200260200182016040528015612263578160200160208202803683370190505b50905060008360ff166001600160401b03811115612283576122836133c4565b6040519080825280602002602001820160405280156122ac578160200160208202803683370190505b50905060008460ff166001600160401b038111156122cc576122cc6133c4565b6040519080825280602002602001820160405280156122f5578160200160208202803683370190505b50905060008560ff166001600160401b03811115612315576123156133c4565b60405190808252806020026020018201604052801561233e578160200160208202803683370190505b50905060008660ff166001600160401b0381111561235e5761235e6133c4565b604051908082528060200260200182016040528015612387578160200160208202803683370190505b5090506000965060005b6002548160ff161015610b47578e6001600160a01b03166000808360ff16815260200190815260200160002060010160009054906101000a90046001600160a01b03166001600160a01b031614156125cc578f6001600160a01b03166000808360ff16815260200190815260200160002060000160009054906101000a90046001600160a01b03166001600160a01b031614156125cc5760ff80821660009081526020819052604090206001015488516001600160a01b03909116918991908b1690811061246157612461613703565b60200260200101906001600160a01b031690816001600160a01b0316815250506000808260ff16815260200190815260200160002060020154868960ff16815181106124af576124af613703565b6020026020010181815250506000808260ff16815260200190815260200160002060030154858960ff16815181106124e9576124e9613703565b6020026020010181815250506000808260ff16815260200190815260200160002060040154848960ff168151811061252357612523613703565b6020026020010181815250508060ff16838960ff168151811061254857612548613703565b6020026020010181815250506000808260ff16815260200190815260200160002060050160009054906101000a900460ff16828960ff168151811061258f5761258f613703565b602002602001019060028111156125a8576125a8613223565b908160028111156125bb576125bb613223565b905250876125c8816136e3565b9850505b806125d6816136e3565b915050612391565b600080805b6002548160ff161015610f515760ff81166000908152602081905260409020546001600160a01b03858116911614156126395760ff8116600090815260208190526040902060040154612636908361378d565b91505b80612643816136e3565b9150506125e3565b600080831161266c5760405162461bcd60e51b815260040161058490613734565b6000821161268c5760405162461bcd60e51b815260040161058490613734565b6040516323b872dd60e01b8152336004820152306024820152604481018490526001600160a01b038516906323b872dd906064016020604051808303816000875af11580156126df573d6000803e3d6000fd5b505050506040513d601f19601f8201168201806040525081019061270391906136b0565b506040805160c0810182526001600160a01b03868116825233602080840191825283850188815260608501888152608086018a8152600060a0880181815260038054835260019687905299909120885181549089166001600160a01b0319918216178255965181870180549190991697169690961790965591516002808601919091559051968401969096555160048301559151600582018054949592949193909260ff199092169184908111156127bd576127bd613223565b02179055509050506127d0600354612c53565b6001600360008282546127e3919061378d565b9091555050600354610df6906001906137a5565b60005b6003548160ff161015612c4f57600060ff80831660009081526001602052604090206005015416600281111561283257612832613223565b1415612c3d5760008281526020819052604081206005015460ff16600281111561285e5761285e613223565b1415612c3d576000828152602081815260408083205460ff851684526001909252909120546001600160a01b0390811691161415612c3d5760008281526020818152604080832060039081015460ff8616855260019093529220909101541415612c3d5760ff811660008181526001602081815260408084208084015488865285845291852060020154958552929091526004909101546001600160a01b0390911692116129af576000848152602081815260408083206002015460ff8716845260019092529091206004015461293591906137a5565b60ff8416600081815260016020818152604080842060049081019687558a8552848352908420600281018054928201869055859055600501805460ff19168417905593909252905290549091506129aa5760ff83166000908152600160208190526040909120600501805460ff191690911790555b612aa1565b60ff8316600090815260016020526040902060048101546003909101546129d69190613832565b6000858152602081905260409020600401546129f291906137a5565b60008581526020818152604080832060048082019590955560ff881684526001835290832090930154878352919052600290910154612a3191906137a5565b600085815260208181526040808320600281019490945560ff87168352600180835290832060048082018054908690556005909201805460ff19169093179092558884529290915290910154909150612aa1576000848152602081905260409020600501805460ff191660011790555b6000848152602081905260409020600301546001600160a01b038316906108fc90612acd908490613832565b6040518115909202916000818181858888f19350505050158015612af5573d6000803e3d6000fd5b50600084815260208190526040908190208054600190910154915163a9059cbb60e01b81526001600160a01b0392831660048201526024810184905291169063a9059cbb906044016020604051808303816000875af1158015612b5c573d6000803e3d6000fd5b505050506040513d601f19601f82011682018060405250810190612b8091906136b0565b50600084815260208190526040902080546003909101547fc5c589064b3d2ac80a4c7e550727b6fe9c900a322977580aefd9588d4f7c88ac916001600160a01b031690612bce908490613832565b60008781526020818152604080832060019081015460ff8b16808652828552948390209091015482516001600160a01b03978816815293840195909552908201879052606082018a9052608082019290925290831660a0820152911660c082015260e00160405180910390a150505b80612c47816136e3565b9150506127fa565b5050565b60005b6002548160ff161015612c4f5760008281526001602052604081206005015460ff166002811115612c8957612c89613223565b141561309c57600060ff808316600090815260208190526040902060050154166002811115612cba57612cba613223565b141561309c5760ff8116600090815260208181526040808320548584526001909252909120546001600160a01b039081169116141561309c5760ff81166000908152602081815260408083206003908101548685526001909352922090910154141561309c5760008281526001602081815260408084208084015460ff8716865285845291852060020154878652939092526004909101546001600160a01b03909116929111612e085760ff831660009081526020818152604080832060020154878452600190925290912060040154612d9491906137a5565b6000858152600160208181526040808420600490810195865560ff89168552848352908420600281018054928201869055859055600501805460ff19168417905592889052529054909150612e03576000848152600160208190526040909120600501805460ff191690911790555b612ef7565b60008481526001602052604090206004810154600390910154612e2b9190613832565b60ff8416600090815260208190526040902060040154612e4b91906137a5565b60ff8416600081815260208181526040808320600480820196909655898452600183529083209094015492825252600290910154909150612e8d9082906137a5565b60ff84166000818152602081815260408083206002810195909555888352600180835290832060048082018590556005909101805460ff1916909217909155928252520154612ef75760ff83166000908152602081905260409020600501805460ff191660011790555b816001600160a01b03166108fc826000808760ff16815260200190815260200160002060030154612f289190613832565b6040518115909202916000818181858888f19350505050158015612f50573d6000803e3d6000fd5b5060ff8316600090815260208190526040908190208054600190910154915163a9059cbb60e01b81526001600160a01b0392831660048201526024810184905291169063a9059cbb906044016020604051808303816000875af1158015612fbb573d6000803e3d6000fd5b505050506040513d601f19601f82011682018060405250810190612fdf91906136b0565b5060ff8316600090815260208190526040902080546003909101547fc5c589064b3d2ac80a4c7e550727b6fe9c900a322977580aefd9588d4f7c88ac916001600160a01b031690613031908490613832565b60ff86166000818152602081815260408083206001908101548c855281845293829020015481516001600160a01b039788168152928301959095528101879052606081019290925260808201899052831660a0820152911660c082015260e00160405180910390a150505b806130a6816136e3565b915050612c56565b8280546130ba906137bc565b90600052602060002090601f0160209004810192826130dc5760008555613122565b82601f106130f557805160ff1916838001178555613122565b82800160010185558215613122579182015b82811115613122578251825591602001919060010190613107565b5061312e929150613132565b5090565b5b8082111561312e5760008155600101613133565b60006020828403121561315957600080fd5b5035919050565b80356001600160a01b038116811461317757600080fd5b919050565b6000806040838503121561318f57600080fd5b61319883613160565b91506131a660208401613160565b90509250929050565b600081518084526020808501945080840160005b838110156131e85781516001600160a01b0316875295820195908201906001016131c3565b509495945050505050565b600081518084526020808501945080840160005b838110156131e857815187529582019590820190600101613207565b634e487b7160e01b600052602160045260246000fd5b6003811061325757634e487b7160e01b600052602160045260246000fd5b9052565b60c08152600061326e60c08301896131af565b602083820381850152613281828a6131f3565b9150838203604085015261329582896131f3565b915083820360608501526132a982886131f3565b8481036080860152865180825282880193509082019060005b818110156132e5576132d5838651613239565b93830193918301916001016132c2565b505084810360a08601526132f981876131f3565b9b9a5050505050505050505050565b6000806040838503121561331b57600080fd5b61332483613160565b946020939093013593505050565b6001600160a01b0387811682528616602082015260408101859052606081018490526080810183905260c0810161336c60a0830184613239565b979650505050505050565b60008060006060848603121561338c57600080fd5b61339584613160565b95602085013595506040909401359392505050565b6020815260006133bd60208301846131af565b9392505050565b634e487b7160e01b600052604160045260246000fd5b600082601f8301126133eb57600080fd5b81356001600160401b0380821115613405576134056133c4565b604051601f8301601f19908116603f0116810190828211818310171561342d5761342d6133c4565b8160405283815286602085880101111561344657600080fd5b836020870160208301376000602085830101528094505050505092915050565b60006020828403121561347857600080fd5b81356001600160401b0381111561348e57600080fd5b610df6848285016133da565b60005b838110156134b557818101518382015260200161349d565b838111156134c4576000848401525b50505050565b6000602080830181845280855180835260408601915060408160051b870101925083870160005b8281101561353757878503603f1901845281518051808752613518818989018a850161349a565b601f01601f1916959095018601945092850192908501906001016134f1565b5092979650505050505050565b60408152600061355760408301856131af565b82810360208481019190915284518083528582019282019060005b81811015613590578451151583529383019391830191600101613572565b5090979650505050505050565b6000602082840312156135af57600080fd5b6133bd82613160565b6080815260006135cb60808301876131f3565b82810360208401526135dd81876131f3565b905082810360408401526135f181866131f3565b9050828103606084015261336c81856131f3565b801515811461361357600080fd5b50565b6000806040838503121561362957600080fd5b61363283613160565b9150602083013561364281613605565b809150509250929050565b6000806040838503121561366057600080fd5b82356001600160401b038082111561367757600080fd5b613683868387016133da565b9350602085013591508082111561369957600080fd5b506136a6858286016133da565b9150509250929050565b6000602082840312156136c257600080fd5b81516133bd81613605565b634e487b7160e01b600052601160045260246000fd5b600060ff821660ff8114156136fa576136fa6136cd565b60010192915050565b634e487b7160e01b600052603260045260246000fd5b600060001982141561372d5761372d6136cd565b5060010190565b60208082526018908201527f73686172652076616c75652063616e206e6f7420626520300000000000000000604082015260600190565b60008261378857634e487b7160e01b600052601260045260246000fd5b500490565b600082198211156137a0576137a06136cd565b500190565b6000828210156137b7576137b76136cd565b500390565b600181811c908216806137d057607f821691505b602082108114156111b057634e487b7160e01b600052602260045260246000fd5b600060ff821660ff84168060ff0382111561380e5761380e6136cd565b019392505050565b6000825161382881846020870161349a565b9190910192915050565b600081600019048311821515161561384c5761384c6136cd565b50029056fea2646970667358221220f9decf2f62dbf4d9634ffd02995b5c2e42ac43a1e5048c241530d44fbe8fac3464736f6c634300080b0033","bytecodeSha1":"f418958abd9ea40c89c4c46d94d5df550c96f8d3","type":"contract","abi":[{"inputs":[],"stateMutability":"nonpayable","type":"constructor","name":"constructor"},{"anonymous":false,"inputs":[{"indexed":false,"internalType":"address","name":"artwork","type":"address"},{"indexed":false,"internalType":"uint256","name":"eth","type":"uint256"},{"indexed":false,"internalType":"uint256","name":"share","type":"uint256"},{"indexed":false,"internalType":"uint256","name":"buyId","type":"uint256"},{"indexed":false,"internalType":"uint256","name":"selld","type":"uint256"},{"indexed":false,"internalType":"address","name":"buyer","type":"address"},{"indexed":false,"internalType":"address","name":"seller","type":"address"}],"name":"orderTransaction","type":"event"},{"inputs":[{"internalType":"address","name":"_artWorkAddress","type":"address"},{"internalType":"uint256","name":"_collectionId","type":"uint256"}],"name":"addArtWork","outputs":[],"stateMutability":"nonpayable","type":"function"},{"inputs":[{"internalType":"string","name":"_collectionName","type":"string"}],"name":"addCollection","outputs":[],"stateMutability":"nonpayable","type":"function"},{"inputs":[{"internalType":"uint256","name":"","type":"uint256"}],"name":"buyOrders","outputs":[{"internalType":"address","name":"artworkAddress","type":"address"},{"internalType":"address","name":"orderOwner","type":"address"},{"internalType":"uint256","name":"shareValue","type":"uint256"},{"internalType":"uint256","name":"ethValue","type":"uint256"},{"internalType":"uint256","name":"balance","type":"uint256"},{"internalType":"enum SolidStateGallery.OrderState","name":"state","type":"uint8"}],"stateMutability":"view","type":"function"},{"inputs":[{"internalType":"uint256","name":"id","type":"uint256"}],"name":"cancelBuyOrder","outputs":[],"stateMutability":"nonpayable","type":"function"},{"inputs":[{"internalType":"uint256","name":"id","type":"uint256"}],"name":"cancelSellOrder","outputs":[],"stateMutability":"nonpayable","type":"function"},{"inputs":[{"internalType":"string","name":"a","type":"string"},{"internalType":"string","name":"b","type":"string"}],"name":"compareStrings","outputs":[{"internalType":"bool","name":"","type":"bool"}],"stateMutability":"pure","type":"function"},{"inputs":[],"name":"getAllArtWorks","outputs":[{"internalType":"address[]","name":"","type":"address[]"},{"internalType":"bool[]","name":"","type":"bool[]"}],"stateMutability":"view","type":"function"},{"inputs":[{"internalType":"uint256","name":"_Id","type":"uint256"}],"name":"getAllArtWorksByCollectionId","outputs":[{"internalType":"address[]","name":"","type":"address[]"},{"internalType":"bool[]","name":"","type":"bool[]"}],"stateMutability":"view","type":"function"},{"inputs":[{"internalType":"address","name":"_artworkAddress","type":"address"}],"name":"getAllBuyOrders","outputs":[{"internalType":"uint256[]","name":"","type":"uint256[]"},{"internalType":"uint256[]","name":"","type":"uint256[]"},{"internalType":"uint256[]","name":"","type":"uint256[]"},{"internalType":"uint256[]","name":"","type":"uint256[]"}],"stateMutability":"view","type":"function"},{"inputs":[{"internalType":"address","name":"_artworkAddress","type":"address"}],"name":"getAllSellOrders","outputs":[{"internalType":"uint256[]","name":"","type":"uint256[]"},{"internalType":"uint256[]","name":"","type":"uint256[]"},{"internalType":"uint256[]","name":"","type":"uint256[]"},{"internalType":"uint256[]","name":"","type":"uint256[]"}],"stateMutability":"view","type":"function"},{"inputs":[],"name":"getArtWorks","outputs":[{"internalType":"address[]","name":"","type":"address[]"}],"stateMutability":"view","type":"function"},{"inputs":[{"internalType":"uint256","name":"_Id","type":"uint256"}],"name":"getArtWorksByCollectionId","outputs":[{"internalType":"address[]","name":"","type":"address[]"}],"stateMutability":"view","type":"function"},{"inputs":[{"internalType":"address","name":"_artworkAddress","type":"address"},{"internalType":"address","name":"_address","type":"address"}],"name":"getBuyOrdersByAddress","outputs":[{"internalType":"address[]","name":"","type":"address[]"},{"internalType":"uint256[]","name":"","type":"uint256[]"},{"internalType":"uint256[]","name":"","type":"uint256[]"},{"internalType":"uint256[]","name":"","type":"uint256[]"},{"internalType":"enum SolidStateGallery.OrderState[]","name":"","type":"uint8[]"},{"internalType":"uint256[]","name":"","type":"uint256[]"}],"stateMutability":"view","type":"function"},{"inputs":[{"internalType":"string","name":"_collectionName","type":"string"}],"name":"getCollectionIdByName","outputs":[{"internalType":"uint256","name":"","type":"uint256"}],"stateMutability":"view","type":"function"},{"inputs":[],"name":"getCollections","outputs":[{"internalType":"string[]","name":"","type":"string[]"}],"stateMutability":"view","type":"function"},{"inputs":[{"internalType":"address","name":"_artworkAddress","type":"address"}],"name":"getHeldETH","outputs":[{"internalType":"uint256","name":"","type":"uint256"}],"stateMutability":"view","type":"function"},{"inputs":[{"internalType":"address","name":"_artworkAddress","type":"address"}],"name":"getHeldShares","outputs":[{"internalType":"uint256","name":"","type":"uint256"}],"stateMutability":"view","type":"function"},{"inputs":[],"name":"getOwners","outputs":[{"internalType":"address[]","name":"","type":"address[]"}],"stateMutability":"view","type":"function"},{"inputs":[{"internalType":"address","name":"_artworkAddress","type":"address"},{"internalType":"address","name":"_address","type":"address"}],"name":"getSellOrdersByAddress","outputs":[{"internalType":"address[]","name":"","type":"address[]"},{"internalType":"uint256[]","name":"","type":"uint256[]"},{"internalType":"uint256[]","name":"","type":"uint256[]"},{"internalType":"uint256[]","name":"","type":"uint256[]"},{"internalType":"enum SolidStateGallery.OrderState[]","name":"","type":"uint8[]"},{"internalType":"uint256[]","name":"","type":"uint256[]"}],"stateMutability":"view","type":"function"},{"inputs":[{"internalType":"address","name":"_newOwnerAddress","type":"address"}],"name":"newOwner","outputs":[],"stateMutability":"nonpayable","type":"function"},{"inputs":[{"internalType":"address","name":"_artworkAddress","type":"address"},{"internalType":"uint256","name":"shareValue","type":"uint256"},{"internalType":"uint256","name":"ethValue","type":"uint256"}],"name":"placeBuyOrder","outputs":[{"internalType":"uint256","name":"","type":"uint256"}],"stateMutability":"payable","type":"function"},{"inputs":[{"internalType":"address","name":"_artworkAddress","type":"address"},{"internalType":"uint256","name":"shareValue","type":"uint256"},{"internalType":"uint256","name":"ethValue","type":"uint256"}],"name":"placeSellOrder","outputs":[{"internalType":"uint256","name":"","type":"uint256"}],"stateMutability":"nonpayable","type":"function"},{"inputs":[{"internalType":"uint256","name":"","type":"uint256"}],"name":"sellOrders","outputs":[{"internalType":"address","name":"artworkAddress","type":"address"},{"internalType":"address","name":"orderOwner","type":"address"},{"internalType":"uint256","name":"shareValue","type":"uint256"},{"internalType":"uint256","name":"ethValue","type":"uint256"},{"internalType":"uint256","name":"balance","type":"uint256"},{"internalType":"enum SolidStateGallery.OrderState","name":"state","type":"uint8"}],"stateMutability":"view","type":"function"},{"inputs":[{"internalType":"address","name":"_artWorkContractAddress","type":"address"},{"internalType":"bool","name":"_visibility","type":"bool"}],"name":"setArtWorkVisibility","outputs":[],"stateMutability":"nonpayable","type":"function"}],"compiler":{"version":"0.8.11+commit.d7f03943","evm_version":"istanbul","optimizer":{"enabled":true,"runs":200}},"contractName":"SolidStateGallery","language":"Solidity","natspec":{"methods":{"getAllBuyOrders(address)":{"notice":"TRADE THE SHARES/TOKENS FOR ETH"}},"kind":"dev","version":1},"opcodes":"PUSH1 0x80 PUSH1 0x40 MSTORE PUSH1 0x4 CALLDATASIZE LT PUSH2 0x14B JUMPI PUSH1 0x0 CALLDATALOAD PUSH1 0xE0 SHR DUP1 PUSH4 0x89A5C415 GT PUSH2 0xB6 JUMPI DUP1 PUSH4 0xB92C1E8F GT PUSH2 0x6F JUMPI DUP1 PUSH4 0xB92C1E8F EQ PUSH2 0x44E JUMPI DUP1 PUSH4 0xBE5D147F EQ PUSH2 0x46E JUMPI DUP1 PUSH4 0xBED34BBA EQ PUSH2 0x48E JUMPI DUP1 PUSH4 0xC3DCAD97 EQ PUSH2 0x4BE JUMPI DUP1 PUSH4 0xE7C06A1C EQ PUSH2 0x4DE JUMPI DUP1 PUSH4 0xF437B29B EQ PUSH2 0x4FE JUMPI PUSH1 0x0 DUP1 REVERT JUMPDEST DUP1 PUSH4 0x89A5C415 EQ PUSH2 0x389 JUMPI DUP1 PUSH4 0x9296E00D EQ PUSH2 0x3B9 JUMPI DUP1 PUSH4 0x9E0B43CC EQ PUSH2 0x3D9 JUMPI DUP1 PUSH4 0xA0E67E2B EQ PUSH2 0x3F9 JUMPI DUP1 PUSH4 0xAB3600B5 EQ PUSH2 0x40E JUMPI DUP1 PUSH4 0xB8AEB2FD EQ PUSH2 0x42E JUMPI PUSH1 0x0 DUP1 REVERT JUMPDEST DUP1 PUSH4 0x431E8D63 GT PUSH2 0x108 JUMPI DUP1 PUSH4 0x431E8D63 EQ PUSH2 0x282 JUMPI DUP1 PUSH4 0x46E63586 EQ PUSH2 0x2A2 JUMPI DUP1 PUSH4 0x4A8393F3 EQ PUSH2 0x2C4 JUMPI DUP1 PUSH4 0x4FB93E7C EQ PUSH2 0x326 JUMPI DUP1 PUSH4 0x592E0355 EQ PUSH2 0x349 JUMPI DUP1 PUSH4 0x85952454 EQ PUSH2 0x369 JUMPI PUSH1 0x0 DUP1 REVERT JUMPDEST DUP1 PUSH4 0x1A46E42A EQ PUSH2 0x150 JUMPI DUP1 PUSH4 0x210BD526 EQ PUSH2 0x172 JUMPI DUP1 PUSH4 0x34FA4449 EQ PUSH2 0x1AD JUMPI DUP1 PUSH4 0x35CEA288 EQ PUSH2 0x1CD JUMPI DUP1 PUSH4 0x360A67C9 EQ PUSH2 0x23F JUMPI DUP1 PUSH4 0x382D0412 EQ PUSH2 0x260 JUMPI JUMPDEST PUSH1 0x0 DUP1 REVERT JUMPDEST CALLVALUE DUP1 ISZERO PUSH2 0x15C JUMPI PUSH1 0x0 DUP1 REVERT JUMPDEST POP PUSH2 0x170 PUSH2 0x16B CALLDATASIZE PUSH1 0x4 PUSH2 0x3147 JUMP JUMPDEST PUSH2 0x51E JUMP JUMPDEST STOP JUMPDEST CALLVALUE DUP1 ISZERO PUSH2 0x17E JUMPI PUSH1 0x0 DUP1 REVERT JUMPDEST POP PUSH2 0x192 PUSH2 0x18D CALLDATASIZE PUSH1 0x4 PUSH2 0x317C JUMP JUMPDEST PUSH2 0x6AB JUMP JUMPDEST PUSH1 0x40 MLOAD PUSH2 0x1A4 SWAP7 SWAP6 SWAP5 SWAP4 SWAP3 SWAP2 SWAP1 PUSH2 0x325B JUMP JUMPDEST PUSH1 0x40 MLOAD DUP1 SWAP2 SUB SWAP1 RETURN JUMPDEST CALLVALUE DUP1 ISZERO PUSH2 0x1B9 JUMPI PUSH1 0x0 DUP1 REVERT JUMPDEST POP PUSH2 0x170 PUSH2 0x1C8 CALLDATASIZE PUSH1 0x4 PUSH2 0x3308 JUMP JUMPDEST PUSH2 0xB5F JUMP JUMPDEST CALLVALUE DUP1 ISZERO PUSH2 0x1D9 JUMPI PUSH1 0x0 DUP1 REVERT JUMPDEST POP PUSH2 0x22D PUSH2 0x1E8 CALLDATASIZE PUSH1 0x4 PUSH2 0x3147 JUMP JUMPDEST PUSH1 0x0 PUSH1 0x20 DUP2 SWAP1 MSTORE SWAP1 DUP2 MSTORE PUSH1 0x40 SWAP1 KECCAK256 DUP1 SLOAD PUSH1 0x1 DUP3 ADD SLOAD PUSH1 0x2 DUP4 ADD SLOAD PUSH1 0x3 DUP5 ADD SLOAD PUSH1 0x4 DUP6 ADD SLOAD PUSH1 0x5 SWAP1 SWAP6 ADD SLOAD PUSH1 0x1 PUSH1 0x1 PUSH1 0xA0 SHL SUB SWAP5 DUP6 AND SWAP6 SWAP4 SWAP1 SWAP5 AND SWAP4 SWAP2 SWAP3 SWAP1 SWAP2 PUSH1 0xFF AND DUP7 JUMP JUMPDEST PUSH1 0x40 MLOAD PUSH2 0x1A4 SWAP7 SWAP6 SWAP5 SWAP4 SWAP3 SWAP2 SWAP1 PUSH2 0x3332 JUMP JUMPDEST PUSH2 0x252 PUSH2 0x24D CALLDATASIZE PUSH1 0x4 PUSH2 0x3377 JUMP JUMPDEST PUSH2 0xC7D JUMP JUMPDEST PUSH1 0x40 MLOAD SWAP1 DUP2 MSTORE PUSH1 0x20 ADD PUSH2 0x1A4 JUMP JUMPDEST CALLVALUE DUP1 ISZERO PUSH2 0x26C JUMPI PUSH1 0x0 DUP1 REVERT JUMPDEST POP PUSH2 0x275 PUSH2 0xDFE JUMP JUMPDEST PUSH1 0x40 MLOAD PUSH2 0x1A4 SWAP2 SWAP1 PUSH2 0x33AA JUMP JUMPDEST CALLVALUE DUP1 ISZERO PUSH2 0x28E JUMPI PUSH1 0x0 DUP1 REVERT JUMPDEST POP PUSH2 0x252 PUSH2 0x29D CALLDATASIZE PUSH1 0x4 PUSH2 0x3466 JUMP JUMPDEST PUSH2 0xF58 JUMP JUMPDEST CALLVALUE DUP1 ISZERO PUSH2 0x2AE JUMPI PUSH1 0x0 DUP1 REVERT JUMPDEST POP PUSH2 0x2B7 PUSH2 0x1088 JUMP JUMPDEST PUSH1 0x40 MLOAD PUSH2 0x1A4 SWAP2 SWAP1 PUSH2 0x34CA JUMP JUMPDEST CALLVALUE DUP1 ISZERO PUSH2 0x2D0 JUMPI PUSH1 0x0 DUP1 REVERT JUMPDEST POP PUSH2 0x22D PUSH2 0x2DF CALLDATASIZE PUSH1 0x4 PUSH2 0x3147 JUMP JUMPDEST PUSH1 0x1 PUSH1 0x20 DUP2 SWAP1 MSTORE PUSH1 0x0 SWAP2 DUP3 MSTORE PUSH1 0x40 SWAP1 SWAP2 KECCAK256 DUP1 SLOAD SWAP2 DUP2 ADD SLOAD PUSH1 0x2 DUP3 ADD SLOAD PUSH1 0x3 DUP4 ADD SLOAD PUSH1 0x4 DUP5 ADD SLOAD PUSH1 0x5 SWAP1 SWAP5 ADD SLOAD PUSH1 0x1 PUSH1 0x1 PUSH1 0xA0 SHL SUB SWAP6 DUP7 AND SWAP6 SWAP1 SWAP4 AND SWAP4 SWAP2 SWAP3 SWAP1 SWAP2 SWAP1 PUSH1 0xFF AND DUP7 JUMP JUMPDEST CALLVALUE DUP1 ISZERO PUSH2 0x332 JUMPI PUSH1 0x0 DUP1 REVERT JUMPDEST POP PUSH2 0x33B PUSH2 0x11B6 JUMP JUMPDEST PUSH1 0x40 MLOAD PUSH2 0x1A4 SWAP3 SWAP2 SWAP1 PUSH2 0x3544 JUMP JUMPDEST CALLVALUE DUP1 ISZERO PUSH2 0x355 JUMPI PUSH1 0x0 DUP1 REVERT JUMPDEST POP PUSH2 0x170 PUSH2 0x364 CALLDATASIZE PUSH1 0x4 PUSH2 0x3466 JUMP JUMPDEST PUSH2 0x1300 JUMP JUMPDEST CALLVALUE DUP1 ISZERO PUSH2 0x375 JUMPI PUSH1 0x0 DUP1 REVERT JUMPDEST POP PUSH2 0x170 PUSH2 0x384 CALLDATASIZE PUSH1 0x4 PUSH2 0x359D JUMP JUMPDEST PUSH2 0x147F JUMP JUMPDEST CALLVALUE DUP1 ISZERO PUSH2 0x395 JUMPI PUSH1 0x0 DUP1 REVERT JUMPDEST POP PUSH2 0x3A9 PUSH2 0x3A4 CALLDATASIZE PUSH1 0x4 PUSH2 0x359D JUMP JUMPDEST PUSH2 0x151B JUMP JUMPDEST PUSH1 0x40 MLOAD PUSH2 0x1A4 SWAP5 SWAP4 SWAP3 SWAP2 SWAP1 PUSH2 0x35B8 JUMP JUMPDEST CALLVALUE DUP1 ISZERO PUSH2 0x3C5 JUMPI PUSH1 0x0 DUP1 REVERT JUMPDEST POP PUSH2 0x3A9 PUSH2 0x3D4 CALLDATASIZE PUSH1 0x4 PUSH2 0x359D JUMP JUMPDEST PUSH2 0x183C JUMP JUMPDEST CALLVALUE DUP1 ISZERO PUSH2 0x3E5 JUMPI PUSH1 0x0 DUP1 REVERT JUMPDEST POP PUSH2 0x33B PUSH2 0x3F4 CALLDATASIZE PUSH1 0x4 PUSH2 0x3147 JUMP JUMPDEST PUSH2 0x1B4F JUMP JUMPDEST CALLVALUE DUP1 ISZERO PUSH2 0x405 JUMPI PUSH1 0x0 DUP1 REVERT JUMPDEST POP PUSH2 0x275 PUSH2 0x1D04 JUMP JUMPDEST CALLVALUE DUP1 ISZERO PUSH2 0x41A JUMPI PUSH1 0x0 DUP1 REVERT JUMPDEST POP PUSH2 0x275 PUSH2 0x429 CALLDATASIZE PUSH1 0x4 PUSH2 0x3147 JUMP JUMPDEST PUSH2 0x1D66 JUMP JUMPDEST CALLVALUE DUP1 ISZERO PUSH2 0x43A JUMPI PUSH1 0x0 DUP1 REVERT JUMPDEST POP PUSH2 0x170 PUSH2 0x449 CALLDATASIZE PUSH1 0x4 PUSH2 0x3616 JUMP JUMPDEST PUSH2 0x1EED JUMP JUMPDEST CALLVALUE DUP1 ISZERO PUSH2 0x45A JUMPI PUSH1 0x0 DUP1 REVERT JUMPDEST POP PUSH2 0x252 PUSH2 0x469 CALLDATASIZE PUSH1 0x4 PUSH2 0x359D JUMP JUMPDEST PUSH2 0x1F4D JUMP JUMPDEST CALLVALUE DUP1 ISZERO PUSH2 0x47A JUMPI PUSH1 0x0 DUP1 REVERT JUMPDEST POP PUSH2 0x170 PUSH2 0x489 CALLDATASIZE PUSH1 0x4 PUSH2 0x3147 JUMP JUMPDEST PUSH2 0x1FBA JUMP JUMPDEST CALLVALUE DUP1 ISZERO PUSH2 0x49A JUMPI PUSH1 0x0 DUP1 REVERT JUMPDEST POP PUSH2 0x4AE PUSH2 0x4A9 CALLDATASIZE PUSH1 0x4 PUSH2 0x364D JUMP JUMPDEST PUSH2 0x20F1 JUMP JUMPDEST PUSH1 0x40 MLOAD SWAP1 ISZERO ISZERO DUP2 MSTORE PUSH1 0x20 ADD PUSH2 0x1A4 JUMP JUMPDEST CALLVALUE DUP1 ISZERO PUSH2 0x4CA JUMPI PUSH1 0x0 DUP1 REVERT JUMPDEST POP PUSH2 0x192 PUSH2 0x4D9 CALLDATASIZE PUSH1 0x4 PUSH2 0x317C JUMP JUMPDEST PUSH2 0x214A JUMP JUMPDEST CALLVALUE DUP1 ISZERO PUSH2 0x4EA JUMPI PUSH1 0x0 DUP1 REVERT JUMPDEST POP PUSH2 0x252 PUSH2 0x4F9 CALLDATASIZE PUSH1 0x4 PUSH2 0x359D JUMP JUMPDEST PUSH2 0x25DE JUMP JUMPDEST CALLVALUE DUP1 ISZERO PUSH2 0x50A JUMPI PUSH1 0x0 DUP1 REVERT JUMPDEST POP PUSH2 0x252 PUSH2 0x519 CALLDATASIZE PUSH1 0x4 PUSH2 0x3377 JUMP JUMPDEST PUSH2 0x264B JUMP JUMPDEST PUSH1 0x0 DUP2 DUP2 MSTORE PUSH1 0x1 PUSH1 0x20 DUP2 SWAP1 MSTORE PUSH1 0x40 SWAP1 SWAP2 KECCAK256 ADD SLOAD PUSH1 0x1 PUSH1 0x1 PUSH1 0xA0 SHL SUB AND CALLER EQ PUSH2 0x58D JUMPI PUSH1 0x40 MLOAD PUSH3 0x461BCD PUSH1 0xE5 SHL DUP2 MSTORE PUSH1 0x20 PUSH1 0x4 DUP3 ADD MSTORE PUSH1 0x1D PUSH1 0x24 DUP3 ADD MSTORE PUSH32 0x6D73672E73656E646572206973206E6F74206F72646572206F776E6572000000 PUSH1 0x44 DUP3 ADD MSTORE PUSH1 0x64 ADD JUMPDEST PUSH1 0x40 MLOAD DUP1 SWAP2 SUB SWAP1 REVERT JUMPDEST PUSH1 0x0 DUP2 DUP2 MSTORE PUSH1 0x1 PUSH1 0x20 MSTORE PUSH1 0x40 DUP2 KECCAK256 PUSH1 0x5 ADD SLOAD PUSH1 0xFF AND PUSH1 0x2 DUP2 GT ISZERO PUSH2 0x5B3 JUMPI PUSH2 0x5B3 PUSH2 0x3223 JUMP JUMPDEST EQ PUSH2 0x5F4 JUMPI PUSH1 0x40 MLOAD PUSH3 0x461BCD PUSH1 0xE5 SHL DUP2 MSTORE PUSH1 0x20 PUSH1 0x4 DUP3 ADD MSTORE PUSH1 0x11 PUSH1 0x24 DUP3 ADD MSTORE PUSH17 0x37B93232B91034B9903737BA1037B832B7 PUSH1 0x79 SHL PUSH1 0x44 DUP3 ADD MSTORE PUSH1 0x64 ADD PUSH2 0x584 JUMP JUMPDEST PUSH1 0x0 DUP2 DUP2 MSTORE PUSH1 0x1 PUSH1 0x20 DUP2 SWAP1 MSTORE PUSH1 0x40 SWAP2 DUP3 SWAP1 KECCAK256 PUSH1 0x5 DUP2 ADD DUP1 SLOAD PUSH1 0xFF NOT AND PUSH1 0x2 OR SWAP1 SSTORE DUP1 SLOAD SWAP2 DUP2 ADD SLOAD PUSH1 0x4 SWAP2 DUP3 ADD SLOAD SWAP4 MLOAD PUSH4 0xA9059CBB PUSH1 0xE0 SHL DUP2 MSTORE PUSH1 0x1 PUSH1 0x1 PUSH1 0xA0 SHL SUB SWAP2 DUP3 AND SWAP3 DUP2 ADD SWAP3 SWAP1 SWAP3 MSTORE PUSH1 0x24 DUP3 ADD SWAP4 SWAP1 SWAP4 MSTORE SWAP2 AND SWAP1 PUSH4 0xA9059CBB SWAP1 PUSH1 0x44 ADD PUSH1 0x20 PUSH1 0x40 MLOAD DUP1 DUP4 SUB DUP2 PUSH1 0x0 DUP8 GAS CALL ISZERO DUP1 ISZERO PUSH2 0x672 JUMPI RETURNDATASIZE PUSH1 0x0 DUP1 RETURNDATACOPY RETURNDATASIZE PUSH1 0x0 REVERT JUMPDEST POP POP POP POP PUSH1 0x40 MLOAD RETURNDATASIZE PUSH1 0x1F NOT PUSH1 0x1F DUP3 ADD AND DUP3 ADD DUP1 PUSH1 0x40 MSTORE POP DUP2 ADD SWAP1 PUSH2 0x696 SWAP2 SWAP1 PUSH2 0x36B0 JUMP JUMPDEST POP PUSH1 0x0 SWAP1 DUP2 MSTORE PUSH1 0x1 PUSH1 0x20 MSTORE PUSH1 0x40 DUP2 KECCAK256 PUSH1 0x4 ADD SSTORE JUMP JUMPDEST PUSH1 0x60 DUP1 PUSH1 0x60 DUP1 PUSH1 0x60 DUP1 PUSH1 0x0 DUP1 JUMPDEST PUSH1 0x3 SLOAD DUP2 PUSH1 0xFF AND LT ISZERO PUSH2 0x735 JUMPI PUSH1 0xFF DUP2 AND PUSH1 0x0 SWAP1 DUP2 MSTORE PUSH1 0x1 PUSH1 0x20 MSTORE PUSH1 0x40 SWAP1 KECCAK256 SLOAD PUSH1 0x1 PUSH1 0x1 PUSH1 0xA0 SHL SUB DUP12 DUP2 AND SWAP2 AND EQ ISZERO PUSH2 0x723 JUMPI PUSH1 0xFF DUP2 AND PUSH1 0x0 SWAP1 DUP2 MSTORE PUSH1 0x1 PUSH1 0x20 DUP2 SWAP1 MSTORE PUSH1 0x40 SWAP1 SWAP2 KECCAK256 ADD SLOAD PUSH1 0x1 PUSH1 0x1 PUSH1 0xA0 SHL SUB DUP11 DUP2 AND SWAP2 AND EQ ISZERO PUSH2 0x723 JUMPI DUP2 PUSH2 0x71F DUP2 PUSH2 0x36E3 JUMP JUMPDEST SWAP3 POP POP JUMPDEST DUP1 PUSH2 0x72D DUP2 PUSH2 0x36E3 JUMP JUMPDEST SWAP2 POP POP PUSH2 0x6B8 JUMP JUMPDEST POP PUSH1 0x0 DUP2 PUSH1 0xFF AND PUSH1 0x1 PUSH1 0x1 PUSH1 0x40 SHL SUB DUP2 GT ISZERO PUSH2 0x753 JUMPI PUSH2 0x753 PUSH2 0x33C4 JUMP JUMPDEST PUSH1 0x40 MLOAD SWAP1 DUP1 DUP3 MSTORE DUP1 PUSH1 0x20 MUL PUSH1 0x20 ADD DUP3 ADD PUSH1 0x40 MSTORE DUP1 ISZERO PUSH2 0x77C JUMPI DUP2 PUSH1 0x20 ADD PUSH1 0x20 DUP3 MUL DUP1 CALLDATASIZE DUP4 CALLDATACOPY ADD SWAP1 POP JUMPDEST POP SWAP1 POP PUSH1 0x0 DUP3 PUSH1 0xFF AND PUSH1 0x1 PUSH1 0x1 PUSH1 0x40 SHL SUB DUP2 GT ISZERO PUSH2 0x79C JUMPI PUSH2 0x79C PUSH2 0x33C4 JUMP JUMPDEST PUSH1 0x40 MLOAD SWAP1 DUP1 DUP3 MSTORE DUP1 PUSH1 0x20 MUL PUSH1 0x20 ADD DUP3 ADD PUSH1 0x40 MSTORE DUP1 ISZERO PUSH2 0x7C5 JUMPI DUP2 PUSH1 0x20 ADD PUSH1 0x20 DUP3 MUL DUP1 CALLDATASIZE DUP4 CALLDATACOPY ADD SWAP1 POP JUMPDEST POP SWAP1 POP PUSH1 0x0 DUP4 PUSH1 0xFF AND PUSH1 0x1 PUSH1 0x1 PUSH1 0x40 SHL SUB DUP2 GT ISZERO PUSH2 0x7E5 JUMPI PUSH2 0x7E5 PUSH2 0x33C4 JUMP JUMPDEST PUSH1 0x40 MLOAD SWAP1 DUP1 DUP3 MSTORE DUP1 PUSH1 0x20 MUL PUSH1 0x20 ADD DUP3 ADD PUSH1 0x40 MSTORE DUP1 ISZERO PUSH2 0x80E JUMPI DUP2 PUSH1 0x20 ADD PUSH1 0x20 DUP3 MUL DUP1 CALLDATASIZE DUP4 CALLDATACOPY ADD SWAP1 POP JUMPDEST POP SWAP1 POP PUSH1 0x0 DUP5 PUSH1 0xFF AND PUSH1 0x1 PUSH1 0x1 PUSH1 0x40 SHL SUB DUP2 GT ISZERO PUSH2 0x82E JUMPI PUSH2 0x82E PUSH2 0x33C4 JUMP JUMPDEST PUSH1 0x40 MLOAD SWAP1 DUP1 DUP3 MSTORE DUP1 PUSH1 0x20 MUL PUSH1 0x20 ADD DUP3 ADD PUSH1 0x40 MSTORE DUP1 ISZERO PUSH2 0x857 JUMPI DUP2 PUSH1 0x20 ADD PUSH1 0x20 DUP3 MUL DUP1 CALLDATASIZE DUP4 CALLDATACOPY ADD SWAP1 POP JUMPDEST POP SWAP1 POP PUSH1 0x0 DUP6 PUSH1 0xFF AND PUSH1 0x1 PUSH1 0x1 PUSH1 0x40 SHL SUB DUP2 GT ISZERO PUSH2 0x877 JUMPI PUSH2 0x877 PUSH2 0x33C4 JUMP JUMPDEST PUSH1 0x40 MLOAD SWAP1 DUP1 DUP3 MSTORE DUP1 PUSH1 0x20 MUL PUSH1 0x20 ADD DUP3 ADD PUSH1 0x40 MSTORE DUP1 ISZERO PUSH2 0x8A0 JUMPI DUP2 PUSH1 0x20 ADD PUSH1 0x20 DUP3 MUL DUP1 CALLDATASIZE DUP4 CALLDATACOPY ADD SWAP1 POP JUMPDEST POP SWAP1 POP PUSH1 0x0 DUP7 PUSH1 0xFF AND PUSH1 0x1 PUSH1 0x1 PUSH1 0x40 SHL SUB DUP2 GT ISZERO PUSH2 0x8C0 JUMPI PUSH2 0x8C0 PUSH2 0x33C4 JUMP JUMPDEST PUSH1 0x40 MLOAD SWAP1 DUP1 DUP3 MSTORE DUP1 PUSH1 0x20 MUL PUSH1 0x20 ADD DUP3 ADD PUSH1 0x40 MSTORE DUP1 ISZERO PUSH2 0x8E9 JUMPI DUP2 PUSH1 0x20 ADD PUSH1 0x20 DUP3 MUL DUP1 CALLDATASIZE DUP4 CALLDATACOPY ADD SWAP1 POP JUMPDEST POP SWAP1 POP PUSH1 0x0 SWAP7 POP PUSH1 0x0 JUMPDEST PUSH1 0x3 SLOAD DUP2 PUSH1 0xFF AND LT ISZERO PUSH2 0xB47 JUMPI DUP15 PUSH1 0x1 PUSH1 0x1 PUSH1 0xA0 SHL SUB AND PUSH1 0x1 PUSH1 0x0 DUP4 PUSH1 0xFF AND DUP2 MSTORE PUSH1 0x20 ADD SWAP1 DUP2 MSTORE PUSH1 0x20 ADD PUSH1 0x0 KECCAK256 PUSH1 0x1 ADD PUSH1 0x0 SWAP1 SLOAD SWAP1 PUSH2 0x100 EXP SWAP1 DIV PUSH1 0x1 PUSH1 0x1 PUSH1 0xA0 SHL SUB AND PUSH1 0x1 PUSH1 0x1 PUSH1 0xA0 SHL SUB AND EQ ISZERO PUSH2 0xB35 JUMPI DUP16 PUSH1 0x1 PUSH1 0x1 PUSH1 0xA0 SHL SUB AND PUSH1 0x1 PUSH1 0x0 DUP4 PUSH1 0xFF AND DUP2 MSTORE PUSH1 0x20 ADD SWAP1 DUP2 MSTORE PUSH1 0x20 ADD PUSH1 0x0 KECCAK256 PUSH1 0x0 ADD PUSH1 0x0 SWAP1 SLOAD SWAP1 PUSH2 0x100 EXP SWAP1 DIV PUSH1 0x1 PUSH1 0x1 PUSH1 0xA0 SHL SUB AND PUSH1 0x1 PUSH1 0x1 PUSH1 0xA0 SHL SUB AND EQ ISZERO PUSH2 0xB35 JUMPI PUSH1 0xFF DUP1 DUP3 AND PUSH1 0x0 SWAP1 DUP2 MSTORE PUSH1 0x1 PUSH1 0x20 DUP2 SWAP1 MSTORE PUSH1 0x40 SWAP1 SWAP2 KECCAK256 ADD SLOAD DUP9 MLOAD PUSH1 0x1 PUSH1 0x1 PUSH1 0xA0 SHL SUB SWAP1 SWAP2 AND SWAP2 DUP10 SWAP2 SWAP1 DUP12 AND SWAP1 DUP2 LT PUSH2 0x9C6 JUMPI PUSH2 0x9C6 PUSH2 0x3703 JUMP JUMPDEST PUSH1 0x20 MUL PUSH1 0x20 ADD ADD SWAP1 PUSH1 0x1 PUSH1 0x1 PUSH1 0xA0 SHL SUB AND SWAP1 DUP2 PUSH1 0x1 PUSH1 0x1 PUSH1 0xA0 SHL SUB AND DUP2 MSTORE POP POP PUSH1 0x1 PUSH1 0x0 DUP3 PUSH1 0xFF AND DUP2 MSTORE PUSH1 0x20 ADD SWAP1 DUP2 MSTORE PUSH1 0x20 ADD PUSH1 0x0 KECCAK256 PUSH1 0x2 ADD SLOAD DUP7 DUP10 PUSH1 0xFF AND DUP2 MLOAD DUP2 LT PUSH2 0xA15 JUMPI PUSH2 0xA15 PUSH2 0x3703 JUMP JUMPDEST PUSH1 0x20 MUL PUSH1 0x20 ADD ADD DUP2 DUP2 MSTORE POP POP PUSH1 0x1 PUSH1 0x0 DUP3 PUSH1 0xFF AND DUP2 MSTORE PUSH1 0x20 ADD SWAP1 DUP2 MSTORE PUSH1 0x20 ADD PUSH1 0x0 KECCAK256 PUSH1 0x3 ADD SLOAD DUP6 DUP10 PUSH1 0xFF AND DUP2 MLOAD DUP2 LT PUSH2 0xA50 JUMPI PUSH2 0xA50 PUSH2 0x3703 JUMP JUMPDEST PUSH1 0x20 MUL PUSH1 0x20 ADD ADD DUP2 DUP2 MSTORE POP POP PUSH1 0x1 PUSH1 0x0 DUP3 PUSH1 0xFF AND DUP2 MSTORE PUSH1 0x20 ADD SWAP1 DUP2 MSTORE PUSH1 0x20 ADD PUSH1 0x0 KECCAK256 PUSH1 0x4 ADD SLOAD DUP5 DUP10 PUSH1 0xFF AND DUP2 MLOAD DUP2 LT PUSH2 0xA8B JUMPI PUSH2 0xA8B PUSH2 0x3703 JUMP JUMPDEST PUSH1 0x20 MUL PUSH1 0x20 ADD ADD DUP2 DUP2 MSTORE POP POP PUSH1 0x1 PUSH1 0x0 DUP3 PUSH1 0xFF AND DUP2 MSTORE PUSH1 0x20 ADD SWAP1 DUP2 MSTORE PUSH1 0x20 ADD PUSH1 0x0 KECCAK256 PUSH1 0x5 ADD PUSH1 0x0 SWAP1 SLOAD SWAP1 PUSH2 0x100 EXP SWAP1 DIV PUSH1 0xFF AND DUP3 DUP10 PUSH1 0xFF AND DUP2 MLOAD DUP2 LT PUSH2 0xAD3 JUMPI PUSH2 0xAD3 PUSH2 0x3703 JUMP JUMPDEST PUSH1 0x20 MUL PUSH1 0x20 ADD ADD SWAP1 PUSH1 0x2 DUP2 GT ISZERO PUSH2 0xAEC JUMPI PUSH2 0xAEC PUSH2 0x3223 JUMP JUMPDEST SWAP1 DUP2 PUSH1 0x2 DUP2 GT ISZERO PUSH2 0xAFF JUMPI PUSH2 0xAFF PUSH2 0x3223 JUMP JUMPDEST DUP2 MSTORE POP POP DUP1 PUSH1 0xFF AND DUP4 DUP10 PUSH1 0xFF AND DUP2 MLOAD DUP2 LT PUSH2 0xB1C JUMPI PUSH2 0xB1C PUSH2 0x3703 JUMP JUMPDEST PUSH1 0x20 SWAP1 DUP2 MUL SWAP2 SWAP1 SWAP2 ADD ADD MSTORE DUP8 PUSH2 0xB31 DUP2 PUSH2 0x36E3 JUMP JUMPDEST SWAP9 POP POP JUMPDEST DUP1 PUSH2 0xB3F DUP2 PUSH2 0x36E3 JUMP JUMPDEST SWAP2 POP POP PUSH2 0x8F3 JUMP JUMPDEST POP SWAP5 SWAP15 SWAP4 SWAP14 POP SWAP2 SWAP12 POP SWAP10 POP SWAP2 SWAP8 POP SWAP1 SWAP6 POP SWAP4 POP POP POP POP JUMP JUMPDEST PUSH1 0xA PUSH1 0xB SLOAD DUP2 SLOAD DUP2 LT PUSH2 0xB74 JUMPI PUSH2 0xB74 PUSH2 0x3703 JUMP JUMPDEST PUSH1 0x0 SWAP2 DUP3 MSTORE PUSH1 0x20 SWAP1 SWAP2 KECCAK256 ADD SLOAD PUSH1 0x1 PUSH1 0x1 PUSH1 0xA0 SHL SUB AND CALLER EQ PUSH2 0xB94 JUMPI PUSH1 0x0 DUP1 REVERT JUMPDEST PUSH1 0x0 JUMPDEST PUSH1 0x8 SLOAD DUP2 LT ISZERO PUSH2 0xC16 JUMPI PUSH1 0x0 DUP2 DUP2 MSTORE PUSH1 0x4 PUSH1 0x20 MSTORE PUSH1 0x40 SWAP1 KECCAK256 SLOAD PUSH1 0x1 PUSH1 0x1 PUSH1 0xA0 SHL SUB DUP5 DUP2 AND SWAP2 AND EQ ISZERO PUSH2 0xC04 JUMPI PUSH1 0x40 MLOAD PUSH3 0x461BCD PUSH1 0xE5 SHL DUP2 MSTORE PUSH1 0x20 PUSH1 0x4 DUP3 ADD MSTORE PUSH1 0x16 PUSH1 0x24 DUP3 ADD MSTORE PUSH22 0x105C9D081DDBDC9AC8185B1C9958591E481859191959 PUSH1 0x52 SHL PUSH1 0x44 DUP3 ADD MSTORE PUSH1 0x64 ADD PUSH2 0x584 JUMP JUMPDEST DUP1 PUSH2 0xC0E DUP2 PUSH2 0x3719 JUMP JUMPDEST SWAP2 POP POP PUSH2 0xB97 JUMP JUMPDEST POP PUSH1 0x8 DUP1 SLOAD PUSH1 0x0 SWAP1 DUP2 MSTORE PUSH1 0x4 PUSH1 0x20 SWAP1 DUP2 MSTORE PUSH1 0x40 DUP1 DUP4 KECCAK256 DUP1 SLOAD PUSH1 0x1 PUSH1 0x1 PUSH1 0xA0 SHL SUB NOT AND PUSH1 0x1 PUSH1 0x1 PUSH1 0xA0 SHL SUB DUP9 AND SWAP1 DUP2 OR SWAP1 SWAP2 SSTORE DUP5 SLOAD DUP5 MSTORE PUSH1 0x6 DUP4 MSTORE DUP2 DUP5 KECCAK256 DUP7 SWAP1 SSTORE DUP4 MSTORE PUSH1 0x7 SWAP1 SWAP2 MSTORE DUP2 KECCAK256 DUP1 SLOAD PUSH1 0xFF NOT AND SWAP1 SSTORE DUP2 SLOAD SWAP2 SWAP1 PUSH2 0xC74 DUP4 PUSH2 0x3719 JUMP JUMPDEST SWAP2 SWAP1 POP SSTORE POP POP POP JUMP JUMPDEST PUSH1 0x0 DUP1 DUP4 GT PUSH2 0xC9E JUMPI PUSH1 0x40 MLOAD PUSH3 0x461BCD PUSH1 0xE5 SHL DUP2 MSTORE PUSH1 0x4 ADD PUSH2 0x584 SWAP1 PUSH2 0x3734 JUMP JUMPDEST PUSH1 0x0 DUP3 GT PUSH2 0xCBE JUMPI PUSH1 0x40 MLOAD PUSH3 0x461BCD PUSH1 0xE5 SHL DUP2 MSTORE PUSH1 0x4 ADD PUSH2 0x584 SWAP1 PUSH2 0x3734 JUMP JUMPDEST DUP2 PUSH2 0xCC9 DUP5 CALLVALUE PUSH2 0x376B JUMP JUMPDEST EQ PUSH2 0xD0B JUMPI PUSH1 0x40 MLOAD PUSH3 0x461BCD PUSH1 0xE5 SHL DUP2 MSTORE PUSH1 0x20 PUSH1 0x4 DUP3 ADD MSTORE PUSH1 0x12 PUSH1 0x24 DUP3 ADD MSTORE PUSH18 0x31B0B7103737BA1036B0B5B29037B93232B9 PUSH1 0x71 SHL PUSH1 0x44 DUP3 ADD MSTORE PUSH1 0x64 ADD PUSH2 0x584 JUMP JUMPDEST PUSH1 0x40 DUP1 MLOAD PUSH1 0xC0 DUP2 ADD DUP3 MSTORE PUSH1 0x1 PUSH1 0x1 PUSH1 0xA0 SHL SUB DUP7 DUP2 AND DUP3 MSTORE CALLER PUSH1 0x20 DUP1 DUP5 ADD SWAP2 DUP3 MSTORE DUP4 DUP6 ADD DUP9 DUP2 MSTORE PUSH1 0x60 DUP6 ADD DUP9 DUP2 MSTORE CALLVALUE PUSH1 0x80 DUP8 ADD SWAP1 DUP2 MSTORE PUSH1 0x0 PUSH1 0xA0 DUP9 ADD DUP2 DUP2 MSTORE PUSH1 0x2 DUP1 SLOAD DUP4 MSTORE SWAP6 DUP3 SWAP1 MSTORE SWAP9 SWAP1 KECCAK256 DUP8 MLOAD DUP2 SLOAD SWAP1 DUP9 AND PUSH1 0x1 PUSH1 0x1 PUSH1 0xA0 SHL SUB NOT SWAP2 DUP3 AND OR DUP3 SSTORE SWAP6 MLOAD PUSH1 0x1 DUP1 DUP4 ADD DUP1 SLOAD SWAP3 SWAP1 SWAP10 AND SWAP2 SWAP1 SWAP8 AND OR SWAP1 SWAP7 SSTORE SWAP2 MLOAD DUP6 DUP5 ADD SSTORE MLOAD PUSH1 0x3 DUP6 ADD SSTORE MLOAD PUSH1 0x4 DUP5 ADD SSTORE SWAP4 MLOAD PUSH1 0x5 DUP4 ADD DUP1 SLOAD SWAP5 SWAP6 SWAP4 SWAP5 SWAP2 SWAP4 SWAP1 SWAP3 PUSH1 0xFF NOT SWAP1 SWAP3 AND SWAP2 SWAP1 DUP5 SWAP1 DUP2 GT ISZERO PUSH2 0xDBC JUMPI PUSH2 0xDBC PUSH2 0x3223 JUMP JUMPDEST MUL OR SWAP1 SSTORE POP SWAP1 POP POP PUSH2 0xDCF PUSH1 0x2 SLOAD PUSH2 0x27F7 JUMP JUMPDEST PUSH1 0x1 PUSH1 0x2 PUSH1 0x0 DUP3 DUP3 SLOAD PUSH2 0xDE2 SWAP2 SWAP1 PUSH2 0x378D JUMP JUMPDEST SWAP1 SWAP2 SSTORE POP POP PUSH1 0x2 SLOAD PUSH2 0xDF6 SWAP1 PUSH1 0x1 SWAP1 PUSH2 0x37A5 JUMP JUMPDEST SWAP5 SWAP4 POP POP POP POP JUMP JUMPDEST PUSH1 0x60 PUSH1 0x0 DUP1 JUMPDEST PUSH1 0x8 SLOAD DUP2 LT ISZERO PUSH2 0xE60 JUMPI PUSH1 0x0 DUP2 DUP2 MSTORE PUSH1 0x4 PUSH1 0x20 SWAP1 DUP2 MSTORE PUSH1 0x40 DUP1 DUP4 KECCAK256 SLOAD PUSH1 0x1 PUSH1 0x1 PUSH1 0xA0 SHL SUB AND DUP4 MSTORE PUSH1 0x7 SWAP1 SWAP2 MSTORE SWAP1 KECCAK256 SLOAD PUSH1 0xFF AND ISZERO ISZERO PUSH1 0x1 EQ ISZERO PUSH2 0xE4E JUMPI DUP2 PUSH2 0xE4A DUP2 PUSH2 0x3719 JUMP JUMPDEST SWAP3 POP POP JUMPDEST DUP1 PUSH2 0xE58 DUP2 PUSH2 0x3719 JUMP JUMPDEST SWAP2 POP POP PUSH2 0xE04 JUMP JUMPDEST POP PUSH1 0x0 DUP2 PUSH1 0x1 PUSH1 0x1 PUSH1 0x40 SHL SUB DUP2 GT ISZERO PUSH2 0xE7B JUMPI PUSH2 0xE7B PUSH2 0x33C4 JUMP JUMPDEST PUSH1 0x40 MLOAD SWAP1 DUP1 DUP3 MSTORE DUP1 PUSH1 0x20 MUL PUSH1 0x20 ADD DUP3 ADD PUSH1 0x40 MSTORE DUP1 ISZERO PUSH2 0xEA4 JUMPI DUP2 PUSH1 0x20 ADD PUSH1 0x20 DUP3 MUL DUP1 CALLDATASIZE DUP4 CALLDATACOPY ADD SWAP1 POP JUMPDEST POP SWAP1 POP PUSH1 0x0 SWAP2 POP PUSH1 0x0 JUMPDEST PUSH1 0x8 SLOAD DUP2 LT ISZERO PUSH2 0xF51 JUMPI PUSH1 0x0 DUP2 DUP2 MSTORE PUSH1 0x4 PUSH1 0x20 SWAP1 DUP2 MSTORE PUSH1 0x40 DUP1 DUP4 KECCAK256 SLOAD PUSH1 0x1 PUSH1 0x1 PUSH1 0xA0 SHL SUB AND DUP4 MSTORE PUSH1 0x7 SWAP1 SWAP2 MSTORE SWAP1 KECCAK256 SLOAD PUSH1 0xFF AND ISZERO ISZERO PUSH1 0x1 EQ ISZERO PUSH2 0xF3F JUMPI PUSH1 0x0 DUP2 DUP2 MSTORE PUSH1 0x4 PUSH1 0x20 MSTORE PUSH1 0x40 SWAP1 KECCAK256 SLOAD DUP3 MLOAD PUSH1 0x1 PUSH1 0x1 PUSH1 0xA0 SHL SUB SWAP1 SWAP2 AND SWAP1 DUP4 SWAP1 DUP6 SWAP1 DUP2 LT PUSH2 0xF19 JUMPI PUSH2 0xF19 PUSH2 0x3703 JUMP JUMPDEST PUSH1 0x1 PUSH1 0x1 PUSH1 0xA0 SHL SUB SWAP1 SWAP3 AND PUSH1 0x20 SWAP3 DUP4 MUL SWAP2 SWAP1 SWAP2 ADD SWAP1 SWAP2 ADD MSTORE DUP3 PUSH2 0xF3B DUP2 PUSH2 0x3719 JUMP JUMPDEST SWAP4 POP POP JUMPDEST DUP1 PUSH2 0xF49 DUP2 PUSH2 0x3719 JUMP JUMPDEST SWAP2 POP POP PUSH2 0xEAE JUMP JUMPDEST POP SWAP3 SWAP2 POP POP JUMP JUMPDEST PUSH1 0x0 DUP1 DUP1 JUMPDEST PUSH1 0x9 SLOAD DUP2 LT ISZERO PUSH2 0x102C JUMPI PUSH1 0x0 DUP2 DUP2 MSTORE PUSH1 0x5 PUSH1 0x20 MSTORE PUSH1 0x40 SWAP1 KECCAK256 DUP1 SLOAD PUSH2 0x1009 SWAP2 SWAP1 PUSH2 0xF85 SWAP1 PUSH2 0x37BC JUMP JUMPDEST DUP1 PUSH1 0x1F ADD PUSH1 0x20 DUP1 SWAP2 DIV MUL PUSH1 0x20 ADD PUSH1 0x40 MLOAD SWAP1 DUP2 ADD PUSH1 0x40 MSTORE DUP1 SWAP3 SWAP2 SWAP1 DUP2 DUP2 MSTORE PUSH1 0x20 ADD DUP3 DUP1 SLOAD PUSH2 0xFB1 SWAP1 PUSH2 0x37BC JUMP JUMPDEST DUP1 ISZERO PUSH2 0xFFE JUMPI DUP1 PUSH1 0x1F LT PUSH2 0xFD3 JUMPI PUSH2 0x100 DUP1 DUP4 SLOAD DIV MUL DUP4 MSTORE SWAP2 PUSH1 0x20 ADD SWAP2 PUSH2 0xFFE JUMP JUMPDEST DUP3 ADD SWAP2 SWAP1 PUSH1 0x0 MSTORE PUSH1 0x20 PUSH1 0x0 KECCAK256 SWAP1 JUMPDEST DUP2 SLOAD DUP2 MSTORE SWAP1 PUSH1 0x1 ADD SWAP1 PUSH1 0x20 ADD DUP1 DUP4 GT PUSH2 0xFE1 JUMPI DUP3 SWAP1 SUB PUSH1 0x1F AND DUP3 ADD SWAP2 JUMPDEST POP POP POP POP POP DUP6 PUSH2 0x20F1 JUMP JUMPDEST ISZERO ISZERO PUSH1 0x1 EQ ISZERO PUSH2 0x101A JUMPI SWAP4 SWAP3 POP POP POP JUMP JUMPDEST DUP1 PUSH2 0x1024 DUP2 PUSH2 0x3719 JUMP JUMPDEST SWAP2 POP POP PUSH2 0xF5D JUMP JUMPDEST POP PUSH1 0x1 DUP2 ISZERO ISZERO EQ PUSH2 0x107F JUMPI PUSH1 0x40 MLOAD PUSH3 0x461BCD PUSH1 0xE5 SHL DUP2 MSTORE PUSH1 0x20 PUSH1 0x4 DUP3 ADD MSTORE PUSH1 0x1A PUSH1 0x24 DUP3 ADD MSTORE PUSH32 0x4E6F20436F6C6C656374696F6E2042792054686174204E616D65000000000000 PUSH1 0x44 DUP3 ADD MSTORE PUSH1 0x64 ADD PUSH2 0x584 JUMP JUMPDEST POP PUSH1 0x0 SWAP3 SWAP2 POP POP JUMP JUMPDEST PUSH1 0x60 PUSH1 0x0 PUSH1 0x9 SLOAD PUSH1 0x1 PUSH1 0x1 PUSH1 0x40 SHL SUB DUP2 GT ISZERO PUSH2 0x10A6 JUMPI PUSH2 0x10A6 PUSH2 0x33C4 JUMP JUMPDEST PUSH1 0x40 MLOAD SWAP1 DUP1 DUP3 MSTORE DUP1 PUSH1 0x20 MUL PUSH1 0x20 ADD DUP3 ADD PUSH1 0x40 MSTORE DUP1 ISZERO PUSH2 0x10D9 JUMPI DUP2 PUSH1 0x20 ADD JUMPDEST PUSH1 0x60 DUP2 MSTORE PUSH1 0x20 ADD SWAP1 PUSH1 0x1 SWAP1 SUB SWAP1 DUP2 PUSH2 0x10C4 JUMPI SWAP1 POP JUMPDEST POP SWAP1 POP PUSH1 0x0 JUMPDEST PUSH1 0x9 SLOAD DUP2 LT ISZERO PUSH2 0x11B0 JUMPI PUSH1 0x0 DUP2 DUP2 MSTORE PUSH1 0x5 PUSH1 0x20 MSTORE PUSH1 0x40 SWAP1 KECCAK256 DUP1 SLOAD PUSH2 0x1102 SWAP1 PUSH2 0x37BC JUMP JUMPDEST DUP1 PUSH1 0x1F ADD PUSH1 0x20 DUP1 SWAP2 DIV MUL PUSH1 0x20 ADD PUSH1 0x40 MLOAD SWAP1 DUP2 ADD PUSH1 0x40 MSTORE DUP1 SWAP3 SWAP2 SWAP1 DUP2 DUP2 MSTORE PUSH1 0x20 ADD DUP3 DUP1 SLOAD PUSH2 0x112E SWAP1 PUSH2 0x37BC JUMP JUMPDEST DUP1 ISZERO PUSH2 0x117B JUMPI DUP1 PUSH1 0x1F LT PUSH2 0x1150 JUMPI PUSH2 0x100 DUP1 DUP4 SLOAD DIV MUL DUP4 MSTORE SWAP2 PUSH1 0x20 ADD SWAP2 PUSH2 0x117B JUMP JUMPDEST DUP3 ADD SWAP2 SWAP1 PUSH1 0x0 MSTORE PUSH1 0x20 PUSH1 0x0 KECCAK256 SWAP1 JUMPDEST DUP2 SLOAD DUP2 MSTORE SWAP1 PUSH1 0x1 ADD SWAP1 PUSH1 0x20 ADD DUP1 DUP4 GT PUSH2 0x115E JUMPI DUP3 SWAP1 SUB PUSH1 0x1F AND DUP3 ADD SWAP2 JUMPDEST POP POP POP POP POP DUP3 DUP3 DUP2 MLOAD DUP2 LT PUSH2 0x1192 JUMPI PUSH2 0x1192 PUSH2 0x3703 JUMP JUMPDEST PUSH1 0x20 MUL PUSH1 0x20 ADD ADD DUP2 SWAP1 MSTORE POP DUP1 DUP1 PUSH2 0x11A8 SWAP1 PUSH2 0x3719 JUMP JUMPDEST SWAP2 POP POP PUSH2 0x10DF JUMP JUMPDEST POP SWAP2 SWAP1 POP JUMP JUMPDEST PUSH1 0x60 DUP1 PUSH1 0x0 PUSH1 0x8 SLOAD PUSH1 0x1 PUSH1 0x1 PUSH1 0x40 SHL SUB DUP2 GT ISZERO PUSH2 0x11D5 JUMPI PUSH2 0x11D5 PUSH2 0x33C4 JUMP JUMPDEST PUSH1 0x40 MLOAD SWAP1 DUP1 DUP3 MSTORE DUP1 PUSH1 0x20 MUL PUSH1 0x20 ADD DUP3 ADD PUSH1 0x40 MSTORE DUP1 ISZERO PUSH2 0x11FE JUMPI DUP2 PUSH1 0x20 ADD PUSH1 0x20 DUP3 MUL DUP1 CALLDATASIZE DUP4 CALLDATACOPY ADD SWAP1 POP JUMPDEST POP SWAP1 POP PUSH1 0x0 PUSH1 0x8 SLOAD PUSH1 0x1 PUSH1 0x1 PUSH1 0x40 SHL SUB DUP2 GT ISZERO PUSH2 0x121D JUMPI PUSH2 0x121D PUSH2 0x33C4 JUMP JUMPDEST PUSH1 0x40 MLOAD SWAP1 DUP1 DUP3 MSTORE DUP1 PUSH1 0x20 MUL PUSH1 0x20 ADD DUP3 ADD PUSH1 0x40 MSTORE DUP1 ISZERO PUSH2 0x1246 JUMPI DUP2 PUSH1 0x20 ADD PUSH1 0x20 DUP3 MUL DUP1 CALLDATASIZE DUP4 CALLDATACOPY ADD SWAP1 POP JUMPDEST POP SWAP1 POP PUSH1 0x0 JUMPDEST PUSH1 0x8 SLOAD DUP2 LT ISZERO PUSH2 0x12F6 JUMPI PUSH1 0x0 DUP2 DUP2 MSTORE PUSH1 0x4 PUSH1 0x20 MSTORE PUSH1 0x40 SWAP1 KECCAK256 SLOAD DUP4 MLOAD PUSH1 0x1 PUSH1 0x1 PUSH1 0xA0 SHL SUB SWAP1 SWAP2 AND SWAP1 DUP5 SWAP1 DUP4 SWAP1 DUP2 LT PUSH2 0x1285 JUMPI PUSH2 0x1285 PUSH2 0x3703 JUMP JUMPDEST PUSH1 0x1 PUSH1 0x1 PUSH1 0xA0 SHL SUB SWAP3 DUP4 AND PUSH1 0x20 SWAP2 DUP3 MUL SWAP3 SWAP1 SWAP3 ADD DUP2 ADD SWAP2 SWAP1 SWAP2 MSTORE PUSH1 0x0 DUP4 DUP2 MSTORE PUSH1 0x4 DUP3 MSTORE PUSH1 0x40 DUP1 DUP3 KECCAK256 SLOAD SWAP1 SWAP4 AND DUP2 MSTORE PUSH1 0x7 SWAP1 SWAP2 MSTORE KECCAK256 SLOAD DUP3 MLOAD PUSH1 0xFF SWAP1 SWAP2 AND SWAP1 DUP4 SWAP1 DUP4 SWAP1 DUP2 LT PUSH2 0x12D4 JUMPI PUSH2 0x12D4 PUSH2 0x3703 JUMP JUMPDEST SWAP2 ISZERO ISZERO PUSH1 0x20 SWAP3 DUP4 MUL SWAP2 SWAP1 SWAP2 ADD SWAP1 SWAP2 ADD MSTORE DUP1 PUSH2 0x12EE DUP2 PUSH2 0x3719 JUMP JUMPDEST SWAP2 POP POP PUSH2 0x124C JUMP JUMPDEST POP SWAP1 SWAP4 SWAP1 SWAP3 POP SWAP1 POP JUMP JUMPDEST PUSH1 0xA PUSH1 0xB SLOAD DUP2 SLOAD DUP2 LT PUSH2 0x1315 JUMPI PUSH2 0x1315 PUSH2 0x3703 JUMP JUMPDEST PUSH1 0x0 SWAP2 DUP3 MSTORE PUSH1 0x20 SWAP1 SWAP2 KECCAK256 ADD SLOAD PUSH1 0x1 PUSH1 0x1 PUSH1 0xA0 SHL SUB AND CALLER EQ PUSH2 0x1335 JUMPI PUSH1 0x0 DUP1 REVERT JUMPDEST PUSH1 0x0 JUMPDEST PUSH1 0x9 SLOAD DUP2 LT ISZERO PUSH2 0x1443 JUMPI PUSH1 0x0 DUP2 DUP2 MSTORE PUSH1 0x5 PUSH1 0x20 MSTORE PUSH1 0x40 SWAP1 KECCAK256 DUP1 SLOAD PUSH2 0x13E4 SWAP2 SWAP1 PUSH2 0x1360 SWAP1 PUSH2 0x37BC JUMP JUMPDEST DUP1 PUSH1 0x1F ADD PUSH1 0x20 DUP1 SWAP2 DIV MUL PUSH1 0x20 ADD PUSH1 0x40 MLOAD SWAP1 DUP2 ADD PUSH1 0x40 MSTORE DUP1 SWAP3 SWAP2 SWAP1 DUP2 DUP2 MSTORE PUSH1 0x20 ADD DUP3 DUP1 SLOAD PUSH2 0x138C SWAP1 PUSH2 0x37BC JUMP JUMPDEST DUP1 ISZERO PUSH2 0x13D9 JUMPI DUP1 PUSH1 0x1F LT PUSH2 0x13AE JUMPI PUSH2 0x100 DUP1 DUP4 SLOAD DIV MUL DUP4 MSTORE SWAP2 PUSH1 0x20 ADD SWAP2 PUSH2 0x13D9 JUMP JUMPDEST DUP3 ADD SWAP2 SWAP1 PUSH1 0x0 MSTORE PUSH1 0x20 PUSH1 0x0 KECCAK256 SWAP1 JUMPDEST DUP2 SLOAD DUP2 MSTORE SWAP1 PUSH1 0x1 ADD SWAP1 PUSH1 0x20 ADD DUP1 DUP4 GT PUSH2 0x13BC JUMPI DUP3 SWAP1 SUB PUSH1 0x1F AND DUP3 ADD SWAP2 JUMPDEST POP POP POP POP POP DUP4 PUSH2 0x20F1 JUMP JUMPDEST ISZERO PUSH2 0x1431 JUMPI PUSH1 0x40 MLOAD PUSH3 0x461BCD PUSH1 0xE5 SHL DUP2 MSTORE PUSH1 0x20 PUSH1 0x4 DUP3 ADD MSTORE PUSH1 0x1B PUSH1 0x24 DUP3 ADD MSTORE PUSH32 0x436F6C6C656374696F6E20697320616C72656164792061646465640000000000 PUSH1 0x44 DUP3 ADD MSTORE PUSH1 0x64 ADD PUSH2 0x584 JUMP JUMPDEST DUP1 PUSH2 0x143B DUP2 PUSH2 0x3719 JUMP JUMPDEST SWAP2 POP POP PUSH2 0x1338 JUMP JUMPDEST POP PUSH1 0x9 SLOAD PUSH1 0x0 SWAP1 DUP2 MSTORE PUSH1 0x5 PUSH1 0x20 SWAP1 DUP2 MSTORE PUSH1 0x40 SWAP1 SWAP2 KECCAK256 DUP3 MLOAD PUSH2 0x1466 SWAP3 DUP5 ADD SWAP1 PUSH2 0x30AE JUMP JUMPDEST POP PUSH1 0x9 DUP1 SLOAD SWAP1 PUSH1 0x0 PUSH2 0x1477 DUP4 PUSH2 0x3719 JUMP JUMPDEST SWAP2 SWAP1 POP SSTORE POP POP JUMP JUMPDEST PUSH1 0xA PUSH1 0xB SLOAD DUP2 SLOAD DUP2 LT PUSH2 0x1494 JUMPI PUSH2 0x1494 PUSH2 0x3703 JUMP JUMPDEST PUSH1 0x0 SWAP2 DUP3 MSTORE PUSH1 0x20 SWAP1 SWAP2 KECCAK256 ADD SLOAD PUSH1 0x1 PUSH1 0x1 PUSH1 0xA0 SHL SUB AND CALLER EQ PUSH2 0x14B4 JUMPI PUSH1 0x0 DUP1 REVERT JUMPDEST PUSH1 0xB DUP1 SLOAD SWAP1 PUSH1 0x0 PUSH2 0x14C4 DUP4 PUSH2 0x3719 JUMP JUMPDEST SWAP1 SWAP2 SSTORE POP POP PUSH1 0xA DUP1 SLOAD PUSH1 0x1 DUP2 ADD DUP3 SSTORE PUSH1 0x0 SWAP2 SWAP1 SWAP2 MSTORE PUSH32 0xC65A7BB8D6351C1CF70C95A316CC6A92839C986682D98BC35F958F4883F9D2A8 ADD DUP1 SLOAD PUSH1 0x1 PUSH1 0x1 PUSH1 0xA0 SHL SUB NOT AND PUSH1 0x1 PUSH1 0x1 PUSH1 0xA0 SHL SUB SWAP3 SWAP1 SWAP3 AND SWAP2 SWAP1 SWAP2 OR SWAP1 SSTORE JUMP JUMPDEST PUSH1 0x60 DUP1 PUSH1 0x60 DUP1 PUSH1 0x0 DUP1 JUMPDEST PUSH1 0x2 SLOAD DUP2 PUSH1 0xFF AND LT ISZERO PUSH2 0x15A9 JUMPI PUSH1 0x0 PUSH1 0xFF DUP1 DUP4 AND PUSH1 0x0 SWAP1 DUP2 MSTORE PUSH1 0x20 DUP2 SWAP1 MSTORE PUSH1 0x40 SWAP1 KECCAK256 PUSH1 0x5 ADD SLOAD AND PUSH1 0x2 DUP2 GT ISZERO PUSH2 0x155D JUMPI PUSH2 0x155D PUSH2 0x3223 JUMP JUMPDEST EQ ISZERO PUSH2 0x1597 JUMPI PUSH1 0xFF DUP2 AND PUSH1 0x0 SWAP1 DUP2 MSTORE PUSH1 0x20 DUP2 SWAP1 MSTORE PUSH1 0x40 SWAP1 KECCAK256 SLOAD PUSH1 0x1 PUSH1 0x1 PUSH1 0xA0 SHL SUB DUP9 DUP2 AND SWAP2 AND EQ ISZERO PUSH2 0x1597 JUMPI PUSH2 0x1594 PUSH1 0x1 DUP4 PUSH2 0x37F1 JUMP JUMPDEST SWAP2 POP JUMPDEST DUP1 PUSH2 0x15A1 DUP2 PUSH2 0x36E3 JUMP JUMPDEST SWAP2 POP POP PUSH2 0x1525 JUMP JUMPDEST POP PUSH1 0x0 DUP2 PUSH1 0xFF AND PUSH1 0x1 PUSH1 0x1 PUSH1 0x40 SHL SUB DUP2 GT ISZERO PUSH2 0x15C7 JUMPI PUSH2 0x15C7 PUSH2 0x33C4 JUMP JUMPDEST PUSH1 0x40 MLOAD SWAP1 DUP1 DUP3 MSTORE DUP1 PUSH1 0x20 MUL PUSH1 0x20 ADD DUP3 ADD PUSH1 0x40 MSTORE DUP1 ISZERO PUSH2 0x15F0 JUMPI DUP2 PUSH1 0x20 ADD PUSH1 0x20 DUP3 MUL DUP1 CALLDATASIZE DUP4 CALLDATACOPY ADD SWAP1 POP JUMPDEST POP SWAP1 POP PUSH1 0x0 DUP3 PUSH1 0xFF AND PUSH1 0x1 PUSH1 0x1 PUSH1 0x40 SHL SUB DUP2 GT ISZERO PUSH2 0x1610 JUMPI PUSH2 0x1610 PUSH2 0x33C4 JUMP JUMPDEST PUSH1 0x40 MLOAD SWAP1 DUP1 DUP3 MSTORE DUP1 PUSH1 0x20 MUL PUSH1 0x20 ADD DUP3 ADD PUSH1 0x40 MSTORE DUP1 ISZERO PUSH2 0x1639 JUMPI DUP2 PUSH1 0x20 ADD PUSH1 0x20 DUP3 MUL DUP1 CALLDATASIZE DUP4 CALLDATACOPY ADD SWAP1 POP JUMPDEST POP SWAP1 POP PUSH1 0x0 DUP4 PUSH1 0xFF AND PUSH1 0x1 PUSH1 0x1 PUSH1 0x40 SHL SUB DUP2 GT ISZERO PUSH2 0x1659 JUMPI PUSH2 0x1659 PUSH2 0x33C4 JUMP JUMPDEST PUSH1 0x40 MLOAD SWAP1 DUP1 DUP3 MSTORE DUP1 PUSH1 0x20 MUL PUSH1 0x20 ADD DUP3 ADD PUSH1 0x40 MSTORE DUP1 ISZERO PUSH2 0x1682 JUMPI DUP2 PUSH1 0x20 ADD PUSH1 0x20 DUP3 MUL DUP1 CALLDATASIZE DUP4 CALLDATACOPY ADD SWAP1 POP JUMPDEST POP SWAP1 POP PUSH1 0x0 DUP5 PUSH1 0xFF AND PUSH1 0x1 PUSH1 0x1 PUSH1 0x40 SHL SUB DUP2 GT ISZERO PUSH2 0x16A2 JUMPI PUSH2 0x16A2 PUSH2 0x33C4 JUMP JUMPDEST PUSH1 0x40 MLOAD SWAP1 DUP1 DUP3 MSTORE DUP1 PUSH1 0x20 MUL PUSH1 0x20 ADD DUP3 ADD PUSH1 0x40 MSTORE DUP1 ISZERO PUSH2 0x16CB JUMPI DUP2 PUSH1 0x20 ADD PUSH1 0x20 DUP3 MUL DUP1 CALLDATASIZE DUP4 CALLDATACOPY ADD SWAP1 POP JUMPDEST POP SWAP1 POP PUSH1 0x0 SWAP5 POP PUSH1 0x0 JUMPDEST PUSH1 0x2 SLOAD DUP2 PUSH1 0xFF AND LT ISZERO PUSH2 0x182B JUMPI PUSH1 0x0 PUSH1 0xFF DUP1 DUP4 AND PUSH1 0x0 SWAP1 DUP2 MSTORE PUSH1 0x20 DUP2 SWAP1 MSTORE PUSH1 0x40 SWAP1 KECCAK256 PUSH1 0x5 ADD SLOAD AND PUSH1 0x2 DUP2 GT ISZERO PUSH2 0x170D JUMPI PUSH2 0x170D PUSH2 0x3223 JUMP JUMPDEST EQ ISZERO PUSH2 0x1819 JUMPI PUSH1 0xFF DUP2 AND PUSH1 0x0 SWAP1 DUP2 MSTORE PUSH1 0x20 DUP2 SWAP1 MSTORE PUSH1 0x40 SWAP1 KECCAK256 SLOAD PUSH1 0x1 PUSH1 0x1 PUSH1 0xA0 SHL SUB DUP13 DUP2 AND SWAP2 AND EQ ISZERO PUSH2 0x1819 JUMPI PUSH1 0x0 DUP1 DUP3 PUSH1 0xFF AND DUP2 MSTORE PUSH1 0x20 ADD SWAP1 DUP2 MSTORE PUSH1 0x20 ADD PUSH1 0x0 KECCAK256 PUSH1 0x2 ADD SLOAD DUP6 DUP8 PUSH1 0xFF AND DUP2 MLOAD DUP2 LT PUSH2 0x1767 JUMPI PUSH2 0x1767 PUSH2 0x3703 JUMP JUMPDEST PUSH1 0x20 MUL PUSH1 0x20 ADD ADD DUP2 DUP2 MSTORE POP POP PUSH1 0x0 DUP1 DUP3 PUSH1 0xFF AND DUP2 MSTORE PUSH1 0x20 ADD SWAP1 DUP2 MSTORE PUSH1 0x20 ADD PUSH1 0x0 KECCAK256 PUSH1 0x3 ADD SLOAD DUP5 DUP8 PUSH1 0xFF AND DUP2 MLOAD DUP2 LT PUSH2 0x17A1 JUMPI PUSH2 0x17A1 PUSH2 0x3703 JUMP JUMPDEST PUSH1 0x20 MUL PUSH1 0x20 ADD ADD DUP2 DUP2 MSTORE POP POP PUSH1 0x0 DUP1 DUP3 PUSH1 0xFF AND DUP2 MSTORE PUSH1 0x20 ADD SWAP1 DUP2 MSTORE PUSH1 0x20 ADD PUSH1 0x0 KECCAK256 PUSH1 0x4 ADD SLOAD DUP4 DUP8 PUSH1 0xFF AND DUP2 MLOAD DUP2 LT PUSH2 0x17DB JUMPI PUSH2 0x17DB PUSH2 0x3703 JUMP JUMPDEST PUSH1 0x20 MUL PUSH1 0x20 ADD ADD DUP2 DUP2 MSTORE POP POP DUP1 PUSH1 0xFF AND DUP3 DUP8 PUSH1 0xFF AND DUP2 MLOAD DUP2 LT PUSH2 0x1800 JUMPI PUSH2 0x1800 PUSH2 0x3703 JUMP JUMPDEST PUSH1 0x20 SWAP1 DUP2 MUL SWAP2 SWAP1 SWAP2 ADD ADD MSTORE DUP6 PUSH2 0x1815 DUP2 PUSH2 0x36E3 JUMP JUMPDEST SWAP7 POP POP JUMPDEST DUP1 PUSH2 0x1823 DUP2 PUSH2 0x36E3 JUMP JUMPDEST SWAP2 POP POP PUSH2 0x16D5 JUMP JUMPDEST POP SWAP3 SWAP10 SWAP2 SWAP9 POP SWAP7 POP SWAP1 SWAP5 POP SWAP3 POP POP POP JUMP JUMPDEST PUSH1 0x60 DUP1 PUSH1 0x60 DUP1 PUSH1 0x0 DUP1 JUMPDEST PUSH1 0x3 SLOAD DUP2 PUSH1 0xFF AND LT ISZERO PUSH2 0x18CA JUMPI PUSH1 0xFF DUP2 AND PUSH1 0x0 SWAP1 DUP2 MSTORE PUSH1 0x1 PUSH1 0x20 MSTORE PUSH1 0x40 SWAP1 KECCAK256 SLOAD PUSH1 0x1 PUSH1 0x1 PUSH1 0xA0 SHL SUB DUP9 DUP2 AND SWAP2 AND EQ ISZERO PUSH2 0x18B8 JUMPI PUSH1 0x0 PUSH1 0xFF DUP1 DUP4 AND PUSH1 0x0 SWAP1 DUP2 MSTORE PUSH1 0x1 PUSH1 0x20 MSTORE PUSH1 0x40 SWAP1 KECCAK256 PUSH1 0x5 ADD SLOAD AND PUSH1 0x2 DUP2 GT ISZERO PUSH2 0x18A4 JUMPI PUSH2 0x18A4 PUSH2 0x3223 JUMP JUMPDEST EQ ISZERO PUSH2 0x18B8 JUMPI DUP2 PUSH2 0x18B4 DUP2 PUSH2 0x36E3 JUMP JUMPDEST SWAP3 POP POP JUMPDEST DUP1 PUSH2 0x18C2 DUP2 PUSH2 0x36E3 JUMP JUMPDEST SWAP2 POP POP PUSH2 0x1846 JUMP JUMPDEST POP PUSH1 0x0 DUP2 PUSH1 0xFF AND PUSH1 0x1 PUSH1 0x1 PUSH1 0x40 SHL SUB DUP2 GT ISZERO PUSH2 0x18E8 JUMPI PUSH2 0x18E8 PUSH2 0x33C4 JUMP JUMPDEST PUSH1 0x40 MLOAD SWAP1 DUP1 DUP3 MSTORE DUP1 PUSH1 0x20 MUL PUSH1 0x20 ADD DUP3 ADD PUSH1 0x40 MSTORE DUP1 ISZERO PUSH2 0x1911 JUMPI DUP2 PUSH1 0x20 ADD PUSH1 0x20 DUP3 MUL DUP1 CALLDATASIZE DUP4 CALLDATACOPY ADD SWAP1 POP JUMPDEST POP SWAP1 POP PUSH1 0x0 DUP3 PUSH1 0xFF AND PUSH1 0x1 PUSH1 0x1 PUSH1 0x40 SHL SUB DUP2 GT ISZERO PUSH2 0x1931 JUMPI PUSH2 0x1931 PUSH2 0x33C4 JUMP JUMPDEST PUSH1 0x40 MLOAD SWAP1 DUP1 DUP3 MSTORE DUP1 PUSH1 0x20 MUL PUSH1 0x20 ADD DUP3 ADD PUSH1 0x40 MSTORE DUP1 ISZERO PUSH2 0x195A JUMPI DUP2 PUSH1 0x20 ADD PUSH1 0x20 DUP3 MUL DUP1 CALLDATASIZE DUP4 CALLDATACOPY ADD SWAP1 POP JUMPDEST POP SWAP1 POP PUSH1 0x0 DUP4 PUSH1 0xFF AND PUSH1 0x1 PUSH1 0x1 PUSH1 0x40 SHL SUB DUP2 GT ISZERO PUSH2 0x197A JUMPI PUSH2 0x197A PUSH2 0x33C4 JUMP JUMPDEST PUSH1 0x40 MLOAD SWAP1 DUP1 DUP3 MSTORE DUP1 PUSH1 0x20 MUL PUSH1 0x20 ADD DUP3 ADD PUSH1 0x40 MSTORE DUP1 ISZERO PUSH2 0x19A3 JUMPI DUP2 PUSH1 0x20 ADD PUSH1 0x20 DUP3 MUL DUP1 CALLDATASIZE DUP4 CALLDATACOPY ADD SWAP1 POP JUMPDEST POP SWAP1 POP PUSH1 0x0 DUP5 PUSH1 0xFF AND PUSH1 0x1 PUSH1 0x1 PUSH1 0x40 SHL SUB DUP2 GT ISZERO PUSH2 0x19C3 JUMPI PUSH2 0x19C3 PUSH2 0x33C4 JUMP JUMPDEST PUSH1 0x40 MLOAD SWAP1 DUP1 DUP3 MSTORE DUP1 PUSH1 0x20 MUL PUSH1 0x20 ADD DUP3 ADD PUSH1 0x40 MSTORE DUP1 ISZERO PUSH2 0x19EC JUMPI DUP2 PUSH1 0x20 ADD PUSH1 0x20 DUP3 MUL DUP1 CALLDATASIZE DUP4 CALLDATACOPY ADD SWAP1 POP JUMPDEST POP SWAP1 POP PUSH1 0x0 SWAP5 POP PUSH1 0x0 JUMPDEST PUSH1 0x3 SLOAD DUP2 PUSH1 0xFF AND LT ISZERO PUSH2 0x182B JUMPI PUSH1 0xFF DUP2 AND PUSH1 0x0 SWAP1 DUP2 MSTORE PUSH1 0x1 PUSH1 0x20 MSTORE PUSH1 0x40 SWAP1 KECCAK256 SLOAD PUSH1 0x1 PUSH1 0x1 PUSH1 0xA0 SHL SUB DUP13 DUP2 AND SWAP2 AND EQ ISZERO PUSH2 0x1B3D JUMPI PUSH1 0x0 PUSH1 0xFF DUP1 DUP4 AND PUSH1 0x0 SWAP1 DUP2 MSTORE PUSH1 0x1 PUSH1 0x20 MSTORE PUSH1 0x40 SWAP1 KECCAK256 PUSH1 0x5 ADD SLOAD AND PUSH1 0x2 DUP2 GT ISZERO PUSH2 0x1A54 JUMPI PUSH2 0x1A54 PUSH2 0x3223 JUMP JUMPDEST EQ ISZERO PUSH2 0x1B3D JUMPI PUSH1 0x1 PUSH1 0x0 DUP3 PUSH1 0xFF AND DUP2 MSTORE PUSH1 0x20 ADD SWAP1 DUP2 MSTORE PUSH1 0x20 ADD PUSH1 0x0 KECCAK256 PUSH1 0x2 ADD SLOAD DUP6 DUP8 PUSH1 0xFF AND DUP2 MLOAD DUP2 LT PUSH2 0x1A89 JUMPI PUSH2 0x1A89 PUSH2 0x3703 JUMP JUMPDEST PUSH1 0x20 MUL PUSH1 0x20 ADD ADD DUP2 DUP2 MSTORE POP POP PUSH1 0x1 PUSH1 0x0 DUP3 PUSH1 0xFF AND DUP2 MSTORE PUSH1 0x20 ADD SWAP1 DUP2 MSTORE PUSH1 0x20 ADD PUSH1 0x0 KECCAK256 PUSH1 0x3 ADD SLOAD DUP5 DUP8 PUSH1 0xFF AND DUP2 MLOAD DUP2 LT PUSH2 0x1AC4 JUMPI PUSH2 0x1AC4 PUSH2 0x3703 JUMP JUMPDEST PUSH1 0x20 MUL PUSH1 0x20 ADD ADD DUP2 DUP2 MSTORE POP POP PUSH1 0x1 PUSH1 0x0 DUP3 PUSH1 0xFF AND DUP2 MSTORE PUSH1 0x20 ADD SWAP1 DUP2 MSTORE PUSH1 0x20 ADD PUSH1 0x0 KECCAK256 PUSH1 0x4 ADD SLOAD DUP4 DUP8 PUSH1 0xFF AND DUP2 MLOAD DUP2 LT PUSH2 0x1AFF JUMPI PUSH2 0x1AFF PUSH2 0x3703 JUMP JUMPDEST PUSH1 0x20 MUL PUSH1 0x20 ADD ADD DUP2 DUP2 MSTORE POP POP DUP1 PUSH1 0xFF AND DUP3 DUP8 PUSH1 0xFF AND DUP2 MLOAD DUP2 LT PUSH2 0x1B24 JUMPI PUSH2 0x1B24 PUSH2 0x3703 JUMP JUMPDEST PUSH1 0x20 SWAP1 DUP2 MUL SWAP2 SWAP1 SWAP2 ADD ADD MSTORE DUP6 PUSH2 0x1B39 DUP2 PUSH2 0x36E3 JUMP JUMPDEST SWAP7 POP POP JUMPDEST DUP1 PUSH2 0x1B47 DUP2 PUSH2 0x36E3 JUMP JUMPDEST SWAP2 POP POP PUSH2 0x19F6 JUMP JUMPDEST PUSH1 0x60 DUP1 PUSH1 0x0 DUP1 JUMPDEST PUSH1 0x8 SLOAD DUP2 LT ISZERO PUSH2 0x1B96 JUMPI PUSH1 0x0 DUP2 DUP2 MSTORE PUSH1 0x6 PUSH1 0x20 MSTORE PUSH1 0x40 SWAP1 KECCAK256 SLOAD DUP6 EQ ISZERO PUSH2 0x1B84 JUMPI DUP2 PUSH2 0x1B80 DUP2 PUSH2 0x3719 JUMP JUMPDEST SWAP3 POP POP JUMPDEST DUP1 PUSH2 0x1B8E DUP2 PUSH2 0x3719 JUMP JUMPDEST SWAP2 POP POP PUSH2 0x1B56 JUMP JUMPDEST POP PUSH1 0x0 DUP2 PUSH1 0x1 PUSH1 0x1 PUSH1 0x40 SHL SUB DUP2 GT ISZERO PUSH2 0x1BB1 JUMPI PUSH2 0x1BB1 PUSH2 0x33C4 JUMP JUMPDEST PUSH1 0x40 MLOAD SWAP1 DUP1 DUP3 MSTORE DUP1 PUSH1 0x20 MUL PUSH1 0x20 ADD DUP3 ADD PUSH1 0x40 MSTORE DUP1 ISZERO PUSH2 0x1BDA JUMPI DUP2 PUSH1 0x20 ADD PUSH1 0x20 DUP3 MUL DUP1 CALLDATASIZE DUP4 CALLDATACOPY ADD SWAP1 POP JUMPDEST POP SWAP1 POP PUSH1 0x0 DUP3 PUSH1 0x1 PUSH1 0x1 PUSH1 0x40 SHL SUB DUP2 GT ISZERO PUSH2 0x1BF7 JUMPI PUSH2 0x1BF7 PUSH2 0x33C4 JUMP JUMPDEST PUSH1 0x40 MLOAD SWAP1 DUP1 DUP3 MSTORE DUP1 PUSH1 0x20 MUL PUSH1 0x20 ADD DUP3 ADD PUSH1 0x40 MSTORE DUP1 ISZERO PUSH2 0x1C20 JUMPI DUP2 PUSH1 0x20 ADD PUSH1 0x20 DUP3 MUL DUP1 CALLDATASIZE DUP4 CALLDATACOPY ADD SWAP1 POP JUMPDEST POP SWAP1 POP PUSH1 0x0 SWAP3 POP PUSH1 0x0 JUMPDEST PUSH1 0x8 SLOAD DUP2 LT ISZERO PUSH2 0x1CF8 JUMPI PUSH1 0x0 DUP2 DUP2 MSTORE PUSH1 0x6 PUSH1 0x20 MSTORE PUSH1 0x40 SWAP1 KECCAK256 SLOAD DUP8 EQ ISZERO PUSH2 0x1CE6 JUMPI PUSH1 0x0 DUP2 DUP2 MSTORE PUSH1 0x4 PUSH1 0x20 MSTORE PUSH1 0x40 SWAP1 KECCAK256 SLOAD DUP4 MLOAD PUSH1 0x1 PUSH1 0x1 PUSH1 0xA0 SHL SUB SWAP1 SWAP2 AND SWAP1 DUP5 SWAP1 DUP7 SWAP1 DUP2 LT PUSH2 0x1C79 JUMPI PUSH2 0x1C79 PUSH2 0x3703 JUMP JUMPDEST PUSH1 0x1 PUSH1 0x1 PUSH1 0xA0 SHL SUB SWAP3 DUP4 AND PUSH1 0x20 SWAP2 DUP3 MUL SWAP3 SWAP1 SWAP3 ADD DUP2 ADD SWAP2 SWAP1 SWAP2 MSTORE PUSH1 0x0 DUP4 DUP2 MSTORE PUSH1 0x4 DUP3 MSTORE PUSH1 0x40 DUP1 DUP3 KECCAK256 SLOAD SWAP1 SWAP4 AND DUP2 MSTORE PUSH1 0x7 SWAP1 SWAP2 MSTORE KECCAK256 SLOAD DUP3 MLOAD PUSH1 0xFF SWAP1 SWAP2 AND SWAP1 DUP4 SWAP1 DUP7 SWAP1 DUP2 LT PUSH2 0x1CC8 JUMPI PUSH2 0x1CC8 PUSH2 0x3703 JUMP JUMPDEST SWAP2 ISZERO ISZERO PUSH1 0x20 SWAP3 DUP4 MUL SWAP2 SWAP1 SWAP2 ADD SWAP1 SWAP2 ADD MSTORE DUP4 PUSH2 0x1CE2 DUP2 PUSH2 0x3719 JUMP JUMPDEST SWAP5 POP POP JUMPDEST DUP1 PUSH2 0x1CF0 DUP2 PUSH2 0x3719 JUMP JUMPDEST SWAP2 POP POP PUSH2 0x1C2A JUMP JUMPDEST POP SWAP1 SWAP6 SWAP1 SWAP5 POP SWAP3 POP POP POP JUMP JUMPDEST PUSH1 0x60 PUSH1 0xA DUP1 SLOAD DUP1 PUSH1 0x20 MUL PUSH1 0x20 ADD PUSH1 0x40 MLOAD SWAP1 DUP2 ADD PUSH1 0x40 MSTORE DUP1 SWAP3 SWAP2 SWAP1 DUP2 DUP2 MSTORE PUSH1 0x20 ADD DUP3 DUP1 SLOAD DUP1 ISZERO PUSH2 0x1D5C JUMPI PUSH1 0x20 MUL DUP3 ADD SWAP2 SWAP1 PUSH1 0x0 MSTORE PUSH1 0x20 PUSH1 0x0 KECCAK256 SWAP1 JUMPDEST DUP2 SLOAD PUSH1 0x1 PUSH1 0x1 PUSH1 0xA0 SHL SUB AND DUP2 MSTORE PUSH1 0x1 SWAP1 SWAP2 ADD SWAP1 PUSH1 0x20 ADD DUP1 DUP4 GT PUSH2 0x1D3E JUMPI JUMPDEST POP POP POP POP POP SWAP1 POP SWAP1 JUMP JUMPDEST PUSH1 0x60 PUSH1 0x0 DUP1 JUMPDEST PUSH1 0x8 SLOAD DUP2 LT ISZERO PUSH2 0x1DDE JUMPI PUSH1 0x0 DUP2 DUP2 MSTORE PUSH1 0x4 PUSH1 0x20 SWAP1 DUP2 MSTORE PUSH1 0x40 DUP1 DUP4 KECCAK256 SLOAD PUSH1 0x1 PUSH1 0x1 PUSH1 0xA0 SHL SUB AND DUP4 MSTORE PUSH1 0x7 SWAP1 SWAP2 MSTORE SWAP1 KECCAK256 SLOAD PUSH1 0xFF AND ISZERO ISZERO PUSH1 0x1 EQ ISZERO PUSH2 0x1DCC JUMPI PUSH1 0x0 DUP2 DUP2 MSTORE PUSH1 0x6 PUSH1 0x20 MSTORE PUSH1 0x40 SWAP1 KECCAK256 SLOAD DUP5 EQ ISZERO PUSH2 0x1DCC JUMPI DUP2 PUSH2 0x1DC8 DUP2 PUSH2 0x3719 JUMP JUMPDEST SWAP3 POP POP JUMPDEST DUP1 PUSH2 0x1DD6 DUP2 PUSH2 0x3719 JUMP JUMPDEST SWAP2 POP POP PUSH2 0x1D6C JUMP JUMPDEST POP PUSH1 0x0 DUP2 PUSH1 0x1 PUSH1 0x1 PUSH1 0x40 SHL SUB DUP2 GT ISZERO PUSH2 0x1DF9 JUMPI PUSH2 0x1DF9 PUSH2 0x33C4 JUMP JUMPDEST PUSH1 0x40 MLOAD SWAP1 DUP1 DUP3 MSTORE DUP1 PUSH1 0x20 MUL PUSH1 0x20 ADD DUP3 ADD PUSH1 0x40 MSTORE DUP1 ISZERO PUSH2 0x1E22 JUMPI DUP2 PUSH1 0x20 ADD PUSH1 0x20 DUP3 MUL DUP1 CALLDATASIZE DUP4 CALLDATACOPY ADD SWAP1 POP JUMPDEST POP SWAP1 POP PUSH1 0x0 SWAP2 POP PUSH1 0x0 JUMPDEST PUSH1 0x8 SLOAD DUP2 LT ISZERO PUSH2 0x1EE5 JUMPI PUSH1 0x0 DUP2 DUP2 MSTORE PUSH1 0x4 PUSH1 0x20 SWAP1 DUP2 MSTORE PUSH1 0x40 DUP1 DUP4 KECCAK256 SLOAD PUSH1 0x1 PUSH1 0x1 PUSH1 0xA0 SHL SUB AND DUP4 MSTORE PUSH1 0x7 SWAP1 SWAP2 MSTORE SWAP1 KECCAK256 SLOAD PUSH1 0xFF AND ISZERO ISZERO PUSH1 0x1 EQ ISZERO PUSH2 0x1ED3 JUMPI PUSH1 0x0 DUP2 DUP2 MSTORE PUSH1 0x6 PUSH1 0x20 MSTORE PUSH1 0x40 SWAP1 KECCAK256 SLOAD DUP6 EQ ISZERO PUSH2 0x1ED3 JUMPI PUSH1 0x0 DUP2 DUP2 MSTORE PUSH1 0x4 PUSH1 0x20 MSTORE PUSH1 0x40 SWAP1 KECCAK256 SLOAD DUP3 MLOAD PUSH1 0x1 PUSH1 0x1 PUSH1 0xA0 SHL SUB SWAP1 SWAP2 AND SWAP1 DUP4 SWAP1 DUP6 SWAP1 DUP2 LT PUSH2 0x1EAD JUMPI PUSH2 0x1EAD PUSH2 0x3703 JUMP JUMPDEST PUSH1 0x1 PUSH1 0x1 PUSH1 0xA0 SHL SUB SWAP1 SWAP3 AND PUSH1 0x20 SWAP3 DUP4 MUL SWAP2 SWAP1 SWAP2 ADD SWAP1 SWAP2 ADD MSTORE DUP3 PUSH2 0x1ECF DUP2 PUSH2 0x3719 JUMP JUMPDEST SWAP4 POP POP JUMPDEST DUP1 PUSH2 0x1EDD DUP2 PUSH2 0x3719 JUMP JUMPDEST SWAP2 POP POP PUSH2 0x1E2C JUMP JUMPDEST POP SWAP4 SWAP3 POP POP POP JUMP JUMPDEST PUSH1 0xA PUSH1 0xB SLOAD DUP2 SLOAD DUP2 LT PUSH2 0x1F02 JUMPI PUSH2 0x1F02 PUSH2 0x3703 JUMP JUMPDEST PUSH1 0x0 SWAP2 DUP3 MSTORE PUSH1 0x20 SWAP1 SWAP2 KECCAK256 ADD SLOAD PUSH1 0x1 PUSH1 0x1 PUSH1 0xA0 SHL SUB AND CALLER EQ PUSH2 0x1F22 JUMPI PUSH1 0x0 DUP1 REVERT JUMPDEST PUSH1 0x1 PUSH1 0x1 PUSH1 0xA0 SHL SUB SWAP2 SWAP1 SWAP2 AND PUSH1 0x0 SWAP1 DUP2 MSTORE PUSH1 0x7 PUSH1 0x20 MSTORE PUSH1 0x40 SWAP1 KECCAK256 DUP1 SLOAD PUSH1 0xFF NOT AND SWAP2 ISZERO ISZERO SWAP2 SWAP1 SWAP2 OR SWAP1 SSTORE JUMP JUMPDEST PUSH1 0x0 DUP1 DUP1 JUMPDEST PUSH1 0x3 SLOAD DUP2 PUSH1 0xFF AND LT ISZERO PUSH2 0xF51 JUMPI PUSH1 0xFF DUP2 AND PUSH1 0x0 SWAP1 DUP2 MSTORE PUSH1 0x1 PUSH1 0x20 MSTORE PUSH1 0x40 SWAP1 KECCAK256 SLOAD PUSH1 0x1 PUSH1 0x1 PUSH1 0xA0 SHL SUB DUP6 DUP2 AND SWAP2 AND EQ ISZERO PUSH2 0x1FA8 JUMPI PUSH1 0xFF DUP2 AND PUSH1 0x0 SWAP1 DUP2 MSTORE PUSH1 0x1 PUSH1 0x20 MSTORE PUSH1 0x40 SWAP1 KECCAK256 PUSH1 0x4 ADD SLOAD PUSH2 0x1FA5 SWAP1 DUP4 PUSH2 0x378D JUMP JUMPDEST SWAP2 POP JUMPDEST DUP1 PUSH2 0x1FB2 DUP2 PUSH2 0x36E3 JUMP JUMPDEST SWAP2 POP POP PUSH2 0x1F52 JUMP JUMPDEST PUSH1 0x0 DUP2 DUP2 MSTORE PUSH1 0x20 DUP2 SWAP1 MSTORE PUSH1 0x40 SWAP1 KECCAK256 PUSH1 0x1 ADD SLOAD PUSH1 0x1 PUSH1 0x1 PUSH1 0xA0 SHL SUB AND CALLER EQ PUSH2 0x2023 JUMPI PUSH1 0x40 MLOAD PUSH3 0x461BCD PUSH1 0xE5 SHL DUP2 MSTORE PUSH1 0x20 PUSH1 0x4 DUP3 ADD MSTORE PUSH1 0x1D PUSH1 0x24 DUP3 ADD MSTORE PUSH32 0x6D73672E73656E646572206973206E6F74206F72646572206F776E6572000000 PUSH1 0x44 DUP3 ADD MSTORE PUSH1 0x64 ADD PUSH2 0x584 JUMP JUMPDEST PUSH1 0x0 DUP2 DUP2 MSTORE PUSH1 0x20 DUP2 SWAP1 MSTORE PUSH1 0x40 DUP2 KECCAK256 PUSH1 0x5 ADD SLOAD PUSH1 0xFF AND PUSH1 0x2 DUP2 GT ISZERO PUSH2 0x2049 JUMPI PUSH2 0x2049 PUSH2 0x3223 JUMP JUMPDEST EQ PUSH2 0x208A JUMPI PUSH1 0x40 MLOAD PUSH3 0x461BCD PUSH1 0xE5 SHL DUP2 MSTORE PUSH1 0x20 PUSH1 0x4 DUP3 ADD MSTORE PUSH1 0x11 PUSH1 0x24 DUP3 ADD MSTORE PUSH17 0x37B93232B91034B9903737BA1037B832B7 PUSH1 0x79 SHL PUSH1 0x44 DUP3 ADD MSTORE PUSH1 0x64 ADD PUSH2 0x584 JUMP JUMPDEST PUSH1 0x0 DUP2 DUP2 MSTORE PUSH1 0x20 DUP2 SWAP1 MSTORE PUSH1 0x40 DUP1 DUP3 KECCAK256 PUSH1 0x4 ADD SLOAD SWAP1 MLOAD CALLER SWAP3 DUP4 SWAP3 DUP1 ISZERO PUSH2 0x8FC MUL SWAP3 SWAP1 SWAP2 DUP2 DUP2 DUP2 DUP6 DUP9 DUP9 CALL SWAP4 POP POP POP POP ISZERO DUP1 ISZERO PUSH2 0x20C9 JUMPI RETURNDATASIZE PUSH1 0x0 DUP1 RETURNDATACOPY RETURNDATASIZE PUSH1 0x0 REVERT JUMPDEST POP POP PUSH1 0x0 SWAP1 DUP2 MSTORE PUSH1 0x20 DUP2 SWAP1 MSTORE PUSH1 0x40 DUP2 KECCAK256 PUSH1 0x4 DUP2 ADD SWAP2 SWAP1 SWAP2 SSTORE PUSH1 0x5 ADD DUP1 SLOAD PUSH1 0xFF NOT AND PUSH1 0x2 OR SWAP1 SSTORE JUMP JUMPDEST PUSH1 0x0 DUP2 PUSH1 0x40 MLOAD PUSH1 0x20 ADD PUSH2 0x2104 SWAP2 SWAP1 PUSH2 0x3816 JUMP JUMPDEST PUSH1 0x40 MLOAD PUSH1 0x20 DUP2 DUP4 SUB SUB DUP2 MSTORE SWAP1 PUSH1 0x40 MSTORE DUP1 MLOAD SWAP1 PUSH1 0x20 ADD KECCAK256 DUP4 PUSH1 0x40 MLOAD PUSH1 0x20 ADD PUSH2 0x212B SWAP2 SWAP1 PUSH2 0x3816 JUMP JUMPDEST PUSH1 0x40 MLOAD PUSH1 0x20 DUP2 DUP4 SUB SUB DUP2 MSTORE SWAP1 PUSH1 0x40 MSTORE DUP1 MLOAD SWAP1 PUSH1 0x20 ADD KECCAK256 EQ SWAP1 POP SWAP3 SWAP2 POP POP JUMP JUMPDEST PUSH1 0x60 DUP1 PUSH1 0x60 DUP1 PUSH1 0x60 DUP1 PUSH1 0x0 DUP1 JUMPDEST PUSH1 0x2 SLOAD DUP2 PUSH1 0xFF AND LT ISZERO PUSH2 0x21D3 JUMPI PUSH1 0xFF DUP2 AND PUSH1 0x0 SWAP1 DUP2 MSTORE PUSH1 0x20 DUP2 SWAP1 MSTORE PUSH1 0x40 SWAP1 KECCAK256 PUSH1 0x1 ADD SLOAD PUSH1 0x1 PUSH1 0x1 PUSH1 0xA0 SHL SUB DUP11 DUP2 AND SWAP2 AND EQ ISZERO PUSH2 0x21C1 JUMPI PUSH1 0xFF DUP2 AND PUSH1 0x0 SWAP1 DUP2 MSTORE PUSH1 0x20 DUP2 SWAP1 MSTORE PUSH1 0x40 SWAP1 KECCAK256 SLOAD PUSH1 0x1 PUSH1 0x1 PUSH1 0xA0 SHL SUB DUP12 DUP2 AND SWAP2 AND EQ ISZERO PUSH2 0x21C1 JUMPI DUP2 PUSH2 0x21BD DUP2 PUSH2 0x36E3 JUMP JUMPDEST SWAP3 POP POP JUMPDEST DUP1 PUSH2 0x21CB DUP2 PUSH2 0x36E3 JUMP JUMPDEST SWAP2 POP POP PUSH2 0x2157 JUMP JUMPDEST POP PUSH1 0x0 DUP2 PUSH1 0xFF AND PUSH1 0x1 PUSH1 0x1 PUSH1 0x40 SHL SUB DUP2 GT ISZERO PUSH2 0x21F1 JUMPI PUSH2 0x21F1 PUSH2 0x33C4 JUMP JUMPDEST PUSH1 0x40 MLOAD SWAP1 DUP1 DUP3 MSTORE DUP1 PUSH1 0x20 MUL PUSH1 0x20 ADD DUP3 ADD PUSH1 0x40 MSTORE DUP1 ISZERO PUSH2 0x221A JUMPI DUP2 PUSH1 0x20 ADD PUSH1 0x20 DUP3 MUL DUP1 CALLDATASIZE DUP4 CALLDATACOPY ADD SWAP1 POP JUMPDEST POP SWAP1 POP PUSH1 0x0 DUP3 PUSH1 0xFF AND PUSH1 0x1 PUSH1 0x1 PUSH1 0x40 SHL SUB DUP2 GT ISZERO PUSH2 0x223A JUMPI PUSH2 0x223A PUSH2 0x33C4 JUMP JUMPDEST PUSH1 0x40 MLOAD SWAP1 DUP1 DUP3 MSTORE DUP1 PUSH1 0x20 MUL PUSH1 0x20 ADD DUP3 ADD PUSH1 0x40 MSTORE DUP1 ISZERO PUSH2 0x2263 JUMPI DUP2 PUSH1 0x20 ADD PUSH1 0x20 DUP3 MUL DUP1 CALLDATASIZE DUP4 CALLDATACOPY ADD SWAP1 POP JUMPDEST POP SWAP1 POP PUSH1 0x0 DUP4 PUSH1 0xFF AND PUSH1 0x1 PUSH1 0x1 PUSH1 0x40 SHL SUB DUP2 GT ISZERO PUSH2 0x2283 JUMPI PUSH2 0x2283 PUSH2 0x33C4 JUMP JUMPDEST PUSH1 0x40 MLOAD SWAP1 DUP1 DUP3 MSTORE DUP1 PUSH1 0x20 MUL PUSH1 0x20 ADD DUP3 ADD PUSH1 0x40 MSTORE DUP1 ISZERO PUSH2 0x22AC JUMPI DUP2 PUSH1 0x20 ADD PUSH1 0x20 DUP3 MUL DUP1 CALLDATASIZE DUP4 CALLDATACOPY ADD SWAP1 POP JUMPDEST POP SWAP1 POP PUSH1 0x0 DUP5 PUSH1 0xFF AND PUSH1 0x1 PUSH1 0x1 PUSH1 0x40 SHL SUB DUP2 GT ISZERO PUSH2 0x22CC JUMPI PUSH2 0x22CC PUSH2 0x33C4 JUMP JUMPDEST PUSH1 0x40 MLOAD SWAP1 DUP1 DUP3 MSTORE DUP1 PUSH1 0x20 MUL PUSH1 0x20 ADD DUP3 ADD PUSH1 0x40 MSTORE DUP1 ISZERO PUSH2 0x22F5 JUMPI DUP2 PUSH1 0x20 ADD PUSH1 0x20 DUP3 MUL DUP1 CALLDATASIZE DUP4 CALLDATACOPY ADD SWAP1 POP JUMPDEST POP SWAP1 POP PUSH1 0x0 DUP6 PUSH1 0xFF AND PUSH1 0x1 PUSH1 0x1 PUSH1 0x40 SHL SUB DUP2 GT ISZERO PUSH2 0x2315 JUMPI PUSH2 0x2315 PUSH2 0x33C4 JUMP JUMPDEST PUSH1 0x40 MLOAD SWAP1 DUP1 DUP3 MSTORE DUP1 PUSH1 0x20 MUL PUSH1 0x20 ADD DUP3 ADD PUSH1 0x40 MSTORE DUP1 ISZERO PUSH2 0x233E JUMPI DUP2 PUSH1 0x20 ADD PUSH1 0x20 DUP3 MUL DUP1 CALLDATASIZE DUP4 CALLDATACOPY ADD SWAP1 POP JUMPDEST POP SWAP1 POP PUSH1 0x0 DUP7 PUSH1 0xFF AND PUSH1 0x1 PUSH1 0x1 PUSH1 0x40 SHL SUB DUP2 GT ISZERO PUSH2 0x235E JUMPI PUSH2 0x235E PUSH2 0x33C4 JUMP JUMPDEST PUSH1 0x40 MLOAD SWAP1 DUP1 DUP3 MSTORE DUP1 PUSH1 0x20 MUL PUSH1 0x20 ADD DUP3 ADD PUSH1 0x40 MSTORE DUP1 ISZERO PUSH2 0x2387 JUMPI DUP2 PUSH1 0x20 ADD PUSH1 0x20 DUP3 MUL DUP1 CALLDATASIZE DUP4 CALLDATACOPY ADD SWAP1 POP JUMPDEST POP SWAP1 POP PUSH1 0x0 SWAP7 POP PUSH1 0x0 JUMPDEST PUSH1 0x2 SLOAD DUP2 PUSH1 0xFF AND LT ISZERO PUSH2 0xB47 JUMPI DUP15 PUSH1 0x1 PUSH1 0x1 PUSH1 0xA0 SHL SUB AND PUSH1 0x0 DUP1 DUP4 PUSH1 0xFF AND DUP2 MSTORE PUSH1 0x20 ADD SWAP1 DUP2 MSTORE PUSH1 0x20 ADD PUSH1 0x0 KECCAK256 PUSH1 0x1 ADD PUSH1 0x0 SWAP1 SLOAD SWAP1 PUSH2 0x100 EXP SWAP1 DIV PUSH1 0x1 PUSH1 0x1 PUSH1 0xA0 SHL SUB AND PUSH1 0x1 PUSH1 0x1 PUSH1 0xA0 SHL SUB AND EQ ISZERO PUSH2 0x25CC JUMPI DUP16 PUSH1 0x1 PUSH1 0x1 PUSH1 0xA0 SHL SUB AND PUSH1 0x0 DUP1 DUP4 PUSH1 0xFF AND DUP2 MSTORE PUSH1 0x20 ADD SWAP1 DUP2 MSTORE PUSH1 0x20 ADD PUSH1 0x0 KECCAK256 PUSH1 0x0 ADD PUSH1 0x0 SWAP1 SLOAD SWAP1 PUSH2 0x100 EXP SWAP1 DIV PUSH1 0x1 PUSH1 0x1 PUSH1 0xA0 SHL SUB AND PUSH1 0x1 PUSH1 0x1 PUSH1 0xA0 SHL SUB AND EQ ISZERO PUSH2 0x25CC JUMPI PUSH1 0xFF DUP1 DUP3 AND PUSH1 0x0 SWAP1 DUP2 MSTORE PUSH1 0x20 DUP2 SWAP1 MSTORE PUSH1 0x40 SWAP1 KECCAK256 PUSH1 0x1 ADD SLOAD DUP9 MLOAD PUSH1 0x1 PUSH1 0x1 PUSH1 0xA0 SHL SUB SWAP1 SWAP2 AND SWAP2 DUP10 SWAP2 SWAP1 DUP12 AND SWAP1 DUP2 LT PUSH2 0x2461 JUMPI PUSH2 0x2461 PUSH2 0x3703 JUMP JUMPDEST PUSH1 0x20 MUL PUSH1 0x20 ADD ADD SWAP1 PUSH1 0x1 PUSH1 0x1 PUSH1 0xA0 SHL SUB AND SWAP1 DUP2 PUSH1 0x1 PUSH1 0x1 PUSH1 0xA0 SHL SUB AND DUP2 MSTORE POP POP PUSH1 0x0 DUP1 DUP3 PUSH1 0xFF AND DUP2 MSTORE PUSH1 0x20 ADD SWAP1 DUP2 MSTORE PUSH1 0x20 ADD PUSH1 0x0 KECCAK256 PUSH1 0x2 ADD SLOAD DUP7 DUP10 PUSH1 0xFF AND DUP2 MLOAD DUP2 LT PUSH2 0x24AF JUMPI PUSH2 0x24AF PUSH2 0x3703 JUMP JUMPDEST PUSH1 0x20 MUL PUSH1 0x20 ADD ADD DUP2 DUP2 MSTORE POP POP PUSH1 0x0 DUP1 DUP3 PUSH1 0xFF AND DUP2 MSTORE PUSH1 0x20 ADD SWAP1 DUP2 MSTORE PUSH1 0x20 ADD PUSH1 0x0 KECCAK256 PUSH1 0x3 ADD SLOAD DUP6 DUP10 PUSH1 0xFF AND DUP2 MLOAD DUP2 LT PUSH2 0x24E9 JUMPI PUSH2 0x24E9 PUSH2 0x3703 JUMP JUMPDEST PUSH1 0x20 MUL PUSH1 0x20 ADD ADD DUP2 DUP2 MSTORE POP POP PUSH1 0x0 DUP1 DUP3 PUSH1 0xFF AND DUP2 MSTORE PUSH1 0x20 ADD SWAP1 DUP2 MSTORE PUSH1 0x20 ADD PUSH1 0x0 KECCAK256 PUSH1 0x4 ADD SLOAD DUP5 DUP10 PUSH1 0xFF AND DUP2 MLOAD DUP2 LT PUSH2 0x2523 JUMPI PUSH2 0x2523 PUSH2 0x3703 JUMP JUMPDEST PUSH1 0x20 MUL PUSH1 0x20 ADD ADD DUP2 DUP2 MSTORE POP POP DUP1 PUSH1 0xFF AND DUP4 DUP10 PUSH1 0xFF AND DUP2 MLOAD DUP2 LT PUSH2 0x2548 JUMPI PUSH2 0x2548 PUSH2 0x3703 JUMP JUMPDEST PUSH1 0x20 MUL PUSH1 0x20 ADD ADD DUP2 DUP2 MSTORE POP POP PUSH1 0x0 DUP1 DUP3 PUSH1 0xFF AND DUP2 MSTORE PUSH1 0x20 ADD SWAP1 DUP2 MSTORE PUSH1 0x20 ADD PUSH1 0x0 KECCAK256 PUSH1 0x5 ADD PUSH1 0x0 SWAP1 SLOAD SWAP1 PUSH2 0x100 EXP SWAP1 DIV PUSH1 0xFF AND DUP3 DUP10 PUSH1 0xFF AND DUP2 MLOAD DUP2 LT PUSH2 0x258F JUMPI PUSH2 0x258F PUSH2 0x3703 JUMP JUMPDEST PUSH1 0x20 MUL PUSH1 0x20 ADD ADD SWAP1 PUSH1 0x2 DUP2 GT ISZERO PUSH2 0x25A8 JUMPI PUSH2 0x25A8 PUSH2 0x3223 JUMP JUMPDEST SWAP1 DUP2 PUSH1 0x2 DUP2 GT ISZERO PUSH2 0x25BB JUMPI PUSH2 0x25BB PUSH2 0x3223 JUMP JUMPDEST SWAP1 MSTORE POP DUP8 PUSH2 0x25C8 DUP2 PUSH2 0x36E3 JUMP JUMPDEST SWAP9 POP POP JUMPDEST DUP1 PUSH2 0x25D6 DUP2 PUSH2 0x36E3 JUMP JUMPDEST SWAP2 POP POP PUSH2 0x2391 JUMP JUMPDEST PUSH1 0x0 DUP1 DUP1 JUMPDEST PUSH1 0x2 SLOAD DUP2 PUSH1 0xFF AND LT ISZERO PUSH2 0xF51 JUMPI PUSH1 0xFF DUP2 AND PUSH1 0x0 SWAP1 DUP2 MSTORE PUSH1 0x20 DUP2 SWAP1 MSTORE PUSH1 0x40 SWAP1 KECCAK256 SLOAD PUSH1 0x1 PUSH1 0x1 PUSH1 0xA0 SHL SUB DUP6 DUP2 AND SWAP2 AND EQ ISZERO PUSH2 0x2639 JUMPI PUSH1 0xFF DUP2 AND PUSH1 0x0 SWAP1 DUP2 MSTORE PUSH1 0x20 DUP2 SWAP1 MSTORE PUSH1 0x40 SWAP1 KECCAK256 PUSH1 0x4 ADD SLOAD PUSH2 0x2636 SWAP1 DUP4 PUSH2 0x378D JUMP JUMPDEST SWAP2 POP JUMPDEST DUP1 PUSH2 0x2643 DUP2 PUSH2 0x36E3 JUMP JUMPDEST SWAP2 POP POP PUSH2 0x25E3 JUMP JUMPDEST PUSH1 0x0 DUP1 DUP4 GT PUSH2 0x266C JUMPI PUSH1 0x40 MLOAD PUSH3 0x461BCD PUSH1 0xE5 SHL DUP2 MSTORE PUSH1 0x4 ADD PUSH2 0x584 SWAP1 PUSH2 0x3734 JUMP JUMPDEST PUSH1 0x0 DUP3 GT PUSH2 0x268C JUMPI PUSH1 0x40 MLOAD PUSH3 0x461BCD PUSH1 0xE5 SHL DUP2 MSTORE PUSH1 0x4 ADD PUSH2 0x584 SWAP1 PUSH2 0x3734 JUMP JUMPDEST PUSH1 0x40 MLOAD PUSH4 0x23B872DD PUSH1 0xE0 SHL DUP2 MSTORE CALLER PUSH1 0x4 DUP3 ADD MSTORE ADDRESS PUSH1 0x24 DUP3 ADD MSTORE PUSH1 0x44 DUP2 ADD DUP5 SWAP1 MSTORE PUSH1 0x1 PUSH1 0x1 PUSH1 0xA0 SHL SUB DUP6 AND SWAP1 PUSH4 0x23B872DD SWAP1 PUSH1 0x64 ADD PUSH1 0x20 PUSH1 0x40 MLOAD DUP1 DUP4 SUB DUP2 PUSH1 0x0 DUP8 GAS CALL ISZERO DUP1 ISZERO PUSH2 0x26DF JUMPI RETURNDATASIZE PUSH1 0x0 DUP1 RETURNDATACOPY RETURNDATASIZE PUSH1 0x0 REVERT JUMPDEST POP POP POP POP PUSH1 0x40 MLOAD RETURNDATASIZE PUSH1 0x1F NOT PUSH1 0x1F DUP3 ADD AND DUP3 ADD DUP1 PUSH1 0x40 MSTORE POP DUP2 ADD SWAP1 PUSH2 0x2703 SWAP2 SWAP1 PUSH2 0x36B0 JUMP JUMPDEST POP PUSH1 0x40 DUP1 MLOAD PUSH1 0xC0 DUP2 ADD DUP3 MSTORE PUSH1 0x1 PUSH1 0x1 PUSH1 0xA0 SHL SUB DUP7 DUP2 AND DUP3 MSTORE CALLER PUSH1 0x20 DUP1 DUP5 ADD SWAP2 DUP3 MSTORE DUP4 DUP6 ADD DUP9 DUP2 MSTORE PUSH1 0x60 DUP6 ADD DUP9 DUP2 MSTORE PUSH1 0x80 DUP7 ADD DUP11 DUP2 MSTORE PUSH1 0x0 PUSH1 0xA0 DUP9 ADD DUP2 DUP2 MSTORE PUSH1 0x3 DUP1 SLOAD DUP4 MSTORE PUSH1 0x1 SWAP7 DUP8 SWAP1 MSTORE SWAP10 SWAP1 SWAP2 KECCAK256 DUP9 MLOAD DUP2 SLOAD SWAP1 DUP10 AND PUSH1 0x1 PUSH1 0x1 PUSH1 0xA0 SHL SUB NOT SWAP2 DUP3 AND OR DUP3 SSTORE SWAP7 MLOAD DUP2 DUP8 ADD DUP1 SLOAD SWAP2 SWAP1 SWAP10 AND SWAP8 AND SWAP7 SWAP1 SWAP7 OR SWAP1 SWAP7 SSTORE SWAP2 MLOAD PUSH1 0x2 DUP1 DUP7 ADD SWAP2 SWAP1 SWAP2 SSTORE SWAP1 MLOAD SWAP7 DUP5 ADD SWAP7 SWAP1 SWAP7 SSTORE MLOAD PUSH1 0x4 DUP4 ADD SSTORE SWAP2 MLOAD PUSH1 0x5 DUP3 ADD DUP1 SLOAD SWAP5 SWAP6 SWAP3 SWAP5 SWAP2 SWAP4 SWAP1 SWAP3 PUSH1 0xFF NOT SWAP1 SWAP3 AND SWAP2 DUP5 SWAP1 DUP2 GT ISZERO PUSH2 0x27BD JUMPI PUSH2 0x27BD PUSH2 0x3223 JUMP JUMPDEST MUL OR SWAP1 SSTORE POP SWAP1 POP POP PUSH2 0x27D0 PUSH1 0x3 SLOAD PUSH2 0x2C53 JUMP JUMPDEST PUSH1 0x1 PUSH1 0x3 PUSH1 0x0 DUP3 DUP3 SLOAD PUSH2 0x27E3 SWAP2 SWAP1 PUSH2 0x378D JUMP JUMPDEST SWAP1 SWAP2 SSTORE POP POP PUSH1 0x3 SLOAD PUSH2 0xDF6 SWAP1 PUSH1 0x1 SWAP1 PUSH2 0x37A5 JUMP JUMPDEST PUSH1 0x0 JUMPDEST PUSH1 0x3 SLOAD DUP2 PUSH1 0xFF AND LT ISZERO PUSH2 0x2C4F JUMPI PUSH1 0x0 PUSH1 0xFF DUP1 DUP4 AND PUSH1 0x0 SWAP1 DUP2 MSTORE PUSH1 0x1 PUSH1 0x20 MSTORE PUSH1 0x40 SWAP1 KECCAK256 PUSH1 0x5 ADD SLOAD AND PUSH1 0x2 DUP2 GT ISZERO PUSH2 0x2832 JUMPI PUSH2 0x2832 PUSH2 0x3223 JUMP JUMPDEST EQ ISZERO PUSH2 0x2C3D JUMPI PUSH1 0x0 DUP3 DUP2 MSTORE PUSH1 0x20 DUP2 SWAP1 MSTORE PUSH1 0x40 DUP2 KECCAK256 PUSH1 0x5 ADD SLOAD PUSH1 0xFF AND PUSH1 0x2 DUP2 GT ISZERO PUSH2 0x285E JUMPI PUSH2 0x285E PUSH2 0x3223 JUMP JUMPDEST EQ ISZERO PUSH2 0x2C3D JUMPI PUSH1 0x0 DUP3 DUP2 MSTORE PUSH1 0x20 DUP2 DUP2 MSTORE PUSH1 0x40 DUP1 DUP4 KECCAK256 SLOAD PUSH1 0xFF DUP6 AND DUP5 MSTORE PUSH1 0x1 SWAP1 SWAP3 MSTORE SWAP1 SWAP2 KECCAK256 SLOAD PUSH1 0x1 PUSH1 0x1 PUSH1 0xA0 SHL SUB SWAP1 DUP2 AND SWAP2 AND EQ ISZERO PUSH2 0x2C3D JUMPI PUSH1 0x0 DUP3 DUP2 MSTORE PUSH1 0x20 DUP2 DUP2 MSTORE PUSH1 0x40 DUP1 DUP4 KECCAK256 PUSH1 0x3 SWAP1 DUP2 ADD SLOAD PUSH1 0xFF DUP7 AND DUP6 MSTORE PUSH1 0x1 SWAP1 SWAP4 MSTORE SWAP3 KECCAK256 SWAP1 SWAP2 ADD SLOAD EQ ISZERO PUSH2 0x2C3D JUMPI PUSH1 0xFF DUP2 AND PUSH1 0x0 DUP2 DUP2 MSTORE PUSH1 0x1 PUSH1 0x20 DUP2 DUP2 MSTORE PUSH1 0x40 DUP1 DUP5 KECCAK256 DUP1 DUP5 ADD SLOAD DUP9 DUP7 MSTORE DUP6 DUP5 MSTORE SWAP2 DUP6 KECCAK256 PUSH1 0x2 ADD SLOAD SWAP6 DUP6 MSTORE SWAP3 SWAP1 SWAP2 MSTORE PUSH1 0x4 SWAP1 SWAP2 ADD SLOAD PUSH1 0x1 PUSH1 0x1 PUSH1 0xA0 SHL SUB SWAP1 SWAP2 AND SWAP3 GT PUSH2 0x29AF JUMPI PUSH1 0x0 DUP5 DUP2 MSTORE PUSH1 0x20 DUP2 DUP2 MSTORE PUSH1 0x40 DUP1 DUP4 KECCAK256 PUSH1 0x2 ADD SLOAD PUSH1 0xFF DUP8 AND DUP5 MSTORE PUSH1 0x1 SWAP1 SWAP3 MSTORE SWAP1 SWAP2 KECCAK256 PUSH1 0x4 ADD SLOAD PUSH2 0x2935 SWAP2 SWAP1 PUSH2 0x37A5 JUMP JUMPDEST PUSH1 0xFF DUP5 AND PUSH1 0x0 DUP2 DUP2 MSTORE PUSH1 0x1 PUSH1 0x20 DUP2 DUP2 MSTORE PUSH1 0x40 DUP1 DUP5 KECCAK256 PUSH1 0x4 SWAP1 DUP2 ADD SWAP7 DUP8 SSTORE DUP11 DUP6 MSTORE DUP5 DUP4 MSTORE SWAP1 DUP5 KECCAK256 PUSH1 0x2 DUP2 ADD DUP1 SLOAD SWAP3 DUP3 ADD DUP7 SWAP1 SSTORE DUP6 SWAP1 SSTORE PUSH1 0x5 ADD DUP1 SLOAD PUSH1 0xFF NOT AND DUP5 OR SWAP1 SSTORE SWAP4 SWAP1 SWAP3 MSTORE SWAP1 MSTORE SWAP1 SLOAD SWAP1 SWAP2 POP PUSH2 0x29AA JUMPI PUSH1 0xFF DUP4 AND PUSH1 0x0 SWAP1 DUP2 MSTORE PUSH1 0x1 PUSH1 0x20 DUP2 SWAP1 MSTORE PUSH1 0x40 SWAP1 SWAP2 KECCAK256 PUSH1 0x5 ADD DUP1 SLOAD PUSH1 0xFF NOT AND SWAP1 SWAP2 OR SWAP1 SSTORE JUMPDEST PUSH2 0x2AA1 JUMP JUMPDEST PUSH1 0xFF DUP4 AND PUSH1 0x0 SWAP1 DUP2 MSTORE PUSH1 0x1 PUSH1 0x20 MSTORE PUSH1 0x40 SWAP1 KECCAK256 PUSH1 0x4 DUP2 ADD SLOAD PUSH1 0x3 SWAP1 SWAP2 ADD SLOAD PUSH2 0x29D6 SWAP2 SWAP1 PUSH2 0x3832 JUMP JUMPDEST PUSH1 0x0 DUP6 DUP2 MSTORE PUSH1 0x20 DUP2 SWAP1 MSTORE PUSH1 0x40 SWAP1 KECCAK256 PUSH1 0x4 ADD SLOAD PUSH2 0x29F2 SWAP2 SWAP1 PUSH2 0x37A5 JUMP JUMPDEST PUSH1 0x0 DUP6 DUP2 MSTORE PUSH1 0x20 DUP2 DUP2 MSTORE PUSH1 0x40 DUP1 DUP4 KECCAK256 PUSH1 0x4 DUP1 DUP3 ADD SWAP6 SWAP1 SWAP6 SSTORE PUSH1 0xFF DUP9 AND DUP5 MSTORE PUSH1 0x1 DUP4 MSTORE SWAP1 DUP4 KECCAK256 SWAP1 SWAP4 ADD SLOAD DUP8 DUP4 MSTORE SWAP2 SWAP1 MSTORE PUSH1 0x2 SWAP1 SWAP2 ADD SLOAD PUSH2 0x2A31 SWAP2 SWAP1 PUSH2 0x37A5 JUMP JUMPDEST PUSH1 0x0 DUP6 DUP2 MSTORE PUSH1 0x20 DUP2 DUP2 MSTORE PUSH1 0x40 DUP1 DUP4 KECCAK256 PUSH1 0x2 DUP2 ADD SWAP5 SWAP1 SWAP5 SSTORE PUSH1 0xFF DUP8 AND DUP4 MSTORE PUSH1 0x1 DUP1 DUP4 MSTORE SWAP1 DUP4 KECCAK256 PUSH1 0x4 DUP1 DUP3 ADD DUP1 SLOAD SWAP1 DUP7 SWAP1 SSTORE PUSH1 0x5 SWAP1 SWAP3 ADD DUP1 SLOAD PUSH1 0xFF NOT AND SWAP1 SWAP4 OR SWAP1 SWAP3 SSTORE DUP9 DUP5 MSTORE SWAP3 SWAP1 SWAP2 MSTORE SWAP1 SWAP2 ADD SLOAD SWAP1 SWAP2 POP PUSH2 0x2AA1 JUMPI PUSH1 0x0 DUP5 DUP2 MSTORE PUSH1 0x20 DUP2 SWAP1 MSTORE PUSH1 0x40 SWAP1 KECCAK256 PUSH1 0x5 ADD DUP1 SLOAD PUSH1 0xFF NOT AND PUSH1 0x1 OR SWAP1 SSTORE JUMPDEST PUSH1 0x0 DUP5 DUP2 MSTORE PUSH1 0x20 DUP2 SWAP1 MSTORE PUSH1 0x40 SWAP1 KECCAK256 PUSH1 0x3 ADD SLOAD PUSH1 0x1 PUSH1 0x1 PUSH1 0xA0 SHL SUB DUP4 AND SWAP1 PUSH2 0x8FC SWAP1 PUSH2 0x2ACD SWAP1 DUP5 SWAP1 PUSH2 0x3832 JUMP JUMPDEST PUSH1 0x40 MLOAD DUP2 ISZERO SWAP1 SWAP3 MUL SWAP2 PUSH1 0x0 DUP2 DUP2 DUP2 DUP6 DUP9 DUP9 CALL SWAP4 POP POP POP POP ISZERO DUP1 ISZERO PUSH2 0x2AF5 JUMPI RETURNDATASIZE PUSH1 0x0 DUP1 RETURNDATACOPY RETURNDATASIZE PUSH1 0x0 REVERT JUMPDEST POP PUSH1 0x0 DUP5 DUP2 MSTORE PUSH1 0x20 DUP2 SWAP1 MSTORE PUSH1 0x40 SWAP1 DUP2 SWAP1 KECCAK256 DUP1 SLOAD PUSH1 0x1 SWAP1 SWAP2 ADD SLOAD SWAP2 MLOAD PUSH4 0xA9059CBB PUSH1 0xE0 SHL DUP2 MSTORE PUSH1 0x1 PUSH1 0x1 PUSH1 0xA0 SHL SUB SWAP3 DUP4 AND PUSH1 0x4 DUP3 ADD MSTORE PUSH1 0x24 DUP2 ADD DUP5 SWAP1 MSTORE SWAP2 AND SWAP1 PUSH4 0xA9059CBB SWAP1 PUSH1 0x44 ADD PUSH1 0x20 PUSH1 0x40 MLOAD DUP1 DUP4 SUB DUP2 PUSH1 0x0 DUP8 GAS CALL ISZERO DUP1 ISZERO PUSH2 0x2B5C JUMPI RETURNDATASIZE PUSH1 0x0 DUP1 RETURNDATACOPY RETURNDATASIZE PUSH1 0x0 REVERT JUMPDEST POP POP POP POP PUSH1 0x40 MLOAD RETURNDATASIZE PUSH1 0x1F NOT PUSH1 0x1F DUP3 ADD AND DUP3 ADD DUP1 PUSH1 0x40 MSTORE POP DUP2 ADD SWAP1 PUSH2 0x2B80 SWAP2 SWAP1 PUSH2 0x36B0 JUMP JUMPDEST POP PUSH1 0x0 DUP5 DUP2 MSTORE PUSH1 0x20 DUP2 SWAP1 MSTORE PUSH1 0x40 SWAP1 KECCAK256 DUP1 SLOAD PUSH1 0x3 SWAP1 SWAP2 ADD SLOAD PUSH32 0xC5C589064B3D2AC80A4C7E550727B6FE9C900A322977580AEFD9588D4F7C88AC SWAP2 PUSH1 0x1 PUSH1 0x1 PUSH1 0xA0 SHL SUB AND SWAP1 PUSH2 0x2BCE SWAP1 DUP5 SWAP1 PUSH2 0x3832 JUMP JUMPDEST PUSH1 0x0 DUP8 DUP2 MSTORE PUSH1 0x20 DUP2 DUP2 MSTORE PUSH1 0x40 DUP1 DUP4 KECCAK256 PUSH1 0x1 SWAP1 DUP2 ADD SLOAD PUSH1 0xFF DUP12 AND DUP1 DUP7 MSTORE DUP3 DUP6 MSTORE SWAP5 DUP4 SWAP1 KECCAK256 SWAP1 SWAP2 ADD SLOAD DUP3 MLOAD PUSH1 0x1 PUSH1 0x1 PUSH1 0xA0 SHL SUB SWAP8 DUP9 AND DUP2 MSTORE SWAP4 DUP5 ADD SWAP6 SWAP1 SWAP6 MSTORE SWAP1 DUP3 ADD DUP8 SWAP1 MSTORE PUSH1 0x60 DUP3 ADD DUP11 SWAP1 MSTORE PUSH1 0x80 DUP3 ADD SWAP3 SWAP1 SWAP3 MSTORE SWAP1 DUP4 AND PUSH1 0xA0 DUP3 ADD MSTORE SWAP2 AND PUSH1 0xC0 DUP3 ADD MSTORE PUSH1 0xE0 ADD PUSH1 0x40 MLOAD DUP1 SWAP2 SUB SWAP1 LOG1 POP POP JUMPDEST DUP1 PUSH2 0x2C47 DUP2 PUSH2 0x36E3 JUMP JUMPDEST SWAP2 POP POP PUSH2 0x27FA JUMP JUMPDEST POP POP JUMP JUMPDEST PUSH1 0x0 JUMPDEST PUSH1 0x2 SLOAD DUP2 PUSH1 0xFF AND LT ISZERO PUSH2 0x2C4F JUMPI PUSH1 0x0 DUP3 DUP2 MSTORE PUSH1 0x1 PUSH1 0x20 MSTORE PUSH1 0x40 DUP2 KECCAK256 PUSH1 0x5 ADD SLOAD PUSH1 0xFF AND PUSH1 0x2 DUP2 GT ISZERO PUSH2 0x2C89 JUMPI PUSH2 0x2C89 PUSH2 0x3223 JUMP JUMPDEST EQ ISZERO PUSH2 0x309C JUMPI PUSH1 0x0 PUSH1 0xFF DUP1 DUP4 AND PUSH1 0x0 SWAP1 DUP2 MSTORE PUSH1 0x20 DUP2 SWAP1 MSTORE PUSH1 0x40 SWAP1 KECCAK256 PUSH1 0x5 ADD SLOAD AND PUSH1 0x2 DUP2 GT ISZERO PUSH2 0x2CBA JUMPI PUSH2 0x2CBA PUSH2 0x3223 JUMP JUMPDEST EQ ISZERO PUSH2 0x309C JUMPI PUSH1 0xFF DUP2 AND PUSH1 0x0 SWAP1 DUP2 MSTORE PUSH1 0x20 DUP2 DUP2 MSTORE PUSH1 0x40 DUP1 DUP4 KECCAK256 SLOAD DUP6 DUP5 MSTORE PUSH1 0x1 SWAP1 SWAP3 MSTORE SWAP1 SWAP2 KECCAK256 SLOAD PUSH1 0x1 PUSH1 0x1 PUSH1 0xA0 SHL SUB SWAP1 DUP2 AND SWAP2 AND EQ ISZERO PUSH2 0x309C JUMPI PUSH1 0xFF DUP2 AND PUSH1 0x0 SWAP1 DUP2 MSTORE PUSH1 0x20 DUP2 DUP2 MSTORE PUSH1 0x40 DUP1 DUP4 KECCAK256 PUSH1 0x3 SWAP1 DUP2 ADD SLOAD DUP7 DUP6 MSTORE PUSH1 0x1 SWAP1 SWAP4 MSTORE SWAP3 KECCAK256 SWAP1 SWAP2 ADD SLOAD EQ ISZERO PUSH2 0x309C JUMPI PUSH1 0x0 DUP3 DUP2 MSTORE PUSH1 0x1 PUSH1 0x20 DUP2 DUP2 MSTORE PUSH1 0x40 DUP1 DUP5 KECCAK256 DUP1 DUP5 ADD SLOAD PUSH1 0xFF DUP8 AND DUP7 MSTORE DUP6 DUP5 MSTORE SWAP2 DUP6 KECCAK256 PUSH1 0x2 ADD SLOAD DUP8 DUP7 MSTORE SWAP4 SWAP1 SWAP3 MSTORE PUSH1 0x4 SWAP1 SWAP2 ADD SLOAD PUSH1 0x1 PUSH1 0x1 PUSH1 0xA0 SHL SUB SWAP1 SWAP2 AND SWAP3 SWAP2 GT PUSH2 0x2E08 JUMPI PUSH1 0xFF DUP4 AND PUSH1 0x0 SWAP1 DUP2 MSTORE PUSH1 0x20 DUP2 DUP2 MSTORE PUSH1 0x40 DUP1 DUP4 KECCAK256 PUSH1 0x2 ADD SLOAD DUP8 DUP5 MSTORE PUSH1 0x1 SWAP1 SWAP3 MSTORE SWAP1 SWAP2 KECCAK256 PUSH1 0x4 ADD SLOAD PUSH2 0x2D94 SWAP2 SWAP1 PUSH2 0x37A5 JUMP JUMPDEST PUSH1 0x0 DUP6 DUP2 MSTORE PUSH1 0x1 PUSH1 0x20 DUP2 DUP2 MSTORE PUSH1 0x40 DUP1 DUP5 KECCAK256 PUSH1 0x4 SWAP1 DUP2 ADD SWAP6 DUP7 SSTORE PUSH1 0xFF DUP10 AND DUP6 MSTORE DUP5 DUP4 MSTORE SWAP1 DUP5 KECCAK256 PUSH1 0x2 DUP2 ADD DUP1 SLOAD SWAP3 DUP3 ADD DUP7 SWAP1 SSTORE DUP6 SWAP1 SSTORE PUSH1 0x5 ADD DUP1 SLOAD PUSH1 0xFF NOT AND DUP5 OR SWAP1 SSTORE SWAP3 DUP9 SWAP1 MSTORE MSTORE SWAP1 SLOAD SWAP1 SWAP2 POP PUSH2 0x2E03 JUMPI PUSH1 0x0 DUP5 DUP2 MSTORE PUSH1 0x1 PUSH1 0x20 DUP2 SWAP1 MSTORE PUSH1 0x40 SWAP1 SWAP2 KECCAK256 PUSH1 0x5 ADD DUP1 SLOAD PUSH1 0xFF NOT AND SWAP1 SWAP2 OR SWAP1 SSTORE JUMPDEST PUSH2 0x2EF7 JUMP JUMPDEST PUSH1 0x0 DUP5 DUP2 MSTORE PUSH1 0x1 PUSH1 0x20 MSTORE PUSH1 0x40 SWAP1 KECCAK256 PUSH1 0x4 DUP2 ADD SLOAD PUSH1 0x3 SWAP1 SWAP2 ADD SLOAD PUSH2 0x2E2B SWAP2 SWAP1 PUSH2 0x3832 JUMP JUMPDEST PUSH1 0xFF DUP5 AND PUSH1 0x0 SWAP1 DUP2 MSTORE PUSH1 0x20 DUP2 SWAP1 MSTORE PUSH1 0x40 SWAP1 KECCAK256 PUSH1 0x4 ADD SLOAD PUSH2 0x2E4B SWAP2 SWAP1 PUSH2 0x37A5 JUMP JUMPDEST PUSH1 0xFF DUP5 AND PUSH1 0x0 DUP2 DUP2 MSTORE PUSH1 0x20 DUP2 DUP2 MSTORE PUSH1 0x40 DUP1 DUP4 KECCAK256 PUSH1 0x4 DUP1 DUP3 ADD SWAP7 SWAP1 SWAP7 SSTORE DUP10 DUP5 MSTORE PUSH1 0x1 DUP4 MSTORE SWAP1 DUP4 KECCAK256 SWAP1 SWAP5 ADD SLOAD SWAP3 DUP3 MSTORE MSTORE PUSH1 0x2 SWAP1 SWAP2 ADD SLOAD SWAP1 SWAP2 POP PUSH2 0x2E8D SWAP1 DUP3 SWAP1 PUSH2 0x37A5 JUMP JUMPDEST PUSH1 0xFF DUP5 AND PUSH1 0x0 DUP2 DUP2 MSTORE PUSH1 0x20 DUP2 DUP2 MSTORE PUSH1 0x40 DUP1 DUP4 KECCAK256 PUSH1 0x2 DUP2 ADD SWAP6 SWAP1 SWAP6 SSTORE DUP9 DUP4 MSTORE PUSH1 0x1 DUP1 DUP4 MSTORE SWAP1 DUP4 KECCAK256 PUSH1 0x4 DUP1 DUP3 ADD DUP6 SWAP1 SSTORE PUSH1 0x5 SWAP1 SWAP2 ADD DUP1 SLOAD PUSH1 0xFF NOT AND SWAP1 SWAP3 OR SWAP1 SWAP2 SSTORE SWAP3 DUP3 MSTORE MSTORE ADD SLOAD PUSH2 0x2EF7 JUMPI PUSH1 0xFF DUP4 AND PUSH1 0x0 SWAP1 DUP2 MSTORE PUSH1 0x20 DUP2 SWAP1 MSTORE PUSH1 0x40 SWAP1 KECCAK256 PUSH1 0x5 ADD DUP1 SLOAD PUSH1 0xFF NOT AND PUSH1 0x1 OR SWAP1 SSTORE JUMPDEST DUP2 PUSH1 0x1 PUSH1 0x1 PUSH1 0xA0 SHL SUB AND PUSH2 0x8FC DUP3 PUSH1 0x0 DUP1 DUP8 PUSH1 0xFF AND DUP2 MSTORE PUSH1 0x20 ADD SWAP1 DUP2 MSTORE PUSH1 0x20 ADD PUSH1 0x0 KECCAK256 PUSH1 0x3 ADD SLOAD PUSH2 0x2F28 SWAP2 SWAP1 PUSH2 0x3832 JUMP JUMPDEST PUSH1 0x40 MLOAD DUP2 ISZERO SWAP1 SWAP3 MUL SWAP2 PUSH1 0x0 DUP2 DUP2 DUP2 DUP6 DUP9 DUP9 CALL SWAP4 POP POP POP POP ISZERO DUP1 ISZERO PUSH2 0x2F50 JUMPI RETURNDATASIZE PUSH1 0x0 DUP1 RETURNDATACOPY RETURNDATASIZE PUSH1 0x0 REVERT JUMPDEST POP PUSH1 0xFF DUP4 AND PUSH1 0x0 SWAP1 DUP2 MSTORE PUSH1 0x20 DUP2 SWAP1 MSTORE PUSH1 0x40 SWAP1 DUP2 SWAP1 KECCAK256 DUP1 SLOAD PUSH1 0x1 SWAP1 SWAP2 ADD SLOAD SWAP2 MLOAD PUSH4 0xA9059CBB PUSH1 0xE0 SHL DUP2 MSTORE PUSH1 0x1 PUSH1 0x1 PUSH1 0xA0 SHL SUB SWAP3 DUP4 AND PUSH1 0x4 DUP3 ADD MSTORE PUSH1 0x24 DUP2 ADD DUP5 SWAP1 MSTORE SWAP2 AND SWAP1 PUSH4 0xA9059CBB SWAP1 PUSH1 0x44 ADD PUSH1 0x20 PUSH1 0x40 MLOAD DUP1 DUP4 SUB DUP2 PUSH1 0x0 DUP8 GAS CALL ISZERO DUP1 ISZERO PUSH2 0x2FBB JUMPI RETURNDATASIZE PUSH1 0x0 DUP1 RETURNDATACOPY RETURNDATASIZE PUSH1 0x0 REVERT JUMPDEST POP POP POP POP PUSH1 0x40 MLOAD RETURNDATASIZE PUSH1 0x1F NOT PUSH1 0x1F DUP3 ADD AND DUP3 ADD DUP1 PUSH1 0x40 MSTORE POP DUP2 ADD SWAP1 PUSH2 0x2FDF SWAP2 SWAP1 PUSH2 0x36B0 JUMP JUMPDEST POP PUSH1 0xFF DUP4 AND PUSH1 0x0 SWAP1 DUP2 MSTORE PUSH1 0x20 DUP2 SWAP1 MSTORE PUSH1 0x40 SWAP1 KECCAK256 DUP1 SLOAD PUSH1 0x3 SWAP1 SWAP2 ADD SLOAD PUSH32 0xC5C589064B3D2AC80A4C7E550727B6FE9C900A322977580AEFD9588D4F7C88AC SWAP2 PUSH1 0x1 PUSH1 0x1 PUSH1 0xA0 SHL SUB AND SWAP1 PUSH2 0x3031 SWAP1 DUP5 SWAP1 PUSH2 0x3832 JUMP JUMPDEST PUSH1 0xFF DUP7 AND PUSH1 0x0 DUP2 DUP2 MSTORE PUSH1 0x20 DUP2 DUP2 MSTORE PUSH1 0x40 DUP1 DUP4 KECCAK256 PUSH1 0x1 SWAP1 DUP2 ADD SLOAD DUP13 DUP6 MSTORE DUP2 DUP5 MSTORE SWAP4 DUP3 SWAP1 KECCAK256 ADD SLOAD DUP2 MLOAD PUSH1 0x1 PUSH1 0x1 PUSH1 0xA0 SHL SUB SWAP8 DUP9 AND DUP2 MSTORE SWAP3 DUP4 ADD SWAP6 SWAP1 SWAP6 MSTORE DUP2 ADD DUP8 SWAP1 MSTORE PUSH1 0x60 DUP2 ADD SWAP3 SWAP1 SWAP3 MSTORE PUSH1 0x80 DUP3 ADD DUP10 SWAP1 MSTORE DUP4 AND PUSH1 0xA0 DUP3 ADD MSTORE SWAP2 AND PUSH1 0xC0 DUP3 ADD MSTORE PUSH1 0xE0 ADD PUSH1 0x40 MLOAD DUP1 SWAP2 SUB SWAP1 LOG1 POP POP JUMPDEST DUP1 PUSH2 0x30A6 DUP2 PUSH2 0x36E3 JUMP JUMPDEST SWAP2 POP POP PUSH2 0x2C56 JUMP JUMPDEST DUP3 DUP1 SLOAD PUSH2 0x30BA SWAP1 PUSH2 0x37BC JUMP JUMPDEST SWAP1 PUSH1 0x0 MSTORE PUSH1 0x20 PUSH1 0x0 KECCAK256 SWAP1 PUSH1 0x1F ADD PUSH1 0x20 SWAP1 DIV DUP2 ADD SWAP3 DUP3 PUSH2 0x30DC JUMPI PUSH1 0x0 DUP6 SSTORE PUSH2 0x3122 JUMP JUMPDEST DUP3 PUSH1 0x1F LT PUSH2 0x30F5 JUMPI DUP1 MLOAD PUSH1 0xFF NOT AND DUP4 DUP1 ADD OR DUP6 SSTORE PUSH2 0x3122 JUMP JUMPDEST DUP3 DUP1 ADD PUSH1 0x1 ADD DUP6 SSTORE DUP3 ISZERO PUSH2 0x3122 JUMPI SWAP2 DUP3 ADD JUMPDEST DUP3 DUP2 GT ISZERO PUSH2 0x3122 JUMPI DUP3 MLOAD DUP3 SSTORE SWAP2 PUSH1 0x20 ADD SWAP2 SWAP1 PUSH1 0x1 ADD SWAP1 PUSH2 0x3107 JUMP JUMPDEST POP PUSH2 0x312E SWAP3 SWAP2 POP PUSH2 0x3132 JUMP JUMPDEST POP SWAP1 JUMP JUMPDEST JUMPDEST DUP1 DUP3 GT ISZERO PUSH2 0x312E JUMPI PUSH1 0x0 DUP2 SSTORE PUSH1 0x1 ADD PUSH2 0x3133 JUMP JUMPDEST PUSH1 0x0 PUSH1 0x20 DUP3 DUP5 SUB SLT ISZERO PUSH2 0x3159 JUMPI PUSH1 0x0 DUP1 REVERT JUMPDEST POP CALLDATALOAD SWAP2 SWAP1 POP JUMP JUMPDEST DUP1 CALLDATALOAD PUSH1 0x1 PUSH1 0x1 PUSH1 0xA0 SHL SUB DUP2 AND DUP2 EQ PUSH2 0x3177 JUMPI PUSH1 0x0 DUP1 REVERT JUMPDEST SWAP2 SWAP1 POP JUMP JUMPDEST PUSH1 0x0 DUP1 PUSH1 0x40 DUP4 DUP6 SUB SLT ISZERO PUSH2 0x318F JUMPI PUSH1 0x0 DUP1 REVERT JUMPDEST PUSH2 0x3198 DUP4 PUSH2 0x3160 JUMP JUMPDEST SWAP2 POP PUSH2 0x31A6 PUSH1 0x20 DUP5 ADD PUSH2 0x3160 JUMP JUMPDEST SWAP1 POP SWAP3 POP SWAP3 SWAP1 POP JUMP JUMPDEST PUSH1 0x0 DUP2 MLOAD DUP1 DUP5 MSTORE PUSH1 0x20 DUP1 DUP6 ADD SWAP5 POP DUP1 DUP5 ADD PUSH1 0x0 JUMPDEST DUP4 DUP2 LT ISZERO PUSH2 0x31E8 JUMPI DUP2 MLOAD PUSH1 0x1 PUSH1 0x1 PUSH1 0xA0 SHL SUB AND DUP8 MSTORE SWAP6 DUP3 ADD SWAP6 SWAP1 DUP3 ADD SWAP1 PUSH1 0x1 ADD PUSH2 0x31C3 JUMP JUMPDEST POP SWAP5 SWAP6 SWAP5 POP POP POP POP POP JUMP JUMPDEST PUSH1 0x0 DUP2 MLOAD DUP1 DUP5 MSTORE PUSH1 0x20 DUP1 DUP6 ADD SWAP5 POP DUP1 DUP5 ADD PUSH1 0x0 JUMPDEST DUP4 DUP2 LT ISZERO PUSH2 0x31E8 JUMPI DUP2 MLOAD DUP8 MSTORE SWAP6 DUP3 ADD SWAP6 SWAP1 DUP3 ADD SWAP1 PUSH1 0x1 ADD PUSH2 0x3207 JUMP JUMPDEST PUSH4 0x4E487B71 PUSH1 0xE0 SHL PUSH1 0x0 MSTORE PUSH1 0x21 PUSH1 0x4 MSTORE PUSH1 0x24 PUSH1 0x0 REVERT JUMPDEST PUSH1 0x3 DUP2 LT PUSH2 0x3257 JUMPI PUSH4 0x4E487B71 PUSH1 0xE0 SHL PUSH1 0x0 MSTORE PUSH1 0x21 PUSH1 0x4 MSTORE PUSH1 0x24 PUSH1 0x0 REVERT JUMPDEST SWAP1 MSTORE JUMP JUMPDEST PUSH1 0xC0 DUP2 MSTORE PUSH1 0x0 PUSH2 0x326E PUSH1 0xC0 DUP4 ADD DUP10 PUSH2 0x31AF JUMP JUMPDEST PUSH1 0x20 DUP4 DUP3 SUB DUP2 DUP6 ADD MSTORE PUSH2 0x3281 DUP3 DUP11 PUSH2 0x31F3 JUMP JUMPDEST SWAP2 POP DUP4 DUP3 SUB PUSH1 0x40 DUP6 ADD MSTORE PUSH2 0x3295 DUP3 DUP10 PUSH2 0x31F3 JUMP JUMPDEST SWAP2 POP DUP4 DUP3 SUB PUSH1 0x60 DUP6 ADD MSTORE PUSH2 0x32A9 DUP3 DUP9 PUSH2 0x31F3 JUMP JUMPDEST DUP5 DUP2 SUB PUSH1 0x80 DUP7 ADD MSTORE DUP7 MLOAD DUP1 DUP3 MSTORE DUP3 DUP9 ADD SWAP4 POP SWAP1 DUP3 ADD SWAP1 PUSH1 0x0 JUMPDEST DUP2 DUP2 LT ISZERO PUSH2 0x32E5 JUMPI PUSH2 0x32D5 DUP4 DUP7 MLOAD PUSH2 0x3239 JUMP JUMPDEST SWAP4 DUP4 ADD SWAP4 SWAP2 DUP4 ADD SWAP2 PUSH1 0x1 ADD PUSH2 0x32C2 JUMP JUMPDEST POP POP DUP5 DUP2 SUB PUSH1 0xA0 DUP7 ADD MSTORE PUSH2 0x32F9 DUP2 DUP8 PUSH2 0x31F3 JUMP JUMPDEST SWAP12 SWAP11 POP POP POP POP POP POP POP POP POP POP POP JUMP JUMPDEST PUSH1 0x0 DUP1 PUSH1 0x40 DUP4 DUP6 SUB SLT ISZERO PUSH2 0x331B JUMPI PUSH1 0x0 DUP1 REVERT JUMPDEST PUSH2 0x3324 DUP4 PUSH2 0x3160 JUMP JUMPDEST SWAP5 PUSH1 0x20 SWAP4 SWAP1 SWAP4 ADD CALLDATALOAD SWAP4 POP POP POP JUMP JUMPDEST PUSH1 0x1 PUSH1 0x1 PUSH1 0xA0 SHL SUB DUP8 DUP2 AND DUP3 MSTORE DUP7 AND PUSH1 0x20 DUP3 ADD MSTORE PUSH1 0x40 DUP2 ADD DUP6 SWAP1 MSTORE PUSH1 0x60 DUP2 ADD DUP5 SWAP1 MSTORE PUSH1 0x80 DUP2 ADD DUP4 SWAP1 MSTORE PUSH1 0xC0 DUP2 ADD PUSH2 0x336C PUSH1 0xA0 DUP4 ADD DUP5 PUSH2 0x3239 JUMP JUMPDEST SWAP8 SWAP7 POP POP POP POP POP POP POP JUMP JUMPDEST PUSH1 0x0 DUP1 PUSH1 0x0 PUSH1 0x60 DUP5 DUP7 SUB SLT ISZERO PUSH2 0x338C JUMPI PUSH1 0x0 DUP1 REVERT JUMPDEST PUSH2 0x3395 DUP5 PUSH2 0x3160 JUMP JUMPDEST SWAP6 PUSH1 0x20 DUP6 ADD CALLDATALOAD SWAP6 POP PUSH1 0x40 SWAP1 SWAP5 ADD CALLDATALOAD SWAP4 SWAP3 POP POP POP JUMP JUMPDEST PUSH1 0x20 DUP2 MSTORE PUSH1 0x0 PUSH2 0x33BD PUSH1 0x20 DUP4 ADD DUP5 PUSH2 0x31AF JUMP JUMPDEST SWAP4 SWAP3 POP POP POP JUMP JUMPDEST PUSH4 0x4E487B71 PUSH1 0xE0 SHL PUSH1 0x0 MSTORE PUSH1 0x41 PUSH1 0x4 MSTORE PUSH1 0x24 PUSH1 0x0 REVERT JUMPDEST PUSH1 0x0 DUP3 PUSH1 0x1F DUP4 ADD SLT PUSH2 0x33EB JUMPI PUSH1 0x0 DUP1 REVERT JUMPDEST DUP2 CALLDATALOAD PUSH1 0x1 PUSH1 0x1 PUSH1 0x40 SHL SUB DUP1 DUP3 GT ISZERO PUSH2 0x3405 JUMPI PUSH2 0x3405 PUSH2 0x33C4 JUMP JUMPDEST PUSH1 0x40 MLOAD PUSH1 0x1F DUP4 ADD PUSH1 0x1F NOT SWAP1 DUP2 AND PUSH1 0x3F ADD AND DUP2 ADD SWAP1 DUP3 DUP3 GT DUP2 DUP4 LT OR ISZERO PUSH2 0x342D JUMPI PUSH2 0x342D PUSH2 0x33C4 JUMP JUMPDEST DUP2 PUSH1 0x40 MSTORE DUP4 DUP2 MSTORE DUP7 PUSH1 0x20 DUP6 DUP9 ADD ADD GT ISZERO PUSH2 0x3446 JUMPI PUSH1 0x0 DUP1 REVERT JUMPDEST DUP4 PUSH1 0x20 DUP8 ADD PUSH1 0x20 DUP4 ADD CALLDATACOPY PUSH1 0x0 PUSH1 0x20 DUP6 DUP4 ADD ADD MSTORE DUP1 SWAP5 POP POP POP POP POP SWAP3 SWAP2 POP POP JUMP JUMPDEST PUSH1 0x0 PUSH1 0x20 DUP3 DUP5 SUB SLT ISZERO PUSH2 0x3478 JUMPI PUSH1 0x0 DUP1 REVERT JUMPDEST DUP2 CALLDATALOAD PUSH1 0x1 PUSH1 0x1 PUSH1 0x40 SHL SUB DUP2 GT ISZERO PUSH2 0x348E JUMPI PUSH1 0x0 DUP1 REVERT JUMPDEST PUSH2 0xDF6 DUP5 DUP3 DUP6 ADD PUSH2 0x33DA JUMP JUMPDEST PUSH1 0x0 JUMPDEST DUP4 DUP2 LT ISZERO PUSH2 0x34B5 JUMPI DUP2 DUP2 ADD MLOAD DUP4 DUP3 ADD MSTORE PUSH1 0x20 ADD PUSH2 0x349D JUMP JUMPDEST DUP4 DUP2 GT ISZERO PUSH2 0x34C4 JUMPI PUSH1 0x0 DUP5 DUP5 ADD MSTORE JUMPDEST POP POP POP POP JUMP JUMPDEST PUSH1 0x0 PUSH1 0x20 DUP1 DUP4 ADD DUP2 DUP5 MSTORE DUP1 DUP6 MLOAD DUP1 DUP4 MSTORE PUSH1 0x40 DUP7 ADD SWAP2 POP PUSH1 0x40 DUP2 PUSH1 0x5 SHL DUP8 ADD ADD SWAP3 POP DUP4 DUP8 ADD PUSH1 0x0 JUMPDEST DUP3 DUP2 LT ISZERO PUSH2 0x3537 JUMPI DUP8 DUP6 SUB PUSH1 0x3F NOT ADD DUP5 MSTORE DUP2 MLOAD DUP1 MLOAD DUP1 DUP8 MSTORE PUSH2 0x3518 DUP2 DUP10 DUP10 ADD DUP11 DUP6 ADD PUSH2 0x349A JUMP JUMPDEST PUSH1 0x1F ADD PUSH1 0x1F NOT AND SWAP6 SWAP1 SWAP6 ADD DUP7 ADD SWAP5 POP SWAP3 DUP6 ADD SWAP3 SWAP1 DUP6 ADD SWAP1 PUSH1 0x1 ADD PUSH2 0x34F1 JUMP JUMPDEST POP SWAP3 SWAP8 SWAP7 POP POP POP POP POP POP POP JUMP JUMPDEST PUSH1 0x40 DUP2 MSTORE PUSH1 0x0 PUSH2 0x3557 PUSH1 0x40 DUP4 ADD DUP6 PUSH2 0x31AF JUMP JUMPDEST DUP3 DUP2 SUB PUSH1 0x20 DUP5 DUP2 ADD SWAP2 SWAP1 SWAP2 MSTORE DUP5 MLOAD DUP1 DUP4 MSTORE DUP6 DUP3 ADD SWAP3 DUP3 ADD SWAP1 PUSH1 0x0 JUMPDEST DUP2 DUP2 LT ISZERO PUSH2 0x3590 JUMPI DUP5 MLOAD ISZERO ISZERO DUP4 MSTORE SWAP4 DUP4 ADD SWAP4 SWAP2 DUP4 ADD SWAP2 PUSH1 0x1 ADD PUSH2 0x3572 JUMP JUMPDEST POP SWAP1 SWAP8 SWAP7 POP POP POP POP POP POP POP JUMP JUMPDEST PUSH1 0x0 PUSH1 0x20 DUP3 DUP5 SUB SLT ISZERO PUSH2 0x35AF JUMPI PUSH1 0x0 DUP1 REVERT JUMPDEST PUSH2 0x33BD DUP3 PUSH2 0x3160 JUMP JUMPDEST PUSH1 0x80 DUP2 MSTORE PUSH1 0x0 PUSH2 0x35CB PUSH1 0x80 DUP4 ADD DUP8 PUSH2 0x31F3 JUMP JUMPDEST DUP3 DUP2 SUB PUSH1 0x20 DUP5 ADD MSTORE PUSH2 0x35DD DUP2 DUP8 PUSH2 0x31F3 JUMP JUMPDEST SWAP1 POP DUP3 DUP2 SUB PUSH1 0x40 DUP5 ADD MSTORE PUSH2 0x35F1 DUP2 DUP7 PUSH2 0x31F3 JUMP JUMPDEST SWAP1 POP DUP3 DUP2 SUB PUSH1 0x60 DUP5 ADD MSTORE PUSH2 0x336C DUP2 DUP6 PUSH2 0x31F3 JUMP JUMPDEST DUP1 ISZERO ISZERO DUP2 EQ PUSH2 0x3613 JUMPI PUSH1 0x0 DUP1 REVERT JUMPDEST POP JUMP JUMPDEST PUSH1 0x0 DUP1 PUSH1 0x40 DUP4 DUP6 SUB SLT ISZERO PUSH2 0x3629 JUMPI PUSH1 0x0 DUP1 REVERT JUMPDEST PUSH2 0x3632 DUP4 PUSH2 0x3160 JUMP JUMPDEST SWAP2 POP PUSH1 0x20 DUP4 ADD CALLDATALOAD PUSH2 0x3642 DUP2 PUSH2 0x3605 JUMP JUMPDEST DUP1 SWAP2 POP POP SWAP3 POP SWAP3 SWAP1 POP JUMP JUMPDEST PUSH1 0x0 DUP1 PUSH1 0x40 DUP4 DUP6 SUB SLT ISZERO PUSH2 0x3660 JUMPI PUSH1 0x0 DUP1 REVERT JUMPDEST DUP3 CALLDATALOAD PUSH1 0x1 PUSH1 0x1 PUSH1 0x40 SHL SUB DUP1 DUP3 GT ISZERO PUSH2 0x3677 JUMPI PUSH1 0x0 DUP1 REVERT JUMPDEST PUSH2 0x3683 DUP7 DUP4 DUP8 ADD PUSH2 0x33DA JUMP JUMPDEST SWAP4 POP PUSH1 0x20 DUP6 ADD CALLDATALOAD SWAP2 POP DUP1 DUP3 GT ISZERO PUSH2 0x3699 JUMPI PUSH1 0x0 DUP1 REVERT JUMPDEST POP PUSH2 0x36A6 DUP6 DUP3 DUP7 ADD PUSH2 0x33DA JUMP JUMPDEST SWAP2 POP POP SWAP3 POP SWAP3 SWAP1 POP JUMP JUMPDEST PUSH1 0x0 PUSH1 0x20 DUP3 DUP5 SUB SLT ISZERO PUSH2 0x36C2 JUMPI PUSH1 0x0 DUP1 REVERT JUMPDEST DUP2 MLOAD PUSH2 0x33BD DUP2 PUSH2 0x3605 JUMP JUMPDEST PUSH4 0x4E487B71 PUSH1 0xE0 SHL PUSH1 0x0 MSTORE PUSH1 0x11 PUSH1 0x4 MSTORE PUSH1 0x24 PUSH1 0x0 REVERT JUMPDEST PUSH1 0x0 PUSH1 0xFF DUP3 AND PUSH1 0xFF DUP2 EQ ISZERO PUSH2 0x36FA JUMPI PUSH2 0x36FA PUSH2 0x36CD JUMP JUMPDEST PUSH1 0x1 ADD SWAP3 SWAP2 POP POP JUMP JUMPDEST PUSH4 0x4E487B71 PUSH1 0xE0 SHL PUSH1 0x0 MSTORE PUSH1 0x32 PUSH1 0x4 MSTORE PUSH1 0x24 PUSH1 0x0 REVERT JUMPDEST PUSH1 0x0 PUSH1 0x0 NOT DUP3 EQ ISZERO PUSH2 0x372D JUMPI PUSH2 0x372D PUSH2 0x36CD JUMP JUMPDEST POP PUSH1 0x1 ADD SWAP1 JUMP JUMPDEST PUSH1 0x20 DUP1 DUP3 MSTORE PUSH1 0x18 SWAP1 DUP3 ADD MSTORE PUSH32 0x73686172652076616C75652063616E206E6F7420626520300000000000000000 PUSH1 0x40 DUP3 ADD MSTORE PUSH1 0x60 ADD SWAP1 JUMP JUMPDEST PUSH1 0x0 DUP3 PUSH2 0x3788 JUMPI PUSH4 0x4E487B71 PUSH1 0xE0 SHL PUSH1 0x0 MSTORE PUSH1 0x12 PUSH1 0x4 MSTORE PUSH1 0x24 PUSH1 0x0 REVERT JUMPDEST POP DIV SWAP1 JUMP JUMPDEST PUSH1 0x0 DUP3 NOT DUP3 GT ISZERO PUSH2 0x37A0 JUMPI PUSH2 0x37A0 PUSH2 0x36CD JUMP JUMPDEST POP ADD SWAP1 JUMP JUMPDEST PUSH1 0x0 DUP3 DUP3 LT ISZERO PUSH2 0x37B7 JUMPI PUSH2 0x37B7 PUSH2 0x36CD JUMP JUMPDEST POP SUB SWAP1 JUMP JUMPDEST PUSH1 0x1 DUP2 DUP2 SHR SWAP1 DUP3 AND DUP1 PUSH2 0x37D0 JUMPI PUSH1 0x7F DUP3 AND SWAP2 POP JUMPDEST PUSH1 0x20 DUP3 LT DUP2 EQ ISZERO PUSH2 0x11B0 JUMPI PUSH4 0x4E487B71 PUSH1 0xE0 SHL PUSH1 0x0 MSTORE PUSH1 0x22 PUSH1 0x4 MSTORE PUSH1 0x24 PUSH1 0x0 REVERT JUMPDEST PUSH1 0x0 PUSH1 0xFF DUP3 AND PUSH1 0xFF DUP5 AND DUP1 PUSH1 0xFF SUB DUP3 GT ISZERO PUSH2 0x380E JUMPI PUSH2 0x380E PUSH2 0x36CD JUMP JUMPDEST ADD SWAP4 SWAP3 POP POP POP JUMP JUMPDEST PUSH1 0x0 DUP3 MLOAD PUSH2 0x3828 DUP2 DUP5 PUSH1 0x20 DUP8 ADD PUSH2 0x349A JUMP JUMPDEST SWAP2 SWAP1 SWAP2 ADD SWAP3 SWAP2 POP POP JUMP JUMPDEST PUSH1 0x0 DUP2 PUSH1 0x0 NOT DIV DUP4 GT DUP3 ISZERO ISZERO AND ISZERO PUSH2 0x384C JUMPI PUSH2 0x384C PUSH2 0x36CD JUMP JUMPDEST POP MUL SWAP1 JUMP INVALID LOG2 PUSH5 0x6970667358 0x22 SLT KECCAK256 0xF9 0xDE 0xCF 0x2F PUSH3 0xDBF4D9 PUSH4 0x4FFD0299 JUMPDEST 0x5C 0x2E TIMESTAMP 0xAC NUMBER LOG1 0xE5 DIV DUP13 0x24 ISZERO ADDRESS 0xD4 0x4F 0xBE DUP16 0xAC CALLVALUE PUSH5 0x736F6C6343 STOP ADDMOD SIGNEXTEND STOP CALLER ","sha1":"dc1e994333d61623f9165a2dbffdd4d945018c32","source":"// SPDX-License-Identifier: MIT\n// Gallery of solid state contracts\n\npragma solidity ^0.8.0;\npragma abicoder v2;\n\nimport \"@openzeppelin/contracts/token/ERC20/IERC20.sol\";\n\ncontract SolidStateGallery {\n    struct buyOrder {\n        address artworkAddress;\n        address orderOwner;\n        uint256 shareValue;\n        uint256 ethValue;\n        uint256 balance;\n        OrderState state;\n    }\n    struct sellOrder {\n        address artworkAddress;\n        address orderOwner;\n        uint256 shareValue;\n        uint256 ethValue;\n        uint256 balance;\n        OrderState state;\n    }\n\n    enum OrderState {\n        OPEN,\n        CLOSED,\n        CANCELLED\n    }\n\n    event orderTransaction(\n        address artwork,\n        uint256 eth,\n        uint256 share,\n        uint256 buyId,\n        uint256 selld,\n        address buyer,\n        address seller\n    );\n\n    mapping(uint256 => buyOrder) public buyOrders;\n    mapping(uint256 => sellOrder) public sellOrders;\n    uint256 buyOrderCount = 0;\n    uint256 sellOrderCount = 0;\n\n    mapping(uint256 => address) private artWorkContracts;\n    mapping(uint256 => string) private artWorkCollections;\n    mapping(uint256 => uint256) private artWorkCollection;\n    mapping(address => bool) private artWorkVisibility;\n    uint256 private artWorkCount;\n    uint256 private collectionCount;\n    address[] private owners;\n    uint256 ownerCount;\n    struct allArtworks {\n        address contractAddress;\n        bool visibilty;\n    }\n\n    modifier onlyOwner() {\n        require(msg.sender == owners[ownerCount]);\n        _;\n    }\n\n    constructor() {\n        owners.push(msg.sender);\n        artWorkCount = 0;\n        ownerCount = 0;\n        collectionCount = 0;\n    }\n\n    function addArtWork(address _artWorkAddress, uint256 _collectionId)\n        public\n        onlyOwner\n    {\n        for (\n            uint256 artWorkIndex = 0;\n            artWorkIndex < artWorkCount;\n            artWorkIndex++\n        ) {\n            require(\n                artWorkContracts[artWorkIndex] != _artWorkAddress,\n                \"Art work already added\"\n            );\n        }\n        artWorkContracts[artWorkCount] = _artWorkAddress;\n        artWorkCollection[artWorkCount] = _collectionId;\n        artWorkVisibility[_artWorkAddress] = false;\n        artWorkCount++;\n    }\n\n    function addCollection(string memory _collectionName) public onlyOwner {\n        for (\n            uint256 collectionIndex = 0;\n            collectionIndex < collectionCount;\n            collectionIndex++\n        ) {\n            require(\n                compareStrings(\n                    artWorkCollections[collectionIndex],\n                    _collectionName\n                ) == false,\n                \"Collection is already added\"\n            );\n        }\n        artWorkCollections[collectionCount] = _collectionName;\n\n        collectionCount++;\n    }\n\n    function getCollectionIdByName(string memory _collectionName)\n        public\n        view\n        returns (uint256)\n    {\n        bool isName = false;\n        for (\n            uint256 collectionIndex = 0;\n            collectionIndex < collectionCount;\n            collectionIndex++\n        ) {\n            if (\n                compareStrings(\n                    artWorkCollections[collectionIndex],\n                    _collectionName\n                ) == true\n            ) {\n                return collectionIndex;\n            }\n        }\n        require(isName == true, \"No Collection By That Name\");\n        return 0;\n    }\n\n    function compareStrings(string memory a, string memory b)\n        public\n        pure\n        returns (bool)\n    {\n        return (keccak256(abi.encodePacked((a))) ==\n            keccak256(abi.encodePacked((b))));\n    }\n\n    function getCollections() public view returns (string[] memory) {\n        string[] memory collections = new string[](collectionCount);\n        for (\n            uint256 collectionIndex = 0;\n            collectionIndex < collectionCount;\n            collectionIndex++\n        ) {\n            collections[collectionIndex] = artWorkCollections[collectionIndex];\n        }\n        return collections;\n    }\n\n    function getAllArtWorksByCollectionId(uint256 _Id)\n        public\n        view\n        returns (address[] memory, bool[] memory)\n    {\n        uint256 count = 0;\n        for (\n            uint256 artWorkIndex = 0;\n            artWorkIndex < artWorkCount;\n            artWorkIndex++\n        ) {\n            if (artWorkCollection[artWorkIndex] == _Id) {\n                count++;\n            }\n        }\n        address[] memory contracts = new address[](count);\n        bool[] memory visibility = new bool[](count);\n        count = 0;\n        for (\n            uint256 artWorkIndex = 0;\n            artWorkIndex < artWorkCount;\n            artWorkIndex++\n        ) {\n            if (artWorkCollection[artWorkIndex] == _Id) {\n                contracts[count] = artWorkContracts[artWorkIndex];\n                visibility[count] = artWorkVisibility[\n                    artWorkContracts[artWorkIndex]\n                ];\n                count++;\n            }\n        }\n        return (contracts, visibility);\n    }\n\n    function getArtWorksByCollectionId(uint256 _Id)\n        public\n        view\n        returns (address[] memory)\n    {\n        uint256 count = 0;\n        for (\n            uint256 artWorkIndex = 0;\n            artWorkIndex < artWorkCount;\n            artWorkIndex++\n        ) {\n            if (artWorkVisibility[artWorkContracts[artWorkIndex]] == true) {\n                if (artWorkCollection[artWorkIndex] == _Id) {\n                    count++;\n                }\n            }\n        }\n        address[] memory contracts = new address[](count);\n        count = 0;\n        for (\n            uint256 artWorkIndex = 0;\n            artWorkIndex < artWorkCount;\n            artWorkIndex++\n        ) {\n            if (artWorkVisibility[artWorkContracts[artWorkIndex]] == true) {\n                if (artWorkCollection[artWorkIndex] == _Id) {\n                    contracts[count] = artWorkContracts[artWorkIndex];\n                    count++;\n                }\n            }\n        }\n        return contracts;\n    }\n\n    function getAllArtWorks()\n        public\n        view\n        returns (address[] memory, bool[] memory)\n    {\n        address[] memory contracts = new address[](artWorkCount);\n        bool[] memory visibility = new bool[](artWorkCount);\n        for (\n            uint256 artWorkIndex = 0;\n            artWorkIndex < artWorkCount;\n            artWorkIndex++\n        ) {\n            contracts[artWorkIndex] = artWorkContracts[artWorkIndex];\n            visibility[artWorkIndex] = artWorkVisibility[\n                artWorkContracts[artWorkIndex]\n            ];\n        }\n        return (contracts, visibility);\n    }\n\n    function getArtWorks() public view returns (address[] memory) {\n        uint256 count = 0;\n        for (\n            uint256 artWorkIndex = 0;\n            artWorkIndex < artWorkCount;\n            artWorkIndex++\n        ) {\n            if (artWorkVisibility[artWorkContracts[artWorkIndex]] == true) {\n                count++;\n            }\n        }\n        address[] memory contracts = new address[](count);\n        count = 0;\n        for (\n            uint256 artWorkIndex = 0;\n            artWorkIndex < artWorkCount;\n            artWorkIndex++\n        ) {\n            if (artWorkVisibility[artWorkContracts[artWorkIndex]] == true) {\n                contracts[count] = artWorkContracts[artWorkIndex];\n                count++;\n            }\n        }\n        return contracts;\n    }\n\n    function setArtWorkVisibility(\n        address _artWorkContractAddress,\n        bool _visibility\n    ) public onlyOwner {\n        artWorkVisibility[_artWorkContractAddress] = _visibility;\n    }\n\n    function getOwners() public view returns (address[] memory) {\n        return owners;\n    }\n\n    function newOwner(address _newOwnerAddress) public onlyOwner {\n        ownerCount++;\n        owners.push(_newOwnerAddress);\n    }\n\n    /// TRADE THE SHARES/TOKENS FOR ETH\n\n    function getAllBuyOrders(address _artworkAddress)\n        public\n        view\n        returns (\n            uint256[] memory,\n            uint256[] memory,\n            uint256[] memory,\n            uint256[] memory\n        )\n    {\n        uint8 c = 0;\n        for (uint8 j = 0; j < buyOrderCount; j++) {\n            if (buyOrders[j].state == OrderState.OPEN) {\n                if (buyOrders[j].artworkAddress == _artworkAddress) {\n                    c += 1;\n                }\n            }\n        }\n\n        uint256[] memory _shareValues = new uint256[](c);\n        uint256[] memory _ethValues = new uint256[](c);\n        uint256[] memory _balances = new uint256[](c);\n        uint256[] memory _ids = new uint256[](c);\n        c = 0;\n        for (uint8 j = 0; j < buyOrderCount; j++) {\n            if (buyOrders[j].state == OrderState.OPEN) {\n                if (buyOrders[j].artworkAddress == _artworkAddress) {\n                    _shareValues[c] = buyOrders[j].shareValue;\n                    _ethValues[c] = buyOrders[j].ethValue;\n                    _balances[c] = buyOrders[j].balance;\n                    _ids[c] = j;\n                    c++;\n                }\n            }\n        }\n        return (_shareValues, _ethValues, _balances, _ids);\n    }\n\n    function getBuyOrdersByAddress(address _artworkAddress, address _address)\n        public\n        view\n        returns (\n            address[] memory,\n            uint256[] memory,\n            uint256[] memory,\n            uint256[] memory,\n            OrderState[] memory,\n            uint256[] memory\n        )\n    {\n        uint8 c = 0;\n        for (uint8 j = 0; j < buyOrderCount; j++) {\n            if (buyOrders[j].orderOwner == _address) {\n                if (buyOrders[j].artworkAddress == _artworkAddress) {\n                    c++;\n                }\n            }\n        }\n        address[] memory _orderOwners = new address[](c);\n        uint256[] memory _shareValues = new uint256[](c);\n        uint256[] memory _ethValues = new uint256[](c);\n        uint256[] memory _balances = new uint256[](c);\n        uint256[] memory _ids = new uint256[](c);\n        OrderState[] memory _states = new OrderState[](c);\n        c = 0;\n        for (uint8 j = 0; j < buyOrderCount; j++) {\n            if (buyOrders[j].orderOwner == _address) {\n                if (buyOrders[j].artworkAddress == _artworkAddress) {\n                    _orderOwners[c] = buyOrders[j].orderOwner;\n                    _shareValues[c] = buyOrders[j].shareValue;\n                    _ethValues[c] = buyOrders[j].ethValue;\n                    _balances[c] = buyOrders[j].balance;\n\n                    _ids[c] = j;\n                    _states[c] = buyOrders[j].state;\n                    c++;\n                }\n            }\n        }\n        return (\n            _orderOwners,\n            _shareValues,\n            _ethValues,\n            _balances,\n            _states,\n            _ids\n        );\n    }\n\n    function getAllSellOrders(address _artworkAddress)\n        public\n        view\n        returns (\n            uint256[] memory,\n            uint256[] memory,\n            uint256[] memory,\n            uint256[] memory\n        )\n    {\n        uint8 c = 0;\n        for (uint8 j = 0; j < sellOrderCount; j++) {\n            if (sellOrders[j].artworkAddress == _artworkAddress) {\n                if (sellOrders[j].state == OrderState.OPEN) {\n                    c++;\n                }\n            }\n        }\n        uint256[] memory _shareValues = new uint256[](c);\n        uint256[] memory _ethValues = new uint256[](c);\n        uint256[] memory _balances = new uint256[](c);\n        uint256[] memory _ids = new uint256[](c);\n        c = 0;\n        for (uint8 j = 0; j < sellOrderCount; j++) {\n            if (sellOrders[j].artworkAddress == _artworkAddress) {\n                if (sellOrders[j].state == OrderState.OPEN) {\n                    _shareValues[c] = sellOrders[j].shareValue;\n                    _ethValues[c] = sellOrders[j].ethValue;\n                    _balances[c] = sellOrders[j].balance;\n                    _ids[c] = j;\n                    c++;\n                }\n            }\n        }\n        return (_shareValues, _ethValues, _balances, _ids);\n    }\n\n    function getSellOrdersByAddress(address _artworkAddress, address _address)\n        public\n        view\n        returns (\n            address[] memory,\n            uint256[] memory,\n            uint256[] memory,\n            uint256[] memory,\n            OrderState[] memory,\n            uint256[] memory\n        )\n    {\n        uint8 c = 0;\n        for (uint8 j = 0; j < sellOrderCount; j++) {\n            if (sellOrders[j].artworkAddress == _artworkAddress) {\n                if (sellOrders[j].orderOwner == _address) {\n                    c++;\n                }\n            }\n        }\n        address[] memory _orderOwners = new address[](c);\n        uint256[] memory _shareValues = new uint256[](c);\n        uint256[] memory _ethValues = new uint256[](c);\n        uint256[] memory _balances = new uint256[](c);\n        uint256[] memory _ids = new uint256[](c);\n        OrderState[] memory _states = new OrderState[](c);\n        c = 0;\n        for (uint8 j = 0; j < sellOrderCount; j++) {\n            if (sellOrders[j].orderOwner == _address) {\n                if (sellOrders[j].artworkAddress == _artworkAddress) {\n                    _orderOwners[c] = sellOrders[j].orderOwner;\n                    _shareValues[c] = sellOrders[j].shareValue;\n                    _ethValues[c] = sellOrders[j].ethValue;\n                    _balances[c] = sellOrders[j].balance;\n                    _states[c] = sellOrders[j].state;\n                    _ids[c] = j;\n                    c++;\n                }\n            }\n        }\n        return (\n            _orderOwners,\n            _shareValues,\n            _ethValues,\n            _balances,\n            _states,\n            _ids\n        );\n    }\n\n    function placeBuyOrder(\n        address _artworkAddress,\n        uint256 shareValue,\n        uint256 ethValue\n    ) public payable returns (uint256) {\n        require(shareValue > 0, \"share value can not be 0\");\n        require(ethValue > 0, \"share value can not be 0\");\n\n        require((msg.value / shareValue) == ethValue, \"can not make order\");\n        buyOrders[buyOrderCount] = buyOrder(\n            _artworkAddress,\n            msg.sender,\n            shareValue,\n            ethValue,\n            msg.value,\n            OrderState.OPEN\n        );\n\n        fillBuyOrder(buyOrderCount);\n        buyOrderCount += 1;\n        return buyOrderCount - 1;\n    }\n\n    function placeSellOrder(\n        address _artworkAddress,\n        uint256 shareValue,\n        uint256 ethValue\n    ) public returns (uint256) {\n        require(shareValue > 0, \"share value can not be 0\");\n        require(ethValue > 0, \"share value can not be 0\");\n        //IERC20(_artworkAddress).allowance(msg.sender, address(this));\n        IERC20(_artworkAddress).transferFrom(\n            msg.sender,\n            address(this),\n            shareValue\n        );\n        sellOrders[sellOrderCount] = sellOrder(\n            _artworkAddress,\n            msg.sender,\n            shareValue,\n            ethValue,\n            shareValue,\n            OrderState.OPEN\n        );\n\n        fillSellOrder(sellOrderCount);\n        sellOrderCount += 1;\n        return sellOrderCount - 1; // IERC20(_artworkAddress).balanceOf(msg.sender); //\n    }\n\n    function cancelBuyOrder(uint256 id) public {\n        require(\n            buyOrders[id].orderOwner == msg.sender,\n            \"msg.sender is not order owner\"\n        );\n        require(buyOrders[id].state == OrderState.OPEN, \"order is not open\");\n\n        address payable payee = payable(msg.sender);\n        payee.transfer(buyOrders[id].balance);\n        buyOrders[id].balance = 0;\n        buyOrders[id].state = OrderState.CANCELLED;\n    }\n\n    function cancelSellOrder(uint256 id) public {\n        require(\n            sellOrders[id].orderOwner == msg.sender,\n            \"msg.sender is not order owner\"\n        );\n        require(sellOrders[id].state == OrderState.OPEN, \"order is not open\");\n\n        sellOrders[id].state = OrderState.CANCELLED;\n        IERC20(sellOrders[id].artworkAddress).transfer(\n            sellOrders[id].orderOwner,\n            sellOrders[id].balance\n        );\n        sellOrders[id].balance = 0;\n    }\n\n    function getHeldShares(address _artworkAddress)\n        public\n        view\n        returns (uint256)\n    {\n        uint256 heldShares = 0;\n        for (uint8 j = 0; j < sellOrderCount; j++) {\n            if (sellOrders[j].artworkAddress == _artworkAddress) {\n                heldShares += sellOrders[j].balance;\n            }\n        }\n        return heldShares;\n    }\n\n    function getHeldETH(address _artworkAddress) public view returns (uint256) {\n        uint256 heldETH = 0;\n        for (uint8 j = 0; j < buyOrderCount; j++) {\n            if (buyOrders[j].artworkAddress == _artworkAddress) {\n                heldETH += buyOrders[j].balance;\n            }\n        }\n        return heldETH;\n    }\n\n    function fillBuyOrder(uint256 bc) private {\n        for (uint8 j = 0; j < sellOrderCount; j++) {\n            if (sellOrders[j].state == OrderState.OPEN) {\n                if (buyOrders[bc].state == OrderState.OPEN) {\n                    if (\n                        sellOrders[j].artworkAddress ==\n                        buyOrders[bc].artworkAddress\n                    ) {\n                        if (sellOrders[j].ethValue == buyOrders[bc].ethValue) {\n                            address payable seller = payable(\n                                sellOrders[j].orderOwner\n                            );\n                            uint256 transferAmount = 0;\n                            if (\n                                sellOrders[j].balance >=\n                                buyOrders[bc].shareValue\n                            ) {\n                                sellOrders[j].balance =\n                                    sellOrders[j].balance -\n                                    buyOrders[bc].shareValue;\n\n                                transferAmount = buyOrders[bc].shareValue;\n\n                                buyOrders[bc].balance = 0;\n                                buyOrders[bc].shareValue = 0;\n\n                                buyOrders[bc].state = OrderState.CLOSED;\n\n                                if (sellOrders[j].balance == 0) {\n                                    sellOrders[j].state = OrderState.CLOSED;\n                                }\n                            } else {\n                                buyOrders[bc].balance =\n                                    buyOrders[bc].balance -\n                                    (sellOrders[j].ethValue *\n                                        sellOrders[j].balance);\n\n                                buyOrders[bc].shareValue =\n                                    buyOrders[bc].shareValue -\n                                    sellOrders[j].balance;\n\n                                transferAmount = sellOrders[j].balance;\n\n                                sellOrders[j].balance = 0;\n                                sellOrders[j].state = OrderState.CLOSED;\n                                if (buyOrders[bc].balance == 0) {\n                                    buyOrders[bc].state = OrderState.CLOSED;\n                                }\n                            }\n                            seller.transfer(\n                                buyOrders[bc].ethValue * transferAmount\n                            );\n\n                            IERC20(buyOrders[bc].artworkAddress).transfer(\n                                buyOrders[bc].orderOwner,\n                                transferAmount\n                            );\n                            emit orderTransaction(\n                                buyOrders[bc].artworkAddress,\n                                buyOrders[bc].ethValue * transferAmount,\n                                transferAmount,\n                                bc,\n                                j,\n                                buyOrders[bc].orderOwner,\n                                sellOrders[j].orderOwner\n                            );\n                        }\n                    }\n                }\n            }\n        }\n    }\n\n    function fillSellOrder(uint256 sc) private {\n        for (uint8 j = 0; j < buyOrderCount; j++) {\n            if (sellOrders[sc].state == OrderState.OPEN) {\n                if (buyOrders[j].state == OrderState.OPEN) {\n                    if (\n                        sellOrders[sc].artworkAddress ==\n                        buyOrders[j].artworkAddress\n                    ) {\n                        if (sellOrders[sc].ethValue == buyOrders[j].ethValue) {\n                            address payable seller = payable(\n                                sellOrders[sc].orderOwner\n                            );\n                            uint256 transferAmount = 0;\n                            if (\n                                sellOrders[sc].balance >=\n                                buyOrders[j].shareValue\n                            ) {\n                                sellOrders[sc].balance =\n                                    sellOrders[sc].balance -\n                                    buyOrders[j].shareValue;\n\n                                transferAmount = buyOrders[j].shareValue;\n\n                                buyOrders[j].balance = 0;\n                                buyOrders[j].shareValue = 0;\n\n                                buyOrders[j].state = OrderState.CLOSED;\n\n                                if (sellOrders[sc].balance == 0) {\n                                    sellOrders[sc].state = OrderState.CLOSED;\n                                }\n                            } else {\n                                buyOrders[j].balance =\n                                    buyOrders[j].balance -\n                                    (sellOrders[sc].ethValue *\n                                        sellOrders[sc].balance);\n\n                                transferAmount = sellOrders[sc].balance;\n                                buyOrders[j].shareValue =\n                                    buyOrders[j].shareValue -\n                                    sellOrders[sc].balance;\n\n                                sellOrders[sc].balance = 0;\n                                sellOrders[sc].state = OrderState.CLOSED;\n                                if (buyOrders[j].balance == 0) {\n                                    buyOrders[j].state = OrderState.CLOSED;\n                                }\n                            }\n\n                            seller.transfer(\n                                buyOrders[j].ethValue * transferAmount\n                            );\n                            IERC20(buyOrders[j].artworkAddress).transfer(\n                                buyOrders[j].orderOwner,\n                                transferAmount\n                            );\n                            emit orderTransaction(\n                                buyOrders[j].artworkAddress,\n                                buyOrders[j].ethValue * transferAmount,\n                                transferAmount,\n                                j,\n                                sc,\n                                buyOrders[j].orderOwner,\n                                sellOrders[sc].orderOwner\n                            );\n                        }\n                    }\n                }\n            }\n        }\n    }\n}\n","sourcePath":"contracts/SolidStateGallery.sol","deployment":{"address":"0x67084F86a0cAE694De3928AD06d47c04f7DDCcF0","chainid":"42","blockHeight":31111607}}