{"abi":[{"inputs":[],"stateMutability":"nonpayable","type":"constructor","name":"constructor"},{"inputs":[{"internalType":"address","name":"_artWorkAddress","type":"address"},{"internalType":"uint256","name":"_collectionId","type":"uint256"}],"name":"addArtWork","outputs":[],"stateMutability":"nonpayable","type":"function"},{"inputs":[{"internalType":"string","name":"_collectionName","type":"string"}],"name":"addCollection","outputs":[],"stateMutability":"nonpayable","type":"function"},{"inputs":[{"internalType":"string","name":"a","type":"string"},{"internalType":"string","name":"b","type":"string"}],"name":"compareStrings","outputs":[{"internalType":"bool","name":"","type":"bool"}],"stateMutability":"pure","type":"function"},{"inputs":[],"name":"getAllArtWorks","outputs":[{"internalType":"address[]","name":"","type":"address[]"},{"internalType":"bool[]","name":"","type":"bool[]"}],"stateMutability":"view","type":"function"},{"inputs":[{"internalType":"uint256","name":"_Id","type":"uint256"}],"name":"getAllArtWorksByCollectionId","outputs":[{"internalType":"address[]","name":"","type":"address[]"},{"internalType":"bool[]","name":"","type":"bool[]"}],"stateMutability":"view","type":"function"},{"inputs":[],"name":"getArtWorks","outputs":[{"internalType":"address[]","name":"","type":"address[]"}],"stateMutability":"view","type":"function"},{"inputs":[{"internalType":"uint256","name":"_Id","type":"uint256"}],"name":"getArtWorksByCollectionId","outputs":[{"internalType":"address[]","name":"","type":"address[]"}],"stateMutability":"view","type":"function"},{"inputs":[{"internalType":"string","name":"_collectionName","type":"string"}],"name":"getCollectionIdByName","outputs":[{"internalType":"uint256","name":"","type":"uint256"}],"stateMutability":"view","type":"function"},{"inputs":[],"name":"getCollections","outputs":[{"internalType":"string[]","name":"","type":"string[]"}],"stateMutability":"view","type":"function"},{"inputs":[],"name":"getOwners","outputs":[{"internalType":"address[]","name":"","type":"address[]"}],"stateMutability":"view","type":"function"},{"inputs":[{"internalType":"address","name":"_newOwnerAddress","type":"address"}],"name":"newOwner","outputs":[],"stateMutability":"nonpayable","type":"function"},{"inputs":[{"internalType":"address","name":"_artWorkContractAddress","type":"address"},{"internalType":"bool","name":"_visibility","type":"bool"}],"name":"setArtWorkVisibility","outputs":[],"stateMutability":"nonpayable","type":"function"}],"bytecode":"608060405234801561001057600080fd5b506006805460018101825560009182527ff652222313e28459528d920b65115c16c04f3efc82aaedc97be59f3f377c0d3f0180546001600160a01b031916331790556004819055600781905560055561130e8061006e6000396000f3fe608060405234801561001057600080fd5b50600436106100b45760003560e01c80638595245411610071578063859524541461014b5780639e0b43cc1461015e578063a0e67e2b14610171578063ab3600b514610179578063b8aeb2fd1461018c578063bed34bba1461019f57600080fd5b806334fa4449146100b9578063382d0412146100ce578063431e8d63146100ec57806346e635861461010d5780634fb93e7c14610122578063592e035514610138575b600080fd5b6100cc6100c7366004610f09565b6101c2565b005b6100d66102e3565b6040516100e39190610f77565b60405180910390f35b6100ff6100fa366004611034565b61043a565b6040519081526020016100e3565b61011561056a565b6040516100e391906110a1565b61012a610699565b6040516100e392919061111b565b6100cc610146366004611034565b6107e4565b6100cc610159366004611174565b610963565b61012a61016c36600461118f565b6109ff565b6100d6610bb5565b6100d661018736600461118f565b610c17565b6100cc61019a3660046111a8565b610d9b565b6101b26101ad3660046111e4565b610dfb565b60405190151581526020016100e3565b6006600754815481106101d7576101d7611248565b6000918252602090912001546001600160a01b031633146101f757600080fd5b60005b60045481101561027e576000818152602081905260409020546001600160a01b038481169116141561026c5760405162461bcd60e51b8152602060048201526016602482015275105c9d081ddbdc9ac8185b1c9958591e48185919195960521b60448201526064015b60405180910390fd5b806102768161125e565b9150506101fa565b506004805460009081526020818152604080832080546001600160a01b0319166001600160a01b0388169081179091558454845260028352818420869055835260039091528120805460ff19169055815491906102da8361125e565b91905055505050565b60606000805b60045481101561034357600081815260208181526040808320546001600160a01b03168352600390915290205460ff16151560011415610331578161032d8161125e565b9250505b8061033b8161125e565b9150506102e9565b5060008167ffffffffffffffff81111561035f5761035f610f91565b604051908082528060200260200182016040528015610388578160200160208202803683370190505b5090506000915060005b60045481101561043357600081815260208181526040808320546001600160a01b03168352600390915290205460ff161515600114156104215760008181526020819052604090205482516001600160a01b03909116908390859081106103fb576103fb611248565b6001600160a01b03909216602092830291909101909101528261041d8161125e565b9350505b8061042b8161125e565b915050610392565b5092915050565b600080805b60055481101561050e57600081815260016020526040902080546104eb919061046790611287565b80601f016020809104026020016040519081016040528092919081815260200182805461049390611287565b80156104e05780601f106104b5576101008083540402835291602001916104e0565b820191906000526020600020905b8154815290600101906020018083116104c357829003601f168201915b505050505085610dfb565b1515600114156104fc579392505050565b806105068161125e565b91505061043f565b506001811515146105615760405162461bcd60e51b815260206004820152601a60248201527f4e6f20436f6c6c656374696f6e2042792054686174204e616d650000000000006044820152606401610263565b50600092915050565b6060600060055467ffffffffffffffff81111561058957610589610f91565b6040519080825280602002602001820160405280156105bc57816020015b60608152602001906001900390816105a75790505b50905060005b60055481101561069357600081815260016020526040902080546105e590611287565b80601f016020809104026020016040519081016040528092919081815260200182805461061190611287565b801561065e5780601f106106335761010080835404028352916020019161065e565b820191906000526020600020905b81548152906001019060200180831161064157829003601f168201915b505050505082828151811061067557610675611248565b6020026020010181905250808061068b9061125e565b9150506105c2565b50919050565b606080600060045467ffffffffffffffff8111156106b9576106b9610f91565b6040519080825280602002602001820160405280156106e2578160200160208202803683370190505b509050600060045467ffffffffffffffff81111561070257610702610f91565b60405190808252806020026020018201604052801561072b578160200160208202803683370190505b50905060005b6004548110156107da5760008181526020819052604090205483516001600160a01b039091169084908390811061076a5761076a611248565b6001600160a01b039283166020918202929092018101919091526000838152808252604080822054909316815260039091522054825160ff909116908390839081106107b8576107b8611248565b91151560209283029190910190910152806107d28161125e565b915050610731565b5090939092509050565b6006600754815481106107f9576107f9611248565b6000918252602090912001546001600160a01b0316331461081957600080fd5b60005b60055481101561092757600081815260016020526040902080546108c8919061084490611287565b80601f016020809104026020016040519081016040528092919081815260200182805461087090611287565b80156108bd5780601f10610892576101008083540402835291602001916108bd565b820191906000526020600020905b8154815290600101906020018083116108a057829003601f168201915b505050505083610dfb565b156109155760405162461bcd60e51b815260206004820152601b60248201527f436f6c6c656374696f6e20697320616c726561647920616464656400000000006044820152606401610263565b8061091f8161125e565b91505061081c565b506005546000908152600160209081526040909120825161094a92840190610e54565b506005805490600061095b8361125e565b919050555050565b60066007548154811061097857610978611248565b6000918252602090912001546001600160a01b0316331461099857600080fd5b600780549060006109a88361125e565b9091555050600680546001810182556000919091527ff652222313e28459528d920b65115c16c04f3efc82aaedc97be59f3f377c0d3f0180546001600160a01b0319166001600160a01b0392909216919091179055565b6060806000805b600454811015610a4657600081815260026020526040902054851415610a345781610a308161125e565b9250505b80610a3e8161125e565b915050610a06565b5060008167ffffffffffffffff811115610a6257610a62610f91565b604051908082528060200260200182016040528015610a8b578160200160208202803683370190505b50905060008267ffffffffffffffff811115610aa957610aa9610f91565b604051908082528060200260200182016040528015610ad2578160200160208202803683370190505b5090506000925060005b600454811015610ba957600081815260026020526040902054871415610b975760008181526020819052604090205483516001600160a01b0390911690849086908110610b2b57610b2b611248565b6001600160a01b039283166020918202929092018101919091526000838152808252604080822054909316815260039091522054825160ff90911690839086908110610b7957610b79611248565b9115156020928302919091019091015283610b938161125e565b9450505b80610ba18161125e565b915050610adc565b50909590945092505050565b60606006805480602002602001604051908101604052809291908181526020018280548015610c0d57602002820191906000526020600020905b81546001600160a01b03168152600190910190602001808311610bef575b5050505050905090565b60606000805b600454811015610c8d57600081815260208181526040808320546001600160a01b03168352600390915290205460ff16151560011415610c7b57600081815260026020526040902054841415610c7b5781610c778161125e565b9250505b80610c858161125e565b915050610c1d565b5060008167ffffffffffffffff811115610ca957610ca9610f91565b604051908082528060200260200182016040528015610cd2578160200160208202803683370190505b5090506000915060005b600454811015610d9357600081815260208181526040808320546001600160a01b03168352600390915290205460ff16151560011415610d8157600081815260026020526040902054851415610d815760008181526020819052604090205482516001600160a01b0390911690839085908110610d5b57610d5b611248565b6001600160a01b039092166020928302919091019091015282610d7d8161125e565b9350505b80610d8b8161125e565b915050610cdc565b509392505050565b600660075481548110610db057610db0611248565b6000918252602090912001546001600160a01b03163314610dd057600080fd5b6001600160a01b03919091166000908152600360205260409020805460ff1916911515919091179055565b600081604051602001610e0e91906112bc565b6040516020818303038152906040528051906020012083604051602001610e3591906112bc565b6040516020818303038152906040528051906020012014905092915050565b828054610e6090611287565b90600052602060002090601f016020900481019282610e825760008555610ec8565b82601f10610e9b57805160ff1916838001178555610ec8565b82800160010185558215610ec8579182015b82811115610ec8578251825591602001919060010190610ead565b50610ed4929150610ed8565b5090565b5b80821115610ed45760008155600101610ed9565b80356001600160a01b0381168114610f0457600080fd5b919050565b60008060408385031215610f1c57600080fd5b610f2583610eed565b946020939093013593505050565b600081518084526020808501945080840160005b83811015610f6c5781516001600160a01b031687529582019590820190600101610f47565b509495945050505050565b602081526000610f8a6020830184610f33565b9392505050565b634e487b7160e01b600052604160045260246000fd5b600082601f830112610fb857600080fd5b813567ffffffffffffffff80821115610fd357610fd3610f91565b604051601f8301601f19908116603f01168101908282118183101715610ffb57610ffb610f91565b8160405283815286602085880101111561101457600080fd5b836020870160208301376000602085830101528094505050505092915050565b60006020828403121561104657600080fd5b813567ffffffffffffffff81111561105d57600080fd5b61106984828501610fa7565b949350505050565b60005b8381101561108c578181015183820152602001611074565b8381111561109b576000848401525b50505050565b6000602080830181845280855180835260408601915060408160051b870101925083870160005b8281101561110e57878503603f19018452815180518087526110ef818989018a8501611071565b601f01601f1916959095018601945092850192908501906001016110c8565b5092979650505050505050565b60408152600061112e6040830185610f33565b82810360208481019190915284518083528582019282019060005b81811015611167578451151583529383019391830191600101611149565b5090979650505050505050565b60006020828403121561118657600080fd5b610f8a82610eed565b6000602082840312156111a157600080fd5b5035919050565b600080604083850312156111bb57600080fd5b6111c483610eed565b9150602083013580151581146111d957600080fd5b809150509250929050565b600080604083850312156111f757600080fd5b823567ffffffffffffffff8082111561120f57600080fd5b61121b86838701610fa7565b9350602085013591508082111561123157600080fd5b5061123e85828601610fa7565b9150509250929050565b634e487b7160e01b600052603260045260246000fd5b600060001982141561128057634e487b7160e01b600052601160045260246000fd5b5060010190565b600181811c9082168061129b57607f821691505b6020821081141561069357634e487b7160e01b600052602260045260246000fd5b600082516112ce818460208701611071565b919091019291505056fea2646970667358221220a06d93b3de38e82f44df0c89947484d9304a9cd63da4508aa08d229777bb9ece64736f6c634300080b0033","bytecodeSha1":"7fed4841f202f97467d9281e64561d30167c4c51","compiler":{"evm_version":"istanbul","optimizer":{"enabled":true,"runs":200},"version":"0.8.11+commit.d7f03943"},"contractName":"SolidStateGallery","language":"Solidity","natspec":{"kind":"dev","methods":{},"version":1},"opcodes":"PUSH1 0x80 PUSH1 0x40 MSTORE CALLVALUE DUP1 ISZERO PUSH2 0x10 JUMPI PUSH1 0x0 DUP1 REVERT JUMPDEST POP PUSH1 0x4 CALLDATASIZE LT PUSH2 0xB4 JUMPI PUSH1 0x0 CALLDATALOAD PUSH1 0xE0 SHR DUP1 PUSH4 0x85952454 GT PUSH2 0x71 JUMPI DUP1 PUSH4 0x85952454 EQ PUSH2 0x14B JUMPI DUP1 PUSH4 0x9E0B43CC EQ PUSH2 0x15E JUMPI DUP1 PUSH4 0xA0E67E2B EQ PUSH2 0x171 JUMPI DUP1 PUSH4 0xAB3600B5 EQ PUSH2 0x179 JUMPI DUP1 PUSH4 0xB8AEB2FD EQ PUSH2 0x18C JUMPI DUP1 PUSH4 0xBED34BBA EQ PUSH2 0x19F JUMPI PUSH1 0x0 DUP1 REVERT JUMPDEST DUP1 PUSH4 0x34FA4449 EQ PUSH2 0xB9 JUMPI DUP1 PUSH4 0x382D0412 EQ PUSH2 0xCE JUMPI DUP1 PUSH4 0x431E8D63 EQ PUSH2 0xEC JUMPI DUP1 PUSH4 0x46E63586 EQ PUSH2 0x10D JUMPI DUP1 PUSH4 0x4FB93E7C EQ PUSH2 0x122 JUMPI DUP1 PUSH4 0x592E0355 EQ PUSH2 0x138 JUMPI JUMPDEST PUSH1 0x0 DUP1 REVERT JUMPDEST PUSH2 0xCC PUSH2 0xC7 CALLDATASIZE PUSH1 0x4 PUSH2 0xF09 JUMP JUMPDEST PUSH2 0x1C2 JUMP JUMPDEST STOP JUMPDEST PUSH2 0xD6 PUSH2 0x2E3 JUMP JUMPDEST PUSH1 0x40 MLOAD PUSH2 0xE3 SWAP2 SWAP1 PUSH2 0xF77 JUMP JUMPDEST PUSH1 0x40 MLOAD DUP1 SWAP2 SUB SWAP1 RETURN JUMPDEST PUSH2 0xFF PUSH2 0xFA CALLDATASIZE PUSH1 0x4 PUSH2 0x1034 JUMP JUMPDEST PUSH2 0x43A JUMP JUMPDEST PUSH1 0x40 MLOAD SWAP1 DUP2 MSTORE PUSH1 0x20 ADD PUSH2 0xE3 JUMP JUMPDEST PUSH2 0x115 PUSH2 0x56A JUMP JUMPDEST PUSH1 0x40 MLOAD PUSH2 0xE3 SWAP2 SWAP1 PUSH2 0x10A1 JUMP JUMPDEST PUSH2 0x12A PUSH2 0x699 JUMP JUMPDEST PUSH1 0x40 MLOAD PUSH2 0xE3 SWAP3 SWAP2 SWAP1 PUSH2 0x111B JUMP JUMPDEST PUSH2 0xCC PUSH2 0x146 CALLDATASIZE PUSH1 0x4 PUSH2 0x1034 JUMP JUMPDEST PUSH2 0x7E4 JUMP JUMPDEST PUSH2 0xCC PUSH2 0x159 CALLDATASIZE PUSH1 0x4 PUSH2 0x1174 JUMP JUMPDEST PUSH2 0x963 JUMP JUMPDEST PUSH2 0x12A PUSH2 0x16C CALLDATASIZE PUSH1 0x4 PUSH2 0x118F JUMP JUMPDEST PUSH2 0x9FF JUMP JUMPDEST PUSH2 0xD6 PUSH2 0xBB5 JUMP JUMPDEST PUSH2 0xD6 PUSH2 0x187 CALLDATASIZE PUSH1 0x4 PUSH2 0x118F JUMP JUMPDEST PUSH2 0xC17 JUMP JUMPDEST PUSH2 0xCC PUSH2 0x19A CALLDATASIZE PUSH1 0x4 PUSH2 0x11A8 JUMP JUMPDEST PUSH2 0xD9B JUMP JUMPDEST PUSH2 0x1B2 PUSH2 0x1AD CALLDATASIZE PUSH1 0x4 PUSH2 0x11E4 JUMP JUMPDEST PUSH2 0xDFB JUMP JUMPDEST PUSH1 0x40 MLOAD SWAP1 ISZERO ISZERO DUP2 MSTORE PUSH1 0x20 ADD PUSH2 0xE3 JUMP JUMPDEST PUSH1 0x6 PUSH1 0x7 SLOAD DUP2 SLOAD DUP2 LT PUSH2 0x1D7 JUMPI PUSH2 0x1D7 PUSH2 0x1248 JUMP JUMPDEST PUSH1 0x0 SWAP2 DUP3 MSTORE PUSH1 0x20 SWAP1 SWAP2 KECCAK256 ADD SLOAD PUSH1 0x1 PUSH1 0x1 PUSH1 0xA0 SHL SUB AND CALLER EQ PUSH2 0x1F7 JUMPI PUSH1 0x0 DUP1 REVERT JUMPDEST PUSH1 0x0 JUMPDEST PUSH1 0x4 SLOAD DUP2 LT ISZERO PUSH2 0x27E JUMPI PUSH1 0x0 DUP2 DUP2 MSTORE PUSH1 0x20 DUP2 SWAP1 MSTORE PUSH1 0x40 SWAP1 KECCAK256 SLOAD PUSH1 0x1 PUSH1 0x1 PUSH1 0xA0 SHL SUB DUP5 DUP2 AND SWAP2 AND EQ ISZERO PUSH2 0x26C JUMPI PUSH1 0x40 MLOAD PUSH3 0x461BCD PUSH1 0xE5 SHL DUP2 MSTORE PUSH1 0x20 PUSH1 0x4 DUP3 ADD MSTORE PUSH1 0x16 PUSH1 0x24 DUP3 ADD MSTORE PUSH22 0x105C9D081DDBDC9AC8185B1C9958591E481859191959 PUSH1 0x52 SHL PUSH1 0x44 DUP3 ADD MSTORE PUSH1 0x64 ADD JUMPDEST PUSH1 0x40 MLOAD DUP1 SWAP2 SUB SWAP1 REVERT JUMPDEST DUP1 PUSH2 0x276 DUP2 PUSH2 0x125E JUMP JUMPDEST SWAP2 POP POP PUSH2 0x1FA JUMP JUMPDEST POP PUSH1 0x4 DUP1 SLOAD PUSH1 0x0 SWAP1 DUP2 MSTORE PUSH1 0x20 DUP2 DUP2 MSTORE PUSH1 0x40 DUP1 DUP4 KECCAK256 DUP1 SLOAD PUSH1 0x1 PUSH1 0x1 PUSH1 0xA0 SHL SUB NOT AND PUSH1 0x1 PUSH1 0x1 PUSH1 0xA0 SHL SUB DUP9 AND SWAP1 DUP2 OR SWAP1 SWAP2 SSTORE DUP5 SLOAD DUP5 MSTORE PUSH1 0x2 DUP4 MSTORE DUP2 DUP5 KECCAK256 DUP7 SWAP1 SSTORE DUP4 MSTORE PUSH1 0x3 SWAP1 SWAP2 MSTORE DUP2 KECCAK256 DUP1 SLOAD PUSH1 0xFF NOT AND SWAP1 SSTORE DUP2 SLOAD SWAP2 SWAP1 PUSH2 0x2DA DUP4 PUSH2 0x125E JUMP JUMPDEST SWAP2 SWAP1 POP SSTORE POP POP POP JUMP JUMPDEST PUSH1 0x60 PUSH1 0x0 DUP1 JUMPDEST PUSH1 0x4 SLOAD DUP2 LT ISZERO PUSH2 0x343 JUMPI PUSH1 0x0 DUP2 DUP2 MSTORE PUSH1 0x20 DUP2 DUP2 MSTORE PUSH1 0x40 DUP1 DUP4 KECCAK256 SLOAD PUSH1 0x1 PUSH1 0x1 PUSH1 0xA0 SHL SUB AND DUP4 MSTORE PUSH1 0x3 SWAP1 SWAP2 MSTORE SWAP1 KECCAK256 SLOAD PUSH1 0xFF AND ISZERO ISZERO PUSH1 0x1 EQ ISZERO PUSH2 0x331 JUMPI DUP2 PUSH2 0x32D DUP2 PUSH2 0x125E JUMP JUMPDEST SWAP3 POP POP JUMPDEST DUP1 PUSH2 0x33B DUP2 PUSH2 0x125E JUMP JUMPDEST SWAP2 POP POP PUSH2 0x2E9 JUMP JUMPDEST POP PUSH1 0x0 DUP2 PUSH8 0xFFFFFFFFFFFFFFFF DUP2 GT ISZERO PUSH2 0x35F JUMPI PUSH2 0x35F PUSH2 0xF91 JUMP JUMPDEST PUSH1 0x40 MLOAD SWAP1 DUP1 DUP3 MSTORE DUP1 PUSH1 0x20 MUL PUSH1 0x20 ADD DUP3 ADD PUSH1 0x40 MSTORE DUP1 ISZERO PUSH2 0x388 JUMPI DUP2 PUSH1 0x20 ADD PUSH1 0x20 DUP3 MUL DUP1 CALLDATASIZE DUP4 CALLDATACOPY ADD SWAP1 POP JUMPDEST POP SWAP1 POP PUSH1 0x0 SWAP2 POP PUSH1 0x0 JUMPDEST PUSH1 0x4 SLOAD DUP2 LT ISZERO PUSH2 0x433 JUMPI PUSH1 0x0 DUP2 DUP2 MSTORE PUSH1 0x20 DUP2 DUP2 MSTORE PUSH1 0x40 DUP1 DUP4 KECCAK256 SLOAD PUSH1 0x1 PUSH1 0x1 PUSH1 0xA0 SHL SUB AND DUP4 MSTORE PUSH1 0x3 SWAP1 SWAP2 MSTORE SWAP1 KECCAK256 SLOAD PUSH1 0xFF AND ISZERO ISZERO PUSH1 0x1 EQ ISZERO PUSH2 0x421 JUMPI PUSH1 0x0 DUP2 DUP2 MSTORE PUSH1 0x20 DUP2 SWAP1 MSTORE PUSH1 0x40 SWAP1 KECCAK256 SLOAD DUP3 MLOAD PUSH1 0x1 PUSH1 0x1 PUSH1 0xA0 SHL SUB SWAP1 SWAP2 AND SWAP1 DUP4 SWAP1 DUP6 SWAP1 DUP2 LT PUSH2 0x3FB JUMPI PUSH2 0x3FB PUSH2 0x1248 JUMP JUMPDEST PUSH1 0x1 PUSH1 0x1 PUSH1 0xA0 SHL SUB SWAP1 SWAP3 AND PUSH1 0x20 SWAP3 DUP4 MUL SWAP2 SWAP1 SWAP2 ADD SWAP1 SWAP2 ADD MSTORE DUP3 PUSH2 0x41D DUP2 PUSH2 0x125E JUMP JUMPDEST SWAP4 POP POP JUMPDEST DUP1 PUSH2 0x42B DUP2 PUSH2 0x125E JUMP JUMPDEST SWAP2 POP POP PUSH2 0x392 JUMP JUMPDEST POP SWAP3 SWAP2 POP POP JUMP JUMPDEST PUSH1 0x0 DUP1 DUP1 JUMPDEST PUSH1 0x5 SLOAD DUP2 LT ISZERO PUSH2 0x50E JUMPI PUSH1 0x0 DUP2 DUP2 MSTORE PUSH1 0x1 PUSH1 0x20 MSTORE PUSH1 0x40 SWAP1 KECCAK256 DUP1 SLOAD PUSH2 0x4EB SWAP2 SWAP1 PUSH2 0x467 SWAP1 PUSH2 0x1287 JUMP JUMPDEST DUP1 PUSH1 0x1F ADD PUSH1 0x20 DUP1 SWAP2 DIV MUL PUSH1 0x20 ADD PUSH1 0x40 MLOAD SWAP1 DUP2 ADD PUSH1 0x40 MSTORE DUP1 SWAP3 SWAP2 SWAP1 DUP2 DUP2 MSTORE PUSH1 0x20 ADD DUP3 DUP1 SLOAD PUSH2 0x493 SWAP1 PUSH2 0x1287 JUMP JUMPDEST DUP1 ISZERO PUSH2 0x4E0 JUMPI DUP1 PUSH1 0x1F LT PUSH2 0x4B5 JUMPI PUSH2 0x100 DUP1 DUP4 SLOAD DIV MUL DUP4 MSTORE SWAP2 PUSH1 0x20 ADD SWAP2 PUSH2 0x4E0 JUMP JUMPDEST DUP3 ADD SWAP2 SWAP1 PUSH1 0x0 MSTORE PUSH1 0x20 PUSH1 0x0 KECCAK256 SWAP1 JUMPDEST DUP2 SLOAD DUP2 MSTORE SWAP1 PUSH1 0x1 ADD SWAP1 PUSH1 0x20 ADD DUP1 DUP4 GT PUSH2 0x4C3 JUMPI DUP3 SWAP1 SUB PUSH1 0x1F AND DUP3 ADD SWAP2 JUMPDEST POP POP POP POP POP DUP6 PUSH2 0xDFB JUMP JUMPDEST ISZERO ISZERO PUSH1 0x1 EQ ISZERO PUSH2 0x4FC JUMPI SWAP4 SWAP3 POP POP POP JUMP JUMPDEST DUP1 PUSH2 0x506 DUP2 PUSH2 0x125E JUMP JUMPDEST SWAP2 POP POP PUSH2 0x43F JUMP JUMPDEST POP PUSH1 0x1 DUP2 ISZERO ISZERO EQ PUSH2 0x561 JUMPI PUSH1 0x40 MLOAD PUSH3 0x461BCD PUSH1 0xE5 SHL DUP2 MSTORE PUSH1 0x20 PUSH1 0x4 DUP3 ADD MSTORE PUSH1 0x1A PUSH1 0x24 DUP3 ADD MSTORE PUSH32 0x4E6F20436F6C6C656374696F6E2042792054686174204E616D65000000000000 PUSH1 0x44 DUP3 ADD MSTORE PUSH1 0x64 ADD PUSH2 0x263 JUMP JUMPDEST POP PUSH1 0x0 SWAP3 SWAP2 POP POP JUMP JUMPDEST PUSH1 0x60 PUSH1 0x0 PUSH1 0x5 SLOAD PUSH8 0xFFFFFFFFFFFFFFFF DUP2 GT ISZERO PUSH2 0x589 JUMPI PUSH2 0x589 PUSH2 0xF91 JUMP JUMPDEST PUSH1 0x40 MLOAD SWAP1 DUP1 DUP3 MSTORE DUP1 PUSH1 0x20 MUL PUSH1 0x20 ADD DUP3 ADD PUSH1 0x40 MSTORE DUP1 ISZERO PUSH2 0x5BC JUMPI DUP2 PUSH1 0x20 ADD JUMPDEST PUSH1 0x60 DUP2 MSTORE PUSH1 0x20 ADD SWAP1 PUSH1 0x1 SWAP1 SUB SWAP1 DUP2 PUSH2 0x5A7 JUMPI SWAP1 POP JUMPDEST POP SWAP1 POP PUSH1 0x0 JUMPDEST PUSH1 0x5 SLOAD DUP2 LT ISZERO PUSH2 0x693 JUMPI PUSH1 0x0 DUP2 DUP2 MSTORE PUSH1 0x1 PUSH1 0x20 MSTORE PUSH1 0x40 SWAP1 KECCAK256 DUP1 SLOAD PUSH2 0x5E5 SWAP1 PUSH2 0x1287 JUMP JUMPDEST DUP1 PUSH1 0x1F ADD PUSH1 0x20 DUP1 SWAP2 DIV MUL PUSH1 0x20 ADD PUSH1 0x40 MLOAD SWAP1 DUP2 ADD PUSH1 0x40 MSTORE DUP1 SWAP3 SWAP2 SWAP1 DUP2 DUP2 MSTORE PUSH1 0x20 ADD DUP3 DUP1 SLOAD PUSH2 0x611 SWAP1 PUSH2 0x1287 JUMP JUMPDEST DUP1 ISZERO PUSH2 0x65E JUMPI DUP1 PUSH1 0x1F LT PUSH2 0x633 JUMPI PUSH2 0x100 DUP1 DUP4 SLOAD DIV MUL DUP4 MSTORE SWAP2 PUSH1 0x20 ADD SWAP2 PUSH2 0x65E JUMP JUMPDEST DUP3 ADD SWAP2 SWAP1 PUSH1 0x0 MSTORE PUSH1 0x20 PUSH1 0x0 KECCAK256 SWAP1 JUMPDEST DUP2 SLOAD DUP2 MSTORE SWAP1 PUSH1 0x1 ADD SWAP1 PUSH1 0x20 ADD DUP1 DUP4 GT PUSH2 0x641 JUMPI DUP3 SWAP1 SUB PUSH1 0x1F AND DUP3 ADD SWAP2 JUMPDEST POP POP POP POP POP DUP3 DUP3 DUP2 MLOAD DUP2 LT PUSH2 0x675 JUMPI PUSH2 0x675 PUSH2 0x1248 JUMP JUMPDEST PUSH1 0x20 MUL PUSH1 0x20 ADD ADD DUP2 SWAP1 MSTORE POP DUP1 DUP1 PUSH2 0x68B SWAP1 PUSH2 0x125E JUMP JUMPDEST SWAP2 POP POP PUSH2 0x5C2 JUMP JUMPDEST POP SWAP2 SWAP1 POP JUMP JUMPDEST PUSH1 0x60 DUP1 PUSH1 0x0 PUSH1 0x4 SLOAD PUSH8 0xFFFFFFFFFFFFFFFF DUP2 GT ISZERO PUSH2 0x6B9 JUMPI PUSH2 0x6B9 PUSH2 0xF91 JUMP JUMPDEST PUSH1 0x40 MLOAD SWAP1 DUP1 DUP3 MSTORE DUP1 PUSH1 0x20 MUL PUSH1 0x20 ADD DUP3 ADD PUSH1 0x40 MSTORE DUP1 ISZERO PUSH2 0x6E2 JUMPI DUP2 PUSH1 0x20 ADD PUSH1 0x20 DUP3 MUL DUP1 CALLDATASIZE DUP4 CALLDATACOPY ADD SWAP1 POP JUMPDEST POP SWAP1 POP PUSH1 0x0 PUSH1 0x4 SLOAD PUSH8 0xFFFFFFFFFFFFFFFF DUP2 GT ISZERO PUSH2 0x702 JUMPI PUSH2 0x702 PUSH2 0xF91 JUMP JUMPDEST PUSH1 0x40 MLOAD SWAP1 DUP1 DUP3 MSTORE DUP1 PUSH1 0x20 MUL PUSH1 0x20 ADD DUP3 ADD PUSH1 0x40 MSTORE DUP1 ISZERO PUSH2 0x72B JUMPI DUP2 PUSH1 0x20 ADD PUSH1 0x20 DUP3 MUL DUP1 CALLDATASIZE DUP4 CALLDATACOPY ADD SWAP1 POP JUMPDEST POP SWAP1 POP PUSH1 0x0 JUMPDEST PUSH1 0x4 SLOAD DUP2 LT ISZERO PUSH2 0x7DA JUMPI PUSH1 0x0 DUP2 DUP2 MSTORE PUSH1 0x20 DUP2 SWAP1 MSTORE PUSH1 0x40 SWAP1 KECCAK256 SLOAD DUP4 MLOAD PUSH1 0x1 PUSH1 0x1 PUSH1 0xA0 SHL SUB SWAP1 SWAP2 AND SWAP1 DUP5 SWAP1 DUP4 SWAP1 DUP2 LT PUSH2 0x76A JUMPI PUSH2 0x76A PUSH2 0x1248 JUMP JUMPDEST PUSH1 0x1 PUSH1 0x1 PUSH1 0xA0 SHL SUB SWAP3 DUP4 AND PUSH1 0x20 SWAP2 DUP3 MUL SWAP3 SWAP1 SWAP3 ADD DUP2 ADD SWAP2 SWAP1 SWAP2 MSTORE PUSH1 0x0 DUP4 DUP2 MSTORE DUP1 DUP3 MSTORE PUSH1 0x40 DUP1 DUP3 KECCAK256 SLOAD SWAP1 SWAP4 AND DUP2 MSTORE PUSH1 0x3 SWAP1 SWAP2 MSTORE KECCAK256 SLOAD DUP3 MLOAD PUSH1 0xFF SWAP1 SWAP2 AND SWAP1 DUP4 SWAP1 DUP4 SWAP1 DUP2 LT PUSH2 0x7B8 JUMPI PUSH2 0x7B8 PUSH2 0x1248 JUMP JUMPDEST SWAP2 ISZERO ISZERO PUSH1 0x20 SWAP3 DUP4 MUL SWAP2 SWAP1 SWAP2 ADD SWAP1 SWAP2 ADD MSTORE DUP1 PUSH2 0x7D2 DUP2 PUSH2 0x125E JUMP JUMPDEST SWAP2 POP POP PUSH2 0x731 JUMP JUMPDEST POP SWAP1 SWAP4 SWAP1 SWAP3 POP SWAP1 POP JUMP JUMPDEST PUSH1 0x6 PUSH1 0x7 SLOAD DUP2 SLOAD DUP2 LT PUSH2 0x7F9 JUMPI PUSH2 0x7F9 PUSH2 0x1248 JUMP JUMPDEST PUSH1 0x0 SWAP2 DUP3 MSTORE PUSH1 0x20 SWAP1 SWAP2 KECCAK256 ADD SLOAD PUSH1 0x1 PUSH1 0x1 PUSH1 0xA0 SHL SUB AND CALLER EQ PUSH2 0x819 JUMPI PUSH1 0x0 DUP1 REVERT JUMPDEST PUSH1 0x0 JUMPDEST PUSH1 0x5 SLOAD DUP2 LT ISZERO PUSH2 0x927 JUMPI PUSH1 0x0 DUP2 DUP2 MSTORE PUSH1 0x1 PUSH1 0x20 MSTORE PUSH1 0x40 SWAP1 KECCAK256 DUP1 SLOAD PUSH2 0x8C8 SWAP2 SWAP1 PUSH2 0x844 SWAP1 PUSH2 0x1287 JUMP JUMPDEST DUP1 PUSH1 0x1F ADD PUSH1 0x20 DUP1 SWAP2 DIV MUL PUSH1 0x20 ADD PUSH1 0x40 MLOAD SWAP1 DUP2 ADD PUSH1 0x40 MSTORE DUP1 SWAP3 SWAP2 SWAP1 DUP2 DUP2 MSTORE PUSH1 0x20 ADD DUP3 DUP1 SLOAD PUSH2 0x870 SWAP1 PUSH2 0x1287 JUMP JUMPDEST DUP1 ISZERO PUSH2 0x8BD JUMPI DUP1 PUSH1 0x1F LT PUSH2 0x892 JUMPI PUSH2 0x100 DUP1 DUP4 SLOAD DIV MUL DUP4 MSTORE SWAP2 PUSH1 0x20 ADD SWAP2 PUSH2 0x8BD JUMP JUMPDEST DUP3 ADD SWAP2 SWAP1 PUSH1 0x0 MSTORE PUSH1 0x20 PUSH1 0x0 KECCAK256 SWAP1 JUMPDEST DUP2 SLOAD DUP2 MSTORE SWAP1 PUSH1 0x1 ADD SWAP1 PUSH1 0x20 ADD DUP1 DUP4 GT PUSH2 0x8A0 JUMPI DUP3 SWAP1 SUB PUSH1 0x1F AND DUP3 ADD SWAP2 JUMPDEST POP POP POP POP POP DUP4 PUSH2 0xDFB JUMP JUMPDEST ISZERO PUSH2 0x915 JUMPI PUSH1 0x40 MLOAD PUSH3 0x461BCD PUSH1 0xE5 SHL DUP2 MSTORE PUSH1 0x20 PUSH1 0x4 DUP3 ADD MSTORE PUSH1 0x1B PUSH1 0x24 DUP3 ADD MSTORE PUSH32 0x436F6C6C656374696F6E20697320616C72656164792061646465640000000000 PUSH1 0x44 DUP3 ADD MSTORE PUSH1 0x64 ADD PUSH2 0x263 JUMP JUMPDEST DUP1 PUSH2 0x91F DUP2 PUSH2 0x125E JUMP JUMPDEST SWAP2 POP POP PUSH2 0x81C JUMP JUMPDEST POP PUSH1 0x5 SLOAD PUSH1 0x0 SWAP1 DUP2 MSTORE PUSH1 0x1 PUSH1 0x20 SWAP1 DUP2 MSTORE PUSH1 0x40 SWAP1 SWAP2 KECCAK256 DUP3 MLOAD PUSH2 0x94A SWAP3 DUP5 ADD SWAP1 PUSH2 0xE54 JUMP JUMPDEST POP PUSH1 0x5 DUP1 SLOAD SWAP1 PUSH1 0x0 PUSH2 0x95B DUP4 PUSH2 0x125E JUMP JUMPDEST SWAP2 SWAP1 POP SSTORE POP POP JUMP JUMPDEST PUSH1 0x6 PUSH1 0x7 SLOAD DUP2 SLOAD DUP2 LT PUSH2 0x978 JUMPI PUSH2 0x978 PUSH2 0x1248 JUMP JUMPDEST PUSH1 0x0 SWAP2 DUP3 MSTORE PUSH1 0x20 SWAP1 SWAP2 KECCAK256 ADD SLOAD PUSH1 0x1 PUSH1 0x1 PUSH1 0xA0 SHL SUB AND CALLER EQ PUSH2 0x998 JUMPI PUSH1 0x0 DUP1 REVERT JUMPDEST PUSH1 0x7 DUP1 SLOAD SWAP1 PUSH1 0x0 PUSH2 0x9A8 DUP4 PUSH2 0x125E JUMP JUMPDEST SWAP1 SWAP2 SSTORE POP POP PUSH1 0x6 DUP1 SLOAD PUSH1 0x1 DUP2 ADD DUP3 SSTORE PUSH1 0x0 SWAP2 SWAP1 SWAP2 MSTORE PUSH32 0xF652222313E28459528D920B65115C16C04F3EFC82AAEDC97BE59F3F377C0D3F ADD DUP1 SLOAD PUSH1 0x1 PUSH1 0x1 PUSH1 0xA0 SHL SUB NOT AND PUSH1 0x1 PUSH1 0x1 PUSH1 0xA0 SHL SUB SWAP3 SWAP1 SWAP3 AND SWAP2 SWAP1 SWAP2 OR SWAP1 SSTORE JUMP JUMPDEST PUSH1 0x60 DUP1 PUSH1 0x0 DUP1 JUMPDEST PUSH1 0x4 SLOAD DUP2 LT ISZERO PUSH2 0xA46 JUMPI PUSH1 0x0 DUP2 DUP2 MSTORE PUSH1 0x2 PUSH1 0x20 MSTORE PUSH1 0x40 SWAP1 KECCAK256 SLOAD DUP6 EQ ISZERO PUSH2 0xA34 JUMPI DUP2 PUSH2 0xA30 DUP2 PUSH2 0x125E JUMP JUMPDEST SWAP3 POP POP JUMPDEST DUP1 PUSH2 0xA3E DUP2 PUSH2 0x125E JUMP JUMPDEST SWAP2 POP POP PUSH2 0xA06 JUMP JUMPDEST POP PUSH1 0x0 DUP2 PUSH8 0xFFFFFFFFFFFFFFFF DUP2 GT ISZERO PUSH2 0xA62 JUMPI PUSH2 0xA62 PUSH2 0xF91 JUMP JUMPDEST PUSH1 0x40 MLOAD SWAP1 DUP1 DUP3 MSTORE DUP1 PUSH1 0x20 MUL PUSH1 0x20 ADD DUP3 ADD PUSH1 0x40 MSTORE DUP1 ISZERO PUSH2 0xA8B JUMPI DUP2 PUSH1 0x20 ADD PUSH1 0x20 DUP3 MUL DUP1 CALLDATASIZE DUP4 CALLDATACOPY ADD SWAP1 POP JUMPDEST POP SWAP1 POP PUSH1 0x0 DUP3 PUSH8 0xFFFFFFFFFFFFFFFF DUP2 GT ISZERO PUSH2 0xAA9 JUMPI PUSH2 0xAA9 PUSH2 0xF91 JUMP JUMPDEST PUSH1 0x40 MLOAD SWAP1 DUP1 DUP3 MSTORE DUP1 PUSH1 0x20 MUL PUSH1 0x20 ADD DUP3 ADD PUSH1 0x40 MSTORE DUP1 ISZERO PUSH2 0xAD2 JUMPI DUP2 PUSH1 0x20 ADD PUSH1 0x20 DUP3 MUL DUP1 CALLDATASIZE DUP4 CALLDATACOPY ADD SWAP1 POP JUMPDEST POP SWAP1 POP PUSH1 0x0 SWAP3 POP PUSH1 0x0 JUMPDEST PUSH1 0x4 SLOAD DUP2 LT ISZERO PUSH2 0xBA9 JUMPI PUSH1 0x0 DUP2 DUP2 MSTORE PUSH1 0x2 PUSH1 0x20 MSTORE PUSH1 0x40 SWAP1 KECCAK256 SLOAD DUP8 EQ ISZERO PUSH2 0xB97 JUMPI PUSH1 0x0 DUP2 DUP2 MSTORE PUSH1 0x20 DUP2 SWAP1 MSTORE PUSH1 0x40 SWAP1 KECCAK256 SLOAD DUP4 MLOAD PUSH1 0x1 PUSH1 0x1 PUSH1 0xA0 SHL SUB SWAP1 SWAP2 AND SWAP1 DUP5 SWAP1 DUP7 SWAP1 DUP2 LT PUSH2 0xB2B JUMPI PUSH2 0xB2B PUSH2 0x1248 JUMP JUMPDEST PUSH1 0x1 PUSH1 0x1 PUSH1 0xA0 SHL SUB SWAP3 DUP4 AND PUSH1 0x20 SWAP2 DUP3 MUL SWAP3 SWAP1 SWAP3 ADD DUP2 ADD SWAP2 SWAP1 SWAP2 MSTORE PUSH1 0x0 DUP4 DUP2 MSTORE DUP1 DUP3 MSTORE PUSH1 0x40 DUP1 DUP3 KECCAK256 SLOAD SWAP1 SWAP4 AND DUP2 MSTORE PUSH1 0x3 SWAP1 SWAP2 MSTORE KECCAK256 SLOAD DUP3 MLOAD PUSH1 0xFF SWAP1 SWAP2 AND SWAP1 DUP4 SWAP1 DUP7 SWAP1 DUP2 LT PUSH2 0xB79 JUMPI PUSH2 0xB79 PUSH2 0x1248 JUMP JUMPDEST SWAP2 ISZERO ISZERO PUSH1 0x20 SWAP3 DUP4 MUL SWAP2 SWAP1 SWAP2 ADD SWAP1 SWAP2 ADD MSTORE DUP4 PUSH2 0xB93 DUP2 PUSH2 0x125E JUMP JUMPDEST SWAP5 POP POP JUMPDEST DUP1 PUSH2 0xBA1 DUP2 PUSH2 0x125E JUMP JUMPDEST SWAP2 POP POP PUSH2 0xADC JUMP JUMPDEST POP SWAP1 SWAP6 SWAP1 SWAP5 POP SWAP3 POP POP POP JUMP JUMPDEST PUSH1 0x60 PUSH1 0x6 DUP1 SLOAD DUP1 PUSH1 0x20 MUL PUSH1 0x20 ADD PUSH1 0x40 MLOAD SWAP1 DUP2 ADD PUSH1 0x40 MSTORE DUP1 SWAP3 SWAP2 SWAP1 DUP2 DUP2 MSTORE PUSH1 0x20 ADD DUP3 DUP1 SLOAD DUP1 ISZERO PUSH2 0xC0D JUMPI PUSH1 0x20 MUL DUP3 ADD SWAP2 SWAP1 PUSH1 0x0 MSTORE PUSH1 0x20 PUSH1 0x0 KECCAK256 SWAP1 JUMPDEST DUP2 SLOAD PUSH1 0x1 PUSH1 0x1 PUSH1 0xA0 SHL SUB AND DUP2 MSTORE PUSH1 0x1 SWAP1 SWAP2 ADD SWAP1 PUSH1 0x20 ADD DUP1 DUP4 GT PUSH2 0xBEF JUMPI JUMPDEST POP POP POP POP POP SWAP1 POP SWAP1 JUMP JUMPDEST PUSH1 0x60 PUSH1 0x0 DUP1 JUMPDEST PUSH1 0x4 SLOAD DUP2 LT ISZERO PUSH2 0xC8D JUMPI PUSH1 0x0 DUP2 DUP2 MSTORE PUSH1 0x20 DUP2 DUP2 MSTORE PUSH1 0x40 DUP1 DUP4 KECCAK256 SLOAD PUSH1 0x1 PUSH1 0x1 PUSH1 0xA0 SHL SUB AND DUP4 MSTORE PUSH1 0x3 SWAP1 SWAP2 MSTORE SWAP1 KECCAK256 SLOAD PUSH1 0xFF AND ISZERO ISZERO PUSH1 0x1 EQ ISZERO PUSH2 0xC7B JUMPI PUSH1 0x0 DUP2 DUP2 MSTORE PUSH1 0x2 PUSH1 0x20 MSTORE PUSH1 0x40 SWAP1 KECCAK256 SLOAD DUP5 EQ ISZERO PUSH2 0xC7B JUMPI DUP2 PUSH2 0xC77 DUP2 PUSH2 0x125E JUMP JUMPDEST SWAP3 POP POP JUMPDEST DUP1 PUSH2 0xC85 DUP2 PUSH2 0x125E JUMP JUMPDEST SWAP2 POP POP PUSH2 0xC1D JUMP JUMPDEST POP PUSH1 0x0 DUP2 PUSH8 0xFFFFFFFFFFFFFFFF DUP2 GT ISZERO PUSH2 0xCA9 JUMPI PUSH2 0xCA9 PUSH2 0xF91 JUMP JUMPDEST PUSH1 0x40 MLOAD SWAP1 DUP1 DUP3 MSTORE DUP1 PUSH1 0x20 MUL PUSH1 0x20 ADD DUP3 ADD PUSH1 0x40 MSTORE DUP1 ISZERO PUSH2 0xCD2 JUMPI DUP2 PUSH1 0x20 ADD PUSH1 0x20 DUP3 MUL DUP1 CALLDATASIZE DUP4 CALLDATACOPY ADD SWAP1 POP JUMPDEST POP SWAP1 POP PUSH1 0x0 SWAP2 POP PUSH1 0x0 JUMPDEST PUSH1 0x4 SLOAD DUP2 LT ISZERO PUSH2 0xD93 JUMPI PUSH1 0x0 DUP2 DUP2 MSTORE PUSH1 0x20 DUP2 DUP2 MSTORE PUSH1 0x40 DUP1 DUP4 KECCAK256 SLOAD PUSH1 0x1 PUSH1 0x1 PUSH1 0xA0 SHL SUB AND DUP4 MSTORE PUSH1 0x3 SWAP1 SWAP2 MSTORE SWAP1 KECCAK256 SLOAD PUSH1 0xFF AND ISZERO ISZERO PUSH1 0x1 EQ ISZERO PUSH2 0xD81 JUMPI PUSH1 0x0 DUP2 DUP2 MSTORE PUSH1 0x2 PUSH1 0x20 MSTORE PUSH1 0x40 SWAP1 KECCAK256 SLOAD DUP6 EQ ISZERO PUSH2 0xD81 JUMPI PUSH1 0x0 DUP2 DUP2 MSTORE PUSH1 0x20 DUP2 SWAP1 MSTORE PUSH1 0x40 SWAP1 KECCAK256 SLOAD DUP3 MLOAD PUSH1 0x1 PUSH1 0x1 PUSH1 0xA0 SHL SUB SWAP1 SWAP2 AND SWAP1 DUP4 SWAP1 DUP6 SWAP1 DUP2 LT PUSH2 0xD5B JUMPI PUSH2 0xD5B PUSH2 0x1248 JUMP JUMPDEST PUSH1 0x1 PUSH1 0x1 PUSH1 0xA0 SHL SUB SWAP1 SWAP3 AND PUSH1 0x20 SWAP3 DUP4 MUL SWAP2 SWAP1 SWAP2 ADD SWAP1 SWAP2 ADD MSTORE DUP3 PUSH2 0xD7D DUP2 PUSH2 0x125E JUMP JUMPDEST SWAP4 POP POP JUMPDEST DUP1 PUSH2 0xD8B DUP2 PUSH2 0x125E JUMP JUMPDEST SWAP2 POP POP PUSH2 0xCDC JUMP JUMPDEST POP SWAP4 SWAP3 POP POP POP JUMP JUMPDEST PUSH1 0x6 PUSH1 0x7 SLOAD DUP2 SLOAD DUP2 LT PUSH2 0xDB0 JUMPI PUSH2 0xDB0 PUSH2 0x1248 JUMP JUMPDEST PUSH1 0x0 SWAP2 DUP3 MSTORE PUSH1 0x20 SWAP1 SWAP2 KECCAK256 ADD SLOAD PUSH1 0x1 PUSH1 0x1 PUSH1 0xA0 SHL SUB AND CALLER EQ PUSH2 0xDD0 JUMPI PUSH1 0x0 DUP1 REVERT JUMPDEST PUSH1 0x1 PUSH1 0x1 PUSH1 0xA0 SHL SUB SWAP2 SWAP1 SWAP2 AND PUSH1 0x0 SWAP1 DUP2 MSTORE PUSH1 0x3 PUSH1 0x20 MSTORE PUSH1 0x40 SWAP1 KECCAK256 DUP1 SLOAD PUSH1 0xFF NOT AND SWAP2 ISZERO ISZERO SWAP2 SWAP1 SWAP2 OR SWAP1 SSTORE JUMP JUMPDEST PUSH1 0x0 DUP2 PUSH1 0x40 MLOAD PUSH1 0x20 ADD PUSH2 0xE0E SWAP2 SWAP1 PUSH2 0x12BC JUMP JUMPDEST PUSH1 0x40 MLOAD PUSH1 0x20 DUP2 DUP4 SUB SUB DUP2 MSTORE SWAP1 PUSH1 0x40 MSTORE DUP1 MLOAD SWAP1 PUSH1 0x20 ADD KECCAK256 DUP4 PUSH1 0x40 MLOAD PUSH1 0x20 ADD PUSH2 0xE35 SWAP2 SWAP1 PUSH2 0x12BC JUMP JUMPDEST PUSH1 0x40 MLOAD PUSH1 0x20 DUP2 DUP4 SUB SUB DUP2 MSTORE SWAP1 PUSH1 0x40 MSTORE DUP1 MLOAD SWAP1 PUSH1 0x20 ADD KECCAK256 EQ SWAP1 POP SWAP3 SWAP2 POP POP JUMP JUMPDEST DUP3 DUP1 SLOAD PUSH2 0xE60 SWAP1 PUSH2 0x1287 JUMP JUMPDEST SWAP1 PUSH1 0x0 MSTORE PUSH1 0x20 PUSH1 0x0 KECCAK256 SWAP1 PUSH1 0x1F ADD PUSH1 0x20 SWAP1 DIV DUP2 ADD SWAP3 DUP3 PUSH2 0xE82 JUMPI PUSH1 0x0 DUP6 SSTORE PUSH2 0xEC8 JUMP JUMPDEST DUP3 PUSH1 0x1F LT PUSH2 0xE9B JUMPI DUP1 MLOAD PUSH1 0xFF NOT AND DUP4 DUP1 ADD OR DUP6 SSTORE PUSH2 0xEC8 JUMP JUMPDEST DUP3 DUP1 ADD PUSH1 0x1 ADD DUP6 SSTORE DUP3 ISZERO PUSH2 0xEC8 JUMPI SWAP2 DUP3 ADD JUMPDEST DUP3 DUP2 GT ISZERO PUSH2 0xEC8 JUMPI DUP3 MLOAD DUP3 SSTORE SWAP2 PUSH1 0x20 ADD SWAP2 SWAP1 PUSH1 0x1 ADD SWAP1 PUSH2 0xEAD JUMP JUMPDEST POP PUSH2 0xED4 SWAP3 SWAP2 POP PUSH2 0xED8 JUMP JUMPDEST POP SWAP1 JUMP JUMPDEST JUMPDEST DUP1 DUP3 GT ISZERO PUSH2 0xED4 JUMPI PUSH1 0x0 DUP2 SSTORE PUSH1 0x1 ADD PUSH2 0xED9 JUMP JUMPDEST DUP1 CALLDATALOAD PUSH1 0x1 PUSH1 0x1 PUSH1 0xA0 SHL SUB DUP2 AND DUP2 EQ PUSH2 0xF04 JUMPI PUSH1 0x0 DUP1 REVERT JUMPDEST SWAP2 SWAP1 POP JUMP JUMPDEST PUSH1 0x0 DUP1 PUSH1 0x40 DUP4 DUP6 SUB SLT ISZERO PUSH2 0xF1C JUMPI PUSH1 0x0 DUP1 REVERT JUMPDEST PUSH2 0xF25 DUP4 PUSH2 0xEED JUMP JUMPDEST SWAP5 PUSH1 0x20 SWAP4 SWAP1 SWAP4 ADD CALLDATALOAD SWAP4 POP POP POP JUMP JUMPDEST PUSH1 0x0 DUP2 MLOAD DUP1 DUP5 MSTORE PUSH1 0x20 DUP1 DUP6 ADD SWAP5 POP DUP1 DUP5 ADD PUSH1 0x0 JUMPDEST DUP4 DUP2 LT ISZERO PUSH2 0xF6C JUMPI DUP2 MLOAD PUSH1 0x1 PUSH1 0x1 PUSH1 0xA0 SHL SUB AND DUP8 MSTORE SWAP6 DUP3 ADD SWAP6 SWAP1 DUP3 ADD SWAP1 PUSH1 0x1 ADD PUSH2 0xF47 JUMP JUMPDEST POP SWAP5 SWAP6 SWAP5 POP POP POP POP POP JUMP JUMPDEST PUSH1 0x20 DUP2 MSTORE PUSH1 0x0 PUSH2 0xF8A PUSH1 0x20 DUP4 ADD DUP5 PUSH2 0xF33 JUMP JUMPDEST SWAP4 SWAP3 POP POP POP JUMP JUMPDEST PUSH4 0x4E487B71 PUSH1 0xE0 SHL PUSH1 0x0 MSTORE PUSH1 0x41 PUSH1 0x4 MSTORE PUSH1 0x24 PUSH1 0x0 REVERT JUMPDEST PUSH1 0x0 DUP3 PUSH1 0x1F DUP4 ADD SLT PUSH2 0xFB8 JUMPI PUSH1 0x0 DUP1 REVERT JUMPDEST DUP2 CALLDATALOAD PUSH8 0xFFFFFFFFFFFFFFFF DUP1 DUP3 GT ISZERO PUSH2 0xFD3 JUMPI PUSH2 0xFD3 PUSH2 0xF91 JUMP JUMPDEST PUSH1 0x40 MLOAD PUSH1 0x1F DUP4 ADD PUSH1 0x1F NOT SWAP1 DUP2 AND PUSH1 0x3F ADD AND DUP2 ADD SWAP1 DUP3 DUP3 GT DUP2 DUP4 LT OR ISZERO PUSH2 0xFFB JUMPI PUSH2 0xFFB PUSH2 0xF91 JUMP JUMPDEST DUP2 PUSH1 0x40 MSTORE DUP4 DUP2 MSTORE DUP7 PUSH1 0x20 DUP6 DUP9 ADD ADD GT ISZERO PUSH2 0x1014 JUMPI PUSH1 0x0 DUP1 REVERT JUMPDEST DUP4 PUSH1 0x20 DUP8 ADD PUSH1 0x20 DUP4 ADD CALLDATACOPY PUSH1 0x0 PUSH1 0x20 DUP6 DUP4 ADD ADD MSTORE DUP1 SWAP5 POP POP POP POP POP SWAP3 SWAP2 POP POP JUMP JUMPDEST PUSH1 0x0 PUSH1 0x20 DUP3 DUP5 SUB SLT ISZERO PUSH2 0x1046 JUMPI PUSH1 0x0 DUP1 REVERT JUMPDEST DUP2 CALLDATALOAD PUSH8 0xFFFFFFFFFFFFFFFF DUP2 GT ISZERO PUSH2 0x105D JUMPI PUSH1 0x0 DUP1 REVERT JUMPDEST PUSH2 0x1069 DUP5 DUP3 DUP6 ADD PUSH2 0xFA7 JUMP JUMPDEST SWAP5 SWAP4 POP POP POP POP JUMP JUMPDEST PUSH1 0x0 JUMPDEST DUP4 DUP2 LT ISZERO PUSH2 0x108C JUMPI DUP2 DUP2 ADD MLOAD DUP4 DUP3 ADD MSTORE PUSH1 0x20 ADD PUSH2 0x1074 JUMP JUMPDEST DUP4 DUP2 GT ISZERO PUSH2 0x109B JUMPI PUSH1 0x0 DUP5 DUP5 ADD MSTORE JUMPDEST POP POP POP POP JUMP JUMPDEST PUSH1 0x0 PUSH1 0x20 DUP1 DUP4 ADD DUP2 DUP5 MSTORE DUP1 DUP6 MLOAD DUP1 DUP4 MSTORE PUSH1 0x40 DUP7 ADD SWAP2 POP PUSH1 0x40 DUP2 PUSH1 0x5 SHL DUP8 ADD ADD SWAP3 POP DUP4 DUP8 ADD PUSH1 0x0 JUMPDEST DUP3 DUP2 LT ISZERO PUSH2 0x110E JUMPI DUP8 DUP6 SUB PUSH1 0x3F NOT ADD DUP5 MSTORE DUP2 MLOAD DUP1 MLOAD DUP1 DUP8 MSTORE PUSH2 0x10EF DUP2 DUP10 DUP10 ADD DUP11 DUP6 ADD PUSH2 0x1071 JUMP JUMPDEST PUSH1 0x1F ADD PUSH1 0x1F NOT AND SWAP6 SWAP1 SWAP6 ADD DUP7 ADD SWAP5 POP SWAP3 DUP6 ADD SWAP3 SWAP1 DUP6 ADD SWAP1 PUSH1 0x1 ADD PUSH2 0x10C8 JUMP JUMPDEST POP SWAP3 SWAP8 SWAP7 POP POP POP POP POP POP POP JUMP JUMPDEST PUSH1 0x40 DUP2 MSTORE PUSH1 0x0 PUSH2 0x112E PUSH1 0x40 DUP4 ADD DUP6 PUSH2 0xF33 JUMP JUMPDEST DUP3 DUP2 SUB PUSH1 0x20 DUP5 DUP2 ADD SWAP2 SWAP1 SWAP2 MSTORE DUP5 MLOAD DUP1 DUP4 MSTORE DUP6 DUP3 ADD SWAP3 DUP3 ADD SWAP1 PUSH1 0x0 JUMPDEST DUP2 DUP2 LT ISZERO PUSH2 0x1167 JUMPI DUP5 MLOAD ISZERO ISZERO DUP4 MSTORE SWAP4 DUP4 ADD SWAP4 SWAP2 DUP4 ADD SWAP2 PUSH1 0x1 ADD PUSH2 0x1149 JUMP JUMPDEST POP SWAP1 SWAP8 SWAP7 POP POP POP POP POP POP POP JUMP JUMPDEST PUSH1 0x0 PUSH1 0x20 DUP3 DUP5 SUB SLT ISZERO PUSH2 0x1186 JUMPI PUSH1 0x0 DUP1 REVERT JUMPDEST PUSH2 0xF8A DUP3 PUSH2 0xEED JUMP JUMPDEST PUSH1 0x0 PUSH1 0x20 DUP3 DUP5 SUB SLT ISZERO PUSH2 0x11A1 JUMPI PUSH1 0x0 DUP1 REVERT JUMPDEST POP CALLDATALOAD SWAP2 SWAP1 POP JUMP JUMPDEST PUSH1 0x0 DUP1 PUSH1 0x40 DUP4 DUP6 SUB SLT ISZERO PUSH2 0x11BB JUMPI PUSH1 0x0 DUP1 REVERT JUMPDEST PUSH2 0x11C4 DUP4 PUSH2 0xEED JUMP JUMPDEST SWAP2 POP PUSH1 0x20 DUP4 ADD CALLDATALOAD DUP1 ISZERO ISZERO DUP2 EQ PUSH2 0x11D9 JUMPI PUSH1 0x0 DUP1 REVERT JUMPDEST DUP1 SWAP2 POP POP SWAP3 POP SWAP3 SWAP1 POP JUMP JUMPDEST PUSH1 0x0 DUP1 PUSH1 0x40 DUP4 DUP6 SUB SLT ISZERO PUSH2 0x11F7 JUMPI PUSH1 0x0 DUP1 REVERT JUMPDEST DUP3 CALLDATALOAD PUSH8 0xFFFFFFFFFFFFFFFF DUP1 DUP3 GT ISZERO PUSH2 0x120F JUMPI PUSH1 0x0 DUP1 REVERT JUMPDEST PUSH2 0x121B DUP7 DUP4 DUP8 ADD PUSH2 0xFA7 JUMP JUMPDEST SWAP4 POP PUSH1 0x20 DUP6 ADD CALLDATALOAD SWAP2 POP DUP1 DUP3 GT ISZERO PUSH2 0x1231 JUMPI PUSH1 0x0 DUP1 REVERT JUMPDEST POP PUSH2 0x123E DUP6 DUP3 DUP7 ADD PUSH2 0xFA7 JUMP JUMPDEST SWAP2 POP POP SWAP3 POP SWAP3 SWAP1 POP JUMP JUMPDEST PUSH4 0x4E487B71 PUSH1 0xE0 SHL PUSH1 0x0 MSTORE PUSH1 0x32 PUSH1 0x4 MSTORE PUSH1 0x24 PUSH1 0x0 REVERT JUMPDEST PUSH1 0x0 PUSH1 0x0 NOT DUP3 EQ ISZERO PUSH2 0x1280 JUMPI PUSH4 0x4E487B71 PUSH1 0xE0 SHL PUSH1 0x0 MSTORE PUSH1 0x11 PUSH1 0x4 MSTORE PUSH1 0x24 PUSH1 0x0 REVERT JUMPDEST POP PUSH1 0x1 ADD SWAP1 JUMP JUMPDEST PUSH1 0x1 DUP2 DUP2 SHR SWAP1 DUP3 AND DUP1 PUSH2 0x129B JUMPI PUSH1 0x7F DUP3 AND SWAP2 POP JUMPDEST PUSH1 0x20 DUP3 LT DUP2 EQ ISZERO PUSH2 0x693 JUMPI PUSH4 0x4E487B71 PUSH1 0xE0 SHL PUSH1 0x0 MSTORE PUSH1 0x22 PUSH1 0x4 MSTORE PUSH1 0x24 PUSH1 0x0 REVERT JUMPDEST PUSH1 0x0 DUP3 MLOAD PUSH2 0x12CE DUP2 DUP5 PUSH1 0x20 DUP8 ADD PUSH2 0x1071 JUMP JUMPDEST SWAP2 SWAP1 SWAP2 ADD SWAP3 SWAP2 POP POP JUMP INVALID LOG2 PUSH5 0x6970667358 0x22 SLT KECCAK256 LOG0 PUSH14 0x93B3DE38E82F44DF0C89947484D9 ADDRESS 0x4A SWAP13 0xD6 RETURNDATASIZE LOG4 POP DUP11 LOG0 DUP14 0x22 SWAP8 PUSH24 0xBB9ECE64736F6C634300080B003300000000000000000000 ","sha1":"3b4f40208e187b92cc4c0f496e83a046f4766cd8","source":"// SPDX-License-Identifier: MIT\n// Gallery of solid state contracts\n\npragma solidity ^0.8.0;\npragma abicoder v2;\n\nimport \"@openzeppelin/contracts/token/ERC20/IERC20.sol\";\n\ncontract SolidStateGallery {\n    /*struct buyOrder {\n        address artworkAddress;\n        address orderOwner;\n        uint256 shareValue;\n        uint256 ethValue;\n        uint256 balance;\n        OrderState state;\n    }\n    struct sellOrder {\n        address artworkAddress;\n        address orderOwner;\n        uint256 shareValue;\n        uint256 ethValue;\n        uint256 balance;\n        OrderState state;\n    }\n\n    enum OrderState {\n        OPEN,\n        CLOSED,\n        CANCELLED\n    }\n    struct transaction {\n        address artwork;\n        uint256 eth;\n        uint256 share;\n        uint256 buyId;\n        uint256 sellId;\n        address buyer;\n        address seller;\n        uint256 timestamp;\n    }\n\n    mapping(uint256 => transaction) private transactions;\n    uint256 transactionCount = 0;\n\n    mapping(uint256 => buyOrder) private buyOrders;\n    mapping(uint256 => sellOrder) private sellOrders;\n    uint256 buyOrderCount = 0;\n    uint256 sellOrderCount = 0;*/\n\n    mapping(uint256 => address) private artWorkContracts;\n    mapping(uint256 => string) private artWorkCollections;\n    mapping(uint256 => uint256) private artWorkCollection;\n    mapping(address => bool) private artWorkVisibility;\n    uint256 private artWorkCount;\n    uint256 private collectionCount;\n    address[] private owners;\n    uint256 ownerCount;\n\n    struct allArtworks {\n        address contractAddress;\n        bool visibilty;\n    }\n\n    modifier onlyOwner() {\n        require(msg.sender == owners[ownerCount]);\n        _;\n    }\n\n    constructor() {\n        owners.push(msg.sender);\n        artWorkCount = 0;\n        ownerCount = 0;\n        collectionCount = 0;\n    }\n\n    function addArtWork(address _artWorkAddress, uint256 _collectionId)\n        public\n        onlyOwner\n    {\n        for (\n            uint256 artWorkIndex = 0;\n            artWorkIndex < artWorkCount;\n            artWorkIndex++\n        ) {\n            require(\n                artWorkContracts[artWorkIndex] != _artWorkAddress,\n                \"Art work already added\"\n            );\n        }\n        artWorkContracts[artWorkCount] = _artWorkAddress;\n        artWorkCollection[artWorkCount] = _collectionId;\n        artWorkVisibility[_artWorkAddress] = false;\n        artWorkCount++;\n    }\n\n    function addCollection(string memory _collectionName) public onlyOwner {\n        for (\n            uint256 collectionIndex = 0;\n            collectionIndex < collectionCount;\n            collectionIndex++\n        ) {\n            require(\n                compareStrings(\n                    artWorkCollections[collectionIndex],\n                    _collectionName\n                ) == false,\n                \"Collection is already added\"\n            );\n        }\n        artWorkCollections[collectionCount] = _collectionName;\n\n        collectionCount++;\n    }\n\n    function getCollectionIdByName(string memory _collectionName)\n        public\n        view\n        returns (uint256)\n    {\n        bool isName = false;\n        for (\n            uint256 collectionIndex = 0;\n            collectionIndex < collectionCount;\n            collectionIndex++\n        ) {\n            if (\n                compareStrings(\n                    artWorkCollections[collectionIndex],\n                    _collectionName\n                ) == true\n            ) {\n                return collectionIndex;\n            }\n        }\n        require(isName == true, \"No Collection By That Name\");\n        return 0;\n    }\n\n    function compareStrings(string memory a, string memory b)\n        public\n        pure\n        returns (bool)\n    {\n        return (keccak256(abi.encodePacked((a))) ==\n            keccak256(abi.encodePacked((b))));\n    }\n\n    function getCollections() public view returns (string[] memory) {\n        string[] memory collections = new string[](collectionCount);\n        for (\n            uint256 collectionIndex = 0;\n            collectionIndex < collectionCount;\n            collectionIndex++\n        ) {\n            collections[collectionIndex] = artWorkCollections[collectionIndex];\n        }\n        return collections;\n    }\n\n    function getAllArtWorksByCollectionId(uint256 _Id)\n        public\n        view\n        returns (address[] memory, bool[] memory)\n    {\n        uint256 count = 0;\n        for (\n            uint256 artWorkIndex = 0;\n            artWorkIndex < artWorkCount;\n            artWorkIndex++\n        ) {\n            if (artWorkCollection[artWorkIndex] == _Id) {\n                count++;\n            }\n        }\n        address[] memory contracts = new address[](count);\n        bool[] memory visibility = new bool[](count);\n        count = 0;\n        for (\n            uint256 artWorkIndex = 0;\n            artWorkIndex < artWorkCount;\n            artWorkIndex++\n        ) {\n            if (artWorkCollection[artWorkIndex] == _Id) {\n                contracts[count] = artWorkContracts[artWorkIndex];\n                visibility[count] = artWorkVisibility[\n                    artWorkContracts[artWorkIndex]\n                ];\n                count++;\n            }\n        }\n        return (contracts, visibility);\n    }\n\n    function getArtWorksByCollectionId(uint256 _Id)\n        public\n        view\n        returns (address[] memory)\n    {\n        uint256 count = 0;\n        for (\n            uint256 artWorkIndex = 0;\n            artWorkIndex < artWorkCount;\n            artWorkIndex++\n        ) {\n            if (artWorkVisibility[artWorkContracts[artWorkIndex]] == true) {\n                if (artWorkCollection[artWorkIndex] == _Id) {\n                    count++;\n                }\n            }\n        }\n        address[] memory contracts = new address[](count);\n        count = 0;\n        for (\n            uint256 artWorkIndex = 0;\n            artWorkIndex < artWorkCount;\n            artWorkIndex++\n        ) {\n            if (artWorkVisibility[artWorkContracts[artWorkIndex]] == true) {\n                if (artWorkCollection[artWorkIndex] == _Id) {\n                    contracts[count] = artWorkContracts[artWorkIndex];\n                    count++;\n                }\n            }\n        }\n        return contracts;\n    }\n\n    function getAllArtWorks()\n        public\n        view\n        returns (address[] memory, bool[] memory)\n    {\n        address[] memory contracts = new address[](artWorkCount);\n        bool[] memory visibility = new bool[](artWorkCount);\n        for (\n            uint256 artWorkIndex = 0;\n            artWorkIndex < artWorkCount;\n            artWorkIndex++\n        ) {\n            contracts[artWorkIndex] = artWorkContracts[artWorkIndex];\n            visibility[artWorkIndex] = artWorkVisibility[\n                artWorkContracts[artWorkIndex]\n            ];\n        }\n        return (contracts, visibility);\n    }\n\n    function getArtWorks() public view returns (address[] memory) {\n        uint256 count = 0;\n        for (\n            uint256 artWorkIndex = 0;\n            artWorkIndex < artWorkCount;\n            artWorkIndex++\n        ) {\n            if (artWorkVisibility[artWorkContracts[artWorkIndex]] == true) {\n                count++;\n            }\n        }\n        address[] memory contracts = new address[](count);\n        count = 0;\n        for (\n            uint256 artWorkIndex = 0;\n            artWorkIndex < artWorkCount;\n            artWorkIndex++\n        ) {\n            if (artWorkVisibility[artWorkContracts[artWorkIndex]] == true) {\n                contracts[count] = artWorkContracts[artWorkIndex];\n                count++;\n            }\n        }\n        return contracts;\n    }\n\n    function setArtWorkVisibility(\n        address _artWorkContractAddress,\n        bool _visibility\n    ) public onlyOwner {\n        artWorkVisibility[_artWorkContractAddress] = _visibility;\n    }\n\n    function getOwners() public view returns (address[] memory) {\n        return owners;\n    }\n\n    function newOwner(address _newOwnerAddress) public onlyOwner {\n        ownerCount++;\n        owners.push(_newOwnerAddress);\n    }\n\n    /// TRADE THE SHARES/TOKENS FOR ETH\n    /*\n    function getAllBuyOrders(address _artworkAddress)\n        public\n        view\n        returns (\n            uint256[] memory,\n            uint256[] memory,\n            uint256[] memory,\n            uint256[] memory\n        )\n    {\n        uint8 c = 0;\n        for (uint8 j = 0; j < buyOrderCount; j++) {\n            if (buyOrders[j].state == OrderState.OPEN) {\n                if (buyOrders[j].artworkAddress == _artworkAddress) {\n                    c += 1;\n                }\n            }\n        }\n\n        uint256[] memory _shareValues = new uint256[](c);\n        uint256[] memory _ethValues = new uint256[](c);\n        uint256[] memory _balances = new uint256[](c);\n        uint256[] memory _ids = new uint256[](c);\n        c = 0;\n        for (uint8 j = 0; j < buyOrderCount; j++) {\n            if (buyOrders[j].state == OrderState.OPEN) {\n                if (buyOrders[j].artworkAddress == _artworkAddress) {\n                    _shareValues[c] = buyOrders[j].shareValue;\n                    _ethValues[c] = buyOrders[j].ethValue;\n                    _balances[c] = buyOrders[j].balance;\n                    _ids[c] = j;\n                    c++;\n                }\n            }\n        }\n        return (_shareValues, _ethValues, _balances, _ids);\n    }\n\n    function getBuyOrdersByAddress(address _artworkAddress, address _address)\n        public\n        view\n        returns (\n            address[] memory,\n            uint256[] memory,\n            uint256[] memory,\n            uint256[] memory,\n            OrderState[] memory,\n            uint256[] memory\n        )\n    {\n        uint8 c = 0;\n        for (uint8 j = 0; j < buyOrderCount; j++) {\n            if (buyOrders[j].orderOwner == _address) {\n                if (buyOrders[j].artworkAddress == _artworkAddress) {\n                    c++;\n                }\n            }\n        }\n        address[] memory _orderOwners = new address[](c);\n        uint256[] memory _shareValues = new uint256[](c);\n        uint256[] memory _ethValues = new uint256[](c);\n        uint256[] memory _balances = new uint256[](c);\n        uint256[] memory _ids = new uint256[](c);\n        OrderState[] memory _states = new OrderState[](c);\n        c = 0;\n        for (uint8 j = 0; j < buyOrderCount; j++) {\n            if (buyOrders[j].orderOwner == _address) {\n                if (buyOrders[j].artworkAddress == _artworkAddress) {\n                    _orderOwners[c] = buyOrders[j].orderOwner;\n                    _shareValues[c] = buyOrders[j].shareValue;\n                    _ethValues[c] = buyOrders[j].ethValue;\n                    _balances[c] = buyOrders[j].balance;\n\n                    _ids[c] = j;\n                    _states[c] = buyOrders[j].state;\n                    c++;\n                }\n            }\n        }\n        return (\n            _orderOwners,\n            _shareValues,\n            _ethValues,\n            _balances,\n            _states,\n            _ids\n        );\n    }\n\n    function getAllSellOrders(address _artworkAddress)\n        public\n        view\n        returns (\n            uint256[] memory,\n            uint256[] memory,\n            uint256[] memory,\n            uint256[] memory\n        )\n    {\n        uint8 c = 0;\n        for (uint8 j = 0; j < sellOrderCount; j++) {\n            if (sellOrders[j].artworkAddress == _artworkAddress) {\n                if (sellOrders[j].state == OrderState.OPEN) {\n                    c++;\n                }\n            }\n        }\n        uint256[] memory _shareValues = new uint256[](c);\n        uint256[] memory _ethValues = new uint256[](c);\n        uint256[] memory _balances = new uint256[](c);\n        uint256[] memory _ids = new uint256[](c);\n        c = 0;\n        for (uint8 j = 0; j < sellOrderCount; j++) {\n            if (sellOrders[j].artworkAddress == _artworkAddress) {\n                if (sellOrders[j].state == OrderState.OPEN) {\n                    _shareValues[c] = sellOrders[j].shareValue;\n                    _ethValues[c] = sellOrders[j].ethValue;\n                    _balances[c] = sellOrders[j].balance;\n                    _ids[c] = j;\n                    c++;\n                }\n            }\n        }\n        return (_shareValues, _ethValues, _balances, _ids);\n    }\n\n    function getSellOrdersByAddress(address _artworkAddress, address _address)\n        public\n        view\n        returns (\n            address[] memory,\n            uint256[] memory,\n            uint256[] memory,\n            uint256[] memory,\n            OrderState[] memory,\n            uint256[] memory\n        )\n    {\n        uint8 c = 0;\n        for (uint8 j = 0; j < sellOrderCount; j++) {\n            if (sellOrders[j].artworkAddress == _artworkAddress) {\n                if (sellOrders[j].orderOwner == _address) {\n                    c++;\n                }\n            }\n        }\n        address[] memory _orderOwners = new address[](c);\n        uint256[] memory _shareValues = new uint256[](c);\n        uint256[] memory _ethValues = new uint256[](c);\n        uint256[] memory _balances = new uint256[](c);\n        uint256[] memory _ids = new uint256[](c);\n        OrderState[] memory _states = new OrderState[](c);\n        c = 0;\n        for (uint8 j = 0; j < sellOrderCount; j++) {\n            if (sellOrders[j].orderOwner == _address) {\n                if (sellOrders[j].artworkAddress == _artworkAddress) {\n                    _orderOwners[c] = sellOrders[j].orderOwner;\n                    _shareValues[c] = sellOrders[j].shareValue;\n                    _ethValues[c] = sellOrders[j].ethValue;\n                    _balances[c] = sellOrders[j].balance;\n                    _states[c] = sellOrders[j].state;\n                    _ids[c] = j;\n                    c++;\n                }\n            }\n        }\n        return (\n            _orderOwners,\n            _shareValues,\n            _ethValues,\n            _balances,\n            _states,\n            _ids\n        );\n    }\n\n    function placeBuyOrder(\n        address _artworkAddress,\n        uint256 shareValue,\n        uint256 ethValue\n    ) public payable returns (uint256) {\n        require(shareValue > 0, \"share value can not be 0\");\n        require(ethValue > 0, \"share value can not be 0\");\n\n        require((msg.value / shareValue) == ethValue, \"can not make order\");\n        buyOrders[buyOrderCount] = buyOrder(\n            _artworkAddress,\n            msg.sender,\n            shareValue,\n            ethValue,\n            msg.value,\n            OrderState.OPEN\n        );\n\n        fillBuyOrder(buyOrderCount);\n        buyOrderCount += 1;\n        return buyOrderCount - 1;\n    }\n\n    function placeSellOrder(\n        address _artworkAddress,\n        uint256 shareValue,\n        uint256 ethValue\n    ) public returns (uint256) {\n        require(shareValue > 0, \"share value can not be 0\");\n        require(ethValue > 0, \"share value can not be 0\");\n        //IERC20(_artworkAddress).allowance(msg.sender, address(this));\n        IERC20(_artworkAddress).transferFrom(\n            msg.sender,\n            address(this),\n            shareValue\n        );\n        sellOrders[sellOrderCount] = sellOrder(\n            _artworkAddress,\n            msg.sender,\n            shareValue,\n            ethValue,\n            shareValue,\n            OrderState.OPEN\n        );\n\n        fillSellOrder(sellOrderCount);\n        sellOrderCount += 1;\n        return sellOrderCount - 1; // IERC20(_artworkAddress).balanceOf(msg.sender); //\n    }\n\n    function cancelBuyOrder(uint256 id) public {\n        require(\n            buyOrders[id].orderOwner == msg.sender,\n            \"msg.sender is not order owner\"\n        );\n        require(buyOrders[id].state == OrderState.OPEN, \"order is not open\");\n\n        address payable payee = payable(msg.sender);\n        payee.transfer(buyOrders[id].balance);\n        buyOrders[id].balance = 0;\n        buyOrders[id].state = OrderState.CANCELLED;\n    }\n\n    function cancelSellOrder(uint256 id) public {\n        require(\n            sellOrders[id].orderOwner == msg.sender,\n            \"msg.sender is not order owner\"\n        );\n        require(sellOrders[id].state == OrderState.OPEN, \"order is not open\");\n\n        sellOrders[id].state = OrderState.CANCELLED;\n        IERC20(sellOrders[id].artworkAddress).transfer(\n            sellOrders[id].orderOwner,\n            sellOrders[id].balance\n        );\n        sellOrders[id].balance = 0;\n    }\n\n    function getHeldShares(address _artworkAddress)\n        public\n        view\n        returns (uint256)\n    {\n        uint256 heldShares = 0;\n        for (uint8 j = 0; j < sellOrderCount; j++) {\n            if (sellOrders[j].artworkAddress == _artworkAddress) {\n                heldShares += sellOrders[j].balance;\n            }\n        }\n        return heldShares;\n    }\n\n    function getHeldETH(address _artworkAddress) public view returns (uint256) {\n        uint256 heldETH = 0;\n        for (uint8 j = 0; j < buyOrderCount; j++) {\n            if (buyOrders[j].artworkAddress == _artworkAddress) {\n                heldETH += buyOrders[j].balance;\n            }\n        }\n        return heldETH;\n    }\n\n    function fillBuyOrder(uint256 bc) private {\n        for (uint8 j = 0; j < sellOrderCount; j++) {\n            if (sellOrders[j].state == OrderState.OPEN) {\n                if (buyOrders[bc].state == OrderState.OPEN) {\n                    if (\n                        sellOrders[j].artworkAddress ==\n                        buyOrders[bc].artworkAddress\n                    ) {\n                        if (sellOrders[j].ethValue == buyOrders[bc].ethValue) {\n                            address payable seller = payable(\n                                sellOrders[j].orderOwner\n                            );\n                            uint256 transferAmount = 0;\n                            if (\n                                sellOrders[j].balance >=\n                                buyOrders[bc].shareValue\n                            ) {\n                                sellOrders[j].balance =\n                                    sellOrders[j].balance -\n                                    buyOrders[bc].shareValue;\n\n                                transferAmount = buyOrders[bc].shareValue;\n\n                                buyOrders[bc].balance = 0;\n                                buyOrders[bc].shareValue = 0;\n\n                                buyOrders[bc].state = OrderState.CLOSED;\n\n                                if (sellOrders[j].balance == 0) {\n                                    sellOrders[j].state = OrderState.CLOSED;\n                                }\n                            } else {\n                                buyOrders[bc].balance =\n                                    buyOrders[bc].balance -\n                                    (sellOrders[j].ethValue *\n                                        sellOrders[j].balance);\n\n                                buyOrders[bc].shareValue =\n                                    buyOrders[bc].shareValue -\n                                    sellOrders[j].balance;\n\n                                transferAmount = sellOrders[j].balance;\n\n                                sellOrders[j].balance = 0;\n                                sellOrders[j].state = OrderState.CLOSED;\n                                if (buyOrders[bc].balance == 0) {\n                                    buyOrders[bc].state = OrderState.CLOSED;\n                                }\n                            }\n                            seller.transfer(\n                                buyOrders[bc].ethValue * transferAmount\n                            );\n\n                            IERC20(buyOrders[bc].artworkAddress).transfer(\n                                buyOrders[bc].orderOwner,\n                                transferAmount\n                            );\n                            orderTransaction(\n                                buyOrders[bc].artworkAddress,\n                                buyOrders[bc].ethValue * transferAmount,\n                                transferAmount,\n                                bc,\n                                j,\n                                buyOrders[bc].orderOwner,\n                                sellOrders[j].orderOwner\n                            );\n                        }\n                    }\n                }\n            }\n        }\n    }\n\n    function fillSellOrder(uint256 sc) private {\n        for (uint8 j = 0; j < buyOrderCount; j++) {\n            if (sellOrders[sc].state == OrderState.OPEN) {\n                if (buyOrders[j].state == OrderState.OPEN) {\n                    if (\n                        sellOrders[sc].artworkAddress ==\n                        buyOrders[j].artworkAddress\n                    ) {\n                        if (sellOrders[sc].ethValue == buyOrders[j].ethValue) {\n                            address payable seller = payable(\n                                sellOrders[sc].orderOwner\n                            );\n                            uint256 transferAmount = 0;\n                            if (\n                                sellOrders[sc].balance >=\n                                buyOrders[j].shareValue\n                            ) {\n                                sellOrders[sc].balance =\n                                    sellOrders[sc].balance -\n                                    buyOrders[j].shareValue;\n\n                                transferAmount = buyOrders[j].shareValue;\n\n                                buyOrders[j].balance = 0;\n                                buyOrders[j].shareValue = 0;\n\n                                buyOrders[j].state = OrderState.CLOSED;\n\n                                if (sellOrders[sc].balance == 0) {\n                                    sellOrders[sc].state = OrderState.CLOSED;\n                                }\n                            } else {\n                                buyOrders[j].balance =\n                                    buyOrders[j].balance -\n                                    (sellOrders[sc].ethValue *\n                                        sellOrders[sc].balance);\n\n                                transferAmount = sellOrders[sc].balance;\n                                buyOrders[j].shareValue =\n                                    buyOrders[j].shareValue -\n                                    sellOrders[sc].balance;\n\n                                sellOrders[sc].balance = 0;\n                                sellOrders[sc].state = OrderState.CLOSED;\n                                if (buyOrders[j].balance == 0) {\n                                    buyOrders[j].state = OrderState.CLOSED;\n                                }\n                            }\n\n                            seller.transfer(\n                                buyOrders[j].ethValue * transferAmount\n                            );\n                            IERC20(buyOrders[j].artworkAddress).transfer(\n                                buyOrders[j].orderOwner,\n                                transferAmount\n                            );\n                            orderTransaction(\n                                buyOrders[j].artworkAddress,\n                                buyOrders[j].ethValue * transferAmount,\n                                transferAmount,\n                                j,\n                                sc,\n                                buyOrders[j].orderOwner,\n                                sellOrders[sc].orderOwner\n                            );\n                        }\n                    }\n                }\n            }\n        }\n    }\n\n    function orderTransaction(\n        address artwork,\n        uint256 eth,\n        uint256 share,\n        uint256 buyId,\n        uint256 sellId,\n        address buyer,\n        address seller\n    ) internal {\n        transactions[transactionCount].artwork = artwork;\n        transactions[transactionCount].eth = eth;\n        transactions[transactionCount].share = share;\n        transactions[transactionCount].timestamp = block.timestamp;\n        transactions[transactionCount].buyId = buyId;\n        transactions[transactionCount].sellId = sellId;\n        transactions[transactionCount].buyer = buyer;\n        transactions[transactionCount].seller = seller;\n        transactionCount++;\n    }\n\n    function getTransactions(address _artworkAddress)\n        public\n        view\n        returns (\n            uint256[] memory,\n            uint256[] memory,\n            uint256[] memory,\n            address[] memory,\n            address[] memory\n        )\n    {\n        uint256 c = 0;\n        for (uint8 j = 0; j < transactionCount; j++) {\n            if (transactions[j].artwork == _artworkAddress) {\n                c++;\n            }\n        }\n        address[] memory artwork = new address[](c);\n        uint256[] memory eth = new uint256[](c);\n        uint256[] memory share = new uint256[](c);\n        uint256[] memory timestamp = new uint256[](c);\n        address[] memory buyer = new address[](c);\n        address[] memory seller = new address[](c);\n        c = 0;\n        for (uint8 j = 0; j < transactionCount; j++) {\n            if (transactions[j].artwork == _artworkAddress) {\n                artwork[c] = transactions[j].artwork;\n                eth[c] = transactions[j].eth;\n                share[c] = transactions[j].share;\n                timestamp[c] = transactions[j].timestamp;\n                buyer[c] = transactions[j].buyer;\n                seller[c] = transactions[j].seller;\n                c++;\n            }\n        }\n        return (eth, share, timestamp, buyer, seller);\n    }\n    */\n}\n","sourcePath":"contracts/SolidStateGallery.sol","type":"contract","deployment":{"address":"0x87507Cc406d9473f32978F35b77C31E92C4EB6Ae","chainid":"42","blockHeight":31252088}}