{"abi":[{"inputs":[{"internalType":"uint256","name":"_initialSupply","type":"uint256"},{"internalType":"uint256","name":"_salePrice","type":"uint256"},{"internalType":"string","name":"_name","type":"string"},{"internalType":"string","name":"_tokenSymbol","type":"string"}],"stateMutability":"nonpayable","type":"constructor","name":"constructor"},{"anonymous":false,"inputs":[{"indexed":true,"internalType":"address","name":"owner","type":"address"},{"indexed":true,"internalType":"address","name":"spender","type":"address"},{"indexed":false,"internalType":"uint256","name":"value","type":"uint256"}],"name":"Approval","type":"event"},{"anonymous":false,"inputs":[{"indexed":true,"internalType":"address","name":"from","type":"address"},{"indexed":true,"internalType":"address","name":"to","type":"address"},{"indexed":false,"internalType":"uint256","name":"value","type":"uint256"}],"name":"Transfer","type":"event"},{"inputs":[{"internalType":"address","name":"owner","type":"address"},{"internalType":"address","name":"spender","type":"address"}],"name":"allowance","outputs":[{"internalType":"uint256","name":"","type":"uint256"}],"stateMutability":"view","type":"function"},{"inputs":[{"internalType":"address","name":"spender","type":"address"},{"internalType":"uint256","name":"amount","type":"uint256"}],"name":"approve","outputs":[{"internalType":"bool","name":"","type":"bool"}],"stateMutability":"nonpayable","type":"function"},{"inputs":[],"name":"artworkmeta","outputs":[{"internalType":"string","name":"title","type":"string"},{"internalType":"string","name":"artist","type":"string"},{"internalType":"string","name":"medium","type":"string"},{"internalType":"string","name":"year","type":"string"},{"internalType":"string","name":"dimensions","type":"string"},{"internalType":"string","name":"mediaDataPackURI","type":"string"}],"stateMutability":"view","type":"function"},{"inputs":[{"internalType":"address","name":"account","type":"address"}],"name":"balanceOf","outputs":[{"internalType":"uint256","name":"","type":"uint256"}],"stateMutability":"view","type":"function"},{"inputs":[],"name":"balanceOfHeldShares","outputs":[{"internalType":"uint256","name":"","type":"uint256"}],"stateMutability":"view","type":"function"},{"inputs":[{"internalType":"uint256","name":"id","type":"uint256"}],"name":"cancelBuyOrder","outputs":[],"stateMutability":"nonpayable","type":"function"},{"inputs":[{"internalType":"uint256","name":"id","type":"uint256"}],"name":"cancelSellOrder","outputs":[],"stateMutability":"nonpayable","type":"function"},{"inputs":[{"internalType":"address","name":"_address","type":"address"},{"internalType":"uint256","name":"_value","type":"uint256"}],"name":"contractReleaseTokens","outputs":[],"stateMutability":"nonpayable","type":"function"},{"inputs":[],"name":"contractTokenBalance","outputs":[{"internalType":"uint256","name":"","type":"uint256"}],"stateMutability":"view","type":"function"},{"inputs":[],"name":"decimals","outputs":[{"internalType":"uint8","name":"","type":"uint8"}],"stateMutability":"view","type":"function"},{"inputs":[{"internalType":"address","name":"spender","type":"address"},{"internalType":"uint256","name":"subtractedValue","type":"uint256"}],"name":"decreaseAllowance","outputs":[{"internalType":"bool","name":"","type":"bool"}],"stateMutability":"nonpayable","type":"function"},{"inputs":[],"name":"forSale","outputs":[{"internalType":"bool","name":"","type":"bool"}],"stateMutability":"view","type":"function"},{"inputs":[],"name":"getAllBuyOrders","outputs":[{"internalType":"uint256[]","name":"","type":"uint256[]"},{"internalType":"uint256[]","name":"","type":"uint256[]"},{"internalType":"uint256[]","name":"","type":"uint256[]"},{"internalType":"uint256[]","name":"","type":"uint256[]"}],"stateMutability":"view","type":"function"},{"inputs":[],"name":"getAllSellOrders","outputs":[{"internalType":"uint256[]","name":"","type":"uint256[]"},{"internalType":"uint256[]","name":"","type":"uint256[]"},{"internalType":"uint256[]","name":"","type":"uint256[]"},{"internalType":"uint256[]","name":"","type":"uint256[]"}],"stateMutability":"view","type":"function"},{"inputs":[{"internalType":"address","name":"_address","type":"address"}],"name":"getBuyOrdersByAddress","outputs":[{"internalType":"address[]","name":"","type":"address[]"},{"internalType":"uint256[]","name":"","type":"uint256[]"},{"internalType":"uint256[]","name":"","type":"uint256[]"},{"internalType":"uint256[]","name":"","type":"uint256[]"},{"internalType":"enum SolidStateToken.OrderState[]","name":"","type":"uint8[]"},{"internalType":"uint256[]","name":"","type":"uint256[]"}],"stateMutability":"view","type":"function"},{"inputs":[],"name":"getContractSalePrice","outputs":[{"internalType":"uint256","name":"","type":"uint256"}],"stateMutability":"view","type":"function"},{"inputs":[],"name":"getHeldETH","outputs":[{"internalType":"uint256","name":"","type":"uint256"}],"stateMutability":"view","type":"function"},{"inputs":[],"name":"getHeldShares","outputs":[{"internalType":"uint256","name":"","type":"uint256"}],"stateMutability":"view","type":"function"},{"inputs":[],"name":"getMetaData","outputs":[{"components":[{"internalType":"string","name":"title","type":"string"},{"internalType":"string","name":"artist","type":"string"},{"internalType":"string","name":"medium","type":"string"},{"internalType":"string","name":"year","type":"string"},{"internalType":"string","name":"dimensions","type":"string"},{"internalType":"string","name":"mediaDataPackURI","type":"string"}],"internalType":"struct SolidStateToken.artworkMeta","name":"","type":"tuple"}],"stateMutability":"view","type":"function"},{"inputs":[],"name":"getOwners","outputs":[{"internalType":"address[]","name":"","type":"address[]"}],"stateMutability":"view","type":"function"},{"inputs":[{"internalType":"address","name":"_address","type":"address"}],"name":"getSellOrdersByAddress","outputs":[{"internalType":"address[]","name":"","type":"address[]"},{"internalType":"uint256[]","name":"","type":"uint256[]"},{"internalType":"uint256[]","name":"","type":"uint256[]"},{"internalType":"uint256[]","name":"","type":"uint256[]"},{"internalType":"enum SolidStateToken.OrderState[]","name":"","type":"uint8[]"},{"internalType":"uint256[]","name":"","type":"uint256[]"}],"stateMutability":"view","type":"function"},{"inputs":[],"name":"getSharePrice","outputs":[{"internalType":"uint256","name":"","type":"uint256"}],"stateMutability":"view","type":"function"},{"inputs":[],"name":"getTransactions","outputs":[{"internalType":"uint256[]","name":"","type":"uint256[]"},{"internalType":"uint256[]","name":"","type":"uint256[]"},{"internalType":"uint256[]","name":"","type":"uint256[]"},{"internalType":"address[]","name":"","type":"address[]"},{"internalType":"address[]","name":"","type":"address[]"}],"stateMutability":"view","type":"function"},{"inputs":[{"internalType":"address","name":"spender","type":"address"},{"internalType":"uint256","name":"addedValue","type":"uint256"}],"name":"increaseAllowance","outputs":[{"internalType":"bool","name":"","type":"bool"}],"stateMutability":"nonpayable","type":"function"},{"inputs":[],"name":"initialSupply","outputs":[{"internalType":"uint256","name":"","type":"uint256"}],"stateMutability":"view","type":"function"},{"inputs":[],"name":"isForSale","outputs":[{"internalType":"bool","name":"","type":"bool"}],"stateMutability":"view","type":"function"},{"inputs":[],"name":"makeOfferToBuyContract","outputs":[],"stateMutability":"payable","type":"function"},{"inputs":[],"name":"name","outputs":[{"internalType":"string","name":"","type":"string"}],"stateMutability":"view","type":"function"},{"inputs":[],"name":"offerState","outputs":[{"internalType":"enum SolidStateToken.OfferState","name":"","type":"uint8"}],"stateMutability":"view","type":"function"},{"inputs":[{"internalType":"uint256","name":"shareValue","type":"uint256"},{"internalType":"uint256","name":"ethValue","type":"uint256"}],"name":"placeBuyOrder","outputs":[{"internalType":"uint256","name":"","type":"uint256"}],"stateMutability":"payable","type":"function"},{"inputs":[{"internalType":"uint256","name":"shareValue","type":"uint256"},{"internalType":"uint256","name":"ethValue","type":"uint256"}],"name":"placeSellOrder","outputs":[{"internalType":"uint256","name":"","type":"uint256"}],"stateMutability":"nonpayable","type":"function"},{"inputs":[],"name":"setForSaleOff","outputs":[],"stateMutability":"nonpayable","type":"function"},{"inputs":[],"name":"setForSaleOn","outputs":[],"stateMutability":"nonpayable","type":"function"},{"inputs":[{"internalType":"string","name":"_title","type":"string"},{"internalType":"string","name":"_artist","type":"string"},{"internalType":"string","name":"_medium","type":"string"},{"internalType":"string","name":"_dimensions","type":"string"},{"internalType":"string","name":"_year","type":"string"},{"internalType":"string","name":"_mediaDataPackURI","type":"string"}],"name":"setMetaData","outputs":[],"stateMutability":"nonpayable","type":"function"},{"inputs":[],"name":"symbol","outputs":[{"internalType":"string","name":"","type":"string"}],"stateMutability":"view","type":"function"},{"inputs":[],"name":"totalSupply","outputs":[{"internalType":"uint256","name":"","type":"uint256"}],"stateMutability":"view","type":"function"},{"inputs":[{"internalType":"address","name":"recipient","type":"address"},{"internalType":"uint256","name":"amount","type":"uint256"}],"name":"transfer","outputs":[{"internalType":"bool","name":"","type":"bool"}],"stateMutability":"nonpayable","type":"function"},{"inputs":[{"internalType":"address","name":"sender","type":"address"},{"internalType":"address","name":"recipient","type":"address"},{"internalType":"uint256","name":"amount","type":"uint256"}],"name":"transferFrom","outputs":[{"internalType":"bool","name":"","type":"bool"}],"stateMutability":"nonpayable","type":"function"}],"bytecode":"6080604052600060068190556009819055600a8190556013805461ffff191690556015553480156200003057600080fd5b506040516200469d3803806200469d83398101604081905262000053916200034f565b8151829082906200006c906003906020850190620001dc565b50805162000082906004906020840190620001dc565b5050506011849055601283905560168054600160ff1990911681179091556014805491820181556000527fce6d7b5282bd9a3661ae061feed1dbda4e52ab073b1f9285be6e155d9c38d4ec0180546001600160a01b03191633179055620000ea3085620000f4565b5050505062000431565b6001600160a01b0382166200014f5760405162461bcd60e51b815260206004820152601f60248201527f45524332303a206d696e7420746f20746865207a65726f206164647265737300604482015260640160405180910390fd5b8060026000828254620001639190620003cd565b90915550506001600160a01b0382166000908152602081905260408120805483929062000192908490620003cd565b90915550506040518181526001600160a01b038316906000907fddf252ad1be2c89b69c2b068fc378daa952ba7f163c4a11628f55a4df523b3ef9060200160405180910390a35050565b828054620001ea90620003f4565b90600052602060002090601f0160209004810192826200020e576000855562000259565b82601f106200022957805160ff191683800117855562000259565b8280016001018555821562000259579182015b82811115620002595782518255916020019190600101906200023c565b50620002679291506200026b565b5090565b5b808211156200026757600081556001016200026c565b634e487b7160e01b600052604160045260246000fd5b600082601f830112620002aa57600080fd5b81516001600160401b0380821115620002c757620002c762000282565b604051601f8301601f19908116603f01168101908282118183101715620002f257620002f262000282565b816040528381526020925086838588010111156200030f57600080fd5b600091505b8382101562000333578582018301518183018401529082019062000314565b83821115620003455760008385830101525b9695505050505050565b600080600080608085870312156200036657600080fd5b84516020860151604087015191955093506001600160401b03808211156200038d57600080fd5b6200039b8883890162000298565b93506060870151915080821115620003b257600080fd5b50620003c18782880162000298565b91505092959194509250565b60008219821115620003ef57634e487b7160e01b600052601160045260246000fd5b500190565b600181811c908216806200040957607f821691505b602082108114156200042b57634e487b7160e01b600052602260045260246000fd5b50919050565b61425c80620004416000396000f3fe6080604052600436106102255760003560e01c8063730412e811610123578063a457c2d7116100ab578063d2786ba41161006f578063d2786ba414610611578063d6eec79014610633578063dd62ed3e14610648578063eddc83921461068e578063ee36d4ab146106b557600080fd5b8063a457c2d71461057c578063a9059cbb1461059c578063ae35f550146105bc578063b3035780146105dc578063be5d147f146105f157600080fd5b8063861eec66116100f2578063861eec66146104de57806395d89b41146105105780639e9aed6214610525578063a0e67e2b1461053a578063a4406bcd1461055c57600080fd5b8063730412e81461046e5780637c50b990146104835780638049f71a1461049857806383920e90146104b857600080fd5b8063313ce567116101b15780634cd0e75d116101755780634cd0e75d146103c7578063527821e2146103e75780635b1dac60146103fc578063642271701461041157806370a082311461043857600080fd5b8063313ce56714610341578063377c6f7c1461035d578063378dc3dc146103725780633950935114610388578063466ccac0146103a857600080fd5b80631a46e42a116101f85780631a46e42a146102bd57806320b08dc2146102df57806323b872dd146102f45780632e98613e146103145780632eba8abd1461033957600080fd5b806306fdde031461022a578063095ea7b3146102555780630eae85731461028557806318160ddd146102a8575b600080fd5b34801561023657600080fd5b5061023f6106c8565b60405161024c9190613a63565b60405180910390f35b34801561026157600080fd5b50610275610270366004613a92565b61075a565b604051901515815260200161024c565b34801561029157600080fd5b5061029a610770565b60405190815260200161024c565b3480156102b457600080fd5b5060025461029a565b3480156102c957600080fd5b506102dd6102d8366004613abc565b6107bc565b005b3480156102eb57600080fd5b5061027561093c565b34801561030057600080fd5b5061027561030f366004613ad5565b610968565b34801561032057600080fd5b50610329610a12565b60405161024c9493929190613b4c565b6102dd610ce9565b34801561034d57600080fd5b506040516000815260200161024c565b34801561036957600080fd5b506102dd610e77565b34801561037e57600080fd5b5061029a60115481565b34801561039457600080fd5b506102756103a3366004613a92565b610ec3565b3480156103b457600080fd5b5060135461027590610100900460ff1681565b3480156103d357600080fd5b506102dd6103e2366004613a92565b610eff565b3480156103f357600080fd5b5061029a61104c565b34801561040857600080fd5b5061029a611092565b34801561041d57600080fd5b5060165461042b9060ff1681565b60405161024c9190613bba565b34801561044457600080fd5b5061029a610453366004613bd4565b6001600160a01b031660009081526020819052604090205490565b34801561047a57600080fd5b5061032961112a565b34801561048f57600080fd5b506102dd6113f1565b3480156104a457600080fd5b506102dd6104b3366004613c91565b611439565b3480156104c457600080fd5b506104cd61151e565b60405161024c959493929190613dbe565b3480156104ea57600080fd5b506104fe6104f9366004613bd4565b61183d565b60405161024c96959493929190613e2b565b34801561051c57600080fd5b5061023f611c7c565b34801561053157600080fd5b5061029a611c8b565b34801561054657600080fd5b5061054f611cf2565b60405161024c9190613ee1565b34801561056857600080fd5b5061029a610577366004613ef4565b611d53565b34801561058857600080fd5b50610275610597366004613a92565b611ed8565b3480156105a857600080fd5b506102756105b7366004613a92565b611f71565b3480156105c857600080fd5b506104fe6105d7366004613bd4565b611f7e565b3480156105e857600080fd5b5061029a6123a6565b3480156105fd57600080fd5b506102dd61060c366004613abc565b612435565b34801561061d57600080fd5b5061062661256d565b60405161024c9190613f16565b34801561063f57600080fd5b5061029a612924565b34801561065457600080fd5b5061029a610663366004613fce565b6001600160a01b03918216600090815260016020908152604080832093909416825291909152205490565b34801561069a57600080fd5b506106a3612992565b60405161024c96959493929190614001565b61029a6106c3366004613ef4565b612cea565b6060600380546106d790614083565b80601f016020809104026020016040519081016040528092919081815260200182805461070390614083565b80156107505780601f1061072557610100808354040283529160200191610750565b820191906000526020600020905b81548152906001019060200180831161073357829003601f168201915b5050505050905090565b6000610767338484612e4d565b50600192915050565b600080805b6009548160ff1610156107b65760ff81166000908152600760205260409020600301546107a290836140ce565b9150806107ae816140e6565b915050610775565b50919050565b6000818152600860205260409020546001600160a01b031633146108275760405162461bcd60e51b815260206004820152601d60248201527f6d73672e73656e646572206973206e6f74206f72646572206f776e657200000060448201526064015b60405180910390fd5b60008181526008602052604081206004015460ff16600281111561084d5761084d613ba4565b1461088e5760405162461bcd60e51b815260206004820152601160248201527037b93232b91034b9903737ba1037b832b760791b604482015260640161081e565b600081815260086020526040908190206004808201805460ff191660021790558154600390920154925163a9059cbb60e01b81526001600160a01b03909216908201526024810191909152309063a9059cbb906044016020604051808303816000875af1158015610903573d6000803e3d6000fd5b505050506040513d601f19601f820116820180604052508101906109279190614106565b50600090815260086020526040812060030155565b60008060165460ff16600381111561095657610956613ba4565b14156109625750600190565b50600090565b6000610975848484612f71565b6001600160a01b0384166000908152600160209081526040808320338452909152902054828110156109fa5760405162461bcd60e51b815260206004820152602860248201527f45524332303a207472616e7366657220616d6f756e74206578636565647320616044820152676c6c6f77616e636560c01b606482015260840161081e565b610a078533858403612e4d565b506001949350505050565b6060806060806000805b6009548160ff161015610a7a57600060ff808316600090815260076020526040902060040154166002811115610a5457610a54613ba4565b1415610a6857610a65600183614128565b91505b80610a72816140e6565b915050610a1c565b5060008160ff166001600160401b03811115610a9857610a98613bef565b604051908082528060200260200182016040528015610ac1578160200160208202803683370190505b50905060008260ff166001600160401b03811115610ae157610ae1613bef565b604051908082528060200260200182016040528015610b0a578160200160208202803683370190505b50905060008360ff166001600160401b03811115610b2a57610b2a613bef565b604051908082528060200260200182016040528015610b53578160200160208202803683370190505b50905060008460ff166001600160401b03811115610b7357610b73613bef565b604051908082528060200260200182016040528015610b9c578160200160208202803683370190505b5090506000945060005b6009548160ff161015610cd957600060ff808316600090815260076020526040902060040154166002811115610bde57610bde613ba4565b1415610cc757600760008260ff16815260200190815260200160002060010154858760ff1681518110610c1357610c1361414d565b602002602001018181525050600760008260ff16815260200190815260200160002060020154848760ff1681518110610c4e57610c4e61414d565b602002602001018181525050600760008260ff16815260200190815260200160002060030154838760ff1681518110610c8957610c8961414d565b6020026020010181815250508060ff16828760ff1681518110610cae57610cae61414d565b602090810291909101015285610cc3816140e6565b9650505b80610cd1816140e6565b915050610ba6565b5092989197509550909350915050565b600060165460ff166003811115610d0257610d02613ba4565b14610d3e5760405162461bcd60e51b815260206004820152600c60248201526b4e4f5420464f522053414c4560a01b604482015260640161081e565b6016805460ff191660021790556000610d556123a6565b9050803414610d985760405162461bcd60e51b815260206004820152600f60248201526e496e636f727265637420507269636560881b604482015260640161081e565b6016805460ff1916600317905560155460148054600092908110610dbe57610dbe61414d565b60009182526020822001546040516001600160a01b03909116925082913480156108fc02929091818181858888f19350505050158015610e02573d6000803e3d6000fd5b50601480546001818101835560009283527fce6d7b5282bd9a3661ae061feed1dbda4e52ab073b1f9285be6e155d9c38d4ec90910180546001600160a01b031916331790556015805491929091610e5a9084906140ce565b9091555050601680546001919060ff191682805b02179055505050565b601460155481548110610e8c57610e8c61414d565b6000918252602090912001546001600160a01b03163314610eac57600080fd5b601680546000919060ff19166001835b0217905550565b3360008181526001602090815260408083206001600160a01b03871684529091528120549091610767918590610efa9086906140ce565b612e4d565b601460155481548110610f1457610f1461414d565b6000918252602090912001546001600160a01b03163314610f3457600080fd5b6040516370a0823160e01b8152306004820181905282916370a0823190602401602060405180830381865afa158015610f71573d6000803e3d6000fd5b505050506040513d601f19601f82011682018060405250810190610f959190614163565b11610fd65760405162461bcd60e51b81526020600482015260116024820152704e6f7420456e6f75676820546f6b656e7360781b604482015260640161081e565b60405163a9059cbb60e01b81526001600160a01b038316600482015260248101829052309063a9059cbb906044016020604051808303816000875af1158015611023573d6000803e3d6000fd5b505050506040513d601f19601f820116820180604052508101906110479190614106565b505050565b600080805b600a548160ff1610156107b65760ff811660009081526008602052604090206003015461107e90836140ce565b91508061108a816140e6565b915050611051565b600080600061109f61151e565b50505091509150600080835111156111105781600183516110c0919061417c565b815181106110d0576110d061414d565b602002602001015183600185516110e7919061417c565b815181106110f7576110f761414d565b60200260200101516111099190614193565b9050611123565b6011546012546111209190614193565b90505b9392505050565b6060806060806000805b600a548160ff16101561119257600060ff80831660009081526008602052604090206004015416600281111561116c5761116c613ba4565b1415611180578161117c816140e6565b9250505b8061118a816140e6565b915050611134565b5060008160ff166001600160401b038111156111b0576111b0613bef565b6040519080825280602002602001820160405280156111d9578160200160208202803683370190505b50905060008260ff166001600160401b038111156111f9576111f9613bef565b604051908082528060200260200182016040528015611222578160200160208202803683370190505b50905060008360ff166001600160401b0381111561124257611242613bef565b60405190808252806020026020018201604052801561126b578160200160208202803683370190505b50905060008460ff166001600160401b0381111561128b5761128b613bef565b6040519080825280602002602001820160405280156112b4578160200160208202803683370190505b5090506000945060005b600a548160ff161015610cd957600060ff8083166000908152600860205260409020600401541660028111156112f6576112f6613ba4565b14156113df57600860008260ff16815260200190815260200160002060010154858760ff168151811061132b5761132b61414d565b602002602001018181525050600860008260ff16815260200190815260200160002060020154848760ff16815181106113665761136661414d565b602002602001018181525050600860008260ff16815260200190815260200160002060030154838760ff16815181106113a1576113a161414d565b6020026020010181815250508060ff16828760ff16815181106113c6576113c661414d565b6020908102919091010152856113db816140e6565b9650505b806113e9816140e6565b9150506112be565b6014601554815481106114065761140661414d565b6000918252602090912001546001600160a01b0316331461142657600080fd5b601680546001919060ff19168280610ebc565b60146015548154811061144e5761144e61414d565b6000918252602090912001546001600160a01b0316331461146e57600080fd5b85511561148a57855161148890600b90602089019061397d565b505b8451156114a65784516114a490600c90602088019061397d565b505b8351156114c25783516114c090600d90602087019061397d565b505b8251156114de5782516114dc90600f90602086019061397d565b505b8151156114fa5781516114f890600e90602085019061397d565b505b80511561151657805161151490601090602084019061397d565b505b505050505050565b60608060608060606000805b6006548160ff1610156115575781611541816141b5565b925050808061154f906140e6565b91505061152a565b506000816001600160401b0381111561157257611572613bef565b60405190808252806020026020018201604052801561159b578160200160208202803683370190505b5090506000826001600160401b038111156115b8576115b8613bef565b6040519080825280602002602001820160405280156115e1578160200160208202803683370190505b5090506000836001600160401b038111156115fe576115fe613bef565b604051908082528060200260200182016040528015611627578160200160208202803683370190505b5090506000846001600160401b0381111561164457611644613bef565b60405190808252806020026020018201604052801561166d578160200160208202803683370190505b5090506000856001600160401b0381111561168a5761168a613bef565b6040519080825280602002602001820160405280156116b3578160200160208202803683370190505b5090506000955060005b6006548160ff16101561182a5760ff811660009081526005602052604090205486518790899081106116f1576116f161414d565b602002602001018181525050600560008260ff168152602001908152602001600020600101548588815181106117295761172961414d565b602002602001018181525050600560008260ff168152602001908152602001600020600601548488815181106117615761176161414d565b602002602001018181525050600560008260ff16815260200190815260200160002060040160009054906101000a90046001600160a01b03168388815181106117ac576117ac61414d565b6001600160a01b0392831660209182029290920181019190915260ff8316600090815260059182905260409020015483519116908390899081106117f2576117f261414d565b6001600160a01b039092166020928302919091019091015286611814816141b5565b9750508080611822906140e6565b9150506116bd565b50939a9299509097509550909350915050565b6060806060806060806000805b6009548160ff16101561189d5760ff81166000908152600760205260409020546001600160a01b038a81169116141561188b5781611887816140e6565b9250505b80611895816140e6565b91505061184a565b5060008160ff166001600160401b038111156118bb576118bb613bef565b6040519080825280602002602001820160405280156118e4578160200160208202803683370190505b50905060008260ff166001600160401b0381111561190457611904613bef565b60405190808252806020026020018201604052801561192d578160200160208202803683370190505b50905060008360ff166001600160401b0381111561194d5761194d613bef565b604051908082528060200260200182016040528015611976578160200160208202803683370190505b50905060008460ff166001600160401b0381111561199657611996613bef565b6040519080825280602002602001820160405280156119bf578160200160208202803683370190505b50905060008560ff166001600160401b038111156119df576119df613bef565b604051908082528060200260200182016040528015611a08578160200160208202803683370190505b50905060008660ff166001600160401b03811115611a2857611a28613bef565b604051908082528060200260200182016040528015611a51578160200160208202803683370190505b5090506000965060005b6009548160ff161015611c65578e6001600160a01b0316600760008360ff16815260200190815260200160002060000160009054906101000a90046001600160a01b03166001600160a01b03161415611c535760ff80821660009081526007602052604090205488516001600160a01b03909116918991908b16908110611ae457611ae461414d565b60200260200101906001600160a01b031690816001600160a01b031681525050600760008260ff16815260200190815260200160002060010154868960ff1681518110611b3357611b3361414d565b602002602001018181525050600760008260ff16815260200190815260200160002060020154858960ff1681518110611b6e57611b6e61414d565b602002602001018181525050600760008260ff16815260200190815260200160002060030154848960ff1681518110611ba957611ba961414d565b6020026020010181815250508060ff16838960ff1681518110611bce57611bce61414d565b602002602001018181525050600760008260ff16815260200190815260200160002060040160009054906101000a900460ff16828960ff1681518110611c1657611c1661414d565b60200260200101906002811115611c2f57611c2f613ba4565b90816002811115611c4257611c42613ba4565b90525087611c4f816140e6565b9850505b80611c5d816140e6565b915050611a5b565b50949d939c50919a50985091965090945092505050565b6060600480546106d790614083565b6040516370a0823160e01b815230600482018190526000916370a0823190602401602060405180830381865afa158015611cc9573d6000803e3d6000fd5b505050506040513d601f19601f82011682018060405250810190611ced9190614163565b905090565b6060601480548060200260200160405190810160405280929190818152602001828054801561075057602002820191906000526020600020905b81546001600160a01b03168152600190910190602001808311611d2c575050505050905090565b6000808311611d745760405162461bcd60e51b815260040161081e906141d0565b60008211611d945760405162461bcd60e51b815260040161081e906141d0565b6040516323b872dd60e01b8152336004820152306024820181905260448201859052906323b872dd906064016020604051808303816000875af1158015611ddf573d6000803e3d6000fd5b505050506040513d601f19601f82011682018060405250810190611e039190614106565b506040805160a081018252338152602080820186815282840186815260608401888152600060808601818152600a548252600890955295909520845181546001600160a01b0319166001600160a01b0390911617815591516001808401919091559051600280840191909155945160038301559151600482018054949592949193909260ff19909216918490811115611e9e57611e9e613ba4565b0217905550905050611eb1600a54613140565b6001600a6000828254611ec491906140ce565b9091555050600a546111239060019061417c565b3360009081526001602090815260408083206001600160a01b038616845290915281205482811015611f5a5760405162461bcd60e51b815260206004820152602560248201527f45524332303a2064656372656173656420616c6c6f77616e63652062656c6f77604482015264207a65726f60d81b606482015260840161081e565b611f673385858403612e4d565b5060019392505050565b6000610767338484612f71565b6060806060806060806000805b600a548160ff161015611fde5760ff81166000908152600860205260409020546001600160a01b038a811691161415611fcc5781611fc8816140e6565b9250505b80611fd6816140e6565b915050611f8b565b5060008160ff166001600160401b03811115611ffc57611ffc613bef565b604051908082528060200260200182016040528015612025578160200160208202803683370190505b50905060008260ff166001600160401b0381111561204557612045613bef565b60405190808252806020026020018201604052801561206e578160200160208202803683370190505b50905060008360ff166001600160401b0381111561208e5761208e613bef565b6040519080825280602002602001820160405280156120b7578160200160208202803683370190505b50905060008460ff166001600160401b038111156120d7576120d7613bef565b604051908082528060200260200182016040528015612100578160200160208202803683370190505b50905060008560ff166001600160401b0381111561212057612120613bef565b604051908082528060200260200182016040528015612149578160200160208202803683370190505b50905060008660ff166001600160401b0381111561216957612169613bef565b604051908082528060200260200182016040528015612192578160200160208202803683370190505b5090506000965060005b600a548160ff161015611c65578e6001600160a01b0316600860008360ff16815260200190815260200160002060000160009054906101000a90046001600160a01b03166001600160a01b031614156123945760ff80821660009081526008602052604090205488516001600160a01b03909116918991908b169081106122255761222561414d565b60200260200101906001600160a01b031690816001600160a01b031681525050600860008260ff16815260200190815260200160002060010154868960ff16815181106122745761227461414d565b602002602001018181525050600860008260ff16815260200190815260200160002060020154858960ff16815181106122af576122af61414d565b602002602001018181525050600860008260ff16815260200190815260200160002060030154848960ff16815181106122ea576122ea61414d565b602002602001018181525050600860008260ff16815260200190815260200160002060040160009054906101000a900460ff16828960ff16815181106123325761233261414d565b6020026020010190600281111561234b5761234b613ba4565b9081600281111561235e5761235e613ba4565b815250508060ff16838960ff168151811061237b5761237b61414d565b602090810291909101015287612390816140e6565b9850505b8061239e816140e6565b91505061219c565b60008060006123b361151e565b505050915091506000808351111561242a5760115482600184516123d7919061417c565b815181106123e7576123e761414d565b602002602001015184600186516123fe919061417c565b8151811061240e5761240e61414d565b60200260200101516124209190614193565b6111099190614207565b506012549392505050565b6000818152600760205260409020546001600160a01b0316331461249b5760405162461bcd60e51b815260206004820152601d60248201527f6d73672e73656e646572206973206e6f74206f72646572206f776e6572000000604482015260640161081e565b60008181526007602052604081206004015460ff1660028111156124c1576124c1613ba4565b146125025760405162461bcd60e51b815260206004820152601160248201527037b93232b91034b9903737ba1037b832b760791b604482015260640161081e565b6000818152600760205260408082206003015490513392839280156108fc02929091818181858888f19350505050158015612541573d6000803e3d6000fd5b506000828152600760205260408120600381019190915560040180546002919060ff1916600183610e6e565b6125a66040518060c001604052806060815260200160608152602001606081526020016060815260200160608152602001606081525090565b600b6040518060c00160405290816000820180546125c390614083565b80601f01602080910402602001604051908101604052809291908181526020018280546125ef90614083565b801561263c5780601f106126115761010080835404028352916020019161263c565b820191906000526020600020905b81548152906001019060200180831161261f57829003601f168201915b5050505050815260200160018201805461265590614083565b80601f016020809104026020016040519081016040528092919081815260200182805461268190614083565b80156126ce5780601f106126a3576101008083540402835291602001916126ce565b820191906000526020600020905b8154815290600101906020018083116126b157829003601f168201915b505050505081526020016002820180546126e790614083565b80601f016020809104026020016040519081016040528092919081815260200182805461271390614083565b80156127605780601f1061273557610100808354040283529160200191612760565b820191906000526020600020905b81548152906001019060200180831161274357829003601f168201915b5050505050815260200160038201805461277990614083565b80601f01602080910402602001604051908101604052809291908181526020018280546127a590614083565b80156127f25780601f106127c7576101008083540402835291602001916127f2565b820191906000526020600020905b8154815290600101906020018083116127d557829003601f168201915b5050505050815260200160048201805461280b90614083565b80601f016020809104026020016040519081016040528092919081815260200182805461283790614083565b80156128845780601f1061285957610100808354040283529160200191612884565b820191906000526020600020905b81548152906001019060200180831161286757829003601f168201915b5050505050815260200160058201805461289d90614083565b80601f01602080910402602001604051908101604052809291908181526020018280546128c990614083565b80156129165780601f106128eb57610100808354040283529160200191612916565b820191906000526020600020905b8154815290600101906020018083116128f957829003601f168201915b505050505081525050905090565b600080600080600061293461112a565b93509350935093506000805b83518160ff16101561298857838160ff16815181106129615761296161414d565b60200260200101518261297491906140ce565b915080612980816140e6565b915050612940565b5095945050505050565b600b805481906129a190614083565b80601f01602080910402602001604051908101604052809291908181526020018280546129cd90614083565b8015612a1a5780601f106129ef57610100808354040283529160200191612a1a565b820191906000526020600020905b8154815290600101906020018083116129fd57829003601f168201915b505050505090806001018054612a2f90614083565b80601f0160208091040260200160405190810160405280929190818152602001828054612a5b90614083565b8015612aa85780601f10612a7d57610100808354040283529160200191612aa8565b820191906000526020600020905b815481529060010190602001808311612a8b57829003601f168201915b505050505090806002018054612abd90614083565b80601f0160208091040260200160405190810160405280929190818152602001828054612ae990614083565b8015612b365780601f10612b0b57610100808354040283529160200191612b36565b820191906000526020600020905b815481529060010190602001808311612b1957829003601f168201915b505050505090806003018054612b4b90614083565b80601f0160208091040260200160405190810160405280929190818152602001828054612b7790614083565b8015612bc45780601f10612b9957610100808354040283529160200191612bc4565b820191906000526020600020905b815481529060010190602001808311612ba757829003601f168201915b505050505090806004018054612bd990614083565b80601f0160208091040260200160405190810160405280929190818152602001828054612c0590614083565b8015612c525780601f10612c2757610100808354040283529160200191612c52565b820191906000526020600020905b815481529060010190602001808311612c3557829003601f168201915b505050505090806005018054612c6790614083565b80601f0160208091040260200160405190810160405280929190818152602001828054612c9390614083565b8015612ce05780601f10612cb557610100808354040283529160200191612ce0565b820191906000526020600020905b815481529060010190602001808311612cc357829003601f168201915b5050505050905086565b6000808311612d0b5760405162461bcd60e51b815260040161081e906141d0565b60008211612d2b5760405162461bcd60e51b815260040161081e906141d0565b81612d368434614193565b14612d785760405162461bcd60e51b815260206004820152601260248201527131b0b7103737ba1036b0b5b29037b93232b960711b604482015260640161081e565b6040805160a081018252338152602080820186815282840186815234606085019081526000608086018181526009548252600790955295909520845181546001600160a01b0319166001600160a01b0390911617815591516001808401919091559051600280840191909155945160038301559151600482018054949592949193909260ff19909216918490811115612e1357612e13613ba4565b0217905550905050612e26600954613515565b600160096000828254612e3991906140ce565b90915550506009546111239060019061417c565b6001600160a01b038316612eaf5760405162461bcd60e51b8152602060048201526024808201527f45524332303a20617070726f76652066726f6d20746865207a65726f206164646044820152637265737360e01b606482015260840161081e565b6001600160a01b038216612f105760405162461bcd60e51b815260206004820152602260248201527f45524332303a20617070726f766520746f20746865207a65726f206164647265604482015261737360f01b606482015260840161081e565b6001600160a01b0383811660008181526001602090815260408083209487168084529482529182902085905590518481527f8c5be1e5ebec7d5bd14f71427d1e84f3dd0314c0f7b2291e5b200ac8c7c3b925910160405180910390a3505050565b6001600160a01b038316612fd55760405162461bcd60e51b815260206004820152602560248201527f45524332303a207472616e736665722066726f6d20746865207a65726f206164604482015264647265737360d81b606482015260840161081e565b6001600160a01b0382166130375760405162461bcd60e51b815260206004820152602360248201527f45524332303a207472616e7366657220746f20746865207a65726f206164647260448201526265737360e81b606482015260840161081e565b6001600160a01b038316600090815260208190526040902054818110156130af5760405162461bcd60e51b815260206004820152602660248201527f45524332303a207472616e7366657220616d6f756e7420657863656564732062604482015265616c616e636560d01b606482015260840161081e565b6001600160a01b038085166000908152602081905260408082208585039055918516815290812080548492906130e69084906140ce565b92505081905550826001600160a01b0316846001600160a01b03167fddf252ad1be2c89b69c2b068fc378daa952ba7f163c4a11628f55a4df523b3ef8460405161313291815260200190565b60405180910390a350505050565b60005b6009548160ff1610156135115760008281526008602052604081206004015460ff16600281111561317657613176613ba4565b14156134ff57600060ff8083166000908152600760205260409020600401541660028111156131a7576131a7613ba4565b14156134ff5760ff81166000908152600760209081526040808320600290810154868552600890935292209091015414156134ff576000828152600860208181526040808420805460ff871686526007845291852060010154878652939092526003909101546001600160a01b039091169291116132c75760ff8316600090815260076020908152604080832060010154878452600890925290912060030154613251919061417c565b6000858152600860208181526040808420600390810195865560ff8916855260078352908420600180820180549383018790558690556004909101805460ff19169091179055928890525290549091506132c2576000848152600860205260409020600401805460ff191660011790555b6133be565b600084815260086020526040902060038101546002909101546132ea9190614207565b60ff841660009081526007602052604090206003015461330a919061417c565b60ff841660008181526007602081815260408084206003808201979097558a8552600883529084209095015493909252905260019091015490915061335090829061417c565b60ff841660008181526007602081815260408084206001808201979097558a85526008835290842060038082018690556004909101805460ff191690971790965593909252905201546133be5760ff83166000908152600760205260409020600401805460ff191660011790555b60ff83166000908152600760205260409020600201546001600160a01b038316906108fc906133ee908490614207565b6040518115909202916000818181858888f19350505050158015613416573d6000803e3d6000fd5b5060ff83166000908152600760205260409081902054905163a9059cbb60e01b81526001600160a01b03909116600482015260248101829052309063a9059cbb906044016020604051808303816000875af1158015613479573d6000803e3d6000fd5b505050506040513d601f19601f8201168201806040525081019061349d9190614106565b5060ff83166000908152600760205260409020600201546134fc906134c3908390614207565b60ff85166000818152600760209081526040808320548a845260089092529091205485929189916001600160a01b0391821691166138d8565b50505b80613509816140e6565b915050613143565b5050565b60005b600a548160ff16101561351157600060ff80831660009081526008602052604090206004015416600281111561355057613550613ba4565b14156138c65760008281526007602052604081206004015460ff16600281111561357c5761357c613ba4565b14156138c657600082815260076020908152604080832060029081015460ff86168552600890935292209091015414156138c65760ff8116600081815260086020818152604080842080548886526007845291852060010154958552929091526003909101546001600160a01b0390911692116136985760008481526007602090815260408083206001015460ff87168452600890925290912060030154613624919061417c565b60ff8416600081815260086020818152604080842060030195865589845260078252832060018082018054908690556004909201805460ff1916909117905593909252905290549091506136935760ff83166000908152600860205260409020600401805460ff191660011790555b613792565b60ff8316600090815260086020526040902060038101546002909101546136bf9190614207565b6000858152600760205260409020600301546136db919061417c565b600085815260076020818152604080842060038082019690965560ff891685526008835290842090940154928890525260019091015461371b919061417c565b600085815260076020908152604080832060019081019490945560ff871683526008909152812060038101805492905560040180549193509060ff191682800217905550600084815260076020526040902060030154613792576000848152600760205260409020600401805460ff191660011790555b6000848152600760205260409020600201546001600160a01b038316906108fc906137be908490614207565b6040518115909202916000818181858888f193505050501580156137e6573d6000803e3d6000fd5b506000848152600760205260409081902054905163a9059cbb60e01b81526001600160a01b03909116600482015260248101829052309063a9059cbb906044016020604051808303816000875af1158015613845573d6000803e3d6000fd5b505050506040513d601f19601f820116820180604052508101906138699190614106565b506000848152600760205260409020600201546138c39061388b908390614207565b60008681526007602090815260408083205460ff8916808552600890935292205485928992916001600160a01b0391821691166138d8565b50505b806138d0816140e6565b915050613518565b6006805460009081526005602081905260408083208a90558354835280832060010189905583548352808320429085015583548352808320600201889055835483528083206003018790558354835280832060040180546001600160a01b038089166001600160a01b0319928316179092558554855291842090920180549286169290911691909117905581549190613970836141b5565b9190505550505050505050565b82805461398990614083565b90600052602060002090601f0160209004810192826139ab57600085556139f1565b82601f106139c457805160ff19168380011785556139f1565b828001600101855582156139f1579182015b828111156139f15782518255916020019190600101906139d6565b506139fd929150613a01565b5090565b5b808211156139fd5760008155600101613a02565b6000815180845260005b81811015613a3c57602081850181015186830182015201613a20565b81811115613a4e576000602083870101525b50601f01601f19169290920160200192915050565b6020815260006111236020830184613a16565b80356001600160a01b0381168114613a8d57600080fd5b919050565b60008060408385031215613aa557600080fd5b613aae83613a76565b946020939093013593505050565b600060208284031215613ace57600080fd5b5035919050565b600080600060608486031215613aea57600080fd5b613af384613a76565b9250613b0160208501613a76565b9150604084013590509250925092565b600081518084526020808501945080840160005b83811015613b4157815187529582019590820190600101613b25565b509495945050505050565b608081526000613b5f6080830187613b11565b8281036020840152613b718187613b11565b90508281036040840152613b858186613b11565b90508281036060840152613b998185613b11565b979650505050505050565b634e487b7160e01b600052602160045260246000fd5b6020810160048310613bce57613bce613ba4565b91905290565b600060208284031215613be657600080fd5b61112382613a76565b634e487b7160e01b600052604160045260246000fd5b600082601f830112613c1657600080fd5b81356001600160401b0380821115613c3057613c30613bef565b604051601f8301601f19908116603f01168101908282118183101715613c5857613c58613bef565b81604052838152866020858801011115613c7157600080fd5b836020870160208301376000602085830101528094505050505092915050565b60008060008060008060c08789031215613caa57600080fd5b86356001600160401b0380821115613cc157600080fd5b613ccd8a838b01613c05565b97506020890135915080821115613ce357600080fd5b613cef8a838b01613c05565b96506040890135915080821115613d0557600080fd5b613d118a838b01613c05565b95506060890135915080821115613d2757600080fd5b613d338a838b01613c05565b94506080890135915080821115613d4957600080fd5b613d558a838b01613c05565b935060a0890135915080821115613d6b57600080fd5b50613d7889828a01613c05565b9150509295509295509295565b600081518084526020808501945080840160005b83811015613b415781516001600160a01b031687529582019590820190600101613d99565b60a081526000613dd160a0830188613b11565b8281036020840152613de38188613b11565b90508281036040840152613df78187613b11565b90508281036060840152613e0b8186613d85565b90508281036080840152613e1f8185613d85565b98975050505050505050565b60c081526000613e3e60c0830189613d85565b602083820381850152613e51828a613b11565b91508382036040850152613e658289613b11565b91508382036060850152613e798288613b11565b8481036080860152865180825282880193509082019060005b81811015613ebe57845160038110613eac57613eac613ba4565b83529383019391830191600101613e92565b505084810360a0860152613ed28187613b11565b9b9a5050505050505050505050565b6020815260006111236020830184613d85565b60008060408385031215613f0757600080fd5b50508035926020909101359150565b602081526000825160c06020840152613f3260e0840182613a16565b90506020840151601f1980858403016040860152613f508383613a16565b92506040860151915080858403016060860152613f6d8383613a16565b92506060860151915080858403016080860152613f8a8383613a16565b925060808601519150808584030160a0860152613fa78383613a16565b925060a08601519150808584030160c086015250613fc58282613a16565b95945050505050565b60008060408385031215613fe157600080fd5b613fea83613a76565b9150613ff860208401613a76565b90509250929050565b60c08152600061401460c0830189613a16565b82810360208401526140268189613a16565b9050828103604084015261403a8188613a16565b9050828103606084015261404e8187613a16565b905082810360808401526140628186613a16565b905082810360a08401526140768185613a16565b9998505050505050505050565b600181811c9082168061409757607f821691505b602082108114156107b657634e487b7160e01b600052602260045260246000fd5b634e487b7160e01b600052601160045260246000fd5b600082198211156140e1576140e16140b8565b500190565b600060ff821660ff8114156140fd576140fd6140b8565b60010192915050565b60006020828403121561411857600080fd5b8151801515811461112357600080fd5b600060ff821660ff84168060ff03821115614145576141456140b8565b019392505050565b634e487b7160e01b600052603260045260246000fd5b60006020828403121561417557600080fd5b5051919050565b60008282101561418e5761418e6140b8565b500390565b6000826141b057634e487b7160e01b600052601260045260246000fd5b500490565b60006000198214156141c9576141c96140b8565b5060010190565b60208082526018908201527f73686172652076616c75652063616e206e6f7420626520300000000000000000604082015260600190565b6000816000190483118215151615614221576142216140b8565b50029056fea264697066735822122061b521aaacf880581a41d02748c736380b11fece50e6ffd3dc47747e6b030d8f64736f6c634300080b0033","bytecodeSha1":"bd908ec584cc57cb9a9303c907e927f97038a71b","compiler":{"evm_version":"istanbul","optimizer":{"enabled":true,"runs":200},"version":"0.8.11+commit.d7f03943"},"contractName":"SolidStateToken","language":"Solidity","natspec":{"kind":"dev","methods":{"allowance(address,address)":{"details":"See {IERC20-allowance}."},"approve(address,uint256)":{"details":"See {IERC20-approve}. Requirements: - `spender` cannot be the zero address."},"balanceOf(address)":{"details":"See {IERC20-balanceOf}."},"decimals()":{"details":"Returns the number of decimals used to get its user representation. For example, if `decimals` equals `2`, a balance of `505` tokens should be displayed to a user as `5,05` (`505 / 10 ** 2`). Tokens usually opt for a value of 18, imitating the relationship between Ether and Wei. This is the value {ERC20} uses, unless this function is overridden; NOTE: This information is only used for _display_ purposes: it in no way affects any of the arithmetic of the contract, including {IERC20-balanceOf} and {IERC20-transfer}."},"decreaseAllowance(address,uint256)":{"details":"Atomically decreases the allowance granted to `spender` by the caller. This is an alternative to {approve} that can be used as a mitigation for problems described in {IERC20-approve}. Emits an {Approval} event indicating the updated allowance. Requirements: - `spender` cannot be the zero address. - `spender` must have allowance for the caller of at least `subtractedValue`."},"increaseAllowance(address,uint256)":{"details":"Atomically increases the allowance granted to `spender` by the caller. This is an alternative to {approve} that can be used as a mitigation for problems described in {IERC20-approve}. Emits an {Approval} event indicating the updated allowance. Requirements: - `spender` cannot be the zero address."},"name()":{"details":"Returns the name of the token."},"symbol()":{"details":"Returns the symbol of the token, usually a shorter version of the name."},"totalSupply()":{"details":"See {IERC20-totalSupply}."},"transfer(address,uint256)":{"details":"See {IERC20-transfer}. Requirements: - `recipient` cannot be the zero address. - the caller must have a balance of at least `amount`."},"transferFrom(address,address,uint256)":{"details":"See {IERC20-transferFrom}. Emits an {Approval} event indicating the updated allowance. This is not required by the EIP. See the note at the beginning of {ERC20}. Requirements: - `sender` and `recipient` cannot be the zero address. - `sender` must have a balance of at least `amount`. - the caller must have allowance for ``sender``'s tokens of at least `amount`."}},"version":1},"opcodes":"PUSH1 0x80 PUSH1 0x40 MSTORE PUSH1 0x4 CALLDATASIZE LT PUSH2 0x225 JUMPI PUSH1 0x0 CALLDATALOAD PUSH1 0xE0 SHR DUP1 PUSH4 0x730412E8 GT PUSH2 0x123 JUMPI DUP1 PUSH4 0xA457C2D7 GT PUSH2 0xAB JUMPI DUP1 PUSH4 0xD2786BA4 GT PUSH2 0x6F JUMPI DUP1 PUSH4 0xD2786BA4 EQ PUSH2 0x611 JUMPI DUP1 PUSH4 0xD6EEC790 EQ PUSH2 0x633 JUMPI DUP1 PUSH4 0xDD62ED3E EQ PUSH2 0x648 JUMPI DUP1 PUSH4 0xEDDC8392 EQ PUSH2 0x68E JUMPI DUP1 PUSH4 0xEE36D4AB EQ PUSH2 0x6B5 JUMPI PUSH1 0x0 DUP1 REVERT JUMPDEST DUP1 PUSH4 0xA457C2D7 EQ PUSH2 0x57C JUMPI DUP1 PUSH4 0xA9059CBB EQ PUSH2 0x59C JUMPI DUP1 PUSH4 0xAE35F550 EQ PUSH2 0x5BC JUMPI DUP1 PUSH4 0xB3035780 EQ PUSH2 0x5DC JUMPI DUP1 PUSH4 0xBE5D147F EQ PUSH2 0x5F1 JUMPI PUSH1 0x0 DUP1 REVERT JUMPDEST DUP1 PUSH4 0x861EEC66 GT PUSH2 0xF2 JUMPI DUP1 PUSH4 0x861EEC66 EQ PUSH2 0x4DE JUMPI DUP1 PUSH4 0x95D89B41 EQ PUSH2 0x510 JUMPI DUP1 PUSH4 0x9E9AED62 EQ PUSH2 0x525 JUMPI DUP1 PUSH4 0xA0E67E2B EQ PUSH2 0x53A JUMPI DUP1 PUSH4 0xA4406BCD EQ PUSH2 0x55C JUMPI PUSH1 0x0 DUP1 REVERT JUMPDEST DUP1 PUSH4 0x730412E8 EQ PUSH2 0x46E JUMPI DUP1 PUSH4 0x7C50B990 EQ PUSH2 0x483 JUMPI DUP1 PUSH4 0x8049F71A EQ PUSH2 0x498 JUMPI DUP1 PUSH4 0x83920E90 EQ PUSH2 0x4B8 JUMPI PUSH1 0x0 DUP1 REVERT JUMPDEST DUP1 PUSH4 0x313CE567 GT PUSH2 0x1B1 JUMPI DUP1 PUSH4 0x4CD0E75D GT PUSH2 0x175 JUMPI DUP1 PUSH4 0x4CD0E75D EQ PUSH2 0x3C7 JUMPI DUP1 PUSH4 0x527821E2 EQ PUSH2 0x3E7 JUMPI DUP1 PUSH4 0x5B1DAC60 EQ PUSH2 0x3FC JUMPI DUP1 PUSH4 0x64227170 EQ PUSH2 0x411 JUMPI DUP1 PUSH4 0x70A08231 EQ PUSH2 0x438 JUMPI PUSH1 0x0 DUP1 REVERT JUMPDEST DUP1 PUSH4 0x313CE567 EQ PUSH2 0x341 JUMPI DUP1 PUSH4 0x377C6F7C EQ PUSH2 0x35D JUMPI DUP1 PUSH4 0x378DC3DC EQ PUSH2 0x372 JUMPI DUP1 PUSH4 0x39509351 EQ PUSH2 0x388 JUMPI DUP1 PUSH4 0x466CCAC0 EQ PUSH2 0x3A8 JUMPI PUSH1 0x0 DUP1 REVERT JUMPDEST DUP1 PUSH4 0x1A46E42A GT PUSH2 0x1F8 JUMPI DUP1 PUSH4 0x1A46E42A EQ PUSH2 0x2BD JUMPI DUP1 PUSH4 0x20B08DC2 EQ PUSH2 0x2DF JUMPI DUP1 PUSH4 0x23B872DD EQ PUSH2 0x2F4 JUMPI DUP1 PUSH4 0x2E98613E EQ PUSH2 0x314 JUMPI DUP1 PUSH4 0x2EBA8ABD EQ PUSH2 0x339 JUMPI PUSH1 0x0 DUP1 REVERT JUMPDEST DUP1 PUSH4 0x6FDDE03 EQ PUSH2 0x22A JUMPI DUP1 PUSH4 0x95EA7B3 EQ PUSH2 0x255 JUMPI DUP1 PUSH4 0xEAE8573 EQ PUSH2 0x285 JUMPI DUP1 PUSH4 0x18160DDD EQ PUSH2 0x2A8 JUMPI JUMPDEST PUSH1 0x0 DUP1 REVERT JUMPDEST CALLVALUE DUP1 ISZERO PUSH2 0x236 JUMPI PUSH1 0x0 DUP1 REVERT JUMPDEST POP PUSH2 0x23F PUSH2 0x6C8 JUMP JUMPDEST PUSH1 0x40 MLOAD PUSH2 0x24C SWAP2 SWAP1 PUSH2 0x3A63 JUMP JUMPDEST PUSH1 0x40 MLOAD DUP1 SWAP2 SUB SWAP1 RETURN JUMPDEST CALLVALUE DUP1 ISZERO PUSH2 0x261 JUMPI PUSH1 0x0 DUP1 REVERT JUMPDEST POP PUSH2 0x275 PUSH2 0x270 CALLDATASIZE PUSH1 0x4 PUSH2 0x3A92 JUMP JUMPDEST PUSH2 0x75A JUMP JUMPDEST PUSH1 0x40 MLOAD SWAP1 ISZERO ISZERO DUP2 MSTORE PUSH1 0x20 ADD PUSH2 0x24C JUMP JUMPDEST CALLVALUE DUP1 ISZERO PUSH2 0x291 JUMPI PUSH1 0x0 DUP1 REVERT JUMPDEST POP PUSH2 0x29A PUSH2 0x770 JUMP JUMPDEST PUSH1 0x40 MLOAD SWAP1 DUP2 MSTORE PUSH1 0x20 ADD PUSH2 0x24C JUMP JUMPDEST CALLVALUE DUP1 ISZERO PUSH2 0x2B4 JUMPI PUSH1 0x0 DUP1 REVERT JUMPDEST POP PUSH1 0x2 SLOAD PUSH2 0x29A JUMP JUMPDEST CALLVALUE DUP1 ISZERO PUSH2 0x2C9 JUMPI PUSH1 0x0 DUP1 REVERT JUMPDEST POP PUSH2 0x2DD PUSH2 0x2D8 CALLDATASIZE PUSH1 0x4 PUSH2 0x3ABC JUMP JUMPDEST PUSH2 0x7BC JUMP JUMPDEST STOP JUMPDEST CALLVALUE DUP1 ISZERO PUSH2 0x2EB JUMPI PUSH1 0x0 DUP1 REVERT JUMPDEST POP PUSH2 0x275 PUSH2 0x93C JUMP JUMPDEST CALLVALUE DUP1 ISZERO PUSH2 0x300 JUMPI PUSH1 0x0 DUP1 REVERT JUMPDEST POP PUSH2 0x275 PUSH2 0x30F CALLDATASIZE PUSH1 0x4 PUSH2 0x3AD5 JUMP JUMPDEST PUSH2 0x968 JUMP JUMPDEST CALLVALUE DUP1 ISZERO PUSH2 0x320 JUMPI PUSH1 0x0 DUP1 REVERT JUMPDEST POP PUSH2 0x329 PUSH2 0xA12 JUMP JUMPDEST PUSH1 0x40 MLOAD PUSH2 0x24C SWAP5 SWAP4 SWAP3 SWAP2 SWAP1 PUSH2 0x3B4C JUMP JUMPDEST PUSH2 0x2DD PUSH2 0xCE9 JUMP JUMPDEST CALLVALUE DUP1 ISZERO PUSH2 0x34D JUMPI PUSH1 0x0 DUP1 REVERT JUMPDEST POP PUSH1 0x40 MLOAD PUSH1 0x0 DUP2 MSTORE PUSH1 0x20 ADD PUSH2 0x24C JUMP JUMPDEST CALLVALUE DUP1 ISZERO PUSH2 0x369 JUMPI PUSH1 0x0 DUP1 REVERT JUMPDEST POP PUSH2 0x2DD PUSH2 0xE77 JUMP JUMPDEST CALLVALUE DUP1 ISZERO PUSH2 0x37E JUMPI PUSH1 0x0 DUP1 REVERT JUMPDEST POP PUSH2 0x29A PUSH1 0x11 SLOAD DUP2 JUMP JUMPDEST CALLVALUE DUP1 ISZERO PUSH2 0x394 JUMPI PUSH1 0x0 DUP1 REVERT JUMPDEST POP PUSH2 0x275 PUSH2 0x3A3 CALLDATASIZE PUSH1 0x4 PUSH2 0x3A92 JUMP JUMPDEST PUSH2 0xEC3 JUMP JUMPDEST CALLVALUE DUP1 ISZERO PUSH2 0x3B4 JUMPI PUSH1 0x0 DUP1 REVERT JUMPDEST POP PUSH1 0x13 SLOAD PUSH2 0x275 SWAP1 PUSH2 0x100 SWAP1 DIV PUSH1 0xFF AND DUP2 JUMP JUMPDEST CALLVALUE DUP1 ISZERO PUSH2 0x3D3 JUMPI PUSH1 0x0 DUP1 REVERT JUMPDEST POP PUSH2 0x2DD PUSH2 0x3E2 CALLDATASIZE PUSH1 0x4 PUSH2 0x3A92 JUMP JUMPDEST PUSH2 0xEFF JUMP JUMPDEST CALLVALUE DUP1 ISZERO PUSH2 0x3F3 JUMPI PUSH1 0x0 DUP1 REVERT JUMPDEST POP PUSH2 0x29A PUSH2 0x104C JUMP JUMPDEST CALLVALUE DUP1 ISZERO PUSH2 0x408 JUMPI PUSH1 0x0 DUP1 REVERT JUMPDEST POP PUSH2 0x29A PUSH2 0x1092 JUMP JUMPDEST CALLVALUE DUP1 ISZERO PUSH2 0x41D JUMPI PUSH1 0x0 DUP1 REVERT JUMPDEST POP PUSH1 0x16 SLOAD PUSH2 0x42B SWAP1 PUSH1 0xFF AND DUP2 JUMP JUMPDEST PUSH1 0x40 MLOAD PUSH2 0x24C SWAP2 SWAP1 PUSH2 0x3BBA JUMP JUMPDEST CALLVALUE DUP1 ISZERO PUSH2 0x444 JUMPI PUSH1 0x0 DUP1 REVERT JUMPDEST POP PUSH2 0x29A PUSH2 0x453 CALLDATASIZE PUSH1 0x4 PUSH2 0x3BD4 JUMP JUMPDEST PUSH1 0x1 PUSH1 0x1 PUSH1 0xA0 SHL SUB AND PUSH1 0x0 SWAP1 DUP2 MSTORE PUSH1 0x20 DUP2 SWAP1 MSTORE PUSH1 0x40 SWAP1 KECCAK256 SLOAD SWAP1 JUMP JUMPDEST CALLVALUE DUP1 ISZERO PUSH2 0x47A JUMPI PUSH1 0x0 DUP1 REVERT JUMPDEST POP PUSH2 0x329 PUSH2 0x112A JUMP JUMPDEST CALLVALUE DUP1 ISZERO PUSH2 0x48F JUMPI PUSH1 0x0 DUP1 REVERT JUMPDEST POP PUSH2 0x2DD PUSH2 0x13F1 JUMP JUMPDEST CALLVALUE DUP1 ISZERO PUSH2 0x4A4 JUMPI PUSH1 0x0 DUP1 REVERT JUMPDEST POP PUSH2 0x2DD PUSH2 0x4B3 CALLDATASIZE PUSH1 0x4 PUSH2 0x3C91 JUMP JUMPDEST PUSH2 0x1439 JUMP JUMPDEST CALLVALUE DUP1 ISZERO PUSH2 0x4C4 JUMPI PUSH1 0x0 DUP1 REVERT JUMPDEST POP PUSH2 0x4CD PUSH2 0x151E JUMP JUMPDEST PUSH1 0x40 MLOAD PUSH2 0x24C SWAP6 SWAP5 SWAP4 SWAP3 SWAP2 SWAP1 PUSH2 0x3DBE JUMP JUMPDEST CALLVALUE DUP1 ISZERO PUSH2 0x4EA JUMPI PUSH1 0x0 DUP1 REVERT JUMPDEST POP PUSH2 0x4FE PUSH2 0x4F9 CALLDATASIZE PUSH1 0x4 PUSH2 0x3BD4 JUMP JUMPDEST PUSH2 0x183D JUMP JUMPDEST PUSH1 0x40 MLOAD PUSH2 0x24C SWAP7 SWAP6 SWAP5 SWAP4 SWAP3 SWAP2 SWAP1 PUSH2 0x3E2B JUMP JUMPDEST CALLVALUE DUP1 ISZERO PUSH2 0x51C JUMPI PUSH1 0x0 DUP1 REVERT JUMPDEST POP PUSH2 0x23F PUSH2 0x1C7C JUMP JUMPDEST CALLVALUE DUP1 ISZERO PUSH2 0x531 JUMPI PUSH1 0x0 DUP1 REVERT JUMPDEST POP PUSH2 0x29A PUSH2 0x1C8B JUMP JUMPDEST CALLVALUE DUP1 ISZERO PUSH2 0x546 JUMPI PUSH1 0x0 DUP1 REVERT JUMPDEST POP PUSH2 0x54F PUSH2 0x1CF2 JUMP JUMPDEST PUSH1 0x40 MLOAD PUSH2 0x24C SWAP2 SWAP1 PUSH2 0x3EE1 JUMP JUMPDEST CALLVALUE DUP1 ISZERO PUSH2 0x568 JUMPI PUSH1 0x0 DUP1 REVERT JUMPDEST POP PUSH2 0x29A PUSH2 0x577 CALLDATASIZE PUSH1 0x4 PUSH2 0x3EF4 JUMP JUMPDEST PUSH2 0x1D53 JUMP JUMPDEST CALLVALUE DUP1 ISZERO PUSH2 0x588 JUMPI PUSH1 0x0 DUP1 REVERT JUMPDEST POP PUSH2 0x275 PUSH2 0x597 CALLDATASIZE PUSH1 0x4 PUSH2 0x3A92 JUMP JUMPDEST PUSH2 0x1ED8 JUMP JUMPDEST CALLVALUE DUP1 ISZERO PUSH2 0x5A8 JUMPI PUSH1 0x0 DUP1 REVERT JUMPDEST POP PUSH2 0x275 PUSH2 0x5B7 CALLDATASIZE PUSH1 0x4 PUSH2 0x3A92 JUMP JUMPDEST PUSH2 0x1F71 JUMP JUMPDEST CALLVALUE DUP1 ISZERO PUSH2 0x5C8 JUMPI PUSH1 0x0 DUP1 REVERT JUMPDEST POP PUSH2 0x4FE PUSH2 0x5D7 CALLDATASIZE PUSH1 0x4 PUSH2 0x3BD4 JUMP JUMPDEST PUSH2 0x1F7E JUMP JUMPDEST CALLVALUE DUP1 ISZERO PUSH2 0x5E8 JUMPI PUSH1 0x0 DUP1 REVERT JUMPDEST POP PUSH2 0x29A PUSH2 0x23A6 JUMP JUMPDEST CALLVALUE DUP1 ISZERO PUSH2 0x5FD JUMPI PUSH1 0x0 DUP1 REVERT JUMPDEST POP PUSH2 0x2DD PUSH2 0x60C CALLDATASIZE PUSH1 0x4 PUSH2 0x3ABC JUMP JUMPDEST PUSH2 0x2435 JUMP JUMPDEST CALLVALUE DUP1 ISZERO PUSH2 0x61D JUMPI PUSH1 0x0 DUP1 REVERT JUMPDEST POP PUSH2 0x626 PUSH2 0x256D JUMP JUMPDEST PUSH1 0x40 MLOAD PUSH2 0x24C SWAP2 SWAP1 PUSH2 0x3F16 JUMP JUMPDEST CALLVALUE DUP1 ISZERO PUSH2 0x63F JUMPI PUSH1 0x0 DUP1 REVERT JUMPDEST POP PUSH2 0x29A PUSH2 0x2924 JUMP JUMPDEST CALLVALUE DUP1 ISZERO PUSH2 0x654 JUMPI PUSH1 0x0 DUP1 REVERT JUMPDEST POP PUSH2 0x29A PUSH2 0x663 CALLDATASIZE PUSH1 0x4 PUSH2 0x3FCE JUMP JUMPDEST PUSH1 0x1 PUSH1 0x1 PUSH1 0xA0 SHL SUB SWAP2 DUP3 AND PUSH1 0x0 SWAP1 DUP2 MSTORE PUSH1 0x1 PUSH1 0x20 SWAP1 DUP2 MSTORE PUSH1 0x40 DUP1 DUP4 KECCAK256 SWAP4 SWAP1 SWAP5 AND DUP3 MSTORE SWAP2 SWAP1 SWAP2 MSTORE KECCAK256 SLOAD SWAP1 JUMP JUMPDEST CALLVALUE DUP1 ISZERO PUSH2 0x69A JUMPI PUSH1 0x0 DUP1 REVERT JUMPDEST POP PUSH2 0x6A3 PUSH2 0x2992 JUMP JUMPDEST PUSH1 0x40 MLOAD PUSH2 0x24C SWAP7 SWAP6 SWAP5 SWAP4 SWAP3 SWAP2 SWAP1 PUSH2 0x4001 JUMP JUMPDEST PUSH2 0x29A PUSH2 0x6C3 CALLDATASIZE PUSH1 0x4 PUSH2 0x3EF4 JUMP JUMPDEST PUSH2 0x2CEA JUMP JUMPDEST PUSH1 0x60 PUSH1 0x3 DUP1 SLOAD PUSH2 0x6D7 SWAP1 PUSH2 0x4083 JUMP JUMPDEST DUP1 PUSH1 0x1F ADD PUSH1 0x20 DUP1 SWAP2 DIV MUL PUSH1 0x20 ADD PUSH1 0x40 MLOAD SWAP1 DUP2 ADD PUSH1 0x40 MSTORE DUP1 SWAP3 SWAP2 SWAP1 DUP2 DUP2 MSTORE PUSH1 0x20 ADD DUP3 DUP1 SLOAD PUSH2 0x703 SWAP1 PUSH2 0x4083 JUMP JUMPDEST DUP1 ISZERO PUSH2 0x750 JUMPI DUP1 PUSH1 0x1F LT PUSH2 0x725 JUMPI PUSH2 0x100 DUP1 DUP4 SLOAD DIV MUL DUP4 MSTORE SWAP2 PUSH1 0x20 ADD SWAP2 PUSH2 0x750 JUMP JUMPDEST DUP3 ADD SWAP2 SWAP1 PUSH1 0x0 MSTORE PUSH1 0x20 PUSH1 0x0 KECCAK256 SWAP1 JUMPDEST DUP2 SLOAD DUP2 MSTORE SWAP1 PUSH1 0x1 ADD SWAP1 PUSH1 0x20 ADD DUP1 DUP4 GT PUSH2 0x733 JUMPI DUP3 SWAP1 SUB PUSH1 0x1F AND DUP3 ADD SWAP2 JUMPDEST POP POP POP POP POP SWAP1 POP SWAP1 JUMP JUMPDEST PUSH1 0x0 PUSH2 0x767 CALLER DUP5 DUP5 PUSH2 0x2E4D JUMP JUMPDEST POP PUSH1 0x1 SWAP3 SWAP2 POP POP JUMP JUMPDEST PUSH1 0x0 DUP1 DUP1 JUMPDEST PUSH1 0x9 SLOAD DUP2 PUSH1 0xFF AND LT ISZERO PUSH2 0x7B6 JUMPI PUSH1 0xFF DUP2 AND PUSH1 0x0 SWAP1 DUP2 MSTORE PUSH1 0x7 PUSH1 0x20 MSTORE PUSH1 0x40 SWAP1 KECCAK256 PUSH1 0x3 ADD SLOAD PUSH2 0x7A2 SWAP1 DUP4 PUSH2 0x40CE JUMP JUMPDEST SWAP2 POP DUP1 PUSH2 0x7AE DUP2 PUSH2 0x40E6 JUMP JUMPDEST SWAP2 POP POP PUSH2 0x775 JUMP JUMPDEST POP SWAP2 SWAP1 POP JUMP JUMPDEST PUSH1 0x0 DUP2 DUP2 MSTORE PUSH1 0x8 PUSH1 0x20 MSTORE PUSH1 0x40 SWAP1 KECCAK256 SLOAD PUSH1 0x1 PUSH1 0x1 PUSH1 0xA0 SHL SUB AND CALLER EQ PUSH2 0x827 JUMPI PUSH1 0x40 MLOAD PUSH3 0x461BCD PUSH1 0xE5 SHL DUP2 MSTORE PUSH1 0x20 PUSH1 0x4 DUP3 ADD MSTORE PUSH1 0x1D PUSH1 0x24 DUP3 ADD MSTORE PUSH32 0x6D73672E73656E646572206973206E6F74206F72646572206F776E6572000000 PUSH1 0x44 DUP3 ADD MSTORE PUSH1 0x64 ADD JUMPDEST PUSH1 0x40 MLOAD DUP1 SWAP2 SUB SWAP1 REVERT JUMPDEST PUSH1 0x0 DUP2 DUP2 MSTORE PUSH1 0x8 PUSH1 0x20 MSTORE PUSH1 0x40 DUP2 KECCAK256 PUSH1 0x4 ADD SLOAD PUSH1 0xFF AND PUSH1 0x2 DUP2 GT ISZERO PUSH2 0x84D JUMPI PUSH2 0x84D PUSH2 0x3BA4 JUMP JUMPDEST EQ PUSH2 0x88E JUMPI PUSH1 0x40 MLOAD PUSH3 0x461BCD PUSH1 0xE5 SHL DUP2 MSTORE PUSH1 0x20 PUSH1 0x4 DUP3 ADD MSTORE PUSH1 0x11 PUSH1 0x24 DUP3 ADD MSTORE PUSH17 0x37B93232B91034B9903737BA1037B832B7 PUSH1 0x79 SHL PUSH1 0x44 DUP3 ADD MSTORE PUSH1 0x64 ADD PUSH2 0x81E JUMP JUMPDEST PUSH1 0x0 DUP2 DUP2 MSTORE PUSH1 0x8 PUSH1 0x20 MSTORE PUSH1 0x40 SWAP1 DUP2 SWAP1 KECCAK256 PUSH1 0x4 DUP1 DUP3 ADD DUP1 SLOAD PUSH1 0xFF NOT AND PUSH1 0x2 OR SWAP1 SSTORE DUP2 SLOAD PUSH1 0x3 SWAP1 SWAP3 ADD SLOAD SWAP3 MLOAD PUSH4 0xA9059CBB PUSH1 0xE0 SHL DUP2 MSTORE PUSH1 0x1 PUSH1 0x1 PUSH1 0xA0 SHL SUB SWAP1 SWAP3 AND SWAP1 DUP3 ADD MSTORE PUSH1 0x24 DUP2 ADD SWAP2 SWAP1 SWAP2 MSTORE ADDRESS SWAP1 PUSH4 0xA9059CBB SWAP1 PUSH1 0x44 ADD PUSH1 0x20 PUSH1 0x40 MLOAD DUP1 DUP4 SUB DUP2 PUSH1 0x0 DUP8 GAS CALL ISZERO DUP1 ISZERO PUSH2 0x903 JUMPI RETURNDATASIZE PUSH1 0x0 DUP1 RETURNDATACOPY RETURNDATASIZE PUSH1 0x0 REVERT JUMPDEST POP POP POP POP PUSH1 0x40 MLOAD RETURNDATASIZE PUSH1 0x1F NOT PUSH1 0x1F DUP3 ADD AND DUP3 ADD DUP1 PUSH1 0x40 MSTORE POP DUP2 ADD SWAP1 PUSH2 0x927 SWAP2 SWAP1 PUSH2 0x4106 JUMP JUMPDEST POP PUSH1 0x0 SWAP1 DUP2 MSTORE PUSH1 0x8 PUSH1 0x20 MSTORE PUSH1 0x40 DUP2 KECCAK256 PUSH1 0x3 ADD SSTORE JUMP JUMPDEST PUSH1 0x0 DUP1 PUSH1 0x16 SLOAD PUSH1 0xFF AND PUSH1 0x3 DUP2 GT ISZERO PUSH2 0x956 JUMPI PUSH2 0x956 PUSH2 0x3BA4 JUMP JUMPDEST EQ ISZERO PUSH2 0x962 JUMPI POP PUSH1 0x1 SWAP1 JUMP JUMPDEST POP PUSH1 0x0 SWAP1 JUMP JUMPDEST PUSH1 0x0 PUSH2 0x975 DUP5 DUP5 DUP5 PUSH2 0x2F71 JUMP JUMPDEST PUSH1 0x1 PUSH1 0x1 PUSH1 0xA0 SHL SUB DUP5 AND PUSH1 0x0 SWAP1 DUP2 MSTORE PUSH1 0x1 PUSH1 0x20 SWAP1 DUP2 MSTORE PUSH1 0x40 DUP1 DUP4 KECCAK256 CALLER DUP5 MSTORE SWAP1 SWAP2 MSTORE SWAP1 KECCAK256 SLOAD DUP3 DUP2 LT ISZERO PUSH2 0x9FA JUMPI PUSH1 0x40 MLOAD PUSH3 0x461BCD PUSH1 0xE5 SHL DUP2 MSTORE PUSH1 0x20 PUSH1 0x4 DUP3 ADD MSTORE PUSH1 0x28 PUSH1 0x24 DUP3 ADD MSTORE PUSH32 0x45524332303A207472616E7366657220616D6F756E7420657863656564732061 PUSH1 0x44 DUP3 ADD MSTORE PUSH8 0x6C6C6F77616E6365 PUSH1 0xC0 SHL PUSH1 0x64 DUP3 ADD MSTORE PUSH1 0x84 ADD PUSH2 0x81E JUMP JUMPDEST PUSH2 0xA07 DUP6 CALLER DUP6 DUP5 SUB PUSH2 0x2E4D JUMP JUMPDEST POP PUSH1 0x1 SWAP5 SWAP4 POP POP POP POP JUMP JUMPDEST PUSH1 0x60 DUP1 PUSH1 0x60 DUP1 PUSH1 0x0 DUP1 JUMPDEST PUSH1 0x9 SLOAD DUP2 PUSH1 0xFF AND LT ISZERO PUSH2 0xA7A JUMPI PUSH1 0x0 PUSH1 0xFF DUP1 DUP4 AND PUSH1 0x0 SWAP1 DUP2 MSTORE PUSH1 0x7 PUSH1 0x20 MSTORE PUSH1 0x40 SWAP1 KECCAK256 PUSH1 0x4 ADD SLOAD AND PUSH1 0x2 DUP2 GT ISZERO PUSH2 0xA54 JUMPI PUSH2 0xA54 PUSH2 0x3BA4 JUMP JUMPDEST EQ ISZERO PUSH2 0xA68 JUMPI PUSH2 0xA65 PUSH1 0x1 DUP4 PUSH2 0x4128 JUMP JUMPDEST SWAP2 POP JUMPDEST DUP1 PUSH2 0xA72 DUP2 PUSH2 0x40E6 JUMP JUMPDEST SWAP2 POP POP PUSH2 0xA1C JUMP JUMPDEST POP PUSH1 0x0 DUP2 PUSH1 0xFF AND PUSH1 0x1 PUSH1 0x1 PUSH1 0x40 SHL SUB DUP2 GT ISZERO PUSH2 0xA98 JUMPI PUSH2 0xA98 PUSH2 0x3BEF JUMP JUMPDEST PUSH1 0x40 MLOAD SWAP1 DUP1 DUP3 MSTORE DUP1 PUSH1 0x20 MUL PUSH1 0x20 ADD DUP3 ADD PUSH1 0x40 MSTORE DUP1 ISZERO PUSH2 0xAC1 JUMPI DUP2 PUSH1 0x20 ADD PUSH1 0x20 DUP3 MUL DUP1 CALLDATASIZE DUP4 CALLDATACOPY ADD SWAP1 POP JUMPDEST POP SWAP1 POP PUSH1 0x0 DUP3 PUSH1 0xFF AND PUSH1 0x1 PUSH1 0x1 PUSH1 0x40 SHL SUB DUP2 GT ISZERO PUSH2 0xAE1 JUMPI PUSH2 0xAE1 PUSH2 0x3BEF JUMP JUMPDEST PUSH1 0x40 MLOAD SWAP1 DUP1 DUP3 MSTORE DUP1 PUSH1 0x20 MUL PUSH1 0x20 ADD DUP3 ADD PUSH1 0x40 MSTORE DUP1 ISZERO PUSH2 0xB0A JUMPI DUP2 PUSH1 0x20 ADD PUSH1 0x20 DUP3 MUL DUP1 CALLDATASIZE DUP4 CALLDATACOPY ADD SWAP1 POP JUMPDEST POP SWAP1 POP PUSH1 0x0 DUP4 PUSH1 0xFF AND PUSH1 0x1 PUSH1 0x1 PUSH1 0x40 SHL SUB DUP2 GT ISZERO PUSH2 0xB2A JUMPI PUSH2 0xB2A PUSH2 0x3BEF JUMP JUMPDEST PUSH1 0x40 MLOAD SWAP1 DUP1 DUP3 MSTORE DUP1 PUSH1 0x20 MUL PUSH1 0x20 ADD DUP3 ADD PUSH1 0x40 MSTORE DUP1 ISZERO PUSH2 0xB53 JUMPI DUP2 PUSH1 0x20 ADD PUSH1 0x20 DUP3 MUL DUP1 CALLDATASIZE DUP4 CALLDATACOPY ADD SWAP1 POP JUMPDEST POP SWAP1 POP PUSH1 0x0 DUP5 PUSH1 0xFF AND PUSH1 0x1 PUSH1 0x1 PUSH1 0x40 SHL SUB DUP2 GT ISZERO PUSH2 0xB73 JUMPI PUSH2 0xB73 PUSH2 0x3BEF JUMP JUMPDEST PUSH1 0x40 MLOAD SWAP1 DUP1 DUP3 MSTORE DUP1 PUSH1 0x20 MUL PUSH1 0x20 ADD DUP3 ADD PUSH1 0x40 MSTORE DUP1 ISZERO PUSH2 0xB9C JUMPI DUP2 PUSH1 0x20 ADD PUSH1 0x20 DUP3 MUL DUP1 CALLDATASIZE DUP4 CALLDATACOPY ADD SWAP1 POP JUMPDEST POP SWAP1 POP PUSH1 0x0 SWAP5 POP PUSH1 0x0 JUMPDEST PUSH1 0x9 SLOAD DUP2 PUSH1 0xFF AND LT ISZERO PUSH2 0xCD9 JUMPI PUSH1 0x0 PUSH1 0xFF DUP1 DUP4 AND PUSH1 0x0 SWAP1 DUP2 MSTORE PUSH1 0x7 PUSH1 0x20 MSTORE PUSH1 0x40 SWAP1 KECCAK256 PUSH1 0x4 ADD SLOAD AND PUSH1 0x2 DUP2 GT ISZERO PUSH2 0xBDE JUMPI PUSH2 0xBDE PUSH2 0x3BA4 JUMP JUMPDEST EQ ISZERO PUSH2 0xCC7 JUMPI PUSH1 0x7 PUSH1 0x0 DUP3 PUSH1 0xFF AND DUP2 MSTORE PUSH1 0x20 ADD SWAP1 DUP2 MSTORE PUSH1 0x20 ADD PUSH1 0x0 KECCAK256 PUSH1 0x1 ADD SLOAD DUP6 DUP8 PUSH1 0xFF AND DUP2 MLOAD DUP2 LT PUSH2 0xC13 JUMPI PUSH2 0xC13 PUSH2 0x414D JUMP JUMPDEST PUSH1 0x20 MUL PUSH1 0x20 ADD ADD DUP2 DUP2 MSTORE POP POP PUSH1 0x7 PUSH1 0x0 DUP3 PUSH1 0xFF AND DUP2 MSTORE PUSH1 0x20 ADD SWAP1 DUP2 MSTORE PUSH1 0x20 ADD PUSH1 0x0 KECCAK256 PUSH1 0x2 ADD SLOAD DUP5 DUP8 PUSH1 0xFF AND DUP2 MLOAD DUP2 LT PUSH2 0xC4E JUMPI PUSH2 0xC4E PUSH2 0x414D JUMP JUMPDEST PUSH1 0x20 MUL PUSH1 0x20 ADD ADD DUP2 DUP2 MSTORE POP POP PUSH1 0x7 PUSH1 0x0 DUP3 PUSH1 0xFF AND DUP2 MSTORE PUSH1 0x20 ADD SWAP1 DUP2 MSTORE PUSH1 0x20 ADD PUSH1 0x0 KECCAK256 PUSH1 0x3 ADD SLOAD DUP4 DUP8 PUSH1 0xFF AND DUP2 MLOAD DUP2 LT PUSH2 0xC89 JUMPI PUSH2 0xC89 PUSH2 0x414D JUMP JUMPDEST PUSH1 0x20 MUL PUSH1 0x20 ADD ADD DUP2 DUP2 MSTORE POP POP DUP1 PUSH1 0xFF AND DUP3 DUP8 PUSH1 0xFF AND DUP2 MLOAD DUP2 LT PUSH2 0xCAE JUMPI PUSH2 0xCAE PUSH2 0x414D JUMP JUMPDEST PUSH1 0x20 SWAP1 DUP2 MUL SWAP2 SWAP1 SWAP2 ADD ADD MSTORE DUP6 PUSH2 0xCC3 DUP2 PUSH2 0x40E6 JUMP JUMPDEST SWAP7 POP POP JUMPDEST DUP1 PUSH2 0xCD1 DUP2 PUSH2 0x40E6 JUMP JUMPDEST SWAP2 POP POP PUSH2 0xBA6 JUMP JUMPDEST POP SWAP3 SWAP9 SWAP2 SWAP8 POP SWAP6 POP SWAP1 SWAP4 POP SWAP2 POP POP JUMP JUMPDEST PUSH1 0x0 PUSH1 0x16 SLOAD PUSH1 0xFF AND PUSH1 0x3 DUP2 GT ISZERO PUSH2 0xD02 JUMPI PUSH2 0xD02 PUSH2 0x3BA4 JUMP JUMPDEST EQ PUSH2 0xD3E JUMPI PUSH1 0x40 MLOAD PUSH3 0x461BCD PUSH1 0xE5 SHL DUP2 MSTORE PUSH1 0x20 PUSH1 0x4 DUP3 ADD MSTORE PUSH1 0xC PUSH1 0x24 DUP3 ADD MSTORE PUSH12 0x4E4F5420464F522053414C45 PUSH1 0xA0 SHL PUSH1 0x44 DUP3 ADD MSTORE PUSH1 0x64 ADD PUSH2 0x81E JUMP JUMPDEST PUSH1 0x16 DUP1 SLOAD PUSH1 0xFF NOT AND PUSH1 0x2 OR SWAP1 SSTORE PUSH1 0x0 PUSH2 0xD55 PUSH2 0x23A6 JUMP JUMPDEST SWAP1 POP DUP1 CALLVALUE EQ PUSH2 0xD98 JUMPI PUSH1 0x40 MLOAD PUSH3 0x461BCD PUSH1 0xE5 SHL DUP2 MSTORE PUSH1 0x20 PUSH1 0x4 DUP3 ADD MSTORE PUSH1 0xF PUSH1 0x24 DUP3 ADD MSTORE PUSH15 0x496E636F7272656374205072696365 PUSH1 0x88 SHL PUSH1 0x44 DUP3 ADD MSTORE PUSH1 0x64 ADD PUSH2 0x81E JUMP JUMPDEST PUSH1 0x16 DUP1 SLOAD PUSH1 0xFF NOT AND PUSH1 0x3 OR SWAP1 SSTORE PUSH1 0x15 SLOAD PUSH1 0x14 DUP1 SLOAD PUSH1 0x0 SWAP3 SWAP1 DUP2 LT PUSH2 0xDBE JUMPI PUSH2 0xDBE PUSH2 0x414D JUMP JUMPDEST PUSH1 0x0 SWAP2 DUP3 MSTORE PUSH1 0x20 DUP3 KECCAK256 ADD SLOAD PUSH1 0x40 MLOAD PUSH1 0x1 PUSH1 0x1 PUSH1 0xA0 SHL SUB SWAP1 SWAP2 AND SWAP3 POP DUP3 SWAP2 CALLVALUE DUP1 ISZERO PUSH2 0x8FC MUL SWAP3 SWAP1 SWAP2 DUP2 DUP2 DUP2 DUP6 DUP9 DUP9 CALL SWAP4 POP POP POP POP ISZERO DUP1 ISZERO PUSH2 0xE02 JUMPI RETURNDATASIZE PUSH1 0x0 DUP1 RETURNDATACOPY RETURNDATASIZE PUSH1 0x0 REVERT JUMPDEST POP PUSH1 0x14 DUP1 SLOAD PUSH1 0x1 DUP2 DUP2 ADD DUP4 SSTORE PUSH1 0x0 SWAP3 DUP4 MSTORE PUSH32 0xCE6D7B5282BD9A3661AE061FEED1DBDA4E52AB073B1F9285BE6E155D9C38D4EC SWAP1 SWAP2 ADD DUP1 SLOAD PUSH1 0x1 PUSH1 0x1 PUSH1 0xA0 SHL SUB NOT AND CALLER OR SWAP1 SSTORE PUSH1 0x15 DUP1 SLOAD SWAP2 SWAP3 SWAP1 SWAP2 PUSH2 0xE5A SWAP1 DUP5 SWAP1 PUSH2 0x40CE JUMP JUMPDEST SWAP1 SWAP2 SSTORE POP POP PUSH1 0x16 DUP1 SLOAD PUSH1 0x1 SWAP2 SWAP1 PUSH1 0xFF NOT AND DUP3 DUP1 JUMPDEST MUL OR SWAP1 SSTORE POP POP POP JUMP JUMPDEST PUSH1 0x14 PUSH1 0x15 SLOAD DUP2 SLOAD DUP2 LT PUSH2 0xE8C JUMPI PUSH2 0xE8C PUSH2 0x414D JUMP JUMPDEST PUSH1 0x0 SWAP2 DUP3 MSTORE PUSH1 0x20 SWAP1 SWAP2 KECCAK256 ADD SLOAD PUSH1 0x1 PUSH1 0x1 PUSH1 0xA0 SHL SUB AND CALLER EQ PUSH2 0xEAC JUMPI PUSH1 0x0 DUP1 REVERT JUMPDEST PUSH1 0x16 DUP1 SLOAD PUSH1 0x0 SWAP2 SWAP1 PUSH1 0xFF NOT AND PUSH1 0x1 DUP4 JUMPDEST MUL OR SWAP1 SSTORE POP JUMP JUMPDEST CALLER PUSH1 0x0 DUP2 DUP2 MSTORE PUSH1 0x1 PUSH1 0x20 SWAP1 DUP2 MSTORE PUSH1 0x40 DUP1 DUP4 KECCAK256 PUSH1 0x1 PUSH1 0x1 PUSH1 0xA0 SHL SUB DUP8 AND DUP5 MSTORE SWAP1 SWAP2 MSTORE DUP2 KECCAK256 SLOAD SWAP1 SWAP2 PUSH2 0x767 SWAP2 DUP6 SWAP1 PUSH2 0xEFA SWAP1 DUP7 SWAP1 PUSH2 0x40CE JUMP JUMPDEST PUSH2 0x2E4D JUMP JUMPDEST PUSH1 0x14 PUSH1 0x15 SLOAD DUP2 SLOAD DUP2 LT PUSH2 0xF14 JUMPI PUSH2 0xF14 PUSH2 0x414D JUMP JUMPDEST PUSH1 0x0 SWAP2 DUP3 MSTORE PUSH1 0x20 SWAP1 SWAP2 KECCAK256 ADD SLOAD PUSH1 0x1 PUSH1 0x1 PUSH1 0xA0 SHL SUB AND CALLER EQ PUSH2 0xF34 JUMPI PUSH1 0x0 DUP1 REVERT JUMPDEST PUSH1 0x40 MLOAD PUSH4 0x70A08231 PUSH1 0xE0 SHL DUP2 MSTORE ADDRESS PUSH1 0x4 DUP3 ADD DUP2 SWAP1 MSTORE DUP3 SWAP2 PUSH4 0x70A08231 SWAP1 PUSH1 0x24 ADD PUSH1 0x20 PUSH1 0x40 MLOAD DUP1 DUP4 SUB DUP2 DUP7 GAS STATICCALL ISZERO DUP1 ISZERO PUSH2 0xF71 JUMPI RETURNDATASIZE PUSH1 0x0 DUP1 RETURNDATACOPY RETURNDATASIZE PUSH1 0x0 REVERT JUMPDEST POP POP POP POP PUSH1 0x40 MLOAD RETURNDATASIZE PUSH1 0x1F NOT PUSH1 0x1F DUP3 ADD AND DUP3 ADD DUP1 PUSH1 0x40 MSTORE POP DUP2 ADD SWAP1 PUSH2 0xF95 SWAP2 SWAP1 PUSH2 0x4163 JUMP JUMPDEST GT PUSH2 0xFD6 JUMPI PUSH1 0x40 MLOAD PUSH3 0x461BCD PUSH1 0xE5 SHL DUP2 MSTORE PUSH1 0x20 PUSH1 0x4 DUP3 ADD MSTORE PUSH1 0x11 PUSH1 0x24 DUP3 ADD MSTORE PUSH17 0x4E6F7420456E6F75676820546F6B656E73 PUSH1 0x78 SHL PUSH1 0x44 DUP3 ADD MSTORE PUSH1 0x64 ADD PUSH2 0x81E JUMP JUMPDEST PUSH1 0x40 MLOAD PUSH4 0xA9059CBB PUSH1 0xE0 SHL DUP2 MSTORE PUSH1 0x1 PUSH1 0x1 PUSH1 0xA0 SHL SUB DUP4 AND PUSH1 0x4 DUP3 ADD MSTORE PUSH1 0x24 DUP2 ADD DUP3 SWAP1 MSTORE ADDRESS SWAP1 PUSH4 0xA9059CBB SWAP1 PUSH1 0x44 ADD PUSH1 0x20 PUSH1 0x40 MLOAD DUP1 DUP4 SUB DUP2 PUSH1 0x0 DUP8 GAS CALL ISZERO DUP1 ISZERO PUSH2 0x1023 JUMPI RETURNDATASIZE PUSH1 0x0 DUP1 RETURNDATACOPY RETURNDATASIZE PUSH1 0x0 REVERT JUMPDEST POP POP POP POP PUSH1 0x40 MLOAD RETURNDATASIZE PUSH1 0x1F NOT PUSH1 0x1F DUP3 ADD AND DUP3 ADD DUP1 PUSH1 0x40 MSTORE POP DUP2 ADD SWAP1 PUSH2 0x1047 SWAP2 SWAP1 PUSH2 0x4106 JUMP JUMPDEST POP POP POP JUMP JUMPDEST PUSH1 0x0 DUP1 DUP1 JUMPDEST PUSH1 0xA SLOAD DUP2 PUSH1 0xFF AND LT ISZERO PUSH2 0x7B6 JUMPI PUSH1 0xFF DUP2 AND PUSH1 0x0 SWAP1 DUP2 MSTORE PUSH1 0x8 PUSH1 0x20 MSTORE PUSH1 0x40 SWAP1 KECCAK256 PUSH1 0x3 ADD SLOAD PUSH2 0x107E SWAP1 DUP4 PUSH2 0x40CE JUMP JUMPDEST SWAP2 POP DUP1 PUSH2 0x108A DUP2 PUSH2 0x40E6 JUMP JUMPDEST SWAP2 POP POP PUSH2 0x1051 JUMP JUMPDEST PUSH1 0x0 DUP1 PUSH1 0x0 PUSH2 0x109F PUSH2 0x151E JUMP JUMPDEST POP POP POP SWAP2 POP SWAP2 POP PUSH1 0x0 DUP1 DUP4 MLOAD GT ISZERO PUSH2 0x1110 JUMPI DUP2 PUSH1 0x1 DUP4 MLOAD PUSH2 0x10C0 SWAP2 SWAP1 PUSH2 0x417C JUMP JUMPDEST DUP2 MLOAD DUP2 LT PUSH2 0x10D0 JUMPI PUSH2 0x10D0 PUSH2 0x414D JUMP JUMPDEST PUSH1 0x20 MUL PUSH1 0x20 ADD ADD MLOAD DUP4 PUSH1 0x1 DUP6 MLOAD PUSH2 0x10E7 SWAP2 SWAP1 PUSH2 0x417C JUMP JUMPDEST DUP2 MLOAD DUP2 LT PUSH2 0x10F7 JUMPI PUSH2 0x10F7 PUSH2 0x414D JUMP JUMPDEST PUSH1 0x20 MUL PUSH1 0x20 ADD ADD MLOAD PUSH2 0x1109 SWAP2 SWAP1 PUSH2 0x4193 JUMP JUMPDEST SWAP1 POP PUSH2 0x1123 JUMP JUMPDEST PUSH1 0x11 SLOAD PUSH1 0x12 SLOAD PUSH2 0x1120 SWAP2 SWAP1 PUSH2 0x4193 JUMP JUMPDEST SWAP1 POP JUMPDEST SWAP4 SWAP3 POP POP POP JUMP JUMPDEST PUSH1 0x60 DUP1 PUSH1 0x60 DUP1 PUSH1 0x0 DUP1 JUMPDEST PUSH1 0xA SLOAD DUP2 PUSH1 0xFF AND LT ISZERO PUSH2 0x1192 JUMPI PUSH1 0x0 PUSH1 0xFF DUP1 DUP4 AND PUSH1 0x0 SWAP1 DUP2 MSTORE PUSH1 0x8 PUSH1 0x20 MSTORE PUSH1 0x40 SWAP1 KECCAK256 PUSH1 0x4 ADD SLOAD AND PUSH1 0x2 DUP2 GT ISZERO PUSH2 0x116C JUMPI PUSH2 0x116C PUSH2 0x3BA4 JUMP JUMPDEST EQ ISZERO PUSH2 0x1180 JUMPI DUP2 PUSH2 0x117C DUP2 PUSH2 0x40E6 JUMP JUMPDEST SWAP3 POP POP JUMPDEST DUP1 PUSH2 0x118A DUP2 PUSH2 0x40E6 JUMP JUMPDEST SWAP2 POP POP PUSH2 0x1134 JUMP JUMPDEST POP PUSH1 0x0 DUP2 PUSH1 0xFF AND PUSH1 0x1 PUSH1 0x1 PUSH1 0x40 SHL SUB DUP2 GT ISZERO PUSH2 0x11B0 JUMPI PUSH2 0x11B0 PUSH2 0x3BEF JUMP JUMPDEST PUSH1 0x40 MLOAD SWAP1 DUP1 DUP3 MSTORE DUP1 PUSH1 0x20 MUL PUSH1 0x20 ADD DUP3 ADD PUSH1 0x40 MSTORE DUP1 ISZERO PUSH2 0x11D9 JUMPI DUP2 PUSH1 0x20 ADD PUSH1 0x20 DUP3 MUL DUP1 CALLDATASIZE DUP4 CALLDATACOPY ADD SWAP1 POP JUMPDEST POP SWAP1 POP PUSH1 0x0 DUP3 PUSH1 0xFF AND PUSH1 0x1 PUSH1 0x1 PUSH1 0x40 SHL SUB DUP2 GT ISZERO PUSH2 0x11F9 JUMPI PUSH2 0x11F9 PUSH2 0x3BEF JUMP JUMPDEST PUSH1 0x40 MLOAD SWAP1 DUP1 DUP3 MSTORE DUP1 PUSH1 0x20 MUL PUSH1 0x20 ADD DUP3 ADD PUSH1 0x40 MSTORE DUP1 ISZERO PUSH2 0x1222 JUMPI DUP2 PUSH1 0x20 ADD PUSH1 0x20 DUP3 MUL DUP1 CALLDATASIZE DUP4 CALLDATACOPY ADD SWAP1 POP JUMPDEST POP SWAP1 POP PUSH1 0x0 DUP4 PUSH1 0xFF AND PUSH1 0x1 PUSH1 0x1 PUSH1 0x40 SHL SUB DUP2 GT ISZERO PUSH2 0x1242 JUMPI PUSH2 0x1242 PUSH2 0x3BEF JUMP JUMPDEST PUSH1 0x40 MLOAD SWAP1 DUP1 DUP3 MSTORE DUP1 PUSH1 0x20 MUL PUSH1 0x20 ADD DUP3 ADD PUSH1 0x40 MSTORE DUP1 ISZERO PUSH2 0x126B JUMPI DUP2 PUSH1 0x20 ADD PUSH1 0x20 DUP3 MUL DUP1 CALLDATASIZE DUP4 CALLDATACOPY ADD SWAP1 POP JUMPDEST POP SWAP1 POP PUSH1 0x0 DUP5 PUSH1 0xFF AND PUSH1 0x1 PUSH1 0x1 PUSH1 0x40 SHL SUB DUP2 GT ISZERO PUSH2 0x128B JUMPI PUSH2 0x128B PUSH2 0x3BEF JUMP JUMPDEST PUSH1 0x40 MLOAD SWAP1 DUP1 DUP3 MSTORE DUP1 PUSH1 0x20 MUL PUSH1 0x20 ADD DUP3 ADD PUSH1 0x40 MSTORE DUP1 ISZERO PUSH2 0x12B4 JUMPI DUP2 PUSH1 0x20 ADD PUSH1 0x20 DUP3 MUL DUP1 CALLDATASIZE DUP4 CALLDATACOPY ADD SWAP1 POP JUMPDEST POP SWAP1 POP PUSH1 0x0 SWAP5 POP PUSH1 0x0 JUMPDEST PUSH1 0xA SLOAD DUP2 PUSH1 0xFF AND LT ISZERO PUSH2 0xCD9 JUMPI PUSH1 0x0 PUSH1 0xFF DUP1 DUP4 AND PUSH1 0x0 SWAP1 DUP2 MSTORE PUSH1 0x8 PUSH1 0x20 MSTORE PUSH1 0x40 SWAP1 KECCAK256 PUSH1 0x4 ADD SLOAD AND PUSH1 0x2 DUP2 GT ISZERO PUSH2 0x12F6 JUMPI PUSH2 0x12F6 PUSH2 0x3BA4 JUMP JUMPDEST EQ ISZERO PUSH2 0x13DF JUMPI PUSH1 0x8 PUSH1 0x0 DUP3 PUSH1 0xFF AND DUP2 MSTORE PUSH1 0x20 ADD SWAP1 DUP2 MSTORE PUSH1 0x20 ADD PUSH1 0x0 KECCAK256 PUSH1 0x1 ADD SLOAD DUP6 DUP8 PUSH1 0xFF AND DUP2 MLOAD DUP2 LT PUSH2 0x132B JUMPI PUSH2 0x132B PUSH2 0x414D JUMP JUMPDEST PUSH1 0x20 MUL PUSH1 0x20 ADD ADD DUP2 DUP2 MSTORE POP POP PUSH1 0x8 PUSH1 0x0 DUP3 PUSH1 0xFF AND DUP2 MSTORE PUSH1 0x20 ADD SWAP1 DUP2 MSTORE PUSH1 0x20 ADD PUSH1 0x0 KECCAK256 PUSH1 0x2 ADD SLOAD DUP5 DUP8 PUSH1 0xFF AND DUP2 MLOAD DUP2 LT PUSH2 0x1366 JUMPI PUSH2 0x1366 PUSH2 0x414D JUMP JUMPDEST PUSH1 0x20 MUL PUSH1 0x20 ADD ADD DUP2 DUP2 MSTORE POP POP PUSH1 0x8 PUSH1 0x0 DUP3 PUSH1 0xFF AND DUP2 MSTORE PUSH1 0x20 ADD SWAP1 DUP2 MSTORE PUSH1 0x20 ADD PUSH1 0x0 KECCAK256 PUSH1 0x3 ADD SLOAD DUP4 DUP8 PUSH1 0xFF AND DUP2 MLOAD DUP2 LT PUSH2 0x13A1 JUMPI PUSH2 0x13A1 PUSH2 0x414D JUMP JUMPDEST PUSH1 0x20 MUL PUSH1 0x20 ADD ADD DUP2 DUP2 MSTORE POP POP DUP1 PUSH1 0xFF AND DUP3 DUP8 PUSH1 0xFF AND DUP2 MLOAD DUP2 LT PUSH2 0x13C6 JUMPI PUSH2 0x13C6 PUSH2 0x414D JUMP JUMPDEST PUSH1 0x20 SWAP1 DUP2 MUL SWAP2 SWAP1 SWAP2 ADD ADD MSTORE DUP6 PUSH2 0x13DB DUP2 PUSH2 0x40E6 JUMP JUMPDEST SWAP7 POP POP JUMPDEST DUP1 PUSH2 0x13E9 DUP2 PUSH2 0x40E6 JUMP JUMPDEST SWAP2 POP POP PUSH2 0x12BE JUMP JUMPDEST PUSH1 0x14 PUSH1 0x15 SLOAD DUP2 SLOAD DUP2 LT PUSH2 0x1406 JUMPI PUSH2 0x1406 PUSH2 0x414D JUMP JUMPDEST PUSH1 0x0 SWAP2 DUP3 MSTORE PUSH1 0x20 SWAP1 SWAP2 KECCAK256 ADD SLOAD PUSH1 0x1 PUSH1 0x1 PUSH1 0xA0 SHL SUB AND CALLER EQ PUSH2 0x1426 JUMPI PUSH1 0x0 DUP1 REVERT JUMPDEST PUSH1 0x16 DUP1 SLOAD PUSH1 0x1 SWAP2 SWAP1 PUSH1 0xFF NOT AND DUP3 DUP1 PUSH2 0xEBC JUMP JUMPDEST PUSH1 0x14 PUSH1 0x15 SLOAD DUP2 SLOAD DUP2 LT PUSH2 0x144E JUMPI PUSH2 0x144E PUSH2 0x414D JUMP JUMPDEST PUSH1 0x0 SWAP2 DUP3 MSTORE PUSH1 0x20 SWAP1 SWAP2 KECCAK256 ADD SLOAD PUSH1 0x1 PUSH1 0x1 PUSH1 0xA0 SHL SUB AND CALLER EQ PUSH2 0x146E JUMPI PUSH1 0x0 DUP1 REVERT JUMPDEST DUP6 MLOAD ISZERO PUSH2 0x148A JUMPI DUP6 MLOAD PUSH2 0x1488 SWAP1 PUSH1 0xB SWAP1 PUSH1 0x20 DUP10 ADD SWAP1 PUSH2 0x397D JUMP JUMPDEST POP JUMPDEST DUP5 MLOAD ISZERO PUSH2 0x14A6 JUMPI DUP5 MLOAD PUSH2 0x14A4 SWAP1 PUSH1 0xC SWAP1 PUSH1 0x20 DUP9 ADD SWAP1 PUSH2 0x397D JUMP JUMPDEST POP JUMPDEST DUP4 MLOAD ISZERO PUSH2 0x14C2 JUMPI DUP4 MLOAD PUSH2 0x14C0 SWAP1 PUSH1 0xD SWAP1 PUSH1 0x20 DUP8 ADD SWAP1 PUSH2 0x397D JUMP JUMPDEST POP JUMPDEST DUP3 MLOAD ISZERO PUSH2 0x14DE JUMPI DUP3 MLOAD PUSH2 0x14DC SWAP1 PUSH1 0xF SWAP1 PUSH1 0x20 DUP7 ADD SWAP1 PUSH2 0x397D JUMP JUMPDEST POP JUMPDEST DUP2 MLOAD ISZERO PUSH2 0x14FA JUMPI DUP2 MLOAD PUSH2 0x14F8 SWAP1 PUSH1 0xE SWAP1 PUSH1 0x20 DUP6 ADD SWAP1 PUSH2 0x397D JUMP JUMPDEST POP JUMPDEST DUP1 MLOAD ISZERO PUSH2 0x1516 JUMPI DUP1 MLOAD PUSH2 0x1514 SWAP1 PUSH1 0x10 SWAP1 PUSH1 0x20 DUP5 ADD SWAP1 PUSH2 0x397D JUMP JUMPDEST POP JUMPDEST POP POP POP POP POP POP JUMP JUMPDEST PUSH1 0x60 DUP1 PUSH1 0x60 DUP1 PUSH1 0x60 PUSH1 0x0 DUP1 JUMPDEST PUSH1 0x6 SLOAD DUP2 PUSH1 0xFF AND LT ISZERO PUSH2 0x1557 JUMPI DUP2 PUSH2 0x1541 DUP2 PUSH2 0x41B5 JUMP JUMPDEST SWAP3 POP POP DUP1 DUP1 PUSH2 0x154F SWAP1 PUSH2 0x40E6 JUMP JUMPDEST SWAP2 POP POP PUSH2 0x152A JUMP JUMPDEST POP PUSH1 0x0 DUP2 PUSH1 0x1 PUSH1 0x1 PUSH1 0x40 SHL SUB DUP2 GT ISZERO PUSH2 0x1572 JUMPI PUSH2 0x1572 PUSH2 0x3BEF JUMP JUMPDEST PUSH1 0x40 MLOAD SWAP1 DUP1 DUP3 MSTORE DUP1 PUSH1 0x20 MUL PUSH1 0x20 ADD DUP3 ADD PUSH1 0x40 MSTORE DUP1 ISZERO PUSH2 0x159B JUMPI DUP2 PUSH1 0x20 ADD PUSH1 0x20 DUP3 MUL DUP1 CALLDATASIZE DUP4 CALLDATACOPY ADD SWAP1 POP JUMPDEST POP SWAP1 POP PUSH1 0x0 DUP3 PUSH1 0x1 PUSH1 0x1 PUSH1 0x40 SHL SUB DUP2 GT ISZERO PUSH2 0x15B8 JUMPI PUSH2 0x15B8 PUSH2 0x3BEF JUMP JUMPDEST PUSH1 0x40 MLOAD SWAP1 DUP1 DUP3 MSTORE DUP1 PUSH1 0x20 MUL PUSH1 0x20 ADD DUP3 ADD PUSH1 0x40 MSTORE DUP1 ISZERO PUSH2 0x15E1 JUMPI DUP2 PUSH1 0x20 ADD PUSH1 0x20 DUP3 MUL DUP1 CALLDATASIZE DUP4 CALLDATACOPY ADD SWAP1 POP JUMPDEST POP SWAP1 POP PUSH1 0x0 DUP4 PUSH1 0x1 PUSH1 0x1 PUSH1 0x40 SHL SUB DUP2 GT ISZERO PUSH2 0x15FE JUMPI PUSH2 0x15FE PUSH2 0x3BEF JUMP JUMPDEST PUSH1 0x40 MLOAD SWAP1 DUP1 DUP3 MSTORE DUP1 PUSH1 0x20 MUL PUSH1 0x20 ADD DUP3 ADD PUSH1 0x40 MSTORE DUP1 ISZERO PUSH2 0x1627 JUMPI DUP2 PUSH1 0x20 ADD PUSH1 0x20 DUP3 MUL DUP1 CALLDATASIZE DUP4 CALLDATACOPY ADD SWAP1 POP JUMPDEST POP SWAP1 POP PUSH1 0x0 DUP5 PUSH1 0x1 PUSH1 0x1 PUSH1 0x40 SHL SUB DUP2 GT ISZERO PUSH2 0x1644 JUMPI PUSH2 0x1644 PUSH2 0x3BEF JUMP JUMPDEST PUSH1 0x40 MLOAD SWAP1 DUP1 DUP3 MSTORE DUP1 PUSH1 0x20 MUL PUSH1 0x20 ADD DUP3 ADD PUSH1 0x40 MSTORE DUP1 ISZERO PUSH2 0x166D JUMPI DUP2 PUSH1 0x20 ADD PUSH1 0x20 DUP3 MUL DUP1 CALLDATASIZE DUP4 CALLDATACOPY ADD SWAP1 POP JUMPDEST POP SWAP1 POP PUSH1 0x0 DUP6 PUSH1 0x1 PUSH1 0x1 PUSH1 0x40 SHL SUB DUP2 GT ISZERO PUSH2 0x168A JUMPI PUSH2 0x168A PUSH2 0x3BEF JUMP JUMPDEST PUSH1 0x40 MLOAD SWAP1 DUP1 DUP3 MSTORE DUP1 PUSH1 0x20 MUL PUSH1 0x20 ADD DUP3 ADD PUSH1 0x40 MSTORE DUP1 ISZERO PUSH2 0x16B3 JUMPI DUP2 PUSH1 0x20 ADD PUSH1 0x20 DUP3 MUL DUP1 CALLDATASIZE DUP4 CALLDATACOPY ADD SWAP1 POP JUMPDEST POP SWAP1 POP PUSH1 0x0 SWAP6 POP PUSH1 0x0 JUMPDEST PUSH1 0x6 SLOAD DUP2 PUSH1 0xFF AND LT ISZERO PUSH2 0x182A JUMPI PUSH1 0xFF DUP2 AND PUSH1 0x0 SWAP1 DUP2 MSTORE PUSH1 0x5 PUSH1 0x20 MSTORE PUSH1 0x40 SWAP1 KECCAK256 SLOAD DUP7 MLOAD DUP8 SWAP1 DUP10 SWAP1 DUP2 LT PUSH2 0x16F1 JUMPI PUSH2 0x16F1 PUSH2 0x414D JUMP JUMPDEST PUSH1 0x20 MUL PUSH1 0x20 ADD ADD DUP2 DUP2 MSTORE POP POP PUSH1 0x5 PUSH1 0x0 DUP3 PUSH1 0xFF AND DUP2 MSTORE PUSH1 0x20 ADD SWAP1 DUP2 MSTORE PUSH1 0x20 ADD PUSH1 0x0 KECCAK256 PUSH1 0x1 ADD SLOAD DUP6 DUP9 DUP2 MLOAD DUP2 LT PUSH2 0x1729 JUMPI PUSH2 0x1729 PUSH2 0x414D JUMP JUMPDEST PUSH1 0x20 MUL PUSH1 0x20 ADD ADD DUP2 DUP2 MSTORE POP POP PUSH1 0x5 PUSH1 0x0 DUP3 PUSH1 0xFF AND DUP2 MSTORE PUSH1 0x20 ADD SWAP1 DUP2 MSTORE PUSH1 0x20 ADD PUSH1 0x0 KECCAK256 PUSH1 0x6 ADD SLOAD DUP5 DUP9 DUP2 MLOAD DUP2 LT PUSH2 0x1761 JUMPI PUSH2 0x1761 PUSH2 0x414D JUMP JUMPDEST PUSH1 0x20 MUL PUSH1 0x20 ADD ADD DUP2 DUP2 MSTORE POP POP PUSH1 0x5 PUSH1 0x0 DUP3 PUSH1 0xFF AND DUP2 MSTORE PUSH1 0x20 ADD SWAP1 DUP2 MSTORE PUSH1 0x20 ADD PUSH1 0x0 KECCAK256 PUSH1 0x4 ADD PUSH1 0x0 SWAP1 SLOAD SWAP1 PUSH2 0x100 EXP SWAP1 DIV PUSH1 0x1 PUSH1 0x1 PUSH1 0xA0 SHL SUB AND DUP4 DUP9 DUP2 MLOAD DUP2 LT PUSH2 0x17AC JUMPI PUSH2 0x17AC PUSH2 0x414D JUMP JUMPDEST PUSH1 0x1 PUSH1 0x1 PUSH1 0xA0 SHL SUB SWAP3 DUP4 AND PUSH1 0x20 SWAP2 DUP3 MUL SWAP3 SWAP1 SWAP3 ADD DUP2 ADD SWAP2 SWAP1 SWAP2 MSTORE PUSH1 0xFF DUP4 AND PUSH1 0x0 SWAP1 DUP2 MSTORE PUSH1 0x5 SWAP2 DUP3 SWAP1 MSTORE PUSH1 0x40 SWAP1 KECCAK256 ADD SLOAD DUP4 MLOAD SWAP2 AND SWAP1 DUP4 SWAP1 DUP10 SWAP1 DUP2 LT PUSH2 0x17F2 JUMPI PUSH2 0x17F2 PUSH2 0x414D JUMP JUMPDEST PUSH1 0x1 PUSH1 0x1 PUSH1 0xA0 SHL SUB SWAP1 SWAP3 AND PUSH1 0x20 SWAP3 DUP4 MUL SWAP2 SWAP1 SWAP2 ADD SWAP1 SWAP2 ADD MSTORE DUP7 PUSH2 0x1814 DUP2 PUSH2 0x41B5 JUMP JUMPDEST SWAP8 POP POP DUP1 DUP1 PUSH2 0x1822 SWAP1 PUSH2 0x40E6 JUMP JUMPDEST SWAP2 POP POP PUSH2 0x16BD JUMP JUMPDEST POP SWAP4 SWAP11 SWAP3 SWAP10 POP SWAP1 SWAP8 POP SWAP6 POP SWAP1 SWAP4 POP SWAP2 POP POP JUMP JUMPDEST PUSH1 0x60 DUP1 PUSH1 0x60 DUP1 PUSH1 0x60 DUP1 PUSH1 0x0 DUP1 JUMPDEST PUSH1 0x9 SLOAD DUP2 PUSH1 0xFF AND LT ISZERO PUSH2 0x189D JUMPI PUSH1 0xFF DUP2 AND PUSH1 0x0 SWAP1 DUP2 MSTORE PUSH1 0x7 PUSH1 0x20 MSTORE PUSH1 0x40 SWAP1 KECCAK256 SLOAD PUSH1 0x1 PUSH1 0x1 PUSH1 0xA0 SHL SUB DUP11 DUP2 AND SWAP2 AND EQ ISZERO PUSH2 0x188B JUMPI DUP2 PUSH2 0x1887 DUP2 PUSH2 0x40E6 JUMP JUMPDEST SWAP3 POP POP JUMPDEST DUP1 PUSH2 0x1895 DUP2 PUSH2 0x40E6 JUMP JUMPDEST SWAP2 POP POP PUSH2 0x184A JUMP JUMPDEST POP PUSH1 0x0 DUP2 PUSH1 0xFF AND PUSH1 0x1 PUSH1 0x1 PUSH1 0x40 SHL SUB DUP2 GT ISZERO PUSH2 0x18BB JUMPI PUSH2 0x18BB PUSH2 0x3BEF JUMP JUMPDEST PUSH1 0x40 MLOAD SWAP1 DUP1 DUP3 MSTORE DUP1 PUSH1 0x20 MUL PUSH1 0x20 ADD DUP3 ADD PUSH1 0x40 MSTORE DUP1 ISZERO PUSH2 0x18E4 JUMPI DUP2 PUSH1 0x20 ADD PUSH1 0x20 DUP3 MUL DUP1 CALLDATASIZE DUP4 CALLDATACOPY ADD SWAP1 POP JUMPDEST POP SWAP1 POP PUSH1 0x0 DUP3 PUSH1 0xFF AND PUSH1 0x1 PUSH1 0x1 PUSH1 0x40 SHL SUB DUP2 GT ISZERO PUSH2 0x1904 JUMPI PUSH2 0x1904 PUSH2 0x3BEF JUMP JUMPDEST PUSH1 0x40 MLOAD SWAP1 DUP1 DUP3 MSTORE DUP1 PUSH1 0x20 MUL PUSH1 0x20 ADD DUP3 ADD PUSH1 0x40 MSTORE DUP1 ISZERO PUSH2 0x192D JUMPI DUP2 PUSH1 0x20 ADD PUSH1 0x20 DUP3 MUL DUP1 CALLDATASIZE DUP4 CALLDATACOPY ADD SWAP1 POP JUMPDEST POP SWAP1 POP PUSH1 0x0 DUP4 PUSH1 0xFF AND PUSH1 0x1 PUSH1 0x1 PUSH1 0x40 SHL SUB DUP2 GT ISZERO PUSH2 0x194D JUMPI PUSH2 0x194D PUSH2 0x3BEF JUMP JUMPDEST PUSH1 0x40 MLOAD SWAP1 DUP1 DUP3 MSTORE DUP1 PUSH1 0x20 MUL PUSH1 0x20 ADD DUP3 ADD PUSH1 0x40 MSTORE DUP1 ISZERO PUSH2 0x1976 JUMPI DUP2 PUSH1 0x20 ADD PUSH1 0x20 DUP3 MUL DUP1 CALLDATASIZE DUP4 CALLDATACOPY ADD SWAP1 POP JUMPDEST POP SWAP1 POP PUSH1 0x0 DUP5 PUSH1 0xFF AND PUSH1 0x1 PUSH1 0x1 PUSH1 0x40 SHL SUB DUP2 GT ISZERO PUSH2 0x1996 JUMPI PUSH2 0x1996 PUSH2 0x3BEF JUMP JUMPDEST PUSH1 0x40 MLOAD SWAP1 DUP1 DUP3 MSTORE DUP1 PUSH1 0x20 MUL PUSH1 0x20 ADD DUP3 ADD PUSH1 0x40 MSTORE DUP1 ISZERO PUSH2 0x19BF JUMPI DUP2 PUSH1 0x20 ADD PUSH1 0x20 DUP3 MUL DUP1 CALLDATASIZE DUP4 CALLDATACOPY ADD SWAP1 POP JUMPDEST POP SWAP1 POP PUSH1 0x0 DUP6 PUSH1 0xFF AND PUSH1 0x1 PUSH1 0x1 PUSH1 0x40 SHL SUB DUP2 GT ISZERO PUSH2 0x19DF JUMPI PUSH2 0x19DF PUSH2 0x3BEF JUMP JUMPDEST PUSH1 0x40 MLOAD SWAP1 DUP1 DUP3 MSTORE DUP1 PUSH1 0x20 MUL PUSH1 0x20 ADD DUP3 ADD PUSH1 0x40 MSTORE DUP1 ISZERO PUSH2 0x1A08 JUMPI DUP2 PUSH1 0x20 ADD PUSH1 0x20 DUP3 MUL DUP1 CALLDATASIZE DUP4 CALLDATACOPY ADD SWAP1 POP JUMPDEST POP SWAP1 POP PUSH1 0x0 DUP7 PUSH1 0xFF AND PUSH1 0x1 PUSH1 0x1 PUSH1 0x40 SHL SUB DUP2 GT ISZERO PUSH2 0x1A28 JUMPI PUSH2 0x1A28 PUSH2 0x3BEF JUMP JUMPDEST PUSH1 0x40 MLOAD SWAP1 DUP1 DUP3 MSTORE DUP1 PUSH1 0x20 MUL PUSH1 0x20 ADD DUP3 ADD PUSH1 0x40 MSTORE DUP1 ISZERO PUSH2 0x1A51 JUMPI DUP2 PUSH1 0x20 ADD PUSH1 0x20 DUP3 MUL DUP1 CALLDATASIZE DUP4 CALLDATACOPY ADD SWAP1 POP JUMPDEST POP SWAP1 POP PUSH1 0x0 SWAP7 POP PUSH1 0x0 JUMPDEST PUSH1 0x9 SLOAD DUP2 PUSH1 0xFF AND LT ISZERO PUSH2 0x1C65 JUMPI DUP15 PUSH1 0x1 PUSH1 0x1 PUSH1 0xA0 SHL SUB AND PUSH1 0x7 PUSH1 0x0 DUP4 PUSH1 0xFF AND DUP2 MSTORE PUSH1 0x20 ADD SWAP1 DUP2 MSTORE PUSH1 0x20 ADD PUSH1 0x0 KECCAK256 PUSH1 0x0 ADD PUSH1 0x0 SWAP1 SLOAD SWAP1 PUSH2 0x100 EXP SWAP1 DIV PUSH1 0x1 PUSH1 0x1 PUSH1 0xA0 SHL SUB AND PUSH1 0x1 PUSH1 0x1 PUSH1 0xA0 SHL SUB AND EQ ISZERO PUSH2 0x1C53 JUMPI PUSH1 0xFF DUP1 DUP3 AND PUSH1 0x0 SWAP1 DUP2 MSTORE PUSH1 0x7 PUSH1 0x20 MSTORE PUSH1 0x40 SWAP1 KECCAK256 SLOAD DUP9 MLOAD PUSH1 0x1 PUSH1 0x1 PUSH1 0xA0 SHL SUB SWAP1 SWAP2 AND SWAP2 DUP10 SWAP2 SWAP1 DUP12 AND SWAP1 DUP2 LT PUSH2 0x1AE4 JUMPI PUSH2 0x1AE4 PUSH2 0x414D JUMP JUMPDEST PUSH1 0x20 MUL PUSH1 0x20 ADD ADD SWAP1 PUSH1 0x1 PUSH1 0x1 PUSH1 0xA0 SHL SUB AND SWAP1 DUP2 PUSH1 0x1 PUSH1 0x1 PUSH1 0xA0 SHL SUB AND DUP2 MSTORE POP POP PUSH1 0x7 PUSH1 0x0 DUP3 PUSH1 0xFF AND DUP2 MSTORE PUSH1 0x20 ADD SWAP1 DUP2 MSTORE PUSH1 0x20 ADD PUSH1 0x0 KECCAK256 PUSH1 0x1 ADD SLOAD DUP7 DUP10 PUSH1 0xFF AND DUP2 MLOAD DUP2 LT PUSH2 0x1B33 JUMPI PUSH2 0x1B33 PUSH2 0x414D JUMP JUMPDEST PUSH1 0x20 MUL PUSH1 0x20 ADD ADD DUP2 DUP2 MSTORE POP POP PUSH1 0x7 PUSH1 0x0 DUP3 PUSH1 0xFF AND DUP2 MSTORE PUSH1 0x20 ADD SWAP1 DUP2 MSTORE PUSH1 0x20 ADD PUSH1 0x0 KECCAK256 PUSH1 0x2 ADD SLOAD DUP6 DUP10 PUSH1 0xFF AND DUP2 MLOAD DUP2 LT PUSH2 0x1B6E JUMPI PUSH2 0x1B6E PUSH2 0x414D JUMP JUMPDEST PUSH1 0x20 MUL PUSH1 0x20 ADD ADD DUP2 DUP2 MSTORE POP POP PUSH1 0x7 PUSH1 0x0 DUP3 PUSH1 0xFF AND DUP2 MSTORE PUSH1 0x20 ADD SWAP1 DUP2 MSTORE PUSH1 0x20 ADD PUSH1 0x0 KECCAK256 PUSH1 0x3 ADD SLOAD DUP5 DUP10 PUSH1 0xFF AND DUP2 MLOAD DUP2 LT PUSH2 0x1BA9 JUMPI PUSH2 0x1BA9 PUSH2 0x414D JUMP JUMPDEST PUSH1 0x20 MUL PUSH1 0x20 ADD ADD DUP2 DUP2 MSTORE POP POP DUP1 PUSH1 0xFF AND DUP4 DUP10 PUSH1 0xFF AND DUP2 MLOAD DUP2 LT PUSH2 0x1BCE JUMPI PUSH2 0x1BCE PUSH2 0x414D JUMP JUMPDEST PUSH1 0x20 MUL PUSH1 0x20 ADD ADD DUP2 DUP2 MSTORE POP POP PUSH1 0x7 PUSH1 0x0 DUP3 PUSH1 0xFF AND DUP2 MSTORE PUSH1 0x20 ADD SWAP1 DUP2 MSTORE PUSH1 0x20 ADD PUSH1 0x0 KECCAK256 PUSH1 0x4 ADD PUSH1 0x0 SWAP1 SLOAD SWAP1 PUSH2 0x100 EXP SWAP1 DIV PUSH1 0xFF AND DUP3 DUP10 PUSH1 0xFF AND DUP2 MLOAD DUP2 LT PUSH2 0x1C16 JUMPI PUSH2 0x1C16 PUSH2 0x414D JUMP JUMPDEST PUSH1 0x20 MUL PUSH1 0x20 ADD ADD SWAP1 PUSH1 0x2 DUP2 GT ISZERO PUSH2 0x1C2F JUMPI PUSH2 0x1C2F PUSH2 0x3BA4 JUMP JUMPDEST SWAP1 DUP2 PUSH1 0x2 DUP2 GT ISZERO PUSH2 0x1C42 JUMPI PUSH2 0x1C42 PUSH2 0x3BA4 JUMP JUMPDEST SWAP1 MSTORE POP DUP8 PUSH2 0x1C4F DUP2 PUSH2 0x40E6 JUMP JUMPDEST SWAP9 POP POP JUMPDEST DUP1 PUSH2 0x1C5D DUP2 PUSH2 0x40E6 JUMP JUMPDEST SWAP2 POP POP PUSH2 0x1A5B JUMP JUMPDEST POP SWAP5 SWAP14 SWAP4 SWAP13 POP SWAP2 SWAP11 POP SWAP9 POP SWAP2 SWAP7 POP SWAP1 SWAP5 POP SWAP3 POP POP POP JUMP JUMPDEST PUSH1 0x60 PUSH1 0x4 DUP1 SLOAD PUSH2 0x6D7 SWAP1 PUSH2 0x4083 JUMP JUMPDEST PUSH1 0x40 MLOAD PUSH4 0x70A08231 PUSH1 0xE0 SHL DUP2 MSTORE ADDRESS PUSH1 0x4 DUP3 ADD DUP2 SWAP1 MSTORE PUSH1 0x0 SWAP2 PUSH4 0x70A08231 SWAP1 PUSH1 0x24 ADD PUSH1 0x20 PUSH1 0x40 MLOAD DUP1 DUP4 SUB DUP2 DUP7 GAS STATICCALL ISZERO DUP1 ISZERO PUSH2 0x1CC9 JUMPI RETURNDATASIZE PUSH1 0x0 DUP1 RETURNDATACOPY RETURNDATASIZE PUSH1 0x0 REVERT JUMPDEST POP POP POP POP PUSH1 0x40 MLOAD RETURNDATASIZE PUSH1 0x1F NOT PUSH1 0x1F DUP3 ADD AND DUP3 ADD DUP1 PUSH1 0x40 MSTORE POP DUP2 ADD SWAP1 PUSH2 0x1CED SWAP2 SWAP1 PUSH2 0x4163 JUMP JUMPDEST SWAP1 POP SWAP1 JUMP JUMPDEST PUSH1 0x60 PUSH1 0x14 DUP1 SLOAD DUP1 PUSH1 0x20 MUL PUSH1 0x20 ADD PUSH1 0x40 MLOAD SWAP1 DUP2 ADD PUSH1 0x40 MSTORE DUP1 SWAP3 SWAP2 SWAP1 DUP2 DUP2 MSTORE PUSH1 0x20 ADD DUP3 DUP1 SLOAD DUP1 ISZERO PUSH2 0x750 JUMPI PUSH1 0x20 MUL DUP3 ADD SWAP2 SWAP1 PUSH1 0x0 MSTORE PUSH1 0x20 PUSH1 0x0 KECCAK256 SWAP1 JUMPDEST DUP2 SLOAD PUSH1 0x1 PUSH1 0x1 PUSH1 0xA0 SHL SUB AND DUP2 MSTORE PUSH1 0x1 SWAP1 SWAP2 ADD SWAP1 PUSH1 0x20 ADD DUP1 DUP4 GT PUSH2 0x1D2C JUMPI POP POP POP POP POP SWAP1 POP SWAP1 JUMP JUMPDEST PUSH1 0x0 DUP1 DUP4 GT PUSH2 0x1D74 JUMPI PUSH1 0x40 MLOAD PUSH3 0x461BCD PUSH1 0xE5 SHL DUP2 MSTORE PUSH1 0x4 ADD PUSH2 0x81E SWAP1 PUSH2 0x41D0 JUMP JUMPDEST PUSH1 0x0 DUP3 GT PUSH2 0x1D94 JUMPI PUSH1 0x40 MLOAD PUSH3 0x461BCD PUSH1 0xE5 SHL DUP2 MSTORE PUSH1 0x4 ADD PUSH2 0x81E SWAP1 PUSH2 0x41D0 JUMP JUMPDEST PUSH1 0x40 MLOAD PUSH4 0x23B872DD PUSH1 0xE0 SHL DUP2 MSTORE CALLER PUSH1 0x4 DUP3 ADD MSTORE ADDRESS PUSH1 0x24 DUP3 ADD DUP2 SWAP1 MSTORE PUSH1 0x44 DUP3 ADD DUP6 SWAP1 MSTORE SWAP1 PUSH4 0x23B872DD SWAP1 PUSH1 0x64 ADD PUSH1 0x20 PUSH1 0x40 MLOAD DUP1 DUP4 SUB DUP2 PUSH1 0x0 DUP8 GAS CALL ISZERO DUP1 ISZERO PUSH2 0x1DDF JUMPI RETURNDATASIZE PUSH1 0x0 DUP1 RETURNDATACOPY RETURNDATASIZE PUSH1 0x0 REVERT JUMPDEST POP POP POP POP PUSH1 0x40 MLOAD RETURNDATASIZE PUSH1 0x1F NOT PUSH1 0x1F DUP3 ADD AND DUP3 ADD DUP1 PUSH1 0x40 MSTORE POP DUP2 ADD SWAP1 PUSH2 0x1E03 SWAP2 SWAP1 PUSH2 0x4106 JUMP JUMPDEST POP PUSH1 0x40 DUP1 MLOAD PUSH1 0xA0 DUP2 ADD DUP3 MSTORE CALLER DUP2 MSTORE PUSH1 0x20 DUP1 DUP3 ADD DUP7 DUP2 MSTORE DUP3 DUP5 ADD DUP7 DUP2 MSTORE PUSH1 0x60 DUP5 ADD DUP9 DUP2 MSTORE PUSH1 0x0 PUSH1 0x80 DUP7 ADD DUP2 DUP2 MSTORE PUSH1 0xA SLOAD DUP3 MSTORE PUSH1 0x8 SWAP1 SWAP6 MSTORE SWAP6 SWAP1 SWAP6 KECCAK256 DUP5 MLOAD DUP2 SLOAD PUSH1 0x1 PUSH1 0x1 PUSH1 0xA0 SHL SUB NOT AND PUSH1 0x1 PUSH1 0x1 PUSH1 0xA0 SHL SUB SWAP1 SWAP2 AND OR DUP2 SSTORE SWAP2 MLOAD PUSH1 0x1 DUP1 DUP5 ADD SWAP2 SWAP1 SWAP2 SSTORE SWAP1 MLOAD PUSH1 0x2 DUP1 DUP5 ADD SWAP2 SWAP1 SWAP2 SSTORE SWAP5 MLOAD PUSH1 0x3 DUP4 ADD SSTORE SWAP2 MLOAD PUSH1 0x4 DUP3 ADD DUP1 SLOAD SWAP5 SWAP6 SWAP3 SWAP5 SWAP2 SWAP4 SWAP1 SWAP3 PUSH1 0xFF NOT SWAP1 SWAP3 AND SWAP2 DUP5 SWAP1 DUP2 GT ISZERO PUSH2 0x1E9E JUMPI PUSH2 0x1E9E PUSH2 0x3BA4 JUMP JUMPDEST MUL OR SWAP1 SSTORE POP SWAP1 POP POP PUSH2 0x1EB1 PUSH1 0xA SLOAD PUSH2 0x3140 JUMP JUMPDEST PUSH1 0x1 PUSH1 0xA PUSH1 0x0 DUP3 DUP3 SLOAD PUSH2 0x1EC4 SWAP2 SWAP1 PUSH2 0x40CE JUMP JUMPDEST SWAP1 SWAP2 SSTORE POP POP PUSH1 0xA SLOAD PUSH2 0x1123 SWAP1 PUSH1 0x1 SWAP1 PUSH2 0x417C JUMP JUMPDEST CALLER PUSH1 0x0 SWAP1 DUP2 MSTORE PUSH1 0x1 PUSH1 0x20 SWAP1 DUP2 MSTORE PUSH1 0x40 DUP1 DUP4 KECCAK256 PUSH1 0x1 PUSH1 0x1 PUSH1 0xA0 SHL SUB DUP7 AND DUP5 MSTORE SWAP1 SWAP2 MSTORE DUP2 KECCAK256 SLOAD DUP3 DUP2 LT ISZERO PUSH2 0x1F5A JUMPI PUSH1 0x40 MLOAD PUSH3 0x461BCD PUSH1 0xE5 SHL DUP2 MSTORE PUSH1 0x20 PUSH1 0x4 DUP3 ADD MSTORE PUSH1 0x25 PUSH1 0x24 DUP3 ADD MSTORE PUSH32 0x45524332303A2064656372656173656420616C6C6F77616E63652062656C6F77 PUSH1 0x44 DUP3 ADD MSTORE PUSH5 0x207A65726F PUSH1 0xD8 SHL PUSH1 0x64 DUP3 ADD MSTORE PUSH1 0x84 ADD PUSH2 0x81E JUMP JUMPDEST PUSH2 0x1F67 CALLER DUP6 DUP6 DUP5 SUB PUSH2 0x2E4D JUMP JUMPDEST POP PUSH1 0x1 SWAP4 SWAP3 POP POP POP JUMP JUMPDEST PUSH1 0x0 PUSH2 0x767 CALLER DUP5 DUP5 PUSH2 0x2F71 JUMP JUMPDEST PUSH1 0x60 DUP1 PUSH1 0x60 DUP1 PUSH1 0x60 DUP1 PUSH1 0x0 DUP1 JUMPDEST PUSH1 0xA SLOAD DUP2 PUSH1 0xFF AND LT ISZERO PUSH2 0x1FDE JUMPI PUSH1 0xFF DUP2 AND PUSH1 0x0 SWAP1 DUP2 MSTORE PUSH1 0x8 PUSH1 0x20 MSTORE PUSH1 0x40 SWAP1 KECCAK256 SLOAD PUSH1 0x1 PUSH1 0x1 PUSH1 0xA0 SHL SUB DUP11 DUP2 AND SWAP2 AND EQ ISZERO PUSH2 0x1FCC JUMPI DUP2 PUSH2 0x1FC8 DUP2 PUSH2 0x40E6 JUMP JUMPDEST SWAP3 POP POP JUMPDEST DUP1 PUSH2 0x1FD6 DUP2 PUSH2 0x40E6 JUMP JUMPDEST SWAP2 POP POP PUSH2 0x1F8B JUMP JUMPDEST POP PUSH1 0x0 DUP2 PUSH1 0xFF AND PUSH1 0x1 PUSH1 0x1 PUSH1 0x40 SHL SUB DUP2 GT ISZERO PUSH2 0x1FFC JUMPI PUSH2 0x1FFC PUSH2 0x3BEF JUMP JUMPDEST PUSH1 0x40 MLOAD SWAP1 DUP1 DUP3 MSTORE DUP1 PUSH1 0x20 MUL PUSH1 0x20 ADD DUP3 ADD PUSH1 0x40 MSTORE DUP1 ISZERO PUSH2 0x2025 JUMPI DUP2 PUSH1 0x20 ADD PUSH1 0x20 DUP3 MUL DUP1 CALLDATASIZE DUP4 CALLDATACOPY ADD SWAP1 POP JUMPDEST POP SWAP1 POP PUSH1 0x0 DUP3 PUSH1 0xFF AND PUSH1 0x1 PUSH1 0x1 PUSH1 0x40 SHL SUB DUP2 GT ISZERO PUSH2 0x2045 JUMPI PUSH2 0x2045 PUSH2 0x3BEF JUMP JUMPDEST PUSH1 0x40 MLOAD SWAP1 DUP1 DUP3 MSTORE DUP1 PUSH1 0x20 MUL PUSH1 0x20 ADD DUP3 ADD PUSH1 0x40 MSTORE DUP1 ISZERO PUSH2 0x206E JUMPI DUP2 PUSH1 0x20 ADD PUSH1 0x20 DUP3 MUL DUP1 CALLDATASIZE DUP4 CALLDATACOPY ADD SWAP1 POP JUMPDEST POP SWAP1 POP PUSH1 0x0 DUP4 PUSH1 0xFF AND PUSH1 0x1 PUSH1 0x1 PUSH1 0x40 SHL SUB DUP2 GT ISZERO PUSH2 0x208E JUMPI PUSH2 0x208E PUSH2 0x3BEF JUMP JUMPDEST PUSH1 0x40 MLOAD SWAP1 DUP1 DUP3 MSTORE DUP1 PUSH1 0x20 MUL PUSH1 0x20 ADD DUP3 ADD PUSH1 0x40 MSTORE DUP1 ISZERO PUSH2 0x20B7 JUMPI DUP2 PUSH1 0x20 ADD PUSH1 0x20 DUP3 MUL DUP1 CALLDATASIZE DUP4 CALLDATACOPY ADD SWAP1 POP JUMPDEST POP SWAP1 POP PUSH1 0x0 DUP5 PUSH1 0xFF AND PUSH1 0x1 PUSH1 0x1 PUSH1 0x40 SHL SUB DUP2 GT ISZERO PUSH2 0x20D7 JUMPI PUSH2 0x20D7 PUSH2 0x3BEF JUMP JUMPDEST PUSH1 0x40 MLOAD SWAP1 DUP1 DUP3 MSTORE DUP1 PUSH1 0x20 MUL PUSH1 0x20 ADD DUP3 ADD PUSH1 0x40 MSTORE DUP1 ISZERO PUSH2 0x2100 JUMPI DUP2 PUSH1 0x20 ADD PUSH1 0x20 DUP3 MUL DUP1 CALLDATASIZE DUP4 CALLDATACOPY ADD SWAP1 POP JUMPDEST POP SWAP1 POP PUSH1 0x0 DUP6 PUSH1 0xFF AND PUSH1 0x1 PUSH1 0x1 PUSH1 0x40 SHL SUB DUP2 GT ISZERO PUSH2 0x2120 JUMPI PUSH2 0x2120 PUSH2 0x3BEF JUMP JUMPDEST PUSH1 0x40 MLOAD SWAP1 DUP1 DUP3 MSTORE DUP1 PUSH1 0x20 MUL PUSH1 0x20 ADD DUP3 ADD PUSH1 0x40 MSTORE DUP1 ISZERO PUSH2 0x2149 JUMPI DUP2 PUSH1 0x20 ADD PUSH1 0x20 DUP3 MUL DUP1 CALLDATASIZE DUP4 CALLDATACOPY ADD SWAP1 POP JUMPDEST POP SWAP1 POP PUSH1 0x0 DUP7 PUSH1 0xFF AND PUSH1 0x1 PUSH1 0x1 PUSH1 0x40 SHL SUB DUP2 GT ISZERO PUSH2 0x2169 JUMPI PUSH2 0x2169 PUSH2 0x3BEF JUMP JUMPDEST PUSH1 0x40 MLOAD SWAP1 DUP1 DUP3 MSTORE DUP1 PUSH1 0x20 MUL PUSH1 0x20 ADD DUP3 ADD PUSH1 0x40 MSTORE DUP1 ISZERO PUSH2 0x2192 JUMPI DUP2 PUSH1 0x20 ADD PUSH1 0x20 DUP3 MUL DUP1 CALLDATASIZE DUP4 CALLDATACOPY ADD SWAP1 POP JUMPDEST POP SWAP1 POP PUSH1 0x0 SWAP7 POP PUSH1 0x0 JUMPDEST PUSH1 0xA SLOAD DUP2 PUSH1 0xFF AND LT ISZERO PUSH2 0x1C65 JUMPI DUP15 PUSH1 0x1 PUSH1 0x1 PUSH1 0xA0 SHL SUB AND PUSH1 0x8 PUSH1 0x0 DUP4 PUSH1 0xFF AND DUP2 MSTORE PUSH1 0x20 ADD SWAP1 DUP2 MSTORE PUSH1 0x20 ADD PUSH1 0x0 KECCAK256 PUSH1 0x0 ADD PUSH1 0x0 SWAP1 SLOAD SWAP1 PUSH2 0x100 EXP SWAP1 DIV PUSH1 0x1 PUSH1 0x1 PUSH1 0xA0 SHL SUB AND PUSH1 0x1 PUSH1 0x1 PUSH1 0xA0 SHL SUB AND EQ ISZERO PUSH2 0x2394 JUMPI PUSH1 0xFF DUP1 DUP3 AND PUSH1 0x0 SWAP1 DUP2 MSTORE PUSH1 0x8 PUSH1 0x20 MSTORE PUSH1 0x40 SWAP1 KECCAK256 SLOAD DUP9 MLOAD PUSH1 0x1 PUSH1 0x1 PUSH1 0xA0 SHL SUB SWAP1 SWAP2 AND SWAP2 DUP10 SWAP2 SWAP1 DUP12 AND SWAP1 DUP2 LT PUSH2 0x2225 JUMPI PUSH2 0x2225 PUSH2 0x414D JUMP JUMPDEST PUSH1 0x20 MUL PUSH1 0x20 ADD ADD SWAP1 PUSH1 0x1 PUSH1 0x1 PUSH1 0xA0 SHL SUB AND SWAP1 DUP2 PUSH1 0x1 PUSH1 0x1 PUSH1 0xA0 SHL SUB AND DUP2 MSTORE POP POP PUSH1 0x8 PUSH1 0x0 DUP3 PUSH1 0xFF AND DUP2 MSTORE PUSH1 0x20 ADD SWAP1 DUP2 MSTORE PUSH1 0x20 ADD PUSH1 0x0 KECCAK256 PUSH1 0x1 ADD SLOAD DUP7 DUP10 PUSH1 0xFF AND DUP2 MLOAD DUP2 LT PUSH2 0x2274 JUMPI PUSH2 0x2274 PUSH2 0x414D JUMP JUMPDEST PUSH1 0x20 MUL PUSH1 0x20 ADD ADD DUP2 DUP2 MSTORE POP POP PUSH1 0x8 PUSH1 0x0 DUP3 PUSH1 0xFF AND DUP2 MSTORE PUSH1 0x20 ADD SWAP1 DUP2 MSTORE PUSH1 0x20 ADD PUSH1 0x0 KECCAK256 PUSH1 0x2 ADD SLOAD DUP6 DUP10 PUSH1 0xFF AND DUP2 MLOAD DUP2 LT PUSH2 0x22AF JUMPI PUSH2 0x22AF PUSH2 0x414D JUMP JUMPDEST PUSH1 0x20 MUL PUSH1 0x20 ADD ADD DUP2 DUP2 MSTORE POP POP PUSH1 0x8 PUSH1 0x0 DUP3 PUSH1 0xFF AND DUP2 MSTORE PUSH1 0x20 ADD SWAP1 DUP2 MSTORE PUSH1 0x20 ADD PUSH1 0x0 KECCAK256 PUSH1 0x3 ADD SLOAD DUP5 DUP10 PUSH1 0xFF AND DUP2 MLOAD DUP2 LT PUSH2 0x22EA JUMPI PUSH2 0x22EA PUSH2 0x414D JUMP JUMPDEST PUSH1 0x20 MUL PUSH1 0x20 ADD ADD DUP2 DUP2 MSTORE POP POP PUSH1 0x8 PUSH1 0x0 DUP3 PUSH1 0xFF AND DUP2 MSTORE PUSH1 0x20 ADD SWAP1 DUP2 MSTORE PUSH1 0x20 ADD PUSH1 0x0 KECCAK256 PUSH1 0x4 ADD PUSH1 0x0 SWAP1 SLOAD SWAP1 PUSH2 0x100 EXP SWAP1 DIV PUSH1 0xFF AND DUP3 DUP10 PUSH1 0xFF AND DUP2 MLOAD DUP2 LT PUSH2 0x2332 JUMPI PUSH2 0x2332 PUSH2 0x414D JUMP JUMPDEST PUSH1 0x20 MUL PUSH1 0x20 ADD ADD SWAP1 PUSH1 0x2 DUP2 GT ISZERO PUSH2 0x234B JUMPI PUSH2 0x234B PUSH2 0x3BA4 JUMP JUMPDEST SWAP1 DUP2 PUSH1 0x2 DUP2 GT ISZERO PUSH2 0x235E JUMPI PUSH2 0x235E PUSH2 0x3BA4 JUMP JUMPDEST DUP2 MSTORE POP POP DUP1 PUSH1 0xFF AND DUP4 DUP10 PUSH1 0xFF AND DUP2 MLOAD DUP2 LT PUSH2 0x237B JUMPI PUSH2 0x237B PUSH2 0x414D JUMP JUMPDEST PUSH1 0x20 SWAP1 DUP2 MUL SWAP2 SWAP1 SWAP2 ADD ADD MSTORE DUP8 PUSH2 0x2390 DUP2 PUSH2 0x40E6 JUMP JUMPDEST SWAP9 POP POP JUMPDEST DUP1 PUSH2 0x239E DUP2 PUSH2 0x40E6 JUMP JUMPDEST SWAP2 POP POP PUSH2 0x219C JUMP JUMPDEST PUSH1 0x0 DUP1 PUSH1 0x0 PUSH2 0x23B3 PUSH2 0x151E JUMP JUMPDEST POP POP POP SWAP2 POP SWAP2 POP PUSH1 0x0 DUP1 DUP4 MLOAD GT ISZERO PUSH2 0x242A JUMPI PUSH1 0x11 SLOAD DUP3 PUSH1 0x1 DUP5 MLOAD PUSH2 0x23D7 SWAP2 SWAP1 PUSH2 0x417C JUMP JUMPDEST DUP2 MLOAD DUP2 LT PUSH2 0x23E7 JUMPI PUSH2 0x23E7 PUSH2 0x414D JUMP JUMPDEST PUSH1 0x20 MUL PUSH1 0x20 ADD ADD MLOAD DUP5 PUSH1 0x1 DUP7 MLOAD PUSH2 0x23FE SWAP2 SWAP1 PUSH2 0x417C JUMP JUMPDEST DUP2 MLOAD DUP2 LT PUSH2 0x240E JUMPI PUSH2 0x240E PUSH2 0x414D JUMP JUMPDEST PUSH1 0x20 MUL PUSH1 0x20 ADD ADD MLOAD PUSH2 0x2420 SWAP2 SWAP1 PUSH2 0x4193 JUMP JUMPDEST PUSH2 0x1109 SWAP2 SWAP1 PUSH2 0x4207 JUMP JUMPDEST POP PUSH1 0x12 SLOAD SWAP4 SWAP3 POP POP POP JUMP JUMPDEST PUSH1 0x0 DUP2 DUP2 MSTORE PUSH1 0x7 PUSH1 0x20 MSTORE PUSH1 0x40 SWAP1 KECCAK256 SLOAD PUSH1 0x1 PUSH1 0x1 PUSH1 0xA0 SHL SUB AND CALLER EQ PUSH2 0x249B JUMPI PUSH1 0x40 MLOAD PUSH3 0x461BCD PUSH1 0xE5 SHL DUP2 MSTORE PUSH1 0x20 PUSH1 0x4 DUP3 ADD MSTORE PUSH1 0x1D PUSH1 0x24 DUP3 ADD MSTORE PUSH32 0x6D73672E73656E646572206973206E6F74206F72646572206F776E6572000000 PUSH1 0x44 DUP3 ADD MSTORE PUSH1 0x64 ADD PUSH2 0x81E JUMP JUMPDEST PUSH1 0x0 DUP2 DUP2 MSTORE PUSH1 0x7 PUSH1 0x20 MSTORE PUSH1 0x40 DUP2 KECCAK256 PUSH1 0x4 ADD SLOAD PUSH1 0xFF AND PUSH1 0x2 DUP2 GT ISZERO PUSH2 0x24C1 JUMPI PUSH2 0x24C1 PUSH2 0x3BA4 JUMP JUMPDEST EQ PUSH2 0x2502 JUMPI PUSH1 0x40 MLOAD PUSH3 0x461BCD PUSH1 0xE5 SHL DUP2 MSTORE PUSH1 0x20 PUSH1 0x4 DUP3 ADD MSTORE PUSH1 0x11 PUSH1 0x24 DUP3 ADD MSTORE PUSH17 0x37B93232B91034B9903737BA1037B832B7 PUSH1 0x79 SHL PUSH1 0x44 DUP3 ADD MSTORE PUSH1 0x64 ADD PUSH2 0x81E JUMP JUMPDEST PUSH1 0x0 DUP2 DUP2 MSTORE PUSH1 0x7 PUSH1 0x20 MSTORE PUSH1 0x40 DUP1 DUP3 KECCAK256 PUSH1 0x3 ADD SLOAD SWAP1 MLOAD CALLER SWAP3 DUP4 SWAP3 DUP1 ISZERO PUSH2 0x8FC MUL SWAP3 SWAP1 SWAP2 DUP2 DUP2 DUP2 DUP6 DUP9 DUP9 CALL SWAP4 POP POP POP POP ISZERO DUP1 ISZERO PUSH2 0x2541 JUMPI RETURNDATASIZE PUSH1 0x0 DUP1 RETURNDATACOPY RETURNDATASIZE PUSH1 0x0 REVERT JUMPDEST POP PUSH1 0x0 DUP3 DUP2 MSTORE PUSH1 0x7 PUSH1 0x20 MSTORE PUSH1 0x40 DUP2 KECCAK256 PUSH1 0x3 DUP2 ADD SWAP2 SWAP1 SWAP2 SSTORE PUSH1 0x4 ADD DUP1 SLOAD PUSH1 0x2 SWAP2 SWAP1 PUSH1 0xFF NOT AND PUSH1 0x1 DUP4 PUSH2 0xE6E JUMP JUMPDEST PUSH2 0x25A6 PUSH1 0x40 MLOAD DUP1 PUSH1 0xC0 ADD PUSH1 0x40 MSTORE DUP1 PUSH1 0x60 DUP2 MSTORE PUSH1 0x20 ADD PUSH1 0x60 DUP2 MSTORE PUSH1 0x20 ADD PUSH1 0x60 DUP2 MSTORE PUSH1 0x20 ADD PUSH1 0x60 DUP2 MSTORE PUSH1 0x20 ADD PUSH1 0x60 DUP2 MSTORE PUSH1 0x20 ADD PUSH1 0x60 DUP2 MSTORE POP SWAP1 JUMP JUMPDEST PUSH1 0xB PUSH1 0x40 MLOAD DUP1 PUSH1 0xC0 ADD PUSH1 0x40 MSTORE SWAP1 DUP2 PUSH1 0x0 DUP3 ADD DUP1 SLOAD PUSH2 0x25C3 SWAP1 PUSH2 0x4083 JUMP JUMPDEST DUP1 PUSH1 0x1F ADD PUSH1 0x20 DUP1 SWAP2 DIV MUL PUSH1 0x20 ADD PUSH1 0x40 MLOAD SWAP1 DUP2 ADD PUSH1 0x40 MSTORE DUP1 SWAP3 SWAP2 SWAP1 DUP2 DUP2 MSTORE PUSH1 0x20 ADD DUP3 DUP1 SLOAD PUSH2 0x25EF SWAP1 PUSH2 0x4083 JUMP JUMPDEST DUP1 ISZERO PUSH2 0x263C JUMPI DUP1 PUSH1 0x1F LT PUSH2 0x2611 JUMPI PUSH2 0x100 DUP1 DUP4 SLOAD DIV MUL DUP4 MSTORE SWAP2 PUSH1 0x20 ADD SWAP2 PUSH2 0x263C JUMP JUMPDEST DUP3 ADD SWAP2 SWAP1 PUSH1 0x0 MSTORE PUSH1 0x20 PUSH1 0x0 KECCAK256 SWAP1 JUMPDEST DUP2 SLOAD DUP2 MSTORE SWAP1 PUSH1 0x1 ADD SWAP1 PUSH1 0x20 ADD DUP1 DUP4 GT PUSH2 0x261F JUMPI DUP3 SWAP1 SUB PUSH1 0x1F AND DUP3 ADD SWAP2 JUMPDEST POP POP POP POP POP DUP2 MSTORE PUSH1 0x20 ADD PUSH1 0x1 DUP3 ADD DUP1 SLOAD PUSH2 0x2655 SWAP1 PUSH2 0x4083 JUMP JUMPDEST DUP1 PUSH1 0x1F ADD PUSH1 0x20 DUP1 SWAP2 DIV MUL PUSH1 0x20 ADD PUSH1 0x40 MLOAD SWAP1 DUP2 ADD PUSH1 0x40 MSTORE DUP1 SWAP3 SWAP2 SWAP1 DUP2 DUP2 MSTORE PUSH1 0x20 ADD DUP3 DUP1 SLOAD PUSH2 0x2681 SWAP1 PUSH2 0x4083 JUMP JUMPDEST DUP1 ISZERO PUSH2 0x26CE JUMPI DUP1 PUSH1 0x1F LT PUSH2 0x26A3 JUMPI PUSH2 0x100 DUP1 DUP4 SLOAD DIV MUL DUP4 MSTORE SWAP2 PUSH1 0x20 ADD SWAP2 PUSH2 0x26CE JUMP JUMPDEST DUP3 ADD SWAP2 SWAP1 PUSH1 0x0 MSTORE PUSH1 0x20 PUSH1 0x0 KECCAK256 SWAP1 JUMPDEST DUP2 SLOAD DUP2 MSTORE SWAP1 PUSH1 0x1 ADD SWAP1 PUSH1 0x20 ADD DUP1 DUP4 GT PUSH2 0x26B1 JUMPI DUP3 SWAP1 SUB PUSH1 0x1F AND DUP3 ADD SWAP2 JUMPDEST POP POP POP POP POP DUP2 MSTORE PUSH1 0x20 ADD PUSH1 0x2 DUP3 ADD DUP1 SLOAD PUSH2 0x26E7 SWAP1 PUSH2 0x4083 JUMP JUMPDEST DUP1 PUSH1 0x1F ADD PUSH1 0x20 DUP1 SWAP2 DIV MUL PUSH1 0x20 ADD PUSH1 0x40 MLOAD SWAP1 DUP2 ADD PUSH1 0x40 MSTORE DUP1 SWAP3 SWAP2 SWAP1 DUP2 DUP2 MSTORE PUSH1 0x20 ADD DUP3 DUP1 SLOAD PUSH2 0x2713 SWAP1 PUSH2 0x4083 JUMP JUMPDEST DUP1 ISZERO PUSH2 0x2760 JUMPI DUP1 PUSH1 0x1F LT PUSH2 0x2735 JUMPI PUSH2 0x100 DUP1 DUP4 SLOAD DIV MUL DUP4 MSTORE SWAP2 PUSH1 0x20 ADD SWAP2 PUSH2 0x2760 JUMP JUMPDEST DUP3 ADD SWAP2 SWAP1 PUSH1 0x0 MSTORE PUSH1 0x20 PUSH1 0x0 KECCAK256 SWAP1 JUMPDEST DUP2 SLOAD DUP2 MSTORE SWAP1 PUSH1 0x1 ADD SWAP1 PUSH1 0x20 ADD DUP1 DUP4 GT PUSH2 0x2743 JUMPI DUP3 SWAP1 SUB PUSH1 0x1F AND DUP3 ADD SWAP2 JUMPDEST POP POP POP POP POP DUP2 MSTORE PUSH1 0x20 ADD PUSH1 0x3 DUP3 ADD DUP1 SLOAD PUSH2 0x2779 SWAP1 PUSH2 0x4083 JUMP JUMPDEST DUP1 PUSH1 0x1F ADD PUSH1 0x20 DUP1 SWAP2 DIV MUL PUSH1 0x20 ADD PUSH1 0x40 MLOAD SWAP1 DUP2 ADD PUSH1 0x40 MSTORE DUP1 SWAP3 SWAP2 SWAP1 DUP2 DUP2 MSTORE PUSH1 0x20 ADD DUP3 DUP1 SLOAD PUSH2 0x27A5 SWAP1 PUSH2 0x4083 JUMP JUMPDEST DUP1 ISZERO PUSH2 0x27F2 JUMPI DUP1 PUSH1 0x1F LT PUSH2 0x27C7 JUMPI PUSH2 0x100 DUP1 DUP4 SLOAD DIV MUL DUP4 MSTORE SWAP2 PUSH1 0x20 ADD SWAP2 PUSH2 0x27F2 JUMP JUMPDEST DUP3 ADD SWAP2 SWAP1 PUSH1 0x0 MSTORE PUSH1 0x20 PUSH1 0x0 KECCAK256 SWAP1 JUMPDEST DUP2 SLOAD DUP2 MSTORE SWAP1 PUSH1 0x1 ADD SWAP1 PUSH1 0x20 ADD DUP1 DUP4 GT PUSH2 0x27D5 JUMPI DUP3 SWAP1 SUB PUSH1 0x1F AND DUP3 ADD SWAP2 JUMPDEST POP POP POP POP POP DUP2 MSTORE PUSH1 0x20 ADD PUSH1 0x4 DUP3 ADD DUP1 SLOAD PUSH2 0x280B SWAP1 PUSH2 0x4083 JUMP JUMPDEST DUP1 PUSH1 0x1F ADD PUSH1 0x20 DUP1 SWAP2 DIV MUL PUSH1 0x20 ADD PUSH1 0x40 MLOAD SWAP1 DUP2 ADD PUSH1 0x40 MSTORE DUP1 SWAP3 SWAP2 SWAP1 DUP2 DUP2 MSTORE PUSH1 0x20 ADD DUP3 DUP1 SLOAD PUSH2 0x2837 SWAP1 PUSH2 0x4083 JUMP JUMPDEST DUP1 ISZERO PUSH2 0x2884 JUMPI DUP1 PUSH1 0x1F LT PUSH2 0x2859 JUMPI PUSH2 0x100 DUP1 DUP4 SLOAD DIV MUL DUP4 MSTORE SWAP2 PUSH1 0x20 ADD SWAP2 PUSH2 0x2884 JUMP JUMPDEST DUP3 ADD SWAP2 SWAP1 PUSH1 0x0 MSTORE PUSH1 0x20 PUSH1 0x0 KECCAK256 SWAP1 JUMPDEST DUP2 SLOAD DUP2 MSTORE SWAP1 PUSH1 0x1 ADD SWAP1 PUSH1 0x20 ADD DUP1 DUP4 GT PUSH2 0x2867 JUMPI DUP3 SWAP1 SUB PUSH1 0x1F AND DUP3 ADD SWAP2 JUMPDEST POP POP POP POP POP DUP2 MSTORE PUSH1 0x20 ADD PUSH1 0x5 DUP3 ADD DUP1 SLOAD PUSH2 0x289D SWAP1 PUSH2 0x4083 JUMP JUMPDEST DUP1 PUSH1 0x1F ADD PUSH1 0x20 DUP1 SWAP2 DIV MUL PUSH1 0x20 ADD PUSH1 0x40 MLOAD SWAP1 DUP2 ADD PUSH1 0x40 MSTORE DUP1 SWAP3 SWAP2 SWAP1 DUP2 DUP2 MSTORE PUSH1 0x20 ADD DUP3 DUP1 SLOAD PUSH2 0x28C9 SWAP1 PUSH2 0x4083 JUMP JUMPDEST DUP1 ISZERO PUSH2 0x2916 JUMPI DUP1 PUSH1 0x1F LT PUSH2 0x28EB JUMPI PUSH2 0x100 DUP1 DUP4 SLOAD DIV MUL DUP4 MSTORE SWAP2 PUSH1 0x20 ADD SWAP2 PUSH2 0x2916 JUMP JUMPDEST DUP3 ADD SWAP2 SWAP1 PUSH1 0x0 MSTORE PUSH1 0x20 PUSH1 0x0 KECCAK256 SWAP1 JUMPDEST DUP2 SLOAD DUP2 MSTORE SWAP1 PUSH1 0x1 ADD SWAP1 PUSH1 0x20 ADD DUP1 DUP4 GT PUSH2 0x28F9 JUMPI DUP3 SWAP1 SUB PUSH1 0x1F AND DUP3 ADD SWAP2 JUMPDEST POP POP POP POP POP DUP2 MSTORE POP POP SWAP1 POP SWAP1 JUMP JUMPDEST PUSH1 0x0 DUP1 PUSH1 0x0 DUP1 PUSH1 0x0 PUSH2 0x2934 PUSH2 0x112A JUMP JUMPDEST SWAP4 POP SWAP4 POP SWAP4 POP SWAP4 POP PUSH1 0x0 DUP1 JUMPDEST DUP4 MLOAD DUP2 PUSH1 0xFF AND LT ISZERO PUSH2 0x2988 JUMPI DUP4 DUP2 PUSH1 0xFF AND DUP2 MLOAD DUP2 LT PUSH2 0x2961 JUMPI PUSH2 0x2961 PUSH2 0x414D JUMP JUMPDEST PUSH1 0x20 MUL PUSH1 0x20 ADD ADD MLOAD DUP3 PUSH2 0x2974 SWAP2 SWAP1 PUSH2 0x40CE JUMP JUMPDEST SWAP2 POP DUP1 PUSH2 0x2980 DUP2 PUSH2 0x40E6 JUMP JUMPDEST SWAP2 POP POP PUSH2 0x2940 JUMP JUMPDEST POP SWAP6 SWAP5 POP POP POP POP POP JUMP JUMPDEST PUSH1 0xB DUP1 SLOAD DUP2 SWAP1 PUSH2 0x29A1 SWAP1 PUSH2 0x4083 JUMP JUMPDEST DUP1 PUSH1 0x1F ADD PUSH1 0x20 DUP1 SWAP2 DIV MUL PUSH1 0x20 ADD PUSH1 0x40 MLOAD SWAP1 DUP2 ADD PUSH1 0x40 MSTORE DUP1 SWAP3 SWAP2 SWAP1 DUP2 DUP2 MSTORE PUSH1 0x20 ADD DUP3 DUP1 SLOAD PUSH2 0x29CD SWAP1 PUSH2 0x4083 JUMP JUMPDEST DUP1 ISZERO PUSH2 0x2A1A JUMPI DUP1 PUSH1 0x1F LT PUSH2 0x29EF JUMPI PUSH2 0x100 DUP1 DUP4 SLOAD DIV MUL DUP4 MSTORE SWAP2 PUSH1 0x20 ADD SWAP2 PUSH2 0x2A1A JUMP JUMPDEST DUP3 ADD SWAP2 SWAP1 PUSH1 0x0 MSTORE PUSH1 0x20 PUSH1 0x0 KECCAK256 SWAP1 JUMPDEST DUP2 SLOAD DUP2 MSTORE SWAP1 PUSH1 0x1 ADD SWAP1 PUSH1 0x20 ADD DUP1 DUP4 GT PUSH2 0x29FD JUMPI DUP3 SWAP1 SUB PUSH1 0x1F AND DUP3 ADD SWAP2 JUMPDEST POP POP POP POP POP SWAP1 DUP1 PUSH1 0x1 ADD DUP1 SLOAD PUSH2 0x2A2F SWAP1 PUSH2 0x4083 JUMP JUMPDEST DUP1 PUSH1 0x1F ADD PUSH1 0x20 DUP1 SWAP2 DIV MUL PUSH1 0x20 ADD PUSH1 0x40 MLOAD SWAP1 DUP2 ADD PUSH1 0x40 MSTORE DUP1 SWAP3 SWAP2 SWAP1 DUP2 DUP2 MSTORE PUSH1 0x20 ADD DUP3 DUP1 SLOAD PUSH2 0x2A5B SWAP1 PUSH2 0x4083 JUMP JUMPDEST DUP1 ISZERO PUSH2 0x2AA8 JUMPI DUP1 PUSH1 0x1F LT PUSH2 0x2A7D JUMPI PUSH2 0x100 DUP1 DUP4 SLOAD DIV MUL DUP4 MSTORE SWAP2 PUSH1 0x20 ADD SWAP2 PUSH2 0x2AA8 JUMP JUMPDEST DUP3 ADD SWAP2 SWAP1 PUSH1 0x0 MSTORE PUSH1 0x20 PUSH1 0x0 KECCAK256 SWAP1 JUMPDEST DUP2 SLOAD DUP2 MSTORE SWAP1 PUSH1 0x1 ADD SWAP1 PUSH1 0x20 ADD DUP1 DUP4 GT PUSH2 0x2A8B JUMPI DUP3 SWAP1 SUB PUSH1 0x1F AND DUP3 ADD SWAP2 JUMPDEST POP POP POP POP POP SWAP1 DUP1 PUSH1 0x2 ADD DUP1 SLOAD PUSH2 0x2ABD SWAP1 PUSH2 0x4083 JUMP JUMPDEST DUP1 PUSH1 0x1F ADD PUSH1 0x20 DUP1 SWAP2 DIV MUL PUSH1 0x20 ADD PUSH1 0x40 MLOAD SWAP1 DUP2 ADD PUSH1 0x40 MSTORE DUP1 SWAP3 SWAP2 SWAP1 DUP2 DUP2 MSTORE PUSH1 0x20 ADD DUP3 DUP1 SLOAD PUSH2 0x2AE9 SWAP1 PUSH2 0x4083 JUMP JUMPDEST DUP1 ISZERO PUSH2 0x2B36 JUMPI DUP1 PUSH1 0x1F LT PUSH2 0x2B0B JUMPI PUSH2 0x100 DUP1 DUP4 SLOAD DIV MUL DUP4 MSTORE SWAP2 PUSH1 0x20 ADD SWAP2 PUSH2 0x2B36 JUMP JUMPDEST DUP3 ADD SWAP2 SWAP1 PUSH1 0x0 MSTORE PUSH1 0x20 PUSH1 0x0 KECCAK256 SWAP1 JUMPDEST DUP2 SLOAD DUP2 MSTORE SWAP1 PUSH1 0x1 ADD SWAP1 PUSH1 0x20 ADD DUP1 DUP4 GT PUSH2 0x2B19 JUMPI DUP3 SWAP1 SUB PUSH1 0x1F AND DUP3 ADD SWAP2 JUMPDEST POP POP POP POP POP SWAP1 DUP1 PUSH1 0x3 ADD DUP1 SLOAD PUSH2 0x2B4B SWAP1 PUSH2 0x4083 JUMP JUMPDEST DUP1 PUSH1 0x1F ADD PUSH1 0x20 DUP1 SWAP2 DIV MUL PUSH1 0x20 ADD PUSH1 0x40 MLOAD SWAP1 DUP2 ADD PUSH1 0x40 MSTORE DUP1 SWAP3 SWAP2 SWAP1 DUP2 DUP2 MSTORE PUSH1 0x20 ADD DUP3 DUP1 SLOAD PUSH2 0x2B77 SWAP1 PUSH2 0x4083 JUMP JUMPDEST DUP1 ISZERO PUSH2 0x2BC4 JUMPI DUP1 PUSH1 0x1F LT PUSH2 0x2B99 JUMPI PUSH2 0x100 DUP1 DUP4 SLOAD DIV MUL DUP4 MSTORE SWAP2 PUSH1 0x20 ADD SWAP2 PUSH2 0x2BC4 JUMP JUMPDEST DUP3 ADD SWAP2 SWAP1 PUSH1 0x0 MSTORE PUSH1 0x20 PUSH1 0x0 KECCAK256 SWAP1 JUMPDEST DUP2 SLOAD DUP2 MSTORE SWAP1 PUSH1 0x1 ADD SWAP1 PUSH1 0x20 ADD DUP1 DUP4 GT PUSH2 0x2BA7 JUMPI DUP3 SWAP1 SUB PUSH1 0x1F AND DUP3 ADD SWAP2 JUMPDEST POP POP POP POP POP SWAP1 DUP1 PUSH1 0x4 ADD DUP1 SLOAD PUSH2 0x2BD9 SWAP1 PUSH2 0x4083 JUMP JUMPDEST DUP1 PUSH1 0x1F ADD PUSH1 0x20 DUP1 SWAP2 DIV MUL PUSH1 0x20 ADD PUSH1 0x40 MLOAD SWAP1 DUP2 ADD PUSH1 0x40 MSTORE DUP1 SWAP3 SWAP2 SWAP1 DUP2 DUP2 MSTORE PUSH1 0x20 ADD DUP3 DUP1 SLOAD PUSH2 0x2C05 SWAP1 PUSH2 0x4083 JUMP JUMPDEST DUP1 ISZERO PUSH2 0x2C52 JUMPI DUP1 PUSH1 0x1F LT PUSH2 0x2C27 JUMPI PUSH2 0x100 DUP1 DUP4 SLOAD DIV MUL DUP4 MSTORE SWAP2 PUSH1 0x20 ADD SWAP2 PUSH2 0x2C52 JUMP JUMPDEST DUP3 ADD SWAP2 SWAP1 PUSH1 0x0 MSTORE PUSH1 0x20 PUSH1 0x0 KECCAK256 SWAP1 JUMPDEST DUP2 SLOAD DUP2 MSTORE SWAP1 PUSH1 0x1 ADD SWAP1 PUSH1 0x20 ADD DUP1 DUP4 GT PUSH2 0x2C35 JUMPI DUP3 SWAP1 SUB PUSH1 0x1F AND DUP3 ADD SWAP2 JUMPDEST POP POP POP POP POP SWAP1 DUP1 PUSH1 0x5 ADD DUP1 SLOAD PUSH2 0x2C67 SWAP1 PUSH2 0x4083 JUMP JUMPDEST DUP1 PUSH1 0x1F ADD PUSH1 0x20 DUP1 SWAP2 DIV MUL PUSH1 0x20 ADD PUSH1 0x40 MLOAD SWAP1 DUP2 ADD PUSH1 0x40 MSTORE DUP1 SWAP3 SWAP2 SWAP1 DUP2 DUP2 MSTORE PUSH1 0x20 ADD DUP3 DUP1 SLOAD PUSH2 0x2C93 SWAP1 PUSH2 0x4083 JUMP JUMPDEST DUP1 ISZERO PUSH2 0x2CE0 JUMPI DUP1 PUSH1 0x1F LT PUSH2 0x2CB5 JUMPI PUSH2 0x100 DUP1 DUP4 SLOAD DIV MUL DUP4 MSTORE SWAP2 PUSH1 0x20 ADD SWAP2 PUSH2 0x2CE0 JUMP JUMPDEST DUP3 ADD SWAP2 SWAP1 PUSH1 0x0 MSTORE PUSH1 0x20 PUSH1 0x0 KECCAK256 SWAP1 JUMPDEST DUP2 SLOAD DUP2 MSTORE SWAP1 PUSH1 0x1 ADD SWAP1 PUSH1 0x20 ADD DUP1 DUP4 GT PUSH2 0x2CC3 JUMPI DUP3 SWAP1 SUB PUSH1 0x1F AND DUP3 ADD SWAP2 JUMPDEST POP POP POP POP POP SWAP1 POP DUP7 JUMP JUMPDEST PUSH1 0x0 DUP1 DUP4 GT PUSH2 0x2D0B JUMPI PUSH1 0x40 MLOAD PUSH3 0x461BCD PUSH1 0xE5 SHL DUP2 MSTORE PUSH1 0x4 ADD PUSH2 0x81E SWAP1 PUSH2 0x41D0 JUMP JUMPDEST PUSH1 0x0 DUP3 GT PUSH2 0x2D2B JUMPI PUSH1 0x40 MLOAD PUSH3 0x461BCD PUSH1 0xE5 SHL DUP2 MSTORE PUSH1 0x4 ADD PUSH2 0x81E SWAP1 PUSH2 0x41D0 JUMP JUMPDEST DUP2 PUSH2 0x2D36 DUP5 CALLVALUE PUSH2 0x4193 JUMP JUMPDEST EQ PUSH2 0x2D78 JUMPI PUSH1 0x40 MLOAD PUSH3 0x461BCD PUSH1 0xE5 SHL DUP2 MSTORE PUSH1 0x20 PUSH1 0x4 DUP3 ADD MSTORE PUSH1 0x12 PUSH1 0x24 DUP3 ADD MSTORE PUSH18 0x31B0B7103737BA1036B0B5B29037B93232B9 PUSH1 0x71 SHL PUSH1 0x44 DUP3 ADD MSTORE PUSH1 0x64 ADD PUSH2 0x81E JUMP JUMPDEST PUSH1 0x40 DUP1 MLOAD PUSH1 0xA0 DUP2 ADD DUP3 MSTORE CALLER DUP2 MSTORE PUSH1 0x20 DUP1 DUP3 ADD DUP7 DUP2 MSTORE DUP3 DUP5 ADD DUP7 DUP2 MSTORE CALLVALUE PUSH1 0x60 DUP6 ADD SWAP1 DUP2 MSTORE PUSH1 0x0 PUSH1 0x80 DUP7 ADD DUP2 DUP2 MSTORE PUSH1 0x9 SLOAD DUP3 MSTORE PUSH1 0x7 SWAP1 SWAP6 MSTORE SWAP6 SWAP1 SWAP6 KECCAK256 DUP5 MLOAD DUP2 SLOAD PUSH1 0x1 PUSH1 0x1 PUSH1 0xA0 SHL SUB NOT AND PUSH1 0x1 PUSH1 0x1 PUSH1 0xA0 SHL SUB SWAP1 SWAP2 AND OR DUP2 SSTORE SWAP2 MLOAD PUSH1 0x1 DUP1 DUP5 ADD SWAP2 SWAP1 SWAP2 SSTORE SWAP1 MLOAD PUSH1 0x2 DUP1 DUP5 ADD SWAP2 SWAP1 SWAP2 SSTORE SWAP5 MLOAD PUSH1 0x3 DUP4 ADD SSTORE SWAP2 MLOAD PUSH1 0x4 DUP3 ADD DUP1 SLOAD SWAP5 SWAP6 SWAP3 SWAP5 SWAP2 SWAP4 SWAP1 SWAP3 PUSH1 0xFF NOT SWAP1 SWAP3 AND SWAP2 DUP5 SWAP1 DUP2 GT ISZERO PUSH2 0x2E13 JUMPI PUSH2 0x2E13 PUSH2 0x3BA4 JUMP JUMPDEST MUL OR SWAP1 SSTORE POP SWAP1 POP POP PUSH2 0x2E26 PUSH1 0x9 SLOAD PUSH2 0x3515 JUMP JUMPDEST PUSH1 0x1 PUSH1 0x9 PUSH1 0x0 DUP3 DUP3 SLOAD PUSH2 0x2E39 SWAP2 SWAP1 PUSH2 0x40CE JUMP JUMPDEST SWAP1 SWAP2 SSTORE POP POP PUSH1 0x9 SLOAD PUSH2 0x1123 SWAP1 PUSH1 0x1 SWAP1 PUSH2 0x417C JUMP JUMPDEST PUSH1 0x1 PUSH1 0x1 PUSH1 0xA0 SHL SUB DUP4 AND PUSH2 0x2EAF JUMPI PUSH1 0x40 MLOAD PUSH3 0x461BCD PUSH1 0xE5 SHL DUP2 MSTORE PUSH1 0x20 PUSH1 0x4 DUP3 ADD MSTORE PUSH1 0x24 DUP1 DUP3 ADD MSTORE PUSH32 0x45524332303A20617070726F76652066726F6D20746865207A65726F20616464 PUSH1 0x44 DUP3 ADD MSTORE PUSH4 0x72657373 PUSH1 0xE0 SHL PUSH1 0x64 DUP3 ADD MSTORE PUSH1 0x84 ADD PUSH2 0x81E JUMP JUMPDEST PUSH1 0x1 PUSH1 0x1 PUSH1 0xA0 SHL SUB DUP3 AND PUSH2 0x2F10 JUMPI PUSH1 0x40 MLOAD PUSH3 0x461BCD PUSH1 0xE5 SHL DUP2 MSTORE PUSH1 0x20 PUSH1 0x4 DUP3 ADD MSTORE PUSH1 0x22 PUSH1 0x24 DUP3 ADD MSTORE PUSH32 0x45524332303A20617070726F766520746F20746865207A65726F206164647265 PUSH1 0x44 DUP3 ADD MSTORE PUSH2 0x7373 PUSH1 0xF0 SHL PUSH1 0x64 DUP3 ADD MSTORE PUSH1 0x84 ADD PUSH2 0x81E JUMP JUMPDEST PUSH1 0x1 PUSH1 0x1 PUSH1 0xA0 SHL SUB DUP4 DUP2 AND PUSH1 0x0 DUP2 DUP2 MSTORE PUSH1 0x1 PUSH1 0x20 SWAP1 DUP2 MSTORE PUSH1 0x40 DUP1 DUP4 KECCAK256 SWAP5 DUP8 AND DUP1 DUP5 MSTORE SWAP5 DUP3 MSTORE SWAP2 DUP3 SWAP1 KECCAK256 DUP6 SWAP1 SSTORE SWAP1 MLOAD DUP5 DUP2 MSTORE PUSH32 0x8C5BE1E5EBEC7D5BD14F71427D1E84F3DD0314C0F7B2291E5B200AC8C7C3B925 SWAP2 ADD PUSH1 0x40 MLOAD DUP1 SWAP2 SUB SWAP1 LOG3 POP POP POP JUMP JUMPDEST PUSH1 0x1 PUSH1 0x1 PUSH1 0xA0 SHL SUB DUP4 AND PUSH2 0x2FD5 JUMPI PUSH1 0x40 MLOAD PUSH3 0x461BCD PUSH1 0xE5 SHL DUP2 MSTORE PUSH1 0x20 PUSH1 0x4 DUP3 ADD MSTORE PUSH1 0x25 PUSH1 0x24 DUP3 ADD MSTORE PUSH32 0x45524332303A207472616E736665722066726F6D20746865207A65726F206164 PUSH1 0x44 DUP3 ADD MSTORE PUSH5 0x6472657373 PUSH1 0xD8 SHL PUSH1 0x64 DUP3 ADD MSTORE PUSH1 0x84 ADD PUSH2 0x81E JUMP JUMPDEST PUSH1 0x1 PUSH1 0x1 PUSH1 0xA0 SHL SUB DUP3 AND PUSH2 0x3037 JUMPI PUSH1 0x40 MLOAD PUSH3 0x461BCD PUSH1 0xE5 SHL DUP2 MSTORE PUSH1 0x20 PUSH1 0x4 DUP3 ADD MSTORE PUSH1 0x23 PUSH1 0x24 DUP3 ADD MSTORE PUSH32 0x45524332303A207472616E7366657220746F20746865207A65726F2061646472 PUSH1 0x44 DUP3 ADD MSTORE PUSH3 0x657373 PUSH1 0xE8 SHL PUSH1 0x64 DUP3 ADD MSTORE PUSH1 0x84 ADD PUSH2 0x81E JUMP JUMPDEST PUSH1 0x1 PUSH1 0x1 PUSH1 0xA0 SHL SUB DUP4 AND PUSH1 0x0 SWAP1 DUP2 MSTORE PUSH1 0x20 DUP2 SWAP1 MSTORE PUSH1 0x40 SWAP1 KECCAK256 SLOAD DUP2 DUP2 LT ISZERO PUSH2 0x30AF JUMPI PUSH1 0x40 MLOAD PUSH3 0x461BCD PUSH1 0xE5 SHL DUP2 MSTORE PUSH1 0x20 PUSH1 0x4 DUP3 ADD MSTORE PUSH1 0x26 PUSH1 0x24 DUP3 ADD MSTORE PUSH32 0x45524332303A207472616E7366657220616D6F756E7420657863656564732062 PUSH1 0x44 DUP3 ADD MSTORE PUSH6 0x616C616E6365 PUSH1 0xD0 SHL PUSH1 0x64 DUP3 ADD MSTORE PUSH1 0x84 ADD PUSH2 0x81E JUMP JUMPDEST PUSH1 0x1 PUSH1 0x1 PUSH1 0xA0 SHL SUB DUP1 DUP6 AND PUSH1 0x0 SWAP1 DUP2 MSTORE PUSH1 0x20 DUP2 SWAP1 MSTORE PUSH1 0x40 DUP1 DUP3 KECCAK256 DUP6 DUP6 SUB SWAP1 SSTORE SWAP2 DUP6 AND DUP2 MSTORE SWAP1 DUP2 KECCAK256 DUP1 SLOAD DUP5 SWAP3 SWAP1 PUSH2 0x30E6 SWAP1 DUP5 SWAP1 PUSH2 0x40CE JUMP JUMPDEST SWAP3 POP POP DUP2 SWAP1 SSTORE POP DUP3 PUSH1 0x1 PUSH1 0x1 PUSH1 0xA0 SHL SUB AND DUP5 PUSH1 0x1 PUSH1 0x1 PUSH1 0xA0 SHL SUB AND PUSH32 0xDDF252AD1BE2C89B69C2B068FC378DAA952BA7F163C4A11628F55A4DF523B3EF DUP5 PUSH1 0x40 MLOAD PUSH2 0x3132 SWAP2 DUP2 MSTORE PUSH1 0x20 ADD SWAP1 JUMP JUMPDEST PUSH1 0x40 MLOAD DUP1 SWAP2 SUB SWAP1 LOG3 POP POP POP POP JUMP JUMPDEST PUSH1 0x0 JUMPDEST PUSH1 0x9 SLOAD DUP2 PUSH1 0xFF AND LT ISZERO PUSH2 0x3511 JUMPI PUSH1 0x0 DUP3 DUP2 MSTORE PUSH1 0x8 PUSH1 0x20 MSTORE PUSH1 0x40 DUP2 KECCAK256 PUSH1 0x4 ADD SLOAD PUSH1 0xFF AND PUSH1 0x2 DUP2 GT ISZERO PUSH2 0x3176 JUMPI PUSH2 0x3176 PUSH2 0x3BA4 JUMP JUMPDEST EQ ISZERO PUSH2 0x34FF JUMPI PUSH1 0x0 PUSH1 0xFF DUP1 DUP4 AND PUSH1 0x0 SWAP1 DUP2 MSTORE PUSH1 0x7 PUSH1 0x20 MSTORE PUSH1 0x40 SWAP1 KECCAK256 PUSH1 0x4 ADD SLOAD AND PUSH1 0x2 DUP2 GT ISZERO PUSH2 0x31A7 JUMPI PUSH2 0x31A7 PUSH2 0x3BA4 JUMP JUMPDEST EQ ISZERO PUSH2 0x34FF JUMPI PUSH1 0xFF DUP2 AND PUSH1 0x0 SWAP1 DUP2 MSTORE PUSH1 0x7 PUSH1 0x20 SWAP1 DUP2 MSTORE PUSH1 0x40 DUP1 DUP4 KECCAK256 PUSH1 0x2 SWAP1 DUP2 ADD SLOAD DUP7 DUP6 MSTORE PUSH1 0x8 SWAP1 SWAP4 MSTORE SWAP3 KECCAK256 SWAP1 SWAP2 ADD SLOAD EQ ISZERO PUSH2 0x34FF JUMPI PUSH1 0x0 DUP3 DUP2 MSTORE PUSH1 0x8 PUSH1 0x20 DUP2 DUP2 MSTORE PUSH1 0x40 DUP1 DUP5 KECCAK256 DUP1 SLOAD PUSH1 0xFF DUP8 AND DUP7 MSTORE PUSH1 0x7 DUP5 MSTORE SWAP2 DUP6 KECCAK256 PUSH1 0x1 ADD SLOAD DUP8 DUP7 MSTORE SWAP4 SWAP1 SWAP3 MSTORE PUSH1 0x3 SWAP1 SWAP2 ADD SLOAD PUSH1 0x1 PUSH1 0x1 PUSH1 0xA0 SHL SUB SWAP1 SWAP2 AND SWAP3 SWAP2 GT PUSH2 0x32C7 JUMPI PUSH1 0xFF DUP4 AND PUSH1 0x0 SWAP1 DUP2 MSTORE PUSH1 0x7 PUSH1 0x20 SWAP1 DUP2 MSTORE PUSH1 0x40 DUP1 DUP4 KECCAK256 PUSH1 0x1 ADD SLOAD DUP8 DUP5 MSTORE PUSH1 0x8 SWAP1 SWAP3 MSTORE SWAP1 SWAP2 KECCAK256 PUSH1 0x3 ADD SLOAD PUSH2 0x3251 SWAP2 SWAP1 PUSH2 0x417C JUMP JUMPDEST PUSH1 0x0 DUP6 DUP2 MSTORE PUSH1 0x8 PUSH1 0x20 DUP2 DUP2 MSTORE PUSH1 0x40 DUP1 DUP5 KECCAK256 PUSH1 0x3 SWAP1 DUP2 ADD SWAP6 DUP7 SSTORE PUSH1 0xFF DUP10 AND DUP6 MSTORE PUSH1 0x7 DUP4 MSTORE SWAP1 DUP5 KECCAK256 PUSH1 0x1 DUP1 DUP3 ADD DUP1 SLOAD SWAP4 DUP4 ADD DUP8 SWAP1 SSTORE DUP7 SWAP1 SSTORE PUSH1 0x4 SWAP1 SWAP2 ADD DUP1 SLOAD PUSH1 0xFF NOT AND SWAP1 SWAP2 OR SWAP1 SSTORE SWAP3 DUP9 SWAP1 MSTORE MSTORE SWAP1 SLOAD SWAP1 SWAP2 POP PUSH2 0x32C2 JUMPI PUSH1 0x0 DUP5 DUP2 MSTORE PUSH1 0x8 PUSH1 0x20 MSTORE PUSH1 0x40 SWAP1 KECCAK256 PUSH1 0x4 ADD DUP1 SLOAD PUSH1 0xFF NOT AND PUSH1 0x1 OR SWAP1 SSTORE JUMPDEST PUSH2 0x33BE JUMP JUMPDEST PUSH1 0x0 DUP5 DUP2 MSTORE PUSH1 0x8 PUSH1 0x20 MSTORE PUSH1 0x40 SWAP1 KECCAK256 PUSH1 0x3 DUP2 ADD SLOAD PUSH1 0x2 SWAP1 SWAP2 ADD SLOAD PUSH2 0x32EA SWAP2 SWAP1 PUSH2 0x4207 JUMP JUMPDEST PUSH1 0xFF DUP5 AND PUSH1 0x0 SWAP1 DUP2 MSTORE PUSH1 0x7 PUSH1 0x20 MSTORE PUSH1 0x40 SWAP1 KECCAK256 PUSH1 0x3 ADD SLOAD PUSH2 0x330A SWAP2 SWAP1 PUSH2 0x417C JUMP JUMPDEST PUSH1 0xFF DUP5 AND PUSH1 0x0 DUP2 DUP2 MSTORE PUSH1 0x7 PUSH1 0x20 DUP2 DUP2 MSTORE PUSH1 0x40 DUP1 DUP5 KECCAK256 PUSH1 0x3 DUP1 DUP3 ADD SWAP8 SWAP1 SWAP8 SSTORE DUP11 DUP6 MSTORE PUSH1 0x8 DUP4 MSTORE SWAP1 DUP5 KECCAK256 SWAP1 SWAP6 ADD SLOAD SWAP4 SWAP1 SWAP3 MSTORE SWAP1 MSTORE PUSH1 0x1 SWAP1 SWAP2 ADD SLOAD SWAP1 SWAP2 POP PUSH2 0x3350 SWAP1 DUP3 SWAP1 PUSH2 0x417C JUMP JUMPDEST PUSH1 0xFF DUP5 AND PUSH1 0x0 DUP2 DUP2 MSTORE PUSH1 0x7 PUSH1 0x20 DUP2 DUP2 MSTORE PUSH1 0x40 DUP1 DUP5 KECCAK256 PUSH1 0x1 DUP1 DUP3 ADD SWAP8 SWAP1 SWAP8 SSTORE DUP11 DUP6 MSTORE PUSH1 0x8 DUP4 MSTORE SWAP1 DUP5 KECCAK256 PUSH1 0x3 DUP1 DUP3 ADD DUP7 SWAP1 SSTORE PUSH1 0x4 SWAP1 SWAP2 ADD DUP1 SLOAD PUSH1 0xFF NOT AND SWAP1 SWAP8 OR SWAP1 SWAP7 SSTORE SWAP4 SWAP1 SWAP3 MSTORE SWAP1 MSTORE ADD SLOAD PUSH2 0x33BE JUMPI PUSH1 0xFF DUP4 AND PUSH1 0x0 SWAP1 DUP2 MSTORE PUSH1 0x7 PUSH1 0x20 MSTORE PUSH1 0x40 SWAP1 KECCAK256 PUSH1 0x4 ADD DUP1 SLOAD PUSH1 0xFF NOT AND PUSH1 0x1 OR SWAP1 SSTORE JUMPDEST PUSH1 0xFF DUP4 AND PUSH1 0x0 SWAP1 DUP2 MSTORE PUSH1 0x7 PUSH1 0x20 MSTORE PUSH1 0x40 SWAP1 KECCAK256 PUSH1 0x2 ADD SLOAD PUSH1 0x1 PUSH1 0x1 PUSH1 0xA0 SHL SUB DUP4 AND SWAP1 PUSH2 0x8FC SWAP1 PUSH2 0x33EE SWAP1 DUP5 SWAP1 PUSH2 0x4207 JUMP JUMPDEST PUSH1 0x40 MLOAD DUP2 ISZERO SWAP1 SWAP3 MUL SWAP2 PUSH1 0x0 DUP2 DUP2 DUP2 DUP6 DUP9 DUP9 CALL SWAP4 POP POP POP POP ISZERO DUP1 ISZERO PUSH2 0x3416 JUMPI RETURNDATASIZE PUSH1 0x0 DUP1 RETURNDATACOPY RETURNDATASIZE PUSH1 0x0 REVERT JUMPDEST POP PUSH1 0xFF DUP4 AND PUSH1 0x0 SWAP1 DUP2 MSTORE PUSH1 0x7 PUSH1 0x20 MSTORE PUSH1 0x40 SWAP1 DUP2 SWAP1 KECCAK256 SLOAD SWAP1 MLOAD PUSH4 0xA9059CBB PUSH1 0xE0 SHL DUP2 MSTORE PUSH1 0x1 PUSH1 0x1 PUSH1 0xA0 SHL SUB SWAP1 SWAP2 AND PUSH1 0x4 DUP3 ADD MSTORE PUSH1 0x24 DUP2 ADD DUP3 SWAP1 MSTORE ADDRESS SWAP1 PUSH4 0xA9059CBB SWAP1 PUSH1 0x44 ADD PUSH1 0x20 PUSH1 0x40 MLOAD DUP1 DUP4 SUB DUP2 PUSH1 0x0 DUP8 GAS CALL ISZERO DUP1 ISZERO PUSH2 0x3479 JUMPI RETURNDATASIZE PUSH1 0x0 DUP1 RETURNDATACOPY RETURNDATASIZE PUSH1 0x0 REVERT JUMPDEST POP POP POP POP PUSH1 0x40 MLOAD RETURNDATASIZE PUSH1 0x1F NOT PUSH1 0x1F DUP3 ADD AND DUP3 ADD DUP1 PUSH1 0x40 MSTORE POP DUP2 ADD SWAP1 PUSH2 0x349D SWAP2 SWAP1 PUSH2 0x4106 JUMP JUMPDEST POP PUSH1 0xFF DUP4 AND PUSH1 0x0 SWAP1 DUP2 MSTORE PUSH1 0x7 PUSH1 0x20 MSTORE PUSH1 0x40 SWAP1 KECCAK256 PUSH1 0x2 ADD SLOAD PUSH2 0x34FC SWAP1 PUSH2 0x34C3 SWAP1 DUP4 SWAP1 PUSH2 0x4207 JUMP JUMPDEST PUSH1 0xFF DUP6 AND PUSH1 0x0 DUP2 DUP2 MSTORE PUSH1 0x7 PUSH1 0x20 SWAP1 DUP2 MSTORE PUSH1 0x40 DUP1 DUP4 KECCAK256 SLOAD DUP11 DUP5 MSTORE PUSH1 0x8 SWAP1 SWAP3 MSTORE SWAP1 SWAP2 KECCAK256 SLOAD DUP6 SWAP3 SWAP2 DUP10 SWAP2 PUSH1 0x1 PUSH1 0x1 PUSH1 0xA0 SHL SUB SWAP2 DUP3 AND SWAP2 AND PUSH2 0x38D8 JUMP JUMPDEST POP POP JUMPDEST DUP1 PUSH2 0x3509 DUP2 PUSH2 0x40E6 JUMP JUMPDEST SWAP2 POP POP PUSH2 0x3143 JUMP JUMPDEST POP POP JUMP JUMPDEST PUSH1 0x0 JUMPDEST PUSH1 0xA SLOAD DUP2 PUSH1 0xFF AND LT ISZERO PUSH2 0x3511 JUMPI PUSH1 0x0 PUSH1 0xFF DUP1 DUP4 AND PUSH1 0x0 SWAP1 DUP2 MSTORE PUSH1 0x8 PUSH1 0x20 MSTORE PUSH1 0x40 SWAP1 KECCAK256 PUSH1 0x4 ADD SLOAD AND PUSH1 0x2 DUP2 GT ISZERO PUSH2 0x3550 JUMPI PUSH2 0x3550 PUSH2 0x3BA4 JUMP JUMPDEST EQ ISZERO PUSH2 0x38C6 JUMPI PUSH1 0x0 DUP3 DUP2 MSTORE PUSH1 0x7 PUSH1 0x20 MSTORE PUSH1 0x40 DUP2 KECCAK256 PUSH1 0x4 ADD SLOAD PUSH1 0xFF AND PUSH1 0x2 DUP2 GT ISZERO PUSH2 0x357C JUMPI PUSH2 0x357C PUSH2 0x3BA4 JUMP JUMPDEST EQ ISZERO PUSH2 0x38C6 JUMPI PUSH1 0x0 DUP3 DUP2 MSTORE PUSH1 0x7 PUSH1 0x20 SWAP1 DUP2 MSTORE PUSH1 0x40 DUP1 DUP4 KECCAK256 PUSH1 0x2 SWAP1 DUP2 ADD SLOAD PUSH1 0xFF DUP7 AND DUP6 MSTORE PUSH1 0x8 SWAP1 SWAP4 MSTORE SWAP3 KECCAK256 SWAP1 SWAP2 ADD SLOAD EQ ISZERO PUSH2 0x38C6 JUMPI PUSH1 0xFF DUP2 AND PUSH1 0x0 DUP2 DUP2 MSTORE PUSH1 0x8 PUSH1 0x20 DUP2 DUP2 MSTORE PUSH1 0x40 DUP1 DUP5 KECCAK256 DUP1 SLOAD DUP9 DUP7 MSTORE PUSH1 0x7 DUP5 MSTORE SWAP2 DUP6 KECCAK256 PUSH1 0x1 ADD SLOAD SWAP6 DUP6 MSTORE SWAP3 SWAP1 SWAP2 MSTORE PUSH1 0x3 SWAP1 SWAP2 ADD SLOAD PUSH1 0x1 PUSH1 0x1 PUSH1 0xA0 SHL SUB SWAP1 SWAP2 AND SWAP3 GT PUSH2 0x3698 JUMPI PUSH1 0x0 DUP5 DUP2 MSTORE PUSH1 0x7 PUSH1 0x20 SWAP1 DUP2 MSTORE PUSH1 0x40 DUP1 DUP4 KECCAK256 PUSH1 0x1 ADD SLOAD PUSH1 0xFF DUP8 AND DUP5 MSTORE PUSH1 0x8 SWAP1 SWAP3 MSTORE SWAP1 SWAP2 KECCAK256 PUSH1 0x3 ADD SLOAD PUSH2 0x3624 SWAP2 SWAP1 PUSH2 0x417C JUMP JUMPDEST PUSH1 0xFF DUP5 AND PUSH1 0x0 DUP2 DUP2 MSTORE PUSH1 0x8 PUSH1 0x20 DUP2 DUP2 MSTORE PUSH1 0x40 DUP1 DUP5 KECCAK256 PUSH1 0x3 ADD SWAP6 DUP7 SSTORE DUP10 DUP5 MSTORE PUSH1 0x7 DUP3 MSTORE DUP4 KECCAK256 PUSH1 0x1 DUP1 DUP3 ADD DUP1 SLOAD SWAP1 DUP7 SWAP1 SSTORE PUSH1 0x4 SWAP1 SWAP3 ADD DUP1 SLOAD PUSH1 0xFF NOT AND SWAP1 SWAP2 OR SWAP1 SSTORE SWAP4 SWAP1 SWAP3 MSTORE SWAP1 MSTORE SWAP1 SLOAD SWAP1 SWAP2 POP PUSH2 0x3693 JUMPI PUSH1 0xFF DUP4 AND PUSH1 0x0 SWAP1 DUP2 MSTORE PUSH1 0x8 PUSH1 0x20 MSTORE PUSH1 0x40 SWAP1 KECCAK256 PUSH1 0x4 ADD DUP1 SLOAD PUSH1 0xFF NOT AND PUSH1 0x1 OR SWAP1 SSTORE JUMPDEST PUSH2 0x3792 JUMP JUMPDEST PUSH1 0xFF DUP4 AND PUSH1 0x0 SWAP1 DUP2 MSTORE PUSH1 0x8 PUSH1 0x20 MSTORE PUSH1 0x40 SWAP1 KECCAK256 PUSH1 0x3 DUP2 ADD SLOAD PUSH1 0x2 SWAP1 SWAP2 ADD SLOAD PUSH2 0x36BF SWAP2 SWAP1 PUSH2 0x4207 JUMP JUMPDEST PUSH1 0x0 DUP6 DUP2 MSTORE PUSH1 0x7 PUSH1 0x20 MSTORE PUSH1 0x40 SWAP1 KECCAK256 PUSH1 0x3 ADD SLOAD PUSH2 0x36DB SWAP2 SWAP1 PUSH2 0x417C JUMP JUMPDEST PUSH1 0x0 DUP6 DUP2 MSTORE PUSH1 0x7 PUSH1 0x20 DUP2 DUP2 MSTORE PUSH1 0x40 DUP1 DUP5 KECCAK256 PUSH1 0x3 DUP1 DUP3 ADD SWAP7 SWAP1 SWAP7 SSTORE PUSH1 0xFF DUP10 AND DUP6 MSTORE PUSH1 0x8 DUP4 MSTORE SWAP1 DUP5 KECCAK256 SWAP1 SWAP5 ADD SLOAD SWAP3 DUP9 SWAP1 MSTORE MSTORE PUSH1 0x1 SWAP1 SWAP2 ADD SLOAD PUSH2 0x371B SWAP2 SWAP1 PUSH2 0x417C JUMP JUMPDEST PUSH1 0x0 DUP6 DUP2 MSTORE PUSH1 0x7 PUSH1 0x20 SWAP1 DUP2 MSTORE PUSH1 0x40 DUP1 DUP4 KECCAK256 PUSH1 0x1 SWAP1 DUP2 ADD SWAP5 SWAP1 SWAP5 SSTORE PUSH1 0xFF DUP8 AND DUP4 MSTORE PUSH1 0x8 SWAP1 SWAP2 MSTORE DUP2 KECCAK256 PUSH1 0x3 DUP2 ADD DUP1 SLOAD SWAP3 SWAP1 SSTORE PUSH1 0x4 ADD DUP1 SLOAD SWAP2 SWAP4 POP SWAP1 PUSH1 0xFF NOT AND DUP3 DUP1 MUL OR SWAP1 SSTORE POP PUSH1 0x0 DUP5 DUP2 MSTORE PUSH1 0x7 PUSH1 0x20 MSTORE PUSH1 0x40 SWAP1 KECCAK256 PUSH1 0x3 ADD SLOAD PUSH2 0x3792 JUMPI PUSH1 0x0 DUP5 DUP2 MSTORE PUSH1 0x7 PUSH1 0x20 MSTORE PUSH1 0x40 SWAP1 KECCAK256 PUSH1 0x4 ADD DUP1 SLOAD PUSH1 0xFF NOT AND PUSH1 0x1 OR SWAP1 SSTORE JUMPDEST PUSH1 0x0 DUP5 DUP2 MSTORE PUSH1 0x7 PUSH1 0x20 MSTORE PUSH1 0x40 SWAP1 KECCAK256 PUSH1 0x2 ADD SLOAD PUSH1 0x1 PUSH1 0x1 PUSH1 0xA0 SHL SUB DUP4 AND SWAP1 PUSH2 0x8FC SWAP1 PUSH2 0x37BE SWAP1 DUP5 SWAP1 PUSH2 0x4207 JUMP JUMPDEST PUSH1 0x40 MLOAD DUP2 ISZERO SWAP1 SWAP3 MUL SWAP2 PUSH1 0x0 DUP2 DUP2 DUP2 DUP6 DUP9 DUP9 CALL SWAP4 POP POP POP POP ISZERO DUP1 ISZERO PUSH2 0x37E6 JUMPI RETURNDATASIZE PUSH1 0x0 DUP1 RETURNDATACOPY RETURNDATASIZE PUSH1 0x0 REVERT JUMPDEST POP PUSH1 0x0 DUP5 DUP2 MSTORE PUSH1 0x7 PUSH1 0x20 MSTORE PUSH1 0x40 SWAP1 DUP2 SWAP1 KECCAK256 SLOAD SWAP1 MLOAD PUSH4 0xA9059CBB PUSH1 0xE0 SHL DUP2 MSTORE PUSH1 0x1 PUSH1 0x1 PUSH1 0xA0 SHL SUB SWAP1 SWAP2 AND PUSH1 0x4 DUP3 ADD MSTORE PUSH1 0x24 DUP2 ADD DUP3 SWAP1 MSTORE ADDRESS SWAP1 PUSH4 0xA9059CBB SWAP1 PUSH1 0x44 ADD PUSH1 0x20 PUSH1 0x40 MLOAD DUP1 DUP4 SUB DUP2 PUSH1 0x0 DUP8 GAS CALL ISZERO DUP1 ISZERO PUSH2 0x3845 JUMPI RETURNDATASIZE PUSH1 0x0 DUP1 RETURNDATACOPY RETURNDATASIZE PUSH1 0x0 REVERT JUMPDEST POP POP POP POP PUSH1 0x40 MLOAD RETURNDATASIZE PUSH1 0x1F NOT PUSH1 0x1F DUP3 ADD AND DUP3 ADD DUP1 PUSH1 0x40 MSTORE POP DUP2 ADD SWAP1 PUSH2 0x3869 SWAP2 SWAP1 PUSH2 0x4106 JUMP JUMPDEST POP PUSH1 0x0 DUP5 DUP2 MSTORE PUSH1 0x7 PUSH1 0x20 MSTORE PUSH1 0x40 SWAP1 KECCAK256 PUSH1 0x2 ADD SLOAD PUSH2 0x38C3 SWAP1 PUSH2 0x388B SWAP1 DUP4 SWAP1 PUSH2 0x4207 JUMP JUMPDEST PUSH1 0x0 DUP7 DUP2 MSTORE PUSH1 0x7 PUSH1 0x20 SWAP1 DUP2 MSTORE PUSH1 0x40 DUP1 DUP4 KECCAK256 SLOAD PUSH1 0xFF DUP10 AND DUP1 DUP6 MSTORE PUSH1 0x8 SWAP1 SWAP4 MSTORE SWAP3 KECCAK256 SLOAD DUP6 SWAP3 DUP10 SWAP3 SWAP2 PUSH1 0x1 PUSH1 0x1 PUSH1 0xA0 SHL SUB SWAP2 DUP3 AND SWAP2 AND PUSH2 0x38D8 JUMP JUMPDEST POP POP JUMPDEST DUP1 PUSH2 0x38D0 DUP2 PUSH2 0x40E6 JUMP JUMPDEST SWAP2 POP POP PUSH2 0x3518 JUMP JUMPDEST PUSH1 0x6 DUP1 SLOAD PUSH1 0x0 SWAP1 DUP2 MSTORE PUSH1 0x5 PUSH1 0x20 DUP2 SWAP1 MSTORE PUSH1 0x40 DUP1 DUP4 KECCAK256 DUP11 SWAP1 SSTORE DUP4 SLOAD DUP4 MSTORE DUP1 DUP4 KECCAK256 PUSH1 0x1 ADD DUP10 SWAP1 SSTORE DUP4 SLOAD DUP4 MSTORE DUP1 DUP4 KECCAK256 TIMESTAMP SWAP1 DUP6 ADD SSTORE DUP4 SLOAD DUP4 MSTORE DUP1 DUP4 KECCAK256 PUSH1 0x2 ADD DUP9 SWAP1 SSTORE DUP4 SLOAD DUP4 MSTORE DUP1 DUP4 KECCAK256 PUSH1 0x3 ADD DUP8 SWAP1 SSTORE DUP4 SLOAD DUP4 MSTORE DUP1 DUP4 KECCAK256 PUSH1 0x4 ADD DUP1 SLOAD PUSH1 0x1 PUSH1 0x1 PUSH1 0xA0 SHL SUB DUP1 DUP10 AND PUSH1 0x1 PUSH1 0x1 PUSH1 0xA0 SHL SUB NOT SWAP3 DUP4 AND OR SWAP1 SWAP3 SSTORE DUP6 SLOAD DUP6 MSTORE SWAP2 DUP5 KECCAK256 SWAP1 SWAP3 ADD DUP1 SLOAD SWAP3 DUP7 AND SWAP3 SWAP1 SWAP2 AND SWAP2 SWAP1 SWAP2 OR SWAP1 SSTORE DUP2 SLOAD SWAP2 SWAP1 PUSH2 0x3970 DUP4 PUSH2 0x41B5 JUMP JUMPDEST SWAP2 SWAP1 POP SSTORE POP POP POP POP POP POP POP JUMP JUMPDEST DUP3 DUP1 SLOAD PUSH2 0x3989 SWAP1 PUSH2 0x4083 JUMP JUMPDEST SWAP1 PUSH1 0x0 MSTORE PUSH1 0x20 PUSH1 0x0 KECCAK256 SWAP1 PUSH1 0x1F ADD PUSH1 0x20 SWAP1 DIV DUP2 ADD SWAP3 DUP3 PUSH2 0x39AB JUMPI PUSH1 0x0 DUP6 SSTORE PUSH2 0x39F1 JUMP JUMPDEST DUP3 PUSH1 0x1F LT PUSH2 0x39C4 JUMPI DUP1 MLOAD PUSH1 0xFF NOT AND DUP4 DUP1 ADD OR DUP6 SSTORE PUSH2 0x39F1 JUMP JUMPDEST DUP3 DUP1 ADD PUSH1 0x1 ADD DUP6 SSTORE DUP3 ISZERO PUSH2 0x39F1 JUMPI SWAP2 DUP3 ADD JUMPDEST DUP3 DUP2 GT ISZERO PUSH2 0x39F1 JUMPI DUP3 MLOAD DUP3 SSTORE SWAP2 PUSH1 0x20 ADD SWAP2 SWAP1 PUSH1 0x1 ADD SWAP1 PUSH2 0x39D6 JUMP JUMPDEST POP PUSH2 0x39FD SWAP3 SWAP2 POP PUSH2 0x3A01 JUMP JUMPDEST POP SWAP1 JUMP JUMPDEST JUMPDEST DUP1 DUP3 GT ISZERO PUSH2 0x39FD JUMPI PUSH1 0x0 DUP2 SSTORE PUSH1 0x1 ADD PUSH2 0x3A02 JUMP JUMPDEST PUSH1 0x0 DUP2 MLOAD DUP1 DUP5 MSTORE PUSH1 0x0 JUMPDEST DUP2 DUP2 LT ISZERO PUSH2 0x3A3C JUMPI PUSH1 0x20 DUP2 DUP6 ADD DUP2 ADD MLOAD DUP7 DUP4 ADD DUP3 ADD MSTORE ADD PUSH2 0x3A20 JUMP JUMPDEST DUP2 DUP2 GT ISZERO PUSH2 0x3A4E JUMPI PUSH1 0x0 PUSH1 0x20 DUP4 DUP8 ADD ADD MSTORE JUMPDEST POP PUSH1 0x1F ADD PUSH1 0x1F NOT AND SWAP3 SWAP1 SWAP3 ADD PUSH1 0x20 ADD SWAP3 SWAP2 POP POP JUMP JUMPDEST PUSH1 0x20 DUP2 MSTORE PUSH1 0x0 PUSH2 0x1123 PUSH1 0x20 DUP4 ADD DUP5 PUSH2 0x3A16 JUMP JUMPDEST DUP1 CALLDATALOAD PUSH1 0x1 PUSH1 0x1 PUSH1 0xA0 SHL SUB DUP2 AND DUP2 EQ PUSH2 0x3A8D JUMPI PUSH1 0x0 DUP1 REVERT JUMPDEST SWAP2 SWAP1 POP JUMP JUMPDEST PUSH1 0x0 DUP1 PUSH1 0x40 DUP4 DUP6 SUB SLT ISZERO PUSH2 0x3AA5 JUMPI PUSH1 0x0 DUP1 REVERT JUMPDEST PUSH2 0x3AAE DUP4 PUSH2 0x3A76 JUMP JUMPDEST SWAP5 PUSH1 0x20 SWAP4 SWAP1 SWAP4 ADD CALLDATALOAD SWAP4 POP POP POP JUMP JUMPDEST PUSH1 0x0 PUSH1 0x20 DUP3 DUP5 SUB SLT ISZERO PUSH2 0x3ACE JUMPI PUSH1 0x0 DUP1 REVERT JUMPDEST POP CALLDATALOAD SWAP2 SWAP1 POP JUMP JUMPDEST PUSH1 0x0 DUP1 PUSH1 0x0 PUSH1 0x60 DUP5 DUP7 SUB SLT ISZERO PUSH2 0x3AEA JUMPI PUSH1 0x0 DUP1 REVERT JUMPDEST PUSH2 0x3AF3 DUP5 PUSH2 0x3A76 JUMP JUMPDEST SWAP3 POP PUSH2 0x3B01 PUSH1 0x20 DUP6 ADD PUSH2 0x3A76 JUMP JUMPDEST SWAP2 POP PUSH1 0x40 DUP5 ADD CALLDATALOAD SWAP1 POP SWAP3 POP SWAP3 POP SWAP3 JUMP JUMPDEST PUSH1 0x0 DUP2 MLOAD DUP1 DUP5 MSTORE PUSH1 0x20 DUP1 DUP6 ADD SWAP5 POP DUP1 DUP5 ADD PUSH1 0x0 JUMPDEST DUP4 DUP2 LT ISZERO PUSH2 0x3B41 JUMPI DUP2 MLOAD DUP8 MSTORE SWAP6 DUP3 ADD SWAP6 SWAP1 DUP3 ADD SWAP1 PUSH1 0x1 ADD PUSH2 0x3B25 JUMP JUMPDEST POP SWAP5 SWAP6 SWAP5 POP POP POP POP POP JUMP JUMPDEST PUSH1 0x80 DUP2 MSTORE PUSH1 0x0 PUSH2 0x3B5F PUSH1 0x80 DUP4 ADD DUP8 PUSH2 0x3B11 JUMP JUMPDEST DUP3 DUP2 SUB PUSH1 0x20 DUP5 ADD MSTORE PUSH2 0x3B71 DUP2 DUP8 PUSH2 0x3B11 JUMP JUMPDEST SWAP1 POP DUP3 DUP2 SUB PUSH1 0x40 DUP5 ADD MSTORE PUSH2 0x3B85 DUP2 DUP7 PUSH2 0x3B11 JUMP JUMPDEST SWAP1 POP DUP3 DUP2 SUB PUSH1 0x60 DUP5 ADD MSTORE PUSH2 0x3B99 DUP2 DUP6 PUSH2 0x3B11 JUMP JUMPDEST SWAP8 SWAP7 POP POP POP POP POP POP POP JUMP JUMPDEST PUSH4 0x4E487B71 PUSH1 0xE0 SHL PUSH1 0x0 MSTORE PUSH1 0x21 PUSH1 0x4 MSTORE PUSH1 0x24 PUSH1 0x0 REVERT JUMPDEST PUSH1 0x20 DUP2 ADD PUSH1 0x4 DUP4 LT PUSH2 0x3BCE JUMPI PUSH2 0x3BCE PUSH2 0x3BA4 JUMP JUMPDEST SWAP2 SWAP1 MSTORE SWAP1 JUMP JUMPDEST PUSH1 0x0 PUSH1 0x20 DUP3 DUP5 SUB SLT ISZERO PUSH2 0x3BE6 JUMPI PUSH1 0x0 DUP1 REVERT JUMPDEST PUSH2 0x1123 DUP3 PUSH2 0x3A76 JUMP JUMPDEST PUSH4 0x4E487B71 PUSH1 0xE0 SHL PUSH1 0x0 MSTORE PUSH1 0x41 PUSH1 0x4 MSTORE PUSH1 0x24 PUSH1 0x0 REVERT JUMPDEST PUSH1 0x0 DUP3 PUSH1 0x1F DUP4 ADD SLT PUSH2 0x3C16 JUMPI PUSH1 0x0 DUP1 REVERT JUMPDEST DUP2 CALLDATALOAD PUSH1 0x1 PUSH1 0x1 PUSH1 0x40 SHL SUB DUP1 DUP3 GT ISZERO PUSH2 0x3C30 JUMPI PUSH2 0x3C30 PUSH2 0x3BEF JUMP JUMPDEST PUSH1 0x40 MLOAD PUSH1 0x1F DUP4 ADD PUSH1 0x1F NOT SWAP1 DUP2 AND PUSH1 0x3F ADD AND DUP2 ADD SWAP1 DUP3 DUP3 GT DUP2 DUP4 LT OR ISZERO PUSH2 0x3C58 JUMPI PUSH2 0x3C58 PUSH2 0x3BEF JUMP JUMPDEST DUP2 PUSH1 0x40 MSTORE DUP4 DUP2 MSTORE DUP7 PUSH1 0x20 DUP6 DUP9 ADD ADD GT ISZERO PUSH2 0x3C71 JUMPI PUSH1 0x0 DUP1 REVERT JUMPDEST DUP4 PUSH1 0x20 DUP8 ADD PUSH1 0x20 DUP4 ADD CALLDATACOPY PUSH1 0x0 PUSH1 0x20 DUP6 DUP4 ADD ADD MSTORE DUP1 SWAP5 POP POP POP POP POP SWAP3 SWAP2 POP POP JUMP JUMPDEST PUSH1 0x0 DUP1 PUSH1 0x0 DUP1 PUSH1 0x0 DUP1 PUSH1 0xC0 DUP8 DUP10 SUB SLT ISZERO PUSH2 0x3CAA JUMPI PUSH1 0x0 DUP1 REVERT JUMPDEST DUP7 CALLDATALOAD PUSH1 0x1 PUSH1 0x1 PUSH1 0x40 SHL SUB DUP1 DUP3 GT ISZERO PUSH2 0x3CC1 JUMPI PUSH1 0x0 DUP1 REVERT JUMPDEST PUSH2 0x3CCD DUP11 DUP4 DUP12 ADD PUSH2 0x3C05 JUMP JUMPDEST SWAP8 POP PUSH1 0x20 DUP10 ADD CALLDATALOAD SWAP2 POP DUP1 DUP3 GT ISZERO PUSH2 0x3CE3 JUMPI PUSH1 0x0 DUP1 REVERT JUMPDEST PUSH2 0x3CEF DUP11 DUP4 DUP12 ADD PUSH2 0x3C05 JUMP JUMPDEST SWAP7 POP PUSH1 0x40 DUP10 ADD CALLDATALOAD SWAP2 POP DUP1 DUP3 GT ISZERO PUSH2 0x3D05 JUMPI PUSH1 0x0 DUP1 REVERT JUMPDEST PUSH2 0x3D11 DUP11 DUP4 DUP12 ADD PUSH2 0x3C05 JUMP JUMPDEST SWAP6 POP PUSH1 0x60 DUP10 ADD CALLDATALOAD SWAP2 POP DUP1 DUP3 GT ISZERO PUSH2 0x3D27 JUMPI PUSH1 0x0 DUP1 REVERT JUMPDEST PUSH2 0x3D33 DUP11 DUP4 DUP12 ADD PUSH2 0x3C05 JUMP JUMPDEST SWAP5 POP PUSH1 0x80 DUP10 ADD CALLDATALOAD SWAP2 POP DUP1 DUP3 GT ISZERO PUSH2 0x3D49 JUMPI PUSH1 0x0 DUP1 REVERT JUMPDEST PUSH2 0x3D55 DUP11 DUP4 DUP12 ADD PUSH2 0x3C05 JUMP JUMPDEST SWAP4 POP PUSH1 0xA0 DUP10 ADD CALLDATALOAD SWAP2 POP DUP1 DUP3 GT ISZERO PUSH2 0x3D6B JUMPI PUSH1 0x0 DUP1 REVERT JUMPDEST POP PUSH2 0x3D78 DUP10 DUP3 DUP11 ADD PUSH2 0x3C05 JUMP JUMPDEST SWAP2 POP POP SWAP3 SWAP6 POP SWAP3 SWAP6 POP SWAP3 SWAP6 JUMP JUMPDEST PUSH1 0x0 DUP2 MLOAD DUP1 DUP5 MSTORE PUSH1 0x20 DUP1 DUP6 ADD SWAP5 POP DUP1 DUP5 ADD PUSH1 0x0 JUMPDEST DUP4 DUP2 LT ISZERO PUSH2 0x3B41 JUMPI DUP2 MLOAD PUSH1 0x1 PUSH1 0x1 PUSH1 0xA0 SHL SUB AND DUP8 MSTORE SWAP6 DUP3 ADD SWAP6 SWAP1 DUP3 ADD SWAP1 PUSH1 0x1 ADD PUSH2 0x3D99 JUMP JUMPDEST PUSH1 0xA0 DUP2 MSTORE PUSH1 0x0 PUSH2 0x3DD1 PUSH1 0xA0 DUP4 ADD DUP9 PUSH2 0x3B11 JUMP JUMPDEST DUP3 DUP2 SUB PUSH1 0x20 DUP5 ADD MSTORE PUSH2 0x3DE3 DUP2 DUP9 PUSH2 0x3B11 JUMP JUMPDEST SWAP1 POP DUP3 DUP2 SUB PUSH1 0x40 DUP5 ADD MSTORE PUSH2 0x3DF7 DUP2 DUP8 PUSH2 0x3B11 JUMP JUMPDEST SWAP1 POP DUP3 DUP2 SUB PUSH1 0x60 DUP5 ADD MSTORE PUSH2 0x3E0B DUP2 DUP7 PUSH2 0x3D85 JUMP JUMPDEST SWAP1 POP DUP3 DUP2 SUB PUSH1 0x80 DUP5 ADD MSTORE PUSH2 0x3E1F DUP2 DUP6 PUSH2 0x3D85 JUMP JUMPDEST SWAP9 SWAP8 POP POP POP POP POP POP POP POP JUMP JUMPDEST PUSH1 0xC0 DUP2 MSTORE PUSH1 0x0 PUSH2 0x3E3E PUSH1 0xC0 DUP4 ADD DUP10 PUSH2 0x3D85 JUMP JUMPDEST PUSH1 0x20 DUP4 DUP3 SUB DUP2 DUP6 ADD MSTORE PUSH2 0x3E51 DUP3 DUP11 PUSH2 0x3B11 JUMP JUMPDEST SWAP2 POP DUP4 DUP3 SUB PUSH1 0x40 DUP6 ADD MSTORE PUSH2 0x3E65 DUP3 DUP10 PUSH2 0x3B11 JUMP JUMPDEST SWAP2 POP DUP4 DUP3 SUB PUSH1 0x60 DUP6 ADD MSTORE PUSH2 0x3E79 DUP3 DUP9 PUSH2 0x3B11 JUMP JUMPDEST DUP5 DUP2 SUB PUSH1 0x80 DUP7 ADD MSTORE DUP7 MLOAD DUP1 DUP3 MSTORE DUP3 DUP9 ADD SWAP4 POP SWAP1 DUP3 ADD SWAP1 PUSH1 0x0 JUMPDEST DUP2 DUP2 LT ISZERO PUSH2 0x3EBE JUMPI DUP5 MLOAD PUSH1 0x3 DUP2 LT PUSH2 0x3EAC JUMPI PUSH2 0x3EAC PUSH2 0x3BA4 JUMP JUMPDEST DUP4 MSTORE SWAP4 DUP4 ADD SWAP4 SWAP2 DUP4 ADD SWAP2 PUSH1 0x1 ADD PUSH2 0x3E92 JUMP JUMPDEST POP POP DUP5 DUP2 SUB PUSH1 0xA0 DUP7 ADD MSTORE PUSH2 0x3ED2 DUP2 DUP8 PUSH2 0x3B11 JUMP JUMPDEST SWAP12 SWAP11 POP POP POP POP POP POP POP POP POP POP POP JUMP JUMPDEST PUSH1 0x20 DUP2 MSTORE PUSH1 0x0 PUSH2 0x1123 PUSH1 0x20 DUP4 ADD DUP5 PUSH2 0x3D85 JUMP JUMPDEST PUSH1 0x0 DUP1 PUSH1 0x40 DUP4 DUP6 SUB SLT ISZERO PUSH2 0x3F07 JUMPI PUSH1 0x0 DUP1 REVERT JUMPDEST POP POP DUP1 CALLDATALOAD SWAP3 PUSH1 0x20 SWAP1 SWAP2 ADD CALLDATALOAD SWAP2 POP JUMP JUMPDEST PUSH1 0x20 DUP2 MSTORE PUSH1 0x0 DUP3 MLOAD PUSH1 0xC0 PUSH1 0x20 DUP5 ADD MSTORE PUSH2 0x3F32 PUSH1 0xE0 DUP5 ADD DUP3 PUSH2 0x3A16 JUMP JUMPDEST SWAP1 POP PUSH1 0x20 DUP5 ADD MLOAD PUSH1 0x1F NOT DUP1 DUP6 DUP5 SUB ADD PUSH1 0x40 DUP7 ADD MSTORE PUSH2 0x3F50 DUP4 DUP4 PUSH2 0x3A16 JUMP JUMPDEST SWAP3 POP PUSH1 0x40 DUP7 ADD MLOAD SWAP2 POP DUP1 DUP6 DUP5 SUB ADD PUSH1 0x60 DUP7 ADD MSTORE PUSH2 0x3F6D DUP4 DUP4 PUSH2 0x3A16 JUMP JUMPDEST SWAP3 POP PUSH1 0x60 DUP7 ADD MLOAD SWAP2 POP DUP1 DUP6 DUP5 SUB ADD PUSH1 0x80 DUP7 ADD MSTORE PUSH2 0x3F8A DUP4 DUP4 PUSH2 0x3A16 JUMP JUMPDEST SWAP3 POP PUSH1 0x80 DUP7 ADD MLOAD SWAP2 POP DUP1 DUP6 DUP5 SUB ADD PUSH1 0xA0 DUP7 ADD MSTORE PUSH2 0x3FA7 DUP4 DUP4 PUSH2 0x3A16 JUMP JUMPDEST SWAP3 POP PUSH1 0xA0 DUP7 ADD MLOAD SWAP2 POP DUP1 DUP6 DUP5 SUB ADD PUSH1 0xC0 DUP7 ADD MSTORE POP PUSH2 0x3FC5 DUP3 DUP3 PUSH2 0x3A16 JUMP JUMPDEST SWAP6 SWAP5 POP POP POP POP POP JUMP JUMPDEST PUSH1 0x0 DUP1 PUSH1 0x40 DUP4 DUP6 SUB SLT ISZERO PUSH2 0x3FE1 JUMPI PUSH1 0x0 DUP1 REVERT JUMPDEST PUSH2 0x3FEA DUP4 PUSH2 0x3A76 JUMP JUMPDEST SWAP2 POP PUSH2 0x3FF8 PUSH1 0x20 DUP5 ADD PUSH2 0x3A76 JUMP JUMPDEST SWAP1 POP SWAP3 POP SWAP3 SWAP1 POP JUMP JUMPDEST PUSH1 0xC0 DUP2 MSTORE PUSH1 0x0 PUSH2 0x4014 PUSH1 0xC0 DUP4 ADD DUP10 PUSH2 0x3A16 JUMP JUMPDEST DUP3 DUP2 SUB PUSH1 0x20 DUP5 ADD MSTORE PUSH2 0x4026 DUP2 DUP10 PUSH2 0x3A16 JUMP JUMPDEST SWAP1 POP DUP3 DUP2 SUB PUSH1 0x40 DUP5 ADD MSTORE PUSH2 0x403A DUP2 DUP9 PUSH2 0x3A16 JUMP JUMPDEST SWAP1 POP DUP3 DUP2 SUB PUSH1 0x60 DUP5 ADD MSTORE PUSH2 0x404E DUP2 DUP8 PUSH2 0x3A16 JUMP JUMPDEST SWAP1 POP DUP3 DUP2 SUB PUSH1 0x80 DUP5 ADD MSTORE PUSH2 0x4062 DUP2 DUP7 PUSH2 0x3A16 JUMP JUMPDEST SWAP1 POP DUP3 DUP2 SUB PUSH1 0xA0 DUP5 ADD MSTORE PUSH2 0x4076 DUP2 DUP6 PUSH2 0x3A16 JUMP JUMPDEST SWAP10 SWAP9 POP POP POP POP POP POP POP POP POP JUMP JUMPDEST PUSH1 0x1 DUP2 DUP2 SHR SWAP1 DUP3 AND DUP1 PUSH2 0x4097 JUMPI PUSH1 0x7F DUP3 AND SWAP2 POP JUMPDEST PUSH1 0x20 DUP3 LT DUP2 EQ ISZERO PUSH2 0x7B6 JUMPI PUSH4 0x4E487B71 PUSH1 0xE0 SHL PUSH1 0x0 MSTORE PUSH1 0x22 PUSH1 0x4 MSTORE PUSH1 0x24 PUSH1 0x0 REVERT JUMPDEST PUSH4 0x4E487B71 PUSH1 0xE0 SHL PUSH1 0x0 MSTORE PUSH1 0x11 PUSH1 0x4 MSTORE PUSH1 0x24 PUSH1 0x0 REVERT JUMPDEST PUSH1 0x0 DUP3 NOT DUP3 GT ISZERO PUSH2 0x40E1 JUMPI PUSH2 0x40E1 PUSH2 0x40B8 JUMP JUMPDEST POP ADD SWAP1 JUMP JUMPDEST PUSH1 0x0 PUSH1 0xFF DUP3 AND PUSH1 0xFF DUP2 EQ ISZERO PUSH2 0x40FD JUMPI PUSH2 0x40FD PUSH2 0x40B8 JUMP JUMPDEST PUSH1 0x1 ADD SWAP3 SWAP2 POP POP JUMP JUMPDEST PUSH1 0x0 PUSH1 0x20 DUP3 DUP5 SUB SLT ISZERO PUSH2 0x4118 JUMPI PUSH1 0x0 DUP1 REVERT JUMPDEST DUP2 MLOAD DUP1 ISZERO ISZERO DUP2 EQ PUSH2 0x1123 JUMPI PUSH1 0x0 DUP1 REVERT JUMPDEST PUSH1 0x0 PUSH1 0xFF DUP3 AND PUSH1 0xFF DUP5 AND DUP1 PUSH1 0xFF SUB DUP3 GT ISZERO PUSH2 0x4145 JUMPI PUSH2 0x4145 PUSH2 0x40B8 JUMP JUMPDEST ADD SWAP4 SWAP3 POP POP POP JUMP JUMPDEST PUSH4 0x4E487B71 PUSH1 0xE0 SHL PUSH1 0x0 MSTORE PUSH1 0x32 PUSH1 0x4 MSTORE PUSH1 0x24 PUSH1 0x0 REVERT JUMPDEST PUSH1 0x0 PUSH1 0x20 DUP3 DUP5 SUB SLT ISZERO PUSH2 0x4175 JUMPI PUSH1 0x0 DUP1 REVERT JUMPDEST POP MLOAD SWAP2 SWAP1 POP JUMP JUMPDEST PUSH1 0x0 DUP3 DUP3 LT ISZERO PUSH2 0x418E JUMPI PUSH2 0x418E PUSH2 0x40B8 JUMP JUMPDEST POP SUB SWAP1 JUMP JUMPDEST PUSH1 0x0 DUP3 PUSH2 0x41B0 JUMPI PUSH4 0x4E487B71 PUSH1 0xE0 SHL PUSH1 0x0 MSTORE PUSH1 0x12 PUSH1 0x4 MSTORE PUSH1 0x24 PUSH1 0x0 REVERT JUMPDEST POP DIV SWAP1 JUMP JUMPDEST PUSH1 0x0 PUSH1 0x0 NOT DUP3 EQ ISZERO PUSH2 0x41C9 JUMPI PUSH2 0x41C9 PUSH2 0x40B8 JUMP JUMPDEST POP PUSH1 0x1 ADD SWAP1 JUMP JUMPDEST PUSH1 0x20 DUP1 DUP3 MSTORE PUSH1 0x18 SWAP1 DUP3 ADD MSTORE PUSH32 0x73686172652076616C75652063616E206E6F7420626520300000000000000000 PUSH1 0x40 DUP3 ADD MSTORE PUSH1 0x60 ADD SWAP1 JUMP JUMPDEST PUSH1 0x0 DUP2 PUSH1 0x0 NOT DIV DUP4 GT DUP3 ISZERO ISZERO AND ISZERO PUSH2 0x4221 JUMPI PUSH2 0x4221 PUSH2 0x40B8 JUMP JUMPDEST POP MUL SWAP1 JUMP INVALID LOG2 PUSH5 0x6970667358 0x22 SLT KECCAK256 PUSH2 0xB521 0xAA 0xAC 0xF8 DUP1 PC BYTE COINBASE 0xD0 0x27 BASEFEE 0xC7 CALLDATASIZE CODESIZE SIGNEXTEND GT INVALID 0xCE POP 0xE6 SELFDESTRUCT 0xD3 0xDC SELFBALANCE PUSH21 0x7E6B030D8F64736F6C634300080B00330000000000 ","sha1":"2e079952aab0c18a581cce1e6ef7fc8170a99121","source":"// SPDX-License-Identifier: NPOSL-3.0\n\npragma solidity ^0.8.0;\npragma abicoder v2;\n\nimport \"@openzeppelin/contracts/token/ERC20/ERC20.sol\";\n\ncontract SolidStateToken is ERC20 {\n    struct artworkMeta {\n        string title;\n        string artist;\n        string medium;\n        string year;\n        string dimensions;\n        string mediaDataPackURI;\n    }\n\n    struct buyOrder {\n        address orderOwner;\n        uint256 shareValue;\n        uint256 ethValue;\n        uint256 balance;\n        OrderState state;\n    }\n    struct sellOrder {\n        address orderOwner;\n        uint256 shareValue;\n        uint256 ethValue;\n        uint256 balance;\n        OrderState state;\n    }\n\n    enum OrderState {\n        OPEN,\n        CLOSED,\n        CANCELLED\n    }\n    struct transaction {\n        uint256 eth;\n        uint256 share;\n        uint256 buyId;\n        uint256 sellId;\n        address buyer;\n        address seller;\n        uint256 timestamp;\n    }\n\n    mapping(uint256 => transaction) private transactions;\n    uint256 transactionCount = 0;\n\n    mapping(uint256 => buyOrder) private buyOrders;\n    mapping(uint256 => sellOrder) private sellOrders;\n    uint256 buyOrderCount = 0;\n    uint256 sellOrderCount = 0;\n\n    artworkMeta public artworkmeta;\n    uint256 public initialSupply;\n    uint256 private contractSalePrice;\n    bool hasMinted = false;\n    bool public forSale = false;\n    address[] private owners;\n    uint256 ownerCount = 0;\n\n    enum OfferState {\n        FOR_SALE,\n        NOT_FOR_SALE,\n        OFFER_MADE,\n        OFFER_ACCEPTED\n    }\n    OfferState public offerState;\n\n    constructor(\n        uint256 _initialSupply,\n        uint256 _salePrice,\n        string memory _name,\n        string memory _tokenSymbol\n    ) public ERC20(_name, _tokenSymbol) {\n        initialSupply = _initialSupply;\n        contractSalePrice = _salePrice;\n        offerState = OfferState.NOT_FOR_SALE;\n        owners.push(msg.sender);\n        _mint(address(this), _initialSupply);\n    }\n\n    modifier onlyOwner() {\n        require(msg.sender == owners[ownerCount]);\n        _;\n    }\n\n    function decimals() public view virtual override returns (uint8) {\n        return 0;\n    }\n\n    function setMetaData(\n        string memory _title,\n        string memory _artist,\n        string memory _medium,\n        string memory _dimensions,\n        string memory _year,\n        string memory _mediaDataPackURI\n    ) public onlyOwner {\n        if (bytes(_title).length != 0) {\n            artworkmeta.title = _title;\n        }\n        if (bytes(_artist).length != 0) {\n            artworkmeta.artist = _artist;\n        }\n        if (bytes(_medium).length != 0) {\n            artworkmeta.medium = _medium;\n        }\n        if (bytes(_dimensions).length != 0) {\n            artworkmeta.dimensions = _dimensions;\n        }\n        if (bytes(_year).length != 0) {\n            artworkmeta.year = _year;\n        }\n        if (bytes(_mediaDataPackURI).length != 0) {\n            artworkmeta.mediaDataPackURI = _mediaDataPackURI;\n        }\n    }\n\n    function getMetaData() public view returns (artworkMeta memory) {\n        return (artworkmeta);\n    }\n\n    function getOwners() public view returns (address[] memory) {\n        return owners;\n    }\n\n    function contractReleaseTokens(address _address, uint256 _value)\n        public\n        onlyOwner\n    {\n        require(\n            IERC20(address(this)).balanceOf(address(this)) > _value,\n            \"Not Enough Tokens\"\n        );\n\n        IERC20(address(this)).transfer(_address, _value);\n    }\n\n    function contractTokenBalance() public view returns (uint256) {\n        return IERC20(address(this)).balanceOf(address(this));\n    }\n\n    function setForSaleOn() public onlyOwner {\n        offerState = OfferState.FOR_SALE;\n    }\n\n    function setForSaleOff() public onlyOwner {\n        offerState = OfferState.NOT_FOR_SALE;\n    }\n\n    function isForSale() public view returns (bool) {\n        if (offerState == OfferState.FOR_SALE) {\n            return true;\n        } else {\n            return false;\n        }\n    }\n\n    function makeOfferToBuyContract() public payable {\n        require(offerState == OfferState.FOR_SALE, \"NOT FOR SALE\");\n        offerState = OfferState.OFFER_MADE;\n        uint256 price = getContractSalePrice();\n        require(msg.value == price, \"Incorrect Price\");\n        offerState = OfferState.OFFER_ACCEPTED;\n        address payable OWNER = payable(owners[ownerCount]);\n        OWNER.transfer(msg.value);\n        owners.push(msg.sender);\n        ownerCount += 1;\n        offerState = OfferState.NOT_FOR_SALE;\n    }\n\n    function getContractSalePrice() public view returns (uint256) {\n        (\n            uint256[] memory eth,\n            uint256[] memory share,\n            ,\n            ,\n\n        ) = getTransactions();\n\n        uint256 lastPrice = 0;\n        if (eth.length > 0) {\n            lastPrice = ((eth[eth.length - 1] / share[share.length - 1]) *\n                initialSupply);\n        } else {\n            lastPrice = contractSalePrice;\n        }\n\n        return lastPrice;\n    }\n\n    function getSharePrice() public view returns (uint256) {\n        (\n            uint256[] memory eth,\n            uint256[] memory share,\n            ,\n            ,\n\n        ) = getTransactions();\n        uint256 lastPrice;\n        if (eth.length > 0) {\n            lastPrice = ((eth[eth.length - 1] / share[share.length - 1]));\n        } else {\n            lastPrice = contractSalePrice / initialSupply;\n        }\n\n        return lastPrice;\n    }\n\n    function balanceOfHeldShares() public view returns (uint256) {\n        (\n            uint256[] memory _shareValues,\n            uint256[] memory _ethValues,\n            uint256[] memory _balances,\n            uint256[] memory _ids\n        ) = getAllSellOrders();\n        uint256 total = 0;\n        for (uint8 j = 0; j < _balances.length; j++) {\n            total += _balances[j];\n        }\n        return total;\n    }\n\n    function getAllBuyOrders()\n        public\n        view\n        returns (\n            uint256[] memory,\n            uint256[] memory,\n            uint256[] memory,\n            uint256[] memory\n        )\n    {\n        uint8 c = 0;\n        for (uint8 j = 0; j < buyOrderCount; j++) {\n            if (buyOrders[j].state == OrderState.OPEN) {\n                c += 1;\n            }\n        }\n\n        uint256[] memory _shareValues = new uint256[](c);\n        uint256[] memory _ethValues = new uint256[](c);\n        uint256[] memory _balances = new uint256[](c);\n        uint256[] memory _ids = new uint256[](c);\n        c = 0;\n        for (uint8 j = 0; j < buyOrderCount; j++) {\n            if (buyOrders[j].state == OrderState.OPEN) {\n                _shareValues[c] = buyOrders[j].shareValue;\n                _ethValues[c] = buyOrders[j].ethValue;\n                _balances[c] = buyOrders[j].balance;\n                _ids[c] = j;\n                c++;\n            }\n        }\n        return (_shareValues, _ethValues, _balances, _ids);\n    }\n\n    function getBuyOrdersByAddress(address _address)\n        public\n        view\n        returns (\n            address[] memory,\n            uint256[] memory,\n            uint256[] memory,\n            uint256[] memory,\n            OrderState[] memory,\n            uint256[] memory\n        )\n    {\n        uint8 c = 0;\n        for (uint8 j = 0; j < buyOrderCount; j++) {\n            if (buyOrders[j].orderOwner == _address) {\n                c++;\n            }\n        }\n        address[] memory _orderOwners = new address[](c);\n        uint256[] memory _shareValues = new uint256[](c);\n        uint256[] memory _ethValues = new uint256[](c);\n        uint256[] memory _balances = new uint256[](c);\n        uint256[] memory _ids = new uint256[](c);\n        OrderState[] memory _states = new OrderState[](c);\n        c = 0;\n        for (uint8 j = 0; j < buyOrderCount; j++) {\n            if (buyOrders[j].orderOwner == _address) {\n                _orderOwners[c] = buyOrders[j].orderOwner;\n                _shareValues[c] = buyOrders[j].shareValue;\n                _ethValues[c] = buyOrders[j].ethValue;\n                _balances[c] = buyOrders[j].balance;\n\n                _ids[c] = j;\n                _states[c] = buyOrders[j].state;\n                c++;\n            }\n        }\n        return (\n            _orderOwners,\n            _shareValues,\n            _ethValues,\n            _balances,\n            _states,\n            _ids\n        );\n    }\n\n    function getAllSellOrders()\n        public\n        view\n        returns (\n            uint256[] memory,\n            uint256[] memory,\n            uint256[] memory,\n            uint256[] memory\n        )\n    {\n        uint8 c = 0;\n        for (uint8 j = 0; j < sellOrderCount; j++) {\n            if (sellOrders[j].state == OrderState.OPEN) {\n                c++;\n            }\n        }\n        uint256[] memory _shareValues = new uint256[](c);\n        uint256[] memory _ethValues = new uint256[](c);\n        uint256[] memory _balances = new uint256[](c);\n        uint256[] memory _ids = new uint256[](c);\n        c = 0;\n        for (uint8 j = 0; j < sellOrderCount; j++) {\n            if (sellOrders[j].state == OrderState.OPEN) {\n                _shareValues[c] = sellOrders[j].shareValue;\n                _ethValues[c] = sellOrders[j].ethValue;\n                _balances[c] = sellOrders[j].balance;\n                _ids[c] = j;\n                c++;\n            }\n        }\n        return (_shareValues, _ethValues, _balances, _ids);\n    }\n\n    function getSellOrdersByAddress(address _address)\n        public\n        view\n        returns (\n            address[] memory,\n            uint256[] memory,\n            uint256[] memory,\n            uint256[] memory,\n            OrderState[] memory,\n            uint256[] memory\n        )\n    {\n        uint8 c = 0;\n        for (uint8 j = 0; j < sellOrderCount; j++) {\n            if (sellOrders[j].orderOwner == _address) {\n                c++;\n            }\n        }\n        address[] memory _orderOwners = new address[](c);\n        uint256[] memory _shareValues = new uint256[](c);\n        uint256[] memory _ethValues = new uint256[](c);\n        uint256[] memory _balances = new uint256[](c);\n        uint256[] memory _ids = new uint256[](c);\n        OrderState[] memory _states = new OrderState[](c);\n        c = 0;\n        for (uint8 j = 0; j < sellOrderCount; j++) {\n            if (sellOrders[j].orderOwner == _address) {\n                _orderOwners[c] = sellOrders[j].orderOwner;\n                _shareValues[c] = sellOrders[j].shareValue;\n                _ethValues[c] = sellOrders[j].ethValue;\n                _balances[c] = sellOrders[j].balance;\n                _states[c] = sellOrders[j].state;\n                _ids[c] = j;\n                c++;\n            }\n        }\n        return (\n            _orderOwners,\n            _shareValues,\n            _ethValues,\n            _balances,\n            _states,\n            _ids\n        );\n    }\n\n    function placeBuyOrder(uint256 shareValue, uint256 ethValue)\n        public\n        payable\n        returns (uint256)\n    {\n        require(shareValue > 0, \"share value can not be 0\");\n\n        require(ethValue > 0, \"share value can not be 0\");\n\n        require((msg.value / shareValue) == ethValue, \"can not make order\");\n\n        buyOrders[buyOrderCount] = buyOrder(\n            msg.sender,\n            shareValue,\n            ethValue,\n            msg.value,\n            OrderState.OPEN\n        );\n\n        fillBuyOrder(buyOrderCount);\n        buyOrderCount += 1;\n        return buyOrderCount - 1;\n    }\n\n    function placeSellOrder(uint256 shareValue, uint256 ethValue)\n        public\n        returns (uint256)\n    {\n        require(shareValue > 0, \"share value can not be 0\");\n        require(ethValue > 0, \"share value can not be 0\");\n        IERC20(address(this)).transferFrom(\n            msg.sender,\n            address(this),\n            shareValue\n        );\n        sellOrders[sellOrderCount] = sellOrder(\n            msg.sender,\n            shareValue,\n            ethValue,\n            shareValue,\n            OrderState.OPEN\n        );\n\n        fillSellOrder(sellOrderCount);\n        sellOrderCount += 1;\n        return sellOrderCount - 1;\n    }\n\n    function cancelBuyOrder(uint256 id) public {\n        require(\n            buyOrders[id].orderOwner == msg.sender,\n            \"msg.sender is not order owner\"\n        );\n        require(buyOrders[id].state == OrderState.OPEN, \"order is not open\");\n\n        address payable payee = payable(msg.sender);\n        payee.transfer(buyOrders[id].balance);\n        buyOrders[id].balance = 0;\n        buyOrders[id].state = OrderState.CANCELLED;\n    }\n\n    function cancelSellOrder(uint256 id) public {\n        require(\n            sellOrders[id].orderOwner == msg.sender,\n            \"msg.sender is not order owner\"\n        );\n        require(sellOrders[id].state == OrderState.OPEN, \"order is not open\");\n\n        sellOrders[id].state = OrderState.CANCELLED;\n        IERC20(address(this)).transfer(\n            sellOrders[id].orderOwner,\n            sellOrders[id].balance\n        );\n        sellOrders[id].balance = 0;\n    }\n\n    function getHeldShares() public view returns (uint256) {\n        uint256 heldShares = 0;\n        for (uint8 j = 0; j < sellOrderCount; j++) {\n            heldShares += sellOrders[j].balance;\n        }\n        return heldShares;\n    }\n\n    function getHeldETH() public view returns (uint256) {\n        uint256 heldETH = 0;\n        for (uint8 j = 0; j < buyOrderCount; j++) {\n            heldETH += buyOrders[j].balance;\n        }\n        return heldETH;\n    }\n\n    function fillBuyOrder(uint256 bc) private {\n        for (uint8 j = 0; j < sellOrderCount; j++) {\n            if (sellOrders[j].state == OrderState.OPEN) {\n                if (buyOrders[bc].state == OrderState.OPEN) {\n                    if (sellOrders[j].ethValue == buyOrders[bc].ethValue) {\n                        address payable seller = payable(\n                            sellOrders[j].orderOwner\n                        );\n                        uint256 transferAmount = 0;\n                        if (sellOrders[j].balance >= buyOrders[bc].shareValue) {\n                            sellOrders[j].balance =\n                                sellOrders[j].balance -\n                                buyOrders[bc].shareValue;\n\n                            transferAmount = buyOrders[bc].shareValue;\n\n                            buyOrders[bc].shareValue = 0;\n\n                            buyOrders[bc].state = OrderState.CLOSED;\n\n                            if (sellOrders[j].balance == 0) {\n                                sellOrders[j].state = OrderState.CLOSED;\n                            }\n                        } else {\n                            buyOrders[bc].balance =\n                                buyOrders[bc].balance -\n                                (sellOrders[j].ethValue *\n                                    sellOrders[j].balance);\n\n                            buyOrders[bc].shareValue =\n                                buyOrders[bc].shareValue -\n                                sellOrders[j].balance;\n\n                            transferAmount = sellOrders[j].balance;\n\n                            sellOrders[j].balance = 0;\n                            sellOrders[j].state = OrderState.CLOSED;\n                            if (buyOrders[bc].balance == 0) {\n                                buyOrders[bc].state = OrderState.CLOSED;\n                            }\n                        }\n                        seller.transfer(\n                            buyOrders[bc].ethValue * transferAmount\n                        );\n\n                        IERC20(address(this)).transfer(\n                            buyOrders[bc].orderOwner,\n                            transferAmount\n                        );\n                        orderTransaction(\n                            buyOrders[bc].ethValue * transferAmount,\n                            transferAmount,\n                            bc,\n                            j,\n                            buyOrders[bc].orderOwner,\n                            sellOrders[j].orderOwner\n                        );\n                    }\n                }\n            }\n        }\n    }\n\n    function fillSellOrder(uint256 sc) private {\n        for (uint8 j = 0; j < buyOrderCount; j++) {\n            if (sellOrders[sc].state == OrderState.OPEN) {\n                if (buyOrders[j].state == OrderState.OPEN) {\n                    if (sellOrders[sc].ethValue == buyOrders[j].ethValue) {\n                        address payable seller = payable(\n                            sellOrders[sc].orderOwner\n                        );\n                        uint256 transferAmount = 0;\n                        if (sellOrders[sc].balance >= buyOrders[j].shareValue) {\n                            sellOrders[sc].balance =\n                                sellOrders[sc].balance -\n                                buyOrders[j].shareValue;\n\n                            transferAmount = buyOrders[j].shareValue;\n\n                            buyOrders[j].balance = 0;\n                            buyOrders[j].shareValue = 0;\n\n                            buyOrders[j].state = OrderState.CLOSED;\n\n                            if (sellOrders[sc].balance == 0) {\n                                sellOrders[sc].state = OrderState.CLOSED;\n                            }\n                        } else {\n                            buyOrders[j].balance =\n                                buyOrders[j].balance -\n                                (sellOrders[sc].ethValue *\n                                    sellOrders[sc].balance);\n\n                            transferAmount = sellOrders[sc].balance;\n                            buyOrders[j].shareValue =\n                                buyOrders[j].shareValue -\n                                sellOrders[sc].balance;\n\n                            sellOrders[sc].balance = 0;\n                            sellOrders[sc].state = OrderState.CLOSED;\n                            if (buyOrders[j].balance == 0) {\n                                buyOrders[j].state = OrderState.CLOSED;\n                            }\n                        }\n\n                        seller.transfer(buyOrders[j].ethValue * transferAmount);\n                        IERC20(address(this)).transfer(\n                            buyOrders[j].orderOwner,\n                            transferAmount\n                        );\n                        orderTransaction(\n                            buyOrders[j].ethValue * transferAmount,\n                            transferAmount,\n                            j,\n                            sc,\n                            buyOrders[j].orderOwner,\n                            sellOrders[sc].orderOwner\n                        );\n                    }\n                }\n            }\n        }\n    }\n\n    function orderTransaction(\n        uint256 eth,\n        uint256 share,\n        uint256 buyId,\n        uint256 sellId,\n        address buyer,\n        address seller\n    ) internal {\n        transactions[transactionCount].eth = eth;\n        transactions[transactionCount].share = share;\n        transactions[transactionCount].timestamp = block.timestamp;\n        transactions[transactionCount].buyId = buyId;\n        transactions[transactionCount].sellId = sellId;\n        transactions[transactionCount].buyer = buyer;\n        transactions[transactionCount].seller = seller;\n        transactionCount++;\n    }\n\n    function getTransactions()\n        public\n        view\n        returns (\n            uint256[] memory,\n            uint256[] memory,\n            uint256[] memory,\n            address[] memory,\n            address[] memory\n        )\n    {\n        uint256 c = 0;\n        for (uint8 j = 0; j < transactionCount; j++) {\n            c++;\n        }\n        uint256[] memory eth = new uint256[](c);\n        uint256[] memory share = new uint256[](c);\n        uint256[] memory timestamp = new uint256[](c);\n        address[] memory buyer = new address[](c);\n        address[] memory seller = new address[](c);\n        c = 0;\n        for (uint8 j = 0; j < transactionCount; j++) {\n            eth[c] = transactions[j].eth;\n            share[c] = transactions[j].share;\n            timestamp[c] = transactions[j].timestamp;\n            buyer[c] = transactions[j].buyer;\n            seller[c] = transactions[j].seller;\n            c++;\n        }\n        return (eth, share, timestamp, buyer, seller);\n    }\n}\n","sourcePath":"contracts/SolidStateToken.sol","type":"contract","deployment":{"address":"0xB108A1fEFb64d6165e4BdC2926205Eb0858181a2","chainid":"42","blockHeight":31399716}}