{"abi":[{"inputs":[],"stateMutability":"nonpayable","type":"constructor","name":"constructor"},{"inputs":[{"internalType":"address","name":"_artWorkAddress","type":"address"},{"internalType":"uint256","name":"_collectionId","type":"uint256"}],"name":"addArtWork","outputs":[],"stateMutability":"nonpayable","type":"function"},{"inputs":[{"internalType":"string","name":"_collectionName","type":"string"}],"name":"addCollection","outputs":[],"stateMutability":"nonpayable","type":"function"},{"inputs":[{"internalType":"uint256","name":"id","type":"uint256"}],"name":"cancelBuyOrder","outputs":[],"stateMutability":"nonpayable","type":"function"},{"inputs":[{"internalType":"uint256","name":"id","type":"uint256"}],"name":"cancelSellOrder","outputs":[],"stateMutability":"nonpayable","type":"function"},{"inputs":[{"internalType":"string","name":"a","type":"string"},{"internalType":"string","name":"b","type":"string"}],"name":"compareStrings","outputs":[{"internalType":"bool","name":"","type":"bool"}],"stateMutability":"pure","type":"function"},{"inputs":[],"name":"getAllArtWorks","outputs":[{"internalType":"address[]","name":"","type":"address[]"},{"internalType":"bool[]","name":"","type":"bool[]"}],"stateMutability":"view","type":"function"},{"inputs":[{"internalType":"uint256","name":"_Id","type":"uint256"}],"name":"getAllArtWorksByCollectionId","outputs":[{"internalType":"address[]","name":"","type":"address[]"},{"internalType":"bool[]","name":"","type":"bool[]"}],"stateMutability":"view","type":"function"},{"inputs":[{"internalType":"address","name":"_artworkAddress","type":"address"}],"name":"getAllBuyOrders","outputs":[{"internalType":"uint256[]","name":"","type":"uint256[]"},{"internalType":"uint256[]","name":"","type":"uint256[]"},{"internalType":"uint256[]","name":"","type":"uint256[]"},{"internalType":"uint256[]","name":"","type":"uint256[]"}],"stateMutability":"view","type":"function"},{"inputs":[{"internalType":"address","name":"_artworkAddress","type":"address"}],"name":"getAllSellOrders","outputs":[{"internalType":"uint256[]","name":"","type":"uint256[]"},{"internalType":"uint256[]","name":"","type":"uint256[]"},{"internalType":"uint256[]","name":"","type":"uint256[]"},{"internalType":"uint256[]","name":"","type":"uint256[]"}],"stateMutability":"view","type":"function"},{"inputs":[],"name":"getArtWorks","outputs":[{"internalType":"address[]","name":"","type":"address[]"}],"stateMutability":"view","type":"function"},{"inputs":[{"internalType":"uint256","name":"_Id","type":"uint256"}],"name":"getArtWorksByCollectionId","outputs":[{"internalType":"address[]","name":"","type":"address[]"}],"stateMutability":"view","type":"function"},{"inputs":[{"internalType":"address","name":"_artworkAddress","type":"address"},{"internalType":"address","name":"_address","type":"address"}],"name":"getBuyOrdersByAddress","outputs":[{"internalType":"address[]","name":"","type":"address[]"},{"internalType":"uint256[]","name":"","type":"uint256[]"},{"internalType":"uint256[]","name":"","type":"uint256[]"},{"internalType":"uint256[]","name":"","type":"uint256[]"},{"internalType":"enum SolidStateGallery.OrderState[]","name":"","type":"uint8[]"},{"internalType":"uint256[]","name":"","type":"uint256[]"}],"stateMutability":"view","type":"function"},{"inputs":[{"internalType":"string","name":"_collectionName","type":"string"}],"name":"getCollectionIdByName","outputs":[{"internalType":"uint256","name":"","type":"uint256"}],"stateMutability":"view","type":"function"},{"inputs":[],"name":"getCollections","outputs":[{"internalType":"string[]","name":"","type":"string[]"}],"stateMutability":"view","type":"function"},{"inputs":[{"internalType":"address","name":"_artworkAddress","type":"address"}],"name":"getHeldETH","outputs":[{"internalType":"uint256","name":"","type":"uint256"}],"stateMutability":"view","type":"function"},{"inputs":[{"internalType":"address","name":"_artworkAddress","type":"address"}],"name":"getHeldShares","outputs":[{"internalType":"uint256","name":"","type":"uint256"}],"stateMutability":"view","type":"function"},{"inputs":[],"name":"getOwners","outputs":[{"internalType":"address[]","name":"","type":"address[]"}],"stateMutability":"view","type":"function"},{"inputs":[{"internalType":"address","name":"_artworkAddress","type":"address"},{"internalType":"address","name":"_address","type":"address"}],"name":"getSellOrdersByAddress","outputs":[{"internalType":"address[]","name":"","type":"address[]"},{"internalType":"uint256[]","name":"","type":"uint256[]"},{"internalType":"uint256[]","name":"","type":"uint256[]"},{"internalType":"uint256[]","name":"","type":"uint256[]"},{"internalType":"enum SolidStateGallery.OrderState[]","name":"","type":"uint8[]"},{"internalType":"uint256[]","name":"","type":"uint256[]"}],"stateMutability":"view","type":"function"},{"inputs":[{"internalType":"address","name":"_artworkAddress","type":"address"}],"name":"getTransactions","outputs":[{"internalType":"uint256[]","name":"","type":"uint256[]"},{"internalType":"uint256[]","name":"","type":"uint256[]"},{"internalType":"uint256[]","name":"","type":"uint256[]"},{"internalType":"uint256[]","name":"","type":"uint256[]"},{"internalType":"address[]","name":"","type":"address[]"},{"internalType":"address[]","name":"","type":"address[]"}],"stateMutability":"view","type":"function"},{"inputs":[{"internalType":"address","name":"_newOwnerAddress","type":"address"}],"name":"newOwner","outputs":[],"stateMutability":"nonpayable","type":"function"},{"inputs":[{"internalType":"address","name":"_artworkAddress","type":"address"},{"internalType":"uint256","name":"shareValue","type":"uint256"},{"internalType":"uint256","name":"ethValue","type":"uint256"}],"name":"placeBuyOrder","outputs":[{"internalType":"uint256","name":"","type":"uint256"}],"stateMutability":"payable","type":"function"},{"inputs":[{"internalType":"address","name":"_artworkAddress","type":"address"},{"internalType":"uint256","name":"shareValue","type":"uint256"},{"internalType":"uint256","name":"ethValue","type":"uint256"}],"name":"placeSellOrder","outputs":[{"internalType":"uint256","name":"","type":"uint256"}],"stateMutability":"nonpayable","type":"function"},{"inputs":[{"internalType":"address","name":"_artWorkContractAddress","type":"address"},{"internalType":"bool","name":"_visibility","type":"bool"}],"name":"setArtWorkVisibility","outputs":[],"stateMutability":"nonpayable","type":"function"}],"bytecode":"608060405260006001556000600455600060055534801561001f57600080fd5b50600c805460018101825560009182527fdf6966c971051c3d54ec59162606531493a51404a002842f56009d7e5cf4a8c70180546001600160a01b03191633179055600a819055600d819055600b55613cfd8061007d6000396000f3fe6080604052600436106101405760003560e01c806389a5c415116100b6578063b92c1e8f1161006f578063b92c1e8f146103a1578063be5d147f146103c1578063bed34bba146103e1578063c3dcad9714610411578063e7c06a1c14610431578063f437b29b1461045157600080fd5b806389a5c415146102dc5780639296e00d1461030c5780639e0b43cc1461032c578063a0e67e2b1461034c578063ab3600b514610361578063b8aeb2fd1461038157600080fd5b8063382d041211610108578063382d041214610215578063431e8d631461023757806346e63586146102575780634fb93e7c14610279578063592e03551461029c57806385952454146102bc57600080fd5b80630f8cda20146101455780631a46e42a14610180578063210bd526146101a257806334fa4449146101d4578063360a67c9146101f4575b600080fd5b34801561015157600080fd5b5061016561016036600461359c565b610471565b60405161017796959493929190613632565b60405180910390f35b34801561018c57600080fd5b506101a061019b3660046136b4565b61090c565b005b3480156101ae57600080fd5b506101c26101bd3660046136cd565b610a99565b60405161017796959493929190613716565b3480156101e057600080fd5b506101a06101ef3660046137da565b610f4b565b610207610202366004613804565b611069565b604051908152602001610177565b34801561022157600080fd5b5061022a6111f0565b6040516101779190613837565b34801561024357600080fd5b506102076102523660046138ec565b61134a565b34801561026357600080fd5b5061026c61147a565b6040516101779190613950565b34801561028557600080fd5b5061028e6115a8565b6040516101779291906139ca565b3480156102a857600080fd5b506101a06102b73660046138ec565b6116f2565b3480156102c857600080fd5b506101a06102d736600461359c565b611871565b3480156102e857600080fd5b506102fc6102f736600461359c565b61190d565b6040516101779493929190613a23565b34801561031857600080fd5b506102fc61032736600461359c565b611c39565b34801561033857600080fd5b5061028e6103473660046136b4565b611f4c565b34801561035857600080fd5b5061022a612101565b34801561036d57600080fd5b5061022a61037c3660046136b4565b612163565b34801561038d57600080fd5b506101a061039c366004613a8c565b6122ea565b3480156103ad57600080fd5b506102076103bc36600461359c565b61234a565b3480156103cd57600080fd5b506101a06103dc3660046136b4565b6123b7565b3480156103ed57600080fd5b506104016103fc366004613ac3565b6124f3565b6040519015158152602001610177565b34801561041d57600080fd5b506101c261042c3660046136cd565b61254c565b34801561043d57600080fd5b5061020761044c36600461359c565b6129e6565b34801561045d57600080fd5b5061020761046c366004613804565b612a53565b6060806060806060806000805b6001548160ff1610156104d15760ff81166000908152602081905260409020546001600160a01b038a8116911614156104bf57816104bb81613b3c565b9250505b806104c981613b57565b91505061047e565b506000816001600160401b038111156104ec576104ec61384a565b604051908082528060200260200182016040528015610515578160200160208202803683370190505b5090506000826001600160401b038111156105325761053261384a565b60405190808252806020026020018201604052801561055b578160200160208202803683370190505b5090506000836001600160401b038111156105785761057861384a565b6040519080825280602002602001820160405280156105a1578160200160208202803683370190505b5090506000846001600160401b038111156105be576105be61384a565b6040519080825280602002602001820160405280156105e7578160200160208202803683370190505b5090506000856001600160401b038111156106045761060461384a565b60405190808252806020026020018201604052801561062d578160200160208202803683370190505b5090506000866001600160401b0381111561064a5761064a61384a565b604051908082528060200260200182016040528015610673578160200160208202803683370190505b5090506000876001600160401b038111156106905761069061384a565b6040519080825280602002602001820160405280156106b9578160200160208202803683370190505b5090506000975060005b6001548160ff1610156108f5578f6001600160a01b03166000808360ff16815260200190815260200160002060000160009054906101000a90046001600160a01b03166001600160a01b031614156108e35760ff811660009081526020819052604090205488516001600160a01b039091169089908b90811061074857610748613b77565b6001600160a01b0390921660209283029190910182015260ff82166000908152908190526040902060010154875188908b90811061078857610788613b77565b6020026020010181815250506000808260ff16815260200190815260200160002060020154868a815181106107bf576107bf613b77565b6020026020010181815250506000808260ff16815260200190815260200160002060030154858a815181106107f6576107f6613b77565b6020026020010181815250506000808260ff16815260200190815260200160002060040154848a8151811061082d5761082d613b77565b6020026020010181815250506000808260ff16815260200190815260200160002060050160009054906101000a90046001600160a01b0316838a8151811061087757610877613b77565b6001600160a01b0392831660209182029290920181019190915260ff83166000908152908190526040902060060154835191169083908b9081106108bd576108bd613b77565b6001600160a01b0390921660209283029190910190910152886108df81613b3c565b9950505b806108ed81613b57565b9150506106c3565b50949e939d50919b50995097509095509350505050565b6000818152600360205260409020600101546001600160a01b0316331461097a5760405162461bcd60e51b815260206004820152601d60248201527f6d73672e73656e646572206973206e6f74206f72646572206f776e657200000060448201526064015b60405180910390fd5b60008181526003602052604081206005015460ff1660028111156109a0576109a0613700565b146109e15760405162461bcd60e51b815260206004820152601160248201527037b93232b91034b9903737ba1037b832b760791b6044820152606401610971565b6000818152600360205260409081902060058101805460ff1916600217905580546001820154600492830154935163a9059cbb60e01b81526001600160a01b03918216938101939093526024830193909352919091169063a9059cbb906044016020604051808303816000875af1158015610a60573d6000803e3d6000fd5b505050506040513d601f19601f82011682018060405250810190610a849190613b8d565b50600090815260036020526040812060040155565b6060806060806060806000805b6005548160ff161015610b225760ff81166000908152600360205260409020546001600160a01b038b811691161415610b105760ff81166000908152600360205260409020600101546001600160a01b038a811691161415610b105781610b0c81613b57565b9250505b80610b1a81613b57565b915050610aa6565b5060008160ff166001600160401b03811115610b4057610b4061384a565b604051908082528060200260200182016040528015610b69578160200160208202803683370190505b50905060008260ff166001600160401b03811115610b8957610b8961384a565b604051908082528060200260200182016040528015610bb2578160200160208202803683370190505b50905060008360ff166001600160401b03811115610bd257610bd261384a565b604051908082528060200260200182016040528015610bfb578160200160208202803683370190505b50905060008460ff166001600160401b03811115610c1b57610c1b61384a565b604051908082528060200260200182016040528015610c44578160200160208202803683370190505b50905060008560ff166001600160401b03811115610c6457610c6461384a565b604051908082528060200260200182016040528015610c8d578160200160208202803683370190505b50905060008660ff166001600160401b03811115610cad57610cad61384a565b604051908082528060200260200182016040528015610cd6578160200160208202803683370190505b5090506000965060005b6005548160ff161015610f33578e6001600160a01b0316600360008360ff16815260200190815260200160002060010160009054906101000a90046001600160a01b03166001600160a01b03161415610f21578f6001600160a01b0316600360008360ff16815260200190815260200160002060000160009054906101000a90046001600160a01b03166001600160a01b03161415610f215760ff80821660009081526003602052604090206001015488516001600160a01b03909116918991908b16908110610db257610db2613b77565b60200260200101906001600160a01b031690816001600160a01b031681525050600360008260ff16815260200190815260200160002060020154868960ff1681518110610e0157610e01613b77565b602002602001018181525050600360008260ff16815260200190815260200160002060030154858960ff1681518110610e3c57610e3c613b77565b602002602001018181525050600360008260ff16815260200190815260200160002060040154848960ff1681518110610e7757610e77613b77565b602002602001018181525050600360008260ff16815260200190815260200160002060050160009054906101000a900460ff16828960ff1681518110610ebf57610ebf613b77565b60200260200101906002811115610ed857610ed8613700565b90816002811115610eeb57610eeb613700565b815250508060ff16838960ff1681518110610f0857610f08613b77565b602090810291909101015287610f1d81613b57565b9850505b80610f2b81613b57565b915050610ce0565b50949e939d50919b5099509197509095509350505050565b600c600d5481548110610f6057610f60613b77565b6000918252602090912001546001600160a01b03163314610f8057600080fd5b60005b600a54811015611002576000818152600660205260409020546001600160a01b0384811691161415610ff05760405162461bcd60e51b8152602060048201526016602482015275105c9d081ddbdc9ac8185b1c9958591e48185919195960521b6044820152606401610971565b80610ffa81613b3c565b915050610f83565b50600a8054600090815260066020908152604080832080546001600160a01b0319166001600160a01b0388169081179091558454845260088352818420869055835260099091528120805460ff191690558154919061106083613b3c565b91905055505050565b600080831161108a5760405162461bcd60e51b815260040161097190613baa565b600082116110aa5760405162461bcd60e51b815260040161097190613baa565b816110b58434613be1565b146110f75760405162461bcd60e51b815260206004820152601260248201527131b0b7103737ba1036b0b5b29037b93232b960711b6044820152606401610971565b6040805160c0810182526001600160a01b038681168252336020808401918252838501888152606085018881523460808701908152600060a0880181815260048054835260029687905299909120885181549089166001600160a01b031991821617825596516001808301805492909a1691909816179097559251868501559051600386015551958401959095559351600583018054949593949193909260ff19909216919084908111156111ae576111ae613700565b02179055509050506111c1600454612bfd565b6001600460008282546111d49190613c03565b90915550506004546111e890600190613c1b565b949350505050565b60606000805b600a54811015611252576000818152600660209081526040808320546001600160a01b03168352600990915290205460ff16151560011415611240578161123c81613b3c565b9250505b8061124a81613b3c565b9150506111f6565b506000816001600160401b0381111561126d5761126d61384a565b604051908082528060200260200182016040528015611296578160200160208202803683370190505b5090506000915060005b600a54811015611343576000818152600660209081526040808320546001600160a01b03168352600990915290205460ff161515600114156113315760008181526006602052604090205482516001600160a01b039091169083908590811061130b5761130b613b77565b6001600160a01b03909216602092830291909101909101528261132d81613b3c565b9350505b8061133b81613b3c565b9150506112a0565b5092915050565b600080805b600b5481101561141e57600081815260076020526040902080546113fb919061137790613c32565b80601f01602080910402602001604051908101604052809291908181526020018280546113a390613c32565b80156113f05780601f106113c5576101008083540402835291602001916113f0565b820191906000526020600020905b8154815290600101906020018083116113d357829003601f168201915b5050505050856124f3565b15156001141561140c579392505050565b8061141681613b3c565b91505061134f565b506001811515146114715760405162461bcd60e51b815260206004820152601a60248201527f4e6f20436f6c6c656374696f6e2042792054686174204e616d650000000000006044820152606401610971565b50600092915050565b60606000600b546001600160401b038111156114985761149861384a565b6040519080825280602002602001820160405280156114cb57816020015b60608152602001906001900390816114b65790505b50905060005b600b548110156115a257600081815260076020526040902080546114f490613c32565b80601f016020809104026020016040519081016040528092919081815260200182805461152090613c32565b801561156d5780601f106115425761010080835404028352916020019161156d565b820191906000526020600020905b81548152906001019060200180831161155057829003601f168201915b505050505082828151811061158457611584613b77565b6020026020010181905250808061159a90613b3c565b9150506114d1565b50919050565b6060806000600a546001600160401b038111156115c7576115c761384a565b6040519080825280602002602001820160405280156115f0578160200160208202803683370190505b5090506000600a546001600160401b0381111561160f5761160f61384a565b604051908082528060200260200182016040528015611638578160200160208202803683370190505b50905060005b600a548110156116e85760008181526006602052604090205483516001600160a01b039091169084908390811061167757611677613b77565b6001600160a01b03928316602091820292909201810191909152600083815260068252604080822054909316815260099091522054825160ff909116908390839081106116c6576116c6613b77565b91151560209283029190910190910152806116e081613b3c565b91505061163e565b5090939092509050565b600c600d548154811061170757611707613b77565b6000918252602090912001546001600160a01b0316331461172757600080fd5b60005b600b5481101561183557600081815260076020526040902080546117d6919061175290613c32565b80601f016020809104026020016040519081016040528092919081815260200182805461177e90613c32565b80156117cb5780601f106117a0576101008083540402835291602001916117cb565b820191906000526020600020905b8154815290600101906020018083116117ae57829003601f168201915b5050505050836124f3565b156118235760405162461bcd60e51b815260206004820152601b60248201527f436f6c6c656374696f6e20697320616c726561647920616464656400000000006044820152606401610971565b8061182d81613b3c565b91505061172a565b50600b5460009081526007602090815260409091208251611858928401906134e7565b50600b805490600061186983613b3c565b919050555050565b600c600d548154811061188657611886613b77565b6000918252602090912001546001600160a01b031633146118a657600080fd5b600d80549060006118b683613b3c565b9091555050600c80546001810182556000919091527fdf6966c971051c3d54ec59162606531493a51404a002842f56009d7e5cf4a8c70180546001600160a01b0319166001600160a01b0392909216919091179055565b6060806060806000805b6004548160ff16101561199f57600060ff8083166000908152600260208190526040909120600501549091169081111561195357611953613700565b141561198d5760ff81166000908152600260205260409020546001600160a01b038881169116141561198d5761198a600183613c67565b91505b8061199781613b57565b915050611917565b5060008160ff166001600160401b038111156119bd576119bd61384a565b6040519080825280602002602001820160405280156119e6578160200160208202803683370190505b50905060008260ff166001600160401b03811115611a0657611a0661384a565b604051908082528060200260200182016040528015611a2f578160200160208202803683370190505b50905060008360ff166001600160401b03811115611a4f57611a4f61384a565b604051908082528060200260200182016040528015611a78578160200160208202803683370190505b50905060008460ff166001600160401b03811115611a9857611a9861384a565b604051908082528060200260200182016040528015611ac1578160200160208202803683370190505b5090506000945060005b6004548160ff161015611c2857600060ff80831660009081526002602081905260409091206005015490911690811115611b0757611b07613700565b1415611c165760ff81166000908152600260205260409020546001600160a01b038c811691161415611c1657600260008260ff16815260200190815260200160002060020154858760ff1681518110611b6257611b62613b77565b602002602001018181525050600260008260ff16815260200190815260200160002060030154848760ff1681518110611b9d57611b9d613b77565b602002602001018181525050600260008260ff16815260200190815260200160002060040154838760ff1681518110611bd857611bd8613b77565b6020026020010181815250508060ff16828760ff1681518110611bfd57611bfd613b77565b602090810291909101015285611c1281613b57565b9650505b80611c2081613b57565b915050611acb565b509299919850965090945092505050565b6060806060806000805b6005548160ff161015611cc75760ff81166000908152600360205260409020546001600160a01b0388811691161415611cb557600060ff808316600090815260036020526040902060050154166002811115611ca157611ca1613700565b1415611cb55781611cb181613b57565b9250505b80611cbf81613b57565b915050611c43565b5060008160ff166001600160401b03811115611ce557611ce561384a565b604051908082528060200260200182016040528015611d0e578160200160208202803683370190505b50905060008260ff166001600160401b03811115611d2e57611d2e61384a565b604051908082528060200260200182016040528015611d57578160200160208202803683370190505b50905060008360ff166001600160401b03811115611d7757611d7761384a565b604051908082528060200260200182016040528015611da0578160200160208202803683370190505b50905060008460ff166001600160401b03811115611dc057611dc061384a565b604051908082528060200260200182016040528015611de9578160200160208202803683370190505b5090506000945060005b6005548160ff161015611c285760ff81166000908152600360205260409020546001600160a01b038c811691161415611f3a57600060ff808316600090815260036020526040902060050154166002811115611e5157611e51613700565b1415611f3a57600360008260ff16815260200190815260200160002060020154858760ff1681518110611e8657611e86613b77565b602002602001018181525050600360008260ff16815260200190815260200160002060030154848760ff1681518110611ec157611ec1613b77565b602002602001018181525050600360008260ff16815260200190815260200160002060040154838760ff1681518110611efc57611efc613b77565b6020026020010181815250508060ff16828760ff1681518110611f2157611f21613b77565b602090810291909101015285611f3681613b57565b9650505b80611f4481613b57565b915050611df3565b6060806000805b600a54811015611f9357600081815260086020526040902054851415611f815781611f7d81613b3c565b9250505b80611f8b81613b3c565b915050611f53565b506000816001600160401b03811115611fae57611fae61384a565b604051908082528060200260200182016040528015611fd7578160200160208202803683370190505b5090506000826001600160401b03811115611ff457611ff461384a565b60405190808252806020026020018201604052801561201d578160200160208202803683370190505b5090506000925060005b600a548110156120f5576000818152600860205260409020548714156120e35760008181526006602052604090205483516001600160a01b039091169084908690811061207657612076613b77565b6001600160a01b03928316602091820292909201810191909152600083815260068252604080822054909316815260099091522054825160ff909116908390869081106120c5576120c5613b77565b91151560209283029190910190910152836120df81613b3c565b9450505b806120ed81613b3c565b915050612027565b50909590945092505050565b6060600c80548060200260200160405190810160405280929190818152602001828054801561215957602002820191906000526020600020905b81546001600160a01b0316815260019091019060200180831161213b575b5050505050905090565b60606000805b600a548110156121db576000818152600660209081526040808320546001600160a01b03168352600990915290205460ff161515600114156121c9576000818152600860205260409020548414156121c957816121c581613b3c565b9250505b806121d381613b3c565b915050612169565b506000816001600160401b038111156121f6576121f661384a565b60405190808252806020026020018201604052801561221f578160200160208202803683370190505b5090506000915060005b600a548110156122e2576000818152600660209081526040808320546001600160a01b03168352600990915290205460ff161515600114156122d0576000818152600860205260409020548514156122d05760008181526006602052604090205482516001600160a01b03909116908390859081106122aa576122aa613b77565b6001600160a01b0390921660209283029190910190910152826122cc81613b3c565b9350505b806122da81613b3c565b915050612229565b509392505050565b600c600d54815481106122ff576122ff613b77565b6000918252602090912001546001600160a01b0316331461231f57600080fd5b6001600160a01b03919091166000908152600960205260409020805460ff1916911515919091179055565b600080805b6005548160ff1610156113435760ff81166000908152600360205260409020546001600160a01b03858116911614156123a55760ff81166000908152600360205260409020600401546123a29083613c03565b91505b806123af81613b57565b91505061234f565b6000818152600260205260409020600101546001600160a01b031633146124205760405162461bcd60e51b815260206004820152601d60248201527f6d73672e73656e646572206973206e6f74206f72646572206f776e65720000006044820152606401610971565b600081815260026020819052604082206005015460ff169081111561244757612447613700565b146124885760405162461bcd60e51b815260206004820152601160248201527037b93232b91034b9903737ba1037b832b760791b6044820152606401610971565b6000818152600260205260408082206004015490513392839280156108fc02929091818181858888f193505050501580156124c7573d6000803e3d6000fd5b50506000908152600260208190526040822060048101929092556005909101805460ff19169091179055565b6000816040516020016125069190613c8c565b604051602081830303815290604052805190602001208360405160200161252d9190613c8c565b6040516020818303038152906040528051906020012014905092915050565b6060806060806060806000805b6004548160ff1610156125d55760ff81166000908152600260205260409020600101546001600160a01b038a8116911614156125c35760ff81166000908152600260205260409020546001600160a01b038b8116911614156125c357816125bf81613b57565b9250505b806125cd81613b57565b915050612559565b5060008160ff166001600160401b038111156125f3576125f361384a565b60405190808252806020026020018201604052801561261c578160200160208202803683370190505b50905060008260ff166001600160401b0381111561263c5761263c61384a565b604051908082528060200260200182016040528015612665578160200160208202803683370190505b50905060008360ff166001600160401b038111156126855761268561384a565b6040519080825280602002602001820160405280156126ae578160200160208202803683370190505b50905060008460ff166001600160401b038111156126ce576126ce61384a565b6040519080825280602002602001820160405280156126f7578160200160208202803683370190505b50905060008560ff166001600160401b038111156127175761271761384a565b604051908082528060200260200182016040528015612740578160200160208202803683370190505b50905060008660ff166001600160401b038111156127605761276061384a565b604051908082528060200260200182016040528015612789578160200160208202803683370190505b5090506000965060005b6004548160ff161015610f33578e6001600160a01b0316600260008360ff16815260200190815260200160002060010160009054906101000a90046001600160a01b03166001600160a01b031614156129d4578f6001600160a01b0316600260008360ff16815260200190815260200160002060000160009054906101000a90046001600160a01b03166001600160a01b031614156129d45760ff80821660009081526002602052604090206001015488516001600160a01b03909116918991908b1690811061286557612865613b77565b60200260200101906001600160a01b031690816001600160a01b031681525050600260008260ff16815260200190815260200160002060020154868960ff16815181106128b4576128b4613b77565b602002602001018181525050600260008260ff16815260200190815260200160002060030154858960ff16815181106128ef576128ef613b77565b602002602001018181525050600260008260ff16815260200190815260200160002060040154848960ff168151811061292a5761292a613b77565b6020026020010181815250508060ff16838960ff168151811061294f5761294f613b77565b602002602001018181525050600260008260ff16815260200190815260200160002060050160009054906101000a900460ff16828960ff168151811061299757612997613b77565b602002602001019060028111156129b0576129b0613700565b908160028111156129c3576129c3613700565b905250876129d081613b57565b9850505b806129de81613b57565b915050612793565b600080805b6004548160ff1610156113435760ff81166000908152600260205260409020546001600160a01b0385811691161415612a415760ff8116600090815260026020526040902060040154612a3e9083613c03565b91505b80612a4b81613b57565b9150506129eb565b6000808311612a745760405162461bcd60e51b815260040161097190613baa565b60008211612a945760405162461bcd60e51b815260040161097190613baa565b6040516323b872dd60e01b8152336004820152306024820152604481018490526001600160a01b038516906323b872dd906064016020604051808303816000875af1158015612ae7573d6000803e3d6000fd5b505050506040513d601f19601f82011682018060405250810190612b0b9190613b8d565b506040805160c0810182526001600160a01b03868116825233602080840191825283850188815260608501888152608086018a8152600060a0880181815260058054835260039687905299909120885181549089166001600160a01b031991821617825596516001808301805492909a16919098161790975592516002808801919091559151938601939093559151600485015551948301805494959394909260ff19909116918490811115612bc357612bc3613700565b0217905550905050612bd6600554613019565b600160056000828254612be99190613c03565b90915550506005546111e890600190613c1b565b60005b6005548160ff16101561301557600060ff808316600090815260036020526040902060050154166002811115612c3857612c38613700565b141561300357600082815260026020819052604082206005015460ff1690811115612c6557612c65613700565b14156130035760008281526002602090815260408083205460ff851684526003909252909120546001600160a01b039081169116141561300357600082815260026020908152604080832060039081015460ff861685529281905292209091015414156130035760ff811660008181526003602081815260408084206001810154888652600280855292862090920154958552929091526004909101546001600160a01b039091169211612dbe5760008481526002602081815260408084209092015460ff871684526003909152912060040154612d439190613c1b565b60ff8416600081815260036020818152604080842060049081019687558a8552600280845291852091820180549183018690558590556005909101805460ff191660011790559390925290529054909150612db95760ff83166000908152600360205260409020600501805460ff191660011790555b612eaf565b60ff831660009081526003602081905260409091206004810154910154612de59190613ca8565b600085815260026020526040902060040154612e019190613c1b565b600085815260026020818152604080842060048082019690965560ff891685526003835290842090940154928890528190529190910154612e429190613c1b565b60008581526002602081815260408084208084019590955560ff8816845260038252832060048082018054908690556005909201805460ff1916600117905593899052919052910154909150612eaf576000848152600260205260409020600501805460ff191660011790555b6000848152600260205260409020600301546001600160a01b038316906108fc90612edb908490613ca8565b6040518115909202916000818181858888f19350505050158015612f03573d6000803e3d6000fd5b50600084815260026020526040908190208054600190910154915163a9059cbb60e01b81526001600160a01b0392831660048201526024810184905291169063a9059cbb906044016020604051808303816000875af1158015612f6a573d6000803e3d6000fd5b505050506040513d601f19601f82011682018060405250810190612f8e9190613b8d565b5060008481526002602052604090208054600390910154613000916001600160a01b031690612fbe908490613ca8565b600087815260026020908152604080832060019081015460ff8b168086526003909452919093209092015486928a92916001600160a01b03918216911661343e565b50505b8061300d81613b57565b915050612c00565b5050565b60005b6004548160ff1610156130155760008281526003602052604081206005015460ff16600281111561304f5761304f613700565b141561342c57600060ff8083166000908152600260208190526040909120600501549091169081111561308457613084613700565b141561342c5760ff81166000908152600260209081526040808320548584526003909252909120546001600160a01b039081169116141561342c5760ff8116600090815260026020908152604080832060039081015486855292819052922090910154141561342c576000828152600360208181526040808420600181015460ff87168652600280855292862090920154878652939092526004909101546001600160a01b039091169291116131da5760ff831660009081526002602081815260408084209092015487845260039091529120600401546131659190613c1b565b6000858152600360208181526040808420600490810195865560ff89168552600280845291852091820180549183018690558590556005909101805460ff19166001179055928890525290549091506131d5576000848152600360205260409020600501805460ff191660011790555b6132ce565b600084815260036020819052604090912060048101549101546131fd9190613ca8565b60ff841660009081526002602052604090206004015461321d9190613c1b565b60ff841660008181526002602081815260408084206004808201979097558a8552600383529084209095015493909252908190529190910154909150613264908290613c1b565b60ff841660008181526002602081815260408084208084019690965589845260038252832060048082018590556005909101805460ff1916600117905593909252905201546132ce5760ff83166000908152600260205260409020600501805460ff191660011790555b60ff83166000908152600260205260409020600301546001600160a01b038316906108fc906132fe908490613ca8565b6040518115909202916000818181858888f19350505050158015613326573d6000803e3d6000fd5b5060ff8316600090815260026020526040908190208054600190910154915163a9059cbb60e01b81526001600160a01b0392831660048201526024810184905291169063a9059cbb906044016020604051808303816000875af1158015613391573d6000803e3d6000fd5b505050506040513d601f19601f820116820180604052508101906133b59190613b8d565b5060ff831660009081526002602052604090208054600390910154613429916001600160a01b0316906133e9908490613ca8565b60ff861660008181526002602090815260408083206001908101548c855260039093529220909101548692918a916001600160a01b03918216911661343e565b50505b8061343681613b57565b91505061301c565b6001805460009081526020819052604080822080546001600160a01b03808d166001600160a01b0319928316179092558454845282842085018b9055845484528284206002018a9055845484528284206003018990558454845282842060040188905584548452828420600501805488841690831617905584548452918320600601805491861691909216179055815491906134d983613b3c565b919050555050505050505050565b8280546134f390613c32565b90600052602060002090601f016020900481019282613515576000855561355b565b82601f1061352e57805160ff191683800117855561355b565b8280016001018555821561355b579182015b8281111561355b578251825591602001919060010190613540565b5061356792915061356b565b5090565b5b80821115613567576000815560010161356c565b80356001600160a01b038116811461359757600080fd5b919050565b6000602082840312156135ae57600080fd5b6135b782613580565b9392505050565b600081518084526020808501945080840160005b838110156135ee578151875295820195908201906001016135d2565b509495945050505050565b600081518084526020808501945080840160005b838110156135ee5781516001600160a01b03168752958201959082019060010161360d565b60c08152600061364560c08301896135be565b828103602084015261365781896135be565b9050828103604084015261366b81886135be565b9050828103606084015261367f81876135be565b9050828103608084015261369381866135f9565b905082810360a08401526136a781856135f9565b9998505050505050505050565b6000602082840312156136c657600080fd5b5035919050565b600080604083850312156136e057600080fd5b6136e983613580565b91506136f760208401613580565b90509250929050565b634e487b7160e01b600052602160045260246000fd5b60c08152600061372960c08301896135f9565b60208382038185015261373c828a6135be565b9150838203604085015261375082896135be565b9150838203606085015261376482886135be565b848103608086015286518082528288019350908201906000805b828110156137b6578551600381106137a457634e487b7160e01b83526021600452602483fd5b8452948401949284019260010161377e565b50505084810360a08601526137cb81876135be565b9b9a5050505050505050505050565b600080604083850312156137ed57600080fd5b6137f683613580565b946020939093013593505050565b60008060006060848603121561381957600080fd5b61382284613580565b95602085013595506040909401359392505050565b6020815260006135b760208301846135f9565b634e487b7160e01b600052604160045260246000fd5b600082601f83011261387157600080fd5b81356001600160401b038082111561388b5761388b61384a565b604051601f8301601f19908116603f011681019082821181831017156138b3576138b361384a565b816040528381528660208588010111156138cc57600080fd5b836020870160208301376000602085830101528094505050505092915050565b6000602082840312156138fe57600080fd5b81356001600160401b0381111561391457600080fd5b6111e884828501613860565b60005b8381101561393b578181015183820152602001613923565b8381111561394a576000848401525b50505050565b6000602080830181845280855180835260408601915060408160051b870101925083870160005b828110156139bd57878503603f190184528151805180875261399e818989018a8501613920565b601f01601f191695909501860194509285019290850190600101613977565b5092979650505050505050565b6040815260006139dd60408301856135f9565b82810360208481019190915284518083528582019282019060005b81811015613a165784511515835293830193918301916001016139f8565b5090979650505050505050565b608081526000613a3660808301876135be565b8281036020840152613a4881876135be565b90508281036040840152613a5c81866135be565b90508281036060840152613a7081856135be565b979650505050505050565b8015158114613a8957600080fd5b50565b60008060408385031215613a9f57600080fd5b613aa883613580565b91506020830135613ab881613a7b565b809150509250929050565b60008060408385031215613ad657600080fd5b82356001600160401b0380821115613aed57600080fd5b613af986838701613860565b93506020850135915080821115613b0f57600080fd5b50613b1c85828601613860565b9150509250929050565b634e487b7160e01b600052601160045260246000fd5b6000600019821415613b5057613b50613b26565b5060010190565b600060ff821660ff811415613b6e57613b6e613b26565b60010192915050565b634e487b7160e01b600052603260045260246000fd5b600060208284031215613b9f57600080fd5b81516135b781613a7b565b60208082526018908201527f73686172652076616c75652063616e206e6f7420626520300000000000000000604082015260600190565b600082613bfe57634e487b7160e01b600052601260045260246000fd5b500490565b60008219821115613c1657613c16613b26565b500190565b600082821015613c2d57613c2d613b26565b500390565b600181811c90821680613c4657607f821691505b602082108114156115a257634e487b7160e01b600052602260045260246000fd5b600060ff821660ff84168060ff03821115613c8457613c84613b26565b019392505050565b60008251613c9e818460208701613920565b9190910192915050565b6000816000190483118215151615613cc257613cc2613b26565b50029056fea2646970667358221220622650ecf9fc00a3f921dcac02ae1798593fa580d894201cb5562f02496964e564736f6c634300080b0033","bytecodeSha1":"887c5a7e37ba16264df94890beaa8731818ecd3b","compiler":{"evm_version":"istanbul","optimizer":{"enabled":true,"runs":200},"version":"0.8.11+commit.d7f03943"},"contractName":"SolidStateGallery","language":"Solidity","natspec":{"kind":"dev","methods":{"getAllBuyOrders(address)":{"notice":"TRADE THE SHARES/TOKENS FOR ETH"}},"version":1},"opcodes":"PUSH1 0x80 PUSH1 0x40 MSTORE PUSH1 0x4 CALLDATASIZE LT PUSH2 0x140 JUMPI PUSH1 0x0 CALLDATALOAD PUSH1 0xE0 SHR DUP1 PUSH4 0x89A5C415 GT PUSH2 0xB6 JUMPI DUP1 PUSH4 0xB92C1E8F GT PUSH2 0x6F JUMPI DUP1 PUSH4 0xB92C1E8F EQ PUSH2 0x3A1 JUMPI DUP1 PUSH4 0xBE5D147F EQ PUSH2 0x3C1 JUMPI DUP1 PUSH4 0xBED34BBA EQ PUSH2 0x3E1 JUMPI DUP1 PUSH4 0xC3DCAD97 EQ PUSH2 0x411 JUMPI DUP1 PUSH4 0xE7C06A1C EQ PUSH2 0x431 JUMPI DUP1 PUSH4 0xF437B29B EQ PUSH2 0x451 JUMPI PUSH1 0x0 DUP1 REVERT JUMPDEST DUP1 PUSH4 0x89A5C415 EQ PUSH2 0x2DC JUMPI DUP1 PUSH4 0x9296E00D EQ PUSH2 0x30C JUMPI DUP1 PUSH4 0x9E0B43CC EQ PUSH2 0x32C JUMPI DUP1 PUSH4 0xA0E67E2B EQ PUSH2 0x34C JUMPI DUP1 PUSH4 0xAB3600B5 EQ PUSH2 0x361 JUMPI DUP1 PUSH4 0xB8AEB2FD EQ PUSH2 0x381 JUMPI PUSH1 0x0 DUP1 REVERT JUMPDEST DUP1 PUSH4 0x382D0412 GT PUSH2 0x108 JUMPI DUP1 PUSH4 0x382D0412 EQ PUSH2 0x215 JUMPI DUP1 PUSH4 0x431E8D63 EQ PUSH2 0x237 JUMPI DUP1 PUSH4 0x46E63586 EQ PUSH2 0x257 JUMPI DUP1 PUSH4 0x4FB93E7C EQ PUSH2 0x279 JUMPI DUP1 PUSH4 0x592E0355 EQ PUSH2 0x29C JUMPI DUP1 PUSH4 0x85952454 EQ PUSH2 0x2BC JUMPI PUSH1 0x0 DUP1 REVERT JUMPDEST DUP1 PUSH4 0xF8CDA20 EQ PUSH2 0x145 JUMPI DUP1 PUSH4 0x1A46E42A EQ PUSH2 0x180 JUMPI DUP1 PUSH4 0x210BD526 EQ PUSH2 0x1A2 JUMPI DUP1 PUSH4 0x34FA4449 EQ PUSH2 0x1D4 JUMPI DUP1 PUSH4 0x360A67C9 EQ PUSH2 0x1F4 JUMPI JUMPDEST PUSH1 0x0 DUP1 REVERT JUMPDEST CALLVALUE DUP1 ISZERO PUSH2 0x151 JUMPI PUSH1 0x0 DUP1 REVERT JUMPDEST POP PUSH2 0x165 PUSH2 0x160 CALLDATASIZE PUSH1 0x4 PUSH2 0x359C JUMP JUMPDEST PUSH2 0x471 JUMP JUMPDEST PUSH1 0x40 MLOAD PUSH2 0x177 SWAP7 SWAP6 SWAP5 SWAP4 SWAP3 SWAP2 SWAP1 PUSH2 0x3632 JUMP JUMPDEST PUSH1 0x40 MLOAD DUP1 SWAP2 SUB SWAP1 RETURN JUMPDEST CALLVALUE DUP1 ISZERO PUSH2 0x18C JUMPI PUSH1 0x0 DUP1 REVERT JUMPDEST POP PUSH2 0x1A0 PUSH2 0x19B CALLDATASIZE PUSH1 0x4 PUSH2 0x36B4 JUMP JUMPDEST PUSH2 0x90C JUMP JUMPDEST STOP JUMPDEST CALLVALUE DUP1 ISZERO PUSH2 0x1AE JUMPI PUSH1 0x0 DUP1 REVERT JUMPDEST POP PUSH2 0x1C2 PUSH2 0x1BD CALLDATASIZE PUSH1 0x4 PUSH2 0x36CD JUMP JUMPDEST PUSH2 0xA99 JUMP JUMPDEST PUSH1 0x40 MLOAD PUSH2 0x177 SWAP7 SWAP6 SWAP5 SWAP4 SWAP3 SWAP2 SWAP1 PUSH2 0x3716 JUMP JUMPDEST CALLVALUE DUP1 ISZERO PUSH2 0x1E0 JUMPI PUSH1 0x0 DUP1 REVERT JUMPDEST POP PUSH2 0x1A0 PUSH2 0x1EF CALLDATASIZE PUSH1 0x4 PUSH2 0x37DA JUMP JUMPDEST PUSH2 0xF4B JUMP JUMPDEST PUSH2 0x207 PUSH2 0x202 CALLDATASIZE PUSH1 0x4 PUSH2 0x3804 JUMP JUMPDEST PUSH2 0x1069 JUMP JUMPDEST PUSH1 0x40 MLOAD SWAP1 DUP2 MSTORE PUSH1 0x20 ADD PUSH2 0x177 JUMP JUMPDEST CALLVALUE DUP1 ISZERO PUSH2 0x221 JUMPI PUSH1 0x0 DUP1 REVERT JUMPDEST POP PUSH2 0x22A PUSH2 0x11F0 JUMP JUMPDEST PUSH1 0x40 MLOAD PUSH2 0x177 SWAP2 SWAP1 PUSH2 0x3837 JUMP JUMPDEST CALLVALUE DUP1 ISZERO PUSH2 0x243 JUMPI PUSH1 0x0 DUP1 REVERT JUMPDEST POP PUSH2 0x207 PUSH2 0x252 CALLDATASIZE PUSH1 0x4 PUSH2 0x38EC JUMP JUMPDEST PUSH2 0x134A JUMP JUMPDEST CALLVALUE DUP1 ISZERO PUSH2 0x263 JUMPI PUSH1 0x0 DUP1 REVERT JUMPDEST POP PUSH2 0x26C PUSH2 0x147A JUMP JUMPDEST PUSH1 0x40 MLOAD PUSH2 0x177 SWAP2 SWAP1 PUSH2 0x3950 JUMP JUMPDEST CALLVALUE DUP1 ISZERO PUSH2 0x285 JUMPI PUSH1 0x0 DUP1 REVERT JUMPDEST POP PUSH2 0x28E PUSH2 0x15A8 JUMP JUMPDEST PUSH1 0x40 MLOAD PUSH2 0x177 SWAP3 SWAP2 SWAP1 PUSH2 0x39CA JUMP JUMPDEST CALLVALUE DUP1 ISZERO PUSH2 0x2A8 JUMPI PUSH1 0x0 DUP1 REVERT JUMPDEST POP PUSH2 0x1A0 PUSH2 0x2B7 CALLDATASIZE PUSH1 0x4 PUSH2 0x38EC JUMP JUMPDEST PUSH2 0x16F2 JUMP JUMPDEST CALLVALUE DUP1 ISZERO PUSH2 0x2C8 JUMPI PUSH1 0x0 DUP1 REVERT JUMPDEST POP PUSH2 0x1A0 PUSH2 0x2D7 CALLDATASIZE PUSH1 0x4 PUSH2 0x359C JUMP JUMPDEST PUSH2 0x1871 JUMP JUMPDEST CALLVALUE DUP1 ISZERO PUSH2 0x2E8 JUMPI PUSH1 0x0 DUP1 REVERT JUMPDEST POP PUSH2 0x2FC PUSH2 0x2F7 CALLDATASIZE PUSH1 0x4 PUSH2 0x359C JUMP JUMPDEST PUSH2 0x190D JUMP JUMPDEST PUSH1 0x40 MLOAD PUSH2 0x177 SWAP5 SWAP4 SWAP3 SWAP2 SWAP1 PUSH2 0x3A23 JUMP JUMPDEST CALLVALUE DUP1 ISZERO PUSH2 0x318 JUMPI PUSH1 0x0 DUP1 REVERT JUMPDEST POP PUSH2 0x2FC PUSH2 0x327 CALLDATASIZE PUSH1 0x4 PUSH2 0x359C JUMP JUMPDEST PUSH2 0x1C39 JUMP JUMPDEST CALLVALUE DUP1 ISZERO PUSH2 0x338 JUMPI PUSH1 0x0 DUP1 REVERT JUMPDEST POP PUSH2 0x28E PUSH2 0x347 CALLDATASIZE PUSH1 0x4 PUSH2 0x36B4 JUMP JUMPDEST PUSH2 0x1F4C JUMP JUMPDEST CALLVALUE DUP1 ISZERO PUSH2 0x358 JUMPI PUSH1 0x0 DUP1 REVERT JUMPDEST POP PUSH2 0x22A PUSH2 0x2101 JUMP JUMPDEST CALLVALUE DUP1 ISZERO PUSH2 0x36D JUMPI PUSH1 0x0 DUP1 REVERT JUMPDEST POP PUSH2 0x22A PUSH2 0x37C CALLDATASIZE PUSH1 0x4 PUSH2 0x36B4 JUMP JUMPDEST PUSH2 0x2163 JUMP JUMPDEST CALLVALUE DUP1 ISZERO PUSH2 0x38D JUMPI PUSH1 0x0 DUP1 REVERT JUMPDEST POP PUSH2 0x1A0 PUSH2 0x39C CALLDATASIZE PUSH1 0x4 PUSH2 0x3A8C JUMP JUMPDEST PUSH2 0x22EA JUMP JUMPDEST CALLVALUE DUP1 ISZERO PUSH2 0x3AD JUMPI PUSH1 0x0 DUP1 REVERT JUMPDEST POP PUSH2 0x207 PUSH2 0x3BC CALLDATASIZE PUSH1 0x4 PUSH2 0x359C JUMP JUMPDEST PUSH2 0x234A JUMP JUMPDEST CALLVALUE DUP1 ISZERO PUSH2 0x3CD JUMPI PUSH1 0x0 DUP1 REVERT JUMPDEST POP PUSH2 0x1A0 PUSH2 0x3DC CALLDATASIZE PUSH1 0x4 PUSH2 0x36B4 JUMP JUMPDEST PUSH2 0x23B7 JUMP JUMPDEST CALLVALUE DUP1 ISZERO PUSH2 0x3ED JUMPI PUSH1 0x0 DUP1 REVERT JUMPDEST POP PUSH2 0x401 PUSH2 0x3FC CALLDATASIZE PUSH1 0x4 PUSH2 0x3AC3 JUMP JUMPDEST PUSH2 0x24F3 JUMP JUMPDEST PUSH1 0x40 MLOAD SWAP1 ISZERO ISZERO DUP2 MSTORE PUSH1 0x20 ADD PUSH2 0x177 JUMP JUMPDEST CALLVALUE DUP1 ISZERO PUSH2 0x41D JUMPI PUSH1 0x0 DUP1 REVERT JUMPDEST POP PUSH2 0x1C2 PUSH2 0x42C CALLDATASIZE PUSH1 0x4 PUSH2 0x36CD JUMP JUMPDEST PUSH2 0x254C JUMP JUMPDEST CALLVALUE DUP1 ISZERO PUSH2 0x43D JUMPI PUSH1 0x0 DUP1 REVERT JUMPDEST POP PUSH2 0x207 PUSH2 0x44C CALLDATASIZE PUSH1 0x4 PUSH2 0x359C JUMP JUMPDEST PUSH2 0x29E6 JUMP JUMPDEST CALLVALUE DUP1 ISZERO PUSH2 0x45D JUMPI PUSH1 0x0 DUP1 REVERT JUMPDEST POP PUSH2 0x207 PUSH2 0x46C CALLDATASIZE PUSH1 0x4 PUSH2 0x3804 JUMP JUMPDEST PUSH2 0x2A53 JUMP JUMPDEST PUSH1 0x60 DUP1 PUSH1 0x60 DUP1 PUSH1 0x60 DUP1 PUSH1 0x0 DUP1 JUMPDEST PUSH1 0x1 SLOAD DUP2 PUSH1 0xFF AND LT ISZERO PUSH2 0x4D1 JUMPI PUSH1 0xFF DUP2 AND PUSH1 0x0 SWAP1 DUP2 MSTORE PUSH1 0x20 DUP2 SWAP1 MSTORE PUSH1 0x40 SWAP1 KECCAK256 SLOAD PUSH1 0x1 PUSH1 0x1 PUSH1 0xA0 SHL SUB DUP11 DUP2 AND SWAP2 AND EQ ISZERO PUSH2 0x4BF JUMPI DUP2 PUSH2 0x4BB DUP2 PUSH2 0x3B3C JUMP JUMPDEST SWAP3 POP POP JUMPDEST DUP1 PUSH2 0x4C9 DUP2 PUSH2 0x3B57 JUMP JUMPDEST SWAP2 POP POP PUSH2 0x47E JUMP JUMPDEST POP PUSH1 0x0 DUP2 PUSH1 0x1 PUSH1 0x1 PUSH1 0x40 SHL SUB DUP2 GT ISZERO PUSH2 0x4EC JUMPI PUSH2 0x4EC PUSH2 0x384A JUMP JUMPDEST PUSH1 0x40 MLOAD SWAP1 DUP1 DUP3 MSTORE DUP1 PUSH1 0x20 MUL PUSH1 0x20 ADD DUP3 ADD PUSH1 0x40 MSTORE DUP1 ISZERO PUSH2 0x515 JUMPI DUP2 PUSH1 0x20 ADD PUSH1 0x20 DUP3 MUL DUP1 CALLDATASIZE DUP4 CALLDATACOPY ADD SWAP1 POP JUMPDEST POP SWAP1 POP PUSH1 0x0 DUP3 PUSH1 0x1 PUSH1 0x1 PUSH1 0x40 SHL SUB DUP2 GT ISZERO PUSH2 0x532 JUMPI PUSH2 0x532 PUSH2 0x384A JUMP JUMPDEST PUSH1 0x40 MLOAD SWAP1 DUP1 DUP3 MSTORE DUP1 PUSH1 0x20 MUL PUSH1 0x20 ADD DUP3 ADD PUSH1 0x40 MSTORE DUP1 ISZERO PUSH2 0x55B JUMPI DUP2 PUSH1 0x20 ADD PUSH1 0x20 DUP3 MUL DUP1 CALLDATASIZE DUP4 CALLDATACOPY ADD SWAP1 POP JUMPDEST POP SWAP1 POP PUSH1 0x0 DUP4 PUSH1 0x1 PUSH1 0x1 PUSH1 0x40 SHL SUB DUP2 GT ISZERO PUSH2 0x578 JUMPI PUSH2 0x578 PUSH2 0x384A JUMP JUMPDEST PUSH1 0x40 MLOAD SWAP1 DUP1 DUP3 MSTORE DUP1 PUSH1 0x20 MUL PUSH1 0x20 ADD DUP3 ADD PUSH1 0x40 MSTORE DUP1 ISZERO PUSH2 0x5A1 JUMPI DUP2 PUSH1 0x20 ADD PUSH1 0x20 DUP3 MUL DUP1 CALLDATASIZE DUP4 CALLDATACOPY ADD SWAP1 POP JUMPDEST POP SWAP1 POP PUSH1 0x0 DUP5 PUSH1 0x1 PUSH1 0x1 PUSH1 0x40 SHL SUB DUP2 GT ISZERO PUSH2 0x5BE JUMPI PUSH2 0x5BE PUSH2 0x384A JUMP JUMPDEST PUSH1 0x40 MLOAD SWAP1 DUP1 DUP3 MSTORE DUP1 PUSH1 0x20 MUL PUSH1 0x20 ADD DUP3 ADD PUSH1 0x40 MSTORE DUP1 ISZERO PUSH2 0x5E7 JUMPI DUP2 PUSH1 0x20 ADD PUSH1 0x20 DUP3 MUL DUP1 CALLDATASIZE DUP4 CALLDATACOPY ADD SWAP1 POP JUMPDEST POP SWAP1 POP PUSH1 0x0 DUP6 PUSH1 0x1 PUSH1 0x1 PUSH1 0x40 SHL SUB DUP2 GT ISZERO PUSH2 0x604 JUMPI PUSH2 0x604 PUSH2 0x384A JUMP JUMPDEST PUSH1 0x40 MLOAD SWAP1 DUP1 DUP3 MSTORE DUP1 PUSH1 0x20 MUL PUSH1 0x20 ADD DUP3 ADD PUSH1 0x40 MSTORE DUP1 ISZERO PUSH2 0x62D JUMPI DUP2 PUSH1 0x20 ADD PUSH1 0x20 DUP3 MUL DUP1 CALLDATASIZE DUP4 CALLDATACOPY ADD SWAP1 POP JUMPDEST POP SWAP1 POP PUSH1 0x0 DUP7 PUSH1 0x1 PUSH1 0x1 PUSH1 0x40 SHL SUB DUP2 GT ISZERO PUSH2 0x64A JUMPI PUSH2 0x64A PUSH2 0x384A JUMP JUMPDEST PUSH1 0x40 MLOAD SWAP1 DUP1 DUP3 MSTORE DUP1 PUSH1 0x20 MUL PUSH1 0x20 ADD DUP3 ADD PUSH1 0x40 MSTORE DUP1 ISZERO PUSH2 0x673 JUMPI DUP2 PUSH1 0x20 ADD PUSH1 0x20 DUP3 MUL DUP1 CALLDATASIZE DUP4 CALLDATACOPY ADD SWAP1 POP JUMPDEST POP SWAP1 POP PUSH1 0x0 DUP8 PUSH1 0x1 PUSH1 0x1 PUSH1 0x40 SHL SUB DUP2 GT ISZERO PUSH2 0x690 JUMPI PUSH2 0x690 PUSH2 0x384A JUMP JUMPDEST PUSH1 0x40 MLOAD SWAP1 DUP1 DUP3 MSTORE DUP1 PUSH1 0x20 MUL PUSH1 0x20 ADD DUP3 ADD PUSH1 0x40 MSTORE DUP1 ISZERO PUSH2 0x6B9 JUMPI DUP2 PUSH1 0x20 ADD PUSH1 0x20 DUP3 MUL DUP1 CALLDATASIZE DUP4 CALLDATACOPY ADD SWAP1 POP JUMPDEST POP SWAP1 POP PUSH1 0x0 SWAP8 POP PUSH1 0x0 JUMPDEST PUSH1 0x1 SLOAD DUP2 PUSH1 0xFF AND LT ISZERO PUSH2 0x8F5 JUMPI DUP16 PUSH1 0x1 PUSH1 0x1 PUSH1 0xA0 SHL SUB AND PUSH1 0x0 DUP1 DUP4 PUSH1 0xFF AND DUP2 MSTORE PUSH1 0x20 ADD SWAP1 DUP2 MSTORE PUSH1 0x20 ADD PUSH1 0x0 KECCAK256 PUSH1 0x0 ADD PUSH1 0x0 SWAP1 SLOAD SWAP1 PUSH2 0x100 EXP SWAP1 DIV PUSH1 0x1 PUSH1 0x1 PUSH1 0xA0 SHL SUB AND PUSH1 0x1 PUSH1 0x1 PUSH1 0xA0 SHL SUB AND EQ ISZERO PUSH2 0x8E3 JUMPI PUSH1 0xFF DUP2 AND PUSH1 0x0 SWAP1 DUP2 MSTORE PUSH1 0x20 DUP2 SWAP1 MSTORE PUSH1 0x40 SWAP1 KECCAK256 SLOAD DUP9 MLOAD PUSH1 0x1 PUSH1 0x1 PUSH1 0xA0 SHL SUB SWAP1 SWAP2 AND SWAP1 DUP10 SWAP1 DUP12 SWAP1 DUP2 LT PUSH2 0x748 JUMPI PUSH2 0x748 PUSH2 0x3B77 JUMP JUMPDEST PUSH1 0x1 PUSH1 0x1 PUSH1 0xA0 SHL SUB SWAP1 SWAP3 AND PUSH1 0x20 SWAP3 DUP4 MUL SWAP2 SWAP1 SWAP2 ADD DUP3 ADD MSTORE PUSH1 0xFF DUP3 AND PUSH1 0x0 SWAP1 DUP2 MSTORE SWAP1 DUP2 SWAP1 MSTORE PUSH1 0x40 SWAP1 KECCAK256 PUSH1 0x1 ADD SLOAD DUP8 MLOAD DUP9 SWAP1 DUP12 SWAP1 DUP2 LT PUSH2 0x788 JUMPI PUSH2 0x788 PUSH2 0x3B77 JUMP JUMPDEST PUSH1 0x20 MUL PUSH1 0x20 ADD ADD DUP2 DUP2 MSTORE POP POP PUSH1 0x0 DUP1 DUP3 PUSH1 0xFF AND DUP2 MSTORE PUSH1 0x20 ADD SWAP1 DUP2 MSTORE PUSH1 0x20 ADD PUSH1 0x0 KECCAK256 PUSH1 0x2 ADD SLOAD DUP7 DUP11 DUP2 MLOAD DUP2 LT PUSH2 0x7BF JUMPI PUSH2 0x7BF PUSH2 0x3B77 JUMP JUMPDEST PUSH1 0x20 MUL PUSH1 0x20 ADD ADD DUP2 DUP2 MSTORE POP POP PUSH1 0x0 DUP1 DUP3 PUSH1 0xFF AND DUP2 MSTORE PUSH1 0x20 ADD SWAP1 DUP2 MSTORE PUSH1 0x20 ADD PUSH1 0x0 KECCAK256 PUSH1 0x3 ADD SLOAD DUP6 DUP11 DUP2 MLOAD DUP2 LT PUSH2 0x7F6 JUMPI PUSH2 0x7F6 PUSH2 0x3B77 JUMP JUMPDEST PUSH1 0x20 MUL PUSH1 0x20 ADD ADD DUP2 DUP2 MSTORE POP POP PUSH1 0x0 DUP1 DUP3 PUSH1 0xFF AND DUP2 MSTORE PUSH1 0x20 ADD SWAP1 DUP2 MSTORE PUSH1 0x20 ADD PUSH1 0x0 KECCAK256 PUSH1 0x4 ADD SLOAD DUP5 DUP11 DUP2 MLOAD DUP2 LT PUSH2 0x82D JUMPI PUSH2 0x82D PUSH2 0x3B77 JUMP JUMPDEST PUSH1 0x20 MUL PUSH1 0x20 ADD ADD DUP2 DUP2 MSTORE POP POP PUSH1 0x0 DUP1 DUP3 PUSH1 0xFF AND DUP2 MSTORE PUSH1 0x20 ADD SWAP1 DUP2 MSTORE PUSH1 0x20 ADD PUSH1 0x0 KECCAK256 PUSH1 0x5 ADD PUSH1 0x0 SWAP1 SLOAD SWAP1 PUSH2 0x100 EXP SWAP1 DIV PUSH1 0x1 PUSH1 0x1 PUSH1 0xA0 SHL SUB AND DUP4 DUP11 DUP2 MLOAD DUP2 LT PUSH2 0x877 JUMPI PUSH2 0x877 PUSH2 0x3B77 JUMP JUMPDEST PUSH1 0x1 PUSH1 0x1 PUSH1 0xA0 SHL SUB SWAP3 DUP4 AND PUSH1 0x20 SWAP2 DUP3 MUL SWAP3 SWAP1 SWAP3 ADD DUP2 ADD SWAP2 SWAP1 SWAP2 MSTORE PUSH1 0xFF DUP4 AND PUSH1 0x0 SWAP1 DUP2 MSTORE SWAP1 DUP2 SWAP1 MSTORE PUSH1 0x40 SWAP1 KECCAK256 PUSH1 0x6 ADD SLOAD DUP4 MLOAD SWAP2 AND SWAP1 DUP4 SWAP1 DUP12 SWAP1 DUP2 LT PUSH2 0x8BD JUMPI PUSH2 0x8BD PUSH2 0x3B77 JUMP JUMPDEST PUSH1 0x1 PUSH1 0x1 PUSH1 0xA0 SHL SUB SWAP1 SWAP3 AND PUSH1 0x20 SWAP3 DUP4 MUL SWAP2 SWAP1 SWAP2 ADD SWAP1 SWAP2 ADD MSTORE DUP9 PUSH2 0x8DF DUP2 PUSH2 0x3B3C JUMP JUMPDEST SWAP10 POP POP JUMPDEST DUP1 PUSH2 0x8ED DUP2 PUSH2 0x3B57 JUMP JUMPDEST SWAP2 POP POP PUSH2 0x6C3 JUMP JUMPDEST POP SWAP5 SWAP15 SWAP4 SWAP14 POP SWAP2 SWAP12 POP SWAP10 POP SWAP8 POP SWAP1 SWAP6 POP SWAP4 POP POP POP POP JUMP JUMPDEST PUSH1 0x0 DUP2 DUP2 MSTORE PUSH1 0x3 PUSH1 0x20 MSTORE PUSH1 0x40 SWAP1 KECCAK256 PUSH1 0x1 ADD SLOAD PUSH1 0x1 PUSH1 0x1 PUSH1 0xA0 SHL SUB AND CALLER EQ PUSH2 0x97A JUMPI PUSH1 0x40 MLOAD PUSH3 0x461BCD PUSH1 0xE5 SHL DUP2 MSTORE PUSH1 0x20 PUSH1 0x4 DUP3 ADD MSTORE PUSH1 0x1D PUSH1 0x24 DUP3 ADD MSTORE PUSH32 0x6D73672E73656E646572206973206E6F74206F72646572206F776E6572000000 PUSH1 0x44 DUP3 ADD MSTORE PUSH1 0x64 ADD JUMPDEST PUSH1 0x40 MLOAD DUP1 SWAP2 SUB SWAP1 REVERT JUMPDEST PUSH1 0x0 DUP2 DUP2 MSTORE PUSH1 0x3 PUSH1 0x20 MSTORE PUSH1 0x40 DUP2 KECCAK256 PUSH1 0x5 ADD SLOAD PUSH1 0xFF AND PUSH1 0x2 DUP2 GT ISZERO PUSH2 0x9A0 JUMPI PUSH2 0x9A0 PUSH2 0x3700 JUMP JUMPDEST EQ PUSH2 0x9E1 JUMPI PUSH1 0x40 MLOAD PUSH3 0x461BCD PUSH1 0xE5 SHL DUP2 MSTORE PUSH1 0x20 PUSH1 0x4 DUP3 ADD MSTORE PUSH1 0x11 PUSH1 0x24 DUP3 ADD MSTORE PUSH17 0x37B93232B91034B9903737BA1037B832B7 PUSH1 0x79 SHL PUSH1 0x44 DUP3 ADD MSTORE PUSH1 0x64 ADD PUSH2 0x971 JUMP JUMPDEST PUSH1 0x0 DUP2 DUP2 MSTORE PUSH1 0x3 PUSH1 0x20 MSTORE PUSH1 0x40 SWAP1 DUP2 SWAP1 KECCAK256 PUSH1 0x5 DUP2 ADD DUP1 SLOAD PUSH1 0xFF NOT AND PUSH1 0x2 OR SWAP1 SSTORE DUP1 SLOAD PUSH1 0x1 DUP3 ADD SLOAD PUSH1 0x4 SWAP3 DUP4 ADD SLOAD SWAP4 MLOAD PUSH4 0xA9059CBB PUSH1 0xE0 SHL DUP2 MSTORE PUSH1 0x1 PUSH1 0x1 PUSH1 0xA0 SHL SUB SWAP2 DUP3 AND SWAP4 DUP2 ADD SWAP4 SWAP1 SWAP4 MSTORE PUSH1 0x24 DUP4 ADD SWAP4 SWAP1 SWAP4 MSTORE SWAP2 SWAP1 SWAP2 AND SWAP1 PUSH4 0xA9059CBB SWAP1 PUSH1 0x44 ADD PUSH1 0x20 PUSH1 0x40 MLOAD DUP1 DUP4 SUB DUP2 PUSH1 0x0 DUP8 GAS CALL ISZERO DUP1 ISZERO PUSH2 0xA60 JUMPI RETURNDATASIZE PUSH1 0x0 DUP1 RETURNDATACOPY RETURNDATASIZE PUSH1 0x0 REVERT JUMPDEST POP POP POP POP PUSH1 0x40 MLOAD RETURNDATASIZE PUSH1 0x1F NOT PUSH1 0x1F DUP3 ADD AND DUP3 ADD DUP1 PUSH1 0x40 MSTORE POP DUP2 ADD SWAP1 PUSH2 0xA84 SWAP2 SWAP1 PUSH2 0x3B8D JUMP JUMPDEST POP PUSH1 0x0 SWAP1 DUP2 MSTORE PUSH1 0x3 PUSH1 0x20 MSTORE PUSH1 0x40 DUP2 KECCAK256 PUSH1 0x4 ADD SSTORE JUMP JUMPDEST PUSH1 0x60 DUP1 PUSH1 0x60 DUP1 PUSH1 0x60 DUP1 PUSH1 0x0 DUP1 JUMPDEST PUSH1 0x5 SLOAD DUP2 PUSH1 0xFF AND LT ISZERO PUSH2 0xB22 JUMPI PUSH1 0xFF DUP2 AND PUSH1 0x0 SWAP1 DUP2 MSTORE PUSH1 0x3 PUSH1 0x20 MSTORE PUSH1 0x40 SWAP1 KECCAK256 SLOAD PUSH1 0x1 PUSH1 0x1 PUSH1 0xA0 SHL SUB DUP12 DUP2 AND SWAP2 AND EQ ISZERO PUSH2 0xB10 JUMPI PUSH1 0xFF DUP2 AND PUSH1 0x0 SWAP1 DUP2 MSTORE PUSH1 0x3 PUSH1 0x20 MSTORE PUSH1 0x40 SWAP1 KECCAK256 PUSH1 0x1 ADD SLOAD PUSH1 0x1 PUSH1 0x1 PUSH1 0xA0 SHL SUB DUP11 DUP2 AND SWAP2 AND EQ ISZERO PUSH2 0xB10 JUMPI DUP2 PUSH2 0xB0C DUP2 PUSH2 0x3B57 JUMP JUMPDEST SWAP3 POP POP JUMPDEST DUP1 PUSH2 0xB1A DUP2 PUSH2 0x3B57 JUMP JUMPDEST SWAP2 POP POP PUSH2 0xAA6 JUMP JUMPDEST POP PUSH1 0x0 DUP2 PUSH1 0xFF AND PUSH1 0x1 PUSH1 0x1 PUSH1 0x40 SHL SUB DUP2 GT ISZERO PUSH2 0xB40 JUMPI PUSH2 0xB40 PUSH2 0x384A JUMP JUMPDEST PUSH1 0x40 MLOAD SWAP1 DUP1 DUP3 MSTORE DUP1 PUSH1 0x20 MUL PUSH1 0x20 ADD DUP3 ADD PUSH1 0x40 MSTORE DUP1 ISZERO PUSH2 0xB69 JUMPI DUP2 PUSH1 0x20 ADD PUSH1 0x20 DUP3 MUL DUP1 CALLDATASIZE DUP4 CALLDATACOPY ADD SWAP1 POP JUMPDEST POP SWAP1 POP PUSH1 0x0 DUP3 PUSH1 0xFF AND PUSH1 0x1 PUSH1 0x1 PUSH1 0x40 SHL SUB DUP2 GT ISZERO PUSH2 0xB89 JUMPI PUSH2 0xB89 PUSH2 0x384A JUMP JUMPDEST PUSH1 0x40 MLOAD SWAP1 DUP1 DUP3 MSTORE DUP1 PUSH1 0x20 MUL PUSH1 0x20 ADD DUP3 ADD PUSH1 0x40 MSTORE DUP1 ISZERO PUSH2 0xBB2 JUMPI DUP2 PUSH1 0x20 ADD PUSH1 0x20 DUP3 MUL DUP1 CALLDATASIZE DUP4 CALLDATACOPY ADD SWAP1 POP JUMPDEST POP SWAP1 POP PUSH1 0x0 DUP4 PUSH1 0xFF AND PUSH1 0x1 PUSH1 0x1 PUSH1 0x40 SHL SUB DUP2 GT ISZERO PUSH2 0xBD2 JUMPI PUSH2 0xBD2 PUSH2 0x384A JUMP JUMPDEST PUSH1 0x40 MLOAD SWAP1 DUP1 DUP3 MSTORE DUP1 PUSH1 0x20 MUL PUSH1 0x20 ADD DUP3 ADD PUSH1 0x40 MSTORE DUP1 ISZERO PUSH2 0xBFB JUMPI DUP2 PUSH1 0x20 ADD PUSH1 0x20 DUP3 MUL DUP1 CALLDATASIZE DUP4 CALLDATACOPY ADD SWAP1 POP JUMPDEST POP SWAP1 POP PUSH1 0x0 DUP5 PUSH1 0xFF AND PUSH1 0x1 PUSH1 0x1 PUSH1 0x40 SHL SUB DUP2 GT ISZERO PUSH2 0xC1B JUMPI PUSH2 0xC1B PUSH2 0x384A JUMP JUMPDEST PUSH1 0x40 MLOAD SWAP1 DUP1 DUP3 MSTORE DUP1 PUSH1 0x20 MUL PUSH1 0x20 ADD DUP3 ADD PUSH1 0x40 MSTORE DUP1 ISZERO PUSH2 0xC44 JUMPI DUP2 PUSH1 0x20 ADD PUSH1 0x20 DUP3 MUL DUP1 CALLDATASIZE DUP4 CALLDATACOPY ADD SWAP1 POP JUMPDEST POP SWAP1 POP PUSH1 0x0 DUP6 PUSH1 0xFF AND PUSH1 0x1 PUSH1 0x1 PUSH1 0x40 SHL SUB DUP2 GT ISZERO PUSH2 0xC64 JUMPI PUSH2 0xC64 PUSH2 0x384A JUMP JUMPDEST PUSH1 0x40 MLOAD SWAP1 DUP1 DUP3 MSTORE DUP1 PUSH1 0x20 MUL PUSH1 0x20 ADD DUP3 ADD PUSH1 0x40 MSTORE DUP1 ISZERO PUSH2 0xC8D JUMPI DUP2 PUSH1 0x20 ADD PUSH1 0x20 DUP3 MUL DUP1 CALLDATASIZE DUP4 CALLDATACOPY ADD SWAP1 POP JUMPDEST POP SWAP1 POP PUSH1 0x0 DUP7 PUSH1 0xFF AND PUSH1 0x1 PUSH1 0x1 PUSH1 0x40 SHL SUB DUP2 GT ISZERO PUSH2 0xCAD JUMPI PUSH2 0xCAD PUSH2 0x384A JUMP JUMPDEST PUSH1 0x40 MLOAD SWAP1 DUP1 DUP3 MSTORE DUP1 PUSH1 0x20 MUL PUSH1 0x20 ADD DUP3 ADD PUSH1 0x40 MSTORE DUP1 ISZERO PUSH2 0xCD6 JUMPI DUP2 PUSH1 0x20 ADD PUSH1 0x20 DUP3 MUL DUP1 CALLDATASIZE DUP4 CALLDATACOPY ADD SWAP1 POP JUMPDEST POP SWAP1 POP PUSH1 0x0 SWAP7 POP PUSH1 0x0 JUMPDEST PUSH1 0x5 SLOAD DUP2 PUSH1 0xFF AND LT ISZERO PUSH2 0xF33 JUMPI DUP15 PUSH1 0x1 PUSH1 0x1 PUSH1 0xA0 SHL SUB AND PUSH1 0x3 PUSH1 0x0 DUP4 PUSH1 0xFF AND DUP2 MSTORE PUSH1 0x20 ADD SWAP1 DUP2 MSTORE PUSH1 0x20 ADD PUSH1 0x0 KECCAK256 PUSH1 0x1 ADD PUSH1 0x0 SWAP1 SLOAD SWAP1 PUSH2 0x100 EXP SWAP1 DIV PUSH1 0x1 PUSH1 0x1 PUSH1 0xA0 SHL SUB AND PUSH1 0x1 PUSH1 0x1 PUSH1 0xA0 SHL SUB AND EQ ISZERO PUSH2 0xF21 JUMPI DUP16 PUSH1 0x1 PUSH1 0x1 PUSH1 0xA0 SHL SUB AND PUSH1 0x3 PUSH1 0x0 DUP4 PUSH1 0xFF AND DUP2 MSTORE PUSH1 0x20 ADD SWAP1 DUP2 MSTORE PUSH1 0x20 ADD PUSH1 0x0 KECCAK256 PUSH1 0x0 ADD PUSH1 0x0 SWAP1 SLOAD SWAP1 PUSH2 0x100 EXP SWAP1 DIV PUSH1 0x1 PUSH1 0x1 PUSH1 0xA0 SHL SUB AND PUSH1 0x1 PUSH1 0x1 PUSH1 0xA0 SHL SUB AND EQ ISZERO PUSH2 0xF21 JUMPI PUSH1 0xFF DUP1 DUP3 AND PUSH1 0x0 SWAP1 DUP2 MSTORE PUSH1 0x3 PUSH1 0x20 MSTORE PUSH1 0x40 SWAP1 KECCAK256 PUSH1 0x1 ADD SLOAD DUP9 MLOAD PUSH1 0x1 PUSH1 0x1 PUSH1 0xA0 SHL SUB SWAP1 SWAP2 AND SWAP2 DUP10 SWAP2 SWAP1 DUP12 AND SWAP1 DUP2 LT PUSH2 0xDB2 JUMPI PUSH2 0xDB2 PUSH2 0x3B77 JUMP JUMPDEST PUSH1 0x20 MUL PUSH1 0x20 ADD ADD SWAP1 PUSH1 0x1 PUSH1 0x1 PUSH1 0xA0 SHL SUB AND SWAP1 DUP2 PUSH1 0x1 PUSH1 0x1 PUSH1 0xA0 SHL SUB AND DUP2 MSTORE POP POP PUSH1 0x3 PUSH1 0x0 DUP3 PUSH1 0xFF AND DUP2 MSTORE PUSH1 0x20 ADD SWAP1 DUP2 MSTORE PUSH1 0x20 ADD PUSH1 0x0 KECCAK256 PUSH1 0x2 ADD SLOAD DUP7 DUP10 PUSH1 0xFF AND DUP2 MLOAD DUP2 LT PUSH2 0xE01 JUMPI PUSH2 0xE01 PUSH2 0x3B77 JUMP JUMPDEST PUSH1 0x20 MUL PUSH1 0x20 ADD ADD DUP2 DUP2 MSTORE POP POP PUSH1 0x3 PUSH1 0x0 DUP3 PUSH1 0xFF AND DUP2 MSTORE PUSH1 0x20 ADD SWAP1 DUP2 MSTORE PUSH1 0x20 ADD PUSH1 0x0 KECCAK256 PUSH1 0x3 ADD SLOAD DUP6 DUP10 PUSH1 0xFF AND DUP2 MLOAD DUP2 LT PUSH2 0xE3C JUMPI PUSH2 0xE3C PUSH2 0x3B77 JUMP JUMPDEST PUSH1 0x20 MUL PUSH1 0x20 ADD ADD DUP2 DUP2 MSTORE POP POP PUSH1 0x3 PUSH1 0x0 DUP3 PUSH1 0xFF AND DUP2 MSTORE PUSH1 0x20 ADD SWAP1 DUP2 MSTORE PUSH1 0x20 ADD PUSH1 0x0 KECCAK256 PUSH1 0x4 ADD SLOAD DUP5 DUP10 PUSH1 0xFF AND DUP2 MLOAD DUP2 LT PUSH2 0xE77 JUMPI PUSH2 0xE77 PUSH2 0x3B77 JUMP JUMPDEST PUSH1 0x20 MUL PUSH1 0x20 ADD ADD DUP2 DUP2 MSTORE POP POP PUSH1 0x3 PUSH1 0x0 DUP3 PUSH1 0xFF AND DUP2 MSTORE PUSH1 0x20 ADD SWAP1 DUP2 MSTORE PUSH1 0x20 ADD PUSH1 0x0 KECCAK256 PUSH1 0x5 ADD PUSH1 0x0 SWAP1 SLOAD SWAP1 PUSH2 0x100 EXP SWAP1 DIV PUSH1 0xFF AND DUP3 DUP10 PUSH1 0xFF AND DUP2 MLOAD DUP2 LT PUSH2 0xEBF JUMPI PUSH2 0xEBF PUSH2 0x3B77 JUMP JUMPDEST PUSH1 0x20 MUL PUSH1 0x20 ADD ADD SWAP1 PUSH1 0x2 DUP2 GT ISZERO PUSH2 0xED8 JUMPI PUSH2 0xED8 PUSH2 0x3700 JUMP JUMPDEST SWAP1 DUP2 PUSH1 0x2 DUP2 GT ISZERO PUSH2 0xEEB JUMPI PUSH2 0xEEB PUSH2 0x3700 JUMP JUMPDEST DUP2 MSTORE POP POP DUP1 PUSH1 0xFF AND DUP4 DUP10 PUSH1 0xFF AND DUP2 MLOAD DUP2 LT PUSH2 0xF08 JUMPI PUSH2 0xF08 PUSH2 0x3B77 JUMP JUMPDEST PUSH1 0x20 SWAP1 DUP2 MUL SWAP2 SWAP1 SWAP2 ADD ADD MSTORE DUP8 PUSH2 0xF1D DUP2 PUSH2 0x3B57 JUMP JUMPDEST SWAP9 POP POP JUMPDEST DUP1 PUSH2 0xF2B DUP2 PUSH2 0x3B57 JUMP JUMPDEST SWAP2 POP POP PUSH2 0xCE0 JUMP JUMPDEST POP SWAP5 SWAP15 SWAP4 SWAP14 POP SWAP2 SWAP12 POP SWAP10 POP SWAP2 SWAP8 POP SWAP1 SWAP6 POP SWAP4 POP POP POP POP JUMP JUMPDEST PUSH1 0xC PUSH1 0xD SLOAD DUP2 SLOAD DUP2 LT PUSH2 0xF60 JUMPI PUSH2 0xF60 PUSH2 0x3B77 JUMP JUMPDEST PUSH1 0x0 SWAP2 DUP3 MSTORE PUSH1 0x20 SWAP1 SWAP2 KECCAK256 ADD SLOAD PUSH1 0x1 PUSH1 0x1 PUSH1 0xA0 SHL SUB AND CALLER EQ PUSH2 0xF80 JUMPI PUSH1 0x0 DUP1 REVERT JUMPDEST PUSH1 0x0 JUMPDEST PUSH1 0xA SLOAD DUP2 LT ISZERO PUSH2 0x1002 JUMPI PUSH1 0x0 DUP2 DUP2 MSTORE PUSH1 0x6 PUSH1 0x20 MSTORE PUSH1 0x40 SWAP1 KECCAK256 SLOAD PUSH1 0x1 PUSH1 0x1 PUSH1 0xA0 SHL SUB DUP5 DUP2 AND SWAP2 AND EQ ISZERO PUSH2 0xFF0 JUMPI PUSH1 0x40 MLOAD PUSH3 0x461BCD PUSH1 0xE5 SHL DUP2 MSTORE PUSH1 0x20 PUSH1 0x4 DUP3 ADD MSTORE PUSH1 0x16 PUSH1 0x24 DUP3 ADD MSTORE PUSH22 0x105C9D081DDBDC9AC8185B1C9958591E481859191959 PUSH1 0x52 SHL PUSH1 0x44 DUP3 ADD MSTORE PUSH1 0x64 ADD PUSH2 0x971 JUMP JUMPDEST DUP1 PUSH2 0xFFA DUP2 PUSH2 0x3B3C JUMP JUMPDEST SWAP2 POP POP PUSH2 0xF83 JUMP JUMPDEST POP PUSH1 0xA DUP1 SLOAD PUSH1 0x0 SWAP1 DUP2 MSTORE PUSH1 0x6 PUSH1 0x20 SWAP1 DUP2 MSTORE PUSH1 0x40 DUP1 DUP4 KECCAK256 DUP1 SLOAD PUSH1 0x1 PUSH1 0x1 PUSH1 0xA0 SHL SUB NOT AND PUSH1 0x1 PUSH1 0x1 PUSH1 0xA0 SHL SUB DUP9 AND SWAP1 DUP2 OR SWAP1 SWAP2 SSTORE DUP5 SLOAD DUP5 MSTORE PUSH1 0x8 DUP4 MSTORE DUP2 DUP5 KECCAK256 DUP7 SWAP1 SSTORE DUP4 MSTORE PUSH1 0x9 SWAP1 SWAP2 MSTORE DUP2 KECCAK256 DUP1 SLOAD PUSH1 0xFF NOT AND SWAP1 SSTORE DUP2 SLOAD SWAP2 SWAP1 PUSH2 0x1060 DUP4 PUSH2 0x3B3C JUMP JUMPDEST SWAP2 SWAP1 POP SSTORE POP POP POP JUMP JUMPDEST PUSH1 0x0 DUP1 DUP4 GT PUSH2 0x108A JUMPI PUSH1 0x40 MLOAD PUSH3 0x461BCD PUSH1 0xE5 SHL DUP2 MSTORE PUSH1 0x4 ADD PUSH2 0x971 SWAP1 PUSH2 0x3BAA JUMP JUMPDEST PUSH1 0x0 DUP3 GT PUSH2 0x10AA JUMPI PUSH1 0x40 MLOAD PUSH3 0x461BCD PUSH1 0xE5 SHL DUP2 MSTORE PUSH1 0x4 ADD PUSH2 0x971 SWAP1 PUSH2 0x3BAA JUMP JUMPDEST DUP2 PUSH2 0x10B5 DUP5 CALLVALUE PUSH2 0x3BE1 JUMP JUMPDEST EQ PUSH2 0x10F7 JUMPI PUSH1 0x40 MLOAD PUSH3 0x461BCD PUSH1 0xE5 SHL DUP2 MSTORE PUSH1 0x20 PUSH1 0x4 DUP3 ADD MSTORE PUSH1 0x12 PUSH1 0x24 DUP3 ADD MSTORE PUSH18 0x31B0B7103737BA1036B0B5B29037B93232B9 PUSH1 0x71 SHL PUSH1 0x44 DUP3 ADD MSTORE PUSH1 0x64 ADD PUSH2 0x971 JUMP JUMPDEST PUSH1 0x40 DUP1 MLOAD PUSH1 0xC0 DUP2 ADD DUP3 MSTORE PUSH1 0x1 PUSH1 0x1 PUSH1 0xA0 SHL SUB DUP7 DUP2 AND DUP3 MSTORE CALLER PUSH1 0x20 DUP1 DUP5 ADD SWAP2 DUP3 MSTORE DUP4 DUP6 ADD DUP9 DUP2 MSTORE PUSH1 0x60 DUP6 ADD DUP9 DUP2 MSTORE CALLVALUE PUSH1 0x80 DUP8 ADD SWAP1 DUP2 MSTORE PUSH1 0x0 PUSH1 0xA0 DUP9 ADD DUP2 DUP2 MSTORE PUSH1 0x4 DUP1 SLOAD DUP4 MSTORE PUSH1 0x2 SWAP7 DUP8 SWAP1 MSTORE SWAP10 SWAP1 SWAP2 KECCAK256 DUP9 MLOAD DUP2 SLOAD SWAP1 DUP10 AND PUSH1 0x1 PUSH1 0x1 PUSH1 0xA0 SHL SUB NOT SWAP2 DUP3 AND OR DUP3 SSTORE SWAP7 MLOAD PUSH1 0x1 DUP1 DUP4 ADD DUP1 SLOAD SWAP3 SWAP1 SWAP11 AND SWAP2 SWAP1 SWAP9 AND OR SWAP1 SWAP8 SSTORE SWAP3 MLOAD DUP7 DUP6 ADD SSTORE SWAP1 MLOAD PUSH1 0x3 DUP7 ADD SSTORE MLOAD SWAP6 DUP5 ADD SWAP6 SWAP1 SWAP6 SSTORE SWAP4 MLOAD PUSH1 0x5 DUP4 ADD DUP1 SLOAD SWAP5 SWAP6 SWAP4 SWAP5 SWAP2 SWAP4 SWAP1 SWAP3 PUSH1 0xFF NOT SWAP1 SWAP3 AND SWAP2 SWAP1 DUP5 SWAP1 DUP2 GT ISZERO PUSH2 0x11AE JUMPI PUSH2 0x11AE PUSH2 0x3700 JUMP JUMPDEST MUL OR SWAP1 SSTORE POP SWAP1 POP POP PUSH2 0x11C1 PUSH1 0x4 SLOAD PUSH2 0x2BFD JUMP JUMPDEST PUSH1 0x1 PUSH1 0x4 PUSH1 0x0 DUP3 DUP3 SLOAD PUSH2 0x11D4 SWAP2 SWAP1 PUSH2 0x3C03 JUMP JUMPDEST SWAP1 SWAP2 SSTORE POP POP PUSH1 0x4 SLOAD PUSH2 0x11E8 SWAP1 PUSH1 0x1 SWAP1 PUSH2 0x3C1B JUMP JUMPDEST SWAP5 SWAP4 POP POP POP POP JUMP JUMPDEST PUSH1 0x60 PUSH1 0x0 DUP1 JUMPDEST PUSH1 0xA SLOAD DUP2 LT ISZERO PUSH2 0x1252 JUMPI PUSH1 0x0 DUP2 DUP2 MSTORE PUSH1 0x6 PUSH1 0x20 SWAP1 DUP2 MSTORE PUSH1 0x40 DUP1 DUP4 KECCAK256 SLOAD PUSH1 0x1 PUSH1 0x1 PUSH1 0xA0 SHL SUB AND DUP4 MSTORE PUSH1 0x9 SWAP1 SWAP2 MSTORE SWAP1 KECCAK256 SLOAD PUSH1 0xFF AND ISZERO ISZERO PUSH1 0x1 EQ ISZERO PUSH2 0x1240 JUMPI DUP2 PUSH2 0x123C DUP2 PUSH2 0x3B3C JUMP JUMPDEST SWAP3 POP POP JUMPDEST DUP1 PUSH2 0x124A DUP2 PUSH2 0x3B3C JUMP JUMPDEST SWAP2 POP POP PUSH2 0x11F6 JUMP JUMPDEST POP PUSH1 0x0 DUP2 PUSH1 0x1 PUSH1 0x1 PUSH1 0x40 SHL SUB DUP2 GT ISZERO PUSH2 0x126D JUMPI PUSH2 0x126D PUSH2 0x384A JUMP JUMPDEST PUSH1 0x40 MLOAD SWAP1 DUP1 DUP3 MSTORE DUP1 PUSH1 0x20 MUL PUSH1 0x20 ADD DUP3 ADD PUSH1 0x40 MSTORE DUP1 ISZERO PUSH2 0x1296 JUMPI DUP2 PUSH1 0x20 ADD PUSH1 0x20 DUP3 MUL DUP1 CALLDATASIZE DUP4 CALLDATACOPY ADD SWAP1 POP JUMPDEST POP SWAP1 POP PUSH1 0x0 SWAP2 POP PUSH1 0x0 JUMPDEST PUSH1 0xA SLOAD DUP2 LT ISZERO PUSH2 0x1343 JUMPI PUSH1 0x0 DUP2 DUP2 MSTORE PUSH1 0x6 PUSH1 0x20 SWAP1 DUP2 MSTORE PUSH1 0x40 DUP1 DUP4 KECCAK256 SLOAD PUSH1 0x1 PUSH1 0x1 PUSH1 0xA0 SHL SUB AND DUP4 MSTORE PUSH1 0x9 SWAP1 SWAP2 MSTORE SWAP1 KECCAK256 SLOAD PUSH1 0xFF AND ISZERO ISZERO PUSH1 0x1 EQ ISZERO PUSH2 0x1331 JUMPI PUSH1 0x0 DUP2 DUP2 MSTORE PUSH1 0x6 PUSH1 0x20 MSTORE PUSH1 0x40 SWAP1 KECCAK256 SLOAD DUP3 MLOAD PUSH1 0x1 PUSH1 0x1 PUSH1 0xA0 SHL SUB SWAP1 SWAP2 AND SWAP1 DUP4 SWAP1 DUP6 SWAP1 DUP2 LT PUSH2 0x130B JUMPI PUSH2 0x130B PUSH2 0x3B77 JUMP JUMPDEST PUSH1 0x1 PUSH1 0x1 PUSH1 0xA0 SHL SUB SWAP1 SWAP3 AND PUSH1 0x20 SWAP3 DUP4 MUL SWAP2 SWAP1 SWAP2 ADD SWAP1 SWAP2 ADD MSTORE DUP3 PUSH2 0x132D DUP2 PUSH2 0x3B3C JUMP JUMPDEST SWAP4 POP POP JUMPDEST DUP1 PUSH2 0x133B DUP2 PUSH2 0x3B3C JUMP JUMPDEST SWAP2 POP POP PUSH2 0x12A0 JUMP JUMPDEST POP SWAP3 SWAP2 POP POP JUMP JUMPDEST PUSH1 0x0 DUP1 DUP1 JUMPDEST PUSH1 0xB SLOAD DUP2 LT ISZERO PUSH2 0x141E JUMPI PUSH1 0x0 DUP2 DUP2 MSTORE PUSH1 0x7 PUSH1 0x20 MSTORE PUSH1 0x40 SWAP1 KECCAK256 DUP1 SLOAD PUSH2 0x13FB SWAP2 SWAP1 PUSH2 0x1377 SWAP1 PUSH2 0x3C32 JUMP JUMPDEST DUP1 PUSH1 0x1F ADD PUSH1 0x20 DUP1 SWAP2 DIV MUL PUSH1 0x20 ADD PUSH1 0x40 MLOAD SWAP1 DUP2 ADD PUSH1 0x40 MSTORE DUP1 SWAP3 SWAP2 SWAP1 DUP2 DUP2 MSTORE PUSH1 0x20 ADD DUP3 DUP1 SLOAD PUSH2 0x13A3 SWAP1 PUSH2 0x3C32 JUMP JUMPDEST DUP1 ISZERO PUSH2 0x13F0 JUMPI DUP1 PUSH1 0x1F LT PUSH2 0x13C5 JUMPI PUSH2 0x100 DUP1 DUP4 SLOAD DIV MUL DUP4 MSTORE SWAP2 PUSH1 0x20 ADD SWAP2 PUSH2 0x13F0 JUMP JUMPDEST DUP3 ADD SWAP2 SWAP1 PUSH1 0x0 MSTORE PUSH1 0x20 PUSH1 0x0 KECCAK256 SWAP1 JUMPDEST DUP2 SLOAD DUP2 MSTORE SWAP1 PUSH1 0x1 ADD SWAP1 PUSH1 0x20 ADD DUP1 DUP4 GT PUSH2 0x13D3 JUMPI DUP3 SWAP1 SUB PUSH1 0x1F AND DUP3 ADD SWAP2 JUMPDEST POP POP POP POP POP DUP6 PUSH2 0x24F3 JUMP JUMPDEST ISZERO ISZERO PUSH1 0x1 EQ ISZERO PUSH2 0x140C JUMPI SWAP4 SWAP3 POP POP POP JUMP JUMPDEST DUP1 PUSH2 0x1416 DUP2 PUSH2 0x3B3C JUMP JUMPDEST SWAP2 POP POP PUSH2 0x134F JUMP JUMPDEST POP PUSH1 0x1 DUP2 ISZERO ISZERO EQ PUSH2 0x1471 JUMPI PUSH1 0x40 MLOAD PUSH3 0x461BCD PUSH1 0xE5 SHL DUP2 MSTORE PUSH1 0x20 PUSH1 0x4 DUP3 ADD MSTORE PUSH1 0x1A PUSH1 0x24 DUP3 ADD MSTORE PUSH32 0x4E6F20436F6C6C656374696F6E2042792054686174204E616D65000000000000 PUSH1 0x44 DUP3 ADD MSTORE PUSH1 0x64 ADD PUSH2 0x971 JUMP JUMPDEST POP PUSH1 0x0 SWAP3 SWAP2 POP POP JUMP JUMPDEST PUSH1 0x60 PUSH1 0x0 PUSH1 0xB SLOAD PUSH1 0x1 PUSH1 0x1 PUSH1 0x40 SHL SUB DUP2 GT ISZERO PUSH2 0x1498 JUMPI PUSH2 0x1498 PUSH2 0x384A JUMP JUMPDEST PUSH1 0x40 MLOAD SWAP1 DUP1 DUP3 MSTORE DUP1 PUSH1 0x20 MUL PUSH1 0x20 ADD DUP3 ADD PUSH1 0x40 MSTORE DUP1 ISZERO PUSH2 0x14CB JUMPI DUP2 PUSH1 0x20 ADD JUMPDEST PUSH1 0x60 DUP2 MSTORE PUSH1 0x20 ADD SWAP1 PUSH1 0x1 SWAP1 SUB SWAP1 DUP2 PUSH2 0x14B6 JUMPI SWAP1 POP JUMPDEST POP SWAP1 POP PUSH1 0x0 JUMPDEST PUSH1 0xB SLOAD DUP2 LT ISZERO PUSH2 0x15A2 JUMPI PUSH1 0x0 DUP2 DUP2 MSTORE PUSH1 0x7 PUSH1 0x20 MSTORE PUSH1 0x40 SWAP1 KECCAK256 DUP1 SLOAD PUSH2 0x14F4 SWAP1 PUSH2 0x3C32 JUMP JUMPDEST DUP1 PUSH1 0x1F ADD PUSH1 0x20 DUP1 SWAP2 DIV MUL PUSH1 0x20 ADD PUSH1 0x40 MLOAD SWAP1 DUP2 ADD PUSH1 0x40 MSTORE DUP1 SWAP3 SWAP2 SWAP1 DUP2 DUP2 MSTORE PUSH1 0x20 ADD DUP3 DUP1 SLOAD PUSH2 0x1520 SWAP1 PUSH2 0x3C32 JUMP JUMPDEST DUP1 ISZERO PUSH2 0x156D JUMPI DUP1 PUSH1 0x1F LT PUSH2 0x1542 JUMPI PUSH2 0x100 DUP1 DUP4 SLOAD DIV MUL DUP4 MSTORE SWAP2 PUSH1 0x20 ADD SWAP2 PUSH2 0x156D JUMP JUMPDEST DUP3 ADD SWAP2 SWAP1 PUSH1 0x0 MSTORE PUSH1 0x20 PUSH1 0x0 KECCAK256 SWAP1 JUMPDEST DUP2 SLOAD DUP2 MSTORE SWAP1 PUSH1 0x1 ADD SWAP1 PUSH1 0x20 ADD DUP1 DUP4 GT PUSH2 0x1550 JUMPI DUP3 SWAP1 SUB PUSH1 0x1F AND DUP3 ADD SWAP2 JUMPDEST POP POP POP POP POP DUP3 DUP3 DUP2 MLOAD DUP2 LT PUSH2 0x1584 JUMPI PUSH2 0x1584 PUSH2 0x3B77 JUMP JUMPDEST PUSH1 0x20 MUL PUSH1 0x20 ADD ADD DUP2 SWAP1 MSTORE POP DUP1 DUP1 PUSH2 0x159A SWAP1 PUSH2 0x3B3C JUMP JUMPDEST SWAP2 POP POP PUSH2 0x14D1 JUMP JUMPDEST POP SWAP2 SWAP1 POP JUMP JUMPDEST PUSH1 0x60 DUP1 PUSH1 0x0 PUSH1 0xA SLOAD PUSH1 0x1 PUSH1 0x1 PUSH1 0x40 SHL SUB DUP2 GT ISZERO PUSH2 0x15C7 JUMPI PUSH2 0x15C7 PUSH2 0x384A JUMP JUMPDEST PUSH1 0x40 MLOAD SWAP1 DUP1 DUP3 MSTORE DUP1 PUSH1 0x20 MUL PUSH1 0x20 ADD DUP3 ADD PUSH1 0x40 MSTORE DUP1 ISZERO PUSH2 0x15F0 JUMPI DUP2 PUSH1 0x20 ADD PUSH1 0x20 DUP3 MUL DUP1 CALLDATASIZE DUP4 CALLDATACOPY ADD SWAP1 POP JUMPDEST POP SWAP1 POP PUSH1 0x0 PUSH1 0xA SLOAD PUSH1 0x1 PUSH1 0x1 PUSH1 0x40 SHL SUB DUP2 GT ISZERO PUSH2 0x160F JUMPI PUSH2 0x160F PUSH2 0x384A JUMP JUMPDEST PUSH1 0x40 MLOAD SWAP1 DUP1 DUP3 MSTORE DUP1 PUSH1 0x20 MUL PUSH1 0x20 ADD DUP3 ADD PUSH1 0x40 MSTORE DUP1 ISZERO PUSH2 0x1638 JUMPI DUP2 PUSH1 0x20 ADD PUSH1 0x20 DUP3 MUL DUP1 CALLDATASIZE DUP4 CALLDATACOPY ADD SWAP1 POP JUMPDEST POP SWAP1 POP PUSH1 0x0 JUMPDEST PUSH1 0xA SLOAD DUP2 LT ISZERO PUSH2 0x16E8 JUMPI PUSH1 0x0 DUP2 DUP2 MSTORE PUSH1 0x6 PUSH1 0x20 MSTORE PUSH1 0x40 SWAP1 KECCAK256 SLOAD DUP4 MLOAD PUSH1 0x1 PUSH1 0x1 PUSH1 0xA0 SHL SUB SWAP1 SWAP2 AND SWAP1 DUP5 SWAP1 DUP4 SWAP1 DUP2 LT PUSH2 0x1677 JUMPI PUSH2 0x1677 PUSH2 0x3B77 JUMP JUMPDEST PUSH1 0x1 PUSH1 0x1 PUSH1 0xA0 SHL SUB SWAP3 DUP4 AND PUSH1 0x20 SWAP2 DUP3 MUL SWAP3 SWAP1 SWAP3 ADD DUP2 ADD SWAP2 SWAP1 SWAP2 MSTORE PUSH1 0x0 DUP4 DUP2 MSTORE PUSH1 0x6 DUP3 MSTORE PUSH1 0x40 DUP1 DUP3 KECCAK256 SLOAD SWAP1 SWAP4 AND DUP2 MSTORE PUSH1 0x9 SWAP1 SWAP2 MSTORE KECCAK256 SLOAD DUP3 MLOAD PUSH1 0xFF SWAP1 SWAP2 AND SWAP1 DUP4 SWAP1 DUP4 SWAP1 DUP2 LT PUSH2 0x16C6 JUMPI PUSH2 0x16C6 PUSH2 0x3B77 JUMP JUMPDEST SWAP2 ISZERO ISZERO PUSH1 0x20 SWAP3 DUP4 MUL SWAP2 SWAP1 SWAP2 ADD SWAP1 SWAP2 ADD MSTORE DUP1 PUSH2 0x16E0 DUP2 PUSH2 0x3B3C JUMP JUMPDEST SWAP2 POP POP PUSH2 0x163E JUMP JUMPDEST POP SWAP1 SWAP4 SWAP1 SWAP3 POP SWAP1 POP JUMP JUMPDEST PUSH1 0xC PUSH1 0xD SLOAD DUP2 SLOAD DUP2 LT PUSH2 0x1707 JUMPI PUSH2 0x1707 PUSH2 0x3B77 JUMP JUMPDEST PUSH1 0x0 SWAP2 DUP3 MSTORE PUSH1 0x20 SWAP1 SWAP2 KECCAK256 ADD SLOAD PUSH1 0x1 PUSH1 0x1 PUSH1 0xA0 SHL SUB AND CALLER EQ PUSH2 0x1727 JUMPI PUSH1 0x0 DUP1 REVERT JUMPDEST PUSH1 0x0 JUMPDEST PUSH1 0xB SLOAD DUP2 LT ISZERO PUSH2 0x1835 JUMPI PUSH1 0x0 DUP2 DUP2 MSTORE PUSH1 0x7 PUSH1 0x20 MSTORE PUSH1 0x40 SWAP1 KECCAK256 DUP1 SLOAD PUSH2 0x17D6 SWAP2 SWAP1 PUSH2 0x1752 SWAP1 PUSH2 0x3C32 JUMP JUMPDEST DUP1 PUSH1 0x1F ADD PUSH1 0x20 DUP1 SWAP2 DIV MUL PUSH1 0x20 ADD PUSH1 0x40 MLOAD SWAP1 DUP2 ADD PUSH1 0x40 MSTORE DUP1 SWAP3 SWAP2 SWAP1 DUP2 DUP2 MSTORE PUSH1 0x20 ADD DUP3 DUP1 SLOAD PUSH2 0x177E SWAP1 PUSH2 0x3C32 JUMP JUMPDEST DUP1 ISZERO PUSH2 0x17CB JUMPI DUP1 PUSH1 0x1F LT PUSH2 0x17A0 JUMPI PUSH2 0x100 DUP1 DUP4 SLOAD DIV MUL DUP4 MSTORE SWAP2 PUSH1 0x20 ADD SWAP2 PUSH2 0x17CB JUMP JUMPDEST DUP3 ADD SWAP2 SWAP1 PUSH1 0x0 MSTORE PUSH1 0x20 PUSH1 0x0 KECCAK256 SWAP1 JUMPDEST DUP2 SLOAD DUP2 MSTORE SWAP1 PUSH1 0x1 ADD SWAP1 PUSH1 0x20 ADD DUP1 DUP4 GT PUSH2 0x17AE JUMPI DUP3 SWAP1 SUB PUSH1 0x1F AND DUP3 ADD SWAP2 JUMPDEST POP POP POP POP POP DUP4 PUSH2 0x24F3 JUMP JUMPDEST ISZERO PUSH2 0x1823 JUMPI PUSH1 0x40 MLOAD PUSH3 0x461BCD PUSH1 0xE5 SHL DUP2 MSTORE PUSH1 0x20 PUSH1 0x4 DUP3 ADD MSTORE PUSH1 0x1B PUSH1 0x24 DUP3 ADD MSTORE PUSH32 0x436F6C6C656374696F6E20697320616C72656164792061646465640000000000 PUSH1 0x44 DUP3 ADD MSTORE PUSH1 0x64 ADD PUSH2 0x971 JUMP JUMPDEST DUP1 PUSH2 0x182D DUP2 PUSH2 0x3B3C JUMP JUMPDEST SWAP2 POP POP PUSH2 0x172A JUMP JUMPDEST POP PUSH1 0xB SLOAD PUSH1 0x0 SWAP1 DUP2 MSTORE PUSH1 0x7 PUSH1 0x20 SWAP1 DUP2 MSTORE PUSH1 0x40 SWAP1 SWAP2 KECCAK256 DUP3 MLOAD PUSH2 0x1858 SWAP3 DUP5 ADD SWAP1 PUSH2 0x34E7 JUMP JUMPDEST POP PUSH1 0xB DUP1 SLOAD SWAP1 PUSH1 0x0 PUSH2 0x1869 DUP4 PUSH2 0x3B3C JUMP JUMPDEST SWAP2 SWAP1 POP SSTORE POP POP JUMP JUMPDEST PUSH1 0xC PUSH1 0xD SLOAD DUP2 SLOAD DUP2 LT PUSH2 0x1886 JUMPI PUSH2 0x1886 PUSH2 0x3B77 JUMP JUMPDEST PUSH1 0x0 SWAP2 DUP3 MSTORE PUSH1 0x20 SWAP1 SWAP2 KECCAK256 ADD SLOAD PUSH1 0x1 PUSH1 0x1 PUSH1 0xA0 SHL SUB AND CALLER EQ PUSH2 0x18A6 JUMPI PUSH1 0x0 DUP1 REVERT JUMPDEST PUSH1 0xD DUP1 SLOAD SWAP1 PUSH1 0x0 PUSH2 0x18B6 DUP4 PUSH2 0x3B3C JUMP JUMPDEST SWAP1 SWAP2 SSTORE POP POP PUSH1 0xC DUP1 SLOAD PUSH1 0x1 DUP2 ADD DUP3 SSTORE PUSH1 0x0 SWAP2 SWAP1 SWAP2 MSTORE PUSH32 0xDF6966C971051C3D54EC59162606531493A51404A002842F56009D7E5CF4A8C7 ADD DUP1 SLOAD PUSH1 0x1 PUSH1 0x1 PUSH1 0xA0 SHL SUB NOT AND PUSH1 0x1 PUSH1 0x1 PUSH1 0xA0 SHL SUB SWAP3 SWAP1 SWAP3 AND SWAP2 SWAP1 SWAP2 OR SWAP1 SSTORE JUMP JUMPDEST PUSH1 0x60 DUP1 PUSH1 0x60 DUP1 PUSH1 0x0 DUP1 JUMPDEST PUSH1 0x4 SLOAD DUP2 PUSH1 0xFF AND LT ISZERO PUSH2 0x199F JUMPI PUSH1 0x0 PUSH1 0xFF DUP1 DUP4 AND PUSH1 0x0 SWAP1 DUP2 MSTORE PUSH1 0x2 PUSH1 0x20 DUP2 SWAP1 MSTORE PUSH1 0x40 SWAP1 SWAP2 KECCAK256 PUSH1 0x5 ADD SLOAD SWAP1 SWAP2 AND SWAP1 DUP2 GT ISZERO PUSH2 0x1953 JUMPI PUSH2 0x1953 PUSH2 0x3700 JUMP JUMPDEST EQ ISZERO PUSH2 0x198D JUMPI PUSH1 0xFF DUP2 AND PUSH1 0x0 SWAP1 DUP2 MSTORE PUSH1 0x2 PUSH1 0x20 MSTORE PUSH1 0x40 SWAP1 KECCAK256 SLOAD PUSH1 0x1 PUSH1 0x1 PUSH1 0xA0 SHL SUB DUP9 DUP2 AND SWAP2 AND EQ ISZERO PUSH2 0x198D JUMPI PUSH2 0x198A PUSH1 0x1 DUP4 PUSH2 0x3C67 JUMP JUMPDEST SWAP2 POP JUMPDEST DUP1 PUSH2 0x1997 DUP2 PUSH2 0x3B57 JUMP JUMPDEST SWAP2 POP POP PUSH2 0x1917 JUMP JUMPDEST POP PUSH1 0x0 DUP2 PUSH1 0xFF AND PUSH1 0x1 PUSH1 0x1 PUSH1 0x40 SHL SUB DUP2 GT ISZERO PUSH2 0x19BD JUMPI PUSH2 0x19BD PUSH2 0x384A JUMP JUMPDEST PUSH1 0x40 MLOAD SWAP1 DUP1 DUP3 MSTORE DUP1 PUSH1 0x20 MUL PUSH1 0x20 ADD DUP3 ADD PUSH1 0x40 MSTORE DUP1 ISZERO PUSH2 0x19E6 JUMPI DUP2 PUSH1 0x20 ADD PUSH1 0x20 DUP3 MUL DUP1 CALLDATASIZE DUP4 CALLDATACOPY ADD SWAP1 POP JUMPDEST POP SWAP1 POP PUSH1 0x0 DUP3 PUSH1 0xFF AND PUSH1 0x1 PUSH1 0x1 PUSH1 0x40 SHL SUB DUP2 GT ISZERO PUSH2 0x1A06 JUMPI PUSH2 0x1A06 PUSH2 0x384A JUMP JUMPDEST PUSH1 0x40 MLOAD SWAP1 DUP1 DUP3 MSTORE DUP1 PUSH1 0x20 MUL PUSH1 0x20 ADD DUP3 ADD PUSH1 0x40 MSTORE DUP1 ISZERO PUSH2 0x1A2F JUMPI DUP2 PUSH1 0x20 ADD PUSH1 0x20 DUP3 MUL DUP1 CALLDATASIZE DUP4 CALLDATACOPY ADD SWAP1 POP JUMPDEST POP SWAP1 POP PUSH1 0x0 DUP4 PUSH1 0xFF AND PUSH1 0x1 PUSH1 0x1 PUSH1 0x40 SHL SUB DUP2 GT ISZERO PUSH2 0x1A4F JUMPI PUSH2 0x1A4F PUSH2 0x384A JUMP JUMPDEST PUSH1 0x40 MLOAD SWAP1 DUP1 DUP3 MSTORE DUP1 PUSH1 0x20 MUL PUSH1 0x20 ADD DUP3 ADD PUSH1 0x40 MSTORE DUP1 ISZERO PUSH2 0x1A78 JUMPI DUP2 PUSH1 0x20 ADD PUSH1 0x20 DUP3 MUL DUP1 CALLDATASIZE DUP4 CALLDATACOPY ADD SWAP1 POP JUMPDEST POP SWAP1 POP PUSH1 0x0 DUP5 PUSH1 0xFF AND PUSH1 0x1 PUSH1 0x1 PUSH1 0x40 SHL SUB DUP2 GT ISZERO PUSH2 0x1A98 JUMPI PUSH2 0x1A98 PUSH2 0x384A JUMP JUMPDEST PUSH1 0x40 MLOAD SWAP1 DUP1 DUP3 MSTORE DUP1 PUSH1 0x20 MUL PUSH1 0x20 ADD DUP3 ADD PUSH1 0x40 MSTORE DUP1 ISZERO PUSH2 0x1AC1 JUMPI DUP2 PUSH1 0x20 ADD PUSH1 0x20 DUP3 MUL DUP1 CALLDATASIZE DUP4 CALLDATACOPY ADD SWAP1 POP JUMPDEST POP SWAP1 POP PUSH1 0x0 SWAP5 POP PUSH1 0x0 JUMPDEST PUSH1 0x4 SLOAD DUP2 PUSH1 0xFF AND LT ISZERO PUSH2 0x1C28 JUMPI PUSH1 0x0 PUSH1 0xFF DUP1 DUP4 AND PUSH1 0x0 SWAP1 DUP2 MSTORE PUSH1 0x2 PUSH1 0x20 DUP2 SWAP1 MSTORE PUSH1 0x40 SWAP1 SWAP2 KECCAK256 PUSH1 0x5 ADD SLOAD SWAP1 SWAP2 AND SWAP1 DUP2 GT ISZERO PUSH2 0x1B07 JUMPI PUSH2 0x1B07 PUSH2 0x3700 JUMP JUMPDEST EQ ISZERO PUSH2 0x1C16 JUMPI PUSH1 0xFF DUP2 AND PUSH1 0x0 SWAP1 DUP2 MSTORE PUSH1 0x2 PUSH1 0x20 MSTORE PUSH1 0x40 SWAP1 KECCAK256 SLOAD PUSH1 0x1 PUSH1 0x1 PUSH1 0xA0 SHL SUB DUP13 DUP2 AND SWAP2 AND EQ ISZERO PUSH2 0x1C16 JUMPI PUSH1 0x2 PUSH1 0x0 DUP3 PUSH1 0xFF AND DUP2 MSTORE PUSH1 0x20 ADD SWAP1 DUP2 MSTORE PUSH1 0x20 ADD PUSH1 0x0 KECCAK256 PUSH1 0x2 ADD SLOAD DUP6 DUP8 PUSH1 0xFF AND DUP2 MLOAD DUP2 LT PUSH2 0x1B62 JUMPI PUSH2 0x1B62 PUSH2 0x3B77 JUMP JUMPDEST PUSH1 0x20 MUL PUSH1 0x20 ADD ADD DUP2 DUP2 MSTORE POP POP PUSH1 0x2 PUSH1 0x0 DUP3 PUSH1 0xFF AND DUP2 MSTORE PUSH1 0x20 ADD SWAP1 DUP2 MSTORE PUSH1 0x20 ADD PUSH1 0x0 KECCAK256 PUSH1 0x3 ADD SLOAD DUP5 DUP8 PUSH1 0xFF AND DUP2 MLOAD DUP2 LT PUSH2 0x1B9D JUMPI PUSH2 0x1B9D PUSH2 0x3B77 JUMP JUMPDEST PUSH1 0x20 MUL PUSH1 0x20 ADD ADD DUP2 DUP2 MSTORE POP POP PUSH1 0x2 PUSH1 0x0 DUP3 PUSH1 0xFF AND DUP2 MSTORE PUSH1 0x20 ADD SWAP1 DUP2 MSTORE PUSH1 0x20 ADD PUSH1 0x0 KECCAK256 PUSH1 0x4 ADD SLOAD DUP4 DUP8 PUSH1 0xFF AND DUP2 MLOAD DUP2 LT PUSH2 0x1BD8 JUMPI PUSH2 0x1BD8 PUSH2 0x3B77 JUMP JUMPDEST PUSH1 0x20 MUL PUSH1 0x20 ADD ADD DUP2 DUP2 MSTORE POP POP DUP1 PUSH1 0xFF AND DUP3 DUP8 PUSH1 0xFF AND DUP2 MLOAD DUP2 LT PUSH2 0x1BFD JUMPI PUSH2 0x1BFD PUSH2 0x3B77 JUMP JUMPDEST PUSH1 0x20 SWAP1 DUP2 MUL SWAP2 SWAP1 SWAP2 ADD ADD MSTORE DUP6 PUSH2 0x1C12 DUP2 PUSH2 0x3B57 JUMP JUMPDEST SWAP7 POP POP JUMPDEST DUP1 PUSH2 0x1C20 DUP2 PUSH2 0x3B57 JUMP JUMPDEST SWAP2 POP POP PUSH2 0x1ACB JUMP JUMPDEST POP SWAP3 SWAP10 SWAP2 SWAP9 POP SWAP7 POP SWAP1 SWAP5 POP SWAP3 POP POP POP JUMP JUMPDEST PUSH1 0x60 DUP1 PUSH1 0x60 DUP1 PUSH1 0x0 DUP1 JUMPDEST PUSH1 0x5 SLOAD DUP2 PUSH1 0xFF AND LT ISZERO PUSH2 0x1CC7 JUMPI PUSH1 0xFF DUP2 AND PUSH1 0x0 SWAP1 DUP2 MSTORE PUSH1 0x3 PUSH1 0x20 MSTORE PUSH1 0x40 SWAP1 KECCAK256 SLOAD PUSH1 0x1 PUSH1 0x1 PUSH1 0xA0 SHL SUB DUP9 DUP2 AND SWAP2 AND EQ ISZERO PUSH2 0x1CB5 JUMPI PUSH1 0x0 PUSH1 0xFF DUP1 DUP4 AND PUSH1 0x0 SWAP1 DUP2 MSTORE PUSH1 0x3 PUSH1 0x20 MSTORE PUSH1 0x40 SWAP1 KECCAK256 PUSH1 0x5 ADD SLOAD AND PUSH1 0x2 DUP2 GT ISZERO PUSH2 0x1CA1 JUMPI PUSH2 0x1CA1 PUSH2 0x3700 JUMP JUMPDEST EQ ISZERO PUSH2 0x1CB5 JUMPI DUP2 PUSH2 0x1CB1 DUP2 PUSH2 0x3B57 JUMP JUMPDEST SWAP3 POP POP JUMPDEST DUP1 PUSH2 0x1CBF DUP2 PUSH2 0x3B57 JUMP JUMPDEST SWAP2 POP POP PUSH2 0x1C43 JUMP JUMPDEST POP PUSH1 0x0 DUP2 PUSH1 0xFF AND PUSH1 0x1 PUSH1 0x1 PUSH1 0x40 SHL SUB DUP2 GT ISZERO PUSH2 0x1CE5 JUMPI PUSH2 0x1CE5 PUSH2 0x384A JUMP JUMPDEST PUSH1 0x40 MLOAD SWAP1 DUP1 DUP3 MSTORE DUP1 PUSH1 0x20 MUL PUSH1 0x20 ADD DUP3 ADD PUSH1 0x40 MSTORE DUP1 ISZERO PUSH2 0x1D0E JUMPI DUP2 PUSH1 0x20 ADD PUSH1 0x20 DUP3 MUL DUP1 CALLDATASIZE DUP4 CALLDATACOPY ADD SWAP1 POP JUMPDEST POP SWAP1 POP PUSH1 0x0 DUP3 PUSH1 0xFF AND PUSH1 0x1 PUSH1 0x1 PUSH1 0x40 SHL SUB DUP2 GT ISZERO PUSH2 0x1D2E JUMPI PUSH2 0x1D2E PUSH2 0x384A JUMP JUMPDEST PUSH1 0x40 MLOAD SWAP1 DUP1 DUP3 MSTORE DUP1 PUSH1 0x20 MUL PUSH1 0x20 ADD DUP3 ADD PUSH1 0x40 MSTORE DUP1 ISZERO PUSH2 0x1D57 JUMPI DUP2 PUSH1 0x20 ADD PUSH1 0x20 DUP3 MUL DUP1 CALLDATASIZE DUP4 CALLDATACOPY ADD SWAP1 POP JUMPDEST POP SWAP1 POP PUSH1 0x0 DUP4 PUSH1 0xFF AND PUSH1 0x1 PUSH1 0x1 PUSH1 0x40 SHL SUB DUP2 GT ISZERO PUSH2 0x1D77 JUMPI PUSH2 0x1D77 PUSH2 0x384A JUMP JUMPDEST PUSH1 0x40 MLOAD SWAP1 DUP1 DUP3 MSTORE DUP1 PUSH1 0x20 MUL PUSH1 0x20 ADD DUP3 ADD PUSH1 0x40 MSTORE DUP1 ISZERO PUSH2 0x1DA0 JUMPI DUP2 PUSH1 0x20 ADD PUSH1 0x20 DUP3 MUL DUP1 CALLDATASIZE DUP4 CALLDATACOPY ADD SWAP1 POP JUMPDEST POP SWAP1 POP PUSH1 0x0 DUP5 PUSH1 0xFF AND PUSH1 0x1 PUSH1 0x1 PUSH1 0x40 SHL SUB DUP2 GT ISZERO PUSH2 0x1DC0 JUMPI PUSH2 0x1DC0 PUSH2 0x384A JUMP JUMPDEST PUSH1 0x40 MLOAD SWAP1 DUP1 DUP3 MSTORE DUP1 PUSH1 0x20 MUL PUSH1 0x20 ADD DUP3 ADD PUSH1 0x40 MSTORE DUP1 ISZERO PUSH2 0x1DE9 JUMPI DUP2 PUSH1 0x20 ADD PUSH1 0x20 DUP3 MUL DUP1 CALLDATASIZE DUP4 CALLDATACOPY ADD SWAP1 POP JUMPDEST POP SWAP1 POP PUSH1 0x0 SWAP5 POP PUSH1 0x0 JUMPDEST PUSH1 0x5 SLOAD DUP2 PUSH1 0xFF AND LT ISZERO PUSH2 0x1C28 JUMPI PUSH1 0xFF DUP2 AND PUSH1 0x0 SWAP1 DUP2 MSTORE PUSH1 0x3 PUSH1 0x20 MSTORE PUSH1 0x40 SWAP1 KECCAK256 SLOAD PUSH1 0x1 PUSH1 0x1 PUSH1 0xA0 SHL SUB DUP13 DUP2 AND SWAP2 AND EQ ISZERO PUSH2 0x1F3A JUMPI PUSH1 0x0 PUSH1 0xFF DUP1 DUP4 AND PUSH1 0x0 SWAP1 DUP2 MSTORE PUSH1 0x3 PUSH1 0x20 MSTORE PUSH1 0x40 SWAP1 KECCAK256 PUSH1 0x5 ADD SLOAD AND PUSH1 0x2 DUP2 GT ISZERO PUSH2 0x1E51 JUMPI PUSH2 0x1E51 PUSH2 0x3700 JUMP JUMPDEST EQ ISZERO PUSH2 0x1F3A JUMPI PUSH1 0x3 PUSH1 0x0 DUP3 PUSH1 0xFF AND DUP2 MSTORE PUSH1 0x20 ADD SWAP1 DUP2 MSTORE PUSH1 0x20 ADD PUSH1 0x0 KECCAK256 PUSH1 0x2 ADD SLOAD DUP6 DUP8 PUSH1 0xFF AND DUP2 MLOAD DUP2 LT PUSH2 0x1E86 JUMPI PUSH2 0x1E86 PUSH2 0x3B77 JUMP JUMPDEST PUSH1 0x20 MUL PUSH1 0x20 ADD ADD DUP2 DUP2 MSTORE POP POP PUSH1 0x3 PUSH1 0x0 DUP3 PUSH1 0xFF AND DUP2 MSTORE PUSH1 0x20 ADD SWAP1 DUP2 MSTORE PUSH1 0x20 ADD PUSH1 0x0 KECCAK256 PUSH1 0x3 ADD SLOAD DUP5 DUP8 PUSH1 0xFF AND DUP2 MLOAD DUP2 LT PUSH2 0x1EC1 JUMPI PUSH2 0x1EC1 PUSH2 0x3B77 JUMP JUMPDEST PUSH1 0x20 MUL PUSH1 0x20 ADD ADD DUP2 DUP2 MSTORE POP POP PUSH1 0x3 PUSH1 0x0 DUP3 PUSH1 0xFF AND DUP2 MSTORE PUSH1 0x20 ADD SWAP1 DUP2 MSTORE PUSH1 0x20 ADD PUSH1 0x0 KECCAK256 PUSH1 0x4 ADD SLOAD DUP4 DUP8 PUSH1 0xFF AND DUP2 MLOAD DUP2 LT PUSH2 0x1EFC JUMPI PUSH2 0x1EFC PUSH2 0x3B77 JUMP JUMPDEST PUSH1 0x20 MUL PUSH1 0x20 ADD ADD DUP2 DUP2 MSTORE POP POP DUP1 PUSH1 0xFF AND DUP3 DUP8 PUSH1 0xFF AND DUP2 MLOAD DUP2 LT PUSH2 0x1F21 JUMPI PUSH2 0x1F21 PUSH2 0x3B77 JUMP JUMPDEST PUSH1 0x20 SWAP1 DUP2 MUL SWAP2 SWAP1 SWAP2 ADD ADD MSTORE DUP6 PUSH2 0x1F36 DUP2 PUSH2 0x3B57 JUMP JUMPDEST SWAP7 POP POP JUMPDEST DUP1 PUSH2 0x1F44 DUP2 PUSH2 0x3B57 JUMP JUMPDEST SWAP2 POP POP PUSH2 0x1DF3 JUMP JUMPDEST PUSH1 0x60 DUP1 PUSH1 0x0 DUP1 JUMPDEST PUSH1 0xA SLOAD DUP2 LT ISZERO PUSH2 0x1F93 JUMPI PUSH1 0x0 DUP2 DUP2 MSTORE PUSH1 0x8 PUSH1 0x20 MSTORE PUSH1 0x40 SWAP1 KECCAK256 SLOAD DUP6 EQ ISZERO PUSH2 0x1F81 JUMPI DUP2 PUSH2 0x1F7D DUP2 PUSH2 0x3B3C JUMP JUMPDEST SWAP3 POP POP JUMPDEST DUP1 PUSH2 0x1F8B DUP2 PUSH2 0x3B3C JUMP JUMPDEST SWAP2 POP POP PUSH2 0x1F53 JUMP JUMPDEST POP PUSH1 0x0 DUP2 PUSH1 0x1 PUSH1 0x1 PUSH1 0x40 SHL SUB DUP2 GT ISZERO PUSH2 0x1FAE JUMPI PUSH2 0x1FAE PUSH2 0x384A JUMP JUMPDEST PUSH1 0x40 MLOAD SWAP1 DUP1 DUP3 MSTORE DUP1 PUSH1 0x20 MUL PUSH1 0x20 ADD DUP3 ADD PUSH1 0x40 MSTORE DUP1 ISZERO PUSH2 0x1FD7 JUMPI DUP2 PUSH1 0x20 ADD PUSH1 0x20 DUP3 MUL DUP1 CALLDATASIZE DUP4 CALLDATACOPY ADD SWAP1 POP JUMPDEST POP SWAP1 POP PUSH1 0x0 DUP3 PUSH1 0x1 PUSH1 0x1 PUSH1 0x40 SHL SUB DUP2 GT ISZERO PUSH2 0x1FF4 JUMPI PUSH2 0x1FF4 PUSH2 0x384A JUMP JUMPDEST PUSH1 0x40 MLOAD SWAP1 DUP1 DUP3 MSTORE DUP1 PUSH1 0x20 MUL PUSH1 0x20 ADD DUP3 ADD PUSH1 0x40 MSTORE DUP1 ISZERO PUSH2 0x201D JUMPI DUP2 PUSH1 0x20 ADD PUSH1 0x20 DUP3 MUL DUP1 CALLDATASIZE DUP4 CALLDATACOPY ADD SWAP1 POP JUMPDEST POP SWAP1 POP PUSH1 0x0 SWAP3 POP PUSH1 0x0 JUMPDEST PUSH1 0xA SLOAD DUP2 LT ISZERO PUSH2 0x20F5 JUMPI PUSH1 0x0 DUP2 DUP2 MSTORE PUSH1 0x8 PUSH1 0x20 MSTORE PUSH1 0x40 SWAP1 KECCAK256 SLOAD DUP8 EQ ISZERO PUSH2 0x20E3 JUMPI PUSH1 0x0 DUP2 DUP2 MSTORE PUSH1 0x6 PUSH1 0x20 MSTORE PUSH1 0x40 SWAP1 KECCAK256 SLOAD DUP4 MLOAD PUSH1 0x1 PUSH1 0x1 PUSH1 0xA0 SHL SUB SWAP1 SWAP2 AND SWAP1 DUP5 SWAP1 DUP7 SWAP1 DUP2 LT PUSH2 0x2076 JUMPI PUSH2 0x2076 PUSH2 0x3B77 JUMP JUMPDEST PUSH1 0x1 PUSH1 0x1 PUSH1 0xA0 SHL SUB SWAP3 DUP4 AND PUSH1 0x20 SWAP2 DUP3 MUL SWAP3 SWAP1 SWAP3 ADD DUP2 ADD SWAP2 SWAP1 SWAP2 MSTORE PUSH1 0x0 DUP4 DUP2 MSTORE PUSH1 0x6 DUP3 MSTORE PUSH1 0x40 DUP1 DUP3 KECCAK256 SLOAD SWAP1 SWAP4 AND DUP2 MSTORE PUSH1 0x9 SWAP1 SWAP2 MSTORE KECCAK256 SLOAD DUP3 MLOAD PUSH1 0xFF SWAP1 SWAP2 AND SWAP1 DUP4 SWAP1 DUP7 SWAP1 DUP2 LT PUSH2 0x20C5 JUMPI PUSH2 0x20C5 PUSH2 0x3B77 JUMP JUMPDEST SWAP2 ISZERO ISZERO PUSH1 0x20 SWAP3 DUP4 MUL SWAP2 SWAP1 SWAP2 ADD SWAP1 SWAP2 ADD MSTORE DUP4 PUSH2 0x20DF DUP2 PUSH2 0x3B3C JUMP JUMPDEST SWAP5 POP POP JUMPDEST DUP1 PUSH2 0x20ED DUP2 PUSH2 0x3B3C JUMP JUMPDEST SWAP2 POP POP PUSH2 0x2027 JUMP JUMPDEST POP SWAP1 SWAP6 SWAP1 SWAP5 POP SWAP3 POP POP POP JUMP JUMPDEST PUSH1 0x60 PUSH1 0xC DUP1 SLOAD DUP1 PUSH1 0x20 MUL PUSH1 0x20 ADD PUSH1 0x40 MLOAD SWAP1 DUP2 ADD PUSH1 0x40 MSTORE DUP1 SWAP3 SWAP2 SWAP1 DUP2 DUP2 MSTORE PUSH1 0x20 ADD DUP3 DUP1 SLOAD DUP1 ISZERO PUSH2 0x2159 JUMPI PUSH1 0x20 MUL DUP3 ADD SWAP2 SWAP1 PUSH1 0x0 MSTORE PUSH1 0x20 PUSH1 0x0 KECCAK256 SWAP1 JUMPDEST DUP2 SLOAD PUSH1 0x1 PUSH1 0x1 PUSH1 0xA0 SHL SUB AND DUP2 MSTORE PUSH1 0x1 SWAP1 SWAP2 ADD SWAP1 PUSH1 0x20 ADD DUP1 DUP4 GT PUSH2 0x213B JUMPI JUMPDEST POP POP POP POP POP SWAP1 POP SWAP1 JUMP JUMPDEST PUSH1 0x60 PUSH1 0x0 DUP1 JUMPDEST PUSH1 0xA SLOAD DUP2 LT ISZERO PUSH2 0x21DB JUMPI PUSH1 0x0 DUP2 DUP2 MSTORE PUSH1 0x6 PUSH1 0x20 SWAP1 DUP2 MSTORE PUSH1 0x40 DUP1 DUP4 KECCAK256 SLOAD PUSH1 0x1 PUSH1 0x1 PUSH1 0xA0 SHL SUB AND DUP4 MSTORE PUSH1 0x9 SWAP1 SWAP2 MSTORE SWAP1 KECCAK256 SLOAD PUSH1 0xFF AND ISZERO ISZERO PUSH1 0x1 EQ ISZERO PUSH2 0x21C9 JUMPI PUSH1 0x0 DUP2 DUP2 MSTORE PUSH1 0x8 PUSH1 0x20 MSTORE PUSH1 0x40 SWAP1 KECCAK256 SLOAD DUP5 EQ ISZERO PUSH2 0x21C9 JUMPI DUP2 PUSH2 0x21C5 DUP2 PUSH2 0x3B3C JUMP JUMPDEST SWAP3 POP POP JUMPDEST DUP1 PUSH2 0x21D3 DUP2 PUSH2 0x3B3C JUMP JUMPDEST SWAP2 POP POP PUSH2 0x2169 JUMP JUMPDEST POP PUSH1 0x0 DUP2 PUSH1 0x1 PUSH1 0x1 PUSH1 0x40 SHL SUB DUP2 GT ISZERO PUSH2 0x21F6 JUMPI PUSH2 0x21F6 PUSH2 0x384A JUMP JUMPDEST PUSH1 0x40 MLOAD SWAP1 DUP1 DUP3 MSTORE DUP1 PUSH1 0x20 MUL PUSH1 0x20 ADD DUP3 ADD PUSH1 0x40 MSTORE DUP1 ISZERO PUSH2 0x221F JUMPI DUP2 PUSH1 0x20 ADD PUSH1 0x20 DUP3 MUL DUP1 CALLDATASIZE DUP4 CALLDATACOPY ADD SWAP1 POP JUMPDEST POP SWAP1 POP PUSH1 0x0 SWAP2 POP PUSH1 0x0 JUMPDEST PUSH1 0xA SLOAD DUP2 LT ISZERO PUSH2 0x22E2 JUMPI PUSH1 0x0 DUP2 DUP2 MSTORE PUSH1 0x6 PUSH1 0x20 SWAP1 DUP2 MSTORE PUSH1 0x40 DUP1 DUP4 KECCAK256 SLOAD PUSH1 0x1 PUSH1 0x1 PUSH1 0xA0 SHL SUB AND DUP4 MSTORE PUSH1 0x9 SWAP1 SWAP2 MSTORE SWAP1 KECCAK256 SLOAD PUSH1 0xFF AND ISZERO ISZERO PUSH1 0x1 EQ ISZERO PUSH2 0x22D0 JUMPI PUSH1 0x0 DUP2 DUP2 MSTORE PUSH1 0x8 PUSH1 0x20 MSTORE PUSH1 0x40 SWAP1 KECCAK256 SLOAD DUP6 EQ ISZERO PUSH2 0x22D0 JUMPI PUSH1 0x0 DUP2 DUP2 MSTORE PUSH1 0x6 PUSH1 0x20 MSTORE PUSH1 0x40 SWAP1 KECCAK256 SLOAD DUP3 MLOAD PUSH1 0x1 PUSH1 0x1 PUSH1 0xA0 SHL SUB SWAP1 SWAP2 AND SWAP1 DUP4 SWAP1 DUP6 SWAP1 DUP2 LT PUSH2 0x22AA JUMPI PUSH2 0x22AA PUSH2 0x3B77 JUMP JUMPDEST PUSH1 0x1 PUSH1 0x1 PUSH1 0xA0 SHL SUB SWAP1 SWAP3 AND PUSH1 0x20 SWAP3 DUP4 MUL SWAP2 SWAP1 SWAP2 ADD SWAP1 SWAP2 ADD MSTORE DUP3 PUSH2 0x22CC DUP2 PUSH2 0x3B3C JUMP JUMPDEST SWAP4 POP POP JUMPDEST DUP1 PUSH2 0x22DA DUP2 PUSH2 0x3B3C JUMP JUMPDEST SWAP2 POP POP PUSH2 0x2229 JUMP JUMPDEST POP SWAP4 SWAP3 POP POP POP JUMP JUMPDEST PUSH1 0xC PUSH1 0xD SLOAD DUP2 SLOAD DUP2 LT PUSH2 0x22FF JUMPI PUSH2 0x22FF PUSH2 0x3B77 JUMP JUMPDEST PUSH1 0x0 SWAP2 DUP3 MSTORE PUSH1 0x20 SWAP1 SWAP2 KECCAK256 ADD SLOAD PUSH1 0x1 PUSH1 0x1 PUSH1 0xA0 SHL SUB AND CALLER EQ PUSH2 0x231F JUMPI PUSH1 0x0 DUP1 REVERT JUMPDEST PUSH1 0x1 PUSH1 0x1 PUSH1 0xA0 SHL SUB SWAP2 SWAP1 SWAP2 AND PUSH1 0x0 SWAP1 DUP2 MSTORE PUSH1 0x9 PUSH1 0x20 MSTORE PUSH1 0x40 SWAP1 KECCAK256 DUP1 SLOAD PUSH1 0xFF NOT AND SWAP2 ISZERO ISZERO SWAP2 SWAP1 SWAP2 OR SWAP1 SSTORE JUMP JUMPDEST PUSH1 0x0 DUP1 DUP1 JUMPDEST PUSH1 0x5 SLOAD DUP2 PUSH1 0xFF AND LT ISZERO PUSH2 0x1343 JUMPI PUSH1 0xFF DUP2 AND PUSH1 0x0 SWAP1 DUP2 MSTORE PUSH1 0x3 PUSH1 0x20 MSTORE PUSH1 0x40 SWAP1 KECCAK256 SLOAD PUSH1 0x1 PUSH1 0x1 PUSH1 0xA0 SHL SUB DUP6 DUP2 AND SWAP2 AND EQ ISZERO PUSH2 0x23A5 JUMPI PUSH1 0xFF DUP2 AND PUSH1 0x0 SWAP1 DUP2 MSTORE PUSH1 0x3 PUSH1 0x20 MSTORE PUSH1 0x40 SWAP1 KECCAK256 PUSH1 0x4 ADD SLOAD PUSH2 0x23A2 SWAP1 DUP4 PUSH2 0x3C03 JUMP JUMPDEST SWAP2 POP JUMPDEST DUP1 PUSH2 0x23AF DUP2 PUSH2 0x3B57 JUMP JUMPDEST SWAP2 POP POP PUSH2 0x234F JUMP JUMPDEST PUSH1 0x0 DUP2 DUP2 MSTORE PUSH1 0x2 PUSH1 0x20 MSTORE PUSH1 0x40 SWAP1 KECCAK256 PUSH1 0x1 ADD SLOAD PUSH1 0x1 PUSH1 0x1 PUSH1 0xA0 SHL SUB AND CALLER EQ PUSH2 0x2420 JUMPI PUSH1 0x40 MLOAD PUSH3 0x461BCD PUSH1 0xE5 SHL DUP2 MSTORE PUSH1 0x20 PUSH1 0x4 DUP3 ADD MSTORE PUSH1 0x1D PUSH1 0x24 DUP3 ADD MSTORE PUSH32 0x6D73672E73656E646572206973206E6F74206F72646572206F776E6572000000 PUSH1 0x44 DUP3 ADD MSTORE PUSH1 0x64 ADD PUSH2 0x971 JUMP JUMPDEST PUSH1 0x0 DUP2 DUP2 MSTORE PUSH1 0x2 PUSH1 0x20 DUP2 SWAP1 MSTORE PUSH1 0x40 DUP3 KECCAK256 PUSH1 0x5 ADD SLOAD PUSH1 0xFF AND SWAP1 DUP2 GT ISZERO PUSH2 0x2447 JUMPI PUSH2 0x2447 PUSH2 0x3700 JUMP JUMPDEST EQ PUSH2 0x2488 JUMPI PUSH1 0x40 MLOAD PUSH3 0x461BCD PUSH1 0xE5 SHL DUP2 MSTORE PUSH1 0x20 PUSH1 0x4 DUP3 ADD MSTORE PUSH1 0x11 PUSH1 0x24 DUP3 ADD MSTORE PUSH17 0x37B93232B91034B9903737BA1037B832B7 PUSH1 0x79 SHL PUSH1 0x44 DUP3 ADD MSTORE PUSH1 0x64 ADD PUSH2 0x971 JUMP JUMPDEST PUSH1 0x0 DUP2 DUP2 MSTORE PUSH1 0x2 PUSH1 0x20 MSTORE PUSH1 0x40 DUP1 DUP3 KECCAK256 PUSH1 0x4 ADD SLOAD SWAP1 MLOAD CALLER SWAP3 DUP4 SWAP3 DUP1 ISZERO PUSH2 0x8FC MUL SWAP3 SWAP1 SWAP2 DUP2 DUP2 DUP2 DUP6 DUP9 DUP9 CALL SWAP4 POP POP POP POP ISZERO DUP1 ISZERO PUSH2 0x24C7 JUMPI RETURNDATASIZE PUSH1 0x0 DUP1 RETURNDATACOPY RETURNDATASIZE PUSH1 0x0 REVERT JUMPDEST POP POP PUSH1 0x0 SWAP1 DUP2 MSTORE PUSH1 0x2 PUSH1 0x20 DUP2 SWAP1 MSTORE PUSH1 0x40 DUP3 KECCAK256 PUSH1 0x4 DUP2 ADD SWAP3 SWAP1 SWAP3 SSTORE PUSH1 0x5 SWAP1 SWAP2 ADD DUP1 SLOAD PUSH1 0xFF NOT AND SWAP1 SWAP2 OR SWAP1 SSTORE JUMP JUMPDEST PUSH1 0x0 DUP2 PUSH1 0x40 MLOAD PUSH1 0x20 ADD PUSH2 0x2506 SWAP2 SWAP1 PUSH2 0x3C8C JUMP JUMPDEST PUSH1 0x40 MLOAD PUSH1 0x20 DUP2 DUP4 SUB SUB DUP2 MSTORE SWAP1 PUSH1 0x40 MSTORE DUP1 MLOAD SWAP1 PUSH1 0x20 ADD KECCAK256 DUP4 PUSH1 0x40 MLOAD PUSH1 0x20 ADD PUSH2 0x252D SWAP2 SWAP1 PUSH2 0x3C8C JUMP JUMPDEST PUSH1 0x40 MLOAD PUSH1 0x20 DUP2 DUP4 SUB SUB DUP2 MSTORE SWAP1 PUSH1 0x40 MSTORE DUP1 MLOAD SWAP1 PUSH1 0x20 ADD KECCAK256 EQ SWAP1 POP SWAP3 SWAP2 POP POP JUMP JUMPDEST PUSH1 0x60 DUP1 PUSH1 0x60 DUP1 PUSH1 0x60 DUP1 PUSH1 0x0 DUP1 JUMPDEST PUSH1 0x4 SLOAD DUP2 PUSH1 0xFF AND LT ISZERO PUSH2 0x25D5 JUMPI PUSH1 0xFF DUP2 AND PUSH1 0x0 SWAP1 DUP2 MSTORE PUSH1 0x2 PUSH1 0x20 MSTORE PUSH1 0x40 SWAP1 KECCAK256 PUSH1 0x1 ADD SLOAD PUSH1 0x1 PUSH1 0x1 PUSH1 0xA0 SHL SUB DUP11 DUP2 AND SWAP2 AND EQ ISZERO PUSH2 0x25C3 JUMPI PUSH1 0xFF DUP2 AND PUSH1 0x0 SWAP1 DUP2 MSTORE PUSH1 0x2 PUSH1 0x20 MSTORE PUSH1 0x40 SWAP1 KECCAK256 SLOAD PUSH1 0x1 PUSH1 0x1 PUSH1 0xA0 SHL SUB DUP12 DUP2 AND SWAP2 AND EQ ISZERO PUSH2 0x25C3 JUMPI DUP2 PUSH2 0x25BF DUP2 PUSH2 0x3B57 JUMP JUMPDEST SWAP3 POP POP JUMPDEST DUP1 PUSH2 0x25CD DUP2 PUSH2 0x3B57 JUMP JUMPDEST SWAP2 POP POP PUSH2 0x2559 JUMP JUMPDEST POP PUSH1 0x0 DUP2 PUSH1 0xFF AND PUSH1 0x1 PUSH1 0x1 PUSH1 0x40 SHL SUB DUP2 GT ISZERO PUSH2 0x25F3 JUMPI PUSH2 0x25F3 PUSH2 0x384A JUMP JUMPDEST PUSH1 0x40 MLOAD SWAP1 DUP1 DUP3 MSTORE DUP1 PUSH1 0x20 MUL PUSH1 0x20 ADD DUP3 ADD PUSH1 0x40 MSTORE DUP1 ISZERO PUSH2 0x261C JUMPI DUP2 PUSH1 0x20 ADD PUSH1 0x20 DUP3 MUL DUP1 CALLDATASIZE DUP4 CALLDATACOPY ADD SWAP1 POP JUMPDEST POP SWAP1 POP PUSH1 0x0 DUP3 PUSH1 0xFF AND PUSH1 0x1 PUSH1 0x1 PUSH1 0x40 SHL SUB DUP2 GT ISZERO PUSH2 0x263C JUMPI PUSH2 0x263C PUSH2 0x384A JUMP JUMPDEST PUSH1 0x40 MLOAD SWAP1 DUP1 DUP3 MSTORE DUP1 PUSH1 0x20 MUL PUSH1 0x20 ADD DUP3 ADD PUSH1 0x40 MSTORE DUP1 ISZERO PUSH2 0x2665 JUMPI DUP2 PUSH1 0x20 ADD PUSH1 0x20 DUP3 MUL DUP1 CALLDATASIZE DUP4 CALLDATACOPY ADD SWAP1 POP JUMPDEST POP SWAP1 POP PUSH1 0x0 DUP4 PUSH1 0xFF AND PUSH1 0x1 PUSH1 0x1 PUSH1 0x40 SHL SUB DUP2 GT ISZERO PUSH2 0x2685 JUMPI PUSH2 0x2685 PUSH2 0x384A JUMP JUMPDEST PUSH1 0x40 MLOAD SWAP1 DUP1 DUP3 MSTORE DUP1 PUSH1 0x20 MUL PUSH1 0x20 ADD DUP3 ADD PUSH1 0x40 MSTORE DUP1 ISZERO PUSH2 0x26AE JUMPI DUP2 PUSH1 0x20 ADD PUSH1 0x20 DUP3 MUL DUP1 CALLDATASIZE DUP4 CALLDATACOPY ADD SWAP1 POP JUMPDEST POP SWAP1 POP PUSH1 0x0 DUP5 PUSH1 0xFF AND PUSH1 0x1 PUSH1 0x1 PUSH1 0x40 SHL SUB DUP2 GT ISZERO PUSH2 0x26CE JUMPI PUSH2 0x26CE PUSH2 0x384A JUMP JUMPDEST PUSH1 0x40 MLOAD SWAP1 DUP1 DUP3 MSTORE DUP1 PUSH1 0x20 MUL PUSH1 0x20 ADD DUP3 ADD PUSH1 0x40 MSTORE DUP1 ISZERO PUSH2 0x26F7 JUMPI DUP2 PUSH1 0x20 ADD PUSH1 0x20 DUP3 MUL DUP1 CALLDATASIZE DUP4 CALLDATACOPY ADD SWAP1 POP JUMPDEST POP SWAP1 POP PUSH1 0x0 DUP6 PUSH1 0xFF AND PUSH1 0x1 PUSH1 0x1 PUSH1 0x40 SHL SUB DUP2 GT ISZERO PUSH2 0x2717 JUMPI PUSH2 0x2717 PUSH2 0x384A JUMP JUMPDEST PUSH1 0x40 MLOAD SWAP1 DUP1 DUP3 MSTORE DUP1 PUSH1 0x20 MUL PUSH1 0x20 ADD DUP3 ADD PUSH1 0x40 MSTORE DUP1 ISZERO PUSH2 0x2740 JUMPI DUP2 PUSH1 0x20 ADD PUSH1 0x20 DUP3 MUL DUP1 CALLDATASIZE DUP4 CALLDATACOPY ADD SWAP1 POP JUMPDEST POP SWAP1 POP PUSH1 0x0 DUP7 PUSH1 0xFF AND PUSH1 0x1 PUSH1 0x1 PUSH1 0x40 SHL SUB DUP2 GT ISZERO PUSH2 0x2760 JUMPI PUSH2 0x2760 PUSH2 0x384A JUMP JUMPDEST PUSH1 0x40 MLOAD SWAP1 DUP1 DUP3 MSTORE DUP1 PUSH1 0x20 MUL PUSH1 0x20 ADD DUP3 ADD PUSH1 0x40 MSTORE DUP1 ISZERO PUSH2 0x2789 JUMPI DUP2 PUSH1 0x20 ADD PUSH1 0x20 DUP3 MUL DUP1 CALLDATASIZE DUP4 CALLDATACOPY ADD SWAP1 POP JUMPDEST POP SWAP1 POP PUSH1 0x0 SWAP7 POP PUSH1 0x0 JUMPDEST PUSH1 0x4 SLOAD DUP2 PUSH1 0xFF AND LT ISZERO PUSH2 0xF33 JUMPI DUP15 PUSH1 0x1 PUSH1 0x1 PUSH1 0xA0 SHL SUB AND PUSH1 0x2 PUSH1 0x0 DUP4 PUSH1 0xFF AND DUP2 MSTORE PUSH1 0x20 ADD SWAP1 DUP2 MSTORE PUSH1 0x20 ADD PUSH1 0x0 KECCAK256 PUSH1 0x1 ADD PUSH1 0x0 SWAP1 SLOAD SWAP1 PUSH2 0x100 EXP SWAP1 DIV PUSH1 0x1 PUSH1 0x1 PUSH1 0xA0 SHL SUB AND PUSH1 0x1 PUSH1 0x1 PUSH1 0xA0 SHL SUB AND EQ ISZERO PUSH2 0x29D4 JUMPI DUP16 PUSH1 0x1 PUSH1 0x1 PUSH1 0xA0 SHL SUB AND PUSH1 0x2 PUSH1 0x0 DUP4 PUSH1 0xFF AND DUP2 MSTORE PUSH1 0x20 ADD SWAP1 DUP2 MSTORE PUSH1 0x20 ADD PUSH1 0x0 KECCAK256 PUSH1 0x0 ADD PUSH1 0x0 SWAP1 SLOAD SWAP1 PUSH2 0x100 EXP SWAP1 DIV PUSH1 0x1 PUSH1 0x1 PUSH1 0xA0 SHL SUB AND PUSH1 0x1 PUSH1 0x1 PUSH1 0xA0 SHL SUB AND EQ ISZERO PUSH2 0x29D4 JUMPI PUSH1 0xFF DUP1 DUP3 AND PUSH1 0x0 SWAP1 DUP2 MSTORE PUSH1 0x2 PUSH1 0x20 MSTORE PUSH1 0x40 SWAP1 KECCAK256 PUSH1 0x1 ADD SLOAD DUP9 MLOAD PUSH1 0x1 PUSH1 0x1 PUSH1 0xA0 SHL SUB SWAP1 SWAP2 AND SWAP2 DUP10 SWAP2 SWAP1 DUP12 AND SWAP1 DUP2 LT PUSH2 0x2865 JUMPI PUSH2 0x2865 PUSH2 0x3B77 JUMP JUMPDEST PUSH1 0x20 MUL PUSH1 0x20 ADD ADD SWAP1 PUSH1 0x1 PUSH1 0x1 PUSH1 0xA0 SHL SUB AND SWAP1 DUP2 PUSH1 0x1 PUSH1 0x1 PUSH1 0xA0 SHL SUB AND DUP2 MSTORE POP POP PUSH1 0x2 PUSH1 0x0 DUP3 PUSH1 0xFF AND DUP2 MSTORE PUSH1 0x20 ADD SWAP1 DUP2 MSTORE PUSH1 0x20 ADD PUSH1 0x0 KECCAK256 PUSH1 0x2 ADD SLOAD DUP7 DUP10 PUSH1 0xFF AND DUP2 MLOAD DUP2 LT PUSH2 0x28B4 JUMPI PUSH2 0x28B4 PUSH2 0x3B77 JUMP JUMPDEST PUSH1 0x20 MUL PUSH1 0x20 ADD ADD DUP2 DUP2 MSTORE POP POP PUSH1 0x2 PUSH1 0x0 DUP3 PUSH1 0xFF AND DUP2 MSTORE PUSH1 0x20 ADD SWAP1 DUP2 MSTORE PUSH1 0x20 ADD PUSH1 0x0 KECCAK256 PUSH1 0x3 ADD SLOAD DUP6 DUP10 PUSH1 0xFF AND DUP2 MLOAD DUP2 LT PUSH2 0x28EF JUMPI PUSH2 0x28EF PUSH2 0x3B77 JUMP JUMPDEST PUSH1 0x20 MUL PUSH1 0x20 ADD ADD DUP2 DUP2 MSTORE POP POP PUSH1 0x2 PUSH1 0x0 DUP3 PUSH1 0xFF AND DUP2 MSTORE PUSH1 0x20 ADD SWAP1 DUP2 MSTORE PUSH1 0x20 ADD PUSH1 0x0 KECCAK256 PUSH1 0x4 ADD SLOAD DUP5 DUP10 PUSH1 0xFF AND DUP2 MLOAD DUP2 LT PUSH2 0x292A JUMPI PUSH2 0x292A PUSH2 0x3B77 JUMP JUMPDEST PUSH1 0x20 MUL PUSH1 0x20 ADD ADD DUP2 DUP2 MSTORE POP POP DUP1 PUSH1 0xFF AND DUP4 DUP10 PUSH1 0xFF AND DUP2 MLOAD DUP2 LT PUSH2 0x294F JUMPI PUSH2 0x294F PUSH2 0x3B77 JUMP JUMPDEST PUSH1 0x20 MUL PUSH1 0x20 ADD ADD DUP2 DUP2 MSTORE POP POP PUSH1 0x2 PUSH1 0x0 DUP3 PUSH1 0xFF AND DUP2 MSTORE PUSH1 0x20 ADD SWAP1 DUP2 MSTORE PUSH1 0x20 ADD PUSH1 0x0 KECCAK256 PUSH1 0x5 ADD PUSH1 0x0 SWAP1 SLOAD SWAP1 PUSH2 0x100 EXP SWAP1 DIV PUSH1 0xFF AND DUP3 DUP10 PUSH1 0xFF AND DUP2 MLOAD DUP2 LT PUSH2 0x2997 JUMPI PUSH2 0x2997 PUSH2 0x3B77 JUMP JUMPDEST PUSH1 0x20 MUL PUSH1 0x20 ADD ADD SWAP1 PUSH1 0x2 DUP2 GT ISZERO PUSH2 0x29B0 JUMPI PUSH2 0x29B0 PUSH2 0x3700 JUMP JUMPDEST SWAP1 DUP2 PUSH1 0x2 DUP2 GT ISZERO PUSH2 0x29C3 JUMPI PUSH2 0x29C3 PUSH2 0x3700 JUMP JUMPDEST SWAP1 MSTORE POP DUP8 PUSH2 0x29D0 DUP2 PUSH2 0x3B57 JUMP JUMPDEST SWAP9 POP POP JUMPDEST DUP1 PUSH2 0x29DE DUP2 PUSH2 0x3B57 JUMP JUMPDEST SWAP2 POP POP PUSH2 0x2793 JUMP JUMPDEST PUSH1 0x0 DUP1 DUP1 JUMPDEST PUSH1 0x4 SLOAD DUP2 PUSH1 0xFF AND LT ISZERO PUSH2 0x1343 JUMPI PUSH1 0xFF DUP2 AND PUSH1 0x0 SWAP1 DUP2 MSTORE PUSH1 0x2 PUSH1 0x20 MSTORE PUSH1 0x40 SWAP1 KECCAK256 SLOAD PUSH1 0x1 PUSH1 0x1 PUSH1 0xA0 SHL SUB DUP6 DUP2 AND SWAP2 AND EQ ISZERO PUSH2 0x2A41 JUMPI PUSH1 0xFF DUP2 AND PUSH1 0x0 SWAP1 DUP2 MSTORE PUSH1 0x2 PUSH1 0x20 MSTORE PUSH1 0x40 SWAP1 KECCAK256 PUSH1 0x4 ADD SLOAD PUSH2 0x2A3E SWAP1 DUP4 PUSH2 0x3C03 JUMP JUMPDEST SWAP2 POP JUMPDEST DUP1 PUSH2 0x2A4B DUP2 PUSH2 0x3B57 JUMP JUMPDEST SWAP2 POP POP PUSH2 0x29EB JUMP JUMPDEST PUSH1 0x0 DUP1 DUP4 GT PUSH2 0x2A74 JUMPI PUSH1 0x40 MLOAD PUSH3 0x461BCD PUSH1 0xE5 SHL DUP2 MSTORE PUSH1 0x4 ADD PUSH2 0x971 SWAP1 PUSH2 0x3BAA JUMP JUMPDEST PUSH1 0x0 DUP3 GT PUSH2 0x2A94 JUMPI PUSH1 0x40 MLOAD PUSH3 0x461BCD PUSH1 0xE5 SHL DUP2 MSTORE PUSH1 0x4 ADD PUSH2 0x971 SWAP1 PUSH2 0x3BAA JUMP JUMPDEST PUSH1 0x40 MLOAD PUSH4 0x23B872DD PUSH1 0xE0 SHL DUP2 MSTORE CALLER PUSH1 0x4 DUP3 ADD MSTORE ADDRESS PUSH1 0x24 DUP3 ADD MSTORE PUSH1 0x44 DUP2 ADD DUP5 SWAP1 MSTORE PUSH1 0x1 PUSH1 0x1 PUSH1 0xA0 SHL SUB DUP6 AND SWAP1 PUSH4 0x23B872DD SWAP1 PUSH1 0x64 ADD PUSH1 0x20 PUSH1 0x40 MLOAD DUP1 DUP4 SUB DUP2 PUSH1 0x0 DUP8 GAS CALL ISZERO DUP1 ISZERO PUSH2 0x2AE7 JUMPI RETURNDATASIZE PUSH1 0x0 DUP1 RETURNDATACOPY RETURNDATASIZE PUSH1 0x0 REVERT JUMPDEST POP POP POP POP PUSH1 0x40 MLOAD RETURNDATASIZE PUSH1 0x1F NOT PUSH1 0x1F DUP3 ADD AND DUP3 ADD DUP1 PUSH1 0x40 MSTORE POP DUP2 ADD SWAP1 PUSH2 0x2B0B SWAP2 SWAP1 PUSH2 0x3B8D JUMP JUMPDEST POP PUSH1 0x40 DUP1 MLOAD PUSH1 0xC0 DUP2 ADD DUP3 MSTORE PUSH1 0x1 PUSH1 0x1 PUSH1 0xA0 SHL SUB DUP7 DUP2 AND DUP3 MSTORE CALLER PUSH1 0x20 DUP1 DUP5 ADD SWAP2 DUP3 MSTORE DUP4 DUP6 ADD DUP9 DUP2 MSTORE PUSH1 0x60 DUP6 ADD DUP9 DUP2 MSTORE PUSH1 0x80 DUP7 ADD DUP11 DUP2 MSTORE PUSH1 0x0 PUSH1 0xA0 DUP9 ADD DUP2 DUP2 MSTORE PUSH1 0x5 DUP1 SLOAD DUP4 MSTORE PUSH1 0x3 SWAP7 DUP8 SWAP1 MSTORE SWAP10 SWAP1 SWAP2 KECCAK256 DUP9 MLOAD DUP2 SLOAD SWAP1 DUP10 AND PUSH1 0x1 PUSH1 0x1 PUSH1 0xA0 SHL SUB NOT SWAP2 DUP3 AND OR DUP3 SSTORE SWAP7 MLOAD PUSH1 0x1 DUP1 DUP4 ADD DUP1 SLOAD SWAP3 SWAP1 SWAP11 AND SWAP2 SWAP1 SWAP9 AND OR SWAP1 SWAP8 SSTORE SWAP3 MLOAD PUSH1 0x2 DUP1 DUP9 ADD SWAP2 SWAP1 SWAP2 SSTORE SWAP2 MLOAD SWAP4 DUP7 ADD SWAP4 SWAP1 SWAP4 SSTORE SWAP2 MLOAD PUSH1 0x4 DUP6 ADD SSTORE MLOAD SWAP5 DUP4 ADD DUP1 SLOAD SWAP5 SWAP6 SWAP4 SWAP5 SWAP1 SWAP3 PUSH1 0xFF NOT SWAP1 SWAP2 AND SWAP2 DUP5 SWAP1 DUP2 GT ISZERO PUSH2 0x2BC3 JUMPI PUSH2 0x2BC3 PUSH2 0x3700 JUMP JUMPDEST MUL OR SWAP1 SSTORE POP SWAP1 POP POP PUSH2 0x2BD6 PUSH1 0x5 SLOAD PUSH2 0x3019 JUMP JUMPDEST PUSH1 0x1 PUSH1 0x5 PUSH1 0x0 DUP3 DUP3 SLOAD PUSH2 0x2BE9 SWAP2 SWAP1 PUSH2 0x3C03 JUMP JUMPDEST SWAP1 SWAP2 SSTORE POP POP PUSH1 0x5 SLOAD PUSH2 0x11E8 SWAP1 PUSH1 0x1 SWAP1 PUSH2 0x3C1B JUMP JUMPDEST PUSH1 0x0 JUMPDEST PUSH1 0x5 SLOAD DUP2 PUSH1 0xFF AND LT ISZERO PUSH2 0x3015 JUMPI PUSH1 0x0 PUSH1 0xFF DUP1 DUP4 AND PUSH1 0x0 SWAP1 DUP2 MSTORE PUSH1 0x3 PUSH1 0x20 MSTORE PUSH1 0x40 SWAP1 KECCAK256 PUSH1 0x5 ADD SLOAD AND PUSH1 0x2 DUP2 GT ISZERO PUSH2 0x2C38 JUMPI PUSH2 0x2C38 PUSH2 0x3700 JUMP JUMPDEST EQ ISZERO PUSH2 0x3003 JUMPI PUSH1 0x0 DUP3 DUP2 MSTORE PUSH1 0x2 PUSH1 0x20 DUP2 SWAP1 MSTORE PUSH1 0x40 DUP3 KECCAK256 PUSH1 0x5 ADD SLOAD PUSH1 0xFF AND SWAP1 DUP2 GT ISZERO PUSH2 0x2C65 JUMPI PUSH2 0x2C65 PUSH2 0x3700 JUMP JUMPDEST EQ ISZERO PUSH2 0x3003 JUMPI PUSH1 0x0 DUP3 DUP2 MSTORE PUSH1 0x2 PUSH1 0x20 SWAP1 DUP2 MSTORE PUSH1 0x40 DUP1 DUP4 KECCAK256 SLOAD PUSH1 0xFF DUP6 AND DUP5 MSTORE PUSH1 0x3 SWAP1 SWAP3 MSTORE SWAP1 SWAP2 KECCAK256 SLOAD PUSH1 0x1 PUSH1 0x1 PUSH1 0xA0 SHL SUB SWAP1 DUP2 AND SWAP2 AND EQ ISZERO PUSH2 0x3003 JUMPI PUSH1 0x0 DUP3 DUP2 MSTORE PUSH1 0x2 PUSH1 0x20 SWAP1 DUP2 MSTORE PUSH1 0x40 DUP1 DUP4 KECCAK256 PUSH1 0x3 SWAP1 DUP2 ADD SLOAD PUSH1 0xFF DUP7 AND DUP6 MSTORE SWAP3 DUP2 SWAP1 MSTORE SWAP3 KECCAK256 SWAP1 SWAP2 ADD SLOAD EQ ISZERO PUSH2 0x3003 JUMPI PUSH1 0xFF DUP2 AND PUSH1 0x0 DUP2 DUP2 MSTORE PUSH1 0x3 PUSH1 0x20 DUP2 DUP2 MSTORE PUSH1 0x40 DUP1 DUP5 KECCAK256 PUSH1 0x1 DUP2 ADD SLOAD DUP9 DUP7 MSTORE PUSH1 0x2 DUP1 DUP6 MSTORE SWAP3 DUP7 KECCAK256 SWAP1 SWAP3 ADD SLOAD SWAP6 DUP6 MSTORE SWAP3 SWAP1 SWAP2 MSTORE PUSH1 0x4 SWAP1 SWAP2 ADD SLOAD PUSH1 0x1 PUSH1 0x1 PUSH1 0xA0 SHL SUB SWAP1 SWAP2 AND SWAP3 GT PUSH2 0x2DBE JUMPI PUSH1 0x0 DUP5 DUP2 MSTORE PUSH1 0x2 PUSH1 0x20 DUP2 DUP2 MSTORE PUSH1 0x40 DUP1 DUP5 KECCAK256 SWAP1 SWAP3 ADD SLOAD PUSH1 0xFF DUP8 AND DUP5 MSTORE PUSH1 0x3 SWAP1 SWAP2 MSTORE SWAP2 KECCAK256 PUSH1 0x4 ADD SLOAD PUSH2 0x2D43 SWAP2 SWAP1 PUSH2 0x3C1B JUMP JUMPDEST PUSH1 0xFF DUP5 AND PUSH1 0x0 DUP2 DUP2 MSTORE PUSH1 0x3 PUSH1 0x20 DUP2 DUP2 MSTORE PUSH1 0x40 DUP1 DUP5 KECCAK256 PUSH1 0x4 SWAP1 DUP2 ADD SWAP7 DUP8 SSTORE DUP11 DUP6 MSTORE PUSH1 0x2 DUP1 DUP5 MSTORE SWAP2 DUP6 KECCAK256 SWAP2 DUP3 ADD DUP1 SLOAD SWAP2 DUP4 ADD DUP7 SWAP1 SSTORE DUP6 SWAP1 SSTORE PUSH1 0x5 SWAP1 SWAP2 ADD DUP1 SLOAD PUSH1 0xFF NOT AND PUSH1 0x1 OR SWAP1 SSTORE SWAP4 SWAP1 SWAP3 MSTORE SWAP1 MSTORE SWAP1 SLOAD SWAP1 SWAP2 POP PUSH2 0x2DB9 JUMPI PUSH1 0xFF DUP4 AND PUSH1 0x0 SWAP1 DUP2 MSTORE PUSH1 0x3 PUSH1 0x20 MSTORE PUSH1 0x40 SWAP1 KECCAK256 PUSH1 0x5 ADD DUP1 SLOAD PUSH1 0xFF NOT AND PUSH1 0x1 OR SWAP1 SSTORE JUMPDEST PUSH2 0x2EAF JUMP JUMPDEST PUSH1 0xFF DUP4 AND PUSH1 0x0 SWAP1 DUP2 MSTORE PUSH1 0x3 PUSH1 0x20 DUP2 SWAP1 MSTORE PUSH1 0x40 SWAP1 SWAP2 KECCAK256 PUSH1 0x4 DUP2 ADD SLOAD SWAP2 ADD SLOAD PUSH2 0x2DE5 SWAP2 SWAP1 PUSH2 0x3CA8 JUMP JUMPDEST PUSH1 0x0 DUP6 DUP2 MSTORE PUSH1 0x2 PUSH1 0x20 MSTORE PUSH1 0x40 SWAP1 KECCAK256 PUSH1 0x4 ADD SLOAD PUSH2 0x2E01 SWAP2 SWAP1 PUSH2 0x3C1B JUMP JUMPDEST PUSH1 0x0 DUP6 DUP2 MSTORE PUSH1 0x2 PUSH1 0x20 DUP2 DUP2 MSTORE PUSH1 0x40 DUP1 DUP5 KECCAK256 PUSH1 0x4 DUP1 DUP3 ADD SWAP7 SWAP1 SWAP7 SSTORE PUSH1 0xFF DUP10 AND DUP6 MSTORE PUSH1 0x3 DUP4 MSTORE SWAP1 DUP5 KECCAK256 SWAP1 SWAP5 ADD SLOAD SWAP3 DUP9 SWAP1 MSTORE DUP2 SWAP1 MSTORE SWAP2 SWAP1 SWAP2 ADD SLOAD PUSH2 0x2E42 SWAP2 SWAP1 PUSH2 0x3C1B JUMP JUMPDEST PUSH1 0x0 DUP6 DUP2 MSTORE PUSH1 0x2 PUSH1 0x20 DUP2 DUP2 MSTORE PUSH1 0x40 DUP1 DUP5 KECCAK256 DUP1 DUP5 ADD SWAP6 SWAP1 SWAP6 SSTORE PUSH1 0xFF DUP9 AND DUP5 MSTORE PUSH1 0x3 DUP3 MSTORE DUP4 KECCAK256 PUSH1 0x4 DUP1 DUP3 ADD DUP1 SLOAD SWAP1 DUP7 SWAP1 SSTORE PUSH1 0x5 SWAP1 SWAP3 ADD DUP1 SLOAD PUSH1 0xFF NOT AND PUSH1 0x1 OR SWAP1 SSTORE SWAP4 DUP10 SWAP1 MSTORE SWAP2 SWAP1 MSTORE SWAP2 ADD SLOAD SWAP1 SWAP2 POP PUSH2 0x2EAF JUMPI PUSH1 0x0 DUP5 DUP2 MSTORE PUSH1 0x2 PUSH1 0x20 MSTORE PUSH1 0x40 SWAP1 KECCAK256 PUSH1 0x5 ADD DUP1 SLOAD PUSH1 0xFF NOT AND PUSH1 0x1 OR SWAP1 SSTORE JUMPDEST PUSH1 0x0 DUP5 DUP2 MSTORE PUSH1 0x2 PUSH1 0x20 MSTORE PUSH1 0x40 SWAP1 KECCAK256 PUSH1 0x3 ADD SLOAD PUSH1 0x1 PUSH1 0x1 PUSH1 0xA0 SHL SUB DUP4 AND SWAP1 PUSH2 0x8FC SWAP1 PUSH2 0x2EDB SWAP1 DUP5 SWAP1 PUSH2 0x3CA8 JUMP JUMPDEST PUSH1 0x40 MLOAD DUP2 ISZERO SWAP1 SWAP3 MUL SWAP2 PUSH1 0x0 DUP2 DUP2 DUP2 DUP6 DUP9 DUP9 CALL SWAP4 POP POP POP POP ISZERO DUP1 ISZERO PUSH2 0x2F03 JUMPI RETURNDATASIZE PUSH1 0x0 DUP1 RETURNDATACOPY RETURNDATASIZE PUSH1 0x0 REVERT JUMPDEST POP PUSH1 0x0 DUP5 DUP2 MSTORE PUSH1 0x2 PUSH1 0x20 MSTORE PUSH1 0x40 SWAP1 DUP2 SWAP1 KECCAK256 DUP1 SLOAD PUSH1 0x1 SWAP1 SWAP2 ADD SLOAD SWAP2 MLOAD PUSH4 0xA9059CBB PUSH1 0xE0 SHL DUP2 MSTORE PUSH1 0x1 PUSH1 0x1 PUSH1 0xA0 SHL SUB SWAP3 DUP4 AND PUSH1 0x4 DUP3 ADD MSTORE PUSH1 0x24 DUP2 ADD DUP5 SWAP1 MSTORE SWAP2 AND SWAP1 PUSH4 0xA9059CBB SWAP1 PUSH1 0x44 ADD PUSH1 0x20 PUSH1 0x40 MLOAD DUP1 DUP4 SUB DUP2 PUSH1 0x0 DUP8 GAS CALL ISZERO DUP1 ISZERO PUSH2 0x2F6A JUMPI RETURNDATASIZE PUSH1 0x0 DUP1 RETURNDATACOPY RETURNDATASIZE PUSH1 0x0 REVERT JUMPDEST POP POP POP POP PUSH1 0x40 MLOAD RETURNDATASIZE PUSH1 0x1F NOT PUSH1 0x1F DUP3 ADD AND DUP3 ADD DUP1 PUSH1 0x40 MSTORE POP DUP2 ADD SWAP1 PUSH2 0x2F8E SWAP2 SWAP1 PUSH2 0x3B8D JUMP JUMPDEST POP PUSH1 0x0 DUP5 DUP2 MSTORE PUSH1 0x2 PUSH1 0x20 MSTORE PUSH1 0x40 SWAP1 KECCAK256 DUP1 SLOAD PUSH1 0x3 SWAP1 SWAP2 ADD SLOAD PUSH2 0x3000 SWAP2 PUSH1 0x1 PUSH1 0x1 PUSH1 0xA0 SHL SUB AND SWAP1 PUSH2 0x2FBE SWAP1 DUP5 SWAP1 PUSH2 0x3CA8 JUMP JUMPDEST PUSH1 0x0 DUP8 DUP2 MSTORE PUSH1 0x2 PUSH1 0x20 SWAP1 DUP2 MSTORE PUSH1 0x40 DUP1 DUP4 KECCAK256 PUSH1 0x1 SWAP1 DUP2 ADD SLOAD PUSH1 0xFF DUP12 AND DUP1 DUP7 MSTORE PUSH1 0x3 SWAP1 SWAP5 MSTORE SWAP2 SWAP1 SWAP4 KECCAK256 SWAP1 SWAP3 ADD SLOAD DUP7 SWAP3 DUP11 SWAP3 SWAP2 PUSH1 0x1 PUSH1 0x1 PUSH1 0xA0 SHL SUB SWAP2 DUP3 AND SWAP2 AND PUSH2 0x343E JUMP JUMPDEST POP POP JUMPDEST DUP1 PUSH2 0x300D DUP2 PUSH2 0x3B57 JUMP JUMPDEST SWAP2 POP POP PUSH2 0x2C00 JUMP JUMPDEST POP POP JUMP JUMPDEST PUSH1 0x0 JUMPDEST PUSH1 0x4 SLOAD DUP2 PUSH1 0xFF AND LT ISZERO PUSH2 0x3015 JUMPI PUSH1 0x0 DUP3 DUP2 MSTORE PUSH1 0x3 PUSH1 0x20 MSTORE PUSH1 0x40 DUP2 KECCAK256 PUSH1 0x5 ADD SLOAD PUSH1 0xFF AND PUSH1 0x2 DUP2 GT ISZERO PUSH2 0x304F JUMPI PUSH2 0x304F PUSH2 0x3700 JUMP JUMPDEST EQ ISZERO PUSH2 0x342C JUMPI PUSH1 0x0 PUSH1 0xFF DUP1 DUP4 AND PUSH1 0x0 SWAP1 DUP2 MSTORE PUSH1 0x2 PUSH1 0x20 DUP2 SWAP1 MSTORE PUSH1 0x40 SWAP1 SWAP2 KECCAK256 PUSH1 0x5 ADD SLOAD SWAP1 SWAP2 AND SWAP1 DUP2 GT ISZERO PUSH2 0x3084 JUMPI PUSH2 0x3084 PUSH2 0x3700 JUMP JUMPDEST EQ ISZERO PUSH2 0x342C JUMPI PUSH1 0xFF DUP2 AND PUSH1 0x0 SWAP1 DUP2 MSTORE PUSH1 0x2 PUSH1 0x20 SWAP1 DUP2 MSTORE PUSH1 0x40 DUP1 DUP4 KECCAK256 SLOAD DUP6 DUP5 MSTORE PUSH1 0x3 SWAP1 SWAP3 MSTORE SWAP1 SWAP2 KECCAK256 SLOAD PUSH1 0x1 PUSH1 0x1 PUSH1 0xA0 SHL SUB SWAP1 DUP2 AND SWAP2 AND EQ ISZERO PUSH2 0x342C JUMPI PUSH1 0xFF DUP2 AND PUSH1 0x0 SWAP1 DUP2 MSTORE PUSH1 0x2 PUSH1 0x20 SWAP1 DUP2 MSTORE PUSH1 0x40 DUP1 DUP4 KECCAK256 PUSH1 0x3 SWAP1 DUP2 ADD SLOAD DUP7 DUP6 MSTORE SWAP3 DUP2 SWAP1 MSTORE SWAP3 KECCAK256 SWAP1 SWAP2 ADD SLOAD EQ ISZERO PUSH2 0x342C JUMPI PUSH1 0x0 DUP3 DUP2 MSTORE PUSH1 0x3 PUSH1 0x20 DUP2 DUP2 MSTORE PUSH1 0x40 DUP1 DUP5 KECCAK256 PUSH1 0x1 DUP2 ADD SLOAD PUSH1 0xFF DUP8 AND DUP7 MSTORE PUSH1 0x2 DUP1 DUP6 MSTORE SWAP3 DUP7 KECCAK256 SWAP1 SWAP3 ADD SLOAD DUP8 DUP7 MSTORE SWAP4 SWAP1 SWAP3 MSTORE PUSH1 0x4 SWAP1 SWAP2 ADD SLOAD PUSH1 0x1 PUSH1 0x1 PUSH1 0xA0 SHL SUB SWAP1 SWAP2 AND SWAP3 SWAP2 GT PUSH2 0x31DA JUMPI PUSH1 0xFF DUP4 AND PUSH1 0x0 SWAP1 DUP2 MSTORE PUSH1 0x2 PUSH1 0x20 DUP2 DUP2 MSTORE PUSH1 0x40 DUP1 DUP5 KECCAK256 SWAP1 SWAP3 ADD SLOAD DUP8 DUP5 MSTORE PUSH1 0x3 SWAP1 SWAP2 MSTORE SWAP2 KECCAK256 PUSH1 0x4 ADD SLOAD PUSH2 0x3165 SWAP2 SWAP1 PUSH2 0x3C1B JUMP JUMPDEST PUSH1 0x0 DUP6 DUP2 MSTORE PUSH1 0x3 PUSH1 0x20 DUP2 DUP2 MSTORE PUSH1 0x40 DUP1 DUP5 KECCAK256 PUSH1 0x4 SWAP1 DUP2 ADD SWAP6 DUP7 SSTORE PUSH1 0xFF DUP10 AND DUP6 MSTORE PUSH1 0x2 DUP1 DUP5 MSTORE SWAP2 DUP6 KECCAK256 SWAP2 DUP3 ADD DUP1 SLOAD SWAP2 DUP4 ADD DUP7 SWAP1 SSTORE DUP6 SWAP1 SSTORE PUSH1 0x5 SWAP1 SWAP2 ADD DUP1 SLOAD PUSH1 0xFF NOT AND PUSH1 0x1 OR SWAP1 SSTORE SWAP3 DUP9 SWAP1 MSTORE MSTORE SWAP1 SLOAD SWAP1 SWAP2 POP PUSH2 0x31D5 JUMPI PUSH1 0x0 DUP5 DUP2 MSTORE PUSH1 0x3 PUSH1 0x20 MSTORE PUSH1 0x40 SWAP1 KECCAK256 PUSH1 0x5 ADD DUP1 SLOAD PUSH1 0xFF NOT AND PUSH1 0x1 OR SWAP1 SSTORE JUMPDEST PUSH2 0x32CE JUMP JUMPDEST PUSH1 0x0 DUP5 DUP2 MSTORE PUSH1 0x3 PUSH1 0x20 DUP2 SWAP1 MSTORE PUSH1 0x40 SWAP1 SWAP2 KECCAK256 PUSH1 0x4 DUP2 ADD SLOAD SWAP2 ADD SLOAD PUSH2 0x31FD SWAP2 SWAP1 PUSH2 0x3CA8 JUMP JUMPDEST PUSH1 0xFF DUP5 AND PUSH1 0x0 SWAP1 DUP2 MSTORE PUSH1 0x2 PUSH1 0x20 MSTORE PUSH1 0x40 SWAP1 KECCAK256 PUSH1 0x4 ADD SLOAD PUSH2 0x321D SWAP2 SWAP1 PUSH2 0x3C1B JUMP JUMPDEST PUSH1 0xFF DUP5 AND PUSH1 0x0 DUP2 DUP2 MSTORE PUSH1 0x2 PUSH1 0x20 DUP2 DUP2 MSTORE PUSH1 0x40 DUP1 DUP5 KECCAK256 PUSH1 0x4 DUP1 DUP3 ADD SWAP8 SWAP1 SWAP8 SSTORE DUP11 DUP6 MSTORE PUSH1 0x3 DUP4 MSTORE SWAP1 DUP5 KECCAK256 SWAP1 SWAP6 ADD SLOAD SWAP4 SWAP1 SWAP3 MSTORE SWAP1 DUP2 SWAP1 MSTORE SWAP2 SWAP1 SWAP2 ADD SLOAD SWAP1 SWAP2 POP PUSH2 0x3264 SWAP1 DUP3 SWAP1 PUSH2 0x3C1B JUMP JUMPDEST PUSH1 0xFF DUP5 AND PUSH1 0x0 DUP2 DUP2 MSTORE PUSH1 0x2 PUSH1 0x20 DUP2 DUP2 MSTORE PUSH1 0x40 DUP1 DUP5 KECCAK256 DUP1 DUP5 ADD SWAP7 SWAP1 SWAP7 SSTORE DUP10 DUP5 MSTORE PUSH1 0x3 DUP3 MSTORE DUP4 KECCAK256 PUSH1 0x4 DUP1 DUP3 ADD DUP6 SWAP1 SSTORE PUSH1 0x5 SWAP1 SWAP2 ADD DUP1 SLOAD PUSH1 0xFF NOT AND PUSH1 0x1 OR SWAP1 SSTORE SWAP4 SWAP1 SWAP3 MSTORE SWAP1 MSTORE ADD SLOAD PUSH2 0x32CE JUMPI PUSH1 0xFF DUP4 AND PUSH1 0x0 SWAP1 DUP2 MSTORE PUSH1 0x2 PUSH1 0x20 MSTORE PUSH1 0x40 SWAP1 KECCAK256 PUSH1 0x5 ADD DUP1 SLOAD PUSH1 0xFF NOT AND PUSH1 0x1 OR SWAP1 SSTORE JUMPDEST PUSH1 0xFF DUP4 AND PUSH1 0x0 SWAP1 DUP2 MSTORE PUSH1 0x2 PUSH1 0x20 MSTORE PUSH1 0x40 SWAP1 KECCAK256 PUSH1 0x3 ADD SLOAD PUSH1 0x1 PUSH1 0x1 PUSH1 0xA0 SHL SUB DUP4 AND SWAP1 PUSH2 0x8FC SWAP1 PUSH2 0x32FE SWAP1 DUP5 SWAP1 PUSH2 0x3CA8 JUMP JUMPDEST PUSH1 0x40 MLOAD DUP2 ISZERO SWAP1 SWAP3 MUL SWAP2 PUSH1 0x0 DUP2 DUP2 DUP2 DUP6 DUP9 DUP9 CALL SWAP4 POP POP POP POP ISZERO DUP1 ISZERO PUSH2 0x3326 JUMPI RETURNDATASIZE PUSH1 0x0 DUP1 RETURNDATACOPY RETURNDATASIZE PUSH1 0x0 REVERT JUMPDEST POP PUSH1 0xFF DUP4 AND PUSH1 0x0 SWAP1 DUP2 MSTORE PUSH1 0x2 PUSH1 0x20 MSTORE PUSH1 0x40 SWAP1 DUP2 SWAP1 KECCAK256 DUP1 SLOAD PUSH1 0x1 SWAP1 SWAP2 ADD SLOAD SWAP2 MLOAD PUSH4 0xA9059CBB PUSH1 0xE0 SHL DUP2 MSTORE PUSH1 0x1 PUSH1 0x1 PUSH1 0xA0 SHL SUB SWAP3 DUP4 AND PUSH1 0x4 DUP3 ADD MSTORE PUSH1 0x24 DUP2 ADD DUP5 SWAP1 MSTORE SWAP2 AND SWAP1 PUSH4 0xA9059CBB SWAP1 PUSH1 0x44 ADD PUSH1 0x20 PUSH1 0x40 MLOAD DUP1 DUP4 SUB DUP2 PUSH1 0x0 DUP8 GAS CALL ISZERO DUP1 ISZERO PUSH2 0x3391 JUMPI RETURNDATASIZE PUSH1 0x0 DUP1 RETURNDATACOPY RETURNDATASIZE PUSH1 0x0 REVERT JUMPDEST POP POP POP POP PUSH1 0x40 MLOAD RETURNDATASIZE PUSH1 0x1F NOT PUSH1 0x1F DUP3 ADD AND DUP3 ADD DUP1 PUSH1 0x40 MSTORE POP DUP2 ADD SWAP1 PUSH2 0x33B5 SWAP2 SWAP1 PUSH2 0x3B8D JUMP JUMPDEST POP PUSH1 0xFF DUP4 AND PUSH1 0x0 SWAP1 DUP2 MSTORE PUSH1 0x2 PUSH1 0x20 MSTORE PUSH1 0x40 SWAP1 KECCAK256 DUP1 SLOAD PUSH1 0x3 SWAP1 SWAP2 ADD SLOAD PUSH2 0x3429 SWAP2 PUSH1 0x1 PUSH1 0x1 PUSH1 0xA0 SHL SUB AND SWAP1 PUSH2 0x33E9 SWAP1 DUP5 SWAP1 PUSH2 0x3CA8 JUMP JUMPDEST PUSH1 0xFF DUP7 AND PUSH1 0x0 DUP2 DUP2 MSTORE PUSH1 0x2 PUSH1 0x20 SWAP1 DUP2 MSTORE PUSH1 0x40 DUP1 DUP4 KECCAK256 PUSH1 0x1 SWAP1 DUP2 ADD SLOAD DUP13 DUP6 MSTORE PUSH1 0x3 SWAP1 SWAP4 MSTORE SWAP3 KECCAK256 SWAP1 SWAP2 ADD SLOAD DUP7 SWAP3 SWAP2 DUP11 SWAP2 PUSH1 0x1 PUSH1 0x1 PUSH1 0xA0 SHL SUB SWAP2 DUP3 AND SWAP2 AND PUSH2 0x343E JUMP JUMPDEST POP POP JUMPDEST DUP1 PUSH2 0x3436 DUP2 PUSH2 0x3B57 JUMP JUMPDEST SWAP2 POP POP PUSH2 0x301C JUMP JUMPDEST PUSH1 0x1 DUP1 SLOAD PUSH1 0x0 SWAP1 DUP2 MSTORE PUSH1 0x20 DUP2 SWAP1 MSTORE PUSH1 0x40 DUP1 DUP3 KECCAK256 DUP1 SLOAD PUSH1 0x1 PUSH1 0x1 PUSH1 0xA0 SHL SUB DUP1 DUP14 AND PUSH1 0x1 PUSH1 0x1 PUSH1 0xA0 SHL SUB NOT SWAP3 DUP4 AND OR SWAP1 SWAP3 SSTORE DUP5 SLOAD DUP5 MSTORE DUP3 DUP5 KECCAK256 DUP6 ADD DUP12 SWAP1 SSTORE DUP5 SLOAD DUP5 MSTORE DUP3 DUP5 KECCAK256 PUSH1 0x2 ADD DUP11 SWAP1 SSTORE DUP5 SLOAD DUP5 MSTORE DUP3 DUP5 KECCAK256 PUSH1 0x3 ADD DUP10 SWAP1 SSTORE DUP5 SLOAD DUP5 MSTORE DUP3 DUP5 KECCAK256 PUSH1 0x4 ADD DUP9 SWAP1 SSTORE DUP5 SLOAD DUP5 MSTORE DUP3 DUP5 KECCAK256 PUSH1 0x5 ADD DUP1 SLOAD DUP9 DUP5 AND SWAP1 DUP4 AND OR SWAP1 SSTORE DUP5 SLOAD DUP5 MSTORE SWAP2 DUP4 KECCAK256 PUSH1 0x6 ADD DUP1 SLOAD SWAP2 DUP7 AND SWAP2 SWAP1 SWAP3 AND OR SWAP1 SSTORE DUP2 SLOAD SWAP2 SWAP1 PUSH2 0x34D9 DUP4 PUSH2 0x3B3C JUMP JUMPDEST SWAP2 SWAP1 POP SSTORE POP POP POP POP POP POP POP POP JUMP JUMPDEST DUP3 DUP1 SLOAD PUSH2 0x34F3 SWAP1 PUSH2 0x3C32 JUMP JUMPDEST SWAP1 PUSH1 0x0 MSTORE PUSH1 0x20 PUSH1 0x0 KECCAK256 SWAP1 PUSH1 0x1F ADD PUSH1 0x20 SWAP1 DIV DUP2 ADD SWAP3 DUP3 PUSH2 0x3515 JUMPI PUSH1 0x0 DUP6 SSTORE PUSH2 0x355B JUMP JUMPDEST DUP3 PUSH1 0x1F LT PUSH2 0x352E JUMPI DUP1 MLOAD PUSH1 0xFF NOT AND DUP4 DUP1 ADD OR DUP6 SSTORE PUSH2 0x355B JUMP JUMPDEST DUP3 DUP1 ADD PUSH1 0x1 ADD DUP6 SSTORE DUP3 ISZERO PUSH2 0x355B JUMPI SWAP2 DUP3 ADD JUMPDEST DUP3 DUP2 GT ISZERO PUSH2 0x355B JUMPI DUP3 MLOAD DUP3 SSTORE SWAP2 PUSH1 0x20 ADD SWAP2 SWAP1 PUSH1 0x1 ADD SWAP1 PUSH2 0x3540 JUMP JUMPDEST POP PUSH2 0x3567 SWAP3 SWAP2 POP PUSH2 0x356B JUMP JUMPDEST POP SWAP1 JUMP JUMPDEST JUMPDEST DUP1 DUP3 GT ISZERO PUSH2 0x3567 JUMPI PUSH1 0x0 DUP2 SSTORE PUSH1 0x1 ADD PUSH2 0x356C JUMP JUMPDEST DUP1 CALLDATALOAD PUSH1 0x1 PUSH1 0x1 PUSH1 0xA0 SHL SUB DUP2 AND DUP2 EQ PUSH2 0x3597 JUMPI PUSH1 0x0 DUP1 REVERT JUMPDEST SWAP2 SWAP1 POP JUMP JUMPDEST PUSH1 0x0 PUSH1 0x20 DUP3 DUP5 SUB SLT ISZERO PUSH2 0x35AE JUMPI PUSH1 0x0 DUP1 REVERT JUMPDEST PUSH2 0x35B7 DUP3 PUSH2 0x3580 JUMP JUMPDEST SWAP4 SWAP3 POP POP POP JUMP JUMPDEST PUSH1 0x0 DUP2 MLOAD DUP1 DUP5 MSTORE PUSH1 0x20 DUP1 DUP6 ADD SWAP5 POP DUP1 DUP5 ADD PUSH1 0x0 JUMPDEST DUP4 DUP2 LT ISZERO PUSH2 0x35EE JUMPI DUP2 MLOAD DUP8 MSTORE SWAP6 DUP3 ADD SWAP6 SWAP1 DUP3 ADD SWAP1 PUSH1 0x1 ADD PUSH2 0x35D2 JUMP JUMPDEST POP SWAP5 SWAP6 SWAP5 POP POP POP POP POP JUMP JUMPDEST PUSH1 0x0 DUP2 MLOAD DUP1 DUP5 MSTORE PUSH1 0x20 DUP1 DUP6 ADD SWAP5 POP DUP1 DUP5 ADD PUSH1 0x0 JUMPDEST DUP4 DUP2 LT ISZERO PUSH2 0x35EE JUMPI DUP2 MLOAD PUSH1 0x1 PUSH1 0x1 PUSH1 0xA0 SHL SUB AND DUP8 MSTORE SWAP6 DUP3 ADD SWAP6 SWAP1 DUP3 ADD SWAP1 PUSH1 0x1 ADD PUSH2 0x360D JUMP JUMPDEST PUSH1 0xC0 DUP2 MSTORE PUSH1 0x0 PUSH2 0x3645 PUSH1 0xC0 DUP4 ADD DUP10 PUSH2 0x35BE JUMP JUMPDEST DUP3 DUP2 SUB PUSH1 0x20 DUP5 ADD MSTORE PUSH2 0x3657 DUP2 DUP10 PUSH2 0x35BE JUMP JUMPDEST SWAP1 POP DUP3 DUP2 SUB PUSH1 0x40 DUP5 ADD MSTORE PUSH2 0x366B DUP2 DUP9 PUSH2 0x35BE JUMP JUMPDEST SWAP1 POP DUP3 DUP2 SUB PUSH1 0x60 DUP5 ADD MSTORE PUSH2 0x367F DUP2 DUP8 PUSH2 0x35BE JUMP JUMPDEST SWAP1 POP DUP3 DUP2 SUB PUSH1 0x80 DUP5 ADD MSTORE PUSH2 0x3693 DUP2 DUP7 PUSH2 0x35F9 JUMP JUMPDEST SWAP1 POP DUP3 DUP2 SUB PUSH1 0xA0 DUP5 ADD MSTORE PUSH2 0x36A7 DUP2 DUP6 PUSH2 0x35F9 JUMP JUMPDEST SWAP10 SWAP9 POP POP POP POP POP POP POP POP POP JUMP JUMPDEST PUSH1 0x0 PUSH1 0x20 DUP3 DUP5 SUB SLT ISZERO PUSH2 0x36C6 JUMPI PUSH1 0x0 DUP1 REVERT JUMPDEST POP CALLDATALOAD SWAP2 SWAP1 POP JUMP JUMPDEST PUSH1 0x0 DUP1 PUSH1 0x40 DUP4 DUP6 SUB SLT ISZERO PUSH2 0x36E0 JUMPI PUSH1 0x0 DUP1 REVERT JUMPDEST PUSH2 0x36E9 DUP4 PUSH2 0x3580 JUMP JUMPDEST SWAP2 POP PUSH2 0x36F7 PUSH1 0x20 DUP5 ADD PUSH2 0x3580 JUMP JUMPDEST SWAP1 POP SWAP3 POP SWAP3 SWAP1 POP JUMP JUMPDEST PUSH4 0x4E487B71 PUSH1 0xE0 SHL PUSH1 0x0 MSTORE PUSH1 0x21 PUSH1 0x4 MSTORE PUSH1 0x24 PUSH1 0x0 REVERT JUMPDEST PUSH1 0xC0 DUP2 MSTORE PUSH1 0x0 PUSH2 0x3729 PUSH1 0xC0 DUP4 ADD DUP10 PUSH2 0x35F9 JUMP JUMPDEST PUSH1 0x20 DUP4 DUP3 SUB DUP2 DUP6 ADD MSTORE PUSH2 0x373C DUP3 DUP11 PUSH2 0x35BE JUMP JUMPDEST SWAP2 POP DUP4 DUP3 SUB PUSH1 0x40 DUP6 ADD MSTORE PUSH2 0x3750 DUP3 DUP10 PUSH2 0x35BE JUMP JUMPDEST SWAP2 POP DUP4 DUP3 SUB PUSH1 0x60 DUP6 ADD MSTORE PUSH2 0x3764 DUP3 DUP9 PUSH2 0x35BE JUMP JUMPDEST DUP5 DUP2 SUB PUSH1 0x80 DUP7 ADD MSTORE DUP7 MLOAD DUP1 DUP3 MSTORE DUP3 DUP9 ADD SWAP4 POP SWAP1 DUP3 ADD SWAP1 PUSH1 0x0 DUP1 JUMPDEST DUP3 DUP2 LT ISZERO PUSH2 0x37B6 JUMPI DUP6 MLOAD PUSH1 0x3 DUP2 LT PUSH2 0x37A4 JUMPI PUSH4 0x4E487B71 PUSH1 0xE0 SHL DUP4 MSTORE PUSH1 0x21 PUSH1 0x4 MSTORE PUSH1 0x24 DUP4 REVERT JUMPDEST DUP5 MSTORE SWAP5 DUP5 ADD SWAP5 SWAP3 DUP5 ADD SWAP3 PUSH1 0x1 ADD PUSH2 0x377E JUMP JUMPDEST POP POP POP DUP5 DUP2 SUB PUSH1 0xA0 DUP7 ADD MSTORE PUSH2 0x37CB DUP2 DUP8 PUSH2 0x35BE JUMP JUMPDEST SWAP12 SWAP11 POP POP POP POP POP POP POP POP POP POP POP JUMP JUMPDEST PUSH1 0x0 DUP1 PUSH1 0x40 DUP4 DUP6 SUB SLT ISZERO PUSH2 0x37ED JUMPI PUSH1 0x0 DUP1 REVERT JUMPDEST PUSH2 0x37F6 DUP4 PUSH2 0x3580 JUMP JUMPDEST SWAP5 PUSH1 0x20 SWAP4 SWAP1 SWAP4 ADD CALLDATALOAD SWAP4 POP POP POP JUMP JUMPDEST PUSH1 0x0 DUP1 PUSH1 0x0 PUSH1 0x60 DUP5 DUP7 SUB SLT ISZERO PUSH2 0x3819 JUMPI PUSH1 0x0 DUP1 REVERT JUMPDEST PUSH2 0x3822 DUP5 PUSH2 0x3580 JUMP JUMPDEST SWAP6 PUSH1 0x20 DUP6 ADD CALLDATALOAD SWAP6 POP PUSH1 0x40 SWAP1 SWAP5 ADD CALLDATALOAD SWAP4 SWAP3 POP POP POP JUMP JUMPDEST PUSH1 0x20 DUP2 MSTORE PUSH1 0x0 PUSH2 0x35B7 PUSH1 0x20 DUP4 ADD DUP5 PUSH2 0x35F9 JUMP JUMPDEST PUSH4 0x4E487B71 PUSH1 0xE0 SHL PUSH1 0x0 MSTORE PUSH1 0x41 PUSH1 0x4 MSTORE PUSH1 0x24 PUSH1 0x0 REVERT JUMPDEST PUSH1 0x0 DUP3 PUSH1 0x1F DUP4 ADD SLT PUSH2 0x3871 JUMPI PUSH1 0x0 DUP1 REVERT JUMPDEST DUP2 CALLDATALOAD PUSH1 0x1 PUSH1 0x1 PUSH1 0x40 SHL SUB DUP1 DUP3 GT ISZERO PUSH2 0x388B JUMPI PUSH2 0x388B PUSH2 0x384A JUMP JUMPDEST PUSH1 0x40 MLOAD PUSH1 0x1F DUP4 ADD PUSH1 0x1F NOT SWAP1 DUP2 AND PUSH1 0x3F ADD AND DUP2 ADD SWAP1 DUP3 DUP3 GT DUP2 DUP4 LT OR ISZERO PUSH2 0x38B3 JUMPI PUSH2 0x38B3 PUSH2 0x384A JUMP JUMPDEST DUP2 PUSH1 0x40 MSTORE DUP4 DUP2 MSTORE DUP7 PUSH1 0x20 DUP6 DUP9 ADD ADD GT ISZERO PUSH2 0x38CC JUMPI PUSH1 0x0 DUP1 REVERT JUMPDEST DUP4 PUSH1 0x20 DUP8 ADD PUSH1 0x20 DUP4 ADD CALLDATACOPY PUSH1 0x0 PUSH1 0x20 DUP6 DUP4 ADD ADD MSTORE DUP1 SWAP5 POP POP POP POP POP SWAP3 SWAP2 POP POP JUMP JUMPDEST PUSH1 0x0 PUSH1 0x20 DUP3 DUP5 SUB SLT ISZERO PUSH2 0x38FE JUMPI PUSH1 0x0 DUP1 REVERT JUMPDEST DUP2 CALLDATALOAD PUSH1 0x1 PUSH1 0x1 PUSH1 0x40 SHL SUB DUP2 GT ISZERO PUSH2 0x3914 JUMPI PUSH1 0x0 DUP1 REVERT JUMPDEST PUSH2 0x11E8 DUP5 DUP3 DUP6 ADD PUSH2 0x3860 JUMP JUMPDEST PUSH1 0x0 JUMPDEST DUP4 DUP2 LT ISZERO PUSH2 0x393B JUMPI DUP2 DUP2 ADD MLOAD DUP4 DUP3 ADD MSTORE PUSH1 0x20 ADD PUSH2 0x3923 JUMP JUMPDEST DUP4 DUP2 GT ISZERO PUSH2 0x394A JUMPI PUSH1 0x0 DUP5 DUP5 ADD MSTORE JUMPDEST POP POP POP POP JUMP JUMPDEST PUSH1 0x0 PUSH1 0x20 DUP1 DUP4 ADD DUP2 DUP5 MSTORE DUP1 DUP6 MLOAD DUP1 DUP4 MSTORE PUSH1 0x40 DUP7 ADD SWAP2 POP PUSH1 0x40 DUP2 PUSH1 0x5 SHL DUP8 ADD ADD SWAP3 POP DUP4 DUP8 ADD PUSH1 0x0 JUMPDEST DUP3 DUP2 LT ISZERO PUSH2 0x39BD JUMPI DUP8 DUP6 SUB PUSH1 0x3F NOT ADD DUP5 MSTORE DUP2 MLOAD DUP1 MLOAD DUP1 DUP8 MSTORE PUSH2 0x399E DUP2 DUP10 DUP10 ADD DUP11 DUP6 ADD PUSH2 0x3920 JUMP JUMPDEST PUSH1 0x1F ADD PUSH1 0x1F NOT AND SWAP6 SWAP1 SWAP6 ADD DUP7 ADD SWAP5 POP SWAP3 DUP6 ADD SWAP3 SWAP1 DUP6 ADD SWAP1 PUSH1 0x1 ADD PUSH2 0x3977 JUMP JUMPDEST POP SWAP3 SWAP8 SWAP7 POP POP POP POP POP POP POP JUMP JUMPDEST PUSH1 0x40 DUP2 MSTORE PUSH1 0x0 PUSH2 0x39DD PUSH1 0x40 DUP4 ADD DUP6 PUSH2 0x35F9 JUMP JUMPDEST DUP3 DUP2 SUB PUSH1 0x20 DUP5 DUP2 ADD SWAP2 SWAP1 SWAP2 MSTORE DUP5 MLOAD DUP1 DUP4 MSTORE DUP6 DUP3 ADD SWAP3 DUP3 ADD SWAP1 PUSH1 0x0 JUMPDEST DUP2 DUP2 LT ISZERO PUSH2 0x3A16 JUMPI DUP5 MLOAD ISZERO ISZERO DUP4 MSTORE SWAP4 DUP4 ADD SWAP4 SWAP2 DUP4 ADD SWAP2 PUSH1 0x1 ADD PUSH2 0x39F8 JUMP JUMPDEST POP SWAP1 SWAP8 SWAP7 POP POP POP POP POP POP POP JUMP JUMPDEST PUSH1 0x80 DUP2 MSTORE PUSH1 0x0 PUSH2 0x3A36 PUSH1 0x80 DUP4 ADD DUP8 PUSH2 0x35BE JUMP JUMPDEST DUP3 DUP2 SUB PUSH1 0x20 DUP5 ADD MSTORE PUSH2 0x3A48 DUP2 DUP8 PUSH2 0x35BE JUMP JUMPDEST SWAP1 POP DUP3 DUP2 SUB PUSH1 0x40 DUP5 ADD MSTORE PUSH2 0x3A5C DUP2 DUP7 PUSH2 0x35BE JUMP JUMPDEST SWAP1 POP DUP3 DUP2 SUB PUSH1 0x60 DUP5 ADD MSTORE PUSH2 0x3A70 DUP2 DUP6 PUSH2 0x35BE JUMP JUMPDEST SWAP8 SWAP7 POP POP POP POP POP POP POP JUMP JUMPDEST DUP1 ISZERO ISZERO DUP2 EQ PUSH2 0x3A89 JUMPI PUSH1 0x0 DUP1 REVERT JUMPDEST POP JUMP JUMPDEST PUSH1 0x0 DUP1 PUSH1 0x40 DUP4 DUP6 SUB SLT ISZERO PUSH2 0x3A9F JUMPI PUSH1 0x0 DUP1 REVERT JUMPDEST PUSH2 0x3AA8 DUP4 PUSH2 0x3580 JUMP JUMPDEST SWAP2 POP PUSH1 0x20 DUP4 ADD CALLDATALOAD PUSH2 0x3AB8 DUP2 PUSH2 0x3A7B JUMP JUMPDEST DUP1 SWAP2 POP POP SWAP3 POP SWAP3 SWAP1 POP JUMP JUMPDEST PUSH1 0x0 DUP1 PUSH1 0x40 DUP4 DUP6 SUB SLT ISZERO PUSH2 0x3AD6 JUMPI PUSH1 0x0 DUP1 REVERT JUMPDEST DUP3 CALLDATALOAD PUSH1 0x1 PUSH1 0x1 PUSH1 0x40 SHL SUB DUP1 DUP3 GT ISZERO PUSH2 0x3AED JUMPI PUSH1 0x0 DUP1 REVERT JUMPDEST PUSH2 0x3AF9 DUP7 DUP4 DUP8 ADD PUSH2 0x3860 JUMP JUMPDEST SWAP4 POP PUSH1 0x20 DUP6 ADD CALLDATALOAD SWAP2 POP DUP1 DUP3 GT ISZERO PUSH2 0x3B0F JUMPI PUSH1 0x0 DUP1 REVERT JUMPDEST POP PUSH2 0x3B1C DUP6 DUP3 DUP7 ADD PUSH2 0x3860 JUMP JUMPDEST SWAP2 POP POP SWAP3 POP SWAP3 SWAP1 POP JUMP JUMPDEST PUSH4 0x4E487B71 PUSH1 0xE0 SHL PUSH1 0x0 MSTORE PUSH1 0x11 PUSH1 0x4 MSTORE PUSH1 0x24 PUSH1 0x0 REVERT JUMPDEST PUSH1 0x0 PUSH1 0x0 NOT DUP3 EQ ISZERO PUSH2 0x3B50 JUMPI PUSH2 0x3B50 PUSH2 0x3B26 JUMP JUMPDEST POP PUSH1 0x1 ADD SWAP1 JUMP JUMPDEST PUSH1 0x0 PUSH1 0xFF DUP3 AND PUSH1 0xFF DUP2 EQ ISZERO PUSH2 0x3B6E JUMPI PUSH2 0x3B6E PUSH2 0x3B26 JUMP JUMPDEST PUSH1 0x1 ADD SWAP3 SWAP2 POP POP JUMP JUMPDEST PUSH4 0x4E487B71 PUSH1 0xE0 SHL PUSH1 0x0 MSTORE PUSH1 0x32 PUSH1 0x4 MSTORE PUSH1 0x24 PUSH1 0x0 REVERT JUMPDEST PUSH1 0x0 PUSH1 0x20 DUP3 DUP5 SUB SLT ISZERO PUSH2 0x3B9F JUMPI PUSH1 0x0 DUP1 REVERT JUMPDEST DUP2 MLOAD PUSH2 0x35B7 DUP2 PUSH2 0x3A7B JUMP JUMPDEST PUSH1 0x20 DUP1 DUP3 MSTORE PUSH1 0x18 SWAP1 DUP3 ADD MSTORE PUSH32 0x73686172652076616C75652063616E206E6F7420626520300000000000000000 PUSH1 0x40 DUP3 ADD MSTORE PUSH1 0x60 ADD SWAP1 JUMP JUMPDEST PUSH1 0x0 DUP3 PUSH2 0x3BFE JUMPI PUSH4 0x4E487B71 PUSH1 0xE0 SHL PUSH1 0x0 MSTORE PUSH1 0x12 PUSH1 0x4 MSTORE PUSH1 0x24 PUSH1 0x0 REVERT JUMPDEST POP DIV SWAP1 JUMP JUMPDEST PUSH1 0x0 DUP3 NOT DUP3 GT ISZERO PUSH2 0x3C16 JUMPI PUSH2 0x3C16 PUSH2 0x3B26 JUMP JUMPDEST POP ADD SWAP1 JUMP JUMPDEST PUSH1 0x0 DUP3 DUP3 LT ISZERO PUSH2 0x3C2D JUMPI PUSH2 0x3C2D PUSH2 0x3B26 JUMP JUMPDEST POP SUB SWAP1 JUMP JUMPDEST PUSH1 0x1 DUP2 DUP2 SHR SWAP1 DUP3 AND DUP1 PUSH2 0x3C46 JUMPI PUSH1 0x7F DUP3 AND SWAP2 POP JUMPDEST PUSH1 0x20 DUP3 LT DUP2 EQ ISZERO PUSH2 0x15A2 JUMPI PUSH4 0x4E487B71 PUSH1 0xE0 SHL PUSH1 0x0 MSTORE PUSH1 0x22 PUSH1 0x4 MSTORE PUSH1 0x24 PUSH1 0x0 REVERT JUMPDEST PUSH1 0x0 PUSH1 0xFF DUP3 AND PUSH1 0xFF DUP5 AND DUP1 PUSH1 0xFF SUB DUP3 GT ISZERO PUSH2 0x3C84 JUMPI PUSH2 0x3C84 PUSH2 0x3B26 JUMP JUMPDEST ADD SWAP4 SWAP3 POP POP POP JUMP JUMPDEST PUSH1 0x0 DUP3 MLOAD PUSH2 0x3C9E DUP2 DUP5 PUSH1 0x20 DUP8 ADD PUSH2 0x3920 JUMP JUMPDEST SWAP2 SWAP1 SWAP2 ADD SWAP3 SWAP2 POP POP JUMP JUMPDEST PUSH1 0x0 DUP2 PUSH1 0x0 NOT DIV DUP4 GT DUP3 ISZERO ISZERO AND ISZERO PUSH2 0x3CC2 JUMPI PUSH2 0x3CC2 PUSH2 0x3B26 JUMP JUMPDEST POP MUL SWAP1 JUMP INVALID LOG2 PUSH5 0x6970667358 0x22 SLT KECCAK256 PUSH3 0x2650EC 0xF9 0xFC STOP LOG3 0xF9 0x21 0xDC 0xAC MUL 0xAE OR SWAP9 MSIZE EXTCODEHASH 0xA5 DUP1 0xD8 SWAP5 KECCAK256 SHR 0xB5 JUMP 0x2F MUL 0x49 PUSH10 0x64E564736F6C63430008 SIGNEXTEND STOP CALLER ","sha1":"fb0ddee231d6942479774231e8a5b9dfc70dc342","source":"// SPDX-License-Identifier: MIT\n// Gallery of solid state contracts\n\npragma solidity ^0.8.0;\npragma abicoder v2;\n\nimport \"@openzeppelin/contracts/token/ERC20/IERC20.sol\";\n\ncontract SolidStateGallery {\n    struct buyOrder {\n        address artworkAddress;\n        address orderOwner;\n        uint256 shareValue;\n        uint256 ethValue;\n        uint256 balance;\n        OrderState state;\n    }\n    struct sellOrder {\n        address artworkAddress;\n        address orderOwner;\n        uint256 shareValue;\n        uint256 ethValue;\n        uint256 balance;\n        OrderState state;\n    }\n\n    enum OrderState {\n        OPEN,\n        CLOSED,\n        CANCELLED\n    }\n    struct transaction {\n        address artwork;\n        uint256 eth;\n        uint256 share;\n        uint256 buyId;\n        uint256 sellId;\n        address buyer;\n        address seller;\n    }\n\n    mapping(uint256 => transaction) private transactions;\n    uint256 transactionCount = 0;\n\n    mapping(uint256 => buyOrder) private buyOrders;\n    mapping(uint256 => sellOrder) private sellOrders;\n    uint256 buyOrderCount = 0;\n    uint256 sellOrderCount = 0;\n\n    mapping(uint256 => address) private artWorkContracts;\n    mapping(uint256 => string) private artWorkCollections;\n    mapping(uint256 => uint256) private artWorkCollection;\n    mapping(address => bool) private artWorkVisibility;\n    uint256 private artWorkCount;\n    uint256 private collectionCount;\n    address[] private owners;\n    uint256 ownerCount;\n\n    struct allArtworks {\n        address contractAddress;\n        bool visibilty;\n    }\n\n    modifier onlyOwner() {\n        require(msg.sender == owners[ownerCount]);\n        _;\n    }\n\n    constructor() {\n        owners.push(msg.sender);\n        artWorkCount = 0;\n        ownerCount = 0;\n        collectionCount = 0;\n    }\n\n    function addArtWork(address _artWorkAddress, uint256 _collectionId)\n        public\n        onlyOwner\n    {\n        for (\n            uint256 artWorkIndex = 0;\n            artWorkIndex < artWorkCount;\n            artWorkIndex++\n        ) {\n            require(\n                artWorkContracts[artWorkIndex] != _artWorkAddress,\n                \"Art work already added\"\n            );\n        }\n        artWorkContracts[artWorkCount] = _artWorkAddress;\n        artWorkCollection[artWorkCount] = _collectionId;\n        artWorkVisibility[_artWorkAddress] = false;\n        artWorkCount++;\n    }\n\n    function addCollection(string memory _collectionName) public onlyOwner {\n        for (\n            uint256 collectionIndex = 0;\n            collectionIndex < collectionCount;\n            collectionIndex++\n        ) {\n            require(\n                compareStrings(\n                    artWorkCollections[collectionIndex],\n                    _collectionName\n                ) == false,\n                \"Collection is already added\"\n            );\n        }\n        artWorkCollections[collectionCount] = _collectionName;\n\n        collectionCount++;\n    }\n\n    function getCollectionIdByName(string memory _collectionName)\n        public\n        view\n        returns (uint256)\n    {\n        bool isName = false;\n        for (\n            uint256 collectionIndex = 0;\n            collectionIndex < collectionCount;\n            collectionIndex++\n        ) {\n            if (\n                compareStrings(\n                    artWorkCollections[collectionIndex],\n                    _collectionName\n                ) == true\n            ) {\n                return collectionIndex;\n            }\n        }\n        require(isName == true, \"No Collection By That Name\");\n        return 0;\n    }\n\n    function compareStrings(string memory a, string memory b)\n        public\n        pure\n        returns (bool)\n    {\n        return (keccak256(abi.encodePacked((a))) ==\n            keccak256(abi.encodePacked((b))));\n    }\n\n    function getCollections() public view returns (string[] memory) {\n        string[] memory collections = new string[](collectionCount);\n        for (\n            uint256 collectionIndex = 0;\n            collectionIndex < collectionCount;\n            collectionIndex++\n        ) {\n            collections[collectionIndex] = artWorkCollections[collectionIndex];\n        }\n        return collections;\n    }\n\n    function getAllArtWorksByCollectionId(uint256 _Id)\n        public\n        view\n        returns (address[] memory, bool[] memory)\n    {\n        uint256 count = 0;\n        for (\n            uint256 artWorkIndex = 0;\n            artWorkIndex < artWorkCount;\n            artWorkIndex++\n        ) {\n            if (artWorkCollection[artWorkIndex] == _Id) {\n                count++;\n            }\n        }\n        address[] memory contracts = new address[](count);\n        bool[] memory visibility = new bool[](count);\n        count = 0;\n        for (\n            uint256 artWorkIndex = 0;\n            artWorkIndex < artWorkCount;\n            artWorkIndex++\n        ) {\n            if (artWorkCollection[artWorkIndex] == _Id) {\n                contracts[count] = artWorkContracts[artWorkIndex];\n                visibility[count] = artWorkVisibility[\n                    artWorkContracts[artWorkIndex]\n                ];\n                count++;\n            }\n        }\n        return (contracts, visibility);\n    }\n\n    function getArtWorksByCollectionId(uint256 _Id)\n        public\n        view\n        returns (address[] memory)\n    {\n        uint256 count = 0;\n        for (\n            uint256 artWorkIndex = 0;\n            artWorkIndex < artWorkCount;\n            artWorkIndex++\n        ) {\n            if (artWorkVisibility[artWorkContracts[artWorkIndex]] == true) {\n                if (artWorkCollection[artWorkIndex] == _Id) {\n                    count++;\n                }\n            }\n        }\n        address[] memory contracts = new address[](count);\n        count = 0;\n        for (\n            uint256 artWorkIndex = 0;\n            artWorkIndex < artWorkCount;\n            artWorkIndex++\n        ) {\n            if (artWorkVisibility[artWorkContracts[artWorkIndex]] == true) {\n                if (artWorkCollection[artWorkIndex] == _Id) {\n                    contracts[count] = artWorkContracts[artWorkIndex];\n                    count++;\n                }\n            }\n        }\n        return contracts;\n    }\n\n    function getAllArtWorks()\n        public\n        view\n        returns (address[] memory, bool[] memory)\n    {\n        address[] memory contracts = new address[](artWorkCount);\n        bool[] memory visibility = new bool[](artWorkCount);\n        for (\n            uint256 artWorkIndex = 0;\n            artWorkIndex < artWorkCount;\n            artWorkIndex++\n        ) {\n            contracts[artWorkIndex] = artWorkContracts[artWorkIndex];\n            visibility[artWorkIndex] = artWorkVisibility[\n                artWorkContracts[artWorkIndex]\n            ];\n        }\n        return (contracts, visibility);\n    }\n\n    function getArtWorks() public view returns (address[] memory) {\n        uint256 count = 0;\n        for (\n            uint256 artWorkIndex = 0;\n            artWorkIndex < artWorkCount;\n            artWorkIndex++\n        ) {\n            if (artWorkVisibility[artWorkContracts[artWorkIndex]] == true) {\n                count++;\n            }\n        }\n        address[] memory contracts = new address[](count);\n        count = 0;\n        for (\n            uint256 artWorkIndex = 0;\n            artWorkIndex < artWorkCount;\n            artWorkIndex++\n        ) {\n            if (artWorkVisibility[artWorkContracts[artWorkIndex]] == true) {\n                contracts[count] = artWorkContracts[artWorkIndex];\n                count++;\n            }\n        }\n        return contracts;\n    }\n\n    function setArtWorkVisibility(\n        address _artWorkContractAddress,\n        bool _visibility\n    ) public onlyOwner {\n        artWorkVisibility[_artWorkContractAddress] = _visibility;\n    }\n\n    function getOwners() public view returns (address[] memory) {\n        return owners;\n    }\n\n    function newOwner(address _newOwnerAddress) public onlyOwner {\n        ownerCount++;\n        owners.push(_newOwnerAddress);\n    }\n\n    /// TRADE THE SHARES/TOKENS FOR ETH\n\n    function getAllBuyOrders(address _artworkAddress)\n        public\n        view\n        returns (\n            uint256[] memory,\n            uint256[] memory,\n            uint256[] memory,\n            uint256[] memory\n        )\n    {\n        uint8 c = 0;\n        for (uint8 j = 0; j < buyOrderCount; j++) {\n            if (buyOrders[j].state == OrderState.OPEN) {\n                if (buyOrders[j].artworkAddress == _artworkAddress) {\n                    c += 1;\n                }\n            }\n        }\n\n        uint256[] memory _shareValues = new uint256[](c);\n        uint256[] memory _ethValues = new uint256[](c);\n        uint256[] memory _balances = new uint256[](c);\n        uint256[] memory _ids = new uint256[](c);\n        c = 0;\n        for (uint8 j = 0; j < buyOrderCount; j++) {\n            if (buyOrders[j].state == OrderState.OPEN) {\n                if (buyOrders[j].artworkAddress == _artworkAddress) {\n                    _shareValues[c] = buyOrders[j].shareValue;\n                    _ethValues[c] = buyOrders[j].ethValue;\n                    _balances[c] = buyOrders[j].balance;\n                    _ids[c] = j;\n                    c++;\n                }\n            }\n        }\n        return (_shareValues, _ethValues, _balances, _ids);\n    }\n\n    function getBuyOrdersByAddress(address _artworkAddress, address _address)\n        public\n        view\n        returns (\n            address[] memory,\n            uint256[] memory,\n            uint256[] memory,\n            uint256[] memory,\n            OrderState[] memory,\n            uint256[] memory\n        )\n    {\n        uint8 c = 0;\n        for (uint8 j = 0; j < buyOrderCount; j++) {\n            if (buyOrders[j].orderOwner == _address) {\n                if (buyOrders[j].artworkAddress == _artworkAddress) {\n                    c++;\n                }\n            }\n        }\n        address[] memory _orderOwners = new address[](c);\n        uint256[] memory _shareValues = new uint256[](c);\n        uint256[] memory _ethValues = new uint256[](c);\n        uint256[] memory _balances = new uint256[](c);\n        uint256[] memory _ids = new uint256[](c);\n        OrderState[] memory _states = new OrderState[](c);\n        c = 0;\n        for (uint8 j = 0; j < buyOrderCount; j++) {\n            if (buyOrders[j].orderOwner == _address) {\n                if (buyOrders[j].artworkAddress == _artworkAddress) {\n                    _orderOwners[c] = buyOrders[j].orderOwner;\n                    _shareValues[c] = buyOrders[j].shareValue;\n                    _ethValues[c] = buyOrders[j].ethValue;\n                    _balances[c] = buyOrders[j].balance;\n\n                    _ids[c] = j;\n                    _states[c] = buyOrders[j].state;\n                    c++;\n                }\n            }\n        }\n        return (\n            _orderOwners,\n            _shareValues,\n            _ethValues,\n            _balances,\n            _states,\n            _ids\n        );\n    }\n\n    function getAllSellOrders(address _artworkAddress)\n        public\n        view\n        returns (\n            uint256[] memory,\n            uint256[] memory,\n            uint256[] memory,\n            uint256[] memory\n        )\n    {\n        uint8 c = 0;\n        for (uint8 j = 0; j < sellOrderCount; j++) {\n            if (sellOrders[j].artworkAddress == _artworkAddress) {\n                if (sellOrders[j].state == OrderState.OPEN) {\n                    c++;\n                }\n            }\n        }\n        uint256[] memory _shareValues = new uint256[](c);\n        uint256[] memory _ethValues = new uint256[](c);\n        uint256[] memory _balances = new uint256[](c);\n        uint256[] memory _ids = new uint256[](c);\n        c = 0;\n        for (uint8 j = 0; j < sellOrderCount; j++) {\n            if (sellOrders[j].artworkAddress == _artworkAddress) {\n                if (sellOrders[j].state == OrderState.OPEN) {\n                    _shareValues[c] = sellOrders[j].shareValue;\n                    _ethValues[c] = sellOrders[j].ethValue;\n                    _balances[c] = sellOrders[j].balance;\n                    _ids[c] = j;\n                    c++;\n                }\n            }\n        }\n        return (_shareValues, _ethValues, _balances, _ids);\n    }\n\n    function getSellOrdersByAddress(address _artworkAddress, address _address)\n        public\n        view\n        returns (\n            address[] memory,\n            uint256[] memory,\n            uint256[] memory,\n            uint256[] memory,\n            OrderState[] memory,\n            uint256[] memory\n        )\n    {\n        uint8 c = 0;\n        for (uint8 j = 0; j < sellOrderCount; j++) {\n            if (sellOrders[j].artworkAddress == _artworkAddress) {\n                if (sellOrders[j].orderOwner == _address) {\n                    c++;\n                }\n            }\n        }\n        address[] memory _orderOwners = new address[](c);\n        uint256[] memory _shareValues = new uint256[](c);\n        uint256[] memory _ethValues = new uint256[](c);\n        uint256[] memory _balances = new uint256[](c);\n        uint256[] memory _ids = new uint256[](c);\n        OrderState[] memory _states = new OrderState[](c);\n        c = 0;\n        for (uint8 j = 0; j < sellOrderCount; j++) {\n            if (sellOrders[j].orderOwner == _address) {\n                if (sellOrders[j].artworkAddress == _artworkAddress) {\n                    _orderOwners[c] = sellOrders[j].orderOwner;\n                    _shareValues[c] = sellOrders[j].shareValue;\n                    _ethValues[c] = sellOrders[j].ethValue;\n                    _balances[c] = sellOrders[j].balance;\n                    _states[c] = sellOrders[j].state;\n                    _ids[c] = j;\n                    c++;\n                }\n            }\n        }\n        return (\n            _orderOwners,\n            _shareValues,\n            _ethValues,\n            _balances,\n            _states,\n            _ids\n        );\n    }\n\n    function placeBuyOrder(\n        address _artworkAddress,\n        uint256 shareValue,\n        uint256 ethValue\n    ) public payable returns (uint256) {\n        require(shareValue > 0, \"share value can not be 0\");\n        require(ethValue > 0, \"share value can not be 0\");\n\n        require((msg.value / shareValue) == ethValue, \"can not make order\");\n        buyOrders[buyOrderCount] = buyOrder(\n            _artworkAddress,\n            msg.sender,\n            shareValue,\n            ethValue,\n            msg.value,\n            OrderState.OPEN\n        );\n\n        fillBuyOrder(buyOrderCount);\n        buyOrderCount += 1;\n        return buyOrderCount - 1;\n    }\n\n    function placeSellOrder(\n        address _artworkAddress,\n        uint256 shareValue,\n        uint256 ethValue\n    ) public returns (uint256) {\n        require(shareValue > 0, \"share value can not be 0\");\n        require(ethValue > 0, \"share value can not be 0\");\n        //IERC20(_artworkAddress).allowance(msg.sender, address(this));\n        IERC20(_artworkAddress).transferFrom(\n            msg.sender,\n            address(this),\n            shareValue\n        );\n        sellOrders[sellOrderCount] = sellOrder(\n            _artworkAddress,\n            msg.sender,\n            shareValue,\n            ethValue,\n            shareValue,\n            OrderState.OPEN\n        );\n\n        fillSellOrder(sellOrderCount);\n        sellOrderCount += 1;\n        return sellOrderCount - 1; // IERC20(_artworkAddress).balanceOf(msg.sender); //\n    }\n\n    function cancelBuyOrder(uint256 id) public {\n        require(\n            buyOrders[id].orderOwner == msg.sender,\n            \"msg.sender is not order owner\"\n        );\n        require(buyOrders[id].state == OrderState.OPEN, \"order is not open\");\n\n        address payable payee = payable(msg.sender);\n        payee.transfer(buyOrders[id].balance);\n        buyOrders[id].balance = 0;\n        buyOrders[id].state = OrderState.CANCELLED;\n    }\n\n    function cancelSellOrder(uint256 id) public {\n        require(\n            sellOrders[id].orderOwner == msg.sender,\n            \"msg.sender is not order owner\"\n        );\n        require(sellOrders[id].state == OrderState.OPEN, \"order is not open\");\n\n        sellOrders[id].state = OrderState.CANCELLED;\n        IERC20(sellOrders[id].artworkAddress).transfer(\n            sellOrders[id].orderOwner,\n            sellOrders[id].balance\n        );\n        sellOrders[id].balance = 0;\n    }\n\n    function getHeldShares(address _artworkAddress)\n        public\n        view\n        returns (uint256)\n    {\n        uint256 heldShares = 0;\n        for (uint8 j = 0; j < sellOrderCount; j++) {\n            if (sellOrders[j].artworkAddress == _artworkAddress) {\n                heldShares += sellOrders[j].balance;\n            }\n        }\n        return heldShares;\n    }\n\n    function getHeldETH(address _artworkAddress) public view returns (uint256) {\n        uint256 heldETH = 0;\n        for (uint8 j = 0; j < buyOrderCount; j++) {\n            if (buyOrders[j].artworkAddress == _artworkAddress) {\n                heldETH += buyOrders[j].balance;\n            }\n        }\n        return heldETH;\n    }\n\n    function fillBuyOrder(uint256 bc) private {\n        for (uint8 j = 0; j < sellOrderCount; j++) {\n            if (sellOrders[j].state == OrderState.OPEN) {\n                if (buyOrders[bc].state == OrderState.OPEN) {\n                    if (\n                        sellOrders[j].artworkAddress ==\n                        buyOrders[bc].artworkAddress\n                    ) {\n                        if (sellOrders[j].ethValue == buyOrders[bc].ethValue) {\n                            address payable seller = payable(\n                                sellOrders[j].orderOwner\n                            );\n                            uint256 transferAmount = 0;\n                            if (\n                                sellOrders[j].balance >=\n                                buyOrders[bc].shareValue\n                            ) {\n                                sellOrders[j].balance =\n                                    sellOrders[j].balance -\n                                    buyOrders[bc].shareValue;\n\n                                transferAmount = buyOrders[bc].shareValue;\n\n                                buyOrders[bc].balance = 0;\n                                buyOrders[bc].shareValue = 0;\n\n                                buyOrders[bc].state = OrderState.CLOSED;\n\n                                if (sellOrders[j].balance == 0) {\n                                    sellOrders[j].state = OrderState.CLOSED;\n                                }\n                            } else {\n                                buyOrders[bc].balance =\n                                    buyOrders[bc].balance -\n                                    (sellOrders[j].ethValue *\n                                        sellOrders[j].balance);\n\n                                buyOrders[bc].shareValue =\n                                    buyOrders[bc].shareValue -\n                                    sellOrders[j].balance;\n\n                                transferAmount = sellOrders[j].balance;\n\n                                sellOrders[j].balance = 0;\n                                sellOrders[j].state = OrderState.CLOSED;\n                                if (buyOrders[bc].balance == 0) {\n                                    buyOrders[bc].state = OrderState.CLOSED;\n                                }\n                            }\n                            seller.transfer(\n                                buyOrders[bc].ethValue * transferAmount\n                            );\n\n                            IERC20(buyOrders[bc].artworkAddress).transfer(\n                                buyOrders[bc].orderOwner,\n                                transferAmount\n                            );\n                            orderTransaction(\n                                buyOrders[bc].artworkAddress,\n                                buyOrders[bc].ethValue * transferAmount,\n                                transferAmount,\n                                bc,\n                                j,\n                                buyOrders[bc].orderOwner,\n                                sellOrders[j].orderOwner\n                            );\n                        }\n                    }\n                }\n            }\n        }\n    }\n\n    function fillSellOrder(uint256 sc) private {\n        for (uint8 j = 0; j < buyOrderCount; j++) {\n            if (sellOrders[sc].state == OrderState.OPEN) {\n                if (buyOrders[j].state == OrderState.OPEN) {\n                    if (\n                        sellOrders[sc].artworkAddress ==\n                        buyOrders[j].artworkAddress\n                    ) {\n                        if (sellOrders[sc].ethValue == buyOrders[j].ethValue) {\n                            address payable seller = payable(\n                                sellOrders[sc].orderOwner\n                            );\n                            uint256 transferAmount = 0;\n                            if (\n                                sellOrders[sc].balance >=\n                                buyOrders[j].shareValue\n                            ) {\n                                sellOrders[sc].balance =\n                                    sellOrders[sc].balance -\n                                    buyOrders[j].shareValue;\n\n                                transferAmount = buyOrders[j].shareValue;\n\n                                buyOrders[j].balance = 0;\n                                buyOrders[j].shareValue = 0;\n\n                                buyOrders[j].state = OrderState.CLOSED;\n\n                                if (sellOrders[sc].balance == 0) {\n                                    sellOrders[sc].state = OrderState.CLOSED;\n                                }\n                            } else {\n                                buyOrders[j].balance =\n                                    buyOrders[j].balance -\n                                    (sellOrders[sc].ethValue *\n                                        sellOrders[sc].balance);\n\n                                transferAmount = sellOrders[sc].balance;\n                                buyOrders[j].shareValue =\n                                    buyOrders[j].shareValue -\n                                    sellOrders[sc].balance;\n\n                                sellOrders[sc].balance = 0;\n                                sellOrders[sc].state = OrderState.CLOSED;\n                                if (buyOrders[j].balance == 0) {\n                                    buyOrders[j].state = OrderState.CLOSED;\n                                }\n                            }\n\n                            seller.transfer(\n                                buyOrders[j].ethValue * transferAmount\n                            );\n                            IERC20(buyOrders[j].artworkAddress).transfer(\n                                buyOrders[j].orderOwner,\n                                transferAmount\n                            );\n                            orderTransaction(\n                                buyOrders[j].artworkAddress,\n                                buyOrders[j].ethValue * transferAmount,\n                                transferAmount,\n                                j,\n                                sc,\n                                buyOrders[j].orderOwner,\n                                sellOrders[sc].orderOwner\n                            );\n                        }\n                    }\n                }\n            }\n        }\n    }\n\n    function orderTransaction(\n        address artwork,\n        uint256 eth,\n        uint256 share,\n        uint256 buyId,\n        uint256 sellId,\n        address buyer,\n        address seller\n    ) internal {\n        transactions[transactionCount].artwork = artwork;\n        transactions[transactionCount].eth = eth;\n        transactions[transactionCount].share = share;\n        transactions[transactionCount].buyId = buyId;\n        transactions[transactionCount].sellId = sellId;\n        transactions[transactionCount].buyer = buyer;\n        transactions[transactionCount].seller = seller;\n        transactionCount++;\n    }\n\n    function getTransactions(address _artworkAddress)\n        public\n        view\n        returns (\n            uint256[] memory,\n            uint256[] memory,\n            uint256[] memory,\n            uint256[] memory,\n            address[] memory,\n            address[] memory\n        )\n    {\n        uint256 c = 0;\n        for (uint8 j = 0; j < transactionCount; j++) {\n            if (transactions[j].artwork == _artworkAddress) {\n                c++;\n            }\n        }\n        address[] memory artwork = new address[](c);\n        uint256[] memory eth = new uint256[](c);\n        uint256[] memory share = new uint256[](c);\n        uint256[] memory buyId = new uint256[](c);\n        uint256[] memory sellId = new uint256[](c);\n        address[] memory buyer = new address[](c);\n        address[] memory seller = new address[](c);\n        c = 0;\n        for (uint8 j = 0; j < transactionCount; j++) {\n            if (transactions[j].artwork == _artworkAddress) {\n                artwork[c] = transactions[j].artwork;\n                eth[c] = transactions[j].eth;\n                share[c] = transactions[j].share;\n                buyId[c] = transactions[j].buyId;\n                sellId[c] = transactions[j].sellId;\n                buyer[c] = transactions[j].buyer;\n                seller[c] = transactions[j].seller;\n                c++;\n            }\n        }\n        return (eth, share, buyId, sellId, buyer, seller);\n    }\n}\n","sourcePath":"contracts/SolidStateGallery.sol","type":"contract","deployment":{"address":"0xb9bA33fDf20fEf37202b8C28917c2A045B88110F","chainid":"42","blockHeight":31113449}}