{"abi":[{"inputs":[{"internalType":"uint256","name":"_initialSupply","type":"uint256"},{"internalType":"uint256","name":"_salePrice","type":"uint256"},{"internalType":"string","name":"_name","type":"string"},{"internalType":"string","name":"_tokenSymbol","type":"string"},{"internalType":"address","name":"_priceFeed","type":"address"}],"stateMutability":"nonpayable","type":"constructor","name":"constructor"},{"anonymous":false,"inputs":[{"indexed":true,"internalType":"address","name":"owner","type":"address"},{"indexed":true,"internalType":"address","name":"spender","type":"address"},{"indexed":false,"internalType":"uint256","name":"value","type":"uint256"}],"name":"Approval","type":"event"},{"anonymous":false,"inputs":[{"indexed":true,"internalType":"address","name":"from","type":"address"},{"indexed":true,"internalType":"address","name":"to","type":"address"},{"indexed":false,"internalType":"uint256","name":"value","type":"uint256"}],"name":"Transfer","type":"event"},{"inputs":[{"internalType":"string","name":"_title","type":"string"},{"internalType":"string","name":"_meta","type":"string"}],"name":"addProvinance","outputs":[],"stateMutability":"nonpayable","type":"function"},{"inputs":[{"internalType":"address","name":"owner","type":"address"},{"internalType":"address","name":"spender","type":"address"}],"name":"allowance","outputs":[{"internalType":"uint256","name":"","type":"uint256"}],"stateMutability":"view","type":"function"},{"inputs":[{"internalType":"address","name":"spender","type":"address"},{"internalType":"uint256","name":"amount","type":"uint256"}],"name":"approve","outputs":[{"internalType":"bool","name":"","type":"bool"}],"stateMutability":"nonpayable","type":"function"},{"inputs":[],"name":"artworkmeta","outputs":[{"internalType":"string","name":"title","type":"string"},{"internalType":"string","name":"artist","type":"string"},{"internalType":"string","name":"medium","type":"string"},{"internalType":"uint256","name":"year","type":"uint256"},{"internalType":"string","name":"dimensions","type":"string"},{"internalType":"string","name":"mediaDataPackURI","type":"string"}],"stateMutability":"view","type":"function"},{"inputs":[{"internalType":"address","name":"account","type":"address"}],"name":"balanceOf","outputs":[{"internalType":"uint256","name":"","type":"uint256"}],"stateMutability":"view","type":"function"},{"inputs":[],"name":"balanceOfHeldShares","outputs":[{"internalType":"uint256","name":"","type":"uint256"}],"stateMutability":"view","type":"function"},{"inputs":[{"internalType":"uint256","name":"id","type":"uint256"}],"name":"cancelBuyOrder","outputs":[],"stateMutability":"nonpayable","type":"function"},{"inputs":[{"internalType":"uint256","name":"id","type":"uint256"}],"name":"cancelSellOrder","outputs":[],"stateMutability":"nonpayable","type":"function"},{"inputs":[{"internalType":"address","name":"_address","type":"address"},{"internalType":"uint256","name":"_value","type":"uint256"}],"name":"contractReleaseTokens","outputs":[],"stateMutability":"nonpayable","type":"function"},{"inputs":[],"name":"contractSalePrice","outputs":[{"internalType":"uint256","name":"","type":"uint256"}],"stateMutability":"view","type":"function"},{"inputs":[],"name":"contractTokenBalance","outputs":[{"internalType":"uint256","name":"","type":"uint256"}],"stateMutability":"view","type":"function"},{"inputs":[],"name":"decimals","outputs":[{"internalType":"uint8","name":"","type":"uint8"}],"stateMutability":"view","type":"function"},{"inputs":[{"internalType":"address","name":"spender","type":"address"},{"internalType":"uint256","name":"subtractedValue","type":"uint256"}],"name":"decreaseAllowance","outputs":[{"internalType":"bool","name":"","type":"bool"}],"stateMutability":"nonpayable","type":"function"},{"inputs":[],"name":"forSale","outputs":[{"internalType":"bool","name":"","type":"bool"}],"stateMutability":"view","type":"function"},{"inputs":[],"name":"getAllBuyOrders","outputs":[{"internalType":"uint256[]","name":"","type":"uint256[]"},{"internalType":"uint256[]","name":"","type":"uint256[]"},{"internalType":"uint256[]","name":"","type":"uint256[]"},{"internalType":"uint256[]","name":"","type":"uint256[]"}],"stateMutability":"view","type":"function"},{"inputs":[],"name":"getAllSellOrders","outputs":[{"internalType":"uint256[]","name":"","type":"uint256[]"},{"internalType":"uint256[]","name":"","type":"uint256[]"},{"internalType":"uint256[]","name":"","type":"uint256[]"},{"internalType":"uint256[]","name":"","type":"uint256[]"}],"stateMutability":"view","type":"function"},{"inputs":[{"internalType":"address","name":"_address","type":"address"}],"name":"getBuyOrdersByAddress","outputs":[{"internalType":"address[]","name":"","type":"address[]"},{"internalType":"uint256[]","name":"","type":"uint256[]"},{"internalType":"uint256[]","name":"","type":"uint256[]"},{"internalType":"uint256[]","name":"","type":"uint256[]"},{"internalType":"enum SolidStateToken.OrderState[]","name":"","type":"uint8[]"},{"internalType":"uint256[]","name":"","type":"uint256[]"}],"stateMutability":"view","type":"function"},{"inputs":[],"name":"getContractPriceInETH","outputs":[{"internalType":"uint256","name":"","type":"uint256"}],"stateMutability":"nonpayable","type":"function"},{"inputs":[],"name":"getContractPricePriceFeedCurrency","outputs":[{"internalType":"uint256","name":"","type":"uint256"}],"stateMutability":"nonpayable","type":"function"},{"inputs":[],"name":"getContractSalePrice","outputs":[{"internalType":"uint256","name":"","type":"uint256"}],"stateMutability":"view","type":"function"},{"inputs":[],"name":"getHeldETH","outputs":[{"internalType":"uint256","name":"","type":"uint256"}],"stateMutability":"view","type":"function"},{"inputs":[],"name":"getHeldShares","outputs":[{"internalType":"uint256","name":"","type":"uint256"}],"stateMutability":"view","type":"function"},{"inputs":[],"name":"getMetaData","outputs":[{"components":[{"internalType":"string","name":"title","type":"string"},{"internalType":"string","name":"artist","type":"string"},{"internalType":"string","name":"medium","type":"string"},{"internalType":"uint256","name":"year","type":"uint256"},{"internalType":"string","name":"dimensions","type":"string"},{"internalType":"string","name":"mediaDataPackURI","type":"string"}],"internalType":"struct SolidStateToken.artworkMeta","name":"","type":"tuple"}],"stateMutability":"view","type":"function"},{"inputs":[],"name":"getOwners","outputs":[{"internalType":"address[]","name":"","type":"address[]"}],"stateMutability":"view","type":"function"},{"inputs":[],"name":"getPriceFeed","outputs":[{"internalType":"address","name":"","type":"address"}],"stateMutability":"view","type":"function"},{"inputs":[],"name":"getPriceFeedCurrencyETHValue","outputs":[{"internalType":"uint256","name":"","type":"uint256"},{"internalType":"uint256","name":"","type":"uint256"}],"stateMutability":"nonpayable","type":"function"},{"inputs":[{"internalType":"uint256","name":"_index","type":"uint256"}],"name":"getProvinanceByIndex","outputs":[{"internalType":"string","name":"","type":"string"},{"internalType":"string","name":"","type":"string"}],"stateMutability":"view","type":"function"},{"inputs":[],"name":"getProvinanceCount","outputs":[{"internalType":"uint256","name":"","type":"uint256"}],"stateMutability":"view","type":"function"},{"inputs":[{"internalType":"address","name":"_address","type":"address"}],"name":"getSellOrdersByAddress","outputs":[{"internalType":"address[]","name":"","type":"address[]"},{"internalType":"uint256[]","name":"","type":"uint256[]"},{"internalType":"uint256[]","name":"","type":"uint256[]"},{"internalType":"uint256[]","name":"","type":"uint256[]"},{"internalType":"enum SolidStateToken.OrderState[]","name":"","type":"uint8[]"},{"internalType":"uint256[]","name":"","type":"uint256[]"}],"stateMutability":"view","type":"function"},{"inputs":[],"name":"getTransactions","outputs":[{"internalType":"uint256[]","name":"","type":"uint256[]"},{"internalType":"uint256[]","name":"","type":"uint256[]"},{"internalType":"uint256[]","name":"","type":"uint256[]"},{"internalType":"address[]","name":"","type":"address[]"},{"internalType":"address[]","name":"","type":"address[]"}],"stateMutability":"view","type":"function"},{"inputs":[{"internalType":"address","name":"spender","type":"address"},{"internalType":"uint256","name":"addedValue","type":"uint256"}],"name":"increaseAllowance","outputs":[{"internalType":"bool","name":"","type":"bool"}],"stateMutability":"nonpayable","type":"function"},{"inputs":[],"name":"initialSupply","outputs":[{"internalType":"uint256","name":"","type":"uint256"}],"stateMutability":"view","type":"function"},{"inputs":[],"name":"isForSale","outputs":[{"internalType":"bool","name":"","type":"bool"}],"stateMutability":"view","type":"function"},{"inputs":[],"name":"makeOfferToBuyContract","outputs":[],"stateMutability":"payable","type":"function"},{"inputs":[],"name":"mintTokens","outputs":[],"stateMutability":"nonpayable","type":"function"},{"inputs":[],"name":"name","outputs":[{"internalType":"string","name":"","type":"string"}],"stateMutability":"view","type":"function"},{"inputs":[],"name":"offerState","outputs":[{"internalType":"enum SolidStateToken.OfferState","name":"","type":"uint8"}],"stateMutability":"view","type":"function"},{"inputs":[{"internalType":"uint256","name":"shareValue","type":"uint256"},{"internalType":"uint256","name":"ethValue","type":"uint256"}],"name":"placeBuyOrder","outputs":[{"internalType":"uint256","name":"","type":"uint256"}],"stateMutability":"payable","type":"function"},{"inputs":[{"internalType":"uint256","name":"shareValue","type":"uint256"},{"internalType":"uint256","name":"ethValue","type":"uint256"}],"name":"placeSellOrder","outputs":[{"internalType":"uint256","name":"","type":"uint256"}],"stateMutability":"nonpayable","type":"function"},{"inputs":[],"name":"priceFeed","outputs":[{"internalType":"contract AggregatorV3Interface","name":"","type":"address"}],"stateMutability":"view","type":"function"},{"inputs":[{"internalType":"uint256","name":"","type":"uint256"}],"name":"provinance","outputs":[{"internalType":"string","name":"title","type":"string"},{"internalType":"string","name":"URI","type":"string"}],"stateMutability":"view","type":"function"},{"inputs":[],"name":"setForSaleOff","outputs":[],"stateMutability":"nonpayable","type":"function"},{"inputs":[],"name":"setForSaleOn","outputs":[],"stateMutability":"nonpayable","type":"function"},{"inputs":[{"internalType":"string","name":"_title","type":"string"},{"internalType":"string","name":"_artist","type":"string"},{"internalType":"string","name":"_medium","type":"string"},{"internalType":"string","name":"_dimensions","type":"string"},{"internalType":"uint256","name":"_year","type":"uint256"},{"internalType":"string","name":"_mediaDataPackURI","type":"string"}],"name":"setMetaData","outputs":[],"stateMutability":"nonpayable","type":"function"},{"inputs":[{"internalType":"address","name":"_priceFeed","type":"address"}],"name":"setPriceFeed","outputs":[],"stateMutability":"nonpayable","type":"function"},{"inputs":[],"name":"symbol","outputs":[{"internalType":"string","name":"","type":"string"}],"stateMutability":"view","type":"function"},{"inputs":[],"name":"totalSupply","outputs":[{"internalType":"uint256","name":"","type":"uint256"}],"stateMutability":"view","type":"function"},{"inputs":[{"internalType":"address","name":"recipient","type":"address"},{"internalType":"uint256","name":"amount","type":"uint256"}],"name":"transfer","outputs":[{"internalType":"bool","name":"","type":"bool"}],"stateMutability":"nonpayable","type":"function"},{"inputs":[{"internalType":"address","name":"sender","type":"address"},{"internalType":"address","name":"recipient","type":"address"},{"internalType":"uint256","name":"amount","type":"uint256"}],"name":"transferFrom","outputs":[{"internalType":"bool","name":"","type":"bool"}],"stateMutability":"nonpayable","type":"function"},{"inputs":[{"internalType":"uint256","name":"_salePrice","type":"uint256"}],"name":"updateContractSalePrice","outputs":[],"stateMutability":"nonpayable","type":"function"},{"inputs":[{"internalType":"uint256","name":"_percent","type":"uint256"}],"name":"updateOfferDecreaseLimit","outputs":[],"stateMutability":"nonpayable","type":"function"},{"inputs":[],"name":"viewOfferDecreaseLimit","outputs":[{"internalType":"uint256","name":"","type":"uint256"}],"stateMutability":"view","type":"function"}],"bytecode":"60806040526000600c819055600f805460ff1916905560056011556012805460ff60a01b1916905560158190556018819055601b819055601c553480156200004657600080fd5b5060405162004eef38038062004eef833981016040819052620000699162000285565b8251839083906200008290600390602085019062000112565b5080516200009890600490602084019062000112565b505050600d949094555050600e5560168054600160ff199091168117909155601280546001600160a01b039093166001600160a01b03199384161790556014805491820181556000527fce6d7b5282bd9a3661ae061feed1dbda4e52ab073b1f9285be6e155d9c38d4ec0180549091163317905562000364565b828054620001209062000327565b90600052602060002090601f0160209004810192826200014457600085556200018f565b82601f106200015f57805160ff19168380011785556200018f565b828001600101855582156200018f579182015b828111156200018f57825182559160200191906001019062000172565b506200019d929150620001a1565b5090565b5b808211156200019d5760008155600101620001a2565b634e487b7160e01b600052604160045260246000fd5b600082601f830112620001e057600080fd5b81516001600160401b0380821115620001fd57620001fd620001b8565b604051601f8301601f19908116603f01168101908282118183101715620002285762000228620001b8565b816040528381526020925086838588010111156200024557600080fd5b600091505b838210156200026957858201830151818301840152908201906200024a565b838211156200027b5760008385830101525b9695505050505050565b600080600080600060a086880312156200029e57600080fd5b85516020870151604088015191965094506001600160401b0380821115620002c557600080fd5b620002d389838a01620001ce565b94506060880151915080821115620002ea57600080fd5b50620002f988828901620001ce565b608088015190935090506001600160a01b03811681146200031957600080fd5b809150509295509295909350565b600181811c908216806200033c57607f821691505b602082108114156200035e57634e487b7160e01b600052602260045260246000fd5b50919050565b614b7b80620003746000396000f3fe6080604052600436106102ff5760003560e01c8063741bef1a11610190578063ae35f550116100dc578063d2786ba411610095578063eddc83921161006f578063eddc8392146108bd578063ee36d4ab146108e4578063eeb9635c146108f7578063f02665d71461090c57600080fd5b8063d2786ba414610840578063d6eec79014610862578063dd62ed3e1461087757600080fd5b8063ae35f5501461077d578063b30357801461079d578063bb71856d146107b2578063be5d147f146107e0578063c4b6725314610800578063ccdf3f521461082057600080fd5b80639e87a5cd11610149578063a4406bcd11610123578063a4406bcd146106fd578063a457c2d71461071d578063a65d9e561461073d578063a9059cbb1461075d57600080fd5b80639e87a5cd146106b15780639e9aed62146106c6578063a0e67e2b146106db57600080fd5b8063741bef1a146105d75780637c50b9901461060f57806383920e9014610624578063861eec661461064a57806395d89b411461067c57806399a78b791461069157600080fd5b8063377c6f7c1161024f57806355548de41161020857806364227170116101e2578063642271701461054557806370a082311461056c578063724e78da146105a2578063730412e8146105c257600080fd5b806355548de4146105105780635c5bbf62146105305780635dc3bae1146103db57600080fd5b8063377c6f7c1461046f578063378dc3dc14610484578063395093511461049a578063466ccac0146104ba5780634cd0e75d146104db578063527821e2146104fb57600080fd5b806320b08dc2116102bc57806328dcbce81161029657806328dcbce8146104105780632e98613e146104265780632eba8abd1461044b578063313ce5671461045357600080fd5b806320b08dc2146103c657806322bb164f146103db57806323b872dd146103f057600080fd5b8063047f65601461030457806306fdde0314610328578063095ea7b31461034a5780630eae85731461037a57806318160ddd1461038f5780631a46e42a146103a4575b600080fd5b34801561031057600080fd5b506011545b6040519081526020015b60405180910390f35b34801561033457600080fd5b5061033d610936565b60405161031f91906141b9565b34801561035657600080fd5b5061036a6103653660046141e8565b6109c8565b604051901515815260200161031f565b34801561038657600080fd5b506103156109df565b34801561039b57600080fd5b50600254610315565b3480156103b057600080fd5b506103c46103bf366004614212565b610a2b565b005b3480156103d257600080fd5b5061036a610bab565b3480156103e757600080fd5b50610315610bd7565b3480156103fc57600080fd5b5061036a61040b36600461422b565b610c27565b34801561041c57600080fd5b50610315600e5481565b34801561043257600080fd5b5061043b610cd1565b60405161031f94939291906142a2565b6103c4610fa8565b34801561045f57600080fd5b506040516000815260200161031f565b34801561047b57600080fd5b506103c4611122565b34801561049057600080fd5b50610315600d5481565b3480156104a657600080fd5b5061036a6104b53660046141e8565b61116e565b3480156104c657600080fd5b5060125461036a90600160a01b900460ff1681565b3480156104e757600080fd5b506103c46104f63660046141e8565b6111aa565b34801561050757600080fd5b506103156112f7565b34801561051c57600080fd5b506103c461052b36600461439c565b61133d565b34801561053c57600080fd5b50600c54610315565b34801561055157600080fd5b5060165461055f9060ff1681565b60405161031f9190614415565b34801561057857600080fd5b5061031561058736600461442f565b6001600160a01b031660009081526020819052604090205490565b3480156105ae57600080fd5b506103c46105bd36600461442f565b6113cc565b3480156105ce57600080fd5b5061043b611423565b3480156105e357600080fd5b506013546105f7906001600160a01b031681565b6040516001600160a01b03909116815260200161031f565b34801561061b57600080fd5b506103c46116ea565b34801561063057600080fd5b50610639611732565b60405161031f959493929190614483565b34801561065657600080fd5b5061066a61066536600461442f565b611a52565b60405161031f969594939291906144f0565b34801561068857600080fd5b5061033d611e91565b34801561069d57600080fd5b506103c46106ac3660046145a6565b611ea0565b3480156106bd57600080fd5b506105f7611f75565b3480156106d257600080fd5b50610315611fbc565b3480156106e757600080fd5b506106f0612023565b60405161031f919061467f565b34801561070957600080fd5b50610315610718366004614692565b612084565b34801561072957600080fd5b5061036a6107383660046141e8565b612210565b34801561074957600080fd5b506103c4610758366004614212565b6122a9565b34801561076957600080fd5b5061036a6107783660046141e8565b6122e3565b34801561078957600080fd5b5061066a61079836600461442f565b6122f0565b3480156107a957600080fd5b50600e54610315565b3480156107be57600080fd5b506107d26107cd366004614212565b612718565b60405161031f9291906146b4565b3480156107ec57600080fd5b506103c46107fb366004614212565b612852565b34801561080c57600080fd5b506103c461081b366004614212565b612986565b34801561082c57600080fd5b506107d261083b366004614212565b6129c0565b34801561084c57600080fd5b50610855612aec565b60405161031f91906146e2565b34801561086e57600080fd5b50610315612e1b565b34801561088357600080fd5b5061031561089236600461477e565b6001600160a01b03918216600090815260016020908152604080832093909416825291909152205490565b3480156108c957600080fd5b506108d2612e89565b60405161031f969594939291906147b1565b6103156108f2366004614692565b613159565b34801561090357600080fd5b506103c46132bc565b34801561091857600080fd5b506109216133aa565b6040805192835260208301919091520161031f565b60606003805461094590614825565b80601f016020809104026020016040519081016040528092919081815260200182805461097190614825565b80156109be5780601f10610993576101008083540402835291602001916109be565b820191906000526020600020905b8154815290600101906020018083116109a157829003601f168201915b5050505050905090565b60006109d53384846134bf565b5060015b92915050565b600080805b601b548160ff161015610a255760ff8116600090815260196020526040902060030154610a119083614870565b915080610a1d81614888565b9150506109e4565b50919050565b6000818152601a60205260409020546001600160a01b03163314610a965760405162461bcd60e51b815260206004820152601d60248201527f6d73672e73656e646572206973206e6f74206f72646572206f776e657200000060448201526064015b60405180910390fd5b6000818152601a602052604081206004015460ff166002811115610abc57610abc6143ff565b14610afd5760405162461bcd60e51b815260206004820152601160248201527037b93232b91034b9903737ba1037b832b760791b6044820152606401610a8d565b6000818152601a6020526040908190206004808201805460ff191660021790558154600390920154925163a9059cbb60e01b81526001600160a01b03909216908201526024810191909152309063a9059cbb906044016020604051808303816000875af1158015610b72573d6000803e3d6000fd5b505050506040513d601f19601f82011682018060405250810190610b9691906148a8565b506000908152601a6020526040812060030155565b60008060165460ff166003811115610bc557610bc56143ff565b1415610bd15750600190565b50600090565b6000806000610be46133aa565b9092509050610bf481600a6149ae565b610bfe90836149ba565b610c0982600a6149ae565b600e54610c1691906149dc565b610c2091906149ba565b9250505090565b6000610c348484846135e3565b6001600160a01b038416600090815260016020908152604080832033845290915290205482811015610cb95760405162461bcd60e51b815260206004820152602860248201527f45524332303a207472616e7366657220616d6f756e74206578636565647320616044820152676c6c6f77616e636560c01b6064820152608401610a8d565b610cc685338584036134bf565b506001949350505050565b6060806060806000805b601b548160ff161015610d3957600060ff808316600090815260196020526040902060040154166002811115610d1357610d136143ff565b1415610d2757610d246001836149fb565b91505b80610d3181614888565b915050610cdb565b5060008160ff166001600160401b03811115610d5757610d576142fa565b604051908082528060200260200182016040528015610d80578160200160208202803683370190505b50905060008260ff166001600160401b03811115610da057610da06142fa565b604051908082528060200260200182016040528015610dc9578160200160208202803683370190505b50905060008360ff166001600160401b03811115610de957610de96142fa565b604051908082528060200260200182016040528015610e12578160200160208202803683370190505b50905060008460ff166001600160401b03811115610e3257610e326142fa565b604051908082528060200260200182016040528015610e5b578160200160208202803683370190505b5090506000945060005b601b548160ff161015610f9857600060ff808316600090815260196020526040902060040154166002811115610e9d57610e9d6143ff565b1415610f8657601960008260ff16815260200190815260200160002060010154858760ff1681518110610ed257610ed2614a20565b602002602001018181525050601960008260ff16815260200190815260200160002060020154848760ff1681518110610f0d57610f0d614a20565b602002602001018181525050601960008260ff16815260200190815260200160002060030154838760ff1681518110610f4857610f48614a20565b6020026020010181815250508060ff16828760ff1681518110610f6d57610f6d614a20565b602090810291909101015285610f8281614888565b9650505b80610f9081614888565b915050610e65565b5092989197509550909350915050565b600060165460ff166003811115610fc157610fc16143ff565b14610ffd5760405162461bcd60e51b815260206004820152600c60248201526b4e4f5420464f522053414c4560a01b6044820152606401610a8d565b6016805460ff19166002179055600e54341461104d5760405162461bcd60e51b815260206004820152600f60248201526e496e636f727265637420507269636560881b6044820152606401610a8d565b6016805460ff19166003179055600060146015548154811061107157611071614a20565b60009182526020822001546040516001600160a01b03909116925082913480156108fc02929091818181858888f193505050501580156110b5573d6000803e3d6000fd5b50601480546001818101835560009283527fce6d7b5282bd9a3661ae061feed1dbda4e52ab073b1f9285be6e155d9c38d4ec90910180546001600160a01b03191633179055601580549192909161110d908490614870565b90915550506016805460ff1916600117905550565b60146015548154811061113757611137614a20565b6000918252602090912001546001600160a01b0316331461115757600080fd5b601680546000919060ff19166001835b0217905550565b3360008181526001602090815260408083206001600160a01b038716845290915281205490916109d59185906111a5908690614870565b6134bf565b6014601554815481106111bf576111bf614a20565b6000918252602090912001546001600160a01b031633146111df57600080fd5b6040516370a0823160e01b8152306004820181905282916370a0823190602401602060405180830381865afa15801561121c573d6000803e3d6000fd5b505050506040513d601f19601f820116820180604052508101906112409190614a36565b116112815760405162461bcd60e51b81526020600482015260116024820152704e6f7420456e6f75676820546f6b656e7360781b6044820152606401610a8d565b60405163a9059cbb60e01b81526001600160a01b038316600482015260248101829052309063a9059cbb906044016020604051808303816000875af11580156112ce573d6000803e3d6000fd5b505050506040513d601f19601f820116820180604052508101906112f291906148a8565b505050565b600080805b601c548160ff161015610a255760ff81166000908152601a60205260409020600301546113299083614870565b91508061133581614888565b9150506112fc565b60146015548154811061135257611352614a20565b6000918252602090912001546001600160a01b0316331461137257600080fd5b600c546000908152600560209081526040909120835190916113989183918601906140d3565b5081516113ae90600183019060208501906140d3565b506001600c60008282546113c29190614870565b9091555050505050565b6014601554815481106113e1576113e1614a20565b6000918252602090912001546001600160a01b0316331461140157600080fd5b601280546001600160a01b0319166001600160a01b0392909216919091179055565b6060806060806000805b601c548160ff16101561148b57600060ff8083166000908152601a6020526040902060040154166002811115611465576114656143ff565b1415611479578161147581614888565b9250505b8061148381614888565b91505061142d565b5060008160ff166001600160401b038111156114a9576114a96142fa565b6040519080825280602002602001820160405280156114d2578160200160208202803683370190505b50905060008260ff166001600160401b038111156114f2576114f26142fa565b60405190808252806020026020018201604052801561151b578160200160208202803683370190505b50905060008360ff166001600160401b0381111561153b5761153b6142fa565b604051908082528060200260200182016040528015611564578160200160208202803683370190505b50905060008460ff166001600160401b03811115611584576115846142fa565b6040519080825280602002602001820160405280156115ad578160200160208202803683370190505b5090506000945060005b601c548160ff161015610f9857600060ff8083166000908152601a60205260409020600401541660028111156115ef576115ef6143ff565b14156116d857601a60008260ff16815260200190815260200160002060010154858760ff168151811061162457611624614a20565b602002602001018181525050601a60008260ff16815260200190815260200160002060020154848760ff168151811061165f5761165f614a20565b602002602001018181525050601a60008260ff16815260200190815260200160002060030154838760ff168151811061169a5761169a614a20565b6020026020010181815250508060ff16828760ff16815181106116bf576116bf614a20565b6020908102919091010152856116d481614888565b9650505b806116e281614888565b9150506115b7565b6014601554815481106116ff576116ff614a20565b6000918252602090912001546001600160a01b0316331461171f57600080fd5b601680546001919060ff19168280611167565b60608060608060606000805b6018548160ff16101561176b578161175581614a4f565b925050808061176390614888565b91505061173e565b506000816001600160401b03811115611786576117866142fa565b6040519080825280602002602001820160405280156117af578160200160208202803683370190505b5090506000826001600160401b038111156117cc576117cc6142fa565b6040519080825280602002602001820160405280156117f5578160200160208202803683370190505b5090506000836001600160401b03811115611812576118126142fa565b60405190808252806020026020018201604052801561183b578160200160208202803683370190505b5090506000846001600160401b03811115611858576118586142fa565b604051908082528060200260200182016040528015611881578160200160208202803683370190505b5090506000856001600160401b0381111561189e5761189e6142fa565b6040519080825280602002602001820160405280156118c7578160200160208202803683370190505b5090506000955060005b6018548160ff161015611a3f5760ff8116600090815260176020526040902054865187908990811061190557611905614a20565b602002602001018181525050601760008260ff1681526020019081526020016000206001015485888151811061193d5761193d614a20565b602002602001018181525050601760008260ff1681526020019081526020016000206006015484888151811061197557611975614a20565b602002602001018181525050601760008260ff16815260200190815260200160002060040160009054906101000a90046001600160a01b03168388815181106119c0576119c0614a20565b6001600160a01b0392831660209182029290920181019190915260ff83166000908152601790915260409020600501548351911690839089908110611a0757611a07614a20565b6001600160a01b039092166020928302919091019091015286611a2981614a4f565b9750508080611a3790614888565b9150506118d1565b50939a9299509097509550909350915050565b6060806060806060806000805b601b548160ff161015611ab25760ff81166000908152601960205260409020546001600160a01b038a811691161415611aa05781611a9c81614888565b9250505b80611aaa81614888565b915050611a5f565b5060008160ff166001600160401b03811115611ad057611ad06142fa565b604051908082528060200260200182016040528015611af9578160200160208202803683370190505b50905060008260ff166001600160401b03811115611b1957611b196142fa565b604051908082528060200260200182016040528015611b42578160200160208202803683370190505b50905060008360ff166001600160401b03811115611b6257611b626142fa565b604051908082528060200260200182016040528015611b8b578160200160208202803683370190505b50905060008460ff166001600160401b03811115611bab57611bab6142fa565b604051908082528060200260200182016040528015611bd4578160200160208202803683370190505b50905060008560ff166001600160401b03811115611bf457611bf46142fa565b604051908082528060200260200182016040528015611c1d578160200160208202803683370190505b50905060008660ff166001600160401b03811115611c3d57611c3d6142fa565b604051908082528060200260200182016040528015611c66578160200160208202803683370190505b5090506000965060005b601b548160ff161015611e7a578e6001600160a01b0316601960008360ff16815260200190815260200160002060000160009054906101000a90046001600160a01b03166001600160a01b03161415611e685760ff80821660009081526019602052604090205488516001600160a01b03909116918991908b16908110611cf957611cf9614a20565b60200260200101906001600160a01b031690816001600160a01b031681525050601960008260ff16815260200190815260200160002060010154868960ff1681518110611d4857611d48614a20565b602002602001018181525050601960008260ff16815260200190815260200160002060020154858960ff1681518110611d8357611d83614a20565b602002602001018181525050601960008260ff16815260200190815260200160002060030154848960ff1681518110611dbe57611dbe614a20565b6020026020010181815250508060ff16838960ff1681518110611de357611de3614a20565b602002602001018181525050601960008260ff16815260200190815260200160002060040160009054906101000a900460ff16828960ff1681518110611e2b57611e2b614a20565b60200260200101906002811115611e4457611e446143ff565b90816002811115611e5757611e576143ff565b90525087611e6481614888565b9850505b80611e7281614888565b915050611c70565b50949d939c50919a50985091965090945092505050565b60606004805461094590614825565b601460155481548110611eb557611eb5614a20565b6000918252602090912001546001600160a01b03163314611ed557600080fd5b855115611ef1578551611eef9060069060208901906140d3565b505b845115611f0d578451611f0b9060079060208801906140d3565b505b835115611f29578351611f279060089060208701906140d3565b505b825115611f45578251611f4390600a9060208601906140d3565b505b8115611f515760098290555b805115611f6d578051611f6b90600b9060208401906140d3565b505b505050505050565b6000601460155481548110611f8c57611f8c614a20565b6000918252602090912001546001600160a01b03163314611fac57600080fd5b506012546001600160a01b031690565b6040516370a0823160e01b815230600482018190526000916370a0823190602401602060405180830381865afa158015611ffa573d6000803e3d6000fd5b505050506040513d601f19601f8201168201806040525081019061201e9190614a36565b905090565b606060148054806020026020016040519081016040528092919081815260200182805480156109be57602002820191906000526020600020905b81546001600160a01b0316815260019091019060200180831161205d575050505050905090565b60008083116120a55760405162461bcd60e51b8152600401610a8d90614a6a565b600082116120c55760405162461bcd60e51b8152600401610a8d90614a6a565b6040516323b872dd60e01b8152336004820152306024820181905260448201859052906323b872dd906064016020604051808303816000875af1158015612110573d6000803e3d6000fd5b505050506040513d601f19601f8201168201806040525081019061213491906148a8565b506040805160a081018252338152602080820186815282840186815260608401888152600060808601818152601c548252601a90955295909520845181546001600160a01b0319166001600160a01b0390911617815591516001808401919091559051600280840191909155945160038301559151600482018054949592949193909260ff199092169184908111156121cf576121cf6143ff565b02179055509050506121e2601c546137b2565b6001601c60008282546121f59190614870565b9091555050601c5461220990600190614aa1565b9392505050565b3360009081526001602090815260408083206001600160a01b0386168452909152812054828110156122925760405162461bcd60e51b815260206004820152602560248201527f45524332303a2064656372656173656420616c6c6f77616e63652062656c6f77604482015264207a65726f60d81b6064820152608401610a8d565b61229f33858584036134bf565b5060019392505050565b6014601554815481106122be576122be614a20565b6000918252602090912001546001600160a01b031633146122de57600080fd5b601155565b60006109d53384846135e3565b6060806060806060806000805b601c548160ff1610156123505760ff81166000908152601a60205260409020546001600160a01b038a81169116141561233e578161233a81614888565b9250505b8061234881614888565b9150506122fd565b5060008160ff166001600160401b0381111561236e5761236e6142fa565b604051908082528060200260200182016040528015612397578160200160208202803683370190505b50905060008260ff166001600160401b038111156123b7576123b76142fa565b6040519080825280602002602001820160405280156123e0578160200160208202803683370190505b50905060008360ff166001600160401b03811115612400576124006142fa565b604051908082528060200260200182016040528015612429578160200160208202803683370190505b50905060008460ff166001600160401b03811115612449576124496142fa565b604051908082528060200260200182016040528015612472578160200160208202803683370190505b50905060008560ff166001600160401b03811115612492576124926142fa565b6040519080825280602002602001820160405280156124bb578160200160208202803683370190505b50905060008660ff166001600160401b038111156124db576124db6142fa565b604051908082528060200260200182016040528015612504578160200160208202803683370190505b5090506000965060005b601c548160ff161015611e7a578e6001600160a01b0316601a60008360ff16815260200190815260200160002060000160009054906101000a90046001600160a01b03166001600160a01b031614156127065760ff8082166000908152601a602052604090205488516001600160a01b03909116918991908b1690811061259757612597614a20565b60200260200101906001600160a01b031690816001600160a01b031681525050601a60008260ff16815260200190815260200160002060010154868960ff16815181106125e6576125e6614a20565b602002602001018181525050601a60008260ff16815260200190815260200160002060020154858960ff168151811061262157612621614a20565b602002602001018181525050601a60008260ff16815260200190815260200160002060030154848960ff168151811061265c5761265c614a20565b602002602001018181525050601a60008260ff16815260200190815260200160002060040160009054906101000a900460ff16828960ff16815181106126a4576126a4614a20565b602002602001019060028111156126bd576126bd6143ff565b908160028111156126d0576126d06143ff565b815250508060ff16838960ff16815181106126ed576126ed614a20565b60209081029190910101528761270281614888565b9850505b8061271081614888565b91505061250e565b6000818152600560205260409020805460609182916001820190829061273d90614825565b80601f016020809104026020016040519081016040528092919081815260200182805461276990614825565b80156127b65780601f1061278b576101008083540402835291602001916127b6565b820191906000526020600020905b81548152906001019060200180831161279957829003601f168201915b505050505091508080546127c990614825565b80601f01602080910402602001604051908101604052809291908181526020018280546127f590614825565b80156128425780601f1061281757610100808354040283529160200191612842565b820191906000526020600020905b81548152906001019060200180831161282557829003601f168201915b5050505050905091509150915091565b6000818152601960205260409020546001600160a01b031633146128b85760405162461bcd60e51b815260206004820152601d60248201527f6d73672e73656e646572206973206e6f74206f72646572206f776e65720000006044820152606401610a8d565b60008181526019602052604081206004015460ff1660028111156128de576128de6143ff565b1461291f5760405162461bcd60e51b815260206004820152601160248201527037b93232b91034b9903737ba1037b832b760791b6044820152606401610a8d565b6000818152601960205260408082206003015490513392839280156108fc02929091818181858888f1935050505015801561295e573d6000803e3d6000fd5b505060009081526019602052604081206003810191909155600401805460ff19166002179055565b60146015548154811061299b5761299b614a20565b6000918252602090912001546001600160a01b031633146129bb57600080fd5b600e55565b6005602052600090815260409020805481906129db90614825565b80601f0160208091040260200160405190810160405280929190818152602001828054612a0790614825565b8015612a545780601f10612a2957610100808354040283529160200191612a54565b820191906000526020600020905b815481529060010190602001808311612a3757829003601f168201915b505050505090806001018054612a6990614825565b80601f0160208091040260200160405190810160405280929190818152602001828054612a9590614825565b8015612ae25780601f10612ab757610100808354040283529160200191612ae2565b820191906000526020600020905b815481529060010190602001808311612ac557829003601f168201915b5050505050905082565b612b256040518060c001604052806060815260200160608152602001606081526020016000815260200160608152602001606081525090565b60066040518060c0016040529081600082018054612b4290614825565b80601f0160208091040260200160405190810160405280929190818152602001828054612b6e90614825565b8015612bbb5780601f10612b9057610100808354040283529160200191612bbb565b820191906000526020600020905b815481529060010190602001808311612b9e57829003601f168201915b50505050508152602001600182018054612bd490614825565b80601f0160208091040260200160405190810160405280929190818152602001828054612c0090614825565b8015612c4d5780601f10612c2257610100808354040283529160200191612c4d565b820191906000526020600020905b815481529060010190602001808311612c3057829003601f168201915b50505050508152602001600282018054612c6690614825565b80601f0160208091040260200160405190810160405280929190818152602001828054612c9290614825565b8015612cdf5780601f10612cb457610100808354040283529160200191612cdf565b820191906000526020600020905b815481529060010190602001808311612cc257829003601f168201915b5050505050815260200160038201548152602001600482018054612d0290614825565b80601f0160208091040260200160405190810160405280929190818152602001828054612d2e90614825565b8015612d7b5780601f10612d5057610100808354040283529160200191612d7b565b820191906000526020600020905b815481529060010190602001808311612d5e57829003601f168201915b50505050508152602001600582018054612d9490614825565b80601f0160208091040260200160405190810160405280929190818152602001828054612dc090614825565b8015612e0d5780601f10612de257610100808354040283529160200191612e0d565b820191906000526020600020905b815481529060010190602001808311612df057829003601f168201915b505050505081525050905090565b6000806000806000612e2b611423565b93509350935093506000805b83518160ff161015612e7f57838160ff1681518110612e5857612e58614a20565b602002602001015182612e6b9190614870565b915080612e7781614888565b915050612e37565b5095945050505050565b600680548190612e9890614825565b80601f0160208091040260200160405190810160405280929190818152602001828054612ec490614825565b8015612f115780601f10612ee657610100808354040283529160200191612f11565b820191906000526020600020905b815481529060010190602001808311612ef457829003601f168201915b505050505090806001018054612f2690614825565b80601f0160208091040260200160405190810160405280929190818152602001828054612f5290614825565b8015612f9f5780601f10612f7457610100808354040283529160200191612f9f565b820191906000526020600020905b815481529060010190602001808311612f8257829003601f168201915b505050505090806002018054612fb490614825565b80601f0160208091040260200160405190810160405280929190818152602001828054612fe090614825565b801561302d5780601f106130025761010080835404028352916020019161302d565b820191906000526020600020905b81548152906001019060200180831161301057829003601f168201915b50505050509080600301549080600401805461304890614825565b80601f016020809104026020016040519081016040528092919081815260200182805461307490614825565b80156130c15780601f10613096576101008083540402835291602001916130c1565b820191906000526020600020905b8154815290600101906020018083116130a457829003601f168201915b5050505050908060050180546130d690614825565b80601f016020809104026020016040519081016040528092919081815260200182805461310290614825565b801561314f5780601f106131245761010080835404028352916020019161314f565b820191906000526020600020905b81548152906001019060200180831161313257829003601f168201915b5050505050905086565b600080831161317a5760405162461bcd60e51b8152600401610a8d90614a6a565b6000821161319a5760405162461bcd60e51b8152600401610a8d90614a6a565b816131a584346149ba565b146131e75760405162461bcd60e51b815260206004820152601260248201527131b0b7103737ba1036b0b5b29037b93232b960711b6044820152606401610a8d565b6040805160a08101825233815260208082018681528284018681523460608501908152600060808601818152601b548252601990955295909520845181546001600160a01b0319166001600160a01b0390911617815591516001808401919091559051600280840191909155945160038301559151600482018054949592949193909260ff19909216918490811115613282576132826143ff565b0217905550905050613295601b54613b87565b6001601b60008282546132a89190614870565b9091555050601b5461220990600190614aa1565b6014601554815481106132d1576132d1614a20565b6000918252602090912001546001600160a01b031633146132f157600080fd5b600f5460ff161561333d5760405162461bcd60e51b8152602060048201526016602482015275546f6b656e7320416c7265616479204d696e7465642160501b6044820152606401610a8d565b6000600c541161338f5760405162461bcd60e51b815260206004820152601b60248201527f50726f76696e616e6365206d75737420626520737570706c69656400000000006044820152606401610a8d565b61339b30600d54613f52565b600f805460ff19166001179055565b601254601380546001600160a01b0319166001600160a01b03909216918217905560408051633fabe5a360e21b815290516000928392839263feaf968c9160048082019260a0929091908290030181865afa15801561340d573d6000803e3d6000fd5b505050506040513d601f19601f820116820180604052508101906134319190614ad2565b5050509150506000601360009054906101000a90046001600160a01b03166001600160a01b031663313ce5676040518163ffffffff1660e01b8152600401602060405180830381865afa15801561348c573d6000803e3d6000fd5b505050506040513d601f19601f820116820180604052508101906134b09190614b22565b919460ff909216935090915050565b6001600160a01b0383166135215760405162461bcd60e51b8152602060048201526024808201527f45524332303a20617070726f76652066726f6d20746865207a65726f206164646044820152637265737360e01b6064820152608401610a8d565b6001600160a01b0382166135825760405162461bcd60e51b815260206004820152602260248201527f45524332303a20617070726f766520746f20746865207a65726f206164647265604482015261737360f01b6064820152608401610a8d565b6001600160a01b0383811660008181526001602090815260408083209487168084529482529182902085905590518481527f8c5be1e5ebec7d5bd14f71427d1e84f3dd0314c0f7b2291e5b200ac8c7c3b925910160405180910390a3505050565b6001600160a01b0383166136475760405162461bcd60e51b815260206004820152602560248201527f45524332303a207472616e736665722066726f6d20746865207a65726f206164604482015264647265737360d81b6064820152608401610a8d565b6001600160a01b0382166136a95760405162461bcd60e51b815260206004820152602360248201527f45524332303a207472616e7366657220746f20746865207a65726f206164647260448201526265737360e81b6064820152608401610a8d565b6001600160a01b038316600090815260208190526040902054818110156137215760405162461bcd60e51b815260206004820152602660248201527f45524332303a207472616e7366657220616d6f756e7420657863656564732062604482015265616c616e636560d01b6064820152608401610a8d565b6001600160a01b03808516600090815260208190526040808220858503905591851681529081208054849290613758908490614870565b92505081905550826001600160a01b0316846001600160a01b03167fddf252ad1be2c89b69c2b068fc378daa952ba7f163c4a11628f55a4df523b3ef846040516137a491815260200190565b60405180910390a350505050565b60005b601b548160ff161015613b83576000828152601a602052604081206004015460ff1660028111156137e8576137e86143ff565b1415613b7157600060ff808316600090815260196020526040902060040154166002811115613819576138196143ff565b1415613b715760ff81166000908152601960209081526040808320600290810154868552601a9093529220909101541415613b71576000828152601a60208181526040808420805460ff871686526019845291852060010154878652939092526003909101546001600160a01b039091169291116139395760ff8316600090815260196020908152604080832060010154878452601a909252909120600301546138c39190614aa1565b6000858152601a60208181526040808420600390810195865560ff8916855260198352908420600180820180549383018790558690556004909101805460ff1916909117905592889052529054909150613934576000848152601a60205260409020600401805460ff191660011790555b613a30565b6000848152601a60205260409020600381015460029091015461395c91906149dc565b60ff841660009081526019602052604090206003015461397c9190614aa1565b60ff841660008181526019602081815260408084206003808201979097558a8552601a8352908420909501549390925290526001909101549091506139c2908290614aa1565b60ff841660008181526019602081815260408084206001808201979097558a8552601a835290842060038082018690556004909101805460ff19169097179096559390925290520154613a305760ff83166000908152601960205260409020600401805460ff191660011790555b60ff83166000908152601960205260409020600201546001600160a01b038316906108fc90613a609084906149dc565b6040518115909202916000818181858888f19350505050158015613a88573d6000803e3d6000fd5b5060ff83166000908152601960205260409081902054905163a9059cbb60e01b81526001600160a01b03909116600482015260248101829052309063a9059cbb906044016020604051808303816000875af1158015613aeb573d6000803e3d6000fd5b505050506040513d601f19601f82011682018060405250810190613b0f91906148a8565b5060ff8316600090815260196020526040902060020154613b6e90613b359083906149dc565b60ff85166000818152601960209081526040808320548a8452601a9092529091205485929189916001600160a01b039182169116614031565b50505b80613b7b81614888565b9150506137b5565b5050565b60005b601c548160ff161015613b8357600060ff8083166000908152601a6020526040902060040154166002811115613bc257613bc26143ff565b1415613f405760008281526019602052604081206004015460ff166002811115613bee57613bee6143ff565b1415613f4057600082815260196020908152604080832060029081015460ff86168552601a9093529220909101541415613f405760ff81166000818152601a6020818152604080842080548886526019845291852060010154958552929091526003909101546001600160a01b039091169211613d125760008481526019602090815260408083206001015460ff87168452601a90925290912060030154613c969190614aa1565b60ff84166000818152601a6020818152604080842060039081019687558a855260198352908420600180820180549383018790558690556004909101805460ff191690911790559390925290529054909150613d0d5760ff83166000908152601a60205260409020600401805460ff191660011790555b613e0c565b60ff83166000908152601a602052604090206003810154600290910154613d3991906149dc565b600085815260196020526040902060030154613d559190614aa1565b600085815260196020818152604080842060038082019690965560ff89168552601a8352908420909401549288905252600190910154613d959190614aa1565b600085815260196020908152604080832060019081019490945560ff87168352601a909152812060038101805492905560040180549193509060ff191682800217905550600084815260196020526040902060030154613e0c576000848152601960205260409020600401805460ff191660011790555b6000848152601960205260409020600201546001600160a01b038316906108fc90613e389084906149dc565b6040518115909202916000818181858888f19350505050158015613e60573d6000803e3d6000fd5b506000848152601960205260409081902054905163a9059cbb60e01b81526001600160a01b03909116600482015260248101829052309063a9059cbb906044016020604051808303816000875af1158015613ebf573d6000803e3d6000fd5b505050506040513d601f19601f82011682018060405250810190613ee391906148a8565b50600084815260196020526040902060020154613f3d90613f059083906149dc565b60008681526019602090815260408083205460ff8916808552601a90935292205485928992916001600160a01b039182169116614031565b50505b80613f4a81614888565b915050613b8a565b6001600160a01b038216613fa85760405162461bcd60e51b815260206004820152601f60248201527f45524332303a206d696e7420746f20746865207a65726f2061646472657373006044820152606401610a8d565b8060026000828254613fba9190614870565b90915550506001600160a01b03821660009081526020819052604081208054839290613fe7908490614870565b90915550506040518181526001600160a01b038316906000907fddf252ad1be2c89b69c2b068fc378daa952ba7f163c4a11628f55a4df523b3ef9060200160405180910390a35050565b6018805460009081526017602052604080822089905582548252808220600101889055825482528082204260069091015582548252808220600201879055825482528082206003018690558254825280822060040180546001600160a01b038088166001600160a01b03199283161790925584548452918320600501805491861691909216179055815491906140c683614a4f565b9190505550505050505050565b8280546140df90614825565b90600052602060002090601f0160209004810192826141015760008555614147565b82601f1061411a57805160ff1916838001178555614147565b82800160010185558215614147579182015b8281111561414757825182559160200191906001019061412c565b50614153929150614157565b5090565b5b808211156141535760008155600101614158565b6000815180845260005b8181101561419257602081850181015186830182015201614176565b818111156141a4576000602083870101525b50601f01601f19169290920160200192915050565b602081526000612209602083018461416c565b80356001600160a01b03811681146141e357600080fd5b919050565b600080604083850312156141fb57600080fd5b614204836141cc565b946020939093013593505050565b60006020828403121561422457600080fd5b5035919050565b60008060006060848603121561424057600080fd5b614249846141cc565b9250614257602085016141cc565b9150604084013590509250925092565b600081518084526020808501945080840160005b838110156142975781518752958201959082019060010161427b565b509495945050505050565b6080815260006142b56080830187614267565b82810360208401526142c78187614267565b905082810360408401526142db8186614267565b905082810360608401526142ef8185614267565b979650505050505050565b634e487b7160e01b600052604160045260246000fd5b600082601f83011261432157600080fd5b81356001600160401b038082111561433b5761433b6142fa565b604051601f8301601f19908116603f01168101908282118183101715614363576143636142fa565b8160405283815286602085880101111561437c57600080fd5b836020870160208301376000602085830101528094505050505092915050565b600080604083850312156143af57600080fd5b82356001600160401b03808211156143c657600080fd5b6143d286838701614310565b935060208501359150808211156143e857600080fd5b506143f585828601614310565b9150509250929050565b634e487b7160e01b600052602160045260246000fd5b6020810160048310614429576144296143ff565b91905290565b60006020828403121561444157600080fd5b612209826141cc565b600081518084526020808501945080840160005b838110156142975781516001600160a01b03168752958201959082019060010161445e565b60a08152600061449660a0830188614267565b82810360208401526144a88188614267565b905082810360408401526144bc8187614267565b905082810360608401526144d0818661444a565b905082810360808401526144e4818561444a565b98975050505050505050565b60c08152600061450360c083018961444a565b602083820381850152614516828a614267565b9150838203604085015261452a8289614267565b9150838203606085015261453e8288614267565b8481036080860152865180825282880193509082019060005b8181101561458357845160038110614571576145716143ff565b83529383019391830191600101614557565b505084810360a08601526145978187614267565b9b9a5050505050505050505050565b60008060008060008060c087890312156145bf57600080fd5b86356001600160401b03808211156145d657600080fd5b6145e28a838b01614310565b975060208901359150808211156145f857600080fd5b6146048a838b01614310565b9650604089013591508082111561461a57600080fd5b6146268a838b01614310565b9550606089013591508082111561463c57600080fd5b6146488a838b01614310565b94506080890135935060a089013591508082111561466557600080fd5b5061467289828a01614310565b9150509295509295509295565b602081526000612209602083018461444a565b600080604083850312156146a557600080fd5b50508035926020909101359150565b6040815260006146c7604083018561416c565b82810360208401526146d9818561416c565b95945050505050565b602081526000825160c060208401526146fe60e084018261416c565b90506020840151601f198085840301604086015261471c838361416c565b92506040860151915080858403016060860152614739838361416c565b92506060860151608086015260808601519150808584030160a0860152614760838361416c565b925060a08601519150808584030160c0860152506146d9828261416c565b6000806040838503121561479157600080fd5b61479a836141cc565b91506147a8602084016141cc565b90509250929050565b60c0815260006147c460c083018961416c565b82810360208401526147d6818961416c565b905082810360408401526147ea818861416c565b90508560608401528281036080840152614804818661416c565b905082810360a0840152614818818561416c565b9998505050505050505050565b600181811c9082168061483957607f821691505b60208210811415610a2557634e487b7160e01b600052602260045260246000fd5b634e487b7160e01b600052601160045260246000fd5b600082198211156148835761488361485a565b500190565b600060ff821660ff81141561489f5761489f61485a565b60010192915050565b6000602082840312156148ba57600080fd5b8151801515811461220957600080fd5b600181815b808511156149055781600019048211156148eb576148eb61485a565b808516156148f857918102915b93841c93908002906148cf565b509250929050565b60008261491c575060016109d9565b81614929575060006109d9565b816001811461493f576002811461494957614965565b60019150506109d9565b60ff84111561495a5761495a61485a565b50506001821b6109d9565b5060208310610133831016604e8410600b8410161715614988575081810a6109d9565b61499283836148ca565b80600019048211156149a6576149a661485a565b029392505050565b6000612209838361490d565b6000826149d757634e487b7160e01b600052601260045260246000fd5b500490565b60008160001904831182151516156149f6576149f661485a565b500290565b600060ff821660ff84168060ff03821115614a1857614a1861485a565b019392505050565b634e487b7160e01b600052603260045260246000fd5b600060208284031215614a4857600080fd5b5051919050565b6000600019821415614a6357614a6361485a565b5060010190565b60208082526018908201527f73686172652076616c75652063616e206e6f7420626520300000000000000000604082015260600190565b600082821015614ab357614ab361485a565b500390565b805169ffffffffffffffffffff811681146141e357600080fd5b600080600080600060a08688031215614aea57600080fd5b614af386614ab8565b9450602086015193506040860151925060608601519150614b1660808701614ab8565b90509295509295909350565b600060208284031215614b3457600080fd5b815160ff8116811461220957600080fdfea264697066735822122048035b7b7a33f895634d0c5613f1195dc86d81cbcf47980bbfea7ff597f97b5164736f6c634300080b0033","bytecodeSha1":"587bc90e896a577765ed5b5320faaa09212fff81","compiler":{"evm_version":"istanbul","optimizer":{"enabled":true,"runs":200},"version":"0.8.11+commit.d7f03943"},"contractName":"SolidStateToken","language":"Solidity","natspec":{"kind":"dev","methods":{"allowance(address,address)":{"details":"See {IERC20-allowance}."},"approve(address,uint256)":{"details":"See {IERC20-approve}. Requirements: - `spender` cannot be the zero address."},"balanceOf(address)":{"details":"See {IERC20-balanceOf}."},"decimals()":{"details":"Returns the number of decimals used to get its user representation. For example, if `decimals` equals `2`, a balance of `505` tokens should be displayed to a user as `5,05` (`505 / 10 ** 2`). Tokens usually opt for a value of 18, imitating the relationship between Ether and Wei. This is the value {ERC20} uses, unless this function is overridden; NOTE: This information is only used for _display_ purposes: it in no way affects any of the arithmetic of the contract, including {IERC20-balanceOf} and {IERC20-transfer}."},"decreaseAllowance(address,uint256)":{"details":"Atomically decreases the allowance granted to `spender` by the caller. This is an alternative to {approve} that can be used as a mitigation for problems described in {IERC20-approve}. Emits an {Approval} event indicating the updated allowance. Requirements: - `spender` cannot be the zero address. - `spender` must have allowance for the caller of at least `subtractedValue`."},"increaseAllowance(address,uint256)":{"details":"Atomically increases the allowance granted to `spender` by the caller. This is an alternative to {approve} that can be used as a mitigation for problems described in {IERC20-approve}. Emits an {Approval} event indicating the updated allowance. Requirements: - `spender` cannot be the zero address."},"name()":{"details":"Returns the name of the token."},"symbol()":{"details":"Returns the symbol of the token, usually a shorter version of the name."},"totalSupply()":{"details":"See {IERC20-totalSupply}."},"transfer(address,uint256)":{"details":"See {IERC20-transfer}. Requirements: - `recipient` cannot be the zero address. - the caller must have a balance of at least `amount`."},"transferFrom(address,address,uint256)":{"details":"See {IERC20-transferFrom}. Emits an {Approval} event indicating the updated allowance. This is not required by the EIP. See the note at the beginning of {ERC20}. Requirements: - `sender` and `recipient` cannot be the zero address. - `sender` must have a balance of at least `amount`. - the caller must have allowance for ``sender``'s tokens of at least `amount`."}},"version":1},"opcodes":"PUSH1 0x80 PUSH1 0x40 MSTORE PUSH1 0x4 CALLDATASIZE LT PUSH2 0x2FF JUMPI PUSH1 0x0 CALLDATALOAD PUSH1 0xE0 SHR DUP1 PUSH4 0x741BEF1A GT PUSH2 0x190 JUMPI DUP1 PUSH4 0xAE35F550 GT PUSH2 0xDC JUMPI DUP1 PUSH4 0xD2786BA4 GT PUSH2 0x95 JUMPI DUP1 PUSH4 0xEDDC8392 GT PUSH2 0x6F JUMPI DUP1 PUSH4 0xEDDC8392 EQ PUSH2 0x8BD JUMPI DUP1 PUSH4 0xEE36D4AB EQ PUSH2 0x8E4 JUMPI DUP1 PUSH4 0xEEB9635C EQ PUSH2 0x8F7 JUMPI DUP1 PUSH4 0xF02665D7 EQ PUSH2 0x90C JUMPI PUSH1 0x0 DUP1 REVERT JUMPDEST DUP1 PUSH4 0xD2786BA4 EQ PUSH2 0x840 JUMPI DUP1 PUSH4 0xD6EEC790 EQ PUSH2 0x862 JUMPI DUP1 PUSH4 0xDD62ED3E EQ PUSH2 0x877 JUMPI PUSH1 0x0 DUP1 REVERT JUMPDEST DUP1 PUSH4 0xAE35F550 EQ PUSH2 0x77D JUMPI DUP1 PUSH4 0xB3035780 EQ PUSH2 0x79D JUMPI DUP1 PUSH4 0xBB71856D EQ PUSH2 0x7B2 JUMPI DUP1 PUSH4 0xBE5D147F EQ PUSH2 0x7E0 JUMPI DUP1 PUSH4 0xC4B67253 EQ PUSH2 0x800 JUMPI DUP1 PUSH4 0xCCDF3F52 EQ PUSH2 0x820 JUMPI PUSH1 0x0 DUP1 REVERT JUMPDEST DUP1 PUSH4 0x9E87A5CD GT PUSH2 0x149 JUMPI DUP1 PUSH4 0xA4406BCD GT PUSH2 0x123 JUMPI DUP1 PUSH4 0xA4406BCD EQ PUSH2 0x6FD JUMPI DUP1 PUSH4 0xA457C2D7 EQ PUSH2 0x71D JUMPI DUP1 PUSH4 0xA65D9E56 EQ PUSH2 0x73D JUMPI DUP1 PUSH4 0xA9059CBB EQ PUSH2 0x75D JUMPI PUSH1 0x0 DUP1 REVERT JUMPDEST DUP1 PUSH4 0x9E87A5CD EQ PUSH2 0x6B1 JUMPI DUP1 PUSH4 0x9E9AED62 EQ PUSH2 0x6C6 JUMPI DUP1 PUSH4 0xA0E67E2B EQ PUSH2 0x6DB JUMPI PUSH1 0x0 DUP1 REVERT JUMPDEST DUP1 PUSH4 0x741BEF1A EQ PUSH2 0x5D7 JUMPI DUP1 PUSH4 0x7C50B990 EQ PUSH2 0x60F JUMPI DUP1 PUSH4 0x83920E90 EQ PUSH2 0x624 JUMPI DUP1 PUSH4 0x861EEC66 EQ PUSH2 0x64A JUMPI DUP1 PUSH4 0x95D89B41 EQ PUSH2 0x67C JUMPI DUP1 PUSH4 0x99A78B79 EQ PUSH2 0x691 JUMPI PUSH1 0x0 DUP1 REVERT JUMPDEST DUP1 PUSH4 0x377C6F7C GT PUSH2 0x24F JUMPI DUP1 PUSH4 0x55548DE4 GT PUSH2 0x208 JUMPI DUP1 PUSH4 0x64227170 GT PUSH2 0x1E2 JUMPI DUP1 PUSH4 0x64227170 EQ PUSH2 0x545 JUMPI DUP1 PUSH4 0x70A08231 EQ PUSH2 0x56C JUMPI DUP1 PUSH4 0x724E78DA EQ PUSH2 0x5A2 JUMPI DUP1 PUSH4 0x730412E8 EQ PUSH2 0x5C2 JUMPI PUSH1 0x0 DUP1 REVERT JUMPDEST DUP1 PUSH4 0x55548DE4 EQ PUSH2 0x510 JUMPI DUP1 PUSH4 0x5C5BBF62 EQ PUSH2 0x530 JUMPI DUP1 PUSH4 0x5DC3BAE1 EQ PUSH2 0x3DB JUMPI PUSH1 0x0 DUP1 REVERT JUMPDEST DUP1 PUSH4 0x377C6F7C EQ PUSH2 0x46F JUMPI DUP1 PUSH4 0x378DC3DC EQ PUSH2 0x484 JUMPI DUP1 PUSH4 0x39509351 EQ PUSH2 0x49A JUMPI DUP1 PUSH4 0x466CCAC0 EQ PUSH2 0x4BA JUMPI DUP1 PUSH4 0x4CD0E75D EQ PUSH2 0x4DB JUMPI DUP1 PUSH4 0x527821E2 EQ PUSH2 0x4FB JUMPI PUSH1 0x0 DUP1 REVERT JUMPDEST DUP1 PUSH4 0x20B08DC2 GT PUSH2 0x2BC JUMPI DUP1 PUSH4 0x28DCBCE8 GT PUSH2 0x296 JUMPI DUP1 PUSH4 0x28DCBCE8 EQ PUSH2 0x410 JUMPI DUP1 PUSH4 0x2E98613E EQ PUSH2 0x426 JUMPI DUP1 PUSH4 0x2EBA8ABD EQ PUSH2 0x44B JUMPI DUP1 PUSH4 0x313CE567 EQ PUSH2 0x453 JUMPI PUSH1 0x0 DUP1 REVERT JUMPDEST DUP1 PUSH4 0x20B08DC2 EQ PUSH2 0x3C6 JUMPI DUP1 PUSH4 0x22BB164F EQ PUSH2 0x3DB JUMPI DUP1 PUSH4 0x23B872DD EQ PUSH2 0x3F0 JUMPI PUSH1 0x0 DUP1 REVERT JUMPDEST DUP1 PUSH4 0x47F6560 EQ PUSH2 0x304 JUMPI DUP1 PUSH4 0x6FDDE03 EQ PUSH2 0x328 JUMPI DUP1 PUSH4 0x95EA7B3 EQ PUSH2 0x34A JUMPI DUP1 PUSH4 0xEAE8573 EQ PUSH2 0x37A JUMPI DUP1 PUSH4 0x18160DDD EQ PUSH2 0x38F JUMPI DUP1 PUSH4 0x1A46E42A EQ PUSH2 0x3A4 JUMPI JUMPDEST PUSH1 0x0 DUP1 REVERT JUMPDEST CALLVALUE DUP1 ISZERO PUSH2 0x310 JUMPI PUSH1 0x0 DUP1 REVERT JUMPDEST POP PUSH1 0x11 SLOAD JUMPDEST PUSH1 0x40 MLOAD SWAP1 DUP2 MSTORE PUSH1 0x20 ADD JUMPDEST PUSH1 0x40 MLOAD DUP1 SWAP2 SUB SWAP1 RETURN JUMPDEST CALLVALUE DUP1 ISZERO PUSH2 0x334 JUMPI PUSH1 0x0 DUP1 REVERT JUMPDEST POP PUSH2 0x33D PUSH2 0x936 JUMP JUMPDEST PUSH1 0x40 MLOAD PUSH2 0x31F SWAP2 SWAP1 PUSH2 0x41B9 JUMP JUMPDEST CALLVALUE DUP1 ISZERO PUSH2 0x356 JUMPI PUSH1 0x0 DUP1 REVERT JUMPDEST POP PUSH2 0x36A PUSH2 0x365 CALLDATASIZE PUSH1 0x4 PUSH2 0x41E8 JUMP JUMPDEST PUSH2 0x9C8 JUMP JUMPDEST PUSH1 0x40 MLOAD SWAP1 ISZERO ISZERO DUP2 MSTORE PUSH1 0x20 ADD PUSH2 0x31F JUMP JUMPDEST CALLVALUE DUP1 ISZERO PUSH2 0x386 JUMPI PUSH1 0x0 DUP1 REVERT JUMPDEST POP PUSH2 0x315 PUSH2 0x9DF JUMP JUMPDEST CALLVALUE DUP1 ISZERO PUSH2 0x39B JUMPI PUSH1 0x0 DUP1 REVERT JUMPDEST POP PUSH1 0x2 SLOAD PUSH2 0x315 JUMP JUMPDEST CALLVALUE DUP1 ISZERO PUSH2 0x3B0 JUMPI PUSH1 0x0 DUP1 REVERT JUMPDEST POP PUSH2 0x3C4 PUSH2 0x3BF CALLDATASIZE PUSH1 0x4 PUSH2 0x4212 JUMP JUMPDEST PUSH2 0xA2B JUMP JUMPDEST STOP JUMPDEST CALLVALUE DUP1 ISZERO PUSH2 0x3D2 JUMPI PUSH1 0x0 DUP1 REVERT JUMPDEST POP PUSH2 0x36A PUSH2 0xBAB JUMP JUMPDEST CALLVALUE DUP1 ISZERO PUSH2 0x3E7 JUMPI PUSH1 0x0 DUP1 REVERT JUMPDEST POP PUSH2 0x315 PUSH2 0xBD7 JUMP JUMPDEST CALLVALUE DUP1 ISZERO PUSH2 0x3FC JUMPI PUSH1 0x0 DUP1 REVERT JUMPDEST POP PUSH2 0x36A PUSH2 0x40B CALLDATASIZE PUSH1 0x4 PUSH2 0x422B JUMP JUMPDEST PUSH2 0xC27 JUMP JUMPDEST CALLVALUE DUP1 ISZERO PUSH2 0x41C JUMPI PUSH1 0x0 DUP1 REVERT JUMPDEST POP PUSH2 0x315 PUSH1 0xE SLOAD DUP2 JUMP JUMPDEST CALLVALUE DUP1 ISZERO PUSH2 0x432 JUMPI PUSH1 0x0 DUP1 REVERT JUMPDEST POP PUSH2 0x43B PUSH2 0xCD1 JUMP JUMPDEST PUSH1 0x40 MLOAD PUSH2 0x31F SWAP5 SWAP4 SWAP3 SWAP2 SWAP1 PUSH2 0x42A2 JUMP JUMPDEST PUSH2 0x3C4 PUSH2 0xFA8 JUMP JUMPDEST CALLVALUE DUP1 ISZERO PUSH2 0x45F JUMPI PUSH1 0x0 DUP1 REVERT JUMPDEST POP PUSH1 0x40 MLOAD PUSH1 0x0 DUP2 MSTORE PUSH1 0x20 ADD PUSH2 0x31F JUMP JUMPDEST CALLVALUE DUP1 ISZERO PUSH2 0x47B JUMPI PUSH1 0x0 DUP1 REVERT JUMPDEST POP PUSH2 0x3C4 PUSH2 0x1122 JUMP JUMPDEST CALLVALUE DUP1 ISZERO PUSH2 0x490 JUMPI PUSH1 0x0 DUP1 REVERT JUMPDEST POP PUSH2 0x315 PUSH1 0xD SLOAD DUP2 JUMP JUMPDEST CALLVALUE DUP1 ISZERO PUSH2 0x4A6 JUMPI PUSH1 0x0 DUP1 REVERT JUMPDEST POP PUSH2 0x36A PUSH2 0x4B5 CALLDATASIZE PUSH1 0x4 PUSH2 0x41E8 JUMP JUMPDEST PUSH2 0x116E JUMP JUMPDEST CALLVALUE DUP1 ISZERO PUSH2 0x4C6 JUMPI PUSH1 0x0 DUP1 REVERT JUMPDEST POP PUSH1 0x12 SLOAD PUSH2 0x36A SWAP1 PUSH1 0x1 PUSH1 0xA0 SHL SWAP1 DIV PUSH1 0xFF AND DUP2 JUMP JUMPDEST CALLVALUE DUP1 ISZERO PUSH2 0x4E7 JUMPI PUSH1 0x0 DUP1 REVERT JUMPDEST POP PUSH2 0x3C4 PUSH2 0x4F6 CALLDATASIZE PUSH1 0x4 PUSH2 0x41E8 JUMP JUMPDEST PUSH2 0x11AA JUMP JUMPDEST CALLVALUE DUP1 ISZERO PUSH2 0x507 JUMPI PUSH1 0x0 DUP1 REVERT JUMPDEST POP PUSH2 0x315 PUSH2 0x12F7 JUMP JUMPDEST CALLVALUE DUP1 ISZERO PUSH2 0x51C JUMPI PUSH1 0x0 DUP1 REVERT JUMPDEST POP PUSH2 0x3C4 PUSH2 0x52B CALLDATASIZE PUSH1 0x4 PUSH2 0x439C JUMP JUMPDEST PUSH2 0x133D JUMP JUMPDEST CALLVALUE DUP1 ISZERO PUSH2 0x53C JUMPI PUSH1 0x0 DUP1 REVERT JUMPDEST POP PUSH1 0xC SLOAD PUSH2 0x315 JUMP JUMPDEST CALLVALUE DUP1 ISZERO PUSH2 0x551 JUMPI PUSH1 0x0 DUP1 REVERT JUMPDEST POP PUSH1 0x16 SLOAD PUSH2 0x55F SWAP1 PUSH1 0xFF AND DUP2 JUMP JUMPDEST PUSH1 0x40 MLOAD PUSH2 0x31F SWAP2 SWAP1 PUSH2 0x4415 JUMP JUMPDEST CALLVALUE DUP1 ISZERO PUSH2 0x578 JUMPI PUSH1 0x0 DUP1 REVERT JUMPDEST POP PUSH2 0x315 PUSH2 0x587 CALLDATASIZE PUSH1 0x4 PUSH2 0x442F JUMP JUMPDEST PUSH1 0x1 PUSH1 0x1 PUSH1 0xA0 SHL SUB AND PUSH1 0x0 SWAP1 DUP2 MSTORE PUSH1 0x20 DUP2 SWAP1 MSTORE PUSH1 0x40 SWAP1 KECCAK256 SLOAD SWAP1 JUMP JUMPDEST CALLVALUE DUP1 ISZERO PUSH2 0x5AE JUMPI PUSH1 0x0 DUP1 REVERT JUMPDEST POP PUSH2 0x3C4 PUSH2 0x5BD CALLDATASIZE PUSH1 0x4 PUSH2 0x442F JUMP JUMPDEST PUSH2 0x13CC JUMP JUMPDEST CALLVALUE DUP1 ISZERO PUSH2 0x5CE JUMPI PUSH1 0x0 DUP1 REVERT JUMPDEST POP PUSH2 0x43B PUSH2 0x1423 JUMP JUMPDEST CALLVALUE DUP1 ISZERO PUSH2 0x5E3 JUMPI PUSH1 0x0 DUP1 REVERT JUMPDEST POP PUSH1 0x13 SLOAD PUSH2 0x5F7 SWAP1 PUSH1 0x1 PUSH1 0x1 PUSH1 0xA0 SHL SUB AND DUP2 JUMP JUMPDEST PUSH1 0x40 MLOAD PUSH1 0x1 PUSH1 0x1 PUSH1 0xA0 SHL SUB SWAP1 SWAP2 AND DUP2 MSTORE PUSH1 0x20 ADD PUSH2 0x31F JUMP JUMPDEST CALLVALUE DUP1 ISZERO PUSH2 0x61B JUMPI PUSH1 0x0 DUP1 REVERT JUMPDEST POP PUSH2 0x3C4 PUSH2 0x16EA JUMP JUMPDEST CALLVALUE DUP1 ISZERO PUSH2 0x630 JUMPI PUSH1 0x0 DUP1 REVERT JUMPDEST POP PUSH2 0x639 PUSH2 0x1732 JUMP JUMPDEST PUSH1 0x40 MLOAD PUSH2 0x31F SWAP6 SWAP5 SWAP4 SWAP3 SWAP2 SWAP1 PUSH2 0x4483 JUMP JUMPDEST CALLVALUE DUP1 ISZERO PUSH2 0x656 JUMPI PUSH1 0x0 DUP1 REVERT JUMPDEST POP PUSH2 0x66A PUSH2 0x665 CALLDATASIZE PUSH1 0x4 PUSH2 0x442F JUMP JUMPDEST PUSH2 0x1A52 JUMP JUMPDEST PUSH1 0x40 MLOAD PUSH2 0x31F SWAP7 SWAP6 SWAP5 SWAP4 SWAP3 SWAP2 SWAP1 PUSH2 0x44F0 JUMP JUMPDEST CALLVALUE DUP1 ISZERO PUSH2 0x688 JUMPI PUSH1 0x0 DUP1 REVERT JUMPDEST POP PUSH2 0x33D PUSH2 0x1E91 JUMP JUMPDEST CALLVALUE DUP1 ISZERO PUSH2 0x69D JUMPI PUSH1 0x0 DUP1 REVERT JUMPDEST POP PUSH2 0x3C4 PUSH2 0x6AC CALLDATASIZE PUSH1 0x4 PUSH2 0x45A6 JUMP JUMPDEST PUSH2 0x1EA0 JUMP JUMPDEST CALLVALUE DUP1 ISZERO PUSH2 0x6BD JUMPI PUSH1 0x0 DUP1 REVERT JUMPDEST POP PUSH2 0x5F7 PUSH2 0x1F75 JUMP JUMPDEST CALLVALUE DUP1 ISZERO PUSH2 0x6D2 JUMPI PUSH1 0x0 DUP1 REVERT JUMPDEST POP PUSH2 0x315 PUSH2 0x1FBC JUMP JUMPDEST CALLVALUE DUP1 ISZERO PUSH2 0x6E7 JUMPI PUSH1 0x0 DUP1 REVERT JUMPDEST POP PUSH2 0x6F0 PUSH2 0x2023 JUMP JUMPDEST PUSH1 0x40 MLOAD PUSH2 0x31F SWAP2 SWAP1 PUSH2 0x467F JUMP JUMPDEST CALLVALUE DUP1 ISZERO PUSH2 0x709 JUMPI PUSH1 0x0 DUP1 REVERT JUMPDEST POP PUSH2 0x315 PUSH2 0x718 CALLDATASIZE PUSH1 0x4 PUSH2 0x4692 JUMP JUMPDEST PUSH2 0x2084 JUMP JUMPDEST CALLVALUE DUP1 ISZERO PUSH2 0x729 JUMPI PUSH1 0x0 DUP1 REVERT JUMPDEST POP PUSH2 0x36A PUSH2 0x738 CALLDATASIZE PUSH1 0x4 PUSH2 0x41E8 JUMP JUMPDEST PUSH2 0x2210 JUMP JUMPDEST CALLVALUE DUP1 ISZERO PUSH2 0x749 JUMPI PUSH1 0x0 DUP1 REVERT JUMPDEST POP PUSH2 0x3C4 PUSH2 0x758 CALLDATASIZE PUSH1 0x4 PUSH2 0x4212 JUMP JUMPDEST PUSH2 0x22A9 JUMP JUMPDEST CALLVALUE DUP1 ISZERO PUSH2 0x769 JUMPI PUSH1 0x0 DUP1 REVERT JUMPDEST POP PUSH2 0x36A PUSH2 0x778 CALLDATASIZE PUSH1 0x4 PUSH2 0x41E8 JUMP JUMPDEST PUSH2 0x22E3 JUMP JUMPDEST CALLVALUE DUP1 ISZERO PUSH2 0x789 JUMPI PUSH1 0x0 DUP1 REVERT JUMPDEST POP PUSH2 0x66A PUSH2 0x798 CALLDATASIZE PUSH1 0x4 PUSH2 0x442F JUMP JUMPDEST PUSH2 0x22F0 JUMP JUMPDEST CALLVALUE DUP1 ISZERO PUSH2 0x7A9 JUMPI PUSH1 0x0 DUP1 REVERT JUMPDEST POP PUSH1 0xE SLOAD PUSH2 0x315 JUMP JUMPDEST CALLVALUE DUP1 ISZERO PUSH2 0x7BE JUMPI PUSH1 0x0 DUP1 REVERT JUMPDEST POP PUSH2 0x7D2 PUSH2 0x7CD CALLDATASIZE PUSH1 0x4 PUSH2 0x4212 JUMP JUMPDEST PUSH2 0x2718 JUMP JUMPDEST PUSH1 0x40 MLOAD PUSH2 0x31F SWAP3 SWAP2 SWAP1 PUSH2 0x46B4 JUMP JUMPDEST CALLVALUE DUP1 ISZERO PUSH2 0x7EC JUMPI PUSH1 0x0 DUP1 REVERT JUMPDEST POP PUSH2 0x3C4 PUSH2 0x7FB CALLDATASIZE PUSH1 0x4 PUSH2 0x4212 JUMP JUMPDEST PUSH2 0x2852 JUMP JUMPDEST CALLVALUE DUP1 ISZERO PUSH2 0x80C JUMPI PUSH1 0x0 DUP1 REVERT JUMPDEST POP PUSH2 0x3C4 PUSH2 0x81B CALLDATASIZE PUSH1 0x4 PUSH2 0x4212 JUMP JUMPDEST PUSH2 0x2986 JUMP JUMPDEST CALLVALUE DUP1 ISZERO PUSH2 0x82C JUMPI PUSH1 0x0 DUP1 REVERT JUMPDEST POP PUSH2 0x7D2 PUSH2 0x83B CALLDATASIZE PUSH1 0x4 PUSH2 0x4212 JUMP JUMPDEST PUSH2 0x29C0 JUMP JUMPDEST CALLVALUE DUP1 ISZERO PUSH2 0x84C JUMPI PUSH1 0x0 DUP1 REVERT JUMPDEST POP PUSH2 0x855 PUSH2 0x2AEC JUMP JUMPDEST PUSH1 0x40 MLOAD PUSH2 0x31F SWAP2 SWAP1 PUSH2 0x46E2 JUMP JUMPDEST CALLVALUE DUP1 ISZERO PUSH2 0x86E JUMPI PUSH1 0x0 DUP1 REVERT JUMPDEST POP PUSH2 0x315 PUSH2 0x2E1B JUMP JUMPDEST CALLVALUE DUP1 ISZERO PUSH2 0x883 JUMPI PUSH1 0x0 DUP1 REVERT JUMPDEST POP PUSH2 0x315 PUSH2 0x892 CALLDATASIZE PUSH1 0x4 PUSH2 0x477E JUMP JUMPDEST PUSH1 0x1 PUSH1 0x1 PUSH1 0xA0 SHL SUB SWAP2 DUP3 AND PUSH1 0x0 SWAP1 DUP2 MSTORE PUSH1 0x1 PUSH1 0x20 SWAP1 DUP2 MSTORE PUSH1 0x40 DUP1 DUP4 KECCAK256 SWAP4 SWAP1 SWAP5 AND DUP3 MSTORE SWAP2 SWAP1 SWAP2 MSTORE KECCAK256 SLOAD SWAP1 JUMP JUMPDEST CALLVALUE DUP1 ISZERO PUSH2 0x8C9 JUMPI PUSH1 0x0 DUP1 REVERT JUMPDEST POP PUSH2 0x8D2 PUSH2 0x2E89 JUMP JUMPDEST PUSH1 0x40 MLOAD PUSH2 0x31F SWAP7 SWAP6 SWAP5 SWAP4 SWAP3 SWAP2 SWAP1 PUSH2 0x47B1 JUMP JUMPDEST PUSH2 0x315 PUSH2 0x8F2 CALLDATASIZE PUSH1 0x4 PUSH2 0x4692 JUMP JUMPDEST PUSH2 0x3159 JUMP JUMPDEST CALLVALUE DUP1 ISZERO PUSH2 0x903 JUMPI PUSH1 0x0 DUP1 REVERT JUMPDEST POP PUSH2 0x3C4 PUSH2 0x32BC JUMP JUMPDEST CALLVALUE DUP1 ISZERO PUSH2 0x918 JUMPI PUSH1 0x0 DUP1 REVERT JUMPDEST POP PUSH2 0x921 PUSH2 0x33AA JUMP JUMPDEST PUSH1 0x40 DUP1 MLOAD SWAP3 DUP4 MSTORE PUSH1 0x20 DUP4 ADD SWAP2 SWAP1 SWAP2 MSTORE ADD PUSH2 0x31F JUMP JUMPDEST PUSH1 0x60 PUSH1 0x3 DUP1 SLOAD PUSH2 0x945 SWAP1 PUSH2 0x4825 JUMP JUMPDEST DUP1 PUSH1 0x1F ADD PUSH1 0x20 DUP1 SWAP2 DIV MUL PUSH1 0x20 ADD PUSH1 0x40 MLOAD SWAP1 DUP2 ADD PUSH1 0x40 MSTORE DUP1 SWAP3 SWAP2 SWAP1 DUP2 DUP2 MSTORE PUSH1 0x20 ADD DUP3 DUP1 SLOAD PUSH2 0x971 SWAP1 PUSH2 0x4825 JUMP JUMPDEST DUP1 ISZERO PUSH2 0x9BE JUMPI DUP1 PUSH1 0x1F LT PUSH2 0x993 JUMPI PUSH2 0x100 DUP1 DUP4 SLOAD DIV MUL DUP4 MSTORE SWAP2 PUSH1 0x20 ADD SWAP2 PUSH2 0x9BE JUMP JUMPDEST DUP3 ADD SWAP2 SWAP1 PUSH1 0x0 MSTORE PUSH1 0x20 PUSH1 0x0 KECCAK256 SWAP1 JUMPDEST DUP2 SLOAD DUP2 MSTORE SWAP1 PUSH1 0x1 ADD SWAP1 PUSH1 0x20 ADD DUP1 DUP4 GT PUSH2 0x9A1 JUMPI DUP3 SWAP1 SUB PUSH1 0x1F AND DUP3 ADD SWAP2 JUMPDEST POP POP POP POP POP SWAP1 POP SWAP1 JUMP JUMPDEST PUSH1 0x0 PUSH2 0x9D5 CALLER DUP5 DUP5 PUSH2 0x34BF JUMP JUMPDEST POP PUSH1 0x1 JUMPDEST SWAP3 SWAP2 POP POP JUMP JUMPDEST PUSH1 0x0 DUP1 DUP1 JUMPDEST PUSH1 0x1B SLOAD DUP2 PUSH1 0xFF AND LT ISZERO PUSH2 0xA25 JUMPI PUSH1 0xFF DUP2 AND PUSH1 0x0 SWAP1 DUP2 MSTORE PUSH1 0x19 PUSH1 0x20 MSTORE PUSH1 0x40 SWAP1 KECCAK256 PUSH1 0x3 ADD SLOAD PUSH2 0xA11 SWAP1 DUP4 PUSH2 0x4870 JUMP JUMPDEST SWAP2 POP DUP1 PUSH2 0xA1D DUP2 PUSH2 0x4888 JUMP JUMPDEST SWAP2 POP POP PUSH2 0x9E4 JUMP JUMPDEST POP SWAP2 SWAP1 POP JUMP JUMPDEST PUSH1 0x0 DUP2 DUP2 MSTORE PUSH1 0x1A PUSH1 0x20 MSTORE PUSH1 0x40 SWAP1 KECCAK256 SLOAD PUSH1 0x1 PUSH1 0x1 PUSH1 0xA0 SHL SUB AND CALLER EQ PUSH2 0xA96 JUMPI PUSH1 0x40 MLOAD PUSH3 0x461BCD PUSH1 0xE5 SHL DUP2 MSTORE PUSH1 0x20 PUSH1 0x4 DUP3 ADD MSTORE PUSH1 0x1D PUSH1 0x24 DUP3 ADD MSTORE PUSH32 0x6D73672E73656E646572206973206E6F74206F72646572206F776E6572000000 PUSH1 0x44 DUP3 ADD MSTORE PUSH1 0x64 ADD JUMPDEST PUSH1 0x40 MLOAD DUP1 SWAP2 SUB SWAP1 REVERT JUMPDEST PUSH1 0x0 DUP2 DUP2 MSTORE PUSH1 0x1A PUSH1 0x20 MSTORE PUSH1 0x40 DUP2 KECCAK256 PUSH1 0x4 ADD SLOAD PUSH1 0xFF AND PUSH1 0x2 DUP2 GT ISZERO PUSH2 0xABC JUMPI PUSH2 0xABC PUSH2 0x43FF JUMP JUMPDEST EQ PUSH2 0xAFD JUMPI PUSH1 0x40 MLOAD PUSH3 0x461BCD PUSH1 0xE5 SHL DUP2 MSTORE PUSH1 0x20 PUSH1 0x4 DUP3 ADD MSTORE PUSH1 0x11 PUSH1 0x24 DUP3 ADD MSTORE PUSH17 0x37B93232B91034B9903737BA1037B832B7 PUSH1 0x79 SHL PUSH1 0x44 DUP3 ADD MSTORE PUSH1 0x64 ADD PUSH2 0xA8D JUMP JUMPDEST PUSH1 0x0 DUP2 DUP2 MSTORE PUSH1 0x1A PUSH1 0x20 MSTORE PUSH1 0x40 SWAP1 DUP2 SWAP1 KECCAK256 PUSH1 0x4 DUP1 DUP3 ADD DUP1 SLOAD PUSH1 0xFF NOT AND PUSH1 0x2 OR SWAP1 SSTORE DUP2 SLOAD PUSH1 0x3 SWAP1 SWAP3 ADD SLOAD SWAP3 MLOAD PUSH4 0xA9059CBB PUSH1 0xE0 SHL DUP2 MSTORE PUSH1 0x1 PUSH1 0x1 PUSH1 0xA0 SHL SUB SWAP1 SWAP3 AND SWAP1 DUP3 ADD MSTORE PUSH1 0x24 DUP2 ADD SWAP2 SWAP1 SWAP2 MSTORE ADDRESS SWAP1 PUSH4 0xA9059CBB SWAP1 PUSH1 0x44 ADD PUSH1 0x20 PUSH1 0x40 MLOAD DUP1 DUP4 SUB DUP2 PUSH1 0x0 DUP8 GAS CALL ISZERO DUP1 ISZERO PUSH2 0xB72 JUMPI RETURNDATASIZE PUSH1 0x0 DUP1 RETURNDATACOPY RETURNDATASIZE PUSH1 0x0 REVERT JUMPDEST POP POP POP POP PUSH1 0x40 MLOAD RETURNDATASIZE PUSH1 0x1F NOT PUSH1 0x1F DUP3 ADD AND DUP3 ADD DUP1 PUSH1 0x40 MSTORE POP DUP2 ADD SWAP1 PUSH2 0xB96 SWAP2 SWAP1 PUSH2 0x48A8 JUMP JUMPDEST POP PUSH1 0x0 SWAP1 DUP2 MSTORE PUSH1 0x1A PUSH1 0x20 MSTORE PUSH1 0x40 DUP2 KECCAK256 PUSH1 0x3 ADD SSTORE JUMP JUMPDEST PUSH1 0x0 DUP1 PUSH1 0x16 SLOAD PUSH1 0xFF AND PUSH1 0x3 DUP2 GT ISZERO PUSH2 0xBC5 JUMPI PUSH2 0xBC5 PUSH2 0x43FF JUMP JUMPDEST EQ ISZERO PUSH2 0xBD1 JUMPI POP PUSH1 0x1 SWAP1 JUMP JUMPDEST POP PUSH1 0x0 SWAP1 JUMP JUMPDEST PUSH1 0x0 DUP1 PUSH1 0x0 PUSH2 0xBE4 PUSH2 0x33AA JUMP JUMPDEST SWAP1 SWAP3 POP SWAP1 POP PUSH2 0xBF4 DUP2 PUSH1 0xA PUSH2 0x49AE JUMP JUMPDEST PUSH2 0xBFE SWAP1 DUP4 PUSH2 0x49BA JUMP JUMPDEST PUSH2 0xC09 DUP3 PUSH1 0xA PUSH2 0x49AE JUMP JUMPDEST PUSH1 0xE SLOAD PUSH2 0xC16 SWAP2 SWAP1 PUSH2 0x49DC JUMP JUMPDEST PUSH2 0xC20 SWAP2 SWAP1 PUSH2 0x49BA JUMP JUMPDEST SWAP3 POP POP POP SWAP1 JUMP JUMPDEST PUSH1 0x0 PUSH2 0xC34 DUP5 DUP5 DUP5 PUSH2 0x35E3 JUMP JUMPDEST PUSH1 0x1 PUSH1 0x1 PUSH1 0xA0 SHL SUB DUP5 AND PUSH1 0x0 SWAP1 DUP2 MSTORE PUSH1 0x1 PUSH1 0x20 SWAP1 DUP2 MSTORE PUSH1 0x40 DUP1 DUP4 KECCAK256 CALLER DUP5 MSTORE SWAP1 SWAP2 MSTORE SWAP1 KECCAK256 SLOAD DUP3 DUP2 LT ISZERO PUSH2 0xCB9 JUMPI PUSH1 0x40 MLOAD PUSH3 0x461BCD PUSH1 0xE5 SHL DUP2 MSTORE PUSH1 0x20 PUSH1 0x4 DUP3 ADD MSTORE PUSH1 0x28 PUSH1 0x24 DUP3 ADD MSTORE PUSH32 0x45524332303A207472616E7366657220616D6F756E7420657863656564732061 PUSH1 0x44 DUP3 ADD MSTORE PUSH8 0x6C6C6F77616E6365 PUSH1 0xC0 SHL PUSH1 0x64 DUP3 ADD MSTORE PUSH1 0x84 ADD PUSH2 0xA8D JUMP JUMPDEST PUSH2 0xCC6 DUP6 CALLER DUP6 DUP5 SUB PUSH2 0x34BF JUMP JUMPDEST POP PUSH1 0x1 SWAP5 SWAP4 POP POP POP POP JUMP JUMPDEST PUSH1 0x60 DUP1 PUSH1 0x60 DUP1 PUSH1 0x0 DUP1 JUMPDEST PUSH1 0x1B SLOAD DUP2 PUSH1 0xFF AND LT ISZERO PUSH2 0xD39 JUMPI PUSH1 0x0 PUSH1 0xFF DUP1 DUP4 AND PUSH1 0x0 SWAP1 DUP2 MSTORE PUSH1 0x19 PUSH1 0x20 MSTORE PUSH1 0x40 SWAP1 KECCAK256 PUSH1 0x4 ADD SLOAD AND PUSH1 0x2 DUP2 GT ISZERO PUSH2 0xD13 JUMPI PUSH2 0xD13 PUSH2 0x43FF JUMP JUMPDEST EQ ISZERO PUSH2 0xD27 JUMPI PUSH2 0xD24 PUSH1 0x1 DUP4 PUSH2 0x49FB JUMP JUMPDEST SWAP2 POP JUMPDEST DUP1 PUSH2 0xD31 DUP2 PUSH2 0x4888 JUMP JUMPDEST SWAP2 POP POP PUSH2 0xCDB JUMP JUMPDEST POP PUSH1 0x0 DUP2 PUSH1 0xFF AND PUSH1 0x1 PUSH1 0x1 PUSH1 0x40 SHL SUB DUP2 GT ISZERO PUSH2 0xD57 JUMPI PUSH2 0xD57 PUSH2 0x42FA JUMP JUMPDEST PUSH1 0x40 MLOAD SWAP1 DUP1 DUP3 MSTORE DUP1 PUSH1 0x20 MUL PUSH1 0x20 ADD DUP3 ADD PUSH1 0x40 MSTORE DUP1 ISZERO PUSH2 0xD80 JUMPI DUP2 PUSH1 0x20 ADD PUSH1 0x20 DUP3 MUL DUP1 CALLDATASIZE DUP4 CALLDATACOPY ADD SWAP1 POP JUMPDEST POP SWAP1 POP PUSH1 0x0 DUP3 PUSH1 0xFF AND PUSH1 0x1 PUSH1 0x1 PUSH1 0x40 SHL SUB DUP2 GT ISZERO PUSH2 0xDA0 JUMPI PUSH2 0xDA0 PUSH2 0x42FA JUMP JUMPDEST PUSH1 0x40 MLOAD SWAP1 DUP1 DUP3 MSTORE DUP1 PUSH1 0x20 MUL PUSH1 0x20 ADD DUP3 ADD PUSH1 0x40 MSTORE DUP1 ISZERO PUSH2 0xDC9 JUMPI DUP2 PUSH1 0x20 ADD PUSH1 0x20 DUP3 MUL DUP1 CALLDATASIZE DUP4 CALLDATACOPY ADD SWAP1 POP JUMPDEST POP SWAP1 POP PUSH1 0x0 DUP4 PUSH1 0xFF AND PUSH1 0x1 PUSH1 0x1 PUSH1 0x40 SHL SUB DUP2 GT ISZERO PUSH2 0xDE9 JUMPI PUSH2 0xDE9 PUSH2 0x42FA JUMP JUMPDEST PUSH1 0x40 MLOAD SWAP1 DUP1 DUP3 MSTORE DUP1 PUSH1 0x20 MUL PUSH1 0x20 ADD DUP3 ADD PUSH1 0x40 MSTORE DUP1 ISZERO PUSH2 0xE12 JUMPI DUP2 PUSH1 0x20 ADD PUSH1 0x20 DUP3 MUL DUP1 CALLDATASIZE DUP4 CALLDATACOPY ADD SWAP1 POP JUMPDEST POP SWAP1 POP PUSH1 0x0 DUP5 PUSH1 0xFF AND PUSH1 0x1 PUSH1 0x1 PUSH1 0x40 SHL SUB DUP2 GT ISZERO PUSH2 0xE32 JUMPI PUSH2 0xE32 PUSH2 0x42FA JUMP JUMPDEST PUSH1 0x40 MLOAD SWAP1 DUP1 DUP3 MSTORE DUP1 PUSH1 0x20 MUL PUSH1 0x20 ADD DUP3 ADD PUSH1 0x40 MSTORE DUP1 ISZERO PUSH2 0xE5B JUMPI DUP2 PUSH1 0x20 ADD PUSH1 0x20 DUP3 MUL DUP1 CALLDATASIZE DUP4 CALLDATACOPY ADD SWAP1 POP JUMPDEST POP SWAP1 POP PUSH1 0x0 SWAP5 POP PUSH1 0x0 JUMPDEST PUSH1 0x1B SLOAD DUP2 PUSH1 0xFF AND LT ISZERO PUSH2 0xF98 JUMPI PUSH1 0x0 PUSH1 0xFF DUP1 DUP4 AND PUSH1 0x0 SWAP1 DUP2 MSTORE PUSH1 0x19 PUSH1 0x20 MSTORE PUSH1 0x40 SWAP1 KECCAK256 PUSH1 0x4 ADD SLOAD AND PUSH1 0x2 DUP2 GT ISZERO PUSH2 0xE9D JUMPI PUSH2 0xE9D PUSH2 0x43FF JUMP JUMPDEST EQ ISZERO PUSH2 0xF86 JUMPI PUSH1 0x19 PUSH1 0x0 DUP3 PUSH1 0xFF AND DUP2 MSTORE PUSH1 0x20 ADD SWAP1 DUP2 MSTORE PUSH1 0x20 ADD PUSH1 0x0 KECCAK256 PUSH1 0x1 ADD SLOAD DUP6 DUP8 PUSH1 0xFF AND DUP2 MLOAD DUP2 LT PUSH2 0xED2 JUMPI PUSH2 0xED2 PUSH2 0x4A20 JUMP JUMPDEST PUSH1 0x20 MUL PUSH1 0x20 ADD ADD DUP2 DUP2 MSTORE POP POP PUSH1 0x19 PUSH1 0x0 DUP3 PUSH1 0xFF AND DUP2 MSTORE PUSH1 0x20 ADD SWAP1 DUP2 MSTORE PUSH1 0x20 ADD PUSH1 0x0 KECCAK256 PUSH1 0x2 ADD SLOAD DUP5 DUP8 PUSH1 0xFF AND DUP2 MLOAD DUP2 LT PUSH2 0xF0D JUMPI PUSH2 0xF0D PUSH2 0x4A20 JUMP JUMPDEST PUSH1 0x20 MUL PUSH1 0x20 ADD ADD DUP2 DUP2 MSTORE POP POP PUSH1 0x19 PUSH1 0x0 DUP3 PUSH1 0xFF AND DUP2 MSTORE PUSH1 0x20 ADD SWAP1 DUP2 MSTORE PUSH1 0x20 ADD PUSH1 0x0 KECCAK256 PUSH1 0x3 ADD SLOAD DUP4 DUP8 PUSH1 0xFF AND DUP2 MLOAD DUP2 LT PUSH2 0xF48 JUMPI PUSH2 0xF48 PUSH2 0x4A20 JUMP JUMPDEST PUSH1 0x20 MUL PUSH1 0x20 ADD ADD DUP2 DUP2 MSTORE POP POP DUP1 PUSH1 0xFF AND DUP3 DUP8 PUSH1 0xFF AND DUP2 MLOAD DUP2 LT PUSH2 0xF6D JUMPI PUSH2 0xF6D PUSH2 0x4A20 JUMP JUMPDEST PUSH1 0x20 SWAP1 DUP2 MUL SWAP2 SWAP1 SWAP2 ADD ADD MSTORE DUP6 PUSH2 0xF82 DUP2 PUSH2 0x4888 JUMP JUMPDEST SWAP7 POP POP JUMPDEST DUP1 PUSH2 0xF90 DUP2 PUSH2 0x4888 JUMP JUMPDEST SWAP2 POP POP PUSH2 0xE65 JUMP JUMPDEST POP SWAP3 SWAP9 SWAP2 SWAP8 POP SWAP6 POP SWAP1 SWAP4 POP SWAP2 POP POP JUMP JUMPDEST PUSH1 0x0 PUSH1 0x16 SLOAD PUSH1 0xFF AND PUSH1 0x3 DUP2 GT ISZERO PUSH2 0xFC1 JUMPI PUSH2 0xFC1 PUSH2 0x43FF JUMP JUMPDEST EQ PUSH2 0xFFD JUMPI PUSH1 0x40 MLOAD PUSH3 0x461BCD PUSH1 0xE5 SHL DUP2 MSTORE PUSH1 0x20 PUSH1 0x4 DUP3 ADD MSTORE PUSH1 0xC PUSH1 0x24 DUP3 ADD MSTORE PUSH12 0x4E4F5420464F522053414C45 PUSH1 0xA0 SHL PUSH1 0x44 DUP3 ADD MSTORE PUSH1 0x64 ADD PUSH2 0xA8D JUMP JUMPDEST PUSH1 0x16 DUP1 SLOAD PUSH1 0xFF NOT AND PUSH1 0x2 OR SWAP1 SSTORE PUSH1 0xE SLOAD CALLVALUE EQ PUSH2 0x104D JUMPI PUSH1 0x40 MLOAD PUSH3 0x461BCD PUSH1 0xE5 SHL DUP2 MSTORE PUSH1 0x20 PUSH1 0x4 DUP3 ADD MSTORE PUSH1 0xF PUSH1 0x24 DUP3 ADD MSTORE PUSH15 0x496E636F7272656374205072696365 PUSH1 0x88 SHL PUSH1 0x44 DUP3 ADD MSTORE PUSH1 0x64 ADD PUSH2 0xA8D JUMP JUMPDEST PUSH1 0x16 DUP1 SLOAD PUSH1 0xFF NOT AND PUSH1 0x3 OR SWAP1 SSTORE PUSH1 0x0 PUSH1 0x14 PUSH1 0x15 SLOAD DUP2 SLOAD DUP2 LT PUSH2 0x1071 JUMPI PUSH2 0x1071 PUSH2 0x4A20 JUMP JUMPDEST PUSH1 0x0 SWAP2 DUP3 MSTORE PUSH1 0x20 DUP3 KECCAK256 ADD SLOAD PUSH1 0x40 MLOAD PUSH1 0x1 PUSH1 0x1 PUSH1 0xA0 SHL SUB SWAP1 SWAP2 AND SWAP3 POP DUP3 SWAP2 CALLVALUE DUP1 ISZERO PUSH2 0x8FC MUL SWAP3 SWAP1 SWAP2 DUP2 DUP2 DUP2 DUP6 DUP9 DUP9 CALL SWAP4 POP POP POP POP ISZERO DUP1 ISZERO PUSH2 0x10B5 JUMPI RETURNDATASIZE PUSH1 0x0 DUP1 RETURNDATACOPY RETURNDATASIZE PUSH1 0x0 REVERT JUMPDEST POP PUSH1 0x14 DUP1 SLOAD PUSH1 0x1 DUP2 DUP2 ADD DUP4 SSTORE PUSH1 0x0 SWAP3 DUP4 MSTORE PUSH32 0xCE6D7B5282BD9A3661AE061FEED1DBDA4E52AB073B1F9285BE6E155D9C38D4EC SWAP1 SWAP2 ADD DUP1 SLOAD PUSH1 0x1 PUSH1 0x1 PUSH1 0xA0 SHL SUB NOT AND CALLER OR SWAP1 SSTORE PUSH1 0x15 DUP1 SLOAD SWAP2 SWAP3 SWAP1 SWAP2 PUSH2 0x110D SWAP1 DUP5 SWAP1 PUSH2 0x4870 JUMP JUMPDEST SWAP1 SWAP2 SSTORE POP POP PUSH1 0x16 DUP1 SLOAD PUSH1 0xFF NOT AND PUSH1 0x1 OR SWAP1 SSTORE POP JUMP JUMPDEST PUSH1 0x14 PUSH1 0x15 SLOAD DUP2 SLOAD DUP2 LT PUSH2 0x1137 JUMPI PUSH2 0x1137 PUSH2 0x4A20 JUMP JUMPDEST PUSH1 0x0 SWAP2 DUP3 MSTORE PUSH1 0x20 SWAP1 SWAP2 KECCAK256 ADD SLOAD PUSH1 0x1 PUSH1 0x1 PUSH1 0xA0 SHL SUB AND CALLER EQ PUSH2 0x1157 JUMPI PUSH1 0x0 DUP1 REVERT JUMPDEST PUSH1 0x16 DUP1 SLOAD PUSH1 0x0 SWAP2 SWAP1 PUSH1 0xFF NOT AND PUSH1 0x1 DUP4 JUMPDEST MUL OR SWAP1 SSTORE POP JUMP JUMPDEST CALLER PUSH1 0x0 DUP2 DUP2 MSTORE PUSH1 0x1 PUSH1 0x20 SWAP1 DUP2 MSTORE PUSH1 0x40 DUP1 DUP4 KECCAK256 PUSH1 0x1 PUSH1 0x1 PUSH1 0xA0 SHL SUB DUP8 AND DUP5 MSTORE SWAP1 SWAP2 MSTORE DUP2 KECCAK256 SLOAD SWAP1 SWAP2 PUSH2 0x9D5 SWAP2 DUP6 SWAP1 PUSH2 0x11A5 SWAP1 DUP7 SWAP1 PUSH2 0x4870 JUMP JUMPDEST PUSH2 0x34BF JUMP JUMPDEST PUSH1 0x14 PUSH1 0x15 SLOAD DUP2 SLOAD DUP2 LT PUSH2 0x11BF JUMPI PUSH2 0x11BF PUSH2 0x4A20 JUMP JUMPDEST PUSH1 0x0 SWAP2 DUP3 MSTORE PUSH1 0x20 SWAP1 SWAP2 KECCAK256 ADD SLOAD PUSH1 0x1 PUSH1 0x1 PUSH1 0xA0 SHL SUB AND CALLER EQ PUSH2 0x11DF JUMPI PUSH1 0x0 DUP1 REVERT JUMPDEST PUSH1 0x40 MLOAD PUSH4 0x70A08231 PUSH1 0xE0 SHL DUP2 MSTORE ADDRESS PUSH1 0x4 DUP3 ADD DUP2 SWAP1 MSTORE DUP3 SWAP2 PUSH4 0x70A08231 SWAP1 PUSH1 0x24 ADD PUSH1 0x20 PUSH1 0x40 MLOAD DUP1 DUP4 SUB DUP2 DUP7 GAS STATICCALL ISZERO DUP1 ISZERO PUSH2 0x121C JUMPI RETURNDATASIZE PUSH1 0x0 DUP1 RETURNDATACOPY RETURNDATASIZE PUSH1 0x0 REVERT JUMPDEST POP POP POP POP PUSH1 0x40 MLOAD RETURNDATASIZE PUSH1 0x1F NOT PUSH1 0x1F DUP3 ADD AND DUP3 ADD DUP1 PUSH1 0x40 MSTORE POP DUP2 ADD SWAP1 PUSH2 0x1240 SWAP2 SWAP1 PUSH2 0x4A36 JUMP JUMPDEST GT PUSH2 0x1281 JUMPI PUSH1 0x40 MLOAD PUSH3 0x461BCD PUSH1 0xE5 SHL DUP2 MSTORE PUSH1 0x20 PUSH1 0x4 DUP3 ADD MSTORE PUSH1 0x11 PUSH1 0x24 DUP3 ADD MSTORE PUSH17 0x4E6F7420456E6F75676820546F6B656E73 PUSH1 0x78 SHL PUSH1 0x44 DUP3 ADD MSTORE PUSH1 0x64 ADD PUSH2 0xA8D JUMP JUMPDEST PUSH1 0x40 MLOAD PUSH4 0xA9059CBB PUSH1 0xE0 SHL DUP2 MSTORE PUSH1 0x1 PUSH1 0x1 PUSH1 0xA0 SHL SUB DUP4 AND PUSH1 0x4 DUP3 ADD MSTORE PUSH1 0x24 DUP2 ADD DUP3 SWAP1 MSTORE ADDRESS SWAP1 PUSH4 0xA9059CBB SWAP1 PUSH1 0x44 ADD PUSH1 0x20 PUSH1 0x40 MLOAD DUP1 DUP4 SUB DUP2 PUSH1 0x0 DUP8 GAS CALL ISZERO DUP1 ISZERO PUSH2 0x12CE JUMPI RETURNDATASIZE PUSH1 0x0 DUP1 RETURNDATACOPY RETURNDATASIZE PUSH1 0x0 REVERT JUMPDEST POP POP POP POP PUSH1 0x40 MLOAD RETURNDATASIZE PUSH1 0x1F NOT PUSH1 0x1F DUP3 ADD AND DUP3 ADD DUP1 PUSH1 0x40 MSTORE POP DUP2 ADD SWAP1 PUSH2 0x12F2 SWAP2 SWAP1 PUSH2 0x48A8 JUMP JUMPDEST POP POP POP JUMP JUMPDEST PUSH1 0x0 DUP1 DUP1 JUMPDEST PUSH1 0x1C SLOAD DUP2 PUSH1 0xFF AND LT ISZERO PUSH2 0xA25 JUMPI PUSH1 0xFF DUP2 AND PUSH1 0x0 SWAP1 DUP2 MSTORE PUSH1 0x1A PUSH1 0x20 MSTORE PUSH1 0x40 SWAP1 KECCAK256 PUSH1 0x3 ADD SLOAD PUSH2 0x1329 SWAP1 DUP4 PUSH2 0x4870 JUMP JUMPDEST SWAP2 POP DUP1 PUSH2 0x1335 DUP2 PUSH2 0x4888 JUMP JUMPDEST SWAP2 POP POP PUSH2 0x12FC JUMP JUMPDEST PUSH1 0x14 PUSH1 0x15 SLOAD DUP2 SLOAD DUP2 LT PUSH2 0x1352 JUMPI PUSH2 0x1352 PUSH2 0x4A20 JUMP JUMPDEST PUSH1 0x0 SWAP2 DUP3 MSTORE PUSH1 0x20 SWAP1 SWAP2 KECCAK256 ADD SLOAD PUSH1 0x1 PUSH1 0x1 PUSH1 0xA0 SHL SUB AND CALLER EQ PUSH2 0x1372 JUMPI PUSH1 0x0 DUP1 REVERT JUMPDEST PUSH1 0xC SLOAD PUSH1 0x0 SWAP1 DUP2 MSTORE PUSH1 0x5 PUSH1 0x20 SWAP1 DUP2 MSTORE PUSH1 0x40 SWAP1 SWAP2 KECCAK256 DUP4 MLOAD SWAP1 SWAP2 PUSH2 0x1398 SWAP2 DUP4 SWAP2 DUP7 ADD SWAP1 PUSH2 0x40D3 JUMP JUMPDEST POP DUP2 MLOAD PUSH2 0x13AE SWAP1 PUSH1 0x1 DUP4 ADD SWAP1 PUSH1 0x20 DUP6 ADD SWAP1 PUSH2 0x40D3 JUMP JUMPDEST POP PUSH1 0x1 PUSH1 0xC PUSH1 0x0 DUP3 DUP3 SLOAD PUSH2 0x13C2 SWAP2 SWAP1 PUSH2 0x4870 JUMP JUMPDEST SWAP1 SWAP2 SSTORE POP POP POP POP POP JUMP JUMPDEST PUSH1 0x14 PUSH1 0x15 SLOAD DUP2 SLOAD DUP2 LT PUSH2 0x13E1 JUMPI PUSH2 0x13E1 PUSH2 0x4A20 JUMP JUMPDEST PUSH1 0x0 SWAP2 DUP3 MSTORE PUSH1 0x20 SWAP1 SWAP2 KECCAK256 ADD SLOAD PUSH1 0x1 PUSH1 0x1 PUSH1 0xA0 SHL SUB AND CALLER EQ PUSH2 0x1401 JUMPI PUSH1 0x0 DUP1 REVERT JUMPDEST PUSH1 0x12 DUP1 SLOAD PUSH1 0x1 PUSH1 0x1 PUSH1 0xA0 SHL SUB NOT AND PUSH1 0x1 PUSH1 0x1 PUSH1 0xA0 SHL SUB SWAP3 SWAP1 SWAP3 AND SWAP2 SWAP1 SWAP2 OR SWAP1 SSTORE JUMP JUMPDEST PUSH1 0x60 DUP1 PUSH1 0x60 DUP1 PUSH1 0x0 DUP1 JUMPDEST PUSH1 0x1C SLOAD DUP2 PUSH1 0xFF AND LT ISZERO PUSH2 0x148B JUMPI PUSH1 0x0 PUSH1 0xFF DUP1 DUP4 AND PUSH1 0x0 SWAP1 DUP2 MSTORE PUSH1 0x1A PUSH1 0x20 MSTORE PUSH1 0x40 SWAP1 KECCAK256 PUSH1 0x4 ADD SLOAD AND PUSH1 0x2 DUP2 GT ISZERO PUSH2 0x1465 JUMPI PUSH2 0x1465 PUSH2 0x43FF JUMP JUMPDEST EQ ISZERO PUSH2 0x1479 JUMPI DUP2 PUSH2 0x1475 DUP2 PUSH2 0x4888 JUMP JUMPDEST SWAP3 POP POP JUMPDEST DUP1 PUSH2 0x1483 DUP2 PUSH2 0x4888 JUMP JUMPDEST SWAP2 POP POP PUSH2 0x142D JUMP JUMPDEST POP PUSH1 0x0 DUP2 PUSH1 0xFF AND PUSH1 0x1 PUSH1 0x1 PUSH1 0x40 SHL SUB DUP2 GT ISZERO PUSH2 0x14A9 JUMPI PUSH2 0x14A9 PUSH2 0x42FA JUMP JUMPDEST PUSH1 0x40 MLOAD SWAP1 DUP1 DUP3 MSTORE DUP1 PUSH1 0x20 MUL PUSH1 0x20 ADD DUP3 ADD PUSH1 0x40 MSTORE DUP1 ISZERO PUSH2 0x14D2 JUMPI DUP2 PUSH1 0x20 ADD PUSH1 0x20 DUP3 MUL DUP1 CALLDATASIZE DUP4 CALLDATACOPY ADD SWAP1 POP JUMPDEST POP SWAP1 POP PUSH1 0x0 DUP3 PUSH1 0xFF AND PUSH1 0x1 PUSH1 0x1 PUSH1 0x40 SHL SUB DUP2 GT ISZERO PUSH2 0x14F2 JUMPI PUSH2 0x14F2 PUSH2 0x42FA JUMP JUMPDEST PUSH1 0x40 MLOAD SWAP1 DUP1 DUP3 MSTORE DUP1 PUSH1 0x20 MUL PUSH1 0x20 ADD DUP3 ADD PUSH1 0x40 MSTORE DUP1 ISZERO PUSH2 0x151B JUMPI DUP2 PUSH1 0x20 ADD PUSH1 0x20 DUP3 MUL DUP1 CALLDATASIZE DUP4 CALLDATACOPY ADD SWAP1 POP JUMPDEST POP SWAP1 POP PUSH1 0x0 DUP4 PUSH1 0xFF AND PUSH1 0x1 PUSH1 0x1 PUSH1 0x40 SHL SUB DUP2 GT ISZERO PUSH2 0x153B JUMPI PUSH2 0x153B PUSH2 0x42FA JUMP JUMPDEST PUSH1 0x40 MLOAD SWAP1 DUP1 DUP3 MSTORE DUP1 PUSH1 0x20 MUL PUSH1 0x20 ADD DUP3 ADD PUSH1 0x40 MSTORE DUP1 ISZERO PUSH2 0x1564 JUMPI DUP2 PUSH1 0x20 ADD PUSH1 0x20 DUP3 MUL DUP1 CALLDATASIZE DUP4 CALLDATACOPY ADD SWAP1 POP JUMPDEST POP SWAP1 POP PUSH1 0x0 DUP5 PUSH1 0xFF AND PUSH1 0x1 PUSH1 0x1 PUSH1 0x40 SHL SUB DUP2 GT ISZERO PUSH2 0x1584 JUMPI PUSH2 0x1584 PUSH2 0x42FA JUMP JUMPDEST PUSH1 0x40 MLOAD SWAP1 DUP1 DUP3 MSTORE DUP1 PUSH1 0x20 MUL PUSH1 0x20 ADD DUP3 ADD PUSH1 0x40 MSTORE DUP1 ISZERO PUSH2 0x15AD JUMPI DUP2 PUSH1 0x20 ADD PUSH1 0x20 DUP3 MUL DUP1 CALLDATASIZE DUP4 CALLDATACOPY ADD SWAP1 POP JUMPDEST POP SWAP1 POP PUSH1 0x0 SWAP5 POP PUSH1 0x0 JUMPDEST PUSH1 0x1C SLOAD DUP2 PUSH1 0xFF AND LT ISZERO PUSH2 0xF98 JUMPI PUSH1 0x0 PUSH1 0xFF DUP1 DUP4 AND PUSH1 0x0 SWAP1 DUP2 MSTORE PUSH1 0x1A PUSH1 0x20 MSTORE PUSH1 0x40 SWAP1 KECCAK256 PUSH1 0x4 ADD SLOAD AND PUSH1 0x2 DUP2 GT ISZERO PUSH2 0x15EF JUMPI PUSH2 0x15EF PUSH2 0x43FF JUMP JUMPDEST EQ ISZERO PUSH2 0x16D8 JUMPI PUSH1 0x1A PUSH1 0x0 DUP3 PUSH1 0xFF AND DUP2 MSTORE PUSH1 0x20 ADD SWAP1 DUP2 MSTORE PUSH1 0x20 ADD PUSH1 0x0 KECCAK256 PUSH1 0x1 ADD SLOAD DUP6 DUP8 PUSH1 0xFF AND DUP2 MLOAD DUP2 LT PUSH2 0x1624 JUMPI PUSH2 0x1624 PUSH2 0x4A20 JUMP JUMPDEST PUSH1 0x20 MUL PUSH1 0x20 ADD ADD DUP2 DUP2 MSTORE POP POP PUSH1 0x1A PUSH1 0x0 DUP3 PUSH1 0xFF AND DUP2 MSTORE PUSH1 0x20 ADD SWAP1 DUP2 MSTORE PUSH1 0x20 ADD PUSH1 0x0 KECCAK256 PUSH1 0x2 ADD SLOAD DUP5 DUP8 PUSH1 0xFF AND DUP2 MLOAD DUP2 LT PUSH2 0x165F JUMPI PUSH2 0x165F PUSH2 0x4A20 JUMP JUMPDEST PUSH1 0x20 MUL PUSH1 0x20 ADD ADD DUP2 DUP2 MSTORE POP POP PUSH1 0x1A PUSH1 0x0 DUP3 PUSH1 0xFF AND DUP2 MSTORE PUSH1 0x20 ADD SWAP1 DUP2 MSTORE PUSH1 0x20 ADD PUSH1 0x0 KECCAK256 PUSH1 0x3 ADD SLOAD DUP4 DUP8 PUSH1 0xFF AND DUP2 MLOAD DUP2 LT PUSH2 0x169A JUMPI PUSH2 0x169A PUSH2 0x4A20 JUMP JUMPDEST PUSH1 0x20 MUL PUSH1 0x20 ADD ADD DUP2 DUP2 MSTORE POP POP DUP1 PUSH1 0xFF AND DUP3 DUP8 PUSH1 0xFF AND DUP2 MLOAD DUP2 LT PUSH2 0x16BF JUMPI PUSH2 0x16BF PUSH2 0x4A20 JUMP JUMPDEST PUSH1 0x20 SWAP1 DUP2 MUL SWAP2 SWAP1 SWAP2 ADD ADD MSTORE DUP6 PUSH2 0x16D4 DUP2 PUSH2 0x4888 JUMP JUMPDEST SWAP7 POP POP JUMPDEST DUP1 PUSH2 0x16E2 DUP2 PUSH2 0x4888 JUMP JUMPDEST SWAP2 POP POP PUSH2 0x15B7 JUMP JUMPDEST PUSH1 0x14 PUSH1 0x15 SLOAD DUP2 SLOAD DUP2 LT PUSH2 0x16FF JUMPI PUSH2 0x16FF PUSH2 0x4A20 JUMP JUMPDEST PUSH1 0x0 SWAP2 DUP3 MSTORE PUSH1 0x20 SWAP1 SWAP2 KECCAK256 ADD SLOAD PUSH1 0x1 PUSH1 0x1 PUSH1 0xA0 SHL SUB AND CALLER EQ PUSH2 0x171F JUMPI PUSH1 0x0 DUP1 REVERT JUMPDEST PUSH1 0x16 DUP1 SLOAD PUSH1 0x1 SWAP2 SWAP1 PUSH1 0xFF NOT AND DUP3 DUP1 PUSH2 0x1167 JUMP JUMPDEST PUSH1 0x60 DUP1 PUSH1 0x60 DUP1 PUSH1 0x60 PUSH1 0x0 DUP1 JUMPDEST PUSH1 0x18 SLOAD DUP2 PUSH1 0xFF AND LT ISZERO PUSH2 0x176B JUMPI DUP2 PUSH2 0x1755 DUP2 PUSH2 0x4A4F JUMP JUMPDEST SWAP3 POP POP DUP1 DUP1 PUSH2 0x1763 SWAP1 PUSH2 0x4888 JUMP JUMPDEST SWAP2 POP POP PUSH2 0x173E JUMP JUMPDEST POP PUSH1 0x0 DUP2 PUSH1 0x1 PUSH1 0x1 PUSH1 0x40 SHL SUB DUP2 GT ISZERO PUSH2 0x1786 JUMPI PUSH2 0x1786 PUSH2 0x42FA JUMP JUMPDEST PUSH1 0x40 MLOAD SWAP1 DUP1 DUP3 MSTORE DUP1 PUSH1 0x20 MUL PUSH1 0x20 ADD DUP3 ADD PUSH1 0x40 MSTORE DUP1 ISZERO PUSH2 0x17AF JUMPI DUP2 PUSH1 0x20 ADD PUSH1 0x20 DUP3 MUL DUP1 CALLDATASIZE DUP4 CALLDATACOPY ADD SWAP1 POP JUMPDEST POP SWAP1 POP PUSH1 0x0 DUP3 PUSH1 0x1 PUSH1 0x1 PUSH1 0x40 SHL SUB DUP2 GT ISZERO PUSH2 0x17CC JUMPI PUSH2 0x17CC PUSH2 0x42FA JUMP JUMPDEST PUSH1 0x40 MLOAD SWAP1 DUP1 DUP3 MSTORE DUP1 PUSH1 0x20 MUL PUSH1 0x20 ADD DUP3 ADD PUSH1 0x40 MSTORE DUP1 ISZERO PUSH2 0x17F5 JUMPI DUP2 PUSH1 0x20 ADD PUSH1 0x20 DUP3 MUL DUP1 CALLDATASIZE DUP4 CALLDATACOPY ADD SWAP1 POP JUMPDEST POP SWAP1 POP PUSH1 0x0 DUP4 PUSH1 0x1 PUSH1 0x1 PUSH1 0x40 SHL SUB DUP2 GT ISZERO PUSH2 0x1812 JUMPI PUSH2 0x1812 PUSH2 0x42FA JUMP JUMPDEST PUSH1 0x40 MLOAD SWAP1 DUP1 DUP3 MSTORE DUP1 PUSH1 0x20 MUL PUSH1 0x20 ADD DUP3 ADD PUSH1 0x40 MSTORE DUP1 ISZERO PUSH2 0x183B JUMPI DUP2 PUSH1 0x20 ADD PUSH1 0x20 DUP3 MUL DUP1 CALLDATASIZE DUP4 CALLDATACOPY ADD SWAP1 POP JUMPDEST POP SWAP1 POP PUSH1 0x0 DUP5 PUSH1 0x1 PUSH1 0x1 PUSH1 0x40 SHL SUB DUP2 GT ISZERO PUSH2 0x1858 JUMPI PUSH2 0x1858 PUSH2 0x42FA JUMP JUMPDEST PUSH1 0x40 MLOAD SWAP1 DUP1 DUP3 MSTORE DUP1 PUSH1 0x20 MUL PUSH1 0x20 ADD DUP3 ADD PUSH1 0x40 MSTORE DUP1 ISZERO PUSH2 0x1881 JUMPI DUP2 PUSH1 0x20 ADD PUSH1 0x20 DUP3 MUL DUP1 CALLDATASIZE DUP4 CALLDATACOPY ADD SWAP1 POP JUMPDEST POP SWAP1 POP PUSH1 0x0 DUP6 PUSH1 0x1 PUSH1 0x1 PUSH1 0x40 SHL SUB DUP2 GT ISZERO PUSH2 0x189E JUMPI PUSH2 0x189E PUSH2 0x42FA JUMP JUMPDEST PUSH1 0x40 MLOAD SWAP1 DUP1 DUP3 MSTORE DUP1 PUSH1 0x20 MUL PUSH1 0x20 ADD DUP3 ADD PUSH1 0x40 MSTORE DUP1 ISZERO PUSH2 0x18C7 JUMPI DUP2 PUSH1 0x20 ADD PUSH1 0x20 DUP3 MUL DUP1 CALLDATASIZE DUP4 CALLDATACOPY ADD SWAP1 POP JUMPDEST POP SWAP1 POP PUSH1 0x0 SWAP6 POP PUSH1 0x0 JUMPDEST PUSH1 0x18 SLOAD DUP2 PUSH1 0xFF AND LT ISZERO PUSH2 0x1A3F JUMPI PUSH1 0xFF DUP2 AND PUSH1 0x0 SWAP1 DUP2 MSTORE PUSH1 0x17 PUSH1 0x20 MSTORE PUSH1 0x40 SWAP1 KECCAK256 SLOAD DUP7 MLOAD DUP8 SWAP1 DUP10 SWAP1 DUP2 LT PUSH2 0x1905 JUMPI PUSH2 0x1905 PUSH2 0x4A20 JUMP JUMPDEST PUSH1 0x20 MUL PUSH1 0x20 ADD ADD DUP2 DUP2 MSTORE POP POP PUSH1 0x17 PUSH1 0x0 DUP3 PUSH1 0xFF AND DUP2 MSTORE PUSH1 0x20 ADD SWAP1 DUP2 MSTORE PUSH1 0x20 ADD PUSH1 0x0 KECCAK256 PUSH1 0x1 ADD SLOAD DUP6 DUP9 DUP2 MLOAD DUP2 LT PUSH2 0x193D JUMPI PUSH2 0x193D PUSH2 0x4A20 JUMP JUMPDEST PUSH1 0x20 MUL PUSH1 0x20 ADD ADD DUP2 DUP2 MSTORE POP POP PUSH1 0x17 PUSH1 0x0 DUP3 PUSH1 0xFF AND DUP2 MSTORE PUSH1 0x20 ADD SWAP1 DUP2 MSTORE PUSH1 0x20 ADD PUSH1 0x0 KECCAK256 PUSH1 0x6 ADD SLOAD DUP5 DUP9 DUP2 MLOAD DUP2 LT PUSH2 0x1975 JUMPI PUSH2 0x1975 PUSH2 0x4A20 JUMP JUMPDEST PUSH1 0x20 MUL PUSH1 0x20 ADD ADD DUP2 DUP2 MSTORE POP POP PUSH1 0x17 PUSH1 0x0 DUP3 PUSH1 0xFF AND DUP2 MSTORE PUSH1 0x20 ADD SWAP1 DUP2 MSTORE PUSH1 0x20 ADD PUSH1 0x0 KECCAK256 PUSH1 0x4 ADD PUSH1 0x0 SWAP1 SLOAD SWAP1 PUSH2 0x100 EXP SWAP1 DIV PUSH1 0x1 PUSH1 0x1 PUSH1 0xA0 SHL SUB AND DUP4 DUP9 DUP2 MLOAD DUP2 LT PUSH2 0x19C0 JUMPI PUSH2 0x19C0 PUSH2 0x4A20 JUMP JUMPDEST PUSH1 0x1 PUSH1 0x1 PUSH1 0xA0 SHL SUB SWAP3 DUP4 AND PUSH1 0x20 SWAP2 DUP3 MUL SWAP3 SWAP1 SWAP3 ADD DUP2 ADD SWAP2 SWAP1 SWAP2 MSTORE PUSH1 0xFF DUP4 AND PUSH1 0x0 SWAP1 DUP2 MSTORE PUSH1 0x17 SWAP1 SWAP2 MSTORE PUSH1 0x40 SWAP1 KECCAK256 PUSH1 0x5 ADD SLOAD DUP4 MLOAD SWAP2 AND SWAP1 DUP4 SWAP1 DUP10 SWAP1 DUP2 LT PUSH2 0x1A07 JUMPI PUSH2 0x1A07 PUSH2 0x4A20 JUMP JUMPDEST PUSH1 0x1 PUSH1 0x1 PUSH1 0xA0 SHL SUB SWAP1 SWAP3 AND PUSH1 0x20 SWAP3 DUP4 MUL SWAP2 SWAP1 SWAP2 ADD SWAP1 SWAP2 ADD MSTORE DUP7 PUSH2 0x1A29 DUP2 PUSH2 0x4A4F JUMP JUMPDEST SWAP8 POP POP DUP1 DUP1 PUSH2 0x1A37 SWAP1 PUSH2 0x4888 JUMP JUMPDEST SWAP2 POP POP PUSH2 0x18D1 JUMP JUMPDEST POP SWAP4 SWAP11 SWAP3 SWAP10 POP SWAP1 SWAP8 POP SWAP6 POP SWAP1 SWAP4 POP SWAP2 POP POP JUMP JUMPDEST PUSH1 0x60 DUP1 PUSH1 0x60 DUP1 PUSH1 0x60 DUP1 PUSH1 0x0 DUP1 JUMPDEST PUSH1 0x1B SLOAD DUP2 PUSH1 0xFF AND LT ISZERO PUSH2 0x1AB2 JUMPI PUSH1 0xFF DUP2 AND PUSH1 0x0 SWAP1 DUP2 MSTORE PUSH1 0x19 PUSH1 0x20 MSTORE PUSH1 0x40 SWAP1 KECCAK256 SLOAD PUSH1 0x1 PUSH1 0x1 PUSH1 0xA0 SHL SUB DUP11 DUP2 AND SWAP2 AND EQ ISZERO PUSH2 0x1AA0 JUMPI DUP2 PUSH2 0x1A9C DUP2 PUSH2 0x4888 JUMP JUMPDEST SWAP3 POP POP JUMPDEST DUP1 PUSH2 0x1AAA DUP2 PUSH2 0x4888 JUMP JUMPDEST SWAP2 POP POP PUSH2 0x1A5F JUMP JUMPDEST POP PUSH1 0x0 DUP2 PUSH1 0xFF AND PUSH1 0x1 PUSH1 0x1 PUSH1 0x40 SHL SUB DUP2 GT ISZERO PUSH2 0x1AD0 JUMPI PUSH2 0x1AD0 PUSH2 0x42FA JUMP JUMPDEST PUSH1 0x40 MLOAD SWAP1 DUP1 DUP3 MSTORE DUP1 PUSH1 0x20 MUL PUSH1 0x20 ADD DUP3 ADD PUSH1 0x40 MSTORE DUP1 ISZERO PUSH2 0x1AF9 JUMPI DUP2 PUSH1 0x20 ADD PUSH1 0x20 DUP3 MUL DUP1 CALLDATASIZE DUP4 CALLDATACOPY ADD SWAP1 POP JUMPDEST POP SWAP1 POP PUSH1 0x0 DUP3 PUSH1 0xFF AND PUSH1 0x1 PUSH1 0x1 PUSH1 0x40 SHL SUB DUP2 GT ISZERO PUSH2 0x1B19 JUMPI PUSH2 0x1B19 PUSH2 0x42FA JUMP JUMPDEST PUSH1 0x40 MLOAD SWAP1 DUP1 DUP3 MSTORE DUP1 PUSH1 0x20 MUL PUSH1 0x20 ADD DUP3 ADD PUSH1 0x40 MSTORE DUP1 ISZERO PUSH2 0x1B42 JUMPI DUP2 PUSH1 0x20 ADD PUSH1 0x20 DUP3 MUL DUP1 CALLDATASIZE DUP4 CALLDATACOPY ADD SWAP1 POP JUMPDEST POP SWAP1 POP PUSH1 0x0 DUP4 PUSH1 0xFF AND PUSH1 0x1 PUSH1 0x1 PUSH1 0x40 SHL SUB DUP2 GT ISZERO PUSH2 0x1B62 JUMPI PUSH2 0x1B62 PUSH2 0x42FA JUMP JUMPDEST PUSH1 0x40 MLOAD SWAP1 DUP1 DUP3 MSTORE DUP1 PUSH1 0x20 MUL PUSH1 0x20 ADD DUP3 ADD PUSH1 0x40 MSTORE DUP1 ISZERO PUSH2 0x1B8B JUMPI DUP2 PUSH1 0x20 ADD PUSH1 0x20 DUP3 MUL DUP1 CALLDATASIZE DUP4 CALLDATACOPY ADD SWAP1 POP JUMPDEST POP SWAP1 POP PUSH1 0x0 DUP5 PUSH1 0xFF AND PUSH1 0x1 PUSH1 0x1 PUSH1 0x40 SHL SUB DUP2 GT ISZERO PUSH2 0x1BAB JUMPI PUSH2 0x1BAB PUSH2 0x42FA JUMP JUMPDEST PUSH1 0x40 MLOAD SWAP1 DUP1 DUP3 MSTORE DUP1 PUSH1 0x20 MUL PUSH1 0x20 ADD DUP3 ADD PUSH1 0x40 MSTORE DUP1 ISZERO PUSH2 0x1BD4 JUMPI DUP2 PUSH1 0x20 ADD PUSH1 0x20 DUP3 MUL DUP1 CALLDATASIZE DUP4 CALLDATACOPY ADD SWAP1 POP JUMPDEST POP SWAP1 POP PUSH1 0x0 DUP6 PUSH1 0xFF AND PUSH1 0x1 PUSH1 0x1 PUSH1 0x40 SHL SUB DUP2 GT ISZERO PUSH2 0x1BF4 JUMPI PUSH2 0x1BF4 PUSH2 0x42FA JUMP JUMPDEST PUSH1 0x40 MLOAD SWAP1 DUP1 DUP3 MSTORE DUP1 PUSH1 0x20 MUL PUSH1 0x20 ADD DUP3 ADD PUSH1 0x40 MSTORE DUP1 ISZERO PUSH2 0x1C1D JUMPI DUP2 PUSH1 0x20 ADD PUSH1 0x20 DUP3 MUL DUP1 CALLDATASIZE DUP4 CALLDATACOPY ADD SWAP1 POP JUMPDEST POP SWAP1 POP PUSH1 0x0 DUP7 PUSH1 0xFF AND PUSH1 0x1 PUSH1 0x1 PUSH1 0x40 SHL SUB DUP2 GT ISZERO PUSH2 0x1C3D JUMPI PUSH2 0x1C3D PUSH2 0x42FA JUMP JUMPDEST PUSH1 0x40 MLOAD SWAP1 DUP1 DUP3 MSTORE DUP1 PUSH1 0x20 MUL PUSH1 0x20 ADD DUP3 ADD PUSH1 0x40 MSTORE DUP1 ISZERO PUSH2 0x1C66 JUMPI DUP2 PUSH1 0x20 ADD PUSH1 0x20 DUP3 MUL DUP1 CALLDATASIZE DUP4 CALLDATACOPY ADD SWAP1 POP JUMPDEST POP SWAP1 POP PUSH1 0x0 SWAP7 POP PUSH1 0x0 JUMPDEST PUSH1 0x1B SLOAD DUP2 PUSH1 0xFF AND LT ISZERO PUSH2 0x1E7A JUMPI DUP15 PUSH1 0x1 PUSH1 0x1 PUSH1 0xA0 SHL SUB AND PUSH1 0x19 PUSH1 0x0 DUP4 PUSH1 0xFF AND DUP2 MSTORE PUSH1 0x20 ADD SWAP1 DUP2 MSTORE PUSH1 0x20 ADD PUSH1 0x0 KECCAK256 PUSH1 0x0 ADD PUSH1 0x0 SWAP1 SLOAD SWAP1 PUSH2 0x100 EXP SWAP1 DIV PUSH1 0x1 PUSH1 0x1 PUSH1 0xA0 SHL SUB AND PUSH1 0x1 PUSH1 0x1 PUSH1 0xA0 SHL SUB AND EQ ISZERO PUSH2 0x1E68 JUMPI PUSH1 0xFF DUP1 DUP3 AND PUSH1 0x0 SWAP1 DUP2 MSTORE PUSH1 0x19 PUSH1 0x20 MSTORE PUSH1 0x40 SWAP1 KECCAK256 SLOAD DUP9 MLOAD PUSH1 0x1 PUSH1 0x1 PUSH1 0xA0 SHL SUB SWAP1 SWAP2 AND SWAP2 DUP10 SWAP2 SWAP1 DUP12 AND SWAP1 DUP2 LT PUSH2 0x1CF9 JUMPI PUSH2 0x1CF9 PUSH2 0x4A20 JUMP JUMPDEST PUSH1 0x20 MUL PUSH1 0x20 ADD ADD SWAP1 PUSH1 0x1 PUSH1 0x1 PUSH1 0xA0 SHL SUB AND SWAP1 DUP2 PUSH1 0x1 PUSH1 0x1 PUSH1 0xA0 SHL SUB AND DUP2 MSTORE POP POP PUSH1 0x19 PUSH1 0x0 DUP3 PUSH1 0xFF AND DUP2 MSTORE PUSH1 0x20 ADD SWAP1 DUP2 MSTORE PUSH1 0x20 ADD PUSH1 0x0 KECCAK256 PUSH1 0x1 ADD SLOAD DUP7 DUP10 PUSH1 0xFF AND DUP2 MLOAD DUP2 LT PUSH2 0x1D48 JUMPI PUSH2 0x1D48 PUSH2 0x4A20 JUMP JUMPDEST PUSH1 0x20 MUL PUSH1 0x20 ADD ADD DUP2 DUP2 MSTORE POP POP PUSH1 0x19 PUSH1 0x0 DUP3 PUSH1 0xFF AND DUP2 MSTORE PUSH1 0x20 ADD SWAP1 DUP2 MSTORE PUSH1 0x20 ADD PUSH1 0x0 KECCAK256 PUSH1 0x2 ADD SLOAD DUP6 DUP10 PUSH1 0xFF AND DUP2 MLOAD DUP2 LT PUSH2 0x1D83 JUMPI PUSH2 0x1D83 PUSH2 0x4A20 JUMP JUMPDEST PUSH1 0x20 MUL PUSH1 0x20 ADD ADD DUP2 DUP2 MSTORE POP POP PUSH1 0x19 PUSH1 0x0 DUP3 PUSH1 0xFF AND DUP2 MSTORE PUSH1 0x20 ADD SWAP1 DUP2 MSTORE PUSH1 0x20 ADD PUSH1 0x0 KECCAK256 PUSH1 0x3 ADD SLOAD DUP5 DUP10 PUSH1 0xFF AND DUP2 MLOAD DUP2 LT PUSH2 0x1DBE JUMPI PUSH2 0x1DBE PUSH2 0x4A20 JUMP JUMPDEST PUSH1 0x20 MUL PUSH1 0x20 ADD ADD DUP2 DUP2 MSTORE POP POP DUP1 PUSH1 0xFF AND DUP4 DUP10 PUSH1 0xFF AND DUP2 MLOAD DUP2 LT PUSH2 0x1DE3 JUMPI PUSH2 0x1DE3 PUSH2 0x4A20 JUMP JUMPDEST PUSH1 0x20 MUL PUSH1 0x20 ADD ADD DUP2 DUP2 MSTORE POP POP PUSH1 0x19 PUSH1 0x0 DUP3 PUSH1 0xFF AND DUP2 MSTORE PUSH1 0x20 ADD SWAP1 DUP2 MSTORE PUSH1 0x20 ADD PUSH1 0x0 KECCAK256 PUSH1 0x4 ADD PUSH1 0x0 SWAP1 SLOAD SWAP1 PUSH2 0x100 EXP SWAP1 DIV PUSH1 0xFF AND DUP3 DUP10 PUSH1 0xFF AND DUP2 MLOAD DUP2 LT PUSH2 0x1E2B JUMPI PUSH2 0x1E2B PUSH2 0x4A20 JUMP JUMPDEST PUSH1 0x20 MUL PUSH1 0x20 ADD ADD SWAP1 PUSH1 0x2 DUP2 GT ISZERO PUSH2 0x1E44 JUMPI PUSH2 0x1E44 PUSH2 0x43FF JUMP JUMPDEST SWAP1 DUP2 PUSH1 0x2 DUP2 GT ISZERO PUSH2 0x1E57 JUMPI PUSH2 0x1E57 PUSH2 0x43FF JUMP JUMPDEST SWAP1 MSTORE POP DUP8 PUSH2 0x1E64 DUP2 PUSH2 0x4888 JUMP JUMPDEST SWAP9 POP POP JUMPDEST DUP1 PUSH2 0x1E72 DUP2 PUSH2 0x4888 JUMP JUMPDEST SWAP2 POP POP PUSH2 0x1C70 JUMP JUMPDEST POP SWAP5 SWAP14 SWAP4 SWAP13 POP SWAP2 SWAP11 POP SWAP9 POP SWAP2 SWAP7 POP SWAP1 SWAP5 POP SWAP3 POP POP POP JUMP JUMPDEST PUSH1 0x60 PUSH1 0x4 DUP1 SLOAD PUSH2 0x945 SWAP1 PUSH2 0x4825 JUMP JUMPDEST PUSH1 0x14 PUSH1 0x15 SLOAD DUP2 SLOAD DUP2 LT PUSH2 0x1EB5 JUMPI PUSH2 0x1EB5 PUSH2 0x4A20 JUMP JUMPDEST PUSH1 0x0 SWAP2 DUP3 MSTORE PUSH1 0x20 SWAP1 SWAP2 KECCAK256 ADD SLOAD PUSH1 0x1 PUSH1 0x1 PUSH1 0xA0 SHL SUB AND CALLER EQ PUSH2 0x1ED5 JUMPI PUSH1 0x0 DUP1 REVERT JUMPDEST DUP6 MLOAD ISZERO PUSH2 0x1EF1 JUMPI DUP6 MLOAD PUSH2 0x1EEF SWAP1 PUSH1 0x6 SWAP1 PUSH1 0x20 DUP10 ADD SWAP1 PUSH2 0x40D3 JUMP JUMPDEST POP JUMPDEST DUP5 MLOAD ISZERO PUSH2 0x1F0D JUMPI DUP5 MLOAD PUSH2 0x1F0B SWAP1 PUSH1 0x7 SWAP1 PUSH1 0x20 DUP9 ADD SWAP1 PUSH2 0x40D3 JUMP JUMPDEST POP JUMPDEST DUP4 MLOAD ISZERO PUSH2 0x1F29 JUMPI DUP4 MLOAD PUSH2 0x1F27 SWAP1 PUSH1 0x8 SWAP1 PUSH1 0x20 DUP8 ADD SWAP1 PUSH2 0x40D3 JUMP JUMPDEST POP JUMPDEST DUP3 MLOAD ISZERO PUSH2 0x1F45 JUMPI DUP3 MLOAD PUSH2 0x1F43 SWAP1 PUSH1 0xA SWAP1 PUSH1 0x20 DUP7 ADD SWAP1 PUSH2 0x40D3 JUMP JUMPDEST POP JUMPDEST DUP2 ISZERO PUSH2 0x1F51 JUMPI PUSH1 0x9 DUP3 SWAP1 SSTORE JUMPDEST DUP1 MLOAD ISZERO PUSH2 0x1F6D JUMPI DUP1 MLOAD PUSH2 0x1F6B SWAP1 PUSH1 0xB SWAP1 PUSH1 0x20 DUP5 ADD SWAP1 PUSH2 0x40D3 JUMP JUMPDEST POP JUMPDEST POP POP POP POP POP POP JUMP JUMPDEST PUSH1 0x0 PUSH1 0x14 PUSH1 0x15 SLOAD DUP2 SLOAD DUP2 LT PUSH2 0x1F8C JUMPI PUSH2 0x1F8C PUSH2 0x4A20 JUMP JUMPDEST PUSH1 0x0 SWAP2 DUP3 MSTORE PUSH1 0x20 SWAP1 SWAP2 KECCAK256 ADD SLOAD PUSH1 0x1 PUSH1 0x1 PUSH1 0xA0 SHL SUB AND CALLER EQ PUSH2 0x1FAC JUMPI PUSH1 0x0 DUP1 REVERT JUMPDEST POP PUSH1 0x12 SLOAD PUSH1 0x1 PUSH1 0x1 PUSH1 0xA0 SHL SUB AND SWAP1 JUMP JUMPDEST PUSH1 0x40 MLOAD PUSH4 0x70A08231 PUSH1 0xE0 SHL DUP2 MSTORE ADDRESS PUSH1 0x4 DUP3 ADD DUP2 SWAP1 MSTORE PUSH1 0x0 SWAP2 PUSH4 0x70A08231 SWAP1 PUSH1 0x24 ADD PUSH1 0x20 PUSH1 0x40 MLOAD DUP1 DUP4 SUB DUP2 DUP7 GAS STATICCALL ISZERO DUP1 ISZERO PUSH2 0x1FFA JUMPI RETURNDATASIZE PUSH1 0x0 DUP1 RETURNDATACOPY RETURNDATASIZE PUSH1 0x0 REVERT JUMPDEST POP POP POP POP PUSH1 0x40 MLOAD RETURNDATASIZE PUSH1 0x1F NOT PUSH1 0x1F DUP3 ADD AND DUP3 ADD DUP1 PUSH1 0x40 MSTORE POP DUP2 ADD SWAP1 PUSH2 0x201E SWAP2 SWAP1 PUSH2 0x4A36 JUMP JUMPDEST SWAP1 POP SWAP1 JUMP JUMPDEST PUSH1 0x60 PUSH1 0x14 DUP1 SLOAD DUP1 PUSH1 0x20 MUL PUSH1 0x20 ADD PUSH1 0x40 MLOAD SWAP1 DUP2 ADD PUSH1 0x40 MSTORE DUP1 SWAP3 SWAP2 SWAP1 DUP2 DUP2 MSTORE PUSH1 0x20 ADD DUP3 DUP1 SLOAD DUP1 ISZERO PUSH2 0x9BE JUMPI PUSH1 0x20 MUL DUP3 ADD SWAP2 SWAP1 PUSH1 0x0 MSTORE PUSH1 0x20 PUSH1 0x0 KECCAK256 SWAP1 JUMPDEST DUP2 SLOAD PUSH1 0x1 PUSH1 0x1 PUSH1 0xA0 SHL SUB AND DUP2 MSTORE PUSH1 0x1 SWAP1 SWAP2 ADD SWAP1 PUSH1 0x20 ADD DUP1 DUP4 GT PUSH2 0x205D JUMPI POP POP POP POP POP SWAP1 POP SWAP1 JUMP JUMPDEST PUSH1 0x0 DUP1 DUP4 GT PUSH2 0x20A5 JUMPI PUSH1 0x40 MLOAD PUSH3 0x461BCD PUSH1 0xE5 SHL DUP2 MSTORE PUSH1 0x4 ADD PUSH2 0xA8D SWAP1 PUSH2 0x4A6A JUMP JUMPDEST PUSH1 0x0 DUP3 GT PUSH2 0x20C5 JUMPI PUSH1 0x40 MLOAD PUSH3 0x461BCD PUSH1 0xE5 SHL DUP2 MSTORE PUSH1 0x4 ADD PUSH2 0xA8D SWAP1 PUSH2 0x4A6A JUMP JUMPDEST PUSH1 0x40 MLOAD PUSH4 0x23B872DD PUSH1 0xE0 SHL DUP2 MSTORE CALLER PUSH1 0x4 DUP3 ADD MSTORE ADDRESS PUSH1 0x24 DUP3 ADD DUP2 SWAP1 MSTORE PUSH1 0x44 DUP3 ADD DUP6 SWAP1 MSTORE SWAP1 PUSH4 0x23B872DD SWAP1 PUSH1 0x64 ADD PUSH1 0x20 PUSH1 0x40 MLOAD DUP1 DUP4 SUB DUP2 PUSH1 0x0 DUP8 GAS CALL ISZERO DUP1 ISZERO PUSH2 0x2110 JUMPI RETURNDATASIZE PUSH1 0x0 DUP1 RETURNDATACOPY RETURNDATASIZE PUSH1 0x0 REVERT JUMPDEST POP POP POP POP PUSH1 0x40 MLOAD RETURNDATASIZE PUSH1 0x1F NOT PUSH1 0x1F DUP3 ADD AND DUP3 ADD DUP1 PUSH1 0x40 MSTORE POP DUP2 ADD SWAP1 PUSH2 0x2134 SWAP2 SWAP1 PUSH2 0x48A8 JUMP JUMPDEST POP PUSH1 0x40 DUP1 MLOAD PUSH1 0xA0 DUP2 ADD DUP3 MSTORE CALLER DUP2 MSTORE PUSH1 0x20 DUP1 DUP3 ADD DUP7 DUP2 MSTORE DUP3 DUP5 ADD DUP7 DUP2 MSTORE PUSH1 0x60 DUP5 ADD DUP9 DUP2 MSTORE PUSH1 0x0 PUSH1 0x80 DUP7 ADD DUP2 DUP2 MSTORE PUSH1 0x1C SLOAD DUP3 MSTORE PUSH1 0x1A SWAP1 SWAP6 MSTORE SWAP6 SWAP1 SWAP6 KECCAK256 DUP5 MLOAD DUP2 SLOAD PUSH1 0x1 PUSH1 0x1 PUSH1 0xA0 SHL SUB NOT AND PUSH1 0x1 PUSH1 0x1 PUSH1 0xA0 SHL SUB SWAP1 SWAP2 AND OR DUP2 SSTORE SWAP2 MLOAD PUSH1 0x1 DUP1 DUP5 ADD SWAP2 SWAP1 SWAP2 SSTORE SWAP1 MLOAD PUSH1 0x2 DUP1 DUP5 ADD SWAP2 SWAP1 SWAP2 SSTORE SWAP5 MLOAD PUSH1 0x3 DUP4 ADD SSTORE SWAP2 MLOAD PUSH1 0x4 DUP3 ADD DUP1 SLOAD SWAP5 SWAP6 SWAP3 SWAP5 SWAP2 SWAP4 SWAP1 SWAP3 PUSH1 0xFF NOT SWAP1 SWAP3 AND SWAP2 DUP5 SWAP1 DUP2 GT ISZERO PUSH2 0x21CF JUMPI PUSH2 0x21CF PUSH2 0x43FF JUMP JUMPDEST MUL OR SWAP1 SSTORE POP SWAP1 POP POP PUSH2 0x21E2 PUSH1 0x1C SLOAD PUSH2 0x37B2 JUMP JUMPDEST PUSH1 0x1 PUSH1 0x1C PUSH1 0x0 DUP3 DUP3 SLOAD PUSH2 0x21F5 SWAP2 SWAP1 PUSH2 0x4870 JUMP JUMPDEST SWAP1 SWAP2 SSTORE POP POP PUSH1 0x1C SLOAD PUSH2 0x2209 SWAP1 PUSH1 0x1 SWAP1 PUSH2 0x4AA1 JUMP JUMPDEST SWAP4 SWAP3 POP POP POP JUMP JUMPDEST CALLER PUSH1 0x0 SWAP1 DUP2 MSTORE PUSH1 0x1 PUSH1 0x20 SWAP1 DUP2 MSTORE PUSH1 0x40 DUP1 DUP4 KECCAK256 PUSH1 0x1 PUSH1 0x1 PUSH1 0xA0 SHL SUB DUP7 AND DUP5 MSTORE SWAP1 SWAP2 MSTORE DUP2 KECCAK256 SLOAD DUP3 DUP2 LT ISZERO PUSH2 0x2292 JUMPI PUSH1 0x40 MLOAD PUSH3 0x461BCD PUSH1 0xE5 SHL DUP2 MSTORE PUSH1 0x20 PUSH1 0x4 DUP3 ADD MSTORE PUSH1 0x25 PUSH1 0x24 DUP3 ADD MSTORE PUSH32 0x45524332303A2064656372656173656420616C6C6F77616E63652062656C6F77 PUSH1 0x44 DUP3 ADD MSTORE PUSH5 0x207A65726F PUSH1 0xD8 SHL PUSH1 0x64 DUP3 ADD MSTORE PUSH1 0x84 ADD PUSH2 0xA8D JUMP JUMPDEST PUSH2 0x229F CALLER DUP6 DUP6 DUP5 SUB PUSH2 0x34BF JUMP JUMPDEST POP PUSH1 0x1 SWAP4 SWAP3 POP POP POP JUMP JUMPDEST PUSH1 0x14 PUSH1 0x15 SLOAD DUP2 SLOAD DUP2 LT PUSH2 0x22BE JUMPI PUSH2 0x22BE PUSH2 0x4A20 JUMP JUMPDEST PUSH1 0x0 SWAP2 DUP3 MSTORE PUSH1 0x20 SWAP1 SWAP2 KECCAK256 ADD SLOAD PUSH1 0x1 PUSH1 0x1 PUSH1 0xA0 SHL SUB AND CALLER EQ PUSH2 0x22DE JUMPI PUSH1 0x0 DUP1 REVERT JUMPDEST PUSH1 0x11 SSTORE JUMP JUMPDEST PUSH1 0x0 PUSH2 0x9D5 CALLER DUP5 DUP5 PUSH2 0x35E3 JUMP JUMPDEST PUSH1 0x60 DUP1 PUSH1 0x60 DUP1 PUSH1 0x60 DUP1 PUSH1 0x0 DUP1 JUMPDEST PUSH1 0x1C SLOAD DUP2 PUSH1 0xFF AND LT ISZERO PUSH2 0x2350 JUMPI PUSH1 0xFF DUP2 AND PUSH1 0x0 SWAP1 DUP2 MSTORE PUSH1 0x1A PUSH1 0x20 MSTORE PUSH1 0x40 SWAP1 KECCAK256 SLOAD PUSH1 0x1 PUSH1 0x1 PUSH1 0xA0 SHL SUB DUP11 DUP2 AND SWAP2 AND EQ ISZERO PUSH2 0x233E JUMPI DUP2 PUSH2 0x233A DUP2 PUSH2 0x4888 JUMP JUMPDEST SWAP3 POP POP JUMPDEST DUP1 PUSH2 0x2348 DUP2 PUSH2 0x4888 JUMP JUMPDEST SWAP2 POP POP PUSH2 0x22FD JUMP JUMPDEST POP PUSH1 0x0 DUP2 PUSH1 0xFF AND PUSH1 0x1 PUSH1 0x1 PUSH1 0x40 SHL SUB DUP2 GT ISZERO PUSH2 0x236E JUMPI PUSH2 0x236E PUSH2 0x42FA JUMP JUMPDEST PUSH1 0x40 MLOAD SWAP1 DUP1 DUP3 MSTORE DUP1 PUSH1 0x20 MUL PUSH1 0x20 ADD DUP3 ADD PUSH1 0x40 MSTORE DUP1 ISZERO PUSH2 0x2397 JUMPI DUP2 PUSH1 0x20 ADD PUSH1 0x20 DUP3 MUL DUP1 CALLDATASIZE DUP4 CALLDATACOPY ADD SWAP1 POP JUMPDEST POP SWAP1 POP PUSH1 0x0 DUP3 PUSH1 0xFF AND PUSH1 0x1 PUSH1 0x1 PUSH1 0x40 SHL SUB DUP2 GT ISZERO PUSH2 0x23B7 JUMPI PUSH2 0x23B7 PUSH2 0x42FA JUMP JUMPDEST PUSH1 0x40 MLOAD SWAP1 DUP1 DUP3 MSTORE DUP1 PUSH1 0x20 MUL PUSH1 0x20 ADD DUP3 ADD PUSH1 0x40 MSTORE DUP1 ISZERO PUSH2 0x23E0 JUMPI DUP2 PUSH1 0x20 ADD PUSH1 0x20 DUP3 MUL DUP1 CALLDATASIZE DUP4 CALLDATACOPY ADD SWAP1 POP JUMPDEST POP SWAP1 POP PUSH1 0x0 DUP4 PUSH1 0xFF AND PUSH1 0x1 PUSH1 0x1 PUSH1 0x40 SHL SUB DUP2 GT ISZERO PUSH2 0x2400 JUMPI PUSH2 0x2400 PUSH2 0x42FA JUMP JUMPDEST PUSH1 0x40 MLOAD SWAP1 DUP1 DUP3 MSTORE DUP1 PUSH1 0x20 MUL PUSH1 0x20 ADD DUP3 ADD PUSH1 0x40 MSTORE DUP1 ISZERO PUSH2 0x2429 JUMPI DUP2 PUSH1 0x20 ADD PUSH1 0x20 DUP3 MUL DUP1 CALLDATASIZE DUP4 CALLDATACOPY ADD SWAP1 POP JUMPDEST POP SWAP1 POP PUSH1 0x0 DUP5 PUSH1 0xFF AND PUSH1 0x1 PUSH1 0x1 PUSH1 0x40 SHL SUB DUP2 GT ISZERO PUSH2 0x2449 JUMPI PUSH2 0x2449 PUSH2 0x42FA JUMP JUMPDEST PUSH1 0x40 MLOAD SWAP1 DUP1 DUP3 MSTORE DUP1 PUSH1 0x20 MUL PUSH1 0x20 ADD DUP3 ADD PUSH1 0x40 MSTORE DUP1 ISZERO PUSH2 0x2472 JUMPI DUP2 PUSH1 0x20 ADD PUSH1 0x20 DUP3 MUL DUP1 CALLDATASIZE DUP4 CALLDATACOPY ADD SWAP1 POP JUMPDEST POP SWAP1 POP PUSH1 0x0 DUP6 PUSH1 0xFF AND PUSH1 0x1 PUSH1 0x1 PUSH1 0x40 SHL SUB DUP2 GT ISZERO PUSH2 0x2492 JUMPI PUSH2 0x2492 PUSH2 0x42FA JUMP JUMPDEST PUSH1 0x40 MLOAD SWAP1 DUP1 DUP3 MSTORE DUP1 PUSH1 0x20 MUL PUSH1 0x20 ADD DUP3 ADD PUSH1 0x40 MSTORE DUP1 ISZERO PUSH2 0x24BB JUMPI DUP2 PUSH1 0x20 ADD PUSH1 0x20 DUP3 MUL DUP1 CALLDATASIZE DUP4 CALLDATACOPY ADD SWAP1 POP JUMPDEST POP SWAP1 POP PUSH1 0x0 DUP7 PUSH1 0xFF AND PUSH1 0x1 PUSH1 0x1 PUSH1 0x40 SHL SUB DUP2 GT ISZERO PUSH2 0x24DB JUMPI PUSH2 0x24DB PUSH2 0x42FA JUMP JUMPDEST PUSH1 0x40 MLOAD SWAP1 DUP1 DUP3 MSTORE DUP1 PUSH1 0x20 MUL PUSH1 0x20 ADD DUP3 ADD PUSH1 0x40 MSTORE DUP1 ISZERO PUSH2 0x2504 JUMPI DUP2 PUSH1 0x20 ADD PUSH1 0x20 DUP3 MUL DUP1 CALLDATASIZE DUP4 CALLDATACOPY ADD SWAP1 POP JUMPDEST POP SWAP1 POP PUSH1 0x0 SWAP7 POP PUSH1 0x0 JUMPDEST PUSH1 0x1C SLOAD DUP2 PUSH1 0xFF AND LT ISZERO PUSH2 0x1E7A JUMPI DUP15 PUSH1 0x1 PUSH1 0x1 PUSH1 0xA0 SHL SUB AND PUSH1 0x1A PUSH1 0x0 DUP4 PUSH1 0xFF AND DUP2 MSTORE PUSH1 0x20 ADD SWAP1 DUP2 MSTORE PUSH1 0x20 ADD PUSH1 0x0 KECCAK256 PUSH1 0x0 ADD PUSH1 0x0 SWAP1 SLOAD SWAP1 PUSH2 0x100 EXP SWAP1 DIV PUSH1 0x1 PUSH1 0x1 PUSH1 0xA0 SHL SUB AND PUSH1 0x1 PUSH1 0x1 PUSH1 0xA0 SHL SUB AND EQ ISZERO PUSH2 0x2706 JUMPI PUSH1 0xFF DUP1 DUP3 AND PUSH1 0x0 SWAP1 DUP2 MSTORE PUSH1 0x1A PUSH1 0x20 MSTORE PUSH1 0x40 SWAP1 KECCAK256 SLOAD DUP9 MLOAD PUSH1 0x1 PUSH1 0x1 PUSH1 0xA0 SHL SUB SWAP1 SWAP2 AND SWAP2 DUP10 SWAP2 SWAP1 DUP12 AND SWAP1 DUP2 LT PUSH2 0x2597 JUMPI PUSH2 0x2597 PUSH2 0x4A20 JUMP JUMPDEST PUSH1 0x20 MUL PUSH1 0x20 ADD ADD SWAP1 PUSH1 0x1 PUSH1 0x1 PUSH1 0xA0 SHL SUB AND SWAP1 DUP2 PUSH1 0x1 PUSH1 0x1 PUSH1 0xA0 SHL SUB AND DUP2 MSTORE POP POP PUSH1 0x1A PUSH1 0x0 DUP3 PUSH1 0xFF AND DUP2 MSTORE PUSH1 0x20 ADD SWAP1 DUP2 MSTORE PUSH1 0x20 ADD PUSH1 0x0 KECCAK256 PUSH1 0x1 ADD SLOAD DUP7 DUP10 PUSH1 0xFF AND DUP2 MLOAD DUP2 LT PUSH2 0x25E6 JUMPI PUSH2 0x25E6 PUSH2 0x4A20 JUMP JUMPDEST PUSH1 0x20 MUL PUSH1 0x20 ADD ADD DUP2 DUP2 MSTORE POP POP PUSH1 0x1A PUSH1 0x0 DUP3 PUSH1 0xFF AND DUP2 MSTORE PUSH1 0x20 ADD SWAP1 DUP2 MSTORE PUSH1 0x20 ADD PUSH1 0x0 KECCAK256 PUSH1 0x2 ADD SLOAD DUP6 DUP10 PUSH1 0xFF AND DUP2 MLOAD DUP2 LT PUSH2 0x2621 JUMPI PUSH2 0x2621 PUSH2 0x4A20 JUMP JUMPDEST PUSH1 0x20 MUL PUSH1 0x20 ADD ADD DUP2 DUP2 MSTORE POP POP PUSH1 0x1A PUSH1 0x0 DUP3 PUSH1 0xFF AND DUP2 MSTORE PUSH1 0x20 ADD SWAP1 DUP2 MSTORE PUSH1 0x20 ADD PUSH1 0x0 KECCAK256 PUSH1 0x3 ADD SLOAD DUP5 DUP10 PUSH1 0xFF AND DUP2 MLOAD DUP2 LT PUSH2 0x265C JUMPI PUSH2 0x265C PUSH2 0x4A20 JUMP JUMPDEST PUSH1 0x20 MUL PUSH1 0x20 ADD ADD DUP2 DUP2 MSTORE POP POP PUSH1 0x1A PUSH1 0x0 DUP3 PUSH1 0xFF AND DUP2 MSTORE PUSH1 0x20 ADD SWAP1 DUP2 MSTORE PUSH1 0x20 ADD PUSH1 0x0 KECCAK256 PUSH1 0x4 ADD PUSH1 0x0 SWAP1 SLOAD SWAP1 PUSH2 0x100 EXP SWAP1 DIV PUSH1 0xFF AND DUP3 DUP10 PUSH1 0xFF AND DUP2 MLOAD DUP2 LT PUSH2 0x26A4 JUMPI PUSH2 0x26A4 PUSH2 0x4A20 JUMP JUMPDEST PUSH1 0x20 MUL PUSH1 0x20 ADD ADD SWAP1 PUSH1 0x2 DUP2 GT ISZERO PUSH2 0x26BD JUMPI PUSH2 0x26BD PUSH2 0x43FF JUMP JUMPDEST SWAP1 DUP2 PUSH1 0x2 DUP2 GT ISZERO PUSH2 0x26D0 JUMPI PUSH2 0x26D0 PUSH2 0x43FF JUMP JUMPDEST DUP2 MSTORE POP POP DUP1 PUSH1 0xFF AND DUP4 DUP10 PUSH1 0xFF AND DUP2 MLOAD DUP2 LT PUSH2 0x26ED JUMPI PUSH2 0x26ED PUSH2 0x4A20 JUMP JUMPDEST PUSH1 0x20 SWAP1 DUP2 MUL SWAP2 SWAP1 SWAP2 ADD ADD MSTORE DUP8 PUSH2 0x2702 DUP2 PUSH2 0x4888 JUMP JUMPDEST SWAP9 POP POP JUMPDEST DUP1 PUSH2 0x2710 DUP2 PUSH2 0x4888 JUMP JUMPDEST SWAP2 POP POP PUSH2 0x250E JUMP JUMPDEST PUSH1 0x0 DUP2 DUP2 MSTORE PUSH1 0x5 PUSH1 0x20 MSTORE PUSH1 0x40 SWAP1 KECCAK256 DUP1 SLOAD PUSH1 0x60 SWAP2 DUP3 SWAP2 PUSH1 0x1 DUP3 ADD SWAP1 DUP3 SWAP1 PUSH2 0x273D SWAP1 PUSH2 0x4825 JUMP JUMPDEST DUP1 PUSH1 0x1F ADD PUSH1 0x20 DUP1 SWAP2 DIV MUL PUSH1 0x20 ADD PUSH1 0x40 MLOAD SWAP1 DUP2 ADD PUSH1 0x40 MSTORE DUP1 SWAP3 SWAP2 SWAP1 DUP2 DUP2 MSTORE PUSH1 0x20 ADD DUP3 DUP1 SLOAD PUSH2 0x2769 SWAP1 PUSH2 0x4825 JUMP JUMPDEST DUP1 ISZERO PUSH2 0x27B6 JUMPI DUP1 PUSH1 0x1F LT PUSH2 0x278B JUMPI PUSH2 0x100 DUP1 DUP4 SLOAD DIV MUL DUP4 MSTORE SWAP2 PUSH1 0x20 ADD SWAP2 PUSH2 0x27B6 JUMP JUMPDEST DUP3 ADD SWAP2 SWAP1 PUSH1 0x0 MSTORE PUSH1 0x20 PUSH1 0x0 KECCAK256 SWAP1 JUMPDEST DUP2 SLOAD DUP2 MSTORE SWAP1 PUSH1 0x1 ADD SWAP1 PUSH1 0x20 ADD DUP1 DUP4 GT PUSH2 0x2799 JUMPI DUP3 SWAP1 SUB PUSH1 0x1F AND DUP3 ADD SWAP2 JUMPDEST POP POP POP POP POP SWAP2 POP DUP1 DUP1 SLOAD PUSH2 0x27C9 SWAP1 PUSH2 0x4825 JUMP JUMPDEST DUP1 PUSH1 0x1F ADD PUSH1 0x20 DUP1 SWAP2 DIV MUL PUSH1 0x20 ADD PUSH1 0x40 MLOAD SWAP1 DUP2 ADD PUSH1 0x40 MSTORE DUP1 SWAP3 SWAP2 SWAP1 DUP2 DUP2 MSTORE PUSH1 0x20 ADD DUP3 DUP1 SLOAD PUSH2 0x27F5 SWAP1 PUSH2 0x4825 JUMP JUMPDEST DUP1 ISZERO PUSH2 0x2842 JUMPI DUP1 PUSH1 0x1F LT PUSH2 0x2817 JUMPI PUSH2 0x100 DUP1 DUP4 SLOAD DIV MUL DUP4 MSTORE SWAP2 PUSH1 0x20 ADD SWAP2 PUSH2 0x2842 JUMP JUMPDEST DUP3 ADD SWAP2 SWAP1 PUSH1 0x0 MSTORE PUSH1 0x20 PUSH1 0x0 KECCAK256 SWAP1 JUMPDEST DUP2 SLOAD DUP2 MSTORE SWAP1 PUSH1 0x1 ADD SWAP1 PUSH1 0x20 ADD DUP1 DUP4 GT PUSH2 0x2825 JUMPI DUP3 SWAP1 SUB PUSH1 0x1F AND DUP3 ADD SWAP2 JUMPDEST POP POP POP POP POP SWAP1 POP SWAP2 POP SWAP2 POP SWAP2 POP SWAP2 JUMP JUMPDEST PUSH1 0x0 DUP2 DUP2 MSTORE PUSH1 0x19 PUSH1 0x20 MSTORE PUSH1 0x40 SWAP1 KECCAK256 SLOAD PUSH1 0x1 PUSH1 0x1 PUSH1 0xA0 SHL SUB AND CALLER EQ PUSH2 0x28B8 JUMPI PUSH1 0x40 MLOAD PUSH3 0x461BCD PUSH1 0xE5 SHL DUP2 MSTORE PUSH1 0x20 PUSH1 0x4 DUP3 ADD MSTORE PUSH1 0x1D PUSH1 0x24 DUP3 ADD MSTORE PUSH32 0x6D73672E73656E646572206973206E6F74206F72646572206F776E6572000000 PUSH1 0x44 DUP3 ADD MSTORE PUSH1 0x64 ADD PUSH2 0xA8D JUMP JUMPDEST PUSH1 0x0 DUP2 DUP2 MSTORE PUSH1 0x19 PUSH1 0x20 MSTORE PUSH1 0x40 DUP2 KECCAK256 PUSH1 0x4 ADD SLOAD PUSH1 0xFF AND PUSH1 0x2 DUP2 GT ISZERO PUSH2 0x28DE JUMPI PUSH2 0x28DE PUSH2 0x43FF JUMP JUMPDEST EQ PUSH2 0x291F JUMPI PUSH1 0x40 MLOAD PUSH3 0x461BCD PUSH1 0xE5 SHL DUP2 MSTORE PUSH1 0x20 PUSH1 0x4 DUP3 ADD MSTORE PUSH1 0x11 PUSH1 0x24 DUP3 ADD MSTORE PUSH17 0x37B93232B91034B9903737BA1037B832B7 PUSH1 0x79 SHL PUSH1 0x44 DUP3 ADD MSTORE PUSH1 0x64 ADD PUSH2 0xA8D JUMP JUMPDEST PUSH1 0x0 DUP2 DUP2 MSTORE PUSH1 0x19 PUSH1 0x20 MSTORE PUSH1 0x40 DUP1 DUP3 KECCAK256 PUSH1 0x3 ADD SLOAD SWAP1 MLOAD CALLER SWAP3 DUP4 SWAP3 DUP1 ISZERO PUSH2 0x8FC MUL SWAP3 SWAP1 SWAP2 DUP2 DUP2 DUP2 DUP6 DUP9 DUP9 CALL SWAP4 POP POP POP POP ISZERO DUP1 ISZERO PUSH2 0x295E JUMPI RETURNDATASIZE PUSH1 0x0 DUP1 RETURNDATACOPY RETURNDATASIZE PUSH1 0x0 REVERT JUMPDEST POP POP PUSH1 0x0 SWAP1 DUP2 MSTORE PUSH1 0x19 PUSH1 0x20 MSTORE PUSH1 0x40 DUP2 KECCAK256 PUSH1 0x3 DUP2 ADD SWAP2 SWAP1 SWAP2 SSTORE PUSH1 0x4 ADD DUP1 SLOAD PUSH1 0xFF NOT AND PUSH1 0x2 OR SWAP1 SSTORE JUMP JUMPDEST PUSH1 0x14 PUSH1 0x15 SLOAD DUP2 SLOAD DUP2 LT PUSH2 0x299B JUMPI PUSH2 0x299B PUSH2 0x4A20 JUMP JUMPDEST PUSH1 0x0 SWAP2 DUP3 MSTORE PUSH1 0x20 SWAP1 SWAP2 KECCAK256 ADD SLOAD PUSH1 0x1 PUSH1 0x1 PUSH1 0xA0 SHL SUB AND CALLER EQ PUSH2 0x29BB JUMPI PUSH1 0x0 DUP1 REVERT JUMPDEST PUSH1 0xE SSTORE JUMP JUMPDEST PUSH1 0x5 PUSH1 0x20 MSTORE PUSH1 0x0 SWAP1 DUP2 MSTORE PUSH1 0x40 SWAP1 KECCAK256 DUP1 SLOAD DUP2 SWAP1 PUSH2 0x29DB SWAP1 PUSH2 0x4825 JUMP JUMPDEST DUP1 PUSH1 0x1F ADD PUSH1 0x20 DUP1 SWAP2 DIV MUL PUSH1 0x20 ADD PUSH1 0x40 MLOAD SWAP1 DUP2 ADD PUSH1 0x40 MSTORE DUP1 SWAP3 SWAP2 SWAP1 DUP2 DUP2 MSTORE PUSH1 0x20 ADD DUP3 DUP1 SLOAD PUSH2 0x2A07 SWAP1 PUSH2 0x4825 JUMP JUMPDEST DUP1 ISZERO PUSH2 0x2A54 JUMPI DUP1 PUSH1 0x1F LT PUSH2 0x2A29 JUMPI PUSH2 0x100 DUP1 DUP4 SLOAD DIV MUL DUP4 MSTORE SWAP2 PUSH1 0x20 ADD SWAP2 PUSH2 0x2A54 JUMP JUMPDEST DUP3 ADD SWAP2 SWAP1 PUSH1 0x0 MSTORE PUSH1 0x20 PUSH1 0x0 KECCAK256 SWAP1 JUMPDEST DUP2 SLOAD DUP2 MSTORE SWAP1 PUSH1 0x1 ADD SWAP1 PUSH1 0x20 ADD DUP1 DUP4 GT PUSH2 0x2A37 JUMPI DUP3 SWAP1 SUB PUSH1 0x1F AND DUP3 ADD SWAP2 JUMPDEST POP POP POP POP POP SWAP1 DUP1 PUSH1 0x1 ADD DUP1 SLOAD PUSH2 0x2A69 SWAP1 PUSH2 0x4825 JUMP JUMPDEST DUP1 PUSH1 0x1F ADD PUSH1 0x20 DUP1 SWAP2 DIV MUL PUSH1 0x20 ADD PUSH1 0x40 MLOAD SWAP1 DUP2 ADD PUSH1 0x40 MSTORE DUP1 SWAP3 SWAP2 SWAP1 DUP2 DUP2 MSTORE PUSH1 0x20 ADD DUP3 DUP1 SLOAD PUSH2 0x2A95 SWAP1 PUSH2 0x4825 JUMP JUMPDEST DUP1 ISZERO PUSH2 0x2AE2 JUMPI DUP1 PUSH1 0x1F LT PUSH2 0x2AB7 JUMPI PUSH2 0x100 DUP1 DUP4 SLOAD DIV MUL DUP4 MSTORE SWAP2 PUSH1 0x20 ADD SWAP2 PUSH2 0x2AE2 JUMP JUMPDEST DUP3 ADD SWAP2 SWAP1 PUSH1 0x0 MSTORE PUSH1 0x20 PUSH1 0x0 KECCAK256 SWAP1 JUMPDEST DUP2 SLOAD DUP2 MSTORE SWAP1 PUSH1 0x1 ADD SWAP1 PUSH1 0x20 ADD DUP1 DUP4 GT PUSH2 0x2AC5 JUMPI DUP3 SWAP1 SUB PUSH1 0x1F AND DUP3 ADD SWAP2 JUMPDEST POP POP POP POP POP SWAP1 POP DUP3 JUMP JUMPDEST PUSH2 0x2B25 PUSH1 0x40 MLOAD DUP1 PUSH1 0xC0 ADD PUSH1 0x40 MSTORE DUP1 PUSH1 0x60 DUP2 MSTORE PUSH1 0x20 ADD PUSH1 0x60 DUP2 MSTORE PUSH1 0x20 ADD PUSH1 0x60 DUP2 MSTORE PUSH1 0x20 ADD PUSH1 0x0 DUP2 MSTORE PUSH1 0x20 ADD PUSH1 0x60 DUP2 MSTORE PUSH1 0x20 ADD PUSH1 0x60 DUP2 MSTORE POP SWAP1 JUMP JUMPDEST PUSH1 0x6 PUSH1 0x40 MLOAD DUP1 PUSH1 0xC0 ADD PUSH1 0x40 MSTORE SWAP1 DUP2 PUSH1 0x0 DUP3 ADD DUP1 SLOAD PUSH2 0x2B42 SWAP1 PUSH2 0x4825 JUMP JUMPDEST DUP1 PUSH1 0x1F ADD PUSH1 0x20 DUP1 SWAP2 DIV MUL PUSH1 0x20 ADD PUSH1 0x40 MLOAD SWAP1 DUP2 ADD PUSH1 0x40 MSTORE DUP1 SWAP3 SWAP2 SWAP1 DUP2 DUP2 MSTORE PUSH1 0x20 ADD DUP3 DUP1 SLOAD PUSH2 0x2B6E SWAP1 PUSH2 0x4825 JUMP JUMPDEST DUP1 ISZERO PUSH2 0x2BBB JUMPI DUP1 PUSH1 0x1F LT PUSH2 0x2B90 JUMPI PUSH2 0x100 DUP1 DUP4 SLOAD DIV MUL DUP4 MSTORE SWAP2 PUSH1 0x20 ADD SWAP2 PUSH2 0x2BBB JUMP JUMPDEST DUP3 ADD SWAP2 SWAP1 PUSH1 0x0 MSTORE PUSH1 0x20 PUSH1 0x0 KECCAK256 SWAP1 JUMPDEST DUP2 SLOAD DUP2 MSTORE SWAP1 PUSH1 0x1 ADD SWAP1 PUSH1 0x20 ADD DUP1 DUP4 GT PUSH2 0x2B9E JUMPI DUP3 SWAP1 SUB PUSH1 0x1F AND DUP3 ADD SWAP2 JUMPDEST POP POP POP POP POP DUP2 MSTORE PUSH1 0x20 ADD PUSH1 0x1 DUP3 ADD DUP1 SLOAD PUSH2 0x2BD4 SWAP1 PUSH2 0x4825 JUMP JUMPDEST DUP1 PUSH1 0x1F ADD PUSH1 0x20 DUP1 SWAP2 DIV MUL PUSH1 0x20 ADD PUSH1 0x40 MLOAD SWAP1 DUP2 ADD PUSH1 0x40 MSTORE DUP1 SWAP3 SWAP2 SWAP1 DUP2 DUP2 MSTORE PUSH1 0x20 ADD DUP3 DUP1 SLOAD PUSH2 0x2C00 SWAP1 PUSH2 0x4825 JUMP JUMPDEST DUP1 ISZERO PUSH2 0x2C4D JUMPI DUP1 PUSH1 0x1F LT PUSH2 0x2C22 JUMPI PUSH2 0x100 DUP1 DUP4 SLOAD DIV MUL DUP4 MSTORE SWAP2 PUSH1 0x20 ADD SWAP2 PUSH2 0x2C4D JUMP JUMPDEST DUP3 ADD SWAP2 SWAP1 PUSH1 0x0 MSTORE PUSH1 0x20 PUSH1 0x0 KECCAK256 SWAP1 JUMPDEST DUP2 SLOAD DUP2 MSTORE SWAP1 PUSH1 0x1 ADD SWAP1 PUSH1 0x20 ADD DUP1 DUP4 GT PUSH2 0x2C30 JUMPI DUP3 SWAP1 SUB PUSH1 0x1F AND DUP3 ADD SWAP2 JUMPDEST POP POP POP POP POP DUP2 MSTORE PUSH1 0x20 ADD PUSH1 0x2 DUP3 ADD DUP1 SLOAD PUSH2 0x2C66 SWAP1 PUSH2 0x4825 JUMP JUMPDEST DUP1 PUSH1 0x1F ADD PUSH1 0x20 DUP1 SWAP2 DIV MUL PUSH1 0x20 ADD PUSH1 0x40 MLOAD SWAP1 DUP2 ADD PUSH1 0x40 MSTORE DUP1 SWAP3 SWAP2 SWAP1 DUP2 DUP2 MSTORE PUSH1 0x20 ADD DUP3 DUP1 SLOAD PUSH2 0x2C92 SWAP1 PUSH2 0x4825 JUMP JUMPDEST DUP1 ISZERO PUSH2 0x2CDF JUMPI DUP1 PUSH1 0x1F LT PUSH2 0x2CB4 JUMPI PUSH2 0x100 DUP1 DUP4 SLOAD DIV MUL DUP4 MSTORE SWAP2 PUSH1 0x20 ADD SWAP2 PUSH2 0x2CDF JUMP JUMPDEST DUP3 ADD SWAP2 SWAP1 PUSH1 0x0 MSTORE PUSH1 0x20 PUSH1 0x0 KECCAK256 SWAP1 JUMPDEST DUP2 SLOAD DUP2 MSTORE SWAP1 PUSH1 0x1 ADD SWAP1 PUSH1 0x20 ADD DUP1 DUP4 GT PUSH2 0x2CC2 JUMPI DUP3 SWAP1 SUB PUSH1 0x1F AND DUP3 ADD SWAP2 JUMPDEST POP POP POP POP POP DUP2 MSTORE PUSH1 0x20 ADD PUSH1 0x3 DUP3 ADD SLOAD DUP2 MSTORE PUSH1 0x20 ADD PUSH1 0x4 DUP3 ADD DUP1 SLOAD PUSH2 0x2D02 SWAP1 PUSH2 0x4825 JUMP JUMPDEST DUP1 PUSH1 0x1F ADD PUSH1 0x20 DUP1 SWAP2 DIV MUL PUSH1 0x20 ADD PUSH1 0x40 MLOAD SWAP1 DUP2 ADD PUSH1 0x40 MSTORE DUP1 SWAP3 SWAP2 SWAP1 DUP2 DUP2 MSTORE PUSH1 0x20 ADD DUP3 DUP1 SLOAD PUSH2 0x2D2E SWAP1 PUSH2 0x4825 JUMP JUMPDEST DUP1 ISZERO PUSH2 0x2D7B JUMPI DUP1 PUSH1 0x1F LT PUSH2 0x2D50 JUMPI PUSH2 0x100 DUP1 DUP4 SLOAD DIV MUL DUP4 MSTORE SWAP2 PUSH1 0x20 ADD SWAP2 PUSH2 0x2D7B JUMP JUMPDEST DUP3 ADD SWAP2 SWAP1 PUSH1 0x0 MSTORE PUSH1 0x20 PUSH1 0x0 KECCAK256 SWAP1 JUMPDEST DUP2 SLOAD DUP2 MSTORE SWAP1 PUSH1 0x1 ADD SWAP1 PUSH1 0x20 ADD DUP1 DUP4 GT PUSH2 0x2D5E JUMPI DUP3 SWAP1 SUB PUSH1 0x1F AND DUP3 ADD SWAP2 JUMPDEST POP POP POP POP POP DUP2 MSTORE PUSH1 0x20 ADD PUSH1 0x5 DUP3 ADD DUP1 SLOAD PUSH2 0x2D94 SWAP1 PUSH2 0x4825 JUMP JUMPDEST DUP1 PUSH1 0x1F ADD PUSH1 0x20 DUP1 SWAP2 DIV MUL PUSH1 0x20 ADD PUSH1 0x40 MLOAD SWAP1 DUP2 ADD PUSH1 0x40 MSTORE DUP1 SWAP3 SWAP2 SWAP1 DUP2 DUP2 MSTORE PUSH1 0x20 ADD DUP3 DUP1 SLOAD PUSH2 0x2DC0 SWAP1 PUSH2 0x4825 JUMP JUMPDEST DUP1 ISZERO PUSH2 0x2E0D JUMPI DUP1 PUSH1 0x1F LT PUSH2 0x2DE2 JUMPI PUSH2 0x100 DUP1 DUP4 SLOAD DIV MUL DUP4 MSTORE SWAP2 PUSH1 0x20 ADD SWAP2 PUSH2 0x2E0D JUMP JUMPDEST DUP3 ADD SWAP2 SWAP1 PUSH1 0x0 MSTORE PUSH1 0x20 PUSH1 0x0 KECCAK256 SWAP1 JUMPDEST DUP2 SLOAD DUP2 MSTORE SWAP1 PUSH1 0x1 ADD SWAP1 PUSH1 0x20 ADD DUP1 DUP4 GT PUSH2 0x2DF0 JUMPI DUP3 SWAP1 SUB PUSH1 0x1F AND DUP3 ADD SWAP2 JUMPDEST POP POP POP POP POP DUP2 MSTORE POP POP SWAP1 POP SWAP1 JUMP JUMPDEST PUSH1 0x0 DUP1 PUSH1 0x0 DUP1 PUSH1 0x0 PUSH2 0x2E2B PUSH2 0x1423 JUMP JUMPDEST SWAP4 POP SWAP4 POP SWAP4 POP SWAP4 POP PUSH1 0x0 DUP1 JUMPDEST DUP4 MLOAD DUP2 PUSH1 0xFF AND LT ISZERO PUSH2 0x2E7F JUMPI DUP4 DUP2 PUSH1 0xFF AND DUP2 MLOAD DUP2 LT PUSH2 0x2E58 JUMPI PUSH2 0x2E58 PUSH2 0x4A20 JUMP JUMPDEST PUSH1 0x20 MUL PUSH1 0x20 ADD ADD MLOAD DUP3 PUSH2 0x2E6B SWAP2 SWAP1 PUSH2 0x4870 JUMP JUMPDEST SWAP2 POP DUP1 PUSH2 0x2E77 DUP2 PUSH2 0x4888 JUMP JUMPDEST SWAP2 POP POP PUSH2 0x2E37 JUMP JUMPDEST POP SWAP6 SWAP5 POP POP POP POP POP JUMP JUMPDEST PUSH1 0x6 DUP1 SLOAD DUP2 SWAP1 PUSH2 0x2E98 SWAP1 PUSH2 0x4825 JUMP JUMPDEST DUP1 PUSH1 0x1F ADD PUSH1 0x20 DUP1 SWAP2 DIV MUL PUSH1 0x20 ADD PUSH1 0x40 MLOAD SWAP1 DUP2 ADD PUSH1 0x40 MSTORE DUP1 SWAP3 SWAP2 SWAP1 DUP2 DUP2 MSTORE PUSH1 0x20 ADD DUP3 DUP1 SLOAD PUSH2 0x2EC4 SWAP1 PUSH2 0x4825 JUMP JUMPDEST DUP1 ISZERO PUSH2 0x2F11 JUMPI DUP1 PUSH1 0x1F LT PUSH2 0x2EE6 JUMPI PUSH2 0x100 DUP1 DUP4 SLOAD DIV MUL DUP4 MSTORE SWAP2 PUSH1 0x20 ADD SWAP2 PUSH2 0x2F11 JUMP JUMPDEST DUP3 ADD SWAP2 SWAP1 PUSH1 0x0 MSTORE PUSH1 0x20 PUSH1 0x0 KECCAK256 SWAP1 JUMPDEST DUP2 SLOAD DUP2 MSTORE SWAP1 PUSH1 0x1 ADD SWAP1 PUSH1 0x20 ADD DUP1 DUP4 GT PUSH2 0x2EF4 JUMPI DUP3 SWAP1 SUB PUSH1 0x1F AND DUP3 ADD SWAP2 JUMPDEST POP POP POP POP POP SWAP1 DUP1 PUSH1 0x1 ADD DUP1 SLOAD PUSH2 0x2F26 SWAP1 PUSH2 0x4825 JUMP JUMPDEST DUP1 PUSH1 0x1F ADD PUSH1 0x20 DUP1 SWAP2 DIV MUL PUSH1 0x20 ADD PUSH1 0x40 MLOAD SWAP1 DUP2 ADD PUSH1 0x40 MSTORE DUP1 SWAP3 SWAP2 SWAP1 DUP2 DUP2 MSTORE PUSH1 0x20 ADD DUP3 DUP1 SLOAD PUSH2 0x2F52 SWAP1 PUSH2 0x4825 JUMP JUMPDEST DUP1 ISZERO PUSH2 0x2F9F JUMPI DUP1 PUSH1 0x1F LT PUSH2 0x2F74 JUMPI PUSH2 0x100 DUP1 DUP4 SLOAD DIV MUL DUP4 MSTORE SWAP2 PUSH1 0x20 ADD SWAP2 PUSH2 0x2F9F JUMP JUMPDEST DUP3 ADD SWAP2 SWAP1 PUSH1 0x0 MSTORE PUSH1 0x20 PUSH1 0x0 KECCAK256 SWAP1 JUMPDEST DUP2 SLOAD DUP2 MSTORE SWAP1 PUSH1 0x1 ADD SWAP1 PUSH1 0x20 ADD DUP1 DUP4 GT PUSH2 0x2F82 JUMPI DUP3 SWAP1 SUB PUSH1 0x1F AND DUP3 ADD SWAP2 JUMPDEST POP POP POP POP POP SWAP1 DUP1 PUSH1 0x2 ADD DUP1 SLOAD PUSH2 0x2FB4 SWAP1 PUSH2 0x4825 JUMP JUMPDEST DUP1 PUSH1 0x1F ADD PUSH1 0x20 DUP1 SWAP2 DIV MUL PUSH1 0x20 ADD PUSH1 0x40 MLOAD SWAP1 DUP2 ADD PUSH1 0x40 MSTORE DUP1 SWAP3 SWAP2 SWAP1 DUP2 DUP2 MSTORE PUSH1 0x20 ADD DUP3 DUP1 SLOAD PUSH2 0x2FE0 SWAP1 PUSH2 0x4825 JUMP JUMPDEST DUP1 ISZERO PUSH2 0x302D JUMPI DUP1 PUSH1 0x1F LT PUSH2 0x3002 JUMPI PUSH2 0x100 DUP1 DUP4 SLOAD DIV MUL DUP4 MSTORE SWAP2 PUSH1 0x20 ADD SWAP2 PUSH2 0x302D JUMP JUMPDEST DUP3 ADD SWAP2 SWAP1 PUSH1 0x0 MSTORE PUSH1 0x20 PUSH1 0x0 KECCAK256 SWAP1 JUMPDEST DUP2 SLOAD DUP2 MSTORE SWAP1 PUSH1 0x1 ADD SWAP1 PUSH1 0x20 ADD DUP1 DUP4 GT PUSH2 0x3010 JUMPI DUP3 SWAP1 SUB PUSH1 0x1F AND DUP3 ADD SWAP2 JUMPDEST POP POP POP POP POP SWAP1 DUP1 PUSH1 0x3 ADD SLOAD SWAP1 DUP1 PUSH1 0x4 ADD DUP1 SLOAD PUSH2 0x3048 SWAP1 PUSH2 0x4825 JUMP JUMPDEST DUP1 PUSH1 0x1F ADD PUSH1 0x20 DUP1 SWAP2 DIV MUL PUSH1 0x20 ADD PUSH1 0x40 MLOAD SWAP1 DUP2 ADD PUSH1 0x40 MSTORE DUP1 SWAP3 SWAP2 SWAP1 DUP2 DUP2 MSTORE PUSH1 0x20 ADD DUP3 DUP1 SLOAD PUSH2 0x3074 SWAP1 PUSH2 0x4825 JUMP JUMPDEST DUP1 ISZERO PUSH2 0x30C1 JUMPI DUP1 PUSH1 0x1F LT PUSH2 0x3096 JUMPI PUSH2 0x100 DUP1 DUP4 SLOAD DIV MUL DUP4 MSTORE SWAP2 PUSH1 0x20 ADD SWAP2 PUSH2 0x30C1 JUMP JUMPDEST DUP3 ADD SWAP2 SWAP1 PUSH1 0x0 MSTORE PUSH1 0x20 PUSH1 0x0 KECCAK256 SWAP1 JUMPDEST DUP2 SLOAD DUP2 MSTORE SWAP1 PUSH1 0x1 ADD SWAP1 PUSH1 0x20 ADD DUP1 DUP4 GT PUSH2 0x30A4 JUMPI DUP3 SWAP1 SUB PUSH1 0x1F AND DUP3 ADD SWAP2 JUMPDEST POP POP POP POP POP SWAP1 DUP1 PUSH1 0x5 ADD DUP1 SLOAD PUSH2 0x30D6 SWAP1 PUSH2 0x4825 JUMP JUMPDEST DUP1 PUSH1 0x1F ADD PUSH1 0x20 DUP1 SWAP2 DIV MUL PUSH1 0x20 ADD PUSH1 0x40 MLOAD SWAP1 DUP2 ADD PUSH1 0x40 MSTORE DUP1 SWAP3 SWAP2 SWAP1 DUP2 DUP2 MSTORE PUSH1 0x20 ADD DUP3 DUP1 SLOAD PUSH2 0x3102 SWAP1 PUSH2 0x4825 JUMP JUMPDEST DUP1 ISZERO PUSH2 0x314F JUMPI DUP1 PUSH1 0x1F LT PUSH2 0x3124 JUMPI PUSH2 0x100 DUP1 DUP4 SLOAD DIV MUL DUP4 MSTORE SWAP2 PUSH1 0x20 ADD SWAP2 PUSH2 0x314F JUMP JUMPDEST DUP3 ADD SWAP2 SWAP1 PUSH1 0x0 MSTORE PUSH1 0x20 PUSH1 0x0 KECCAK256 SWAP1 JUMPDEST DUP2 SLOAD DUP2 MSTORE SWAP1 PUSH1 0x1 ADD SWAP1 PUSH1 0x20 ADD DUP1 DUP4 GT PUSH2 0x3132 JUMPI DUP3 SWAP1 SUB PUSH1 0x1F AND DUP3 ADD SWAP2 JUMPDEST POP POP POP POP POP SWAP1 POP DUP7 JUMP JUMPDEST PUSH1 0x0 DUP1 DUP4 GT PUSH2 0x317A JUMPI PUSH1 0x40 MLOAD PUSH3 0x461BCD PUSH1 0xE5 SHL DUP2 MSTORE PUSH1 0x4 ADD PUSH2 0xA8D SWAP1 PUSH2 0x4A6A JUMP JUMPDEST PUSH1 0x0 DUP3 GT PUSH2 0x319A JUMPI PUSH1 0x40 MLOAD PUSH3 0x461BCD PUSH1 0xE5 SHL DUP2 MSTORE PUSH1 0x4 ADD PUSH2 0xA8D SWAP1 PUSH2 0x4A6A JUMP JUMPDEST DUP2 PUSH2 0x31A5 DUP5 CALLVALUE PUSH2 0x49BA JUMP JUMPDEST EQ PUSH2 0x31E7 JUMPI PUSH1 0x40 MLOAD PUSH3 0x461BCD PUSH1 0xE5 SHL DUP2 MSTORE PUSH1 0x20 PUSH1 0x4 DUP3 ADD MSTORE PUSH1 0x12 PUSH1 0x24 DUP3 ADD MSTORE PUSH18 0x31B0B7103737BA1036B0B5B29037B93232B9 PUSH1 0x71 SHL PUSH1 0x44 DUP3 ADD MSTORE PUSH1 0x64 ADD PUSH2 0xA8D JUMP JUMPDEST PUSH1 0x40 DUP1 MLOAD PUSH1 0xA0 DUP2 ADD DUP3 MSTORE CALLER DUP2 MSTORE PUSH1 0x20 DUP1 DUP3 ADD DUP7 DUP2 MSTORE DUP3 DUP5 ADD DUP7 DUP2 MSTORE CALLVALUE PUSH1 0x60 DUP6 ADD SWAP1 DUP2 MSTORE PUSH1 0x0 PUSH1 0x80 DUP7 ADD DUP2 DUP2 MSTORE PUSH1 0x1B SLOAD DUP3 MSTORE PUSH1 0x19 SWAP1 SWAP6 MSTORE SWAP6 SWAP1 SWAP6 KECCAK256 DUP5 MLOAD DUP2 SLOAD PUSH1 0x1 PUSH1 0x1 PUSH1 0xA0 SHL SUB NOT AND PUSH1 0x1 PUSH1 0x1 PUSH1 0xA0 SHL SUB SWAP1 SWAP2 AND OR DUP2 SSTORE SWAP2 MLOAD PUSH1 0x1 DUP1 DUP5 ADD SWAP2 SWAP1 SWAP2 SSTORE SWAP1 MLOAD PUSH1 0x2 DUP1 DUP5 ADD SWAP2 SWAP1 SWAP2 SSTORE SWAP5 MLOAD PUSH1 0x3 DUP4 ADD SSTORE SWAP2 MLOAD PUSH1 0x4 DUP3 ADD DUP1 SLOAD SWAP5 SWAP6 SWAP3 SWAP5 SWAP2 SWAP4 SWAP1 SWAP3 PUSH1 0xFF NOT SWAP1 SWAP3 AND SWAP2 DUP5 SWAP1 DUP2 GT ISZERO PUSH2 0x3282 JUMPI PUSH2 0x3282 PUSH2 0x43FF JUMP JUMPDEST MUL OR SWAP1 SSTORE POP SWAP1 POP POP PUSH2 0x3295 PUSH1 0x1B SLOAD PUSH2 0x3B87 JUMP JUMPDEST PUSH1 0x1 PUSH1 0x1B PUSH1 0x0 DUP3 DUP3 SLOAD PUSH2 0x32A8 SWAP2 SWAP1 PUSH2 0x4870 JUMP JUMPDEST SWAP1 SWAP2 SSTORE POP POP PUSH1 0x1B SLOAD PUSH2 0x2209 SWAP1 PUSH1 0x1 SWAP1 PUSH2 0x4AA1 JUMP JUMPDEST PUSH1 0x14 PUSH1 0x15 SLOAD DUP2 SLOAD DUP2 LT PUSH2 0x32D1 JUMPI PUSH2 0x32D1 PUSH2 0x4A20 JUMP JUMPDEST PUSH1 0x0 SWAP2 DUP3 MSTORE PUSH1 0x20 SWAP1 SWAP2 KECCAK256 ADD SLOAD PUSH1 0x1 PUSH1 0x1 PUSH1 0xA0 SHL SUB AND CALLER EQ PUSH2 0x32F1 JUMPI PUSH1 0x0 DUP1 REVERT JUMPDEST PUSH1 0xF SLOAD PUSH1 0xFF AND ISZERO PUSH2 0x333D JUMPI PUSH1 0x40 MLOAD PUSH3 0x461BCD PUSH1 0xE5 SHL DUP2 MSTORE PUSH1 0x20 PUSH1 0x4 DUP3 ADD MSTORE PUSH1 0x16 PUSH1 0x24 DUP3 ADD MSTORE PUSH22 0x546F6B656E7320416C7265616479204D696E74656421 PUSH1 0x50 SHL PUSH1 0x44 DUP3 ADD MSTORE PUSH1 0x64 ADD PUSH2 0xA8D JUMP JUMPDEST PUSH1 0x0 PUSH1 0xC SLOAD GT PUSH2 0x338F JUMPI PUSH1 0x40 MLOAD PUSH3 0x461BCD PUSH1 0xE5 SHL DUP2 MSTORE PUSH1 0x20 PUSH1 0x4 DUP3 ADD MSTORE PUSH1 0x1B PUSH1 0x24 DUP3 ADD MSTORE PUSH32 0x50726F76696E616E6365206D75737420626520737570706C6965640000000000 PUSH1 0x44 DUP3 ADD MSTORE PUSH1 0x64 ADD PUSH2 0xA8D JUMP JUMPDEST PUSH2 0x339B ADDRESS PUSH1 0xD SLOAD PUSH2 0x3F52 JUMP JUMPDEST PUSH1 0xF DUP1 SLOAD PUSH1 0xFF NOT AND PUSH1 0x1 OR SWAP1 SSTORE JUMP JUMPDEST PUSH1 0x12 SLOAD PUSH1 0x13 DUP1 SLOAD PUSH1 0x1 PUSH1 0x1 PUSH1 0xA0 SHL SUB NOT AND PUSH1 0x1 PUSH1 0x1 PUSH1 0xA0 SHL SUB SWAP1 SWAP3 AND SWAP2 DUP3 OR SWAP1 SSTORE PUSH1 0x40 DUP1 MLOAD PUSH4 0x3FABE5A3 PUSH1 0xE2 SHL DUP2 MSTORE SWAP1 MLOAD PUSH1 0x0 SWAP3 DUP4 SWAP3 DUP4 SWAP3 PUSH4 0xFEAF968C SWAP2 PUSH1 0x4 DUP1 DUP3 ADD SWAP3 PUSH1 0xA0 SWAP3 SWAP1 SWAP2 SWAP1 DUP3 SWAP1 SUB ADD DUP2 DUP7 GAS STATICCALL ISZERO DUP1 ISZERO PUSH2 0x340D JUMPI RETURNDATASIZE PUSH1 0x0 DUP1 RETURNDATACOPY RETURNDATASIZE PUSH1 0x0 REVERT JUMPDEST POP POP POP POP PUSH1 0x40 MLOAD RETURNDATASIZE PUSH1 0x1F NOT PUSH1 0x1F DUP3 ADD AND DUP3 ADD DUP1 PUSH1 0x40 MSTORE POP DUP2 ADD SWAP1 PUSH2 0x3431 SWAP2 SWAP1 PUSH2 0x4AD2 JUMP JUMPDEST POP POP POP SWAP2 POP POP PUSH1 0x0 PUSH1 0x13 PUSH1 0x0 SWAP1 SLOAD SWAP1 PUSH2 0x100 EXP SWAP1 DIV PUSH1 0x1 PUSH1 0x1 PUSH1 0xA0 SHL SUB AND PUSH1 0x1 PUSH1 0x1 PUSH1 0xA0 SHL SUB AND PUSH4 0x313CE567 PUSH1 0x40 MLOAD DUP2 PUSH4 0xFFFFFFFF AND PUSH1 0xE0 SHL DUP2 MSTORE PUSH1 0x4 ADD PUSH1 0x20 PUSH1 0x40 MLOAD DUP1 DUP4 SUB DUP2 DUP7 GAS STATICCALL ISZERO DUP1 ISZERO PUSH2 0x348C JUMPI RETURNDATASIZE PUSH1 0x0 DUP1 RETURNDATACOPY RETURNDATASIZE PUSH1 0x0 REVERT JUMPDEST POP POP POP POP PUSH1 0x40 MLOAD RETURNDATASIZE PUSH1 0x1F NOT PUSH1 0x1F DUP3 ADD AND DUP3 ADD DUP1 PUSH1 0x40 MSTORE POP DUP2 ADD SWAP1 PUSH2 0x34B0 SWAP2 SWAP1 PUSH2 0x4B22 JUMP JUMPDEST SWAP2 SWAP5 PUSH1 0xFF SWAP1 SWAP3 AND SWAP4 POP SWAP1 SWAP2 POP POP JUMP JUMPDEST PUSH1 0x1 PUSH1 0x1 PUSH1 0xA0 SHL SUB DUP4 AND PUSH2 0x3521 JUMPI PUSH1 0x40 MLOAD PUSH3 0x461BCD PUSH1 0xE5 SHL DUP2 MSTORE PUSH1 0x20 PUSH1 0x4 DUP3 ADD MSTORE PUSH1 0x24 DUP1 DUP3 ADD MSTORE PUSH32 0x45524332303A20617070726F76652066726F6D20746865207A65726F20616464 PUSH1 0x44 DUP3 ADD MSTORE PUSH4 0x72657373 PUSH1 0xE0 SHL PUSH1 0x64 DUP3 ADD MSTORE PUSH1 0x84 ADD PUSH2 0xA8D JUMP JUMPDEST PUSH1 0x1 PUSH1 0x1 PUSH1 0xA0 SHL SUB DUP3 AND PUSH2 0x3582 JUMPI PUSH1 0x40 MLOAD PUSH3 0x461BCD PUSH1 0xE5 SHL DUP2 MSTORE PUSH1 0x20 PUSH1 0x4 DUP3 ADD MSTORE PUSH1 0x22 PUSH1 0x24 DUP3 ADD MSTORE PUSH32 0x45524332303A20617070726F766520746F20746865207A65726F206164647265 PUSH1 0x44 DUP3 ADD MSTORE PUSH2 0x7373 PUSH1 0xF0 SHL PUSH1 0x64 DUP3 ADD MSTORE PUSH1 0x84 ADD PUSH2 0xA8D JUMP JUMPDEST PUSH1 0x1 PUSH1 0x1 PUSH1 0xA0 SHL SUB DUP4 DUP2 AND PUSH1 0x0 DUP2 DUP2 MSTORE PUSH1 0x1 PUSH1 0x20 SWAP1 DUP2 MSTORE PUSH1 0x40 DUP1 DUP4 KECCAK256 SWAP5 DUP8 AND DUP1 DUP5 MSTORE SWAP5 DUP3 MSTORE SWAP2 DUP3 SWAP1 KECCAK256 DUP6 SWAP1 SSTORE SWAP1 MLOAD DUP5 DUP2 MSTORE PUSH32 0x8C5BE1E5EBEC7D5BD14F71427D1E84F3DD0314C0F7B2291E5B200AC8C7C3B925 SWAP2 ADD PUSH1 0x40 MLOAD DUP1 SWAP2 SUB SWAP1 LOG3 POP POP POP JUMP JUMPDEST PUSH1 0x1 PUSH1 0x1 PUSH1 0xA0 SHL SUB DUP4 AND PUSH2 0x3647 JUMPI PUSH1 0x40 MLOAD PUSH3 0x461BCD PUSH1 0xE5 SHL DUP2 MSTORE PUSH1 0x20 PUSH1 0x4 DUP3 ADD MSTORE PUSH1 0x25 PUSH1 0x24 DUP3 ADD MSTORE PUSH32 0x45524332303A207472616E736665722066726F6D20746865207A65726F206164 PUSH1 0x44 DUP3 ADD MSTORE PUSH5 0x6472657373 PUSH1 0xD8 SHL PUSH1 0x64 DUP3 ADD MSTORE PUSH1 0x84 ADD PUSH2 0xA8D JUMP JUMPDEST PUSH1 0x1 PUSH1 0x1 PUSH1 0xA0 SHL SUB DUP3 AND PUSH2 0x36A9 JUMPI PUSH1 0x40 MLOAD PUSH3 0x461BCD PUSH1 0xE5 SHL DUP2 MSTORE PUSH1 0x20 PUSH1 0x4 DUP3 ADD MSTORE PUSH1 0x23 PUSH1 0x24 DUP3 ADD MSTORE PUSH32 0x45524332303A207472616E7366657220746F20746865207A65726F2061646472 PUSH1 0x44 DUP3 ADD MSTORE PUSH3 0x657373 PUSH1 0xE8 SHL PUSH1 0x64 DUP3 ADD MSTORE PUSH1 0x84 ADD PUSH2 0xA8D JUMP JUMPDEST PUSH1 0x1 PUSH1 0x1 PUSH1 0xA0 SHL SUB DUP4 AND PUSH1 0x0 SWAP1 DUP2 MSTORE PUSH1 0x20 DUP2 SWAP1 MSTORE PUSH1 0x40 SWAP1 KECCAK256 SLOAD DUP2 DUP2 LT ISZERO PUSH2 0x3721 JUMPI PUSH1 0x40 MLOAD PUSH3 0x461BCD PUSH1 0xE5 SHL DUP2 MSTORE PUSH1 0x20 PUSH1 0x4 DUP3 ADD MSTORE PUSH1 0x26 PUSH1 0x24 DUP3 ADD MSTORE PUSH32 0x45524332303A207472616E7366657220616D6F756E7420657863656564732062 PUSH1 0x44 DUP3 ADD MSTORE PUSH6 0x616C616E6365 PUSH1 0xD0 SHL PUSH1 0x64 DUP3 ADD MSTORE PUSH1 0x84 ADD PUSH2 0xA8D JUMP JUMPDEST PUSH1 0x1 PUSH1 0x1 PUSH1 0xA0 SHL SUB DUP1 DUP6 AND PUSH1 0x0 SWAP1 DUP2 MSTORE PUSH1 0x20 DUP2 SWAP1 MSTORE PUSH1 0x40 DUP1 DUP3 KECCAK256 DUP6 DUP6 SUB SWAP1 SSTORE SWAP2 DUP6 AND DUP2 MSTORE SWAP1 DUP2 KECCAK256 DUP1 SLOAD DUP5 SWAP3 SWAP1 PUSH2 0x3758 SWAP1 DUP5 SWAP1 PUSH2 0x4870 JUMP JUMPDEST SWAP3 POP POP DUP2 SWAP1 SSTORE POP DUP3 PUSH1 0x1 PUSH1 0x1 PUSH1 0xA0 SHL SUB AND DUP5 PUSH1 0x1 PUSH1 0x1 PUSH1 0xA0 SHL SUB AND PUSH32 0xDDF252AD1BE2C89B69C2B068FC378DAA952BA7F163C4A11628F55A4DF523B3EF DUP5 PUSH1 0x40 MLOAD PUSH2 0x37A4 SWAP2 DUP2 MSTORE PUSH1 0x20 ADD SWAP1 JUMP JUMPDEST PUSH1 0x40 MLOAD DUP1 SWAP2 SUB SWAP1 LOG3 POP POP POP POP JUMP JUMPDEST PUSH1 0x0 JUMPDEST PUSH1 0x1B SLOAD DUP2 PUSH1 0xFF AND LT ISZERO PUSH2 0x3B83 JUMPI PUSH1 0x0 DUP3 DUP2 MSTORE PUSH1 0x1A PUSH1 0x20 MSTORE PUSH1 0x40 DUP2 KECCAK256 PUSH1 0x4 ADD SLOAD PUSH1 0xFF AND PUSH1 0x2 DUP2 GT ISZERO PUSH2 0x37E8 JUMPI PUSH2 0x37E8 PUSH2 0x43FF JUMP JUMPDEST EQ ISZERO PUSH2 0x3B71 JUMPI PUSH1 0x0 PUSH1 0xFF DUP1 DUP4 AND PUSH1 0x0 SWAP1 DUP2 MSTORE PUSH1 0x19 PUSH1 0x20 MSTORE PUSH1 0x40 SWAP1 KECCAK256 PUSH1 0x4 ADD SLOAD AND PUSH1 0x2 DUP2 GT ISZERO PUSH2 0x3819 JUMPI PUSH2 0x3819 PUSH2 0x43FF JUMP JUMPDEST EQ ISZERO PUSH2 0x3B71 JUMPI PUSH1 0xFF DUP2 AND PUSH1 0x0 SWAP1 DUP2 MSTORE PUSH1 0x19 PUSH1 0x20 SWAP1 DUP2 MSTORE PUSH1 0x40 DUP1 DUP4 KECCAK256 PUSH1 0x2 SWAP1 DUP2 ADD SLOAD DUP7 DUP6 MSTORE PUSH1 0x1A SWAP1 SWAP4 MSTORE SWAP3 KECCAK256 SWAP1 SWAP2 ADD SLOAD EQ ISZERO PUSH2 0x3B71 JUMPI PUSH1 0x0 DUP3 DUP2 MSTORE PUSH1 0x1A PUSH1 0x20 DUP2 DUP2 MSTORE PUSH1 0x40 DUP1 DUP5 KECCAK256 DUP1 SLOAD PUSH1 0xFF DUP8 AND DUP7 MSTORE PUSH1 0x19 DUP5 MSTORE SWAP2 DUP6 KECCAK256 PUSH1 0x1 ADD SLOAD DUP8 DUP7 MSTORE SWAP4 SWAP1 SWAP3 MSTORE PUSH1 0x3 SWAP1 SWAP2 ADD SLOAD PUSH1 0x1 PUSH1 0x1 PUSH1 0xA0 SHL SUB SWAP1 SWAP2 AND SWAP3 SWAP2 GT PUSH2 0x3939 JUMPI PUSH1 0xFF DUP4 AND PUSH1 0x0 SWAP1 DUP2 MSTORE PUSH1 0x19 PUSH1 0x20 SWAP1 DUP2 MSTORE PUSH1 0x40 DUP1 DUP4 KECCAK256 PUSH1 0x1 ADD SLOAD DUP8 DUP5 MSTORE PUSH1 0x1A SWAP1 SWAP3 MSTORE SWAP1 SWAP2 KECCAK256 PUSH1 0x3 ADD SLOAD PUSH2 0x38C3 SWAP2 SWAP1 PUSH2 0x4AA1 JUMP JUMPDEST PUSH1 0x0 DUP6 DUP2 MSTORE PUSH1 0x1A PUSH1 0x20 DUP2 DUP2 MSTORE PUSH1 0x40 DUP1 DUP5 KECCAK256 PUSH1 0x3 SWAP1 DUP2 ADD SWAP6 DUP7 SSTORE PUSH1 0xFF DUP10 AND DUP6 MSTORE PUSH1 0x19 DUP4 MSTORE SWAP1 DUP5 KECCAK256 PUSH1 0x1 DUP1 DUP3 ADD DUP1 SLOAD SWAP4 DUP4 ADD DUP8 SWAP1 SSTORE DUP7 SWAP1 SSTORE PUSH1 0x4 SWAP1 SWAP2 ADD DUP1 SLOAD PUSH1 0xFF NOT AND SWAP1 SWAP2 OR SWAP1 SSTORE SWAP3 DUP9 SWAP1 MSTORE MSTORE SWAP1 SLOAD SWAP1 SWAP2 POP PUSH2 0x3934 JUMPI PUSH1 0x0 DUP5 DUP2 MSTORE PUSH1 0x1A PUSH1 0x20 MSTORE PUSH1 0x40 SWAP1 KECCAK256 PUSH1 0x4 ADD DUP1 SLOAD PUSH1 0xFF NOT AND PUSH1 0x1 OR SWAP1 SSTORE JUMPDEST PUSH2 0x3A30 JUMP JUMPDEST PUSH1 0x0 DUP5 DUP2 MSTORE PUSH1 0x1A PUSH1 0x20 MSTORE PUSH1 0x40 SWAP1 KECCAK256 PUSH1 0x3 DUP2 ADD SLOAD PUSH1 0x2 SWAP1 SWAP2 ADD SLOAD PUSH2 0x395C SWAP2 SWAP1 PUSH2 0x49DC JUMP JUMPDEST PUSH1 0xFF DUP5 AND PUSH1 0x0 SWAP1 DUP2 MSTORE PUSH1 0x19 PUSH1 0x20 MSTORE PUSH1 0x40 SWAP1 KECCAK256 PUSH1 0x3 ADD SLOAD PUSH2 0x397C SWAP2 SWAP1 PUSH2 0x4AA1 JUMP JUMPDEST PUSH1 0xFF DUP5 AND PUSH1 0x0 DUP2 DUP2 MSTORE PUSH1 0x19 PUSH1 0x20 DUP2 DUP2 MSTORE PUSH1 0x40 DUP1 DUP5 KECCAK256 PUSH1 0x3 DUP1 DUP3 ADD SWAP8 SWAP1 SWAP8 SSTORE DUP11 DUP6 MSTORE PUSH1 0x1A DUP4 MSTORE SWAP1 DUP5 KECCAK256 SWAP1 SWAP6 ADD SLOAD SWAP4 SWAP1 SWAP3 MSTORE SWAP1 MSTORE PUSH1 0x1 SWAP1 SWAP2 ADD SLOAD SWAP1 SWAP2 POP PUSH2 0x39C2 SWAP1 DUP3 SWAP1 PUSH2 0x4AA1 JUMP JUMPDEST PUSH1 0xFF DUP5 AND PUSH1 0x0 DUP2 DUP2 MSTORE PUSH1 0x19 PUSH1 0x20 DUP2 DUP2 MSTORE PUSH1 0x40 DUP1 DUP5 KECCAK256 PUSH1 0x1 DUP1 DUP3 ADD SWAP8 SWAP1 SWAP8 SSTORE DUP11 DUP6 MSTORE PUSH1 0x1A DUP4 MSTORE SWAP1 DUP5 KECCAK256 PUSH1 0x3 DUP1 DUP3 ADD DUP7 SWAP1 SSTORE PUSH1 0x4 SWAP1 SWAP2 ADD DUP1 SLOAD PUSH1 0xFF NOT AND SWAP1 SWAP8 OR SWAP1 SWAP7 SSTORE SWAP4 SWAP1 SWAP3 MSTORE SWAP1 MSTORE ADD SLOAD PUSH2 0x3A30 JUMPI PUSH1 0xFF DUP4 AND PUSH1 0x0 SWAP1 DUP2 MSTORE PUSH1 0x19 PUSH1 0x20 MSTORE PUSH1 0x40 SWAP1 KECCAK256 PUSH1 0x4 ADD DUP1 SLOAD PUSH1 0xFF NOT AND PUSH1 0x1 OR SWAP1 SSTORE JUMPDEST PUSH1 0xFF DUP4 AND PUSH1 0x0 SWAP1 DUP2 MSTORE PUSH1 0x19 PUSH1 0x20 MSTORE PUSH1 0x40 SWAP1 KECCAK256 PUSH1 0x2 ADD SLOAD PUSH1 0x1 PUSH1 0x1 PUSH1 0xA0 SHL SUB DUP4 AND SWAP1 PUSH2 0x8FC SWAP1 PUSH2 0x3A60 SWAP1 DUP5 SWAP1 PUSH2 0x49DC JUMP JUMPDEST PUSH1 0x40 MLOAD DUP2 ISZERO SWAP1 SWAP3 MUL SWAP2 PUSH1 0x0 DUP2 DUP2 DUP2 DUP6 DUP9 DUP9 CALL SWAP4 POP POP POP POP ISZERO DUP1 ISZERO PUSH2 0x3A88 JUMPI RETURNDATASIZE PUSH1 0x0 DUP1 RETURNDATACOPY RETURNDATASIZE PUSH1 0x0 REVERT JUMPDEST POP PUSH1 0xFF DUP4 AND PUSH1 0x0 SWAP1 DUP2 MSTORE PUSH1 0x19 PUSH1 0x20 MSTORE PUSH1 0x40 SWAP1 DUP2 SWAP1 KECCAK256 SLOAD SWAP1 MLOAD PUSH4 0xA9059CBB PUSH1 0xE0 SHL DUP2 MSTORE PUSH1 0x1 PUSH1 0x1 PUSH1 0xA0 SHL SUB SWAP1 SWAP2 AND PUSH1 0x4 DUP3 ADD MSTORE PUSH1 0x24 DUP2 ADD DUP3 SWAP1 MSTORE ADDRESS SWAP1 PUSH4 0xA9059CBB SWAP1 PUSH1 0x44 ADD PUSH1 0x20 PUSH1 0x40 MLOAD DUP1 DUP4 SUB DUP2 PUSH1 0x0 DUP8 GAS CALL ISZERO DUP1 ISZERO PUSH2 0x3AEB JUMPI RETURNDATASIZE PUSH1 0x0 DUP1 RETURNDATACOPY RETURNDATASIZE PUSH1 0x0 REVERT JUMPDEST POP POP POP POP PUSH1 0x40 MLOAD RETURNDATASIZE PUSH1 0x1F NOT PUSH1 0x1F DUP3 ADD AND DUP3 ADD DUP1 PUSH1 0x40 MSTORE POP DUP2 ADD SWAP1 PUSH2 0x3B0F SWAP2 SWAP1 PUSH2 0x48A8 JUMP JUMPDEST POP PUSH1 0xFF DUP4 AND PUSH1 0x0 SWAP1 DUP2 MSTORE PUSH1 0x19 PUSH1 0x20 MSTORE PUSH1 0x40 SWAP1 KECCAK256 PUSH1 0x2 ADD SLOAD PUSH2 0x3B6E SWAP1 PUSH2 0x3B35 SWAP1 DUP4 SWAP1 PUSH2 0x49DC JUMP JUMPDEST PUSH1 0xFF DUP6 AND PUSH1 0x0 DUP2 DUP2 MSTORE PUSH1 0x19 PUSH1 0x20 SWAP1 DUP2 MSTORE PUSH1 0x40 DUP1 DUP4 KECCAK256 SLOAD DUP11 DUP5 MSTORE PUSH1 0x1A SWAP1 SWAP3 MSTORE SWAP1 SWAP2 KECCAK256 SLOAD DUP6 SWAP3 SWAP2 DUP10 SWAP2 PUSH1 0x1 PUSH1 0x1 PUSH1 0xA0 SHL SUB SWAP2 DUP3 AND SWAP2 AND PUSH2 0x4031 JUMP JUMPDEST POP POP JUMPDEST DUP1 PUSH2 0x3B7B DUP2 PUSH2 0x4888 JUMP JUMPDEST SWAP2 POP POP PUSH2 0x37B5 JUMP JUMPDEST POP POP JUMP JUMPDEST PUSH1 0x0 JUMPDEST PUSH1 0x1C SLOAD DUP2 PUSH1 0xFF AND LT ISZERO PUSH2 0x3B83 JUMPI PUSH1 0x0 PUSH1 0xFF DUP1 DUP4 AND PUSH1 0x0 SWAP1 DUP2 MSTORE PUSH1 0x1A PUSH1 0x20 MSTORE PUSH1 0x40 SWAP1 KECCAK256 PUSH1 0x4 ADD SLOAD AND PUSH1 0x2 DUP2 GT ISZERO PUSH2 0x3BC2 JUMPI PUSH2 0x3BC2 PUSH2 0x43FF JUMP JUMPDEST EQ ISZERO PUSH2 0x3F40 JUMPI PUSH1 0x0 DUP3 DUP2 MSTORE PUSH1 0x19 PUSH1 0x20 MSTORE PUSH1 0x40 DUP2 KECCAK256 PUSH1 0x4 ADD SLOAD PUSH1 0xFF AND PUSH1 0x2 DUP2 GT ISZERO PUSH2 0x3BEE JUMPI PUSH2 0x3BEE PUSH2 0x43FF JUMP JUMPDEST EQ ISZERO PUSH2 0x3F40 JUMPI PUSH1 0x0 DUP3 DUP2 MSTORE PUSH1 0x19 PUSH1 0x20 SWAP1 DUP2 MSTORE PUSH1 0x40 DUP1 DUP4 KECCAK256 PUSH1 0x2 SWAP1 DUP2 ADD SLOAD PUSH1 0xFF DUP7 AND DUP6 MSTORE PUSH1 0x1A SWAP1 SWAP4 MSTORE SWAP3 KECCAK256 SWAP1 SWAP2 ADD SLOAD EQ ISZERO PUSH2 0x3F40 JUMPI PUSH1 0xFF DUP2 AND PUSH1 0x0 DUP2 DUP2 MSTORE PUSH1 0x1A PUSH1 0x20 DUP2 DUP2 MSTORE PUSH1 0x40 DUP1 DUP5 KECCAK256 DUP1 SLOAD DUP9 DUP7 MSTORE PUSH1 0x19 DUP5 MSTORE SWAP2 DUP6 KECCAK256 PUSH1 0x1 ADD SLOAD SWAP6 DUP6 MSTORE SWAP3 SWAP1 SWAP2 MSTORE PUSH1 0x3 SWAP1 SWAP2 ADD SLOAD PUSH1 0x1 PUSH1 0x1 PUSH1 0xA0 SHL SUB SWAP1 SWAP2 AND SWAP3 GT PUSH2 0x3D12 JUMPI PUSH1 0x0 DUP5 DUP2 MSTORE PUSH1 0x19 PUSH1 0x20 SWAP1 DUP2 MSTORE PUSH1 0x40 DUP1 DUP4 KECCAK256 PUSH1 0x1 ADD SLOAD PUSH1 0xFF DUP8 AND DUP5 MSTORE PUSH1 0x1A SWAP1 SWAP3 MSTORE SWAP1 SWAP2 KECCAK256 PUSH1 0x3 ADD SLOAD PUSH2 0x3C96 SWAP2 SWAP1 PUSH2 0x4AA1 JUMP JUMPDEST PUSH1 0xFF DUP5 AND PUSH1 0x0 DUP2 DUP2 MSTORE PUSH1 0x1A PUSH1 0x20 DUP2 DUP2 MSTORE PUSH1 0x40 DUP1 DUP5 KECCAK256 PUSH1 0x3 SWAP1 DUP2 ADD SWAP7 DUP8 SSTORE DUP11 DUP6 MSTORE PUSH1 0x19 DUP4 MSTORE SWAP1 DUP5 KECCAK256 PUSH1 0x1 DUP1 DUP3 ADD DUP1 SLOAD SWAP4 DUP4 ADD DUP8 SWAP1 SSTORE DUP7 SWAP1 SSTORE PUSH1 0x4 SWAP1 SWAP2 ADD DUP1 SLOAD PUSH1 0xFF NOT AND SWAP1 SWAP2 OR SWAP1 SSTORE SWAP4 SWAP1 SWAP3 MSTORE SWAP1 MSTORE SWAP1 SLOAD SWAP1 SWAP2 POP PUSH2 0x3D0D JUMPI PUSH1 0xFF DUP4 AND PUSH1 0x0 SWAP1 DUP2 MSTORE PUSH1 0x1A PUSH1 0x20 MSTORE PUSH1 0x40 SWAP1 KECCAK256 PUSH1 0x4 ADD DUP1 SLOAD PUSH1 0xFF NOT AND PUSH1 0x1 OR SWAP1 SSTORE JUMPDEST PUSH2 0x3E0C JUMP JUMPDEST PUSH1 0xFF DUP4 AND PUSH1 0x0 SWAP1 DUP2 MSTORE PUSH1 0x1A PUSH1 0x20 MSTORE PUSH1 0x40 SWAP1 KECCAK256 PUSH1 0x3 DUP2 ADD SLOAD PUSH1 0x2 SWAP1 SWAP2 ADD SLOAD PUSH2 0x3D39 SWAP2 SWAP1 PUSH2 0x49DC JUMP JUMPDEST PUSH1 0x0 DUP6 DUP2 MSTORE PUSH1 0x19 PUSH1 0x20 MSTORE PUSH1 0x40 SWAP1 KECCAK256 PUSH1 0x3 ADD SLOAD PUSH2 0x3D55 SWAP2 SWAP1 PUSH2 0x4AA1 JUMP JUMPDEST PUSH1 0x0 DUP6 DUP2 MSTORE PUSH1 0x19 PUSH1 0x20 DUP2 DUP2 MSTORE PUSH1 0x40 DUP1 DUP5 KECCAK256 PUSH1 0x3 DUP1 DUP3 ADD SWAP7 SWAP1 SWAP7 SSTORE PUSH1 0xFF DUP10 AND DUP6 MSTORE PUSH1 0x1A DUP4 MSTORE SWAP1 DUP5 KECCAK256 SWAP1 SWAP5 ADD SLOAD SWAP3 DUP9 SWAP1 MSTORE MSTORE PUSH1 0x1 SWAP1 SWAP2 ADD SLOAD PUSH2 0x3D95 SWAP2 SWAP1 PUSH2 0x4AA1 JUMP JUMPDEST PUSH1 0x0 DUP6 DUP2 MSTORE PUSH1 0x19 PUSH1 0x20 SWAP1 DUP2 MSTORE PUSH1 0x40 DUP1 DUP4 KECCAK256 PUSH1 0x1 SWAP1 DUP2 ADD SWAP5 SWAP1 SWAP5 SSTORE PUSH1 0xFF DUP8 AND DUP4 MSTORE PUSH1 0x1A SWAP1 SWAP2 MSTORE DUP2 KECCAK256 PUSH1 0x3 DUP2 ADD DUP1 SLOAD SWAP3 SWAP1 SSTORE PUSH1 0x4 ADD DUP1 SLOAD SWAP2 SWAP4 POP SWAP1 PUSH1 0xFF NOT AND DUP3 DUP1 MUL OR SWAP1 SSTORE POP PUSH1 0x0 DUP5 DUP2 MSTORE PUSH1 0x19 PUSH1 0x20 MSTORE PUSH1 0x40 SWAP1 KECCAK256 PUSH1 0x3 ADD SLOAD PUSH2 0x3E0C JUMPI PUSH1 0x0 DUP5 DUP2 MSTORE PUSH1 0x19 PUSH1 0x20 MSTORE PUSH1 0x40 SWAP1 KECCAK256 PUSH1 0x4 ADD DUP1 SLOAD PUSH1 0xFF NOT AND PUSH1 0x1 OR SWAP1 SSTORE JUMPDEST PUSH1 0x0 DUP5 DUP2 MSTORE PUSH1 0x19 PUSH1 0x20 MSTORE PUSH1 0x40 SWAP1 KECCAK256 PUSH1 0x2 ADD SLOAD PUSH1 0x1 PUSH1 0x1 PUSH1 0xA0 SHL SUB DUP4 AND SWAP1 PUSH2 0x8FC SWAP1 PUSH2 0x3E38 SWAP1 DUP5 SWAP1 PUSH2 0x49DC JUMP JUMPDEST PUSH1 0x40 MLOAD DUP2 ISZERO SWAP1 SWAP3 MUL SWAP2 PUSH1 0x0 DUP2 DUP2 DUP2 DUP6 DUP9 DUP9 CALL SWAP4 POP POP POP POP ISZERO DUP1 ISZERO PUSH2 0x3E60 JUMPI RETURNDATASIZE PUSH1 0x0 DUP1 RETURNDATACOPY RETURNDATASIZE PUSH1 0x0 REVERT JUMPDEST POP PUSH1 0x0 DUP5 DUP2 MSTORE PUSH1 0x19 PUSH1 0x20 MSTORE PUSH1 0x40 SWAP1 DUP2 SWAP1 KECCAK256 SLOAD SWAP1 MLOAD PUSH4 0xA9059CBB PUSH1 0xE0 SHL DUP2 MSTORE PUSH1 0x1 PUSH1 0x1 PUSH1 0xA0 SHL SUB SWAP1 SWAP2 AND PUSH1 0x4 DUP3 ADD MSTORE PUSH1 0x24 DUP2 ADD DUP3 SWAP1 MSTORE ADDRESS SWAP1 PUSH4 0xA9059CBB SWAP1 PUSH1 0x44 ADD PUSH1 0x20 PUSH1 0x40 MLOAD DUP1 DUP4 SUB DUP2 PUSH1 0x0 DUP8 GAS CALL ISZERO DUP1 ISZERO PUSH2 0x3EBF JUMPI RETURNDATASIZE PUSH1 0x0 DUP1 RETURNDATACOPY RETURNDATASIZE PUSH1 0x0 REVERT JUMPDEST POP POP POP POP PUSH1 0x40 MLOAD RETURNDATASIZE PUSH1 0x1F NOT PUSH1 0x1F DUP3 ADD AND DUP3 ADD DUP1 PUSH1 0x40 MSTORE POP DUP2 ADD SWAP1 PUSH2 0x3EE3 SWAP2 SWAP1 PUSH2 0x48A8 JUMP JUMPDEST POP PUSH1 0x0 DUP5 DUP2 MSTORE PUSH1 0x19 PUSH1 0x20 MSTORE PUSH1 0x40 SWAP1 KECCAK256 PUSH1 0x2 ADD SLOAD PUSH2 0x3F3D SWAP1 PUSH2 0x3F05 SWAP1 DUP4 SWAP1 PUSH2 0x49DC JUMP JUMPDEST PUSH1 0x0 DUP7 DUP2 MSTORE PUSH1 0x19 PUSH1 0x20 SWAP1 DUP2 MSTORE PUSH1 0x40 DUP1 DUP4 KECCAK256 SLOAD PUSH1 0xFF DUP10 AND DUP1 DUP6 MSTORE PUSH1 0x1A SWAP1 SWAP4 MSTORE SWAP3 KECCAK256 SLOAD DUP6 SWAP3 DUP10 SWAP3 SWAP2 PUSH1 0x1 PUSH1 0x1 PUSH1 0xA0 SHL SUB SWAP2 DUP3 AND SWAP2 AND PUSH2 0x4031 JUMP JUMPDEST POP POP JUMPDEST DUP1 PUSH2 0x3F4A DUP2 PUSH2 0x4888 JUMP JUMPDEST SWAP2 POP POP PUSH2 0x3B8A JUMP JUMPDEST PUSH1 0x1 PUSH1 0x1 PUSH1 0xA0 SHL SUB DUP3 AND PUSH2 0x3FA8 JUMPI PUSH1 0x40 MLOAD PUSH3 0x461BCD PUSH1 0xE5 SHL DUP2 MSTORE PUSH1 0x20 PUSH1 0x4 DUP3 ADD MSTORE PUSH1 0x1F PUSH1 0x24 DUP3 ADD MSTORE PUSH32 0x45524332303A206D696E7420746F20746865207A65726F206164647265737300 PUSH1 0x44 DUP3 ADD MSTORE PUSH1 0x64 ADD PUSH2 0xA8D JUMP JUMPDEST DUP1 PUSH1 0x2 PUSH1 0x0 DUP3 DUP3 SLOAD PUSH2 0x3FBA SWAP2 SWAP1 PUSH2 0x4870 JUMP JUMPDEST SWAP1 SWAP2 SSTORE POP POP PUSH1 0x1 PUSH1 0x1 PUSH1 0xA0 SHL SUB DUP3 AND PUSH1 0x0 SWAP1 DUP2 MSTORE PUSH1 0x20 DUP2 SWAP1 MSTORE PUSH1 0x40 DUP2 KECCAK256 DUP1 SLOAD DUP4 SWAP3 SWAP1 PUSH2 0x3FE7 SWAP1 DUP5 SWAP1 PUSH2 0x4870 JUMP JUMPDEST SWAP1 SWAP2 SSTORE POP POP PUSH1 0x40 MLOAD DUP2 DUP2 MSTORE PUSH1 0x1 PUSH1 0x1 PUSH1 0xA0 SHL SUB DUP4 AND SWAP1 PUSH1 0x0 SWAP1 PUSH32 0xDDF252AD1BE2C89B69C2B068FC378DAA952BA7F163C4A11628F55A4DF523B3EF SWAP1 PUSH1 0x20 ADD PUSH1 0x40 MLOAD DUP1 SWAP2 SUB SWAP1 LOG3 POP POP JUMP JUMPDEST PUSH1 0x18 DUP1 SLOAD PUSH1 0x0 SWAP1 DUP2 MSTORE PUSH1 0x17 PUSH1 0x20 MSTORE PUSH1 0x40 DUP1 DUP3 KECCAK256 DUP10 SWAP1 SSTORE DUP3 SLOAD DUP3 MSTORE DUP1 DUP3 KECCAK256 PUSH1 0x1 ADD DUP9 SWAP1 SSTORE DUP3 SLOAD DUP3 MSTORE DUP1 DUP3 KECCAK256 TIMESTAMP PUSH1 0x6 SWAP1 SWAP2 ADD SSTORE DUP3 SLOAD DUP3 MSTORE DUP1 DUP3 KECCAK256 PUSH1 0x2 ADD DUP8 SWAP1 SSTORE DUP3 SLOAD DUP3 MSTORE DUP1 DUP3 KECCAK256 PUSH1 0x3 ADD DUP7 SWAP1 SSTORE DUP3 SLOAD DUP3 MSTORE DUP1 DUP3 KECCAK256 PUSH1 0x4 ADD DUP1 SLOAD PUSH1 0x1 PUSH1 0x1 PUSH1 0xA0 SHL SUB DUP1 DUP9 AND PUSH1 0x1 PUSH1 0x1 PUSH1 0xA0 SHL SUB NOT SWAP3 DUP4 AND OR SWAP1 SWAP3 SSTORE DUP5 SLOAD DUP5 MSTORE SWAP2 DUP4 KECCAK256 PUSH1 0x5 ADD DUP1 SLOAD SWAP2 DUP7 AND SWAP2 SWAP1 SWAP3 AND OR SWAP1 SSTORE DUP2 SLOAD SWAP2 SWAP1 PUSH2 0x40C6 DUP4 PUSH2 0x4A4F JUMP JUMPDEST SWAP2 SWAP1 POP SSTORE POP POP POP POP POP POP POP JUMP JUMPDEST DUP3 DUP1 SLOAD PUSH2 0x40DF SWAP1 PUSH2 0x4825 JUMP JUMPDEST SWAP1 PUSH1 0x0 MSTORE PUSH1 0x20 PUSH1 0x0 KECCAK256 SWAP1 PUSH1 0x1F ADD PUSH1 0x20 SWAP1 DIV DUP2 ADD SWAP3 DUP3 PUSH2 0x4101 JUMPI PUSH1 0x0 DUP6 SSTORE PUSH2 0x4147 JUMP JUMPDEST DUP3 PUSH1 0x1F LT PUSH2 0x411A JUMPI DUP1 MLOAD PUSH1 0xFF NOT AND DUP4 DUP1 ADD OR DUP6 SSTORE PUSH2 0x4147 JUMP JUMPDEST DUP3 DUP1 ADD PUSH1 0x1 ADD DUP6 SSTORE DUP3 ISZERO PUSH2 0x4147 JUMPI SWAP2 DUP3 ADD JUMPDEST DUP3 DUP2 GT ISZERO PUSH2 0x4147 JUMPI DUP3 MLOAD DUP3 SSTORE SWAP2 PUSH1 0x20 ADD SWAP2 SWAP1 PUSH1 0x1 ADD SWAP1 PUSH2 0x412C JUMP JUMPDEST POP PUSH2 0x4153 SWAP3 SWAP2 POP PUSH2 0x4157 JUMP JUMPDEST POP SWAP1 JUMP JUMPDEST JUMPDEST DUP1 DUP3 GT ISZERO PUSH2 0x4153 JUMPI PUSH1 0x0 DUP2 SSTORE PUSH1 0x1 ADD PUSH2 0x4158 JUMP JUMPDEST PUSH1 0x0 DUP2 MLOAD DUP1 DUP5 MSTORE PUSH1 0x0 JUMPDEST DUP2 DUP2 LT ISZERO PUSH2 0x4192 JUMPI PUSH1 0x20 DUP2 DUP6 ADD DUP2 ADD MLOAD DUP7 DUP4 ADD DUP3 ADD MSTORE ADD PUSH2 0x4176 JUMP JUMPDEST DUP2 DUP2 GT ISZERO PUSH2 0x41A4 JUMPI PUSH1 0x0 PUSH1 0x20 DUP4 DUP8 ADD ADD MSTORE JUMPDEST POP PUSH1 0x1F ADD PUSH1 0x1F NOT AND SWAP3 SWAP1 SWAP3 ADD PUSH1 0x20 ADD SWAP3 SWAP2 POP POP JUMP JUMPDEST PUSH1 0x20 DUP2 MSTORE PUSH1 0x0 PUSH2 0x2209 PUSH1 0x20 DUP4 ADD DUP5 PUSH2 0x416C JUMP JUMPDEST DUP1 CALLDATALOAD PUSH1 0x1 PUSH1 0x1 PUSH1 0xA0 SHL SUB DUP2 AND DUP2 EQ PUSH2 0x41E3 JUMPI PUSH1 0x0 DUP1 REVERT JUMPDEST SWAP2 SWAP1 POP JUMP JUMPDEST PUSH1 0x0 DUP1 PUSH1 0x40 DUP4 DUP6 SUB SLT ISZERO PUSH2 0x41FB JUMPI PUSH1 0x0 DUP1 REVERT JUMPDEST PUSH2 0x4204 DUP4 PUSH2 0x41CC JUMP JUMPDEST SWAP5 PUSH1 0x20 SWAP4 SWAP1 SWAP4 ADD CALLDATALOAD SWAP4 POP POP POP JUMP JUMPDEST PUSH1 0x0 PUSH1 0x20 DUP3 DUP5 SUB SLT ISZERO PUSH2 0x4224 JUMPI PUSH1 0x0 DUP1 REVERT JUMPDEST POP CALLDATALOAD SWAP2 SWAP1 POP JUMP JUMPDEST PUSH1 0x0 DUP1 PUSH1 0x0 PUSH1 0x60 DUP5 DUP7 SUB SLT ISZERO PUSH2 0x4240 JUMPI PUSH1 0x0 DUP1 REVERT JUMPDEST PUSH2 0x4249 DUP5 PUSH2 0x41CC JUMP JUMPDEST SWAP3 POP PUSH2 0x4257 PUSH1 0x20 DUP6 ADD PUSH2 0x41CC JUMP JUMPDEST SWAP2 POP PUSH1 0x40 DUP5 ADD CALLDATALOAD SWAP1 POP SWAP3 POP SWAP3 POP SWAP3 JUMP JUMPDEST PUSH1 0x0 DUP2 MLOAD DUP1 DUP5 MSTORE PUSH1 0x20 DUP1 DUP6 ADD SWAP5 POP DUP1 DUP5 ADD PUSH1 0x0 JUMPDEST DUP4 DUP2 LT ISZERO PUSH2 0x4297 JUMPI DUP2 MLOAD DUP8 MSTORE SWAP6 DUP3 ADD SWAP6 SWAP1 DUP3 ADD SWAP1 PUSH1 0x1 ADD PUSH2 0x427B JUMP JUMPDEST POP SWAP5 SWAP6 SWAP5 POP POP POP POP POP JUMP JUMPDEST PUSH1 0x80 DUP2 MSTORE PUSH1 0x0 PUSH2 0x42B5 PUSH1 0x80 DUP4 ADD DUP8 PUSH2 0x4267 JUMP JUMPDEST DUP3 DUP2 SUB PUSH1 0x20 DUP5 ADD MSTORE PUSH2 0x42C7 DUP2 DUP8 PUSH2 0x4267 JUMP JUMPDEST SWAP1 POP DUP3 DUP2 SUB PUSH1 0x40 DUP5 ADD MSTORE PUSH2 0x42DB DUP2 DUP7 PUSH2 0x4267 JUMP JUMPDEST SWAP1 POP DUP3 DUP2 SUB PUSH1 0x60 DUP5 ADD MSTORE PUSH2 0x42EF DUP2 DUP6 PUSH2 0x4267 JUMP JUMPDEST SWAP8 SWAP7 POP POP POP POP POP POP POP JUMP JUMPDEST PUSH4 0x4E487B71 PUSH1 0xE0 SHL PUSH1 0x0 MSTORE PUSH1 0x41 PUSH1 0x4 MSTORE PUSH1 0x24 PUSH1 0x0 REVERT JUMPDEST PUSH1 0x0 DUP3 PUSH1 0x1F DUP4 ADD SLT PUSH2 0x4321 JUMPI PUSH1 0x0 DUP1 REVERT JUMPDEST DUP2 CALLDATALOAD PUSH1 0x1 PUSH1 0x1 PUSH1 0x40 SHL SUB DUP1 DUP3 GT ISZERO PUSH2 0x433B JUMPI PUSH2 0x433B PUSH2 0x42FA JUMP JUMPDEST PUSH1 0x40 MLOAD PUSH1 0x1F DUP4 ADD PUSH1 0x1F NOT SWAP1 DUP2 AND PUSH1 0x3F ADD AND DUP2 ADD SWAP1 DUP3 DUP3 GT DUP2 DUP4 LT OR ISZERO PUSH2 0x4363 JUMPI PUSH2 0x4363 PUSH2 0x42FA JUMP JUMPDEST DUP2 PUSH1 0x40 MSTORE DUP4 DUP2 MSTORE DUP7 PUSH1 0x20 DUP6 DUP9 ADD ADD GT ISZERO PUSH2 0x437C JUMPI PUSH1 0x0 DUP1 REVERT JUMPDEST DUP4 PUSH1 0x20 DUP8 ADD PUSH1 0x20 DUP4 ADD CALLDATACOPY PUSH1 0x0 PUSH1 0x20 DUP6 DUP4 ADD ADD MSTORE DUP1 SWAP5 POP POP POP POP POP SWAP3 SWAP2 POP POP JUMP JUMPDEST PUSH1 0x0 DUP1 PUSH1 0x40 DUP4 DUP6 SUB SLT ISZERO PUSH2 0x43AF JUMPI PUSH1 0x0 DUP1 REVERT JUMPDEST DUP3 CALLDATALOAD PUSH1 0x1 PUSH1 0x1 PUSH1 0x40 SHL SUB DUP1 DUP3 GT ISZERO PUSH2 0x43C6 JUMPI PUSH1 0x0 DUP1 REVERT JUMPDEST PUSH2 0x43D2 DUP7 DUP4 DUP8 ADD PUSH2 0x4310 JUMP JUMPDEST SWAP4 POP PUSH1 0x20 DUP6 ADD CALLDATALOAD SWAP2 POP DUP1 DUP3 GT ISZERO PUSH2 0x43E8 JUMPI PUSH1 0x0 DUP1 REVERT JUMPDEST POP PUSH2 0x43F5 DUP6 DUP3 DUP7 ADD PUSH2 0x4310 JUMP JUMPDEST SWAP2 POP POP SWAP3 POP SWAP3 SWAP1 POP JUMP JUMPDEST PUSH4 0x4E487B71 PUSH1 0xE0 SHL PUSH1 0x0 MSTORE PUSH1 0x21 PUSH1 0x4 MSTORE PUSH1 0x24 PUSH1 0x0 REVERT JUMPDEST PUSH1 0x20 DUP2 ADD PUSH1 0x4 DUP4 LT PUSH2 0x4429 JUMPI PUSH2 0x4429 PUSH2 0x43FF JUMP JUMPDEST SWAP2 SWAP1 MSTORE SWAP1 JUMP JUMPDEST PUSH1 0x0 PUSH1 0x20 DUP3 DUP5 SUB SLT ISZERO PUSH2 0x4441 JUMPI PUSH1 0x0 DUP1 REVERT JUMPDEST PUSH2 0x2209 DUP3 PUSH2 0x41CC JUMP JUMPDEST PUSH1 0x0 DUP2 MLOAD DUP1 DUP5 MSTORE PUSH1 0x20 DUP1 DUP6 ADD SWAP5 POP DUP1 DUP5 ADD PUSH1 0x0 JUMPDEST DUP4 DUP2 LT ISZERO PUSH2 0x4297 JUMPI DUP2 MLOAD PUSH1 0x1 PUSH1 0x1 PUSH1 0xA0 SHL SUB AND DUP8 MSTORE SWAP6 DUP3 ADD SWAP6 SWAP1 DUP3 ADD SWAP1 PUSH1 0x1 ADD PUSH2 0x445E JUMP JUMPDEST PUSH1 0xA0 DUP2 MSTORE PUSH1 0x0 PUSH2 0x4496 PUSH1 0xA0 DUP4 ADD DUP9 PUSH2 0x4267 JUMP JUMPDEST DUP3 DUP2 SUB PUSH1 0x20 DUP5 ADD MSTORE PUSH2 0x44A8 DUP2 DUP9 PUSH2 0x4267 JUMP JUMPDEST SWAP1 POP DUP3 DUP2 SUB PUSH1 0x40 DUP5 ADD MSTORE PUSH2 0x44BC DUP2 DUP8 PUSH2 0x4267 JUMP JUMPDEST SWAP1 POP DUP3 DUP2 SUB PUSH1 0x60 DUP5 ADD MSTORE PUSH2 0x44D0 DUP2 DUP7 PUSH2 0x444A JUMP JUMPDEST SWAP1 POP DUP3 DUP2 SUB PUSH1 0x80 DUP5 ADD MSTORE PUSH2 0x44E4 DUP2 DUP6 PUSH2 0x444A JUMP JUMPDEST SWAP9 SWAP8 POP POP POP POP POP POP POP POP JUMP JUMPDEST PUSH1 0xC0 DUP2 MSTORE PUSH1 0x0 PUSH2 0x4503 PUSH1 0xC0 DUP4 ADD DUP10 PUSH2 0x444A JUMP JUMPDEST PUSH1 0x20 DUP4 DUP3 SUB DUP2 DUP6 ADD MSTORE PUSH2 0x4516 DUP3 DUP11 PUSH2 0x4267 JUMP JUMPDEST SWAP2 POP DUP4 DUP3 SUB PUSH1 0x40 DUP6 ADD MSTORE PUSH2 0x452A DUP3 DUP10 PUSH2 0x4267 JUMP JUMPDEST SWAP2 POP DUP4 DUP3 SUB PUSH1 0x60 DUP6 ADD MSTORE PUSH2 0x453E DUP3 DUP9 PUSH2 0x4267 JUMP JUMPDEST DUP5 DUP2 SUB PUSH1 0x80 DUP7 ADD MSTORE DUP7 MLOAD DUP1 DUP3 MSTORE DUP3 DUP9 ADD SWAP4 POP SWAP1 DUP3 ADD SWAP1 PUSH1 0x0 JUMPDEST DUP2 DUP2 LT ISZERO PUSH2 0x4583 JUMPI DUP5 MLOAD PUSH1 0x3 DUP2 LT PUSH2 0x4571 JUMPI PUSH2 0x4571 PUSH2 0x43FF JUMP JUMPDEST DUP4 MSTORE SWAP4 DUP4 ADD SWAP4 SWAP2 DUP4 ADD SWAP2 PUSH1 0x1 ADD PUSH2 0x4557 JUMP JUMPDEST POP POP DUP5 DUP2 SUB PUSH1 0xA0 DUP7 ADD MSTORE PUSH2 0x4597 DUP2 DUP8 PUSH2 0x4267 JUMP JUMPDEST SWAP12 SWAP11 POP POP POP POP POP POP POP POP POP POP POP JUMP JUMPDEST PUSH1 0x0 DUP1 PUSH1 0x0 DUP1 PUSH1 0x0 DUP1 PUSH1 0xC0 DUP8 DUP10 SUB SLT ISZERO PUSH2 0x45BF JUMPI PUSH1 0x0 DUP1 REVERT JUMPDEST DUP7 CALLDATALOAD PUSH1 0x1 PUSH1 0x1 PUSH1 0x40 SHL SUB DUP1 DUP3 GT ISZERO PUSH2 0x45D6 JUMPI PUSH1 0x0 DUP1 REVERT JUMPDEST PUSH2 0x45E2 DUP11 DUP4 DUP12 ADD PUSH2 0x4310 JUMP JUMPDEST SWAP8 POP PUSH1 0x20 DUP10 ADD CALLDATALOAD SWAP2 POP DUP1 DUP3 GT ISZERO PUSH2 0x45F8 JUMPI PUSH1 0x0 DUP1 REVERT JUMPDEST PUSH2 0x4604 DUP11 DUP4 DUP12 ADD PUSH2 0x4310 JUMP JUMPDEST SWAP7 POP PUSH1 0x40 DUP10 ADD CALLDATALOAD SWAP2 POP DUP1 DUP3 GT ISZERO PUSH2 0x461A JUMPI PUSH1 0x0 DUP1 REVERT JUMPDEST PUSH2 0x4626 DUP11 DUP4 DUP12 ADD PUSH2 0x4310 JUMP JUMPDEST SWAP6 POP PUSH1 0x60 DUP10 ADD CALLDATALOAD SWAP2 POP DUP1 DUP3 GT ISZERO PUSH2 0x463C JUMPI PUSH1 0x0 DUP1 REVERT JUMPDEST PUSH2 0x4648 DUP11 DUP4 DUP12 ADD PUSH2 0x4310 JUMP JUMPDEST SWAP5 POP PUSH1 0x80 DUP10 ADD CALLDATALOAD SWAP4 POP PUSH1 0xA0 DUP10 ADD CALLDATALOAD SWAP2 POP DUP1 DUP3 GT ISZERO PUSH2 0x4665 JUMPI PUSH1 0x0 DUP1 REVERT JUMPDEST POP PUSH2 0x4672 DUP10 DUP3 DUP11 ADD PUSH2 0x4310 JUMP JUMPDEST SWAP2 POP POP SWAP3 SWAP6 POP SWAP3 SWAP6 POP SWAP3 SWAP6 JUMP JUMPDEST PUSH1 0x20 DUP2 MSTORE PUSH1 0x0 PUSH2 0x2209 PUSH1 0x20 DUP4 ADD DUP5 PUSH2 0x444A JUMP JUMPDEST PUSH1 0x0 DUP1 PUSH1 0x40 DUP4 DUP6 SUB SLT ISZERO PUSH2 0x46A5 JUMPI PUSH1 0x0 DUP1 REVERT JUMPDEST POP POP DUP1 CALLDATALOAD SWAP3 PUSH1 0x20 SWAP1 SWAP2 ADD CALLDATALOAD SWAP2 POP JUMP JUMPDEST PUSH1 0x40 DUP2 MSTORE PUSH1 0x0 PUSH2 0x46C7 PUSH1 0x40 DUP4 ADD DUP6 PUSH2 0x416C JUMP JUMPDEST DUP3 DUP2 SUB PUSH1 0x20 DUP5 ADD MSTORE PUSH2 0x46D9 DUP2 DUP6 PUSH2 0x416C JUMP JUMPDEST SWAP6 SWAP5 POP POP POP POP POP JUMP JUMPDEST PUSH1 0x20 DUP2 MSTORE PUSH1 0x0 DUP3 MLOAD PUSH1 0xC0 PUSH1 0x20 DUP5 ADD MSTORE PUSH2 0x46FE PUSH1 0xE0 DUP5 ADD DUP3 PUSH2 0x416C JUMP JUMPDEST SWAP1 POP PUSH1 0x20 DUP5 ADD MLOAD PUSH1 0x1F NOT DUP1 DUP6 DUP5 SUB ADD PUSH1 0x40 DUP7 ADD MSTORE PUSH2 0x471C DUP4 DUP4 PUSH2 0x416C JUMP JUMPDEST SWAP3 POP PUSH1 0x40 DUP7 ADD MLOAD SWAP2 POP DUP1 DUP6 DUP5 SUB ADD PUSH1 0x60 DUP7 ADD MSTORE PUSH2 0x4739 DUP4 DUP4 PUSH2 0x416C JUMP JUMPDEST SWAP3 POP PUSH1 0x60 DUP7 ADD MLOAD PUSH1 0x80 DUP7 ADD MSTORE PUSH1 0x80 DUP7 ADD MLOAD SWAP2 POP DUP1 DUP6 DUP5 SUB ADD PUSH1 0xA0 DUP7 ADD MSTORE PUSH2 0x4760 DUP4 DUP4 PUSH2 0x416C JUMP JUMPDEST SWAP3 POP PUSH1 0xA0 DUP7 ADD MLOAD SWAP2 POP DUP1 DUP6 DUP5 SUB ADD PUSH1 0xC0 DUP7 ADD MSTORE POP PUSH2 0x46D9 DUP3 DUP3 PUSH2 0x416C JUMP JUMPDEST PUSH1 0x0 DUP1 PUSH1 0x40 DUP4 DUP6 SUB SLT ISZERO PUSH2 0x4791 JUMPI PUSH1 0x0 DUP1 REVERT JUMPDEST PUSH2 0x479A DUP4 PUSH2 0x41CC JUMP JUMPDEST SWAP2 POP PUSH2 0x47A8 PUSH1 0x20 DUP5 ADD PUSH2 0x41CC JUMP JUMPDEST SWAP1 POP SWAP3 POP SWAP3 SWAP1 POP JUMP JUMPDEST PUSH1 0xC0 DUP2 MSTORE PUSH1 0x0 PUSH2 0x47C4 PUSH1 0xC0 DUP4 ADD DUP10 PUSH2 0x416C JUMP JUMPDEST DUP3 DUP2 SUB PUSH1 0x20 DUP5 ADD MSTORE PUSH2 0x47D6 DUP2 DUP10 PUSH2 0x416C JUMP JUMPDEST SWAP1 POP DUP3 DUP2 SUB PUSH1 0x40 DUP5 ADD MSTORE PUSH2 0x47EA DUP2 DUP9 PUSH2 0x416C JUMP JUMPDEST SWAP1 POP DUP6 PUSH1 0x60 DUP5 ADD MSTORE DUP3 DUP2 SUB PUSH1 0x80 DUP5 ADD MSTORE PUSH2 0x4804 DUP2 DUP7 PUSH2 0x416C JUMP JUMPDEST SWAP1 POP DUP3 DUP2 SUB PUSH1 0xA0 DUP5 ADD MSTORE PUSH2 0x4818 DUP2 DUP6 PUSH2 0x416C JUMP JUMPDEST SWAP10 SWAP9 POP POP POP POP POP POP POP POP POP JUMP JUMPDEST PUSH1 0x1 DUP2 DUP2 SHR SWAP1 DUP3 AND DUP1 PUSH2 0x4839 JUMPI PUSH1 0x7F DUP3 AND SWAP2 POP JUMPDEST PUSH1 0x20 DUP3 LT DUP2 EQ ISZERO PUSH2 0xA25 JUMPI PUSH4 0x4E487B71 PUSH1 0xE0 SHL PUSH1 0x0 MSTORE PUSH1 0x22 PUSH1 0x4 MSTORE PUSH1 0x24 PUSH1 0x0 REVERT JUMPDEST PUSH4 0x4E487B71 PUSH1 0xE0 SHL PUSH1 0x0 MSTORE PUSH1 0x11 PUSH1 0x4 MSTORE PUSH1 0x24 PUSH1 0x0 REVERT JUMPDEST PUSH1 0x0 DUP3 NOT DUP3 GT ISZERO PUSH2 0x4883 JUMPI PUSH2 0x4883 PUSH2 0x485A JUMP JUMPDEST POP ADD SWAP1 JUMP JUMPDEST PUSH1 0x0 PUSH1 0xFF DUP3 AND PUSH1 0xFF DUP2 EQ ISZERO PUSH2 0x489F JUMPI PUSH2 0x489F PUSH2 0x485A JUMP JUMPDEST PUSH1 0x1 ADD SWAP3 SWAP2 POP POP JUMP JUMPDEST PUSH1 0x0 PUSH1 0x20 DUP3 DUP5 SUB SLT ISZERO PUSH2 0x48BA JUMPI PUSH1 0x0 DUP1 REVERT JUMPDEST DUP2 MLOAD DUP1 ISZERO ISZERO DUP2 EQ PUSH2 0x2209 JUMPI PUSH1 0x0 DUP1 REVERT JUMPDEST PUSH1 0x1 DUP2 DUP2 JUMPDEST DUP1 DUP6 GT ISZERO PUSH2 0x4905 JUMPI DUP2 PUSH1 0x0 NOT DIV DUP3 GT ISZERO PUSH2 0x48EB JUMPI PUSH2 0x48EB PUSH2 0x485A JUMP JUMPDEST DUP1 DUP6 AND ISZERO PUSH2 0x48F8 JUMPI SWAP2 DUP2 MUL SWAP2 JUMPDEST SWAP4 DUP5 SHR SWAP4 SWAP1 DUP1 MUL SWAP1 PUSH2 0x48CF JUMP JUMPDEST POP SWAP3 POP SWAP3 SWAP1 POP JUMP JUMPDEST PUSH1 0x0 DUP3 PUSH2 0x491C JUMPI POP PUSH1 0x1 PUSH2 0x9D9 JUMP JUMPDEST DUP2 PUSH2 0x4929 JUMPI POP PUSH1 0x0 PUSH2 0x9D9 JUMP JUMPDEST DUP2 PUSH1 0x1 DUP2 EQ PUSH2 0x493F JUMPI PUSH1 0x2 DUP2 EQ PUSH2 0x4949 JUMPI PUSH2 0x4965 JUMP JUMPDEST PUSH1 0x1 SWAP2 POP POP PUSH2 0x9D9 JUMP JUMPDEST PUSH1 0xFF DUP5 GT ISZERO PUSH2 0x495A JUMPI PUSH2 0x495A PUSH2 0x485A JUMP JUMPDEST POP POP PUSH1 0x1 DUP3 SHL PUSH2 0x9D9 JUMP JUMPDEST POP PUSH1 0x20 DUP4 LT PUSH2 0x133 DUP4 LT AND PUSH1 0x4E DUP5 LT PUSH1 0xB DUP5 LT AND OR ISZERO PUSH2 0x4988 JUMPI POP DUP2 DUP2 EXP PUSH2 0x9D9 JUMP JUMPDEST PUSH2 0x4992 DUP4 DUP4 PUSH2 0x48CA JUMP JUMPDEST DUP1 PUSH1 0x0 NOT DIV DUP3 GT ISZERO PUSH2 0x49A6 JUMPI PUSH2 0x49A6 PUSH2 0x485A JUMP JUMPDEST MUL SWAP4 SWAP3 POP POP POP JUMP JUMPDEST PUSH1 0x0 PUSH2 0x2209 DUP4 DUP4 PUSH2 0x490D JUMP JUMPDEST PUSH1 0x0 DUP3 PUSH2 0x49D7 JUMPI PUSH4 0x4E487B71 PUSH1 0xE0 SHL PUSH1 0x0 MSTORE PUSH1 0x12 PUSH1 0x4 MSTORE PUSH1 0x24 PUSH1 0x0 REVERT JUMPDEST POP DIV SWAP1 JUMP JUMPDEST PUSH1 0x0 DUP2 PUSH1 0x0 NOT DIV DUP4 GT DUP3 ISZERO ISZERO AND ISZERO PUSH2 0x49F6 JUMPI PUSH2 0x49F6 PUSH2 0x485A JUMP JUMPDEST POP MUL SWAP1 JUMP JUMPDEST PUSH1 0x0 PUSH1 0xFF DUP3 AND PUSH1 0xFF DUP5 AND DUP1 PUSH1 0xFF SUB DUP3 GT ISZERO PUSH2 0x4A18 JUMPI PUSH2 0x4A18 PUSH2 0x485A JUMP JUMPDEST ADD SWAP4 SWAP3 POP POP POP JUMP JUMPDEST PUSH4 0x4E487B71 PUSH1 0xE0 SHL PUSH1 0x0 MSTORE PUSH1 0x32 PUSH1 0x4 MSTORE PUSH1 0x24 PUSH1 0x0 REVERT JUMPDEST PUSH1 0x0 PUSH1 0x20 DUP3 DUP5 SUB SLT ISZERO PUSH2 0x4A48 JUMPI PUSH1 0x0 DUP1 REVERT JUMPDEST POP MLOAD SWAP2 SWAP1 POP JUMP JUMPDEST PUSH1 0x0 PUSH1 0x0 NOT DUP3 EQ ISZERO PUSH2 0x4A63 JUMPI PUSH2 0x4A63 PUSH2 0x485A JUMP JUMPDEST POP PUSH1 0x1 ADD SWAP1 JUMP JUMPDEST PUSH1 0x20 DUP1 DUP3 MSTORE PUSH1 0x18 SWAP1 DUP3 ADD MSTORE PUSH32 0x73686172652076616C75652063616E206E6F7420626520300000000000000000 PUSH1 0x40 DUP3 ADD MSTORE PUSH1 0x60 ADD SWAP1 JUMP JUMPDEST PUSH1 0x0 DUP3 DUP3 LT ISZERO PUSH2 0x4AB3 JUMPI PUSH2 0x4AB3 PUSH2 0x485A JUMP JUMPDEST POP SUB SWAP1 JUMP JUMPDEST DUP1 MLOAD PUSH10 0xFFFFFFFFFFFFFFFFFFFF DUP2 AND DUP2 EQ PUSH2 0x41E3 JUMPI PUSH1 0x0 DUP1 REVERT JUMPDEST PUSH1 0x0 DUP1 PUSH1 0x0 DUP1 PUSH1 0x0 PUSH1 0xA0 DUP7 DUP9 SUB SLT ISZERO PUSH2 0x4AEA JUMPI PUSH1 0x0 DUP1 REVERT JUMPDEST PUSH2 0x4AF3 DUP7 PUSH2 0x4AB8 JUMP JUMPDEST SWAP5 POP PUSH1 0x20 DUP7 ADD MLOAD SWAP4 POP PUSH1 0x40 DUP7 ADD MLOAD SWAP3 POP PUSH1 0x60 DUP7 ADD MLOAD SWAP2 POP PUSH2 0x4B16 PUSH1 0x80 DUP8 ADD PUSH2 0x4AB8 JUMP JUMPDEST SWAP1 POP SWAP3 SWAP6 POP SWAP3 SWAP6 SWAP1 SWAP4 POP JUMP JUMPDEST PUSH1 0x0 PUSH1 0x20 DUP3 DUP5 SUB SLT ISZERO PUSH2 0x4B34 JUMPI PUSH1 0x0 DUP1 REVERT JUMPDEST DUP2 MLOAD PUSH1 0xFF DUP2 AND DUP2 EQ PUSH2 0x2209 JUMPI PUSH1 0x0 DUP1 REVERT INVALID LOG2 PUSH5 0x6970667358 0x22 SLT KECCAK256 BASEFEE SUB JUMPDEST PUSH28 0x7A33F895634D0C5613F1195DC86D81CBCF47980BBFEA7FF597F97B51 PUSH5 0x736F6C6343 STOP ADDMOD SIGNEXTEND STOP CALLER ","sha1":"13e545e655a12c09d4d705d324208576b3187466","source":"// SPDX-License-Identifier: MIT\n\npragma solidity ^0.8.0;\npragma abicoder v2;\n\nimport \"@openzeppelin/contracts/token/ERC20/ERC20.sol\";\nimport \"@chainlink/contracts/src/v0.8/interfaces/AggregatorV3Interface.sol\";\n\ncontract SolidStateToken is ERC20 {\n    struct artworkMeta {\n        string title;\n        string artist;\n        string medium;\n        uint256 year;\n        string dimensions;\n        string mediaDataPackURI;\n    }\n    struct pMeta {\n        string title;\n        string URI;\n    }\n\n    /*\n    struct buyOrder {\n        address orderOwner;\n        uint256 shareValue;\n        uint256 ethValue;\n        uint256 balance;\n        OrderState state;\n    }\n    struct sellOrder {\n        address orderOwner;\n        uint256 shareValue;\n        uint256 ethValue;\n        uint256 balance;\n        OrderState state;\n    }\n\n    enum OrderState {\n        OPEN,\n        CLOSED,\n        CANCELLED\n    }\n\n    mapping(uint256 => buyOrder) public buyOrders;\n    mapping(uint256 => sellOrder) public sellOrders;\n    uint256 buyOrderCount = 0;\n    uint256 sellOrderCount = 0;\n    */\n    mapping(uint256 => pMeta) public provinance;\n    artworkMeta public artworkmeta;\n    uint256 pPointer = 0;\n    uint256 public initialSupply;\n    uint256 public contractSalePrice;\n    bool hasMinted = false;\n    address private purchaserAddress;\n    uint256 private purchaserOfferETH;\n    uint256 private decreaseLimit = 5;\n    address private PriceFeed;\n    bool public forSale = false;\n    AggregatorV3Interface public priceFeed;\n    address[] private owners;\n    uint256 ownerCount = 0;\n\n    enum OfferState {\n        FOR_SALE,\n        NOT_FOR_SALE,\n        OFFER_MADE,\n        OFFER_ACCEPTED\n    }\n    OfferState public offerState;\n\n    constructor(\n        uint256 _initialSupply,\n        uint256 _salePrice,\n        string memory _name,\n        string memory _tokenSymbol,\n        address _priceFeed\n    ) public ERC20(_name, _tokenSymbol) {\n        initialSupply = _initialSupply;\n        contractSalePrice = _salePrice;\n        offerState = OfferState.NOT_FOR_SALE;\n        PriceFeed = _priceFeed;\n        owners.push(msg.sender);\n    }\n\n    modifier onlyOwner() {\n        require(msg.sender == owners[ownerCount]);\n        _;\n    }\n\n    function decimals() public view virtual override returns (uint8) {\n        return 0;\n    }\n\n    function setMetaData(\n        string memory _title,\n        string memory _artist,\n        string memory _medium,\n        string memory _dimensions,\n        uint256 _year,\n        string memory _mediaDataPackURI\n    ) public onlyOwner {\n        if (bytes(_title).length != 0) {\n            artworkmeta.title = _title;\n        }\n        if (bytes(_artist).length != 0) {\n            artworkmeta.artist = _artist;\n        }\n        if (bytes(_medium).length != 0) {\n            artworkmeta.medium = _medium;\n        }\n        if (bytes(_dimensions).length != 0) {\n            artworkmeta.dimensions = _dimensions;\n        }\n        if (_year != 0) {\n            artworkmeta.year = _year;\n        }\n        if (bytes(_mediaDataPackURI).length != 0) {\n            artworkmeta.mediaDataPackURI = _mediaDataPackURI;\n        }\n    }\n\n    function getMetaData() public view returns (artworkMeta memory) {\n        return (artworkmeta);\n    }\n\n    function mintTokens() public onlyOwner {\n        require(hasMinted == false, \"Tokens Already Minted!\");\n        require(pPointer > 0, \"Provinance must be supplied\");\n        _mint(address(this), initialSupply);\n        hasMinted = true;\n    }\n\n    function getOwners() public view returns (address[] memory) {\n        return owners;\n    }\n\n    function addProvinance(string memory _title, string memory _meta)\n        public\n        onlyOwner\n    {\n        pMeta storage pmeta = provinance[pPointer];\n        pmeta.title = _title;\n        pmeta.URI = _meta;\n        pPointer += 1;\n    }\n\n    function getProvinanceCount() public view returns (uint256) {\n        return pPointer;\n    }\n\n    function getProvinanceByIndex(uint256 _index)\n        public\n        view\n        returns (string memory, string memory)\n    {\n        return (provinance[_index].title, provinance[_index].URI);\n    }\n\n    // Token functions to release tokens into the wild\n    function contractReleaseTokens(address _address, uint256 _value)\n        public\n        onlyOwner\n    {\n        require(\n            IERC20(address(this)).balanceOf(address(this)) > _value,\n            \"Not Enough Tokens\"\n        );\n\n        //\n        IERC20(address(this)).transfer(_address, _value);\n    }\n\n    function contractTokenBalance() public view returns (uint256) {\n        return IERC20(address(this)).balanceOf(address(this));\n    }\n\n    function setForSaleOn() public onlyOwner {\n        offerState = OfferState.FOR_SALE;\n    }\n\n    function setForSaleOff() public onlyOwner {\n        offerState = OfferState.NOT_FOR_SALE;\n    }\n\n    function isForSale() public view returns (bool) {\n        if (offerState == OfferState.FOR_SALE) {\n            return true;\n        } else {\n            return false;\n        }\n    }\n\n    ///// functions to sell the contract/artwork in ether\n    function getContractPriceInETH() public returns (uint256) {\n        (uint256 price, uint256 _decimals) = getPriceFeedCurrencyETHValue();\n\n        return\n            (contractSalePrice * (10**_decimals)) / (price / (10**_decimals));\n    }\n\n    function getContractPricePriceFeedCurrency() public returns (uint256) {\n        (uint256 price, uint256 _decimals) = getPriceFeedCurrencyETHValue();\n\n        return\n            (contractSalePrice * (10**_decimals)) / (price / (10**_decimals));\n    }\n\n    function makeOfferToBuyContract() public payable {\n        // this has to be updated to ETH\n        /*\n        require(offerState == OfferState.FOR_SALE, \"NOT FOR SALE\");\n        offerState = OfferState.OFFER_MADE;\n        uint256 contractPriceETH = getContractPriceInETH();\n        uint256 minimumETH = (contractPriceETH / 100) * (100 - decreaseLimit);\n        require(msg.value >= minimumETH, \"Offer To Low\");\n        offerState = OfferState.OFFER_ACCEPTED;\n        require(\n            offerState == OfferState.OFFER_ACCEPTED,\n            \"No Offer has been accepted!\"\n        );\n        address payable OWNER = payable(owners[ownerCount]);\n        // this will need to be updated\n        OWNER.transfer(address(this).balance);\n        owners.push(msg.sender);\n        ownerCount += 1;\n        offerState = OfferState.NOT_FOR_SALE;\n        */\n        require(offerState == OfferState.FOR_SALE, \"NOT FOR SALE\");\n        offerState = OfferState.OFFER_MADE;\n        require(msg.value == contractSalePrice, \"Incorrect Price\");\n        offerState = OfferState.OFFER_ACCEPTED;\n        require(\n            offerState == OfferState.OFFER_ACCEPTED,\n            \"No Offer has been accepted!\"\n        );\n        address payable OWNER = payable(owners[ownerCount]);\n        OWNER.transfer(msg.value);\n        owners.push(msg.sender);\n        ownerCount += 1;\n        offerState = OfferState.NOT_FOR_SALE;\n    }\n\n    function updateOfferDecreaseLimit(uint256 _percent) public onlyOwner {\n        decreaseLimit = _percent;\n    }\n\n    function viewOfferDecreaseLimit() public view returns (uint256) {\n        return decreaseLimit;\n    }\n\n    function setPriceFeed(address _priceFeed) public onlyOwner {\n        PriceFeed = _priceFeed;\n    }\n\n    function getPriceFeed() public view onlyOwner returns (address) {\n        return PriceFeed;\n    }\n\n    function getPriceFeedCurrencyETHValue() public returns (uint256, uint256) {\n        //function getUSDETHValue() public returns (uint256, uint256) {\n        priceFeed = AggregatorV3Interface(PriceFeed);\n        (, int256 price, , , ) = priceFeed.latestRoundData();\n        uint256 _decimals = uint256(priceFeed.decimals());\n        return (uint256(price), _decimals);\n    }\n\n    function updateContractSalePrice(uint256 _salePrice) public onlyOwner {\n        contractSalePrice = _salePrice;\n    }\n\n    function getContractSalePrice() public view returns (uint256) {\n        return contractSalePrice;\n    }\n\n    ///. trade share functions\n    struct buyOrder {\n        //address artworkAddress;\n        address orderOwner;\n        uint256 shareValue;\n        uint256 ethValue;\n        uint256 balance;\n        OrderState state;\n    }\n    struct sellOrder {\n        //address artworkAddress;\n        address orderOwner;\n        uint256 shareValue;\n        uint256 ethValue;\n        uint256 balance;\n        OrderState state;\n    }\n\n    enum OrderState {\n        OPEN,\n        CLOSED,\n        CANCELLED\n    }\n    struct transaction {\n        // address artwork;\n        uint256 eth;\n        uint256 share;\n        uint256 buyId;\n        uint256 sellId;\n        address buyer;\n        address seller;\n        uint256 timestamp;\n    }\n\n    mapping(uint256 => transaction) private transactions;\n    uint256 transactionCount = 0;\n\n    mapping(uint256 => buyOrder) private buyOrders;\n    mapping(uint256 => sellOrder) private sellOrders;\n    uint256 buyOrderCount = 0;\n    uint256 sellOrderCount = 0;\n\n    function balanceOfHeldShares() public view returns (uint256) {\n        (\n            uint256[] memory _shareValues,\n            uint256[] memory _ethValues,\n            uint256[] memory _balances,\n            uint256[] memory _ids\n        ) = getAllSellOrders();\n        uint256 total = 0;\n        for (uint8 j = 0; j < _balances.length; j++) {\n            total += _balances[j];\n        }\n        return total;\n    }\n\n    function getAllBuyOrders()\n        public\n        view\n        returns (\n            uint256[] memory,\n            uint256[] memory,\n            uint256[] memory,\n            uint256[] memory\n        )\n    {\n        uint8 c = 0;\n        for (uint8 j = 0; j < buyOrderCount; j++) {\n            if (buyOrders[j].state == OrderState.OPEN) {\n                //if (buyOrders[j].artworkAddress == _artworkAddress) {\n                c += 1;\n                //}\n            }\n        }\n\n        uint256[] memory _shareValues = new uint256[](c);\n        uint256[] memory _ethValues = new uint256[](c);\n        uint256[] memory _balances = new uint256[](c);\n        uint256[] memory _ids = new uint256[](c);\n        c = 0;\n        for (uint8 j = 0; j < buyOrderCount; j++) {\n            if (buyOrders[j].state == OrderState.OPEN) {\n                // if (buyOrders[j].artworkAddress == _artworkAddress) {\n                _shareValues[c] = buyOrders[j].shareValue;\n                _ethValues[c] = buyOrders[j].ethValue;\n                _balances[c] = buyOrders[j].balance;\n                _ids[c] = j;\n                c++;\n                // }\n            }\n        }\n        return (_shareValues, _ethValues, _balances, _ids);\n    }\n\n    function getBuyOrdersByAddress(address _address)\n        public\n        view\n        returns (\n            address[] memory,\n            uint256[] memory,\n            uint256[] memory,\n            uint256[] memory,\n            OrderState[] memory,\n            uint256[] memory\n        )\n    {\n        uint8 c = 0;\n        for (uint8 j = 0; j < buyOrderCount; j++) {\n            if (buyOrders[j].orderOwner == _address) {\n                //if (buyOrders[j].artworkAddress == _artworkAddress) {\n                c++;\n                //}\n            }\n        }\n        address[] memory _orderOwners = new address[](c);\n        uint256[] memory _shareValues = new uint256[](c);\n        uint256[] memory _ethValues = new uint256[](c);\n        uint256[] memory _balances = new uint256[](c);\n        uint256[] memory _ids = new uint256[](c);\n        OrderState[] memory _states = new OrderState[](c);\n        c = 0;\n        for (uint8 j = 0; j < buyOrderCount; j++) {\n            if (buyOrders[j].orderOwner == _address) {\n                //if (buyOrders[j].artworkAddress == _artworkAddress) {\n                _orderOwners[c] = buyOrders[j].orderOwner;\n                _shareValues[c] = buyOrders[j].shareValue;\n                _ethValues[c] = buyOrders[j].ethValue;\n                _balances[c] = buyOrders[j].balance;\n\n                _ids[c] = j;\n                _states[c] = buyOrders[j].state;\n                c++;\n                //}\n            }\n        }\n        return (\n            _orderOwners,\n            _shareValues,\n            _ethValues,\n            _balances,\n            _states,\n            _ids\n        );\n    }\n\n    function getAllSellOrders()\n        public\n        view\n        returns (\n            uint256[] memory,\n            uint256[] memory,\n            uint256[] memory,\n            uint256[] memory\n        )\n    {\n        uint8 c = 0;\n        for (uint8 j = 0; j < sellOrderCount; j++) {\n            //if (sellOrders[j].artworkAddress == _artworkAddress) {\n            if (sellOrders[j].state == OrderState.OPEN) {\n                c++;\n            }\n            //}\n        }\n        uint256[] memory _shareValues = new uint256[](c);\n        uint256[] memory _ethValues = new uint256[](c);\n        uint256[] memory _balances = new uint256[](c);\n        uint256[] memory _ids = new uint256[](c);\n        c = 0;\n        for (uint8 j = 0; j < sellOrderCount; j++) {\n            // if (sellOrders[j].artworkAddress == _artworkAddress) {\n            if (sellOrders[j].state == OrderState.OPEN) {\n                _shareValues[c] = sellOrders[j].shareValue;\n                _ethValues[c] = sellOrders[j].ethValue;\n                _balances[c] = sellOrders[j].balance;\n                _ids[c] = j;\n                c++;\n            }\n            //  }\n        }\n        return (_shareValues, _ethValues, _balances, _ids);\n    }\n\n    function getSellOrdersByAddress(address _address)\n        public\n        view\n        returns (\n            address[] memory,\n            uint256[] memory,\n            uint256[] memory,\n            uint256[] memory,\n            OrderState[] memory,\n            uint256[] memory\n        )\n    {\n        uint8 c = 0;\n        for (uint8 j = 0; j < sellOrderCount; j++) {\n            //  if (sellOrders[j].artworkAddress == _artworkAddress) {\n            if (sellOrders[j].orderOwner == _address) {\n                c++;\n            }\n            // }\n        }\n        address[] memory _orderOwners = new address[](c);\n        uint256[] memory _shareValues = new uint256[](c);\n        uint256[] memory _ethValues = new uint256[](c);\n        uint256[] memory _balances = new uint256[](c);\n        uint256[] memory _ids = new uint256[](c);\n        OrderState[] memory _states = new OrderState[](c);\n        c = 0;\n        for (uint8 j = 0; j < sellOrderCount; j++) {\n            if (sellOrders[j].orderOwner == _address) {\n                //if (sellOrders[j].artworkAddress == _artworkAddress) {\n                _orderOwners[c] = sellOrders[j].orderOwner;\n                _shareValues[c] = sellOrders[j].shareValue;\n                _ethValues[c] = sellOrders[j].ethValue;\n                _balances[c] = sellOrders[j].balance;\n                _states[c] = sellOrders[j].state;\n                _ids[c] = j;\n                c++;\n                //}\n            }\n        }\n        return (\n            _orderOwners,\n            _shareValues,\n            _ethValues,\n            _balances,\n            _states,\n            _ids\n        );\n    }\n\n    function placeBuyOrder(uint256 shareValue, uint256 ethValue)\n        public\n        payable\n        returns (uint256)\n    {\n        require(shareValue > 0, \"share value can not be 0\");\n        require(ethValue > 0, \"share value can not be 0\");\n\n        require((msg.value / shareValue) == ethValue, \"can not make order\");\n        buyOrders[buyOrderCount] = buyOrder(\n            //  _artworkAddress,\n            msg.sender,\n            shareValue,\n            ethValue,\n            msg.value,\n            OrderState.OPEN\n        );\n\n        fillBuyOrder(buyOrderCount);\n        buyOrderCount += 1;\n        return buyOrderCount - 1;\n    }\n\n    function placeSellOrder(uint256 shareValue, uint256 ethValue)\n        public\n        returns (uint256)\n    {\n        require(shareValue > 0, \"share value can not be 0\");\n        require(ethValue > 0, \"share value can not be 0\");\n        //IERC20(_artworkAddress).allowance(msg.sender, address(this));\n        IERC20(address(this)).transferFrom(\n            msg.sender,\n            address(this),\n            shareValue\n        );\n        sellOrders[sellOrderCount] = sellOrder(\n            //   _artworkAddress,\n            msg.sender,\n            shareValue,\n            ethValue,\n            shareValue,\n            OrderState.OPEN\n        );\n\n        fillSellOrder(sellOrderCount);\n        sellOrderCount += 1;\n        return sellOrderCount - 1; // IERC20(_artworkAddress).balanceOf(msg.sender); //\n    }\n\n    function cancelBuyOrder(uint256 id) public {\n        require(\n            buyOrders[id].orderOwner == msg.sender,\n            \"msg.sender is not order owner\"\n        );\n        require(buyOrders[id].state == OrderState.OPEN, \"order is not open\");\n\n        address payable payee = payable(msg.sender);\n        payee.transfer(buyOrders[id].balance);\n        buyOrders[id].balance = 0;\n        buyOrders[id].state = OrderState.CANCELLED;\n    }\n\n    function cancelSellOrder(uint256 id) public {\n        require(\n            sellOrders[id].orderOwner == msg.sender,\n            \"msg.sender is not order owner\"\n        );\n        require(sellOrders[id].state == OrderState.OPEN, \"order is not open\");\n\n        sellOrders[id].state = OrderState.CANCELLED;\n        IERC20(address(this)).transfer(\n            sellOrders[id].orderOwner,\n            sellOrders[id].balance\n        );\n        sellOrders[id].balance = 0;\n    }\n\n    function getHeldShares() public view returns (uint256) {\n        uint256 heldShares = 0;\n        for (uint8 j = 0; j < sellOrderCount; j++) {\n            // if (sellOrders[j].artworkAddress == _artworkAddress) {\n            heldShares += sellOrders[j].balance;\n            //  }\n        }\n        return heldShares;\n    }\n\n    function getHeldETH() public view returns (uint256) {\n        uint256 heldETH = 0;\n        for (uint8 j = 0; j < buyOrderCount; j++) {\n            //  if (buyOrders[j].artworkAddress == _artworkAddress) {\n            heldETH += buyOrders[j].balance;\n            //  }\n        }\n        return heldETH;\n    }\n\n    function fillBuyOrder(uint256 bc) private {\n        for (uint8 j = 0; j < sellOrderCount; j++) {\n            if (sellOrders[j].state == OrderState.OPEN) {\n                if (buyOrders[bc].state == OrderState.OPEN) {\n                    // if (\n                    //     sellOrders[j].artworkAddress ==\n                    //     buyOrders[bc].artworkAddress\n                    //) {\n                    if (sellOrders[j].ethValue == buyOrders[bc].ethValue) {\n                        address payable seller = payable(\n                            sellOrders[j].orderOwner\n                        );\n                        uint256 transferAmount = 0;\n                        if (sellOrders[j].balance >= buyOrders[bc].shareValue) {\n                            sellOrders[j].balance =\n                                sellOrders[j].balance -\n                                buyOrders[bc].shareValue;\n\n                            transferAmount = buyOrders[bc].shareValue;\n\n                            buyOrders[bc].balance = 0;\n                            buyOrders[bc].shareValue = 0;\n\n                            buyOrders[bc].state = OrderState.CLOSED;\n\n                            if (sellOrders[j].balance == 0) {\n                                sellOrders[j].state = OrderState.CLOSED;\n                            }\n                        } else {\n                            buyOrders[bc].balance =\n                                buyOrders[bc].balance -\n                                (sellOrders[j].ethValue *\n                                    sellOrders[j].balance);\n\n                            buyOrders[bc].shareValue =\n                                buyOrders[bc].shareValue -\n                                sellOrders[j].balance;\n\n                            transferAmount = sellOrders[j].balance;\n\n                            sellOrders[j].balance = 0;\n                            sellOrders[j].state = OrderState.CLOSED;\n                            if (buyOrders[bc].balance == 0) {\n                                buyOrders[bc].state = OrderState.CLOSED;\n                            }\n                        }\n                        seller.transfer(\n                            buyOrders[bc].ethValue * transferAmount\n                        );\n\n                        IERC20(address(this)).transfer(\n                            buyOrders[bc].orderOwner,\n                            transferAmount\n                        );\n                        orderTransaction(\n                            buyOrders[bc].ethValue * transferAmount,\n                            transferAmount,\n                            bc,\n                            j,\n                            buyOrders[bc].orderOwner,\n                            sellOrders[j].orderOwner\n                        );\n                    }\n                    //}\n                }\n            }\n        }\n    }\n\n    function fillSellOrder(uint256 sc) private {\n        for (uint8 j = 0; j < buyOrderCount; j++) {\n            if (sellOrders[sc].state == OrderState.OPEN) {\n                if (buyOrders[j].state == OrderState.OPEN) {\n                    // if (\n                    //    sellOrders[sc].artworkAddress ==\n                    //     buyOrders[j].artworkAddress\n                    // ) {\n                    if (sellOrders[sc].ethValue == buyOrders[j].ethValue) {\n                        address payable seller = payable(\n                            sellOrders[sc].orderOwner\n                        );\n                        uint256 transferAmount = 0;\n                        if (sellOrders[sc].balance >= buyOrders[j].shareValue) {\n                            sellOrders[sc].balance =\n                                sellOrders[sc].balance -\n                                buyOrders[j].shareValue;\n\n                            transferAmount = buyOrders[j].shareValue;\n\n                            buyOrders[j].balance = 0;\n                            buyOrders[j].shareValue = 0;\n\n                            buyOrders[j].state = OrderState.CLOSED;\n\n                            if (sellOrders[sc].balance == 0) {\n                                sellOrders[sc].state = OrderState.CLOSED;\n                            }\n                        } else {\n                            buyOrders[j].balance =\n                                buyOrders[j].balance -\n                                (sellOrders[sc].ethValue *\n                                    sellOrders[sc].balance);\n\n                            transferAmount = sellOrders[sc].balance;\n                            buyOrders[j].shareValue =\n                                buyOrders[j].shareValue -\n                                sellOrders[sc].balance;\n\n                            sellOrders[sc].balance = 0;\n                            sellOrders[sc].state = OrderState.CLOSED;\n                            if (buyOrders[j].balance == 0) {\n                                buyOrders[j].state = OrderState.CLOSED;\n                            }\n                        }\n\n                        seller.transfer(buyOrders[j].ethValue * transferAmount);\n                        IERC20(address(this)).transfer(\n                            buyOrders[j].orderOwner,\n                            transferAmount\n                        );\n                        orderTransaction(\n                            //    buyOrders[j].artworkAddress,\n                            buyOrders[j].ethValue * transferAmount,\n                            transferAmount,\n                            j,\n                            sc,\n                            buyOrders[j].orderOwner,\n                            sellOrders[sc].orderOwner\n                        );\n                    }\n                    // }\n                }\n            }\n        }\n    }\n\n    function orderTransaction(\n        //   address artwork,\n        uint256 eth,\n        uint256 share,\n        uint256 buyId,\n        uint256 sellId,\n        address buyer,\n        address seller\n    ) internal {\n        // transactions[transactionCount].artwork = artwork;\n        transactions[transactionCount].eth = eth;\n        transactions[transactionCount].share = share;\n        transactions[transactionCount].timestamp = block.timestamp;\n        transactions[transactionCount].buyId = buyId;\n        transactions[transactionCount].sellId = sellId;\n        transactions[transactionCount].buyer = buyer;\n        transactions[transactionCount].seller = seller;\n        transactionCount++;\n    }\n\n    function getTransactions()\n        public\n        view\n        returns (\n            uint256[] memory,\n            uint256[] memory,\n            uint256[] memory,\n            address[] memory,\n            address[] memory\n        )\n    {\n        uint256 c = 0;\n        for (uint8 j = 0; j < transactionCount; j++) {\n            //if (transactions[j].artwork == _artworkAddress) {\n            c++;\n            //}\n        }\n        // address[] memory artwork = new address[](c);\n        uint256[] memory eth = new uint256[](c);\n        uint256[] memory share = new uint256[](c);\n        uint256[] memory timestamp = new uint256[](c);\n        address[] memory buyer = new address[](c);\n        address[] memory seller = new address[](c);\n        c = 0;\n        for (uint8 j = 0; j < transactionCount; j++) {\n            // if (transactions[j].artwork == _artworkAddress) {\n            // artwork[c] = transactions[j].artwork;\n            eth[c] = transactions[j].eth;\n            share[c] = transactions[j].share;\n            timestamp[c] = transactions[j].timestamp;\n            buyer[c] = transactions[j].buyer;\n            seller[c] = transactions[j].seller;\n            c++;\n            //}\n        }\n        return (eth, share, timestamp, buyer, seller);\n    }\n}\n","sourcePath":"contracts/SolidStateToken.sol","type":"contract","deployment":{"address":"0xD7e59Fd0B2517Eb2d5193C0E375B03Fc56A112f6","chainid":"42","blockHeight":31234244}}